:100000000C94F1010C9422020C9422020C94220212
:100010000C9422020C9422020C9422020C942202D0
:100020000C9422020C9422020C9422020C942202C0
:100030000C9422020C9422020C9422020C942202B0
:100040000C9422020C9422020C9422020C942202A0
:100050000C9422020C9422020C9422020C94283E4E
:100060000C9422020C94EE370C9424380C94220247
:100070000C9422020C9422020C9422020C94220270
:100080000C9422020C9422020C9422020C94220260
:100090000C9422020C9422020C9422020C94220250
:1000A0000C9422020C9422020C9422020C94220240
:1000B0000C9422020C9422020C9422020C94220230
:1000C0000C9422020C9422020C9422020C94853887
:1000D0000C94BB380C9422020C941C390C945239A9
:1000E0000C9422028C3F8F3F7E3F823F883FC63F69
:1000F000933F973F9D3FA13FA53FAB3FAF3FB33FEE
:10010000C63FB93FBD3FC13F0C9482170C941E23DC
:100110000C94B33F0C94F60C0C9483030C9434238E
:100120000C94CF0F0C9400110C9494100C94AB3FD2
:100130000C948F3F0C94B93F0C94933F0C94860B16
:100140000C94590E0C944B0F0C94820B0C94C63FDC
:100150000C94BD3F0C947B1F0C94BB360C94780B15
:100160000C94C30D0C947E360C94702A0C946B0B7B
:100170000C9424020C946F230C947E3F0C945838FA
:100180000C94991A0C949E100C941A370C94C43148
:100190000C9467370C94790D0C949D3F0C948A361F
:1001A0000C94CB0F0C945F0D0C944E380C941824C7
:1001B0000C949C0B0C9405270C94B00F0C94270204
:1001C0000C94C70F0C94B8100C9416100C94E90FF3
:1001D0000C94AC360C940F110C94823F0C94140DBB
:1001E0000C940C040C9450230C948C3F0C9495228A
:1001F0000C94FF0C0C94E5380C94EF380C94AF3F42
:100200000C9498360C947C390C94F80F0C94A50F30
:100210000C94330D0C943C0D0C94EA0F0C94A53FF8
:100220000C94461A0C94640E0C9486390C94E110CC
:100230000C942A3A0C9452110C94F10D0C94A70BC7
:100240000C94C13F0C945D220C9479230C94A4105F
:100250000C94AC110C94B70F0C9466240C94580CAD
:100260000C94B3390C94A13F0C947A0E0C94730B3C
:100270000C94A10E0C94CA0B0C942B0E0C94883F7A
:100280000C94760B0C94450D0C94D30F0C945D0BD1
:100290000C94973F7C3C3E5E2B3D3F2F5B5D3B2C9F
:1002A0002A225C0000000A0B02090C0D0E0807034D
:1002B0000401000000000000000000000000000039
:1002C000000000000000000000000000000000002E
:1002D00012111000000000000000000000000000EB
:1002E00000000000000000000000010210202008B3
:1002F0000810204010204080020102010804020181
:1003000001020408102040808040201008040201EF
:100310008004020180402010080402010804020148
:1003200001020408102040800102040810204080CF
:1003300005050505070508080808020202020A0A61
:10034000080804040404010101010101010103037F
:10035000030303030303040707070C0C0C0C0C0C2A
:100360000C0C0202020206060606060606060B0B27
:100370000B0B0B0B0B0B00002000230026002900A9
:100380002C002F00320000010000030106010901CA
:1003900000002200250028002B002E003100340030
:1003A00002010000050108010B01000021002400EA
:1003B00027002A002D003000330001010000040155
:1003C00007010A0183035D0B590EA50FAC118217BB
:1003D000461A991A7B1F0527702A5838EF38863934
:1003E0000C0411241FBECFEFD1E2DEBFCDBF00E071
:1003F0000CBF16E0A0E0B2E0E8ECF8E800E00BBFCC
:1004000002C007900D92A232B107D9F720E1A2E213
:10041000B6E001C01D92A233B207E1F711E0C0EFD0
:10042000D1E000E006C021970109802FFE010E9463
:100430009C40C23ED10780E00807A9F70E94153E04
:100440000C9452440C94000080E090E008950895CC
:10045000009711F00E94A03A61E08DE00E94C73F32
:1004600061E08DE00E9403406AEF70E080E090E080
:100470000E94A33E60E08DE00E9403406AEF70E0BE
:1004800080E090E00E94A33EEBCFFB019C01205F47
:100490003F4FDC016D917D91CD01419151916417E8
:1004A000750729F4A217B307A1F781E0089580E04A
:1004B0000895EF92FF920F931F93CF93DF937C01E8
:1004C00001EE16E0C0E0D0E0B701C8010E9445028D
:1004D000811109C02196005F1F4FCC33D105A1F7D0
:1004E0008FEF9FEF01C0CE01DF91CF911F910F9150
:1004F000FF90EF9008959C01205331092A30310577
:1005000040F02151310981E02630310518F080E0BA
:10051000089581E00895CF93DF930E9459022091BE
:100520000A02019649F4222381F069E272E08EE426
:100530009EE00E94A03A09C0222351F06DE272E0D1
:100540008EE49EE00E94A03A03C0CFEFDFEF02C02E
:10055000C1E0D0E080910A02882331F063E372E0C9
:100560008EE49EE00E94773ACE01DF91CF9108950C
:10057000CF92DF92EF92FF920F931F93CF93DF936F
:1005800000D000D0CDB7DEB77C016B016FE276E022
:1005900089E296E00E94813CB60189E296E00E94E1
:1005A000BF3DF601048115810F5F1F4F080F191F12
:1005B0006DEA72E0CE0101960E944C3CA801BE019A
:1005C0006F5F7F4F89E296E00E94A23D8C01B601E9
:1005D00089E296E00E94BF3DF601448155814F5F5C
:1005E0005F4F480F591F980169E276E0C7010E94EA
:1005F000C33DCE0101960E94DE3BC70126960FB691
:10060000F894DEBF0FBECDBFDF91CF911F910F9148
:10061000FF90EF90DF90CF9008950F931F93CF93AB
:10062000DF9388E10E943240892BA9F18091B306C3
:100630009091B406892B79F18091B5069091B60618
:10064000009741F46FEA72E08091B1069091B20692
:100650000E942802FC01C081D181028113810E9485
:10066000263E1093B6060093B5068091B30690918E
:10067000B40601979093B4068093B306CE010E940E
:100680001A2364E670E080E090E0DF91CF911F9143
:100690000F910C94A33EDF91CF911F910F9108957C
:1006A000EF92FF920F931F93CF93DF93EC017B01A7
:1006B0000E811F8184E090E00E94243E9F838E8300
:1006C000009731F461EE72E0888199810E942802DE
:1006D000FC0113821282F182E0822C813D81232B66
:1006E00019F49D838C8303C0F801938382838A81EC
:1006F0009B8101969B838A83DF91CF911F910F91FC
:10070000FF90EF9008950F9300E020E040E060E05C
:1007100089EF9AE00E94FF3962E173E089EE9AE086
:100720000E944C3C06E221E048EA60EC83EE9AE04D
:100730000E94FF39EDEDFAE01382128283EA95E020
:100740009183808380E590E09583848365EA72E0FD
:1007500087ED9AE00E944C3C68E173E081ED9AE0FD
:100760000E944C3C6FE173E08BEC9AE00E944C3CA1
:1007700065E673E085EC9AE00E944C3C6FE673E01E
:100780008FEB9AE00E944C3C6BE972E089EB9AE0B7
:100790000E944C3C6AE773E083EB9AE00E944C3C79
:1007A00060EC73E08DEA9AE00E944C3C6AEC73E0E6
:1007B00087EA9AE00E944C3C6FED73E081EA9AE090
:1007C0000E944C3C64EF73E085EC96E00E944C3C48
:1007D0006EEF73E08FEB96E00E944C3C6AE074E0B1
:1007E00089EB96E00E944C3CE1EBF6E0138212822A
:1007F0001582148217821682118210824AE060E804
:1008000070E089E296E00E94983C65EA72E082E23C
:1008100096E00F910C944C3CCF93DF9382E296E0EC
:100820000E94DE3B89E296E00E94DE3BC091B50665
:10083000D091B606CD2B71F08091B5069091B60699
:10084000FC01C281D3810E94263ED093B606C0939C
:10085000B506F0CF89EB96E00E94DE3B8FEB96E089
:100860000E94DE3B85EC96E00E94DE3B81EA9AE046
:100870000E94DE3B87EA9AE00E94DE3B8DEA9AE026
:100880000E94DE3B83EB9AE00E94DE3B89EB9AE01C
:100890000E94DE3B8FEB9AE00E94DE3B85EC9AE003
:1008A0000E94DE3B8BEC9AE00E94DE3B81ED9AE0F9
:1008B0000E94DE3B87ED9AE00E94DE3B89EE9AE0E3
:1008C000DF91CF910C94DE3B8F929F92AF92BF92BB
:1008D000CF92DF92EF92FF920F931F93CF93DF930C
:1008E000CDB7DEB76B970FB6F894DEBF0FBECDBFA6
:1008F0004091C5065091C60621E069EF7BE0CE012C
:1009000001960E948326CE0101960E9459248823D5
:1009100009F451C081EEC82E86E0D82E9AE0892EC7
:10092000912CA12CB12CE12CF12CCE0101960E942E
:100930001824892BE1F100E010E0CE0101960E941D
:100940006F23F601E00FF11F9183808320910A024B
:10095000222369F04AE050E0BC018EE49EE00E9450
:10096000813B6EE572E08EE49EE00E94773A0E5F76
:100970001F4F0031110509F78FEFE81AF80AB5018A
:10098000A401CE0101960E94EB2380910A028111FD
:1009900009C08AE0880E911CA11CB11C80E1C80E20
:1009A000D11CC3CF8EE49EE00E948A3AF2CFF0922F
:1009B000CE06E092CD06CE0101960E9447246B96AA
:1009C0000FB6F894DEBF0FBECDBFDF91CF911F9160
:1009D0000F91FF90EF90DF90CF90BF90AF909F90DE
:1009E0008F900895CF92DF92EF92FF920F931F9313
:1009F000CF93DF93CDB7DEB76B970FB6F894DEBF1A
:100A00000FBECDBF2091CD063091CE06D90144E076
:100A1000AA0FBB1F4A95E1F740E050E0FC0161914D
:100A20007191CF01FA01EA0FFB1FEF51F94F71836A
:100A300060834E5F5F4F4031510581F72F5F3F4F1D
:100A40003093CE062093CD066091C5067091C60600
:100A500089EF9BE00E94FA264091C5065091C60698
:100A600027E169EF7BE0CE0101960E948326CE014B
:100A700001960E945924882339F181EEE82E86E000
:100A8000F82EC12CD12C8091CD069091CE06C8169F
:100A9000D906D0F400E010E0F701E00FF11F60810B
:100AA000CE0101960E941E230E5F1F4F00311105DB
:100AB00099F7CE0101960E948A3AFFEFCF1ADF0A1A
:100AC00080E1E80EF11CDFCFCE0101960E944724A1
:100AD0000E9464046B960FB6F894DEBF0FBECDBFC4
:100AE000DF91CF911F910F91FF90EF90DF90CF900A
:100AF00008958F929F92AF92BF92CF92DF92EF9222
:100B0000FF920F931F93CF93DF93CDB7DEB7A097DC
:100B10000FB6F894DEBF0FBECDBF8C014B0165EA66
:100B200072E00E944C3C66E174E0CE0101960E94A6
:100B30004C3CB401CE0101960E941C3DBC01C80191
:100B40000E94613CCE0101960E94DE3B80910A0228
:100B5000882331F069E374E08EE49EE00E94773AE6
:100B60007E0121E1E20EF11C5701C12CD12CB6010E
:100B7000C4010E94A03D682F880F770BD5016D93AB
:100B80007D935D0180910A02882361F04AE050E084
:100B90008EE49EE00E94813B6EE572E08EE49EE072
:100BA0000E94773ABFEFCB1ADB0AE8E0CE16D104F9
:100BB000F1F6C7010E948B028F3FFFEF9F0751F0B4
:100BC000019719F569EB7AE0C8010E94F23C68E5EB
:100BD00074E018C0FE013196CE018196D7012D91A7
:100BE0003D917D0121933193A817B907B9F7CE0143
:100BF00001960E94F20469EB7AE0C8010E94F23C7F
:100C00006FE374E0C8010E94F93CC801A0960FB6DA
:100C1000F894DEBF0FBECDBFDF91CF911F910F9132
:100C2000FF90EF90DF90CF90BF90AF909F908F900C
:100C30000895CF92DF92EF92FF92CF93DF93CDB7DB
:100C4000DEB7E0970FB6F894DEBF0FBECDBF6FE200
:100C500076E089E296E00E94813C6CE674E0CE0189
:100C600001960E944C3CBE016F5F7F4FCE018B9678
:100C70000E94B802CE0101960E94DE3BCE018B9607
:100C80000E94083E6B017C016FE674E0CE01019684
:100C90000E944C3CBE016F5F7F4FCE0185960E9443
:100CA000B802CE0101960E94DE3B63E774E0CE01FC
:100CB0004F960E944C3CCA94CD2809F055C06CE870
:100CC00074E0CE0101960E944C3CBE016F5F7F4FE5
:100CD000CE0149960E94B802CE0101960E94DE3BE9
:100CE00061E974E0CE0101960E944C3CBE016F5F49
:100CF0007F4FCE0143960E94B802CE0101960E941A
:100D0000DE3BBE016D5E7F4FCE0107960E94783CB0
:100D1000BE01675E7F4FCE010D960E94783CAE010A
:100D2000495F5F4FBE01635F7F4FCE0101960E9416
:100D30007905BE016F5F7F4FCE014F960E94613CE7
:100D4000CE0101960E94DE3BCE010D960E94DE3B55
:100D5000CE0107960E94DE3BCE0143960E94DE3B09
:100D6000CE0149960E94DE3BCE014F960E94DE3BAB
:100D7000CE0185960E94DE3BCE018B960E94DE3B23
:100D8000E0960FB6F894DEBF0FBECDBFDF91CF91D6
:100D9000FF90EF90DF90CF9008950F931F93CF9324
:100DA000DF9300D000D0CDB7DEB726E040E052ECB4
:100DB00061E070E08EE49EE00E94893726E040E02A
:100DC00052EC61E070E088E89FE00E94893726E0FD
:100DD00040E855E260E070E08BEE9EE00E948937CB
:100DE0008BEE9EE00E94B52289E190E00E941623DE
:100DF00064E670E080E090E00E94A33E66E189EF47
:100E00009BE00E94612581110AC080910A0288231B
:100E100031F068EF74E08EE49EE00E94A03A809189
:100E20000A02882331F064E175E08EE49EE00E94BE
:100E3000A03A0E94640400EA1FE020E030E040E6AF
:100E40005AEE60E070E08BE092E00E947B0A8DED4C
:100E50009AE00E947A0E66E275E08EE49EE00E94BF
:100E6000773ACE0101960E94450BBE016F5F7F4F1E
:100E70008EE49EE00E94B23A26960FB6F894DEBF4A
:100E80000FBECDBFDF91CF911F910F910895CF92EB
:100E9000DF92EF92FF920F931F93CF93DF93CDB723
:100EA000DEB7E9970FB6F894DEBF0FBECDBF6C0179
:100EB0007B0165EA72E0CE01C4960E944C3C87013A
:100EC00080E1E80EF11CF80160810E5F1F4FCE013A
:100ED000C4960E94083D0E151F05A9F7BE016C5C63
:100EE0007F4F8EE49EE00E948E3A4091BF06509163
:100EF000C00621E069EF7BE0CE0101960E948326C7
:100F0000CE0101960E945924882309F49DC065EA08
:100F100072E0CE018E960E944C3C65EA72E0CE01F2
:100F200088960E944C3C65EA72E0CE0182960E944F
:100F30004C3C01E010E0CE0101960E941824892B60
:100F400009F46CC0CE0101960E946F237C018F973B
:100F500009F461C08BE3E816F10431F0C7010E9487
:100F60007B02811189C0E7CF0330110509F040C031
:100F7000BE01685D7F4F8EE49EE00E948E3A28E0BD
:100F800030E040E050E0BE01685D7F4FCE014C96FE
:100F90000E94C33DBE01645E7F4F8EE49EE00E94CE
:100FA0008E3ACE014C960E94DE3B6CA57DA54AE0B0
:100FB00050E08EE49EE00E94273BBE01685D7F4FBB
:100FC000CE01C4960E945F3D882391F0BE016E5D04
:100FD0007F4F8EE49EE00E948E3ACE0101960E94E1
:100FE0004724BE016E5D7F4FC6010E94783C1FC042
:100FF00065EA72E0CE018E960E94813C65EA72E05D
:10100000CE0188960E94813C65EA72E0CE0182960C
:101010000E94813C8ECF0F5F1F4F8DCFCE01019676
:101020000E94472464E375E0C6010E944C3CCE0157
:1010300082960E94DE3BCE0188960E94DE3BCE0166
:101040008E960E94DE3B04C0CE0101960E9447248A
:10105000CE01C4960E94DE3BC601E9960FB6F89415
:10106000DEBF0FBECDBFDF91CF911F910F91FF90DB
:10107000EF90DF90CF9008950230110571F46E2D3E
:10108000CE018E9607C00130110509F054CF6E2DA8
:10109000CE0188960E94083D4ECF0330110599F786
:1010A0006E2DCE018296F6CFCF92DF92EF92FF9215
:1010B000CF93DF9300D000D0CDB7DEB761ED76E0FF
:1010C000CE0101960E944707BE016F5F7F4F8EE4FD
:1010D0009EE00E948E3A80E00E944C3FBC01990F36
:1010E000880B990B0E949A3B26E030E040E050E0EC
:1010F00061E070E080E090E00E94BC3B81EB96E014
:101100000E94500364E375E0CE0101960E94703D99
:10111000811111C0CE0101960E94083E6B017C0135
:101120004AE050E08EE49EE00E94883BB60181EBED
:1011300096E00E9450036091B3067091B4064AE0B5
:1011400050E08EE49EE00E94883B60ED77E080E016
:1011500090E00E94A33ECE0101960E94DE3B2696BF
:101160000FB6F894DEBF0FBECDBFDF91CF91FF90D9
:10117000EF90DF90CF9008951F93CF93DF93CDB77B
:10118000DEB72F970FB6F894DEBF0FBECDBF6DED63
:101190007AE0CE0101960E94E30E8D85883008F03A
:1011A00051C069E375E08EE49EE00E94A03A10927F
:1011B000B0061092AF0611E0CE0101960E94A70B77
:1011C0008823D1F1CE0101960E94330D892BA1F322
:1011D000CE0101960E94450D8A3051F5112359F335
:1011E000CE0101960E94330D892BC9F0CE010196E4
:1011F0000E94450D809328062091AF063091B006DD
:10120000203831056CF7A9014F5F5F4F5093B0064E
:101210004093AF06F901E15DF94F8083E1CF6AE4C5
:1012200075E08EE49EE00E94A03A0E941906C4CFA9
:101230008D3011F210E0C0CF61E675E08EE49EE0E3
:101240000E94A03A2F960FB6F894DEBF0FBECDBF16
:10125000DF91CF911F910895CF93DF9300D000D0FD
:10126000CDB7DEB765EA72E0CE0101960E944C3C34
:101270000E94BC08CE0101960E94DE3B26960FB666
:10128000F894DEBF0FBECDBFDF91CF910895CF930D
:10129000DF9388E89FE00E947E36892B59F48FEF18
:1012A0009FEF9093D0068093CF069093CC068093C7
:1012B000CB06D1C088E89FE00E949836EC018C579D
:1012C0009109039798F4D093CC06C093CB06109263
:1012D000D0061092CF0680910A02882339F04AE0A6
:1012E00050E0BE018EE49EE00E94883B8091CB06D8
:1012F0009091CC068E379105A1F58091CF06909103
:10130000D00697FDA8C0CE37D10509F4A4C08091BE
:101310000A02882369F04AE050E0BE018EE49EE0B4
:101320000E94813B6EE572E08EE49EE00E94773A77
:101330008091CF069091D006FC01EE0FFF1FEF5277
:10134000F94FD183C08301969093D0068093CF0646
:10135000089709F080C081ED96E0DF91CF910C9461
:101360008B028C37910509F043C08091CF06909194
:10137000D00697FD70C0CC37D10509F46CC0880F3A
:10138000991FFC01EF52F94FD183C08380910A026B
:10139000882369F04AE050E0BE018EE49EE00E949E
:1013A000813B6EE572E08EE49EE00E94773A809188
:1013B000CF069091D00601969093D0068093CF06E9
:1013C000089709F048C081ED96E00E945902019605
:1013D00039F06DE675E088E89FE00E94773A37C003
:1013E0006FE675E088E89FE0DF91CF910C94773A43
:1013F0008D37910581F58091CF069091D00697FDAC
:101400002AC0CD37D10539F1880F991FFC01EF5261
:10141000F94FD183C08380910A02882369F04AE0A2
:1014200050E0BE018EE49EE00E94813B6EE572E0DA
:101430008EE49EE00E94773A8091CF069091D0068C
:1014400001969093D0068093CF06089721F4DF9100
:10145000CF910C945408DF91CF9108950E940D0311
:101460000E9447090C942C092091ED0B222399F03E
:101470004FB7F8942091ED0B213059F42DB3209300
:10148000EB0B3DB32091EC0B209523232DBB4FBFDD
:1014900002C04093EB0B8CBD9DBD08958091ED0B78
:1014A000882361F09FB7F8942091ED0B8091EB0BAE
:1014B000213019F48DBB9FBF08958FBF089544E07C
:1014C00050E0BC0181E090E00C94C31744E050E090
:1014D000BC0185E090E00C94C31746E050E0BC01ED
:1014E00089E090E00C94C31744E050E0BC018FE029
:1014F00090E00C94C3174F925F926F927F928F92FD
:101500009F92AF92BF92CF92DF92EF92FF920F9392
:101510001F93CF93DF9300D000D0CDB7DEB76C011F
:101520004A015B012801390180915D0B811120C0C6
:101530001092450B1092440B88EE93E0A0E0B0E0CF
:101540008093460B9093470BA093480BB093490BA5
:1015500083EB95E09093430B8093420B80E59BE0F7
:101560000E94F53988E080935A0B81E080935D0BEF
:101570008FEF9AE09093660B8093650B0E94BC19E5
:10158000882309F469C080E591E00E94340AC6010D
:101590000E946D0A00E020E040E060E0CE0101968C
:1015A0000E94FF39CE0103960E94740A0E944E0ADF
:1015B00083017201A5019401B6018091650B9091A0
:1015C000660B0E94FA1E8130910509F047C080E544
:1015D00091E00E94340A6091650B7091660BCE0118
:1015E00001960E94581ACE0103960E94740A6091D7
:1015F000650B7091660BCE0101960E946E1ACE01AA
:1016000003960E945F0A6091650B7091660BCE0194
:1016100001960E94631ACE0103960E94660A0E94F8
:101620004E0A6091650B7091660BCE0101960E9487
:10163000791A8B819C81AD81BE818093690B9093D7
:101640006A0BA0936B0BB0936C0B0E947E3ECB0198
:101650000E942F1381E001C080E090E026960FB633
:10166000F894DEBF0FBECDBFDF91CF911F910F91D8
:10167000FF90EF90DF90CF90BF90AF909F908F90B2
:101680007F906F905F904F900895CF93DF93EC0120
:101690000E94F53980E591E00E94340ABE016E5F38
:1016A0007F4F44E050E08FE090E00E9496180E9447
:1016B0004E0ACE01DF91CF9108950F9300E020E014
:1016C00040E060E08DE69BE00E94FF3987E69BE00A
:1016D0000F910C94F53921E0FC018485883008F0E5
:1016E00020E0822F089581E086270895862F0895AF
:1016F000DC01ED91FC91068CF78DE02D199591E0C0
:1017000089270895FC01768765870895CF93DF9335
:101710001F92CDB7DEB76983DC01ED91FC910280A9
:10172000F381E02D41E050E0BE016F5F7F4F1995DE
:101730000F90DF91CF910895FC019485FB01848582
:10174000981303C081E0983008F080E00895CF93AB
:10175000DF93EC018C858830C8F40E94CB1484316F
:1017600081F0882371F0883161F08C3161F4E88177
:10177000F9810084F185E02DCE01199521E0892BB6
:1017800019F420E001C021E0822F01C080E0DF9148
:10179000CF910895AF92BF92CF92DF92EF92FF92D6
:1017A0000F931F93CF93DF93CDB7DEB7AF970FB6ED
:1017B000F894DEBF0FBECDBF8C015B016A01CE0184
:1017C00001960E94F5391C861B8688EE93E0A0E006
:1017D000B0E08D879E87AF87B88B83EB95E09A87C3
:1017E0008987CE0147960E94F53988E089A3CE010A
:1017F0008A960E94F539D8011C968C91883060F445
:101800000E94CB14882321F0F80184850E942115C1
:1018100088E0D8011C968C9384E1E82E86E0F82EAF
:10182000FDA2ECA28091690B90916A0BA0916B0BC9
:10183000B0916C0B8EA39FA3A8A7B9A7BE016C5D46
:101840007F4FCE0101960E94391F28E833E1AE0197
:10185000465D5F4FB501CE0101960E94942100972D
:10186000B1F0D801ED91FC910684F785E02DFDA241
:10187000ECA28CA59DA5AEA5BFA58EA39FA3A8A7EE
:10188000B9A7A601BE016C5D7F4FC8011995AF963F
:101890000FB6F894DEBF0FBECDBFDF91CF911F9181
:1018A0000F91FF90EF90DF90CF90BF90AF90089591
:1018B000CF92DF92EF92FF920F931F93CF93DF931C
:1018C000CDB7DEB72C970FB6F894DEBF0FBECDBFF5
:1018D0008C017B016A01FC018485883058F40E94E8
:1018E000CB14882321F0F80184850E94211588E01B
:1018F000F801848740E050E0BA01CE0107960E94CB
:101900000B3A49855A856B857C85F70182819381E5
:10191000A481B581481759076A077B0709F452C0AB
:101920004FEF5FEFBA01CE0101960E940B3AF7012B
:1019300042815381648175818B819C81AD81BE819F
:10194000481759076A077B07E9F160E070E081E218
:101950000E943B13F80184878830A0F5B7016E5FC1
:101960007F4FA6010E9401150E94723E6B017C010F
:10197000F80184850E94CB14873139F18C3129F12B
:10198000882301F10E94723EAB01BC014C195D0934
:101990006E097F09F80185859685A0E0B0E084177F
:1019A0009507A607B70738F061E070E080E090E0A7
:1019B0000E94A33EDDCFF80184850E94DA1488E0FE
:1019C000F801848780E090E002C081E090E02C96EE
:1019D0000FB6F894DEBF0FBECDBFDF91CF911F9140
:1019E0000F91FF90EF90DF90CF900895FC018485D8
:1019F000883010F40C94D01680E090E00895CF93D6
:101A0000DF93EC018C85883060F40E94CB14873121
:101A100011F08C3131F48C850E94D01681159840DC
:101A200088F3DF91CF9108950F931F93CF93DF93A6
:101A3000FC018485883068F4C52FD42F8F010E9463
:101A40006A16009749F421E030E0F80133832283DD
:101A500005C080E090E002C08D2F9C2FDF91CF91D8
:101A60001F910F910895FC018485883010F40C9427
:101A70000A1680E090E00895FC018485883010F417
:101A80000C942F1580E090E00895CF93DF931F9280
:101A9000CDB7DEB741E050E0BE016F5F7F4FFC0184
:101AA00084850E942F15181619061CF4898190E070
:101AB00002C08FEF9FEF0F90DF91CF910895CF93EA
:101AC000DF93FC012485283018F08FEF9FEF0EC0C4
:101AD000EC010190F081E02D0084F185E02D199555
:101AE000892B99F38C850E94421690E0DF91CF916B
:101AF0000895CF92DF92EF92FF92CF93DF93EC01A4
:101B00008C85883038F50E9421150E94723E6B0149
:101B10007C018C850E94CB148823D1F061E070E0B9
:101B200080E090E00E94A33E0E94723EAB01BC01A7
:101B30004C195D096E097F098D859E85A0E0B0E096
:101B4000481759076A077B0720F38C850E94DA142F
:101B500088E08C87DF91CF91FF90EF90DF90CF905E
:101B60000895DA019091D70BE92FF0E0FE2FEE27D0
:101B7000E60FF71F90E0982F8827A901BD018E0F6F
:101B80009F1F0C9496180F931F93CF93DF931F9270
:101B90001F92CDB7DEB7FC0124852830C0F48C013C
:101BA00080E591E00E94340A22E030E0AE014F5F10
:101BB0005F4F64E070E0F80184850E94B10D0981F7
:101BC0001A811027012710270E944E0A02C000E048
:101BD00010E0C8010F900F90DF91CF911F910F91EE
:101BE0000895EF92FF920F931F93CF93DF9300D04E
:101BF0001F92CDB7DEB78C017B01FB018485883055
:101C000038F040E050E0BA01C8010E940B3A17C01A
:101C100080E591E00E94340A24E030E0AE014F5F9D
:101C20005F4F6CE070E0F70184850E94B10D0E9467
:101C30004E0ABE016F5F7F4FC8010E94153AC8016E
:101C40000F900F900F900F90DF91CF911F910F91F8
:101C5000FF90EF9008950F931F93CF93DF931F9200
:101C60001F92CDB7DEB7FC0124852830C0F48C016B
:101C700080E591E00E94340A22E030E0AE014F5F3F
:101C80005F4F60E170E0F80184850E94B10D098129
:101C90001A811027012710270E944E0A02C000E077
:101CA00010E0C8010F900F90DF91CF911F910F911D
:101CB00008950F9300E020E040E060E083E79BE0C0
:101CC0000E94FF390F910895CF93DF931F92CDB7F4
:101CD000DEB76983DC01ED91FC910280F381E02D98
:101CE00041E050E0BE016F5F7F4F19950F90DF918B
:101CF000CF9108950F931F93CF938C01FC016481C2
:101D0000758181E20E943B13C82F8830B0F40E9495
:101D1000E814882361F0F80184819581EC2FF0E0CC
:101D2000EE0FFF1FE758F44F9183808306C08C2F7E
:101D3000CF911F910F910C942115CF911F910F916D
:101D40000895EF92FF920F931F93CF93DF937C013F
:101D50008091D80B833311F4D4E001C0D8E009E7B7
:101D60001BE0C0E0F801219131918F01F7018481DE
:101D700095812817390729F0CF5FDC13F3CF80E076
:101D800006C08C2F0E94CB148431B1F781E0DF9123
:101D9000CF911F910F91FF90EF900895FC01138256
:101DA000128288EE93E0A0E0B0E084839583A6835E
:101DB000B78385E795E091838083648788EE93E01D
:101DC0009687858708959F92AF92BF92CF92DF92B8
:101DD000EF92FF920F931F93CF93DF937C016B01E0
:101DE0008091D80B811102C068E045C0833319F49B
:101DF00024E0922E02C098E0992E09E71BE0C0E093
:101E000088E0B82EA12CD8012D913C91F601848157
:101E1000958128173907F9F48C2F0E94CB14D82FFD
:101E2000873111F08C3159F48C2F0E940A16892BBE
:101E300071F4DC3181F48C2F0E9421150CC08431A7
:101E400041F0811108C0D8011D921C9204C0BC2E23
:101E500002C0AA24A394CF5F0E5F1F4F9C12D3CF62
:101E6000A11008C0D601ED91FC910084F185E02D10
:101E7000C60119956B2DC7010E94CE0EC701DF91D7
:101E8000CF911F910F91FF90EF90DF90CF90BF9077
:101E9000AF909F9008958F929F92AF92BF92CF92F2
:101EA000DF92EF92FF920F931F93CF93DF93CDB703
:101EB000DEB72F970FB6F894DEBF0FBECDBF2091CF
:101EC000D80B222369F1233319F434E0E32E02C046
:101ED00028E0E22E8A015B016C01BC01CE01019673
:101EE0000E94E30E89E7882E8BE0982EF12CF401F6
:101EF000219131914F01F60184819581281739078D
:101F000051F48F2D0E94CB14873129F4A801B5011B
:101F10008F2D0E946A16F394EF10E9CFC80102C01A
:101F200080E090E02F960FB6F894DEBF0FBECDBFD5
:101F3000DF91CF911F910F91FF90EF90DF90CF90A5
:101F4000BF90AF909F908F9008950F9300E020E096
:101F500040E060E089E89BE00E94FF390F9108951E
:101F6000DC01ED91FC91048CF58DE02D199424E1B8
:101F700036E0FC0131832083FB014089518962896D
:101F80007389FC0142835383648375830895FC0144
:101F9000848995890895FC01848595850895FC01BF
:101FA000818D928D0895CF93DF931F92CDB7DEB7C9
:101FB0006983DC01ED91FC910280F381E02D41E029
:101FC00050E0BE016F5F7F4F19950F90DF91CF9169
:101FD00008950895CF93DF93FC01808D883028F415
:101FE000EF010E94DA1488E0888FDF91CF91089585
:101FF0000F931F93CF93DF93EC018B01888D883073
:1020000010F40E94DA14B80182E00E943B13888F1A
:10201000883030F41D870C871A8E198E81E001C03C
:1020200080E0DF91CF911F910F910895AF92BF9201
:10203000CF92DF92EF92FF920F931F93CF93DF9394
:10204000CDB7DEB7AF970FB6F894DEBF0FBECDBFEA
:102050008C015B016A01CE0101960E94F5391C8654
:102060001B8688EE93E0A0E0B0E08D879E87AF8767
:10207000B88B83EB95E09A878987CE0147960E94BB
:10208000F53988E089A3CE018A960E94F53984E16A
:10209000E82E86E0F82EFDA2ECA28091690B9091CB
:1020A0006A0BA0916B0BB0916C0B8EA39FA3A8A79A
:1020B000B9A7BE016C5D7F4FCE0101960E94391F0A
:1020C00028E833E1AE01465D5F4FB501CE010196D0
:1020D0000E94942181309105B1F4D801ED91FC91D9
:1020E0000488F589E02DFDA2ECA28CA59DA5AEA5E6
:1020F000BFA58EA39FA3A8A7B9A7A601BE016C5D2B
:102100007F4FC8011995AF960FB6F894DEBF0FBE8A
:10211000CDBFDF91CF911F910F91FF90EF90DF9096
:10212000CF90BF90AF900895FC01178A168A6E5F1A
:102130007F4F808D0E941C1790E00895FC01808DD8
:102140000E944B1790E00895CF93DF93EC019A0122
:102150008E899F89AB01BC01888D0E94F0162E8963
:102160003F89280F391F3F8B2E8BDF91CF91089528
:102170000F931F93CF93DF931F92CDB7DEB7FC0170
:10218000218D328D232B61F08C0141E050E0BE01A6
:102190006F5F7F4F808D0E942F15181619061CF057
:1021A0008FEF9FEF08C0F801818D928D0197928F7C
:1021B000818F898190E00F90DF91CF911F910F91D6
:1021C0000895CF93DF93FC01218D328D21153105C8
:1021D00019F48FEF9FEF11C0EC014217530708F07D
:1021E000A901888D0E942F151816190694F7298DBC
:1021F0003A8D281B390B3A8F298FDF91CF910895A3
:10220000FC01808D883040F4218D328D232B21F00C
:102210000E94421690E008958FEF9FEF0895CF92AD
:10222000DF92EF92FF920F931F93CF93DF9300D033
:1022300000D0CDB7DEB78C016B017A01FC01808D37
:10224000883010F40E94DA1484E196E09A8389833E
:10225000F60182819381A481B5818B839C83AD83B8
:10226000BE83A701BE016F5F7F4F82E80E94EF131C
:10227000F801808F883030F4F586E486128E118E56
:1022800081E001C080E026960FB6F894DEBF0FBE55
:10229000CDBFDF91CF911F910F91FF90EF90DF9015
:1022A000CF9008950F931F93CF93DF93CDB7DEB7F1
:1022B00028970FB6F894DEBF0FBECDBF8C01D801B2
:1022C00059964D915C915A974115510551F0ED91F8
:1022D000FC91048CF58DE02D60E070E0C80119954B
:1022E000EECFF801808D0E940A16892B41F148E05B
:1022F00050E0BE016F5F7F4FD80158968C910E94CD
:102300002F1518161906ECF4BE016F5F7F4FC80138
:102310000E960E94213A8D8190E0982F88272E8179
:10232000820F911DF801958B848B8F8190E0982FFF
:1023300088272885820F911D928F818F02C080E0AF
:1023400090E028960FB6F894DEBF0FBECDBFDF91A8
:10235000CF911F910F9108950F9300E020E040E08E
:1023600060E08FE89BE00E94FF390F910895CF93C2
:10237000DF931F92CDB7DEB79091D70B292F30E0B6
:10238000322F2227260F371F90E0982F882741E011
:1023900050E0BE016F5F7F4F820F931F0E9496181F
:1023A00089810F90DF91CF910895CF93DF931F9292
:1023B000CDB7DEB79091D70B292F30E0322F2227EF
:1023C000260F371F90E0982F8827498341E050E07F
:1023D000BE016F5F7F4F820F931F0E94C3170F9044
:1023E000DF91CF910895DA019091D70BE92FF0E0BA
:1023F000FE2FEE27E60FF71F90E0982F8827A90100
:10240000BD018E0F9F1F0C94C3177F928F929F92D6
:10241000AF92BF92CF92DF92EF92FF920F931F93F2
:10242000CF93DF931F921F92CDB7DEB7782E8B012B
:102430004A01590122E030E0AE014F5F5F4F64E294
:1024400070E00E94B10DE980FA80FE24EF24FE24A2
:10245000E00EF11E970137704091D80B072D10E068
:10246000C801433311F4089601C04096982F88277D
:10247000990F990F990F820F931F473319F4A501F4
:10248000B40120C0A9014A0D5B1D41305840B8F38A
:1024900060E078E06B01C21AD30AA601B4010E9481
:1024A000C317A5014C195D09B4016C0D7D1D809108
:1024B000D80B833339F5085F1F4F902F990F990F71
:1024C000990F80E00E94C317EA0CFB1CF982EA8294
:1024D00022E030E0AE014F5F5F4F64E270E0872D95
:1024E0000E94F3110F900F90DF91CF911F910F91E8
:1024F000FF90EF90DF90CF90BF90AF909F908F9024
:102500007F900895005F1F4FD8CF63E070E00C9478
:10251000B711CF93DF931F921F92CDB7DEB77983A8
:102520006A8322E030E0AE014F5F5F4F64E070E00D
:102530000E94F3110F900F90DF91CF910895AB019E
:1025400024E030E06CE070E00C94F311CF93DF9363
:102550001F921F92CDB7DEB779836A8322E030E005
:10256000AE014F5F5F4F60E170E00E94F3110F908A
:102570000F90DF91CF910895CF93DF931F921F9219
:10258000CDB7DEB722E030E0AE014F5F5F4F60E2D3
:1025900070E00E94B10D89819A8198278927982738
:1025A0000F900F90DF91CF9108950F931F93CF93CA
:1025B000C82F0E94BC128C018C2F0E94BC120817DD
:1025C0001907C9F787E0C89FF0011124EB56F44FB3
:1025D00015830483C801CF911F910F910895CF9364
:1025E000DF931F921F92CDB7DEB722E030E0AE013D
:1025F0004F5F5F4F66E270E00E94B10D89819A8162
:102600009827892798270F900F90DF91CF910895F1
:10261000CF93DF931F921F92CDB7DEB722E030E059
:10262000AE014F5F5F4F68E270E00E94B10D89819B
:102630009A819827892798270F900F90DF91CF9143
:1026400008952091D80B90E0233311F40C9601C02B
:102650004896982F990F990F990F80E008959F73CE
:1026600020911B0230911C028227932790931C0219
:1026700080931B0208958F929F92AF92BF92CF9248
:10268000DF92EF92FF920F931F93CF93DF93CDB71B
:10269000DEB728970FB6F894DEBF0FBECDBF90917E
:1026A000D80B992309F487C0933319F424E0F22E50
:1026B00002C098E0F92E6B01082F80E591E00E949E
:1026C000340A9E012F5F3F4F5901490110E0812FCD
:1026D0000E948512F40181934F018823C9F01F5F86
:1026E000F112F5CF10E0F50191915F019D3159F0A4
:1026F000983149F09A51923030F01F5FF112F3CFC8
:102700000E944E0A58C060E170E0812F0E942C1A8E
:10271000E12EF12CF701EE0FFF1FE758F44F118265
:1027200010828AEF90E00E94DF3E402F60E070E070
:10273000812F0E94D5114FEF62E070E0812F0E943F
:10274000D511C114D10411F0B60113C080911B0240
:1027500090911C0201968115F0EC9F0710F480E027
:1027600090EC90931C0280931B0260911B0270916D
:102770001C02812F0E94891261E070E0812F0E946B
:102780002C1A27E02E9DC0012F9D900D11249C0135
:102790002B56344F7901F90111821082812F0E944A
:1027A0000813F701938382831682158214820E9494
:1027B0004E0A812F01C088E028960FB6F894DEBF3C
:1027C0000FBECDBFDF91CF911F910F91FF90EF9082
:1027D000DF90CF90BF90AF909F908F9008957F92A1
:1027E0008F929F92AF92BF92CF92DF92EF92FF9221
:1027F0000F931F93CF93DF93CDB7DEB72E970FB60E
:10280000F894DEBF0FBECDBF9091D80B992309F489
:10281000ADC0933319F424E0722E02C098E0792EF3
:102820006A017B01082F80E591E00E94340A9E0135
:102830002F5F3F4F5901490110E0812F0E948512FF
:10284000F40181934F018823C9F01F5F7112F5CF06
:1028500010E0F50191915F019D3159F0983149F0F7
:102860009A51923030F01F5F7112F3CF0E944E0ADE
:102870007DC060E170E0812F0E942C1AA12EB12C46
:10288000F501EE0FFF1FE758F44F118210828AEF17
:1028900090E00E94DF3E402F60E070E0812F0E94B8
:1028A000D5114FEF62E070E0812F0E94D511C11465
:1028B000D10411F0B60113C080911B0290911C024B
:1028C00001968115F0EC9F0710F480E090EC909356
:1028D0001C0280931B0260911B0270911C02812FCD
:1028E0000E94891286E0E3E2F2E0DE01199601908F
:1028F0000D928A95E1F7F70183818F778C87848128
:102900008D8785818E87B7016E5F7F4F812F0E94F3
:102910009F12B601812F0E94A61226E030E0AE0180
:10292000475F5F4F66E070E0812F0E94F31161E026
:1029300070E0812F0E942C1A27E02A9DC0012B9D58
:10294000900D11249C012B56344F7901F90111820D
:102950001082812F0E940813F701938382831682CD
:10296000158214820E944E0A812F01C088E02E96A3
:102970000FB6F894DEBF0FBECDBFDF91CF911F9190
:102980000F91FF90EF90DF90CF90BF90AF909F900E
:102990008F907F900895CF93C82F80E591E00E949B
:1029A000340A8C2F0E948512C82F0E944E0A8C2F49
:1029B000CF910895CF93C82F80E591E00E94340A0B
:1029C00060E170E08C2F0E942C1ACF910C944E0A7B
:1029D000CF93C82F80E591E00E94340A8C2F0E948B
:1029E0008512833121F00E944E0A80E008C062E027
:1029F00070E08C2F0E942C1A0E944E0A81E0CF9129
:102A00000895EF92FF920F931F93CF93C82F7B01EE
:102A10008A0180E591E00E94340AB7018C2F0E9460
:102A20009F12B8018C2F0E94A61264E070E08C2FD8
:102A30000E942C1ACF911F910F91FF90EF900C9450
:102A40004E0ACF93C82F80E591E00E94340A68E0D7
:102A500070E08C2F0E942C1ACF910C944E0A4F924A
:102A60005F927F928F929F92AF92BF92CF92DF92AE
:102A7000EF92FF920F931F93CF93DF931F921F92BA
:102A8000CDB7DEB7782E6B017A01882E912C47E006
:102A9000849FF0011124EB56F44F0081118180E5F1
:102AA00091E00E94340A0E151F05BCF4872D0E9488
:102AB000EF128C01872D0E94EF1280179107C9F742
:102AC00087E0889DF001899DF00D1124EB56F44FAD
:102AD0008681081B1109118300830115110599F4E2
:102AE000872D0E948512843109F47FC0882309F460
:102AF0007CC001E010E08C3111F400E010E0119591
:102B00000195110972C0E016F1060CF4870187E007
:102B1000889DF001899DF00D1124EB56F44FE28061
:102B2000F380C114D10451F1270157E05522872DBC
:102B30000E942113840D951D2091D80B273311F489
:102B4000A80119C09201200F311F21303840C0F375
:102B500020E038E05901A418B508A501B6010E948B
:102B60009618CA0CDB1CC8018A199B095C01872DC9
:102B70000E942113A501B6010E949618E00EF11ED5
:102B800087E0889DF001899DF00D1124EB56F44FEC
:102B9000F382E28280819181801B910B91838083FB
:102BA0002681A801420F511D4A3F510510F4892B7F
:102BB000D9F487E0889DF001899DF00D1124EB5632
:102BC000F44F1682F982EA8222E030E0AE014F5FD4
:102BD0005F4F68E270E0872D0E94F31160E470E0BF
:102BE000872D0E942C1A01C046830E944E0AC801FC
:102BF0000F900F90DF91CF911F910F91FF90EF9069
:102C0000DF90CF90BF90AF909F908F907F905F901C
:102C10004F900895EF92FF921F93CF93DF93E82E8A
:102C2000F12C97E0899FF0011124EB56F44F20819D
:102C3000318121153105F9F4182F80E591E00E94CA
:102C4000340A8E2D0E94EF12EC01812F0E94EF12A8
:102C50008C179D07C9F70E944E0A87E08E9DF001F0
:102C60008F9DF00D1124EB56F44F86819E01281B99
:102C7000310931832083C901DF91CF911F91FF90EA
:102C8000EF9008951F93CF93DF931F92CDB7DEB7D8
:102C9000182F80E591E00E94340A812F0E942113B1
:102CA00027E0129FF0011124EB56F44F228133816B
:102CB000377041E050E0BE016F5F7F4F820F931F7E
:102CC0000E9496180E944E0A89810F90DF91CF9141
:102CD0001F910895CF92DF92EF92FF920F931F936F
:102CE000CF93DF93182F7B01EA014130584010F059
:102CF000C0E0D8E080E591E00E94340A812F0E9474
:102D0000D5126C01812F0E948512082F0E944E0A55
:102D1000073111F00C3131F40E94133ECC16DD0660
:102D200048F302C0C0E0D0E080E591E00E94340AA0
:102D30009E01A70160E070E0812F0E94051260E211
:102D400070E0812F0E942C1A62E070E0812F0E94B7
:102D5000B71184FD13C0812F0E948512811105C017
:102D60000E944E0A80E090E012C00E944E0A0E942B
:102D7000133E80E591E00E94340AE6CF40E162E034
:102D800070E0812F0E94D5110E944E0ACE01DF9182
:102D9000CF911F910F91FF90EF90DF90CF9008950A
:102DA0001F93CF93DF93182F80E591E00E94340AA0
:102DB000812F0E94D512D82FC92F812F0E948512F2
:102DC000182F0E944E0A173129F01C3119F080E0AB
:102DD00090E002C08D2F9C2FDF91CF911F9108951D
:102DE000AF92BF92CF92DF92EF92FF921F93CF9359
:102DF000DF93182F6B015A01790180E591E00E9461
:102E0000340A812F0E94D512EC01E816F90608F465
:102E1000E7019E01A501B601812F0E9405120E94C3
:102E20004E0ACE01DF91CF911F91FF90EF90DF907E
:102E3000CF90BF90AF900895EF92FF921F93CF93E2
:102E4000DF93FB019081911109C09181911106C01E
:102E50009281911103C093819923B1F041155105DD
:102E600099F07A01EF01182F80E591E00E94340A71
:102E7000BE01812F0E949F12B701812F0E94A612CE
:102E80000E944E0A81E001C080E0DF91CF911F9146
:102E9000FF90EF900895CF93C82F80E591E00E94B6
:102EA000340A60E270E08C2F0E942C1A62E070E01D
:102EB0008C2F0E94B71184FD1AC062E070E08C2F45
:102EC0000E94B71183FF0AC048E162E070E08C2FD6
:102ED0000E94D5110E944E0A80E012C00E944E0A44
:102EE0000E94133E80E591E00E94340ADFCF40E16A
:102EF00062E070E08C2F0E94D5110E944E0A81E0A2
:102F0000CF9108950F9300E020E040E060E08DEC69
:102F10009BE00E94FF390F910895FC0120812EBD96
:102F20009B012150310941F051810DB407FEFDCFC5
:102F30004EB55EBD4193F5CF61507109FC01E60FBE
:102F4000F71F0DB407FEFDCF8EB5808308958EBDAB
:102F500000000DB407FEFDCF8EB50895E091D50BAE
:102F6000F091D60B90818091D40B8095892380833A
:102F70000895E091D50BF091D60B90818091D40B00
:102F8000892B80830895AF92BF92CF92DF92EF9208
:102F9000FF920F931F93CF93DF93CDB7DEB72897A0
:102FA0000FB6F894DEBF0FBECDBF8C017B016A0166
:102FB0008091D80B8333E1F45801A40EB51E0A1595
:102FC0001B0509F48BC00E94AE1780EF0E94A71763
:102FD000812F0E94A717802F0E94A7170F5F1F4FF6
:102FE000F70181917F010E94A7170E94B917E7CFCF
:102FF000843321F50E94AE1719830A838D2D8068D2
:103000008B83CC8264E070E0CE0101960E948D1724
:1030100087010C0D1D1DE016F10669F0F701819185
:103020007F010E94A717F7CFB6016D5F7F4FCE01DA
:1030300001960E948D170E94B91750C00E94AE17CA
:103040000F3F110509F020F419820A8384E01CC0A7
:1030500017FD0BC019820A8333E0169507953A9540
:10306000E1F7007E0C600B8310C0C80126E0969546
:1030700087952A95E1F719830A83807E0115104C04
:1030800010F4846101C08C618B8326E0C216D104E8
:1030900098F420E0822F90E08C159D0528F6E4E05E
:1030A000F0E0EC0FFD1FE80FF91FD701A80FB91FC3
:1030B0008C9180832F5FEECF63E070E0CE010196AC
:1030C0000E948D1787010C0D1D1DF70181917F0155
:1030D0000E94A717E016F106C1F7ADCFC6012896EA
:1030E0000FB6F894DEBF0FBECDBFDF91CF911F9119
:1030F0000F91FF90EF90DF90CF90BF90AF90089529
:10310000CF93DF931F92CDB7DEB7698341E050E0E4
:10311000BE016F5F7F4F0E94C3170F90DF91CF9169
:103120000895682F80E090E00C948018AF92BF92D1
:10313000CF92DF92EF92FF920F931F93CF93DF9383
:1031400000D01F92CDB7DEB78C016B017A01809160
:10315000D80B8333F1F45B016801C40ED51E0C1546
:103160001D0509F460C00E94AE178FE00E94A717EA
:10317000812F0E94A717802F0E94A7170F5F1F4F54
:1031800080E00E94A717F50181935F010E94B917A3
:10319000E6CF8433F1F40E94AE1719830A838F2D92
:1031A0008F778B83EC8264E070E0CE0101960E9401
:1031B0008D17A70160E070E0C6010E94AA43E114E8
:1031C000F10421F0B701C6010E948D170E94B917C2
:1031D0002AC00E94AE170F3F110509F020F4198292
:1031E0000A831B821DC017FD0BC019820A8333E0BE
:1031F000169507953A95E1F7007E08600B8310C09D
:10320000C80126E0969587952A95E1F719830A83E8
:10321000807E0115104C10F4806101C088618B83A1
:1032200063E070E0C2CFC7010F900F900F900F9036
:10323000DF91CF911F910F91FF90EF90DF90CF9092
:10324000BF90AF900895CF93DF931F92CDB7DEB7B5
:1032500041E050E0BE016F5F7F4F0E949618898168
:103260000F90DF91CF91089580E090E00C942319A6
:10327000CF93DF9380E80E949118C4E1D0E00E94D0
:103280003419882351F061E070E080E090E00E9402
:10329000A33E2197A1F780E001C081E0DF91CF91AB
:1032A000089583E38093D80B0E9438198823A9F0EE
:1032B00080E10E9491180E943419803171F482E1FA
:1032C0000E9491180E943419823139F480E00E94E2
:1032D00091180E94341991E0811190E0892F08958E
:1032E00084E38093D80B0E9438198823E1F088E0AA
:1032F0000E9491180E9434198830A9F480E10E943C
:1033000091180E943419803171F480E00E94911864
:103310000E943419811107C08FE190E00E942319A7
:1033200091E0833009F090E0892F089587E380933E
:10333000D80B0E9438198823E1F088E00E94911888
:103340000E9434198830A9F480E10E9491180E94EB
:103350003419803171F480E00E9491180E94341970
:10336000811107C089E390E00E94231991E0843025
:1033700009F090E0892F0895CF938091D30B8111AC
:1033800067C060E372E080E090E00E94A33E0E948C
:10339000272280911D02282F30E0F901E05DFC4FCB
:1033A000E491F0E0EE0FFF1FE057FC4F4591549180
:1033B0005093D60B4093D50BF901E651FD4FE491A4
:1033C000E093D40B61E00E94C73F0E94B91780E5EB
:1033D00091E00E94340A0E9470198823A1F080E4D1
:1033E0008093D70BC0E042E06EE170E08C2F0E942A
:1033F000D51142E06FE170E08C2F0E94D511CF5FB4
:10340000C83089F720C00E949619882321F080E1F6
:103410008093D70B18C00E945119C82F882371F0D0
:1034200084E08093D70B65E58BE190E00E948018E3
:1034300065E58AE190E00E94801805C01092D80BE3
:103440000E944E0A06C00E944E0A81E08093D30B70
:10345000C1E08C2FCF910895CF93DF93C82F462FD3
:1034600061E070E00E94D511D0E0DC2FCC27809184
:10347000D70B90E0982F882701968C0F9D1F0E94F4
:1034800023198111F4CFDF91CF9108950F9300E0BC
:1034900020E040E060E089ED9BE00E94FF390F9161
:1034A00008950E9624E1FC0111922A95E9F70895FA
:1034B000CF93DF93EC01625F7F4F0E94153ACE01FC
:1034C000DF91CF910895CF93DF93EC016E5E7F4F34
:1034D0000E94153ACE01DF91CF910895CF93DF93EB
:1034E000EC016A5E7F4F0E94153ACE01DF91CF91C9
:1034F0000895CF93DF93EC01625E7F4F0E94153AEF
:10350000CE01DF91CF91089580E3FB018083329655
:10351000842F82958F7090E1899F401911244A3041
:1035200014F4405D01C0495C4293482F8111F0CFF3
:1035300008950F9300E020E040E060E08FED9BE015
:103540000E94FF390F9108957F928F929F92AF92C0
:10355000BF92CF92DF92EF92FF920F931F93CF9380
:10356000DF93CDB7DEB7AC970FB6F894DEBF0FBED2
:10357000CDBF7C01762E942E852E20E2B22ECE0178
:1035800001966C01FC012B2D11922A95E9F70FEFA2
:103590002FEF4FEF6FEF86960E94FF3984E196E0A0
:1035A0009AA389A389A59AA5ABA5BCA58BA39CA327
:1035B000ADA3BEA387010D5B1F4F43E450E0BE01E6
:1035C0006F5D7F4FC8010E949410019609F4BFC03F
:1035D00081E089838A8386E0A82EAB821C82F70172
:1035E00064817581868197810E94A4406D837E836A
:1035F0008F83988789869A8680E890E09C878B875E
:103600004CE150E0B601C8010E94A410F6012B2D38
:1036100011922A95E9F7470188E0880E911CF40180
:10362000D60101900D92AA94E1F740E150E0B60175
:10363000C8010E94A410F6011192BA94E9F796E02D
:10364000A92EB12C40E250E0B601C8010E94A4109E
:10365000F1E0AF1AB108B1F783E6898392E89A8363
:1036600093E59B838C8385E38D8381E08E837F82CA
:103670009DE3988797E099878A8786E0F401DE01C9
:103680001B9601900D928A95E1F78CE0898B8A8BCD
:1036900069ED75E0CE0143960E94C543F70143856D
:1036A000BE01675E7F4FC7010E94841AF7014485FF
:1036B000BE01655E7F4FC7010E94841AF7014585F0
:1036C000BE01635E7F4FC7010E94841A4EE150E045
:1036D000B601C8010E94A410F3E07F121EC082E36D
:1036E000898384E08A83F70196859B8397859C83F1
:1036F00090899D8391899E8396E39F838887828D9D
:103700008987838D8A87848D8B87858D8C874CE014
:1037100050E0B601C8010E94A41087E3898386E0C7
:103720008A8391E09B8393E09C838D838FE08E83DB
:103730008AE38F838BE388878FEF898749E050E0A6
:10374000B601C8010E94A410C8010E949E10AC9648
:103750000FB6F894DEBF0FBECDBFDF91CF911F91A2
:103760000F91FF90EF90DF90CF90BF90AF909F9020
:103770008F907F9008952F923F924F925F926F9219
:103780007F928F929F92AF92BF92DF92EF92FF92C1
:103790000F931F93CF93DF93CDB7DEB7C054D109FA
:1037A0000FB6F894DEBF0FBECDBF7C014A015B01AE
:1037B00019010E94723E2B013C0187010D5B1F4FD6
:1037C000C8010E94521118161906A4F00E94723EF8
:1037D000DC01CB0184199509A609B7098816990659
:1037E000AA06BB06F0F062E370E080E090E00E9481
:1037F000A33EE6CF42E250E0BE016F5F7F4FC801BB
:103800000E94E1108981823031F4F8018489958920
:103810008334910541F0D12CC8010E94E90F8D2D10
:1038200043C18FEF41C16D817E818F8198850E9458
:10383000A4402B013C01F101608371838283938357
:1038400046E050E0B701685F7F4FCE014D960E9481
:103850009443892B99F4F70180819181A281B381EE
:10386000481659066A067B0648F084819581A68130
:10387000B78184159505A605B70528F4C8010E94EF
:10388000E90F80E011C189899A89AB89BC89F70168
:1038900086879787A08BB18B4EEC50E060E070E09C
:1038A000C8010E94E110D12CC70182969EAB8DAB5E
:1038B000F701B696F8AFEFAB08969AAF89AF47011C
:1038C0009AE1890E911CBD96FCAFEBAFC701429601
:1038D0009EAF8DAFFD972196FFAFEEAF21971701F9
:1038E000FEE12F0E311CC8010E94CF0F18161906D9
:1038F0000CF092CFC8010E94B8108333910509F4EF
:10390000B3C0ACF48130910569F11CF4892B59F3F3
:10391000C5C08330910571F1069709F0BFC0C80199
:103920000E94B8105C0144E050E0B1012DC08A3320
:10393000910509F46DC034F48533910559F0C697AB
:1039400081F1ACC08B33910509F478C08F3F9105AC
:1039500051F2A4C0C8010E94B810C8010E94B8105A
:10396000D82EC1CFC8010E94B81044E050E06DAD20
:103970007EAD13C0C8010E94B8105C0144E050E065
:1039800021966EAD7FAD2197C8010E94E110A5017F
:1039900055274450510960E070E0C8010E94E110D1
:1039A000A2CFC8010E94B8105C0140E050E0BA010B
:1039B000CE0189960E940B3AB401CE018F960E94E7
:1039C000153A4BA55CA56DA57EA589A99AA9ABA9B9
:1039D000BCA9481759076A077B07A1F0EBADFCADFE
:1039E0004080518062807380B401CE0183960E9432
:1039F000153A8DA19EA1AFA1B8A584159505A60580
:103A0000B70521F444E050E0B401C7CFA5014AC096
:103A1000C8010E94B81044E050E06FA978ADC80119
:103A20000E94E110F70166A177A180A591A50E94EF
:103A3000A44066A377A380A791A755CFC8010E9491
:103A4000B81044E050E069AD7AADC8010E94E110C1
:103A5000F70162A573A584A595A50E94A44062A75D
:103A600073A784A795A73FCFC8010E94B81044E070
:103A700050E06DA97EA9C8010E94E110F70162A182
:103A800073A184A195A10E94A44062A373A384A3FF
:103A900095A366A777A780AB91AB25CFC8010E94FD
:103AA000B810AC01552777CFC05CDF4F0FB6F89444
:103AB000DEBF0FBECDBFDF91CF911F910F91FF9061
:103AC000EF90DF90BF90AF909F908F907F906F901E
:103AD0005F904F903F902F9008952F923F924F927A
:103AE0005F926F927F928F929F92AF92BF92CF928E
:103AF000DF92EF92FF920F931F93CF93DF9300D04B
:103B000000D0CDB7DEB78C0120ED37E040E050E0CB
:103B100061E070E080E090E00E94BC3BD801149628
:103B20006D937D938D939C931797F80160837183B8
:103B3000828393835801F3E4AF0EB11CC5010E9448
:103B4000EA0F64E470E0C5010E94F80F882309F4CD
:103B500036C10E94723E2B013C01812C912CC80180
:103B60008E5B9F4F9E838D8348EEC42E43E0D42E00
:103B7000E12CF12C52E0252EAD81BE818C91833059
:103B800009F404C1811120C0F80184819581A681C6
:103B9000B7810196A11DB11D84839583A683B78348
:103BA0000E94723E6419750986099709A70196015A
:103BB0000E945B40A90161E0C8010E94A41A81E053
:103BC000AD81BE818C93CAC08430F9F4F801848140
:103BD0009581A681B7810196A11DB11D848395832E
:103BE000A683B7830E94723E6419750986099709F6
:103BF000A70196010E945B40A90163E0C8010E94F1
:103C0000A41AAD81BE812C92A9C0813059F5F8016A
:103C100042AD53AD64AD75AD9E012F5F3F4FC801FE
:103C20000E94BB1B382EF2E08F1392C089819A81CB
:103C3000AB81BC81F80184839583A683B7830E94FE
:103C4000723E6419750986099709A70196010E94B9
:103C50005B40A90163E0C8010E94A41AAD81BE8146
:103C60003C927CC0823009F079C0F80142AD53AD7E
:103C700064AD75AD9E012F5F3F4FC8010E94BB1B15
:103C8000382EF5E08F135DC0E3E0AD81BE81EC938B
:103C9000F80182A193A1A4A1B5A1892B8A2B8B2B1A
:103CA00041F484E893E0A0E0B0E082A393A3A4A34E
:103CB000B5A3F80186A197A1A0A5B1A5892B8A2B50
:103CC0008B2B61F482A193A1A4A1B5A1B695A79570
:103CD0009795879586A397A3A0A7B1A7F80182A57A
:103CE00093A5A4A5B5A5892B8A2B8B2BA9F482A11A
:103CF00093A1A4A1B5A1AC01BD0123E07695679580
:103D0000579547952A95D1F7841B950BA60BB70BB2
:103D100082A793A7A4A7B5A7F80186A197A1A0A5FC
:103D2000B1A586A797A7A0ABB1AB82A593A5A4A583
:103D3000B5A582AB93ABA4ABB5AB88248394912C8F
:103D40000DC0F6E08F1304C0AD81BE811C9206C089
:103D5000BFEF3B1203C0ED81FE811082F1E08F16B0
:103D6000910409F409CF0E94723EDC01CB01841951
:103D70009509A609B709F80126A937A940AD51ADA3
:103D8000281739074A075B0708F0F6CEC5010E94DD
:103D9000EA0FF80184819581A681B7810196A11D62
:103DA000B11D84839583A683B7830E94723EF80178
:103DB000FE966083718382839383C40102C080E096
:103DC00090E026960FB6F894DEBF0FBECDBFDF9110
:103DD000CF911F910F91FF90EF90DF90CF90BF9008
:103DE000AF909F908F907F906F905F904F903F909B
:103DF0002F900895CF92DF92EF92FF920F931F932F
:103E0000CF93DF93EC016B011AA21BA21CA21DA28F
:103E10001EA21FA218A619A61AA61BA61CA61DA69E
:103E20002EAB3FAB48AF59AFEAAEFBAE0CAF1DAF08
:103E30008C01085F1F4F86E0F80111928A95E9F71F
:103E4000CE010E94511A86E0F601D80101900D9230
:103E50008A95E1F7FE01EE5BFF4F1082CE01DF9104
:103E6000CF911F910F91FF90EF90DF90CF900C9426
:103E70006D1DFB014281538164817581FC01428388
:103E8000538364837583178216820895CF93FB0151
:103E900020E080E090E0CAE03191332309F160ED49
:103EA000630F6A3080F4C89FB001C99F700D112460
:103EB000CB01C097830F911D37FD9A958F3F9105D8
:103EC00059F350F314C03E3291F4233081F0DA01FB
:103ED000A20FB11D12968C932F5F80E090E0DCCF93
:103EE000233029F4FA01858381E090E002C080E06C
:103EF00090E0CF9108950F9300E020E040E060E073
:103F000085EE9BE00E94FF390F9108958F929F925A
:103F1000AF92BF92CF92DF92EF92FF920F931F93D7
:103F2000CF93DF9300D0CDB7DEB76C017B010E9449
:103F3000723EF601778366838601085F1F4FB601E4
:103F40006A5F7F4F42E050E0C8010E94A41081E008
:103F500090E09A83898342E050E0BE016F5F7F4F1B
:103F6000C8010E94A41080E091E09A83898342E016
:103F700050E0BE016F5F7F4FC8010E94A4101A82FB
:103F8000198242E050E0BE016F5F7F4FC8010E947E
:103F9000A41042E050E0BE016F5F7F4FC8010E9455
:103FA000A41042E050E0BE016F5F7F4FC8010E9445
:103FB000A4105701F5018081882309F1A7015A0156
:103FC000F50181916F01882321F08E3211F0A60155
:103FD000F6CF4A018E189F081814190474F48B82C6
:103FE00041E050E0BE016D5F7F4FC8010E94A41008
:103FF000A401B701C8010E94A4107601DBCF1B8287
:1040000041E050E0BE016D5F7F4FC8010E94A410E7
:10401000E12CFF24F394FA82E98242E050E0BE01F1
:104020006F5F7F4FC8010E94A410FA82E98242E0CC
:1040300050E0BE016F5F7F4FC8010E94A41081E075
:1040400090E00F900F900F90DF91CF911F910F9103
:10405000FF90EF90DF90CF90BF90AF909F908F90A8
:1040600008952F923F924F925F926F927F928F921C
:104070009F92AF92BF92CF92DF92EF92FF920F93F7
:104080001F93CF93DF93CDB7DEB763970FB6F89446
:10409000DEBF0FBECDBF7C016B011A010E94723ED4
:1040A0004B015C018701085F1F4F2601612C712CB9
:1040B000C8010E94521118161906A4F00E94723EFF
:1040C000DC01CB0188199909AA09BB0948165906D0
:1040D0006A067B06D0F062E370E080E090E00E9428
:1040E000A33EE6CFF7014281538164817581808DC3
:1040F000918DA28DB38D481759076A077B0749F444
:10410000848D958DC59729F409C0EE24EA94FE2C80
:10411000F1C09EEFE92EFF24FA94ECC0C8010E9482
:10412000CF0F0C970CF4E2C04CE050E0BE016F5F83
:104130007F4FC8010E94E1108B819C8198278927BD
:1041400098279A8B898BF7014681578129813A817B
:104150004217530711F497FD08C0C8010E94E90FE8
:104160007CEFE72EFF24FA94C5C08F709270892BE4
:1041700041F0C8010E94E90F6BEFE62EFF24FA948C
:10418000B9C0CF80D884DC24CD24DC24C114D10470
:1041900019F0E12CF12C26C0C8010E94E90F5AEF5A
:1041A000E52EFF24FA94A6C041E050E0BE01635F13
:1041B0007F4FC8010E94E1104D85442331F050E04B
:1041C00060E070E0C8010E94E1108D858111ECCFA4
:1041D00044E050E060E070E0C8010E94E110FFEFB1
:1041E000EF1AFF0A8D819E81982789279827E81664
:1041F000F906D0F2A12CB12C41E050E0BE016D5E79
:104200007F4FC8010E94E1104B89842F807C49F4C4
:10421000442379F050E060E070E0C8010E94E110B2
:1042200008C041E050E060E070E0C8010E94E11089
:104230001B8A8B898111E0CF42E050E0BE01615FB3
:104240007F4FC8010E94E11042E050E0BE01635F71
:104250007F4FC8010E94E11044E050E060E070E050
:10426000C8010E94E11042E050E0BE016F5E7F4F46
:10427000C8010E94E1108F85988949895A89811562
:104280009140E9F4ED84FE84FE24EF24FE2481E0D5
:10429000E816F104A1F44115544041F0C8010E9410
:1042A000E90F47EFE42EFF24FA9424C0B1016E5FBA
:1042B0007F4F44E050E0C8010E94E1101BC054272A
:1042C0004527542760E070E0C8010E94E110FFEF2D
:1042D000AF1ABF0ACA14DB0409F08ECFC8010E94CE
:1042E000E90F36EFE32EFF24FA9404C08DEFE82E99
:1042F000FF24FA94C70163960FB6F894DEBF0FBE91
:10430000CDBFDF91CF911F910F91FF90EF90DF9084
:10431000CF90BF90AF909F908F907F906F905F9065
:104320004F903F902F9008956F927F928F929F921F
:10433000AF92BF92CF92DF92EF92FF920F931F93B3
:10434000CF93DF9300D000D0CDB7DEB77C014B0117
:104350005A0139010E94461F8C01892B09F05CC06B
:10436000F70142815381648175818091E70B9091BF
:10437000E80BA091E90BB091EA0B481759076A07BF
:104380007B0709F44CC00E94723E6701F8E0CF0E33
:10439000D11C6F7077277C5FC6010E94F80F8130B7
:1043A00009F03FC084E196E09A838983F701828116
:1043B0009381A481B5818B839C83AD83BE8345E3C8
:1043C00050E0BE016F5F7F4FC6010E949410892BA1
:1043D00019F400E010E01CC0B401C7010E94861F60
:1043E000892BB9F3C6010E949E10892B91F383E0BB
:1043F000882E912CA501B301C7010E9431208C01A8
:1044000021E0821A910821F00F3FFFEF1F0791F37F
:10441000C6010E94EA0F05C001E010E002C00EEFE5
:104420001FEFC80126960FB6F894DEBF0FBECDBFB2
:10443000DF91CF911F910F91FF90EF90DF90CF9080
:10444000BF90AF909F908F907F906F900895CF9383
:10445000CFB7F8948091EE0B811127C0E5E6F3E029
:104460008491EFE1F3E09491E82FF0E0EE0FFF1F6D
:10447000E655FC4FA591B491EC91E92321F461E05C
:1044800085E30E94034061E085E30E94C73F8CB54D
:1044900080618CBD8CB580648CBD61E084E30E943A
:1044A000C73F61E083E30E94C73F8091EE0B8F5FBF
:1044B0008093EE0BCFBFCF910895CF93DF93C1E1EF
:1044C000D2E08091EF0B9091F00B6991DC01ED91BE
:1044D000FC910190F081E02D1995B2E0CB31DB0722
:1044E00081F7DF91CF910895FC013196079620E086
:1044F00030E04191240F311DE817F907D1F78827E3
:104500009927821B930B089581E192E00E94742207
:10451000E1E1F2E0978380870895EFEEFAE01192EF
:104520008AE0E93FF807D9F70895CF93DF930E9417
:104530008D22CFEEDAE08091EF0B9091F00BDC0151
:10454000ED91FC910284F385E02D19958F3FBFEF2B
:104550009B0739F089932AE0C93FD20761F781E0D0
:1045600001C080E0DF91CF9108959093F00B80938C
:10457000EF0B8DE592E29093F40B8093F30B85E9BA
:1045800092E29093F20B8093F10B0895CF92DF9219
:10459000EF92FF921F93CF93DF93182FD62FC42F44
:1045A0000E94723E2091F50B3091F60B621B730B4B
:1045B00077FF03C07195619571096233710594F4B9
:1045C000CB01770FAA0BBB0B42E350E060E070E039
:1045D0006A017B01C81AD90AEA0AFB0AC701B601B7
:1045E0000E94A33E10931402D0931602C0931702A8
:1045F0000E948422E091F30BF091F40B19950E9434
:10460000723E6093F50B7093F60B8093F70B9093CB
:10461000F80BDF91CF911F91FF90EF90DF90CF903B
:104620000895AB0160E070E00C94C622BC0186E006
:104630000C941123BC0182E10C941123CF93DF93DE
:104640001F92CDB7DEB76983DC01ED91FC9102804A
:10465000F381E02D41E050E0BE016F5F7F4F19957F
:104660000F90DF91CF910895CF93DF93EC01898D67
:104670009A8D009739F481E090E09B838A8380E0F3
:1046800090E00BC0FC01138212820E942330E98D5E
:10469000FA8D22813381232B71F7DF91CF91089519
:1046A000FC01818D928D009711F00C94852D089559
:1046B000CF93DF931F92CDB7DEB741E050E0BE014C
:1046C0006F5F7F4F0E94A02B019719F4898190E0C2
:1046D00002C08FEF9FEF0F90DF91CF910895FC0103
:1046E000818D928D009711F00C9458238FEF9FEFDE
:1046F00008950F931F93CF93DF93FC01818D928DCB
:104700000097B9F0EF010E9458238C010F3F8FEF03
:10471000180791F0898D9A8DFC0142855385648537
:10472000758541505109610971090E94EE2CC8013B
:1047300005C080E090E002C08FEF9FEFDF91CF9146
:104740001F910F910895EF92FF920F931F93CF93B4
:10475000DF93EC017B018A011B821A8288EE93E0D1
:10476000A0E0B0E08C839D83AE83BF8384EE95E0B0
:10477000998388838DE190E00E94C5409A8F898F4C
:10478000009779F02DE1F701DC0101900D922A9557
:10479000E1F74CE050E0B801CE010C960E94CC430A
:1047A000188EDF91CF911F910F91FF90EF90089598
:1047B000FC011382128288EE93E0A0E0B0E08483D3
:1047C0009583A683B78384EE95E091838083128ED0
:1047D000118E14860895FC01818D928D009729F029
:1047E0000E94EE2C91E0811101C090E0892F089584
:1047F000DC015996ED91FC915A97309729F062852A
:1048000073858485958508956FEF7FEFCB010895BB
:10481000DC015996ED91FC915A97309729F0638904
:10482000748985899689089560E070E0CB010895C8
:10483000CF92DF92EF92FF92CF93DF93FC01218D15
:10484000328D232BD9F0EC010E9408246B017C01EE
:10485000CE010E94F823A7019601261B370B480BB7
:10486000590BDA01C901811530E89307A105B1059B
:1048700038F08FEF9FE7A0E0B0E002C080E090E06A
:10488000DF91CF91FF90EF90DF90CF900895CF937D
:10489000DF93EC01898D9A8D009741F00E94CC2D19
:1048A000898D9A8D0E945D411A8E198EDF91CF916C
:1048B0000895DC015996ED91FC915A97309721F0BB
:1048C00081E09581911101C080E00895442339F081
:1048D0000E94FC2F91E0811103C090E001C091E0A3
:1048E000892F08950F931F93CF93DF93EC018B01D2
:1048F00041E00E946735811109C040E0B801CE0156
:10490000DF91CF911F910F910C94673581E0DF917A
:10491000CF911F910F910895EF92FF920F931F93E4
:10492000CF93DF93DA01EB0128813981FC01E20F9B
:10493000F31F40814F3211F42F5F3F4F8C01020F64
:10494000131F7D01E0E0F0E0E80159918E015F3234
:1049500059F0552349F031962F5F3F4FE7015993A6
:104960007E01EC30F10581F7EA0FFB1F1082FC019C
:10497000E20FF31F40814F3211F42F5F3F4FFB01D5
:1049800031832083FC01E20FF31F81E090819111BC
:1049900001C080E0DF91CF911F910F91FF90EF90C8
:1049A00008954F925F926F927F928F929F92AF92F3
:1049B000BF92CF92DF92EF92FF920F931F93CF930C
:1049C000DF93CDB7DEB7C954D1090FB6F894DEBF77
:1049D0000FBECDBF5C016B013A01490119A218A2BB
:1049E00086EF95E09F8F8E8F1BA21C821B829A837D
:1049F00089831E822A961FAE1EAE2A978B017E01E6
:104A00008EE1E80EF11C44244394AE01455C5F4FF7
:104A1000BE01685B7F4FC5010E948C24582E482F31
:104A200044259401BE01655C7F4FC801F3011995CF
:104A3000811108C00C151D0519F0C8010E94CC2D6C
:104A400080E027C05520B9F021E0AE01455C5F4F02
:104A5000B801C7010E94F42E582E0C151D0599F0BF
:104A6000C8010E94CC2D552059F3902F812F87012A
:104A7000E92EF82ECACF0C151D0519F0C8010E94A9
:104A8000CC2D81E006C08823D9F28E010F5F1F4F25
:104A9000ECCFC75BDF4F0FB6F894DEBF0FBECDBFC4
:104AA000DF91CF911F910F91FF90EF90DF90CF900A
:104AB000BF90AF909F908F907F906F905F904F903E
:104AC00008950F931F93CF93DF93EC01162F8FA5BB
:104AD000882321F0CE018A960E94CC2D412F61E0DF
:104AE000CE010E945728882389F08E01045F1F4F52
:104AF000BE01C8010E947224882341F0B801CE0192
:104B00008A960E944F2B91E0811101C090E0892F7D
:104B1000DF91CF911F910F910895FC01DB01129657
:104B20008D919C9113979383828386EF95E0918377
:104B3000808314968C911497848315968C91159785
:104B4000858316964D915D916D917C911997468361
:104B50005783608771871A964D915D916D917C9115
:104B60001D9742875387648775871E964D915D9187
:104B70006D917C91519746875787608B718B5296C8
:104B80008C915297828B53964D915D916D917C9152
:104B90005697438B548B658B768B57964D915D91D1
:104BA0006D917C915A97478B508F618F728F5B9676
:104BB0008D919C915C97948F838F08954F925F9213
:104BC0006F927F928F929F92AF92BF92CF92DF921D
:104BD000EF92FF920F931F93CF93DF93CDB7DEB782
:104BE000C754D1090FB6F894DEBF0FBECDBF5C012C
:104BF0004A01390119A218A286EF95E09F8F8E8F86
:104C00001BA21C821B829A8389831E82645F7F4F52
:104C10006E018EE1C80ED11CC6010E944F2B74019B
:104C20008E010F5F1F4F5C2C4D2C6FE270E0C701AF
:104C30000E94B143009709F443C0F70120812F324D
:104C400071F4FFEFEF1AFF0A902F812F052D142D1D
:104C50002C01C201502E412E092F182FE6CF8E199C
:104C60008D3008F08CE0C82ED12CA601B701CE0102
:104C7000CB960E94CC43EBE3F0E0EC0FFD1FEC0D74
:104C8000FD1D1082C8010E94CC2D21E0AE01455CC3
:104C90005F4F652D742DC8010E94F42E811109C04B
:104CA000F5011382128286EF95E09183808315824D
:104CB00011C0EC0CFD1C852D942D0E94CC2DC9CF6C
:104CC000E818F908F301F182E082652D742DC50121
:104CD0000E948D25C501C95BDF4F0FB6F894DEBF7A
:104CE0000FBECDBFDF91CF911F910F91FF90EF903D
:104CF000DF90CF90BF90AF909F908F907F906F90FC
:104D00005F904F900895DF92EF92FF920F931F9361
:104D1000CF93DF93CDB7DEB7C955D1090FB6F8945D
:104D2000DEBF0FBECDBF7C018A01D22E9E01285A64
:104D30003F4FCE01CB960E94DE256A968EAD9FAD89
:104D40006A97080F191FF801808181110AC0BE01FE
:104D5000655C7F4FCE0101960E948D254DE153E0A9
:104D600033C019A218A286EF95E09F8F8E8F1BA2E9
:104D700021968FAD2197811104C0C7010E94D823CD
:104D800029C02D2DA801BE01655C7F4FCE014E9636
:104D90000E94F42E882389F3CE01CB960E94CC2D5D
:104DA0008D2D8670863041F449A95AA96BA97CA93A
:104DB000CE014E960E94EE2CBE01625E7F4FCE0168
:104DC00001960E948D25A801BE016F5F7F4FC7012C
:104DD0000E94A323C701C75ADF4F0FB6F894DEBF66
:104DE0000FBECDBFDF91CF911F910F91FF90EF903C
:104DF000DF900895FB01BC01665D7F4F20E030E04D
:104E000046E654E2CF010C94D124E9EFFBE0158291
:104E100016821186138682E090E0A0E0B0E08487DD
:104E20009587A687B78713A215A614A686EF95E0E7
:104E300093A782A717A608959FB7F8942091ED0B2A
:104E40008091EB0B213019F48DBB9FBF08958FBF6C
:104E500008950F93FC0180E092E1AAE7B0E030E012
:104E6000481759076A077B0740F4B695A7959795A9
:104E700087953F5F3630A1F737E091E093272223F3
:104E800011F020E501C020E70C70892F8695082BD2
:104E9000022B0083917091830F9108958FEF0C94F2
:104EA000A71761E0FC0184810E9403408091420CBD
:104EB000882339F01092420C8091ED0B81110C94F3
:104EC0001C270895CF93DF93EC018091420C811150
:104ED00009C081E08093420C8091430C9091440C76
:104EE0000E94340A60E08C81DF91CF910C940340E2
:104EF000CF93DF93EC018E81882389F08F81988591
:104F00009C012F5F3F4F38872F838230924018F4E7
:104F10000E944E27F3CFCE010E9451271E82DF91BF
:104F2000CF9108950F93CF93DF931F921F92CDB728
:104F3000DEB7673028F026E1FC01258380E047C01A
:104F40006230F9F058F46623A9F0613079F500E099
:104F500021E040E059E06DE370E02EC06430F9F0EC
:104F6000B8F0653019F500E021E040E950ED63E06C
:104F700070E022C000E021E040E458E76DE771E016
:104F80001BC000E021E040E854E86EE170E014C08E
:104F900000E021E040E452E46FE070E00DC000E08A
:104FA00021E040E251EA67E070E006C000E021E065
:104FB00048E458EE61E070E0CE0101960E94292796
:104FC00089819A819093440C8093430C81E00F90E7
:104FD0000F90DF91CF910F9108950F931F93CF936F
:104FE000DF93EB010E94723E8B010E944E278F3FA0
:104FF00049F00E94723E601B710B6C177D07A8F38D
:1050000080E001C081E0DF91CF911F910F91089561
:105010008F929F92AF92BF92FF920F931F93CF9365
:10502000DF93EC01F62E49015A010E947827CE0148
:105030000E9462276CE271E0CE010E94ED278F2D65
:1050400080640E94A71708E110E0D501C401002E7A
:1050500004C0B695A795979587950A94D2F70E94B4
:10506000A71708501109083F8FEF180771F7FF20A5
:1050700029F088E0F81204C087E803C085E901C080
:105080008FEF0E94A71710E00E944E278A8787FFA4
:1050900004C01F3F11F01F5FF7CFDF91CF911F9129
:1050A0000F91FF90BF90AF909F908F9008957F9247
:1050B0008F929F92AF92BF92CF92DF92EF92FF9228
:1050C0000F931F93CF93DF931F921F92CDB7DEB73D
:1050D0007C01762EFC01138611861682158244838C
:1050E0000E94723E6B0161E0F70184810E94C73F1C
:1050F00061E0F70184810E9403400E94272200E0C2
:1051000021E040E950ED63E070E0CE0101960E949D
:10511000292789819A819093440C8093430C0E94A3
:10512000340A1AE08FEF0E94A7171150D9F7809127
:10513000ED0B81110E941C27C7010E94622720E00D
:1051400030E0A90160E0C7010E940828082FF7019C
:105150008287813049F00E94723E6C197D09613D61
:10516000774068F381E050C02AEA31E040E050E047
:1051700068E0C7010E94082882FF03C0F701038787
:105180000EC004E00E944E27F70182870150D1F73C
:105190008A3A11F082E039C082E0F7018387F70193
:1051A0008385823021F0812C912C540105C0812C03
:1051B000912CA12C80E4B82E20E030E0A90167E317
:1051C000C7010E940828A501940169E2C7010E9455
:1051D0000828F7018287882349F00E94723E6C19E3
:1051E0007D09613D774040F388E00EC0F70183857B
:1051F0008230F1F420E030E0A9016AE3C7010E94A7
:105200000828882339F086E0F7018583C7010E94CA
:10521000512716C00E944E27807C803C19F483E001
:10522000F70183870E944E270E944E270E944E2737
:10523000C7010E945127672DC7010E949227182F8E
:10524000812F0F900F90DF91CF911F910F91FF90C1
:10525000EF90DF90CF90BF90AF909F908F907F9016
:1052600008950F931F93CF93DF93EC010E94723E3A
:105270008B010E944E278A878F3F49F40E94723E1D
:10528000601B710B6D327140A0F38FE003C08E3F45
:1052900039F08DE08D83CE010E94512780E001C05E
:1052A00081E0DF91CF911F910F910895CF92DF920E
:1052B000EF92FF920F931F93CF93DF93EC0169015D
:1052C000C801820F931F8130924008F05CC08E812C
:1052D000882371F088819981AA81BB818417950701
:1052E000A607B70729F48F819885C816D90610F547
:1052F000488359836A837B838B85833039F089E0C7
:10530000440F551F661F771F8A95D1F79A01AB018D
:1053100061E1CE010E940828882319F083E08D8383
:1053200032C0CE010E943129882369F118861F827C
:1053300081E08E838F8198858C159D0540F40E94B5
:105340004E278F819885019698878F83F3CF6701C9
:10535000E00EF11ECE14DF0431F00E944E27F6015C
:1053600081936F01F7CF8F819885080F191F1887D8
:105370000F838985882319F00115124048F0CE016A
:105380000E94782705C0CE010E94512780E001C00D
:1053900081E0DF91CF911F910F91FF90EF90DF900F
:1053A000CF900895EF92FF920F931F93011511056F
:1053B00019F00E94562901C081E01F910F91FF90C2
:1053C000EF900895EF92FF920F931F93790100E001
:1053D00012E020E030E00E9456291F910F91FF90CB
:1053E000EF900895EF92FF920F931F93CF93DF9367
:1053F0008C01862F7A010E94A717E7018EEFF81A19
:1054000089910E94A717CE15DF05D1F78FEF0E9473
:10541000A7178FEF0E94A7170E944E27F8018287D7
:105420008F71853039F081E18583C8010E94512751
:1054300080E001C081E0DF91CF911F910F91FF903B
:10544000EF9008950F931F93CF93DF93EC018901A1
:10545000411551056105710511F482E132C08B855A
:10546000833039F089E0440F551F661F771F8A95F6
:10547000D1F79A01AB0168E1CE010E940828882388
:1054800011F084E01EC0A8016EEFCE010E94F22947
:105490008823C1F068E572E0CE010E94ED278111FA
:1054A00002C085E10EC020E030E0A9016DE0CE0130
:1054B0000E940828811104C00E944E27882339F0D9
:1054C00084E18D83CE010E94512780E004C0CE018B
:1054D0000E94512781E0DF91CF911F910F91089594
:1054E000E3E4FCE080E5808311820895CF93DF93AD
:1054F000EC019C012A5F3F4F41E050E060E070E02A
:105500008B8D9C8D0E94FC338823A1F08F89988D10
:10551000A98DBA8D892B8A2B8B2B59F48E819F8173
:10552000A885B9858F8B988FA98FBA8F8C81806859
:105530008C8381E0DF91CF910895CF92DF92EF923B
:10554000FF921F93CF93DF93EC010E94762A811183
:1055500002C080E04AC0EB8DFC8DCE80DF80E88405
:10556000F98482E0C81AD108E108F108058404C072
:10557000CC0CDD1CEE1CFF1C0A94D2F786859785A7
:10558000A089B189C80ED91EEA1EFB1E148181E0D4
:10559000C81AD108E108F108112361F0C701B6016A
:1055A000610F711D811D911D0E944B32882389F26C
:1055B0001150F2CFEB8DFC8D80E092E0A0E0B0E0E6
:1055C000058404C0880F991FAA1FBB1F0A94D2F735
:1055D0004B895C896D897E89840F951FA61FB71F33
:1055E0008B8B9C8BAD8BBE8B81E0DF91CF911F911C
:1055F000FF90EF90DF90CF900895CF93DF93EC0171
:10560000462F6E857F85888999890E94103288236C
:1056100041F08A8920E2829FC0011124825B934F6E
:1056200002C080E090E0DF91CF910895FB019B01E3
:10563000255F3F4F40E24193E217F307E1F7DC01BA
:1056400090E027E08D91882319F18E3229F42A30D9
:1056500021F198E02AE0F6CFE4E9F2E03491332337
:1056600021F031968313FACF18C02917B0F03FED1F
:10567000380F3E3590F431E0390FFB01E90FF11D91
:105680009FE9980F9A3108F480528083932FDACFE4
:1056900081E0FB019081903209F480E008950F933E
:1056A0001F93CF93DF93FC012581222311F080E02B
:1056B00042C08B01EC01FB0187898031B1F482E0AB
:1056C0008D831F8A188E198E1A8E808D918DA0E081
:1056D000B0E025E0880F991FAA1FBB1F2A95D1F7BC
:1056E0008B8B9C8BAD8BBE8B15C0803201F783E01A
:1056F0008D83FB01428D538D648D758D4F8B588F3B
:10570000698F7A8F9E012D5E3F4FC8010E94F23251
:10571000882369F21C8F0B8F81E08C831E821F828D
:10572000188619861A861B861C861D861E861F866D
:10573000188A198A1A8ADF91CF911F910F910895C3
:105740002F923F924F925F926F927F928F929F9291
:10575000AF92BF92CF92DF92EF92FF920F931F937F
:10576000CF93DF93EC015B014A018D81811103C06E
:105770008FEF9FEFD7C08C8180FFFACF4B885C887A
:105780006D887E884A855B856C857D85C401A0E037
:10579000B0E093018201041B150B260B370B081791
:1057A00019072A073B0718F44201841A950A2401B5
:1057B0001E0126E0220E311C4114510409F47EC062
:1057C0004A855B856C857D856A0181E0D822ED8103
:1057D0008B8D9C8D8A019B01F9E036952795179555
:1057E0000795FA95D1F7E23061F4FC01828D938D33
:1057F000A48DB58DBC01CD01600F711F821F931F59
:105800003FC0FC0174807A947022C114D104C9F4A1
:10581000711017C0452B462B472B49F48F89988D63
:10582000A98DBA8D8E839F83A887B9870AC04E81C0
:105830005F816885798591010E946F32882309F420
:1058400097CFEB8DFC8D8E819F81A885B9850297BE
:10585000A109B109058404C0880F991FAA1FBB1FA5
:105860000A94D2F74685578560897189840F951F00
:10587000A61FB71FBC01CD01670D711D811D911DB4
:1058800020E032E02C193D0932012415350508F4D9
:1058900039012C8126FD04C06114F2E07F0679F500
:1058A00000911E0210911F022091200230912102CE
:1058B000601771078207930719F421C0C40132C031
:1058C000750183019601AB01BC0180914C0C909154
:1058D0004D0C0E94D229882309F44ACFA60CB71C8C
:1058E0008A859B85AC85BD85860D971DA11DB11D43
:1058F0008A879B87AC87BD87461857085DCF40E0F5
:105900000E941032882309F433CFF601E25BF34F93
:10591000D501CF01860D971D8E179F07F9F22191B2
:105920002D93FACFDF91CF911F910F91FF90EF90C0
:10593000DF90CF90BF90AF909F908F907F906F90AF
:105940005F904F903F902F900895FF920F931F9379
:10595000CF93DF931F92CDB7DEB7FC0125812230B4
:1059600018F480E090E033C08C01FC01428553853F
:105970006485758585E076956795579547958A95F1
:10598000D1F7F42FFF70FF2E41E050E0BE016F5FB2
:105990007F4FC8010E94A02B019719F4898190E0E4
:1059A00002C08FEF9FEF0196E1F2F80182859385A7
:1059B000A485B5854F96A11DB11D82879387A487C5
:1059C000B587F0E2FF9EC0011124825B934F0F90D8
:1059D000DF91CF911F910F91FF9008958F929F9229
:1059E000AF92BF92CF92DF92EF92FF920F931F93ED
:1059F000CF93DF93EC018D81811102C080E078C0EC
:105A00000B891C892D893E8904171507260737073E
:105A1000A8F36A017B01823029F4CA86DB86EC8612
:105A2000FD860DC0C114D104E104F10451F41E82BD
:105A30001F82188619861A861B861C861D8681E0A1
:105A400057C08A849B84AC84BD84EB8DFC8D2585F6
:105A500030E0275F3F4FB501A40141505109610972
:105A60007109022E04C076956795579547950A945B
:105A7000D2F7D701C6010197A109B10904C0B695B3
:105A8000A795979587952A95D2F784179507A60726
:105A9000B70720F089288A288B2871F44F89588D00
:105AA000698D7A8D4E835F83688779874C015D01AC
:105AB0008E010A5F1F4F16C0841B950BA60BB70BF8
:105AC000F5CF4E815F816885798598018B8D9C8D9E
:105AD0000E946F3291E0891A9108A108B1088823C9
