:100000000C94DE010C940F020C940F020C940F025E
:100010000C940F020C940F020C940F020C940F021C
:100020000C940F020C940F020C940F020C940F020C
:100030000C940F020C940F020C940F020C940F02FC
:100040000C940F020C940F020C940F020C940F02EC
:100050000C940F020C940F020C940F020C94F93BB9
:100060000C940F020C94A2350C94D8350C940F020A
:100070000C940F020C940F020C940F020C940F02BC
:100080000C940F020C940F020C940F020C940F02AC
:100090000C940F020C940F020C940F020C940F029C
:1000A0000C940F020C940F020C940F020C940F028C
:1000B0000C940F020C940F020C940F020C940F027C
:1000C0000C940F020C940F020C940F020C9439360E
:1000D0000C946F360C940F020C94D0360C940637A7
:1000E0000C940F02523D553D443D483D4E3D8C3DE4
:1000F000593D5D3D633D673D6B3D713D753D793DCE
:100100008C3D7F3D833D873D0C942D100C94523DDA
:100110000C94920E0C94B2100C9445340C94520C26
:100120000C9476340C94D80B0C94D90B0C94AC0F23
:100130000C9467370C9439340C94873D0C94633DD0
:100140000C94AD1D0C947D0C0C945D3D0C94553DB0
:100150000C947F3D0C941E280C94673D0C94060C67
:100160000C948C3D0C94380C0C94A3360C944621C2
:100170000C94800F0C94620D0C942F0C0C94790C41
:100180000C94E5370C949E0D0C94443D0C94060D94
:100190000C94D4340C94753D0C94E30D0C94C7244A
:1001A0000C94FE030C9402360C94DA370C945A101B
:1001B0000C94713D0C94CD0D0C949C200C94303714
:1001C0000C94DE0B0C9401210C947F2F0C941D21B8
:1001D0000C94793D0C94780F0C94483D0C94B80F16
:1001E0000C947C0F0C94F50F0C94EB200C94FE0BEC
:1001F0000C9471030C940C360C9499360C943C219D
:100200000C94A6180C9467340C94970F0C94D50B8F
:100210000C94593D0C94DC0B0C944E3D0C94110C39
:100220000C94833D0C94BB110C94C70B0C94560F8B
:100230000C94F6340C94560C0C94B40F0C943A377E
:100240000C946B3D0C945D110C94E5210C94E80B1F
:100250000C94610F0C9433220C94680F0C94960F3D
:100260000C94C20D0C94CC0F0C9453340C941410B9
:100270007C3C3E5E2B3D3F2F5B5D3B2C2A225C008D
:1002800000000A0B02090C0D0E0807030401000010
:10029000000000000000000000000000000000005E
:1002A000000000000000000000000000121110001B
:1002B000000000000000000000000000000000003E
:1002C000000000000000010210202008081020405B
:1002D000102040800201020108040201010204080A
:1002E0001020408080402010080402018004020198
:1002F00080402010080402010804020101020408E1
:1003000010204080010204081020408005050505EA
:10031000070508080808020202020A0A080804047D
:1003200004040101010101010101030303030303AB
:100330000303040707070C0C0C0C0C0C0C0C02023A
:10034000020206060606060606060B0B0B0B0B0B37
:100350000B0B000020002300260029002C002F009A
:100360003200000100000301060109010000220023
:10037000250028002B002E0031003400020100006F
:10038000050108010B0100002100240027002A00BC
:100390002D003000330001010000040107010A01B3
:1003A0007103C70BC20D560FBB11A618AD1DC72494
:1003B0001E280C36A3363A37DA37FE0311241FBE47
:1003C000CFEFD1E2DEBFCDBF00E00CBF16E0A0E072
:1003D000B2E0E8EDF3E800E00BBF02C007900D9239
:1003E000A033B107D9F720E1A0E3B6E001C01D9228
:1003F000AA30B207E1F711E0CDEDD1E000E006C090
:1004000021970109802FFE010E94633EC03DD10764
:1004100080E00807A9F70E94E63B0C94DA410C94AF
:10042000000061E08DE00E948D3D61E08DE00E9462
:10043000C93D6AEF70E080E090E00E94743C60E0AB
:100440008DE00E94C93D6AEF70E080E090E00E947C
:10045000743CEBCFFB019C01205F3F4FDC016D91B1
:100460007D91CD01419151916417750729F4A2172F
:10047000B307A1F781E0089580E00895EF92FF921D
:100480000F931F93CF93DF937C0103E017E0C0E04D
:10049000D0E0B701C8010E942A02811109C021964B
:1004A000005F1F4FCC33D105A1F78FEF9FEF01C045
:1004B000CE01DF91CF911F910F91FF90EF900895A2
:1004C0009C01205331092A30310540F02151310976
:1004D00081E02630310518F080E0089581E008952C
:1004E000CF93DF930E943E0220910A02019649F4C5
:1004F000222381F068E272E080E29EE00E945C3894
:1005000009C0222351F06CE272E080E29EE00E947A
:100510005C3803C0CFEFDFEF02C0C1E0D0E08091D4
:100520000A02882331F062E372E080E29EE00E94DA
:100530003338CE01DF91CF910895CF92DF92EF92C1
:10054000FF920F931F93CF93DF9300D000D0CDB7CE
:10055000DEB77C016B0161E576E08BE496E00E94FA
:10056000513AB6018BE496E00E948F3BF60104817C
:1005700015810F5F1F4F080F191F6CEA72E0CE0143
:1005800001960E941C3AA801BE016F5F7F4F8BE469
:1005900096E00E94723B8C01B6018BE496E00E94CB
:1005A0008F3BF601448155814F5F5F4F480F591FC4
:1005B00098016BE476E0C7010E94933BCE0101965F
:1005C0000E94AE39C70126960FB6F894DEBF0FBE63
:1005D000CDBFDF91CF911F910F91FF90EF90DF90F2
:1005E000CF9008950F931F93CF93DF9388E10E94DC
:1005F000F93D892BD1F18091D5069091D606892BB2
:10060000A1F1E091D706F091D806309761F480917E
:10061000D3069091D406009721F06EEA72E00E9412
:100620005C380E941102C081D18102811381CF0107
:100630000E94F73B1093D8060093D7062091D50669
:100640003091D606215031093093D6062093D50635
:10065000CE010E94E72064E670E080E090E0DF9148
:10066000CF911F910F910C94743CDF91CF911F910A
:100670000F910895EF92FF920F931F93CF93DF9303
:10068000EC017B010E811F8184E090E00E94F53B2C
:100690009F838E83009751F488819981009721F080
:1006A00060EE72E00E945C380E941102FC0113822D
:1006B0001282F182E0822C813D81232B19F49D83EB
:1006C0008C8303C0F801938382838A819B81019686
:1006D0009B838A83DF91CF911F910F91FF90EF90C1
:1006E00008950F9300E020E040E060E081E19BE0AE
:1006F0000E94B33761E173E08BE09BE00E941C3AFB
:1007000006E221E048EA60EC85E09BE00E94B33716
:1007100060E570E08FEF9AE00E94270E69ED74E0CB
:1007200089EF9AE00E941C3A67E173E083EF9AE058
:100730000E941C3A6EE173E08DEE9AE00E941C3A32
:1007400064E673E087EE9AE00E941C3A6EE673E07E
:1007500081EE9AE00E941C3A6AE972E08BED9AE021
:100760000E941C3A69E773E085ED9AE00E941C3A0A
:100770006FEB73E08FEC9AE00E941C3A69EC73E037
:1007800089EC9AE00E941C3A6EED73E083EC9AE0EB
:100790000E941C3A63EF73E087EE96E00E941C3AD9
:1007A0006DEF73E081EE96E00E941C3A69E074E020
:1007B0008BED96E00E941C3AE3EDF6E01382128284
:1007C0001582148217821682118210824AE060E834
:1007D00070E08BE496E00E94683A69ED74E083E48F
:1007E00096E00E941C3A86E396E00E94DB0C69EDDD
:1007F00074E080E396E00F910C941C3ACF93DF9362
:1008000080E396E00E94AE3983E496E00E94AE3920
:100810008BE496E00E94AE39C091D706D091D806FD
:10082000CD2B71F08091D7069091D806FC01C28142
:10083000D3810E94F73BD093D806C093D706F0CF60
:100840008BED96E00E94AE3981EE96E00E94AE39C3
:1008500087EE96E00E94AE3983EC9AE00E94AE39B2
:1008600089EC9AE00E94AE398FEC9AE00E94AE3992
:1008700085ED9AE00E94AE398BED9AE00E94AE3988
:1008800081EE9AE00E94AE3987EE9AE00E94AE397E
:100890008DEE9AE00E94AE3983EF9AE00E94AE3965
:1008A00089EF9AE00E94AE398BE09BE0DF91CF9117
:1008B0000C94AE398F929F92AF92BF92CF92DF92FB
:1008C000EF92FF920F931F93CF93DF93CDB7DEB7D5
:1008D0006B970FB6F894DEBF0FBECDBF4091E70611
:1008E0005091E80621E06BEC7BE0CE0101960E947E
:1008F0003224CE0101960E942622882309F450C09A
:1009000083E0C82E87E0D82E9AE0892E912CA12C66
:10091000B12CE12CF12CCE0101960E94E521892B0E
:10092000D9F100E010E0CE0101960E943C21F601D1
:10093000E00FF11F9183808320910A02222369F046
:100940004AE050E0BC0180E29EE00E9413396DE570
:1009500072E080E29EE00E9433380E5F1F4F00314C
:10096000110509F78FEFE81AF80AB501A401CE01C5
:1009700001960E94B82180910A02882321F080E22A
:100980009EE00E9446388AE0880E911CA11CB11C92
:1009900080E1C80ED11CBFCFF092F006E092EF06C6
:1009A000CE0101960E9414226B960FB6F894DEBF1A
:1009B0000FBECDBFDF91CF911F910F91FF90EF90B0
:1009C000DF90CF90BF90AF909F908F900895CF927F
:1009D000DF92EF92FF920F931F93CF93DF93CDB7E8
:1009E000DEB76B970FB6F894DEBF0FBECDBF209178
:1009F000EF063091F006D90144E0AA0FBB1F4A95DB
:100A0000E1F740E050E0FC0161917191CF01FA0102
:100A1000EA0FFB1FED5FF84F718360834E5F5F4FFE
:100A20004031510581F72F5F3F4F3093F0062093FF
:100A3000EF066091E7067091E8068BEC9BE00E9460
:100A4000BC244091E7065091E80623E16BEC7BE083
:100A5000CE0101960E943224CE0101960E942622E8
:100A6000811115C0CE0101960E9414220E945A04E1
:100A70006B960FB6F894DEBF0FBECDBFDF91CF915E
:100A80001F910F91FF90EF90DF90CF90089583E03A
:100A9000C82E87E0D82EE12CF12C8091EF069091A2
:100AA000F006E816F906F0F600E010E0F601E00FB7
:100AB000F11F6081CE0101960E94EB200E5F1F4F57
:100AC0000031110599F7CE0101960E944638FFEFDB
:100AD000EF1AFF0A80E1C80ED11CDFCF8F929F92E0
:100AE000AF92BF92CF92DF92EF92FF920F931F933C
:100AF000CF93DF93CDB7DEB7A0970FB6F894DEBFE4
:100B00000FBECDBF8C014B0169ED74E00E941C3A11
:100B100065E174E0CE0101960E941C3AB401CE0159
:100B200001960E94EC3ABC01C8010E94313ACE0104
:100B300001960E94AE3980910A02882331F068E361
:100B400074E080E29EE00E9433387E0121E1E20EF3
:100B5000F11C5701C12CD12CB601C4010E94703B7D
:100B6000682F880F770BD5016D937D935D01809180
:100B70000A02882361F04AE050E080E29EE00E9491
:100B800013396DE572E080E29EE00E943338BFEFDA
:100B9000CB1ADB0AE8E0CE16D104F1F6C7010E94B9
:100BA00070028F3FFFEF9F0751F0019719F56BED32
:100BB0007AE0C8010E94C23A67E574E018C0FE01FD
:100BC0003196CE018196D7012D913D917D012193E2
:100BD0003193A817B907B9F7CE0101960E94E7042F
:100BE0006BED7AE0C8010E94C23A6EE374E0C8017E
:100BF0000E94C93AC801A0960FB6F894DEBF0FBE96
:100C0000CDBFDF91CF911F910F91FF90EF90DF90BB
:100C1000CF90BF90AF909F908F900895CF92DF922A
:100C2000EF92FF920F931F93CF93DF93CDB7DEB771
:100C3000E9970FB6F894DEBF0FBECDBF6C017B0104
:100C400069ED74E0CE01C4960E941C3A870180E1F0
:100C5000E80EF11CF80160810E5F1F4FCE01C496B3
:100C60000E94D83A0E151F05A9F7BE016C5C7F4F94
:100C700080E29EE00E944A384091E1065091E206EF
:100C800021E06BEC7BE0CE0101960E943224CE0184
:100C900001960E942622882309F49AC069ED74E027
:100CA000CE018E960E941C3A69ED74E0CE018896C2
:100CB0000E941C3A69ED74E0CE0182960E941C3AB3
:100CC00001E010E0CE0101960E94E521892B09F494
:100CD00069C0CE0101960E943C217C018F9709F4E6
:100CE000A7C08BE3E816F10431F0C7010E9460024F
:100CF000811186C0E7CF0330110509F040C0BE0165
:100D0000685D7F4F80E29EE00E944A3828E030E034
:100D100040E050E0BE01685D7F4FCE014C960E94DE
:100D2000933BBE01645E7F4F80E29EE00E944A38A2
:100D3000CE014C960E94AE396CA57DA54AE050E0EC
:100D400080E29EE00E944539BE01685D7F4FCE0182
:100D5000C4960E942F3B882391F0BE016E5D7F4FA9
:100D600080E29EE00E944A38CE0101960E94142241
:100D7000BE016E5D7F4FC6010E94483A1CC069EDFE
:100D800074E0CE018E960E94513A69ED74E0CE0176
:100D900088960E94513A69ED74E0CE0182960E94D5
:100DA000513A8ECFCE0101960E9414226DEC74E070
:100DB000C6010E941C3ACE0182960E94AE39CE0135
:100DC00088960E94AE39CE018E960E94AE3904C03C
:100DD000CE0101960E941422CE01C4960E94AE3923
:100DE000C601E9960FB6F894DEBF0FBECDBFDF9106
:100DF000CF911F910F91FF90EF90DF90CF900895CA
:100E00000230110571F46E2DCE018E9607C00130AF
:100E1000110509F057CF6E2DCE0188960E94D83A61
:100E200051CF0330110599F76E2DCE018296F6CF82
:100E30000F5F1F4F47CFCF92DF92EF92FF92CF937A
:100E4000DF9300D000D0CDB7DEB763EF76E0CE0100
:100E500001960E940E06BE016F5F7F4F80E29EE00A
:100E60000E944A3880E00E94123DBC01990F880B15
:100E7000990B0E945B3926E030E040E050E061E0F1
:100E800070E080E090E00E94873983ED96E00E9458
:100E90003A036DEC74E0CE0101960E94403B811153
:100EA00011C0CE0101960E94D93B6B017C014AE042
:100EB00050E080E29EE00E941A39B60183ED96E090
:100EC0000E943A036091D5067091D6064AE050E040
:100ED00080E29EE00E941A3960ED77E080E090E0C9
:100EE0000E94743CCE0101960E94AE3926960FB640
:100EF000F894DEBF0FBECDBFDF91CF91FF90EF9092
:100F0000DF90CF900895CF93DF9300D000D0CDB77E
:100F1000DEB786E396E00E94790C69ED74E0CE01BD
:100F200001960E941C3A809149068823A9F067EE39
:100F30007AE0CE0101960E94313A63E476E0CE0178
:100F400001960E94C23A62ED74E0CE0101960E94C1
:100F5000C93A60E376E00EC06DEE7AE0CE0101960C
:100F60000E94313A60E376E0CE0101960E94C23AD7
:100F700061EE7AE0CE0101960E94C23ABE016F5F37
:100F80007F4F86E396E00E94253861E070E080E0C4
:100F900090E00E94743C86E396E00E94620D80918E
:100FA0000A02882331F06AED74E080E29EE00E943C
:100FB0005C38CE0101960E94AE3926960FB6F894A1
:100FC000DEBF0FBECDBFDF91CF910895CF92DF92EC
:100FD000EF92FF92CF93DF93CDB7DEB7AA970FB60C
:100FE000F894DEBF0FBECDBF61E576E08BE496E0FE
:100FF0000E94513A6DEE74E0CE0101960E941C3AB7
:10100000BE016F5F7F4FCE0185960E949D02CE018B
:1010100001960E94AE39CE0185960E94D93B6B01A4
:101020007C0160EF74E0CE0101960E941C3ABE0183
:101030006F5F7F4FCE014F960E949D02CE010196B9
:101040000E94AE3964EF74E080E396E00E94513A6A
:10105000CA94CD2809F055C06DE075E0CE01019627
:101060000E941C3ABE016F5F7F4FCE0149960E94DD
:101070009D02CE0101960E94AE3962E175E0CE017B
:1010800001960E941C3ABE016F5F7F4FCE014396CE
:101090000E949D02CE0101960E94AE39BE016D5E96
:1010A0007F4FCE0107960E94483ABE01675E7F4F90
:1010B000CE010D960E94483AAE01495F5F4FBE01D6
:1010C000635F7F4FCE0101960E946E05BE016F5F88
:1010D0007F4F80E396E00E94313ACE0101960E9454
:1010E000AE39CE010D960E94AE39CE0107960E9410
:1010F000AE39CE0143960E94AE39CE0149960E9488
:10110000AE390E948307CE014F960E94AE39CE01C0
:1011100085960E94AE39AA960FB6F894DEBF0FBE30
:10112000CDBFDF91CF91FF90EF90DF90CF900895EA
:101130001F93CF93DF93CDB7DEB72D970FB6F894FB
:10114000DEBF0FBECDBF6FEF7AE0CE0101960E94E9
:10115000E90E8B819C8190933906809338068D81AE
:101160009E81AF81B88580933A0690933B06A09309
:101170003C06B0933D0689859A85AB85BC858093F6
:101180003E0690933F06A0934006B09341068D859E
:101190008093420686E396E00E94FE0B882309F4C2
:1011A00051C067E175E080E29EE00E945C381092D9
:1011B000D2061092D10611E086E396E00E949E0DC1
:1011C0008823D1F186E396E00E942F0C892BA1F3AE
:1011D00086E396E00E94380C8A3051F5112359F3CA
:1011E00086E396E00E942F0C892BC9F086E396E0F7
:1011F0000E94380C80934A062091D1063091D20685
:10120000203831056CF7A9014F5F5F4F5093D2062C
:101210004093D106F901EF5AF94F8083E1CF68E29C
:1012200075E080E29EE00E945C380E94E607C4CF31
:101230008D3011F210E0C0CF6FE375E080E29EE0E8
:101240000E945C382D960FB6F894DEBF0FBECDBF5E
:10125000DF91CF911F910895CF93DF9300D000D0FD
:10126000CDB7DEB769ED74E0CE0101960E941C3A5D
:101270000E949808CE0101960E94AE3926960FB6BC
:10128000F894DEBF0FBECDBFDF91CF910895CF930D
:10129000DF938AE59FE00E943934892B59F48FEF60
:1012A0009FEF9093F2068093F1069093EE06809361
:1012B000ED06D1C08AE59FE00E945334EC018C57C3
:1012C0009109039798F4D093EE06C093ED0610921F
:1012D000F2061092F10680910A02882339F04AE062
:1012E00050E0BE0180E29EE00E941A398091ED0636
:1012F0009091EE068E379105A1F58091F1069091BF
:10130000F20697FDA8C0CE37D10509F4A4C080919C
:101310000A02882369F04AE050E0BE0180E29EE0C4
:101320000E9413396DE572E080E29EE00E9433383E
:101330008091F1069091F206FC01EE0FFF1FED5037
:10134000F94FD183C08301969093F2068093F10602
:10135000089709F080C083EF96E0DF91CF910C945D
:1013600070028C37910509F043C08091F10690918D
:10137000F20697FD70C0CC37D10509F46CC0880F18
:10138000991FFC01ED50F94FD183C08380910A026F
:10139000882369F04AE050E0BE0180E29EE00E94AE
:1013A00013396DE572E080E29EE00E94333880914F
:1013B000F1069091F20601969093F2068093F10661
:1013C000089709F048C083EF96E00E943E0201961C
:1013D00039F06BE475E08AE59FE00E94333837C04E
:1013E0006DE475E08AE59FE0DF91CF910C9433388E
:1013F0008D37910581F58091F1069091F20697FD68
:101400002AC0CD37D10539F1880F991FFC01ED5065
:10141000F94FD183C08380910A02882369F04AE0A2
:1014200050E0BE0180E29EE00E9413396DE572E05B
:1014300080E29EE00E9433388091F1069091F2069E
:1014400001969093F2068093F106089721F4DF91BC
:10145000CF910C941B07DF91CF9108950E94F20267
:101460000E9447090C942C09EF92FF920F931F934F
:10147000CF93DF9300D000D0CDB7DEB726E040E0B9
:1014800052EC61E070E080E29EE00E943D3526E093
:1014900040E052EC61E070E08AE59FE00E943D355B
:1014A00026E040E855E260E070E08DEB9EE00E94AF
:1014B0003D358DEB9EE00E94CC2089E190E00E94BA
:1014C000E32064E670E080E090E00E94743C66E116
:1014D0008BEC9BE00E94292381110AC080910A02B3
:1014E000882331F06FE475E080E29EE00E945C3872
:1014F00080910A02882331F06BE675E080E29EE07D
:101500000E945C380E945A0410EAE12E1FE0F12E7E
:1015100000E010E020E63AEE40E050E06BE072E0E0
:1015200085E79BE00E94F80A8FEF9AE00E94E30DA6
:101530006DE775E080E29EE00E94333865E77BE06E
:10154000CE0101960E949F0BBE016F5F7F4F80E22C
:101550009EE00E946E3826960FB6F894DEBF0FBE4E
:10156000CDBFDF91CF911F910F91FF90EF90089524
:101570002091C50B222399F04FB7F8942091C50B09
:10158000213059F42DB32093C30B3DB32091C40BEC
:10159000209523232DBB4FBF02C04093C30B8CBDAE
:1015A0009DBD08958091C50B882361F09FB7F89485
:1015B0002091C50B8091C30B213019F48DBB9FBFC7
:1015C00008958FBF089544E050E0BC0181E090E0B1
:1015D0000C94551644E050E0BC0185E090E00C947A
:1015E000551644E050E0BC018FE090E00C94551695
:1015F0002F923F924F925F926F927F928F929F9223
:10160000AF92BF92CF92DF92EF92FF920F931F9310
:10161000CF93DF9300D000D0CDB7DEB76C011B01B4
:1016200029013A014701580180917D0B811107C0C2
:101630008AE59BE00E94431181E080937D0B87E166
:101640009BE0F6019783868387EA9BE00E94ED1575
:1016500080E590E00E94B80A46E050E0B10189E0E0
:1016600090E00E94551600E020E040E060E0CE01EE
:1016700001960E94B337CE0103960E94F10A0E94A0
:10168000D20A85017401A3019201B101F60186819C
:1016900097810E942B1D8C010197B9F580E590E0A0
:1016A0000E94B80AF60166817781CE0101960E94F8
:1016B0006518CE0103960E94F10AF60166817781D2
:1016C000CE0101960E947B18CE0103960E94E30A88
:1016D000F60166817781CE0101960E947018CE01D5
:1016E00003960E94EA0A0E94D20AF6016681778177
:1016F000CE0101960E9486188B819C81AD81BE81AE
:10170000F60182839383A483B583C80126960FB61E
:10171000F894DEBF0FBECDBFDF91CF911F910F9127
:10172000FF90EF90DF90CF90BF90AF909F908F9001
:101730007F906F905F904F903F902F900895CF9340
:10174000DF93EC010E94A93780E590E00E94B80A7F
:10175000BE016E5F7F4F44E050E08FE090E00E945A
:1017600087170E94D20ACE01DF91CF91089522E21D
:1017700036E0FC0131832083FB0142815381648187
:101780007581FC01428353836483758308950F93AD
:1017900000E020E040E060E08DE89BE00E94B3378D
:1017A00085E79BE00F910C94A93780E090E00895C5
:1017B000089581E086270895862F0895DC01ED9134
:1017C000FC91068CF78DE02D199591E089270895FD
:1017D000CF93DF931F92CDB7DEB76983DC01ED9124
:1017E000FC910280F381E02D41E050E0BE016F5F8B
:1017F0007F4F19950F90DF91CF91089521E0FC0163
:101800008485843009F420E0822F0895FC019485BA
:10181000FB018485981303C081E0943009F480E0D3
:1018200008950F931F93CF93DF938C01D42FC52F6F
:10183000FC018485843041F481E090E0F8019383D9
:10184000828380E090E006C00E948A13892BA1F376
:101850008D2F9C2FDF91CF911F910F910895FC0147
:101860008485843011F00C94811480E090E0089518
:10187000CF93DF931F92CDB7DEB741E050E0BE01BA
:101880006F5F7F4FFC0184850E9420141816190693
:101890001CF4898190E002C08FEF9FEF0F90DF91E1
:1018A000CF910895FC0184850C9420140F931F930D
:1018B000CF93DF931F92CDB7DEB78C01DC01ED91A2
:1018C000FC910084F185E02D1995892B51F0BE0122
:1018D0006F5F7F4FF80184850E94AC14898190E08E
:1018E00002C08FEF9FEF0F90DF91CF911F910F916B
:1018F0000895FC0184850C94DC14CF92DF92EF9262
:10190000FF920F931F93CF93DF93CDB7DEB7AF97BF
:101910000FB6F894DEBF0FBECDBF8C016B017A010C
:10192000CE0101960E94A937CE0109960E9443116B
:10193000CE018A960E94A93765E77BE0CE018496A6
:101940000E94B70BBE016C5D7F4FCE0101960E94D5
:101950006A1DAE01465D5F4FB601CE0101960E9441
:10196000D91F81309105C1F4D801ED91FC91068415
:10197000F785E02D82E296E09DA38CA38CA59DA522
:10198000AEA5BFA58EA39FA3A8A7B9A7A701BE0117
:101990006C5D7F4FC8011995AF960FB6F894DEBF06
:1019A0000FBECDBFDF91CF911F910F91FF90EF90B0
:1019B000DF90CF900895FC011382128288EE93E0AD
:1019C000A0E0B0E084839583A683B7838FE895E099
:1019D0009183808384E084870895FC0113821282BE
:1019E00088EE93E0A0E0B0E084839583A683B7837C
:1019F0008FE895E09183808364870895FC01848556
:101A0000843011F00C94311280E00895CF92DF926F
:101A1000FF920F931F93CF93DF93FC012485243013
:101A2000A9F56A018B01EC01F12C8F2D0E94311276
:101A3000811102C0FC8607C08B7F8831D9F3F394F3
:101A4000F4E0FF12F2CF8C85843001F120911B026B
:101A500030911C022F5F3F4F11F420E030EC3093A7
:101A60001C0220931B0240911B0250911C0220E09B
:101A700061E00E948312B8016E5F7F4FA6018C85E2
:101A80000E940A13811105C084E08C8780E090E0F9
:101A900011C0CE010E94FE0C873151F061E070E070
:101AA00080E090E00E94743CCE010E94FE0CEACFE0
:101AB00081E090E0DF91CF911F910F91FF90DF9037
:101AC000CF900895CF92DF92EF92FF92CF93DF9362
:101AD000EC018C85843059F10E9463130E94433CD1
:101AE0006B017C01CE010E94FE0C8823B1F061E005
:101AF00070E080E090E00E94743C0E94433CDC0176
:101B0000CB018C199D09AE09BF09883E9340A10500
:101B1000B10540F38C850E945812EC85F0E0EE0F81
:101B2000FF1FEB57F44F1182108284E08C87DF9106
:101B3000CF91FF90EF90DF90CF900895CF93DF93F8
:101B4000FC0124852430D1F0EC010E94FE0C84318C
:101B500081F0882371F0883161F08C3161F4E88183
:101B6000F9810084F185E02DCE01199521E0892BC2
:101B700019F420E001C021E0822F01C080E0DF9154
:101B8000CF9108950F9300E020E040E060E083E90A
:101B90009BE00E94B3370F910895CF93DF931F927C
:101BA000CDB7DEB76983DC01ED91FC910280F38152
:101BB000E02D41E050E0BE016F5F7F4F19950F901F
:101BC000DF91CF910895EF92FF920F931F93CF93E0
:101BD000DF93CDB7DEB72D970FB6F894DEBF0FBEFB
:101BE000CDBF7C0100E010E0602FCE0101960E9485
:101BF000ED0CCE0101960E94FE0C811116C0F7017A
:101C00004481558120E061E0802F0E948312802F63
:101C10000E94D712F70184819581000F111FF801EE
:101C2000EB57F44F9183808305C00F5F1F4F043043
:101C30001105D1F62D960FB6F894DEBF0FBECDBFBD
:101C4000DF91CF911F910F91FF90EF900895FC01CC
:101C50001382128285EB95E0918380837583648380
:101C60000895AF92BF92CF92DF92EF92FF921F93AF
:101C7000CF93DF93CDB7DEB72D970FB6F894DEBFC5
:101C80000FBECDBF7C0195E8A92E9BE0B92E10E0D8
:101C9000C12CD12C612FCE0101960E94ED0CD501F3
:101CA0002D913D915D01F7018481958128173907B8
:101CB000B1F4CE0101960E94FE0C843169F0CE0190
:101CC00001960E94FE0C8C3151F4CE0101960E94C7
:101CD0002F0C892B91F003C0CC24C394D12C1F5F0F
:101CE0001430C1F6CD2871F4D701ED91FC91008438
:101CF000F185E02DC701199505C0CE0101960E941E
:101D0000620DEDCF2D960FB6F894DEBF0FBECDBF9E
:101D1000DF91CF911F91FF90EF90DF90CF90BF9018
:101D2000AF9008956F927F928F929F92AF92BF92E1
:101D3000CF92DF92EF92FF921F93CF93DF93CDB7B5
:101D4000DEB72D970FB6F894DEBF0FBECDBF5C0196
:101D50004B013A010E94310E85E8C82E8BE0D82E47
:101D600010E0E12CF12C612FCE0101960E94ED0CC8
:101D7000F601219131916F01F50184819581281738
:101D8000390731F4CE0101960E94FE0C8731C1F073
:101D90001F5F143041F7C7012D960FB6F894DEBFD0
:101DA0000FBECDBFDF91CF911F91FF90EF90DF90DD
:101DB000CF90BF90AF909F908F907F906F9008953D
:101DC000A301B401CE0101960E94110CE80EF91E88
:101DD000DFCFAF92BF92CF92DF92FF920F931F930C
:101DE000CF93DF93CDB7DEB72D970FB6F894DEBF54
:101DF0000FBECDBF8C015B01CB010E94310E85E887
:101E0000C82E8BE0D82EF12C6F2DCE0101960E94AA
:101E1000ED0CF601219131916F01F50184819581DD
:101E20002817390751F5CE0101960E94FE0C873123
:101E300011F08C3111F5CE0101960E942F0C892BE7
:101E4000E1F08B819C81F801938382838D819E8157
:101E5000AF81B88584839583A683B78389859A8566
:101E6000AB85BC8580879187A287B3878FE895E093
:101E7000918380838D85848708C0F394F4E0FF12FA
:101E8000C3CF64E0C8010E94ED0CC8012D960FB6C7
:101E9000F894DEBF0FBECDBFDF91CF911F910F91A0
:101EA000FF90DF90CF90BF90AF9008950F9300E028
:101EB00020E040E060E089E99BE00E94B3370F91A9
:101EC0000895DC01ED91FC91048CF58DE02D1994C1
:101ED00022E236E0FC0131832083FB0140895189F5
:101EE00062897389FC0142835383648375830895F7
:101EF000FC01848995890895FC01818D928D089556
:101F0000CF93DF931F92CDB7DEB76983DC01ED91EC
:101F1000FC910280F381E02D41E050E0BE016F5F53
:101F20007F4F19950F90DF91CF9108950895CF932A
:101F3000DF93EC01888D843061F00E945812E88DA7
:101F4000F0E0EE0FFF1FEB57F44F1182108284E098
:101F5000888FDF91CF910895FC01178A168A6E5FF2
:101F60007F4F808D0C942515FC01808D0C946C1591
:101F7000CF93DF93EC019A018E899F89AB01BC015D
:101F8000888D0E94DD142E893F89280F391F3F8BD1
:101F90002E8BDF91CF9108950F931F93CF93DF93F3
:101FA0001F92CDB7DEB7FC01218D328D232B61F05E
:101FB0008C0141E050E0BE016F5F7F4F808D0E9439
:101FC0002014181619061CF08FEF9FEF08C0F801B7
:101FD000818D928D0197928F818F898190E00F90F2
:101FE000DF91CF911F910F910895CF93DF93FC0163
:101FF000218D328D2115310519F48FEF9FEF11C01E
:10200000EC014217530708F0A901888D0E942014A3
:102010001816190694F7298D3A8D281B390B3A8F1B
:10202000298FDF91CF910895CF93DF931F92CDB782
:10203000DEB7FC01218D328D232B49F0BE016F5F8D
:102040007F4F808D0E94AC14898190E002C08FEF99
:102050009FEF0F90DF91CF910895EF92FF921F9322
:10206000CF93DF93FC01208D243011F080E01CC061
:102070007B01EC0110E0812F0E943112811102C01E
:10208000188F05C08831E1F31F5F1430A1F7888DE8
:10209000843061F3FD86EC861A8E198E20E0A7014C
:1020A00062E00E94831281E0DF91CF911F91FF9047
:1020B000EF9008950F931F93CF93DF93CDB7DEB7C3
:1020C00028970FB6F894DEBF0FBECDBF8C01F80184
:1020D000818D928D892B49F0D801ED91FC9102847C
:1020E000F385E02DC8011995F2CF808D0E948114EF
:1020F0001816190654F548E050E0BE016F5F7F4F97
:10210000D80158968C910E9420149C01181619062B
:10211000D4F4BE016F5F7F4FC8010E960E94CF3787
:102120008D8190E0982F88272E81820F911DF801D4
:10213000958B848B2F8130E0322F22278885280FC2
:10214000311D328F218FC90102C080E090E02896B6
:102150000FB6F894DEBF0FBECDBFDF91CF911F91B8
:102160000F9108958F929F92AF92BF92CF92DF927C
:10217000EF92FF920F931F93CF93DF9300D000D085
:10218000CDB7DEB7FC01208D243009F068C06A01AC
:102190007B018C0153E0852E54E0952EA12CB12CAF
:1021A000C4010E948416811103C0F801A08E0AC0E8
:1021B0008831D9F3FFEFAF1ABF0A9394E4E0AE166B
:1021C000B10471F7F801808D843009F448C096E0BD
:1021D000E2E2F2E0DE01119601900D929A95E1F7AC
:1021E000F70193819F779C8394819D8395819E8342
:1021F000B7016E5F7F4F90E0982F882744E050E052
:10220000845F9B4F0E945516F801E08CF12CF4E09E
:10221000EF0EF11CFE2CEE246D2DC70140960E949E
:10222000CA156C2DC70141960E94CA15F801808D10
:1022300090E0982F882746E050E0BE016F5F7F4F07
:102240008A5F9B4F0E945516F801128E118E20E86E
:10225000A60162E0808D0E94831281E001C080E0CF
:1022600026960FB6F894DEBF0FBECDBFDF91CF919B
:102270001F910F91FF90EF90DF90CF90BF90AF90A4
:102280009F908F900895CF93DF93EC011B821A8269
:1022900088EE93E0A0E0B0E08C839D83AE83BF83A3
:1022A00083EC95E099838883CE010E960E94A9372E
:1022B00084E0888FDF91CF910895CF92DF92EF92E3
:1022C000FF920F931F93CF93DF93CDB7DEB7AF97F6
:1022D0000FB6F894DEBF0FBECDBF8C016B017A0143
:1022E000CE0101960E94A937CE0109960E944311A2
:1022F000CE018A960E94A93765E77BE0CE018496DD
:102300000E94B70BBE016C5D7F4FCE0101960E940B
:102310006A1DAE01465D5F4FB601CE0101960E9477
:10232000D91F81309105C1F4D801ED91FC91048849
:10233000F589E02D82E296E09DA38CA38CA59DA556
:10234000AEA5BFA58EA39FA3A8A7B9A7A701BE014D
:102350006C5D7F4FC8011995AF960FB6F894DEBF3C
:102360000FBECDBFDF91CF911F910F91FF90EF90E6
:10237000DF90CF9008950F9300E020E040E060E010
:102380008FE99BE00E94B3370F9108950F93FC01F2
:1023900030E080E092E1AAE7B0E0481759076A0709
:1023A0007B0740F4B695A795979587953F5F3630A4
:1023B000A1F737E091E09327222311F020E501C037
:1023C00020E7892F86950C70082B022B00839170D3
:1023D00091830F91089590E0982F882744E050E072
:1023E000845F9B4F0C94551690E00496982F882795
:1023F000860F971F0C94841662E070E00C94F41121
:102400009B0190E00496982F8827642F820F931FDA
:102410000C94CA15CF93DF93C82FD62F472F64E0B3
:1024200070E00E9400124D2F65E070E08C2FDF916C
:10243000CF910C940012462F62E070E00C940012D1
:10244000CF93DF93C82FD62F472F60E170E00E9413
:1024500000124D2F61E170E08C2FDF91CF910C9431
:1024600000120F931F93CF93DF9300D0CDB7DEB749
:10247000182F00E021E040E059E06DE370E0CE016C
:1024800001960E94C61189819A810E94B80A63E070
:1024900070E0812F0E94F4118B830E94D20A8B81FD
:1024A0000F900F900F90DF91CF911F910F91089592
:1024B0000F931F93CF93DF931F921F92CDB7DEB779
:1024C000182F00E021E040E059E06DE370E0CE011C
:1024D00001960E94C61189819A810E94B80A40E142
:1024E00050E0612F87EA9BE00E944E186FEF812F2A
:1024F0000E941B120E94D20A0F900F90DF91CF9181
:102500001F910F910895CF92DF92EF92FF920F9358
:102510001F93CF93DF931F921F92CDB7DEB79FEF2C
:10252000960F9530C0F5F22E6A01E62E182F0E9404
:10253000581200E021E040E059E06DE370E0CE0188
:1025400001960E94C61189819A810E94B80A4E2D77
:102550004F2960E070E0812F0E940012C114D10465
:1025600011F0B6010AC06091A50B7091A60B6F5FC8
:102570007F4F7093A60B6093A50B812F0E940A12C8
:1025800041E050E0612F87EA9BE00E944E180E94D4
:10259000D20A81E001C080E00F900F90DF91CF91CF
:1025A0001F910F91FF90EF90DF90CF9008950F93C0
:1025B0001F93CF93DF931F921F92CDB7DEB7182FD3
:1025C00000E021E040E059E06DE370E0CE010196CB
:1025D0000E94C61189819A810E94B80A63E070E066
:1025E000812F0E94F411833121F00E94D20A80E0F1
:1025F0000AC042E050E0612F87EA9BE00E944E183B
:102600000E94D20A81E00F900F90DF91CF911F912D
:102610000F910895CF92DF92EF92FF920F931F9345
:10262000CF93DF931F921F92CDB7DEB7FB0190814E
:102630009F3F51F491819F3F91F492819F3F79F4A4
:1026400093819F3F61F432C0911109C09181911132
:1026500006C09281911103C09381992341F14115E4
:10266000510521F16A017F01182F00E021E040E0CF
:1026700059E06DE370E0CE0101960E94C611898198
:102680009A810E94B80AB701812F0E94EB11B6010E
:10269000812F0E94201244E050E0612F87EA9BE0E6
:1026A0000E944E180E94D20A91E001C090E0892F4A
:1026B0000F900F90DF91CF911F910F91FF90EF90AE
:1026C000DF90CF9008950F931F93CF93DF931F92C6
:1026D0001F92CDB7DEB7182F00E021E040E059E0AF
:1026E0006DE370E0CE0101960E94C61189819A8146
:1026F0000E94B80A48E050E0612F87EA9BE00E9400
:102700004E180E94D20A0F900F90DF91CF911F9127
:102710000F910895AF92BF92CF92DF92EF92FF9206
:102720000F931F93CF93DF931F921F92CDB7DEB706
:10273000182F6B017A014130584018F0E12C88E0E5
:10274000F82E00E021E040E059E06DE370E0CE01BA
:1027500001960E94C61189819A810E94B80A612F50
:1027600087EA9BE00E94BC165C0163E070E0812F69
:102770000E94F411082F0E94D20A073111F00C3187
:1027800031F40E94E43BAE14BF04D8F202C0E12C45
:10279000F12C00E021E040E059E06DE370E0CE0173
:1027A00001960E94C61189819A810E94B80A9701F8
:1027B000A601612F87EA9BE00E947C1740E250E06F
:1027C000612F87EA9BE00E944E18812F0E94FC1126
:1027D00084FD22C063E070E0812F0E94F41181111A
:1027E00008C00E94D20A812F0E94581280E090E017
:1027F0001AC00E94D20A0E94E43B00E021E040E0BF
:1028000059E06DE370E0CE0101960E94C611898106
:102810009A810E94B80AD9CF60E1812F0E941B12D1
:102820000E94D20AC7010F900F90DF91CF911F91A4
:102830000F91FF90EF90DF90CF90BF90AF900895F1
:10284000AF92BF92CF92DF92EF92FF920F931F93BE
:10285000CF93DF931F921F92CDB7DEB7182F5B0186
:102860006A0100E021E040E059E06DE370E0CE0154
:1028700001960E94C61189819A810E94B80A612F2F
:1028800087EA9BE00E94F0167C010097A1F463E0C8
:1028900070E0812F0E94F411843119F1882309F12D
:1028A00021E030E08C3111F420E030E0EE24FF2410
:1028B000E21AF30A16C0C816D9060CF476011E14E3
:1028C0001F047CF400E09701A501612F87EA9BE0DB
:1028D0000E94FE1740E450E0612F87EA9BE00E94CF
:1028E0004E180E94D20AC7010F900F90DF91CF912E
:1028F0001F910F91FF90EF90DF90CF90BF90AF901E
:1029000008950F931F93CF93DF9300D01F92CDB7FD
:10291000DEB7182F00E021E040E059E06DE370E001
:10292000CE0101960E94C61189819A810E94B80A3F
:10293000612F87EA9BE00E94F0168B839C830E94A4
:10294000D20A8B819C810F900F900F900F90DF9196
:10295000CF911F910F910895EF92FF920F931F93C4
:10296000CF93DF931F921F92CDB7DEB7182F7B0155
:1029700000E021E040E059E06DE370E0CE01019617
:102980000E94C61189819A810E94B80A01E021E063
:1029900030E0A701612F87EA9BE00E94FE170E94AA
:1029A000D20A81E090E00F900F90DF91CF911F91BC
:1029B0000F91FF90EF90089508958F929F92AF929C
:1029C000BF92DF92EF92FF920F931F93CF93DF930B
:1029D0001F921F92CDB7DEB7D82E5B014A01790155
:1029E00000E021E040E059E06DE370E0CE010196A7
:1029F0000E94C61189819A810E94B80A6D2D87EACA
:102A00009BE00E94BC168E159F0530F46D2D87EA61
:102A10009BE00E94BC167C0187019401A5016D2DED
:102A200087EA9BE00E940C170E94D20AC7010F9010
:102A30000F90DF91CF911F910F91FF90EF90DF905A
:102A4000BF90AF909F908F900895CF92DF92EF92BA
:102A5000FF920F931F93CF93DF931F921F92CDB7D7
:102A6000DEB7FB019081911109C09181911106C0DF
:102A70009281911103C09381992309F14115510568
:102A8000F1F06A017F01182F00E021E040E059E0F9
:102A90006DE370E0CE0101960E94C61189819A8192
:102AA0000E94B80AB701812F0E94EB11B601812F55
:102AB0000E9420120E94D20A81E090E002C080E0D1
:102AC00090E00F900F90DF91CF911F910F91FF90A9
:102AD000EF90DF90CF9008950F931F93CF93DF93E4
:102AE0001F921F92CDB7DEB7182F00E021E040E023
:102AF00059E06DE370E0CE0101960E94C611898114
:102B00009A810E94B80A40E250E0612F87EA9BE078
:102B10000E944E18812F0E94FC1184FD21C0812F3C
:102B20000E94FC1183FF09C068E1812F0E941B12E3
:102B30000E94D20A80E090E01BC00E94D20A0E944C
:102B4000E43B00E021E040E059E06DE370E0CE01BD
:102B500001960E94C61189819A810E94B80ADACF33
:102B600060E1812F0E941B120E94D20A81E090E056
:102B70000F900F90DF91CF911F910F9108958EBD0F
:102B800000000DB407FEFDCF8EB508952C98089572
:102B90002C9A08951F93CF93DF931F921F92CDB766
:102BA000DEB7182F6A8399830E94C61580EF0E94B2
:102BB000BF159981892F0E94BF15812F0E94BF15D3
:102BC0006A81862F0E94BF150E94C81581E00F9070
:102BD0000F90DF91CF911F910895CF93DF93EC0178
:102BE0006CE271E080E090E00E94743C0E946620FC
:102BF000249A8091C50B882399F02FB7F89480917F
:102C0000C50B813059F48DB38093C30B9DB3809174
:102C1000C40B809589238DBB2FBF02C02093C30BAB
:102C200080E58CBD1DBC60E880E090E00E94CA1584
:102C300065E58BE190E00E94CA1565E58AE190E0C8
:102C40000E94CA158091C50B882351F09FB7F89454
:102C50002091C50B8091C30B213029F58DBB9FBFFF
:102C600080E090E49983888380E090E69987888764
:102C700080E098E49B838A8380E098E69B878A873C
:102C800080E090E59D838C8380E090E79D878C8732
:102C900080E098E59F838E8380E098E79F878E870A
:102CA000DF91CF9108958FBFDBCFCF92DF92EF926C
:102CB000FF920F931F93CF93DF93EC017A018B0167
:102CC0006C01C40ED51ECC15DD05A1F00E94C61501
:102CD00080EF0E94BF158D2F0E94BF158C2F0E9480
:102CE000BF152196F80181918F010E94BF150E94A6
:102CF000C815E9CFC701DF91CF911F910F91FF90C8
:102D0000EF90DF90CF9008951F93CF93DF931F92A2
:102D1000CDB7DEB7182F99830E94C6158FE00E94A9
:102D2000BF159981892F0E94BF15812F0E94BF1561
:102D300080E00E94BF1589830E94C81589810F9089
:102D4000DF91CF911F9108951F93CF93DF93182F99
:102D500060E270E00E94F411C82FD0E061E270E000
:102D6000812F0E94F411DC2FCC279E01282BC90152
:102D7000DF91CF911F910895FF920F931F93CF93EF
:102D8000DF93F62EC0E0D0E08F2D0E94A4168C01B8
:102D9000892B21F08F2D0E94A416EC01C017D107BA
:102DA00099F7CE01DF91CF911F910F91FF90089578
:102DB0001F93CF93DF93182F66E270E00E94F41107
:102DC000C82FD0E067E270E0812F0E94F411DC2F61
:102DD000CC279E01282BC901DF91CF911F91089527
:102DE000FF920F931F93CF93DF93F62EC0E0D0E0B6
:102DF0008F2D0E94D8168C01892B21F08F2D0E94D7
:102E0000D816EC01C017D10799F7CE01DF91CF9109
:102E10001F910F91FF9008956F927F928F929F92D2
:102E2000AF92BF92CF92DF92EF92FF920F931F93D8
:102E3000CF93DF931F92CDB7DEB7882E962E6A010F
:102E4000590164E270E0892D99830E94F411E82E03
:102E5000F12C65E270E0892D0E94F411FE2CEE2425
:102E6000E82A37016C0C7D1CA3015770E82C99816E
:102E7000F92EE90CF11CE90CF11CF701808191811C
:102E8000840F951F9A01200F311F2130384098F090
:102E900060E078E06B01C41AD50AA601B5010E9472
:102EA0005516A8014C195D09B5016C0D7D1DF70182
:102EB0008081918102C0A801B5010E945516060DBE
:102EC000171D412F64E270E0892D0E940012402FEF
:102ED00065E270E0892D0F90DF91CF911F910F91E6
:102EE000FF90EF90DF90CF90BF90AF909F908F902A
:102EF0007F906F900C9400120F931F9389019A0199
:102F000040E050E00E940C171F910F910895CF925E
:102F1000DF92EF92FF920F931F93CF93DF93EC0119
:102F20007A018B016C01C40ED51ECC15DD05A9F00C
:102F30000E94C6158FE00E94BF158D2F0E94BF15FD
:102F40008C2F0E94BF15219680E00E94BF15F801CA
:102F500081938F010E94C815E8CFC701DF91CF91FF
:102F60001F910F91FF90EF90DF90CF900895AF9257
:102F7000BF92CF92DF92EF92FF920F931F93CF9366
:102F8000DF931F921F92CDB7DEB75A834983590151
:102F900029813A8137706C01C60ED11CC60ED11C36
:102FA000F60180859185820F931FA801420F531F60
:102FB0004130584098F0E0E0F8E07F01E21AF30A6F
:102FC000A701B5010E948717A8014E195F09B50135
:102FD0006E0D7F1DF6018085918502C0A801B501A7
:102FE0000F900F90DF91CF911F910F91FF90EF9075
:102FF000DF90CF90BF90AF900C9487178F929F92E5
:10300000AF92BF92CF92DF92EF92FF920F931F93F6
:10301000CF93DF936C01962E5A017901802E68E2DE
:1030200070E0892D0E94F411C82FD0E069E270E0B1
:10303000892D0E94F411DC2FCC27C82B8701950124
:10304000AE01692DC6010E94B71781101AC0CE0DBE
:10305000DF1D4D2F68E270E0892D0E9400124C2F79
:1030600069E270E0892DDF91CF911F910F91FF9060
:10307000EF90DF90CF90BF90AF909F908F900C9487
:103080000012DF91CF911F910F91FF90EF90DF9091
:10309000CF90BF90AF909F908F900895CF93C62F01
:1030A00061E070E08C2F0E94001261E070E08C2FD4
:1030B0000E94F4118111F9CFCF9108950E9624E169
:1030C000FC0111922A95E9F70895CF93DF93EC0163
:1030D000625F7F4F0E94BF37CE01DF91CF9108958D
:1030E000CF93DF93EC016E5E7F4F0E94BF37CE011E
:1030F000DF91CF910895CF93DF93EC016A5E7F4F0C
:103100000E94BF37CE01DF91CF910895CF93DF9317
:10311000EC01625E7F4F0E94BF37CE01DF91CF91FD
:10312000089580E3FB0180833296842F82958F700F
:1031300090E1899F401911244A3014F4405D01C088
:10314000495C4293482F8111F0CF08950F9300E01E
:1031500020E040E060E087EB9BE00E94B3370F91F6
:1031600008957F928F929F92AF92BF92CF92DF92FB
:10317000EF92FF920F931F93CF93DF93CDB7DEB7FC
:10318000AC970FB6F894DEBF0FBECDBF7C01762E94
:10319000942E852E20E2B22ECE0101966C01FC0108
:1031A0002B2D11922A95E9F70FEF2FEF4FEF6FEFCD
:1031B00086960E94B33782E296E09AA389A389A5F6
:1031C0009AA5ABA5BCA58BA39CA3ADA3BEA3870169
:1031D0000D5B1F4F43E450E0BE016F5D7F4FC801A0
:1031E0000E94AC0F019609F4BFC081E089838A83F5
:1031F00086E0A82EAB821C82F701648175818681EE
:1032000097810E946B3E6D837E838F83988789862A
:103210009A8680E890E09C878B874CE150E0B6016D
:10322000C8010E94B80FF6012B2D11922A95E9F7DB
:10323000470188E0880E911CF401D60101900D929F
:10324000AA94E1F740E150E0B601C8010E94B80F2E
:10325000F6011192BA94E9F796E0A92EB12C40E25A
:1032600050E0B601C8010E94B80FF1E0AF1AB108F2
:10327000B1F783E6898392E89A8393E59B838C83F5
:1032800085E38D8381E08E837F829DE3988797E03D
:1032900099878A8786E0F401DE011B9601900D92E2
:1032A0008A95E1F78CE0898B8A8B67EE75E0CE0119
:1032B00043960E944D41F7014385BE01675E7F4FF3
:1032C000C7010E949118F7014485BE01655E7F4FDA
:1032D000C7010E949118F7014585BE01635E7F4FCB
:1032E000C7010E9491184EE150E0B601C8010E944A
:1032F000B80FF3E07F121EC082E3898384E08A83E3
:10330000F70196859B8397859C8390899D839189FE
:103310009E8396E39F838887828D8987838D8A87A2
:10332000848D8B87858D8C874CE050E0B601C80179
:103330000E94B80F87E3898386E08A8391E09B83AC
:1033400093E09C838D838FE08E838AE38F838BE36E
:1033500088878FEF898749E050E0B601C8010E9455
:10336000B80FC8010E94B40FAC960FB6F894DEBF38
:103370000FBECDBFDF91CF911F910F91FF90EF90C6
:10338000DF90CF90BF90AF909F908F907F900895E7
:103390002F923F924F925F926F927F928F929F9265
:1033A000AF92BF92DF92EF92FF920F931F93CF9352
:1033B000DF93CDB7DEB7E4970FB6F894DEBF0FBE4C
:1033C000CDBF7C011A012B0139010E94433C4B0106
:1033D0005C0187010D5B1F4FC8010E945A1018162F
:1033E0001906A4F00E94433CDC01CB01881999091D
:1033F000AA09BB09281639064A065B06F0F062E303
:1034000070E080E090E00E94743CE6CF42E250E041
:10341000BE016F5F7F4FC8010E94F50F8981823026
:1034200031F4F801848995898334910541F0D12CD8
:10343000C8010E94960F8D2D5FC18FEF5DC16D8118
:103440007E818F8198850E946B3E4B015C01F30168
:10345000608371838283938346E050E0B701685FA5
:103460007F4FCE014D960E942341892B99F4F7019D
:1034700080819181A281B38188169906AA06BB0634
:1034800048F084819581A681B78188159905AA05A0
:10349000BB0528F4C8010E94960F80E02DC18989E0
:1034A0009A89AB89BC89F70186879787A08BB18BF6
:1034B0008EECA82EB12CC8010E94CC0FF1E0AF1AFF
:1034C000B108C9F7D12CC70182969AA789A7F7013D
:1034D000B696FCA7EBA708969EA78DA73C974F0131
:1034E000899698AB8FA73897FAABE9AB1701F6E14D
:1034F0002F0E311CC5979CAB8BABC8010E947C0F73
:10350000181619060CF094CFC8010E94CC0F833313
:10351000910509F4CBC0FCF481309105C9F11CF48C
:10352000892B59F3DDC083309105D1F1069709F05D
:10353000D7C0C8010E94CC0F5C0144E050E06BA9E9
:103540007CA9C8010E94F50F412C512CBB24F4E04A
:10355000AF1AB10840C08A33910509F47BC03CF42E
:103560008533910569F0C69709F440C0B9C08B3323
:10357000910509F485C08F3F910509F4BECFB0C015
:10358000C8010E94CC0FC8010E94CC0FD82EB5CF25
:10359000C8010E94CC0F44E050E069A97AA93AC062
:1035A000C8010E94CC0F5C0144E050E0B101C801A9
:1035B0000E94F50F412C512CBB2494E0A91AB108AC
:1035C0004A145B040CF099CFC8010E94CC0FEFEFB6
:1035D0004E1A5E0AF5CF4A145B040CF08ECFC80178
:1035E0000E94CC0F8FEF481A580AF5CFC8010E94ED
:1035F000CC0FB82EF701828D811110C0838D8111FF
:103600000DC0848D81110AC0858D811107C044E0F1
:1036100050E0B401C8010E94F50F6FCFEFA5F8A9E3
:103620004080518062807380B401CE0183960E94F5
:10363000BF378DA19EA1AFA1B8A584159505A6059C
:10364000B70529F3BB2009F458CFC8010E94CC0F5D
:10365000BA94F8CFC8010E94CC0F44E050E06BA5AB
:103660007CA5C8010E94F50FF70166A177A180A58E
:1036700091A50E946B3E66A377A380A791A73DCF3B
:10368000C8010E94CC0F44E050E06DA57EA5C801A2
:103690000E94F50FF70162A573A584A595A50E9468
:1036A0006B3E62A773A784A795A727CFC8010E9486
:1036B000CC0F44E050E069A57AA5C8010E94F50F3F
:1036C000F70162A173A184A195A10E946B3E62A340
:1036D00073A384A395A366A777A780AB91AB0DCF07
:1036E000C8010E94CC0FB82EBB2009F406CFC80138
:1036F0000E94CC0FBA94F8CFE4960FB6F894DEBFD0
:103700000FBECDBFDF91CF911F910F91FF90EF9032
:10371000DF90BF90AF909F908F907F906F905F9061
:103720004F903F902F9008952F923F924F925F922B
:103730006F927F928F929F92AF92BF92CF92DF92C1
:10374000EF92FF920F931F93CF93DF93CDB7DEB726
:1037500027970FB6F894DEBF0FBECDBF8C0120EDCA
:1037600037E040E050E061E070E080E090E00E94EF
:103770008739D80114966D937D938D939C931797F9
:10378000F80160837183828393835801F3E4AF0E61
:10379000B11CC5010E94970F64E470E0C5010E944E
:1037A0002D10882309F43CC10E94433C2B013C01AD
:1037B000812C912C1D82C8018E5B9F4F9F838E832D
:1037C00043E0342E58EEC52E53E0D52EE12CF12CDB
:1037D00062E0262EAE81BF818C91833009F407C14F
:1037E000811120C0F80184819581A681B78101965D
:1037F000A11DB11D84839583A683B7830E94433C9A
:103800006419750986099709A70196010E94223E4D
:10381000A90161E0C8010E94B11881E0AE81BF81B9
:103820008C93C6C08430F9F4F80184819581A68117
:10383000B7810196A11DB11D84839583A683B783AB
:103840000E94433C6419750986099709A7019601EE
:103850000E94223EA90163E0C8010E94B118AE8116
:10386000BF812C92A5C0813061F5F80142AD53AD06
:1038700064AD75AD9E012F5F3F4FC8010E94C8190E
:103880008D83823009F094C089819A81AB81BC819B
:10389000F80184839583A683B7830E94433C64190F
:1038A000750986099709A70196010E94223EA90180
:1038B00063E0C8010E94B118ED81AE81BF81EC9335
:1038C0007EC0823009F074C0D801DA964D915D91C6
:1038D0006D917C91DD979E012F5F3F4FC8010E9443
:1038E000C8198D83853009F05CC0EE81FF8130827C
:1038F000F80182A193A1A4A1B5A1892B8A2B8B2BBE
:1039000041F484E893E0A0E0B0E082A393A3A4A3F1
:10391000B5A3F80186A197A1A0A5B1A5892B8A2BF3
:103920008B2B61F482A193A1A4A1B5A1B695A79513
:103930009795879586A397A3A0A7B1A7F80182A51D
:1039400093A5A4A5B5A5892B8A2B8B2BA9F482A1BD
:1039500093A1A4A1B5A1AC01BD0123E07695679523
:10396000579547952A95D1F7841B950BA60BB70B56
:1039700082A793A7A4A7B5A7F80186A197A1A0A5A0
:10398000B1A586A797A7A0ABB1AB82A593A5A4A527
:10399000B5A582AB93ABA4ABB5AB88248394912C33
:1039A0000EC0FD81F63021F4AE81BF811C9207C0AC
:1039B000BD81BF3F21F4EE81FF8110821D82F1E0C5
:1039C0008F16910409F406CF0E94433CDC01CB0121
:1039D00084199509A609B709F80126A937A940ADA8
:1039E00051AD281739074A075B0708F0F3CEC50128
:1039F0000E94970FF80184819581A681B781019675
:103A0000A11DB11D84839583A683B7830E94433C87
:103A1000F801FE966083718382839383C40102C0A0
:103A200080E090E027960FB6F894DEBF0FBECDBFC2
:103A3000DF91CF911F910F91FF90EF90DF90CF908A
:103A4000BF90AF909F908F907F906F905F904F90BE
:103A50003F902F900895CF92DF92EF92FF920F93B5
:103A60001F93CF93DF93EC016B011AA21BA21CA240
:103A70001DA21EA21FA218A619A61AA61BA61CA646
:103A80001DA62EAB3FAB48AF59AFEAAEFBAE0CAFB5
:103A90001DAF8C01085F1F4F86E0F80111928A95D7
:103AA000E9F7CE010E945E1886E0F601D801019088
:103AB0000D928A95E1F7FE01EE5BFF4F1082CE0179
:103AC000DF91CF911F910F91FF90EF90DF90CF90FA
:103AD0000C94941BFB014281538164817581FC012C
:103AE0004283538364837583178216820895CF932C
:103AF000DF93FB0120E080E090E0AAE031913323E6
:103B000001F160ED630F6A3080F4A89FB001A99FB6
:103B1000700D1124CB01C097830F911D37FD9A952D
:103B20008F3F910559F350F313C03E3289F423308F
:103B300079F0EA01C20FD11D8A832F5F80E090E007
:103B4000DDCF233029F4FA01858381E090E002C0C3
:103B500080E090E0DF91CF9108950F9300E020E0A6
:103B600040E060E08DEB9BE00E94B3370F91089539
:103B70008F929F92AF92BF92CF92DF92EF92FF927D
:103B80000F931F93CF93DF9300D01F921F92CDB757
:103B9000DEB78C016B010E94433CF801778366839A
:103BA0007627672776277A836983085F1F4F42E06D
:103BB00050E0BE016F5F7F4FC8010E94B80F81E0E7
:103BC00090E09C838B8342E050E0BE016D5F7F4FAD
:103BD000C8010E94B80F80E091E09C838B8342E093
:103BE00050E0BE016D5F7F4FC8010E94B80F1C827C
:103BF0001B8242E050E0BE016D5F7F4FC8010E9412
:103C0000B80F42E050E0BE016D5F7F4FC8010E94D7
:103C1000B80F42E050E0BE016D5F7F4FC8010E94C7
:103C2000B80F5601F5018081882329F1C6017C0176
:103C3000FC0120810196211116C0570147018C1803
:103C40009D081814190494F48D8241E050E0BE01DF
:103C50006B5F7F4FC8010E94B80FA401B601C80175
:103C60000E94B80F03C02E3211F7E7CF6701FFEFB4
:103C7000CF1ADF0AD7CF1D8241E050E0BE016B5F53
:103C80007F4FC8010E94B80FE12CFF24F394FC82FF
:103C9000EB8242E050E0BE016D5F7F4FC8010E94A1
:103CA000B80FFC82EB8242E050E0BE016D5F7F4FB7
:103CB000C8010E94B80F81E090E00F900F900F9024
:103CC0000F900F90DF91CF911F910F91FF90EF9088
:103CD000DF90CF90BF90AF909F908F9008954F92BC
:103CE0005F926F927F928F929F92AF92BF92CF928C
:103CF000DF92EF92FF920F931F93CF93DF93CDB795
:103D0000DEB765970FB6F894DEBF0FBECDBF7C015E
:103D10005B016A010E94433C2B013C018701085F63
:103D20001F4F4501A12CB12CC8010E945A10181632
:103D30001906A4F00E94433CDC01CB0184199509CB
:103D4000A609B70988169906AA06BB06D0F062E351
:103D500070E080E090E00E94743CE6CFF701428181
:103D6000538164817581808D918DA28DB38D4817AB
:103D700059076A077B0741F4848D958DC59721F417
:103D800006C02FEF3FEFFDC02EEF3FEFFAC0C80196
:103D90000E947C0F0C97ECF04CE050E0BE016F5F8E
:103DA0007F4FC8010E94F50F6C818B810E94A93959
:103DB0009A8B898BF701E680F7806A8189810E945E
:103DC000A939E816F90641F489899A8997FF04C050
:103DD00009C02DEF3FEFD5C0C8010E94960F2CEF10
:103DE0003FEFCFC08F709270892B31F0C8010E94D5
:103DF000960F2BEF3FEFC5C068858F810E94A939D0
:103E00005C01892B31F4C8010E94960F2AEF3FEF25
:103E1000B8C0E12CF12C6E818D810E94A939E81681
:103E2000F90640F541E050E0BE01635F7F4FC801F5
:103E30000E94F50F8D85811113C08D858111F2CF00
:103E4000C8010E94CC0FC8010E94CC0FC8010E947B
:103E5000CC0FC8010E94CC0FFFEFEF1AFF0ADBCF97
:103E60008D859FEF980F9D87882339F3C8010E94A5
:103E7000CC0FF6CFE12CF12C41E050E0BE016D5E9D
:103E80007F4FC8010E94F50F8B89982F907C61F4B9
:103E9000882371F08B899FEF980F9B8B882341F0CB
:103EA000C8010E94CC0FF6CFC8010E94CC0F1B8A1C
:103EB0008B898111E1CF42E050E0BE01615F7F4F0D
:103EC000C8010E94F50F42E050E0BE01635F7F4FE2
:103ED000C8010E94F50FC8010E94CC0FC8010E94C2
:103EE000CC0FC8010E94CC0FC8010E94CC0F42E049
:103EF00050E0BE016F5E7F4FC8010E94F50F8F85B5
:103F000098898115914001F52D853E85322723271B
:103F1000322721303105C1F489899A89811594406D
:103F200031F0C8010E94960F27EF3FEF2AC0B6017B
:103F30006E5F7F4F44E050E0C8012C8B3D8B0E94A8
:103F4000F50F2C893D891DC0812C912C89899A8976
:103F50009827892798278816990638F4C8010E945F
:103F6000CC0F8FEF881A980AF1CFEFEFEE1AFE0A06
:103F7000EA14FB0409F080CFC8010E94960F26EFD7
:103F80003FEFC90165960FB6F894DEBF0FBECDBFF7
:103F9000DF91CF911F910F91FF90EF90DF90CF9025
:103FA000BF90AF909F908F907F906F905F904F9059
:103FB00008958F929F92AF92BF92CF92DF92EF922D
:103FC000FF920F931F93CF93DF9300D000D0CDB714
:103FD000DEB77C014B015A010E94771D8C01892BB1
:103FE00009F05BC0F7014281538164817581809142
:103FF000BF0B9091C00BA091C10BB091C20B4817A1
:1040000059076A077B0709F44BC00E94433C6701CC
:10401000F8E0CF0ED11C6F7077277C5FC6010E943D
:104020002D10813009F03EC082E296E09A838983A8
:10403000F70182819381A481B5818B839C83AD83B9
:10404000BE8345E350E0BE016F5F7F4FC6010E9413
:10405000AC0F892B19F400E010E01BC0B401C701BC
:104060000E94B81D892BB9F3C6010E94B40F892B99
:1040700091F383E0882E912CA50168E873E1C701D4
:104080000E946F1E8C01F1E08F1A910811F00196C9
:1040900099F3C6010E94970F05C001E010E002C02D
:1040A0000EEF1FEFC80126960FB6F894DEBF0FBEC5
:1040B000CDBFDF91CF911F910F91FF90EF90DF90D7
:1040C000CF90BF90AF909F908F900895CF93CFB730
:1040D000F8948091C60B811127C0E1E4F3E084914C
:1040E000EBEFF2E09491E82FF0E0EE0FFF1FEA57BC
:1040F000FC4FA591B491EC91E92321F461E085E3B3
:104100000E94C93D61E085E30E948D3D8CB58061D0
:104110008CBD8CB580648CBD61E084E30E948D3DD4
:1041200061E083E30E948D3D8091C60B8F5F809399
:10413000C60BCFBFCF910895CF93DF93C1E1D2E0FB
:104140008091C70B9091C80B6991DC01ED91FC91B6
:104150000190F081E02D1995B2E0CB31DB0781F7BA
:10416000DF91CF910895FC013196079620E030E071
:104170004191240F311DE817F907D1F788279927B6
:10418000821B930B089581E192E00E94B320E1E14C
:10419000F2E09783808708959093C80B8093C70BB4
:1041A0008CE990E29093CA0B8093C90B0895E1E1EA
:1041B000F2E08383758366830E94C320E091C90B7C
:1041C000F091CA0B1994BC0186E00C94D720BC0175
:1041D00082E10C94D720CF93DF931F92CDB7DEB747
:1041E0006983DC01ED91FC910280F381E02D41E0D7
:1041F00050E0BE016F5F7F4F19950F90DF91CF9117
:104200000895CF93DF93EC01898D9A8D009739F44F
:1042100081E090E09B838A8380E090E00BC0FC010A
:10422000138212820E94DE2DE98DFA8D2281338164
:10423000232B71F7DF91CF910895FC01818D928D31
:10424000009711F00C94322B0895CF93DF931F92B7
:10425000CDB7DEB741E050E0BE016F5F7F4F0E94F7
:104260004E29019719F4898190E002C08FEF9FEFEA
:104270000F90DF91CF910895FC01818D928D009771
:1042800011F00C9425218FEF9FEF08950F931F934A
:10429000CF93DF93FC01818D928D0097B9F0EF01F0
:1042A0000E9425218C010F3F8FEF180791F0898D17
:1042B0009A8DFC014285538564857585415051096D
:1042C000610971090E949C2AC80105C080E090E044
:1042D00002C08FEF9FEFDF91CF911F910F91089553
:1042E000EF92FF920F931F93CF93DF93EC017B012B
:1042F0008A011B821A8288EE93E0A0E0B0E08C83F2
:104300009D83AE83BF8382EF95E0998388838DE19F
:1043100090E00E948C3E9A8F898F009779F02DE172
:10432000F701DC0101900D922A95E1F74CE050E095
:10433000B801CE010C960E945441188EDF91CF91A6
:104340001F910F91FF90EF900895FC01138212824C
:1043500088EE93E0A0E0B0E084839583A683B783E2
:1043600082EF95E091838083128E118E14860895DA
:10437000FC01818D928D009729F00E949C2A91E08A
:10438000811101C090E0892F0895DC015996ED91CB
:10439000FC915A97309729F06285738584859585BD
:1043A00008956FEF7FEFCB010895DC015996ED91F1
:1043B000FC915A97309729F0638974898589968989
:1043C000089560E070E0CB010895CF92DF92EF9204
:1043D000FF92CF93DF93FC01218D328D232BD9F0F7
:1043E000EC010E94D5216B017C01CE010E94C52108
:1043F000A7019601261B370B480B590BDA01C9019F
:10440000811530E89307A105B10538F08FEF9FE7DC
:10441000A0E0B0E002C080E090E0DF91CF91FF909B
:10442000EF90DF90CF900895CF93DF93EC01898DCB
:104430009A8D009741F00E94792B898D9A8D0E9468
:10444000213F1A8E198EDF91CF910895DC01599684
:10445000ED91FC915A97309721F081E0958191116F
:1044600001C080E00895442339F00E94B72D91E007
:10447000811103C090E001C091E0892F08950F934E
:104480001F93CF93DF93EC018B0141E00E94223315
:10449000811109C040E0B801CE01DF91CF911F9199
:1044A0000F910C94223381E0DF91CF911F910F91F6
:1044B00008950F931F93CF93DF93DA01EB012881C7
:1044C0003981FC01E20FF31F40814F3211F42F5F5D
:1044D0003F4F8D01E0E0F0E0AC01420F531FEA01D5
:1044E00058815F3259F0552349F031962F5F3F4F85
:1044F000E80159938E01EC30F10571F7EA0FFB1FCB
:104500001082FC01E20FF31F40814F3211F42F5F44
:104510003F4FFB0131832083FC01E20FF31F81E059
:104520009081911101C080E0DF91CF911F910F9197
:1045300008954F925F926F927F928F929F92AF9267
:10454000BF92CF92DF92EF92FF920F931F93CF9380
:10455000DF93CDB7DEB7C954D1090FB6F894DEBFEB
:104560000FBECDBF5C016B013A01490119A218A22F
:1045700084E096E09F8F8E8F1BA21C821B829A8301
:1045800089831E822A961FAE1EAE2A978B017E015A
:104590008EE1E80EF11C44244394AE01455C5F4F6C
:1045A000BE01685B7F4FC5010E945922582E482FDB
:1045B00044259401BE01655C7F4FC801F301199544
:1045C000811108C00C151D0519F0C8010E94792B36
:1045D00080E027C05520B9F021E0AE01455C5F4F77
:1045E000B801C7010E94AD2C582E0C151D0599F07D
:1045F000C8010E94792B552059F3902F812F8701F4
:10460000E92EF82ECACF0C151D0519F0C8010E941D
:10461000792B81E006C08823D9F28E010F5F1F4FEE
:10462000ECCFC75BDF4F0FB6F894DEBF0FBECDBF38
:10463000DF91CF911F910F91FF90EF90DF90CF907E
:10464000BF90AF909F908F907F906F905F904F90B2
:1046500008950F931F93CF93DF93EC01462F61E0F2
:104660000E94F725882389F08E01045F1F4FBE0149
:10467000C8010E943F22882341F0B801CE018A96EA
:104680000E94FD2891E0811101C090E0892FDF9107
:10469000CF911F910F910895FC01DB0112968D912E
:1046A0009C9113979383828384E096E09183808327
:1046B00014968C911497848315968C911597858305
:1046C00016964D915D916D917C9119974683578314
:1046D000608771871A964D915D916D917C911D97C0
:1046E00042875387648775871E964D915D916D91C2
:1046F0007C91519746875787608B718B52968C912E
:104700005297828B53964D915D916D917C91569706
:10471000438B548B658B768B57964D915D916D9144
:104720007C915A97478B508F618F728F5B968D91DA
:104730009C915C97948F838F08954F925F926F92B4
:104740007F928F929F92AF92BF92CF92DF92EF9221
:10475000FF920F931F93CF93DF93CDB7DEB7C7546C
:10476000D1090FB6F894DEBF0FBECDBF6C015A0160
:104770004901665D7F4F7E018EE1E80EF11CC701A5
:104780000E944C231C821B8284E096E09A838983DA
:104790001E828501FE0131963F0127016FE270E024
:1047A000C8010E9439410097D9F1F80120812F32C8
:1047B00019F40F5F1F4FF2CF801B8D3008F08CE093
:1047C000E82EF12CA701B801CE01CB960E945441EE
:1047D000EBE3F0E0EC0FFD1FEE0DFF1D1082C301B7
:1047E0000E94792B21E0AE01455C5F4FB201C3010D
:1047F0000E94AD2C811109C0F6011382128284E05F
:1048000096E091838083158214C00E0D1F1DC20196
:104810000E94792B942D852D2301692E782EBECFF1
:104820000A191B09F40111830083B201C6010E9419
:104830004C23C601C95BDF4F0FB6F894DEBF0FBE35
:10484000CDBFDF91CF911F910F91FF90EF90DF903F
:10485000CF90BF90AF909F908F907F906F905F9020
:104860004F900895AF92BF92CF92DF92FF920F9335
:104870001F93CF93DF93CDB7DEB7C955D1090FB6DC
:10488000F894DEBF0FBECDBF6C015B018A01F22E32
:104890009E01285A3F4FCE01CB960E949D236A96D7
:1048A0008EAD9FAD6A97080F191FF80180818111A5
:1048B0000AC0BE01655C7F4FCE0101960E944C2369
:1048C0004CE153E041C019A218A284E096E09F8F0A
:1048D0008E8F1BA221968FAD2197811104C0C60136
:1048E0000E94A52137C08250823060F4B501665D18
:1048F0007F4F2F2DA801CE014E960E94AD2C811125
:1049000010C0EDCF2F2DA801BE01655C7F4FCE01F9
:104910004E960E94AD2C882311F3CE01CB960E94B7
:10492000792B9F2D967041F049A95AA96BA97CA9B2
:10493000CE014E960E949C2ABE01625E7F4FCE0140
:1049400001960E944C23A801BE016F5F7F4FC601F4
:104950000E947021C601C75ADF4F0FB6F894DEBF20
:104960000FBECDBFDF91CF911F910F91FF90DF90D0
:10497000CF90BF90AF900895FB01BC01665D7F4F63
:1049800020E030E043E352E2CF010C949922EBECBB
:10499000FBE0158216821186138682E090E0A0E08B
:1049A000B0E084879587A687B78713A215A614A6BB
:1049B00084E096E093A782A717A608958FEF0C9442
:1049C000BF1561E0FC0184810E94C93D8091140CF7
:1049D000882321F01092140C0C94D20A0895CF93DE
:1049E000DF93EC018091140C811109C081E0809368
:1049F000140C8091150C9091160C0E94B80A60E07E
:104A00008C81DF91CF910C94C93DCF93DF93EC0162
:104A10008E81882389F08F8198859C012F5F3F4F7D
:104A200038872F838230924018F40E94DE24F3CF1F
:104A3000CE010E94E1241E82DF91CF9108950F9351
:104A4000CF93DF931F921F92CDB7DEB7673028F068
:104A500026E1FC01258380E047C06230F9F058F47C
:104A60006623A9F0613079F500E021E040E059E0EB
:104A70006DE370E02EC06430F9F0B8F0653019F5E0
:104A800000E021E040E950ED63E070E022C000E08A
:104A900021E040E458E76DE771E01BC000E021E051
:104AA00040E854E86EE170E014C000E021E040E42A
:104AB00052E46FE070E00DC000E021E040E251EA16
:104AC00067E070E006C000E021E048E458EE61E0F5
:104AD00070E0CE0101960E94C61189819A8190935F
:104AE000160C8093150C81E00F900F90DF91CF9101
:104AF0000F9108950F931F93CF93DF93EB010E94C3
:104B0000433C8B010E94DE248F3F49F00E94433CCE
:104B1000601B710B6C177D07A8F380E001C081E07A
:104B2000DF91CF911F910F910895CF92DF92FF9265
:104B30000F931F93CF93DF9300D01F92CDB7DEB7B3
:104B40006C01F62E29833A834B835C830E940525F2
:104B5000C6010E94EF246CE271E0C6010E947A2532
:104B60008F2D80640E94BF1508E110E05C814B81AD
:104B70003A812981DA01C901002E04C0B695A795B2
:104B8000979587950A94D2F729833A834B835C8360
:104B90000E94BF150850110929813A814B815C811F
:104BA000083F8FEF180731F7FF2029F0E8E0FE12E9
:104BB00004C087E803C085E901C08FEF0E94BF15DC
:104BC00010E00E94DE24F601828787FF04C01F3FA9
:104BD00011F01F5FF6CF0F900F900F900F90DF91A5
:104BE000CF911F910F91FF90DF90CF9008957F920A
:104BF0008F929F92AF92BF92CF92DF92EF92FF92ED
:104C00000F931F93CF93DF931F921F92CDB7DEB701
:104C10007C01762EFC011386118616821582448350
:104C20000E94433C6B0161E0F70184810E948D3D4D
:104C300061E0F70184810E94C93D0E94662000E086
:104C400021E040E950ED63E070E0CE0101960E9462
:104C5000C61189819A819093160C8093150C0E943D
:104C6000B80A1AE08FEF0E94BF151150D9F70E94C1
:104C7000D20AC7010E94EF2420E030E0A90160E0E1
:104C8000C7010E949525082FF7018287813049F0DE
:104C90000E94433C6C197D09613D774068F381E0D7
:104CA0004FC02AEA31E040E050E068E0C7010E94CE
:104CB000952582FF03C0F70103870EC004E00E9420
:104CC000DE24F70182870150D1F78A3A11F082E0A1
:104CD00038C082E0F7018387F7018385823021F0B5
:104CE000812C912C540105C0812C912CA12C80E4A5
:104CF000B82E20E030E0A90167E3C7010E949525A6
:104D0000A501940169E2C7010E949525F7018287F8
:104D1000882349F00E94433C6C197D09613D77402E
:104D200040F388E00DC083858230F1F420E030E06C
:104D3000A9016AE3C7010E949525882339F086E01E
:104D4000F7018583C7010E94E12416C00E94DE247A
:104D5000807C803C19F483E0F70183870E94DE2485
:104D60000E94DE240E94DE24C7010E94E124672DF8
:104D7000C7010E941F25182F812F0F900F90DF91E0
:104D8000CF911F910F91FF90EF90DF90CF90BF9048
:104D9000AF909F908F907F9008950F931F93CF9324
:104DA000DF93EC010E94433C8B010E94DE248A8742
:104DB0008F3F49F40E94433C601B710B6D32714080
:104DC000A0F38FE003C08E3F39F08DE08D83CE01DC
:104DD0000E94E12480E001C081E0DF91CF911F912A
:104DE0000F910895CF92DF92EF92FF920F931F934E
:104DF000CF93DF93EC016901C801820F931F8130CB
:104E0000924008F05CC08E81882371F0888199817E
:104E1000AA81BB81481759076A077B0729F48F814C
:104E20009885C816D90610F5488359836A837B8311
:104E30008B85833039F089E0440F551F661F771F3B
:104E40008A95D1F79A01AB0161E1CE010E949525C7
:104E5000882319F083E08D8332C0CE010E94CD26D5
:104E6000882369F118861F8281E08E838F8198855F
:104E70008C159D0540F40E94DE248F819885019653
:104E800098878F83F3CF6701E00EF11ECE14DF0405
:104E900031F00E94DE24F60181936F01F7CF8F81FC
:104EA0009885080F191F18870F838985882319F0A3
:104EB0000115124048F0CE010E94052505C0CE0123
:104EC0000E94E12480E001C081E0DF91CF911F9139
:104ED0000F91FF90EF90DF90CF900895EF92FF92A7
:104EE0000F931F930115110519F00E94F22601C0BE
:104EF00081E01F910F91FF90EF900895EF92FF9244
:104F00000F931F93790100E012E020E030E00E944F
:104F1000F2261F910F91FF90EF900895CF92DF92AC
:104F2000EF92FF920F931F93CF93DF931F921F92E5
:104F3000CDB7DEB78C01862F49835A830E94BF15F7
:104F40004981C42E5A81D52E76018EEFF81AF601CA
:104F500081916F010E94BF15CE14DF04C1F78FEF5E
:104F60000E94BF158FEF0E94BF150E94DE24F8013A
:104F70008287982F9F71953039F081E18583C80130
:104F80000E94E12480E001C081E00F900F90DF914A
:104F9000CF911F910F91FF90EF90DF90CF900895E8
:104FA0000F931F93CF93DF93EC01890141155105B6
:104FB0006105710511F482E132C08B85833039F0CF
:104FC00089E0440F551F661F771F8A95D1F79A0114
:104FD000AB0168E1CE010E949525882311F084E0A1
:104FE0001EC0A8016EEFCE010E948E278823C1F05B
:104FF00068E572E0CE010E947A25811102C085E148
:105000000EC020E030E0A9016DE0CE010E949525A0
:10501000811104C00E94DE24882339F084E18D834D
:10502000CE010E94E12480E004C0CE010E94E12470
:1050300081E0DF91CF911F910F910895E5E1FCE0B0
:1050400080E5808311820895CF93DF93EC019C016A
:105050002A5F3F4F41E050E060E070E08B8D9C8D17
:105060000E94B7318823A1F08F89988DA98DBA8DC0
:10507000892B8A2B8B2B59F48E819F81A885B9852A
:105080008F8B988FA98FBA8F8C8180688C8381E0F9
:10509000DF91CF910895CF92DF92EF92FF921F930D
:1050A000CF93DF93EC010E942428811102C080E09D
:1050B0004AC0EB8DFC8DCE80DF80E884F98482E0ED
:1050C000C81AD108E108F108058404C0CC0CDD1C25
:1050D000EE1CFF1C0A94D2F786859785A089B189BA
:1050E000C80ED91EEA1EFB1E148181E0C81AD10821
:1050F000E108F108112361F0C701B601610F711DCC
:10510000811D911D0E940630882389F21150F2CF33
:10511000EB8DFC8D80E092E0A0E0B0E0058404C05F
:10512000880F991FAA1FBB1F0A94D2F74B895C896D
:105130006D897E89840F951FA61FB71F8B8B9C8B53
:10514000AD8BBE8B81E0DF91CF911F91FF90EF90EF
:10515000DF90CF900895CF93DF93EC01462F6E85BB
:105160007F85888999890E94CB2F882341F08A897D
:1051700020E2829FC0011124805E934F02C080E034
:1051800090E0DF91CF910895FB019B01255F3F4F98
:1051900040E24193E217F307E1F7DC0190E027E0FA
:1051A0008D91882319F18E3219F0E0E7F2E008C002
:1051B0002A3009F198E02AE0F3CF31963817D9F078
:1051C00034913111FACF2917B0F03FED380F3E3549
:1051D00090F431E0390FFB01E90FF11D9FE9980FC1
:1051E0009A3108F480528083932FDACF81E0FB015B
:1051F0009081903209F480E008950F931F93CF932C
:10520000DF93FC012581222311F080E042C08B0155
:10521000EC01FB0187898031B1F482E08D831F8A24
:10522000188E198E1A8E808D918DA0E0B0E025E049
:10523000880F991FAA1FBB1F2A95D1F78B8B9C8BB8
:10524000AD8BBE8B15C0803201F783E08D83FB01EF
:10525000428D538D648D758D4F8B588F698F7A8FEA
:105260009E012D5E3F4FC8010E94AE30882369F237
:105270001C8F0B8F81E08C831E821F8218861986FB
:105280001A861B861C861D861E861F86188A198A0A
:105290001A8ADF91CF911F910F9108952F923F921B
:1052A0004F925F926F927F928F929F92AF92BF9236
:1052B000CF92DF92EF92FF920F931F93CF93DF93E2
:1052C000EC015B014A018D81811103C08FEF9FEFDB
:1052D000D7C08C8180FFFACF4B885C886D887E8830
:1052E0004A855B856C857D85C401A0E0B0E09301B3
:1052F0008201041B150B260B370B081719072A0709
:105300003B0718F44201841A950A24011E0126E085
:10531000220E311C4114510409F47EC04A855B857C
:105320006C857D856A0181E0D822ED818A019B012F
:1053300089E036952795179507958A95D1F78B8D36
:105340009C8DE23061F4FC01828D938DA48DB58D2E
:10535000BC01CD01600F711F821F931F3FC0FC0174
:1053600074807A947022C114D104C9F4711017C0EA
:10537000452B462B472B49F48F89988DA98DBA8DE3
:105380008E839F83A887B9870AC04E815F81688515
:10539000798591010E942A30882309F497CFEB8DFB
:1053A000FC8D8E819F81A885B9850297A109B109DD
:1053B000058404C0880F991FAA1FBB1F0A94D2F747
:1053C0004685578560897189840F951FA61FB71F71
:1053D000BC01CD01670D711D811D911D20E032E0E2
:1053E0002C193D0932012415350508F439012C81A9
:1053F00026FD04C06114F2E07F0679F500911D02DC
:1054000010911E0220911F02309120026017710737
:105410008207930719F421C0C40132C075018301CA
:105420009601AB01BC0180911E0C90911F0C0E9453
:105430006E27882309F44ACFA60CB71C8A859B8562
:10544000AC85BD85860D971DA11DB11D8A879B87E3
:10545000AC87BD87461857085DCF40E00E94CB2F30
:10546000882309F433CFF601E05EF34FD501CF0175
:10547000860D971DE817F907F9F221912D93FACFC0
:10548000DF91CF911F910F91FF90EF90DF90CF9020
:10549000BF90AF909F908F907F906F905F904F9054
:1054A0003F902F900895FF920F931F93CF93DF9318
:1054B0001F92CDB7DEB7FC012581223018F480E0C1
:1054C00090E033C08C01FC0142855385648575856D
:1054D00085E076956795579547958A95D1F7F42F8E
:1054E000FF70FF2E41E050E0BE016F5F7F4FC801AB
:1054F0000E944E29019719F4898190E002C08FEF34
:105500009FEF0196E1F2F80182859385A485B58528
:105510004F96A11DB11D82879387A487B587F0E2BE
:10552000FF9EC0011124805E934F0F90DF91CF91B9
:105530001F910F91FF9008958F929F92AF92BF920B
:10554000CF92DF92EF92FF920F931F93CF93DF934F
:10555000EC018D81811102C080E077C00B891C892C
:105560002D893E890417150726073707A8F36A0116
:105570007B01823029F4CA86DB86EC86FD860DC06D
:10558000C114D104E104F10451F41E821F82188673
:1055900019861A861B861C861D8681E056C08A8461
:1055A0009B84AC84BD84EB8DFC8D258530E0275F2A
:1055B0003F4FB501A4014150510961097109022E03
:1055C00004C076956795579547950A94D2F7D70109
:1055D000C6010197A109B10904C0B695A795979591
:1055E00087952A95D2F784179507A607B70720F065
:1055F00089288A288B2849F44F89588D698D7A8D9E
:105600004E835F836887798704C0841B950BA60B44
:10561000B70B4C015D018E010A5F1F4F811491048D
:10562000A104B10409F4A7CF4E815F816885798513
:1056300098018B8D9C8D0E942A3091E0891A9108E7
:10564000A108B1088111EACF87CFDF91CF911F91D7
:105650000F91FF90EF90DF90CF90BF90AF909F9011
:105660008F9008950F931F93CF93DF93EC018D815B
:105670008823C9F18C8187FF30C061E0CE010E9490
:10568000AB288C01892B79F18D81823048F48B898C
:105690009C89AD89BE89F801848F958FA68FB78FBD
:1056A0008F89988DA98DBA8DF801938F828FB58BD4
:1056B000A48BE091170CF091180C309759F0B801B9
:1056C0006A5E7F4FC80148961995F801808D918DCB
:1056D000938B828B8C818F778C83DF91CF911F91FD
:1056E0000F910C94902F80E0DF91CF911F910F913B
:1056F0000895CF93DF93EC010E94322B882311F0A1
:105700001D8281E0DF91CF9108954F925F926F9259
:105710007F928F929F92AF92BF92EF92FF920F93E0
:105720001F93CF93DF9300D01F92CDB7DEB7FC015C
:1057300085818130E9F4848181FF1AC0838994894D
:10574000A589B68984179507A607B70788F0892B1E
:105750008A2B8B2B09F479C04A015B017F014284BB
:10576000538464847584CF010E949C2A811102C0F5
:1057700080E06CC0F701838D948D81149104A104A5
:10578000B10471F44789508D618D728D0E94CC32C5
:10579000882371F3F701178A108E118E128E3AC08A
:1057A000F70146815781608571859E012F5F3F4FCC
:1057B0000E942A308823E1F249815A816B817C81E1
:1057C000F701838D948DFC012789203129F008EFA2
:1057D0001FEF2FEF3FE004C008EF1FEF20E030E0A5
:1057E0004017510762077307A8F40E94CC32882340
:1057F00009F4BECFF70146815781608571850FEFAF
:105800001FEF2FEF3FE0838D948D0E941731882387
:1058100009F4AECFF701838A948AA58AB68A848177
:1058200080688483C7010E94322B882309F4A0CFAB
:10583000B501A401481459046A047B0410F4B301AF
:10584000A201C7010E949C2A01C081E00F900F9025
:105850000F900F90DF91CF911F910F91FF90EF90DC
:10586000BF90AF909F908F907F906F905F904F9080
:1058700008951F93CF93DF93EC0180E2689FF001BE
:1058800011249F01205E334FD9011B969C91917189
:1058900029F0842F827411F080E05BC0142F6A8B92
:1058A00080911D0290911E02A0911F02B0912002D2
:1058B0008E879F87A88BB98BE05EF34F448955890B
:1058C00060E070E0BA01552744274F8B588F698FED
:1058D0007A8F828D938DA0E0B0E0482B592B6A2BF4
:1058E0007B2B4F8B588F698F7A8FD9011B968C91A8
:1058F000887151F4848D958DA68DB78D8B8B9C8B83
:10590000AD8BBE8B81E00DC0803131F69E012D5EE6
:105910003F4F8B8D9C8D0E94AE30882309F4BCCF05
:1059200084E08D83812F8F708C831E821F82188666
:1059300019861A861B861C861D8616FF09C040E044
:1059400050E0BA01CE01DF91CF911F910C94852BCD
:1059500081E0DF91CF911F910895CF92DF92EF9276
:10596000FF920F931F93CF93DF93CDB7DEB72C97A2
:105970000FB6F894DEBF0FBECDBFFC0135813111EB
:10598000C2C0D22E8B017C01BE016F5F7F4FCA0166
:105990000E94C428882309F4B6C0F801838D948D31
:1059A000F701948F838FF801168217821086118673
:1059B000128613861486158630E0F8018285938559
:1059C000A485B585438954896589768984179507A7
:1059D000A607B70708F041C025E0B695A7959795AB
:1059E00087952A95D1F7F82FFF70CF2EC8013C87F5
:1059F0000E94532A3C85009709F485C0FC01208150
:105A0000222309F484C0253E99F04BE050E0BC010C
:105A1000CE0101963C870E9423413C85892B69F683
:105A20008D2D8073803309F46EC04D2D6C2D67C0B1
:105A300031116BC0F701C28A40911D0250911E02C4
:105A400060911F027091200246875787608B718B8F
:105A5000FC01808131E08111B0CF8D2D82718231C6
:105A600009F051C0332341F061E0C7010E94AB2827
:105A70008C01892B79F447C0F8018581823009F4C3
:105A800042C0C8010E944B288823E9F1F701128A1D
:105A900000E21CE080E2F80111928A95E9F78BE0C0
:105AA000FE013196D80101900D928A95E1F7E091BF
:105AB000170CF091180C309739F0B801625F7F4FE6
:105AC000C8014096199509C081E298E2F801918BCE
:105AD000808B80E098E097878687F801808991899C
