:100000000C94DE010C940F020C940F020C940F025E
:100010000C940F020C940F020C940F020C940F021C
:100020000C940F020C940F020C940F020C940F020C
:100030000C940F020C940F020C940F020C940F02FC
:100040000C940F020C940F020C940F020C940F02EC
:100050000C940F020C940F020C940F020C94363E79
:100060000C940F020C94C0370C94F6370C940F02CA
:100070000C940F020C940F020C940F020C940F02BC
:100080000C940F020C940F020C940F020C940F02AC
:100090000C940F020C940F020C940F020C940F029C
:1000A0000C940F020C940F020C940F020C940F028C
:1000B0000C940F020C940F020C940F020C940F027C
:1000C0000C940F020C940F020C940F020C945738EE
:1000D0000C948D380C940F020C94EE380C94243947
:1000E0000C940F028F3F923F813F853F8B3FC93F6A
:1000F000963F9A3FA03FA43FA83FAE3FB23FB63FD6
:10010000C93FBC3FC03FC43F0C9413120C9420382D
:100110000C9478120C94C93F0C944D0E0C947136CB
:100120000C94F30D0C94813F0C94B4110C94CB1FE0
:100130000C94740E0C94A03F0C9451240C94060E55
:100140000C942F0E0C944E390C94923F0C949611F3
:100150000C94800F0C94033A0C94240E0C948B3F57
:100160000C94C03F0C94700E0C94A43F0C9458391E
:100170000C94A83F0C94970E0C94E50D0C94240F4E
:100180000C94BC3F0C9474110C9464230C9494361E
:100190000C942A380C94F8390C94EB0F0C94143707
:1001A0000C94C43F0C9448050C943C2A0C945A239C
:1001B0000C947B130C9432120C94C1380C940110E3
:1001C0000C94F70D0C9409230C947F110C94C41A11
:1001D0000C94CA110C949D310C9486110C94032438
:1001E0000C94D6110C94FC0D0C94B63F0C94BA22CE
:1001F0000C94AE3F0C94BB040C944B120C94B23F85
:100200000C943B230C941F230C9485390C94633677
:100210000C949E110C94F60D0C941C0E0C949B0ED9
:100220000C9485360C94963F0C94B0100C94D91312
:100230000C94560E0C94B5110C94B7380C94E5261A
:100240000C94F2360C94D0120C94E00F0C94FA0D2E
:100250000C949A110C94BC0F0C94D2110C94853F01
:100260000C949A3F0C948F3F0C9457360C94EA11DF
:100270007C3C3E5E2B3D3F2F5B5D3B2C2A225C008D
:1002800000000A0B02090C0D0E0807030401000010
:10029000000000000000000000000000000000005E
:1002A000000000000000000000000000121110001B
:1002B000000000000000000000000000000000003E
:1002C000000000000000010210202008081020405B
:1002D000102040800201020108040201010204080A
:1002E0001020408080402010080402018004020198
:1002F00080402010080402010804020101020408E1
:1003000010204080010204081020408005050505EA
:10031000070508080808020202020A0A080804047D
:1003200004040101010101010101030303030303AB
:100330000303040707070C0C0C0C0C0C0C0C02023A
:10034000020206060606060606060B0B0B0B0B0B37
:100350000B0B000020002300260029002C002F009A
:100360003200000100000301060109010000220023
:10037000250028002B002E0031003400020100006F
:10038000050108010B0100002100240027002A00BC
:100390002D003000330001010000040107010A01B3
:1003A000BB04E50DE00F7411D913C41ACB1FE52669
:1003B0003C2A2A38C1385839F839480511241FBE5B
:1003C000CFEFD1E2DEBFCDBF00E00CBF16E0A0E072
:1003D000B2E0EAECF8E800E00BBF02C007900D9233
:1003E000A834B107D9F720E1A8E4B6E001C01D9216
:1003F000A232B207E1F711E0CDEDD1E000E006C096
:1004000021970109802FFE010E94A040C03DD10725
:1004100080E00807A9F70E94233E0C9453440C94F3
:10042000000061E08DE00E94CA3F61E08DE00E9423
:1004300006406AEF70E080E090E00E94B13E60E02C
:100440008DE00E9406406AEF70E080E090E00E943C
:10045000B13EEBCF24E0660F771F2A95E1F734E039
:10046000880F991F3A95E1F720E030E0F901E60F97
:10047000F71FE55EF84F40815181F901E80FF91F40
:10048000E55EF84F518340832E5F3F4F20313105A9
:1004900069F70895FB019C01205F3F4FDC016D91DE
:1004A0007D91CD01419151916417750729F4A217EF
:1004B000B307A1F781E0089580E00895EF92FF92DD
:1004C0000F931F93CF93DF937C010BE117E0C0E004
:1004D000D0E0B701C8010E944A02811109C02196EB
:1004E000005F1F4FCC33D105A1F78FEF9FEF01C005
:1004F000CE01DF91CF911F910F91FF90EF90089562
:100500009C01205331092A30310540F02151310935
:1005100081E02630310518F080E0089581E00895EB
:10052000CF93DF930E945E0220910A02019649F464
:10053000222381F06AE272E088E39EE00E94683A3A
:1005400009C0222351F06EE272E088E39EE00E942F
:10055000683A03C0CFEFDFEF02C0C1E0D0E0809186
:100560000A02882331F064E372E088E39EE00E948F
:10057000513ACE01DF91CF9108950F931F93CF93FE
:10058000DF9388E10E943640892BD1F18091F106FA
:100590009091F206892BA1F1E091F306F091F40617
:1005A000309761F48091EF069091F006009721F06A
:1005B00068E372E00E94683A0E941102C081D18112
:1005C00002811381CF010E94343E1093F406009300
:1005D000F3062091F1063091F20621503109309353
:1005E000F2062093F106CE010E94052364E670E036
:1005F00080E090E0DF91CF911F910F910C94B13E7C
:10060000DF91CF911F910F910895CF92DF92EF92DA
:10061000FF920F931F93CF93DF93EC0160EE74E092
:100620000E94FB3B6AE672E0CE010E94303C67EB21
:1006300072E0CE010E94D53C6DEE7AE0CE010E94C0
:10064000CE3C8BE1E82E87E0F82E00E010E0F701C9
:1006500080819181892B89F10F5F1F4FB801CE01F5
:100660000E94F83C6FE872E0CE010E94D53C67EE34
:100670007AE0CE010E94CE3CC12CD12CF701EC0DCA
:10068000FD1D60817181CE010E94F83C61E972E03C
:10069000CE010E94D53CF2E0CF0ED11C80E1C816FD
:1006A000D10461F761EE7AE0CE010E94CE3CE0E138
:1006B000EE0EF11C0C33110551F66BED7AE0CE0114
:1006C0000E94CE3CCE01DF91CF911F910F91FF9000
:1006D000EF90DF90CF900895CF92DF92EF92FF924C
:1006E0000F931F93CF93DF93EC0160EE74E00E94B1
:1006F000FB3B63E972E0CE010E94303C6DEE7AE094
:10070000CE010E94CE3C8BE1E82E87E0F82E00E07F
:1007100010E0F70180819181892B59F10F5F1F4F04
:10072000B801CE010E94F83C6FE872E0CE010E9451
:10073000D53C67EE7AE0CE010E94CE3CC12CD12C94
:10074000F701EC0DFD1D6081CE010E94E43CF2E05A
:10075000CF0ED11C80E1C816D10491F761EE7AE08A
:10076000CE010E94CE3CE0E1EE0EF11C0C331105EF
:1007700081F66BED7AE0CE010E94CE3CCE01DF9196
:10078000CF911F910F91FF90EF90DF90CF90089540
:10079000EF92FF920F931F93CF93DF9300D000D07F
:1007A000CDB7DEB78C017B0169ED72E08FE596E095
:1007B0000E94303C63E27BE0C7010E946C3D8111E6
:1007C00006C060EE72E08FE596E00E94303C60EE7D
:1007D00074E0C8010E94FB3B81E08093650680E0E5
:1007E0000E944F3FBC01990F880B990B0E943A3B26
:1007F000E12CF12C80910B0290910C02E816F90685
:10080000DCF46AE070E080E090E00E94423BAB01E3
:10081000BC012AE0CE0101960E94733CBE016F5FCD
:100820007F4FC8010E94CE3CCE0101960E948D3BB5
:100830008FEFE81AF80ADECFB80181E19BE00E9451
:10084000103CC80126960FB6F894DEBF0FBECDBF90
:10085000DF91CF911F910F91FF90EF900895CF926C
:10086000DF92EF92FF920F931F93CF93DF9300D00D
:1008700000D0CDB7DEB77C016B016DE676E087E690
:1008800096E00E94303CB60187E696E00E94CC3D9F
:10089000F601048115810F5F1F4F080F191F65EEC8
:1008A00072E0CE0101960E94FB3BA801BE016F5F82
:1008B0007F4F87E696E00E94AF3D8C01B60187E648
:1008C00096E00E94CC3DF601448155814F5F5F4F19
:1008D000480F591F980167E676E0C7010E94D03D96
:1008E000CE0101960E948D3BC70126960FB6F89463
:1008F000DEBF0FBECDBFDF91CF911F910F91FF9053
:10090000EF90DF90CF900895EF92FF920F931F9397
:10091000CF93DF93EC017B010E811F8184E090E097
:100920000E94323E9F838E83009751F48881998183
:10093000009721F067EE72E00E94683A0E9411026F
:10094000FC0113821282F182E0822C813D81232BF3
:1009500019F49D838C8303C0F801938382838A8179
:100960009B8101969B838A83DF91CF911F910F9189
:10097000FF90EF9008950F9300E020E040E060E0EA
:1009800089E29BE00E94D13968E173E083E29BE059
:100990000E94FB3B06E221E048EA60EC8DE19BE02F
:1009A0000E94D13960E570E087E19BE00E9445102C
:1009B00060EE74E081E19BE00E94FB3B6EE173E03E
:1009C0008BE09BE00E94FB3B65E273E085E09BE0EF
:1009D0000E94FB3B6BE673E08FEF9AE00E94FB3BCB
:1009E00065E773E089EF9AE00E94FB3B6EEC72E0F2
:1009F00083EF9AE00E94FB3B60E873E08DEE9AE0A3
:100A00000E94FB3B66EC73E087EE9AE00E94FB3BA2
:100A100060ED73E081EE9AE00E94FB3B65EE73E0CF
:100A20008BED9AE00E94FB3B6AEF73E083E097E076
:100A30000E94FB3B64E074E08DEF96E00E94FB3B7C
:100A400060E174E087EF96E00E94FB3BEFEEF6E09A
:100A500013821282158214821782168211821082EA
:100A60004AE060E870E087E696E00E94473C60EE6E
:100A700074E08FE596E00E94FB3B82E596E00E94E1
:100A8000F90E60EE74E08CE496E00F910C94FB3B61
:100A9000CF93DF938CE496E00E948D3B8FE596E048
:100AA0000E948D3B87E696E00E948D3BC091F30645
:100AB000D091F406CD2B71F08091F3069091F4065D
:100AC000FC01C281D3810E94343ED093F406C093CE
:100AD000F306F0CF87EF96E00E948D3B8DEF96E016
:100AE0000E948D3B83E097E00E948D3B8BED9AE066
:100AF0000E948D3B81EE9AE00E948D3B87EE9AE04A
:100B00000E948D3B8DEE9AE00E948D3B83EF9AE030
:100B10000E948D3B89EF9AE00E948D3B8FEF9AE017
:100B20000E948D3B85E09BE00E948D3B8BE09BE02B
:100B30000E948D3B81E19BE00E948D3B83E29BE024
:100B4000DF91CF910C948D3B8F929F92AF92BF9289
:100B5000CF92DF92EF92FF920F931F93CF93DF9389
:100B6000CDB7DEB76B970FB6F894DEBF0FBECDBF23
:100B7000409103075091040721E063EE7BE0CE0132
:100B800001960E945026CE0101960E94442488239B
:100B900009F450C08BE1C82E87E0D82E9AE0892E48
:100BA000912CA12CB12CE12CF12CCE0101960E94AC
:100BB0000324892BD9F100E010E0CE0101960E94B8
:100BC0005A23F601E00FF11F9183808320910A02DE
:100BD000222369F04AE050E0BC0188E39EE00E94D5
:100BE0001F3B61E972E088E39EE00E94513A0E5F8C
:100BF0001F4F0031110509F78FEFE81AF80AB50108
:100C0000A401CE0101960E94D62380910A02882376
:100C100021F088E39EE00E94643A8AE0880E911CED
:100C2000A11CB11C80E1C80ED11CBFCFF0920A07F5
:100C3000E0920907CE0101960E9432246B960FB60E
:100C4000F894DEBF0FBECDBFDF91CF911F910F9102
:100C5000FF90EF90DF90CF90BF90AF909F908F90DC
:100C60000895CF92DF92EF92FF920F931F93CF934D
:100C7000DF93CDB7DEB76B970FB6F894DEBF0FBE2C
:100C8000CDBF2091090730910A07D90144E0AA0F8E
:100C9000BB1F4A95E1F740E050E0FC016191719182
:100CA000CF01FA01EA0FFB1FE55EF84F7183608305
:100CB0004E5F5F4F4031510581F72F5F3F4F3093BB
:100CC0000A0720930907609103077091040783EED8
:100CD0009BE00E94DA26409103075091040723E12C
:100CE00063EE7BE0CE0101960E945026CE01019674
:100CF0000E944424811115C0CE0101960E94322425
:100D00000E94A4056B960FB6F894DEBF0FBECDBF50
:100D1000DF91CF911F910F91FF90EF90DF90CF90D7
:100D200008958BE1C82E87E0D82EE12CF12C80911C
:100D3000090790910A07E816F906F0F600E010E0BE
:100D4000F601E00FF11F6081CE0101960E94092398
:100D50000E5F1F4F0031110599F7CE0101960E94D9
:100D6000643AFFEFEF1AFF0A80E1C80ED11CDFCF13
:100D70008F929F92AF92BF92CF92DF92EF92FF92AB
:100D80000F931F93CF93DF93CDB7DEB7A0970FB626
:100D9000F894DEBF0FBECDBF8C014B0160EE74E056
:100DA0000E94FB3B6CE174E0CE0101960E94FB3B8C
:100DB000B401CE0101960E94293DBC01C8010E94E8
:100DC000103CCE0101960E948D3B80910A0288233F
:100DD00031F06FE374E088E39EE00E94513A7E01B7
:100DE00021E1E20EF11C5701C12CD12CB601C40146
:100DF0000E94AD3D682F880F770BD5016D937D93D1
:100E00005D0180910A02882361F04AE050E088E3A6
:100E10009EE00E941F3B61E972E088E39EE00E9431
:100E2000513ABFEFCB1ADB0AE8E0CE16D104F1F657
:100E3000C7010E9490028F3FFFEF9F0751F001977B
:100E400019F563EF7AE0C8010E94CE3C6EE574E0CC
:100E500018C0FE013196CE018196D7012D913D91AA
:100E60007D0121933193A817B907B9F7CE010196F7
:100E70000E94310663EF7AE0C8010E94CE3C65E42F
:100E800074E0C8010E94D53CC801A0960FB6F89442
:100E9000DEBF0FBECDBFDF91CF911F910F91FF90AD
:100EA000EF90DF90CF90BF90AF909F908F9008957C
:100EB000CF92DF92EF92FF920F931F93CF93DF9326
:100EC000CDB7DEB76B970FB6F894DEBF0FBECDBFC0
:100ED0000E945E022091090730910A07821793074A
:100EE00040F48C010F5F1F4FB8010E942A02C80115
:100EF000F1CF2150310930930A07209309076091FF
:100F000003077091040783EE9BE00E94DA2640916C
:100F100003075091040723E163EE7BE0CE010196C5
:100F20000E945026CE0101960E944424811115C0D2
:100F3000CE0101960E9432240E94A4056B960FB642
:100F4000F894DEBF0FBECDBFDF91CF911F910F91FF
:100F5000FF90EF90DF90CF9008958BE1C82E87E04F
:100F6000D82EE12CF12C8091090790910A07E81600
:100F7000F906F0F600E010E0F601E00FF11F6081E5
:100F8000CE0101960E9409230E5F1F4F003111050B
:100F900099F7CE0101960E94643A8FEFE81AF80A99
:100FA00080E1C80ED11CDFCF8F929F92AF92BF928B
:100FB000CF92DF92EF92FF920F931F93CF93DF9325
:100FC000CDB7DEB7A0970FB6F894DEBF0FBECDBF8A
:100FD0008C014B0160EE74E00E94FB3B62E774E021
:100FE000CE0101960E94FB3BB401CE0101960E9406
:100FF000293DBC01C8010E94103CCE0101960E940F
:101000008D3B80910A02882331F06FE374E088E31E
:101010009EE00E94513A7E0121E1E20EF11C57014F
:10102000C12CD12CB601C4010E94AD3D682F880FA0
:10103000770BD5016D937D935D0180910A02882322
:1010400061F04AE050E088E39EE00E941F3B61E9C6
:1010500072E088E39EE00E94513ABFEFCB1ADB0AB0
:10106000E8E0CE16D104F1F6C7010E9490028F3F4E
:10107000FFEF9F0739F0019721F5FE013196CE0170
:10108000819608C063EF7AE0C8010E94CE3C68E90F
:1010900074E014C0D7012D913D917D0121933193CE
:1010A000A817B907B9F7CE0101960E94580763EF58
:1010B0007AE0C8010E94CE3C69EB74E0C8010E944E
:1010C000D53CC801A0960FB6F894DEBF0FBECDBFC9
:1010D000DF91CF911F910F91FF90EF90DF90CF9014
:1010E000BF90AF909F908F900895CF92DF92EF9234
:1010F000FF920F931F93CF93DF93CDB7DEB7E397A4
:101100000FB6F894DEBF0FBECDBF6C017B0160EE61
:1011100074E0CE018E960E94FB3B870180E1E80ED1
:10112000F11CF80160810E5F1F4FCE018E960E9468
:10113000E43C0E151F05A9F74091FD065091FE06EF
:1011400021E063EE7BE0CE0101960E945026CE01A5
:1011500001960E944424882309F46CC060EE74E078
:10116000CE0188960E94FB3B60EE74E0CE01829631
:101170000E94FB3B60EE74E0CE014C960E94FB3B6C
:1011800001E010E0CE0101960E940324892BE1F1D9
:10119000CE0101960E945A237C018F9709F47AC0F0
:1011A0008BE3E816F10431F0C7010E94800281113F
:1011B00059C0E8CF03301105A1F4BE016E5D7F4F29
:1011C000CE018E960E946C3D882359F0CE01019687
:1011D0000E943224BE01645E7F4FC6010E94273CFC
:1011E0001CC060EE74E0CE0188960E94303C60EE38
:1011F00074E0CE0182960E94303C60EE74E0CE0135
:101200004C960E94303CBCCFCE0101960E94322405
:1012100064ED74E0C6010E94FB3BCE014C960E9437
:101220008D3BCE0182960E948D3BCE0188960E9416
:101230008D3B04C0CE0101960E943224CE018E96D1
:101240000E948D3BC601E3960FB6F894DEBF0FBE39
:10125000CDBFDF91CF911F910F91FF90EF90DF9065
:10126000CF9008950230110571F46E2DCE0188964D
:1012700007C00130110509F085CF6E2DCE01829691
:101280000E94E43C7FCF0330110599F76E2DCE010B
:101290004C96F6CF0F5F1F4F75CFCF93DF9300D0E3
:1012A00000D0CDB7DEB76BE077E0CE0101960E94AB
:1012B000750826E030E040E050E061E070E080E05A
:1012C00090E00E94663B8FEE96E00E94840464EDFD
:1012D00074E0CE0101960E947D3D811108C0CE01CF
:1012E00001960E94163E8FEE96E00E94840460ED07
:1012F00077E080E090E00E94B13ECE0101960E942E
:101300008D3B26960FB6F894DEBF0FBECDBFDF91A2
:10131000CF910895CF93DF9300D000D0CDB7DEB743
:1013200082E596E00E94970E60EE74E0CE01019691
:101330000E94FB3B809165068823A9F06FEF7AE05D
:10134000CE0101960E94103C6FE576E0CE01019639
:101350000E94CE3C69ED74E0CE0101960E94D53C1E
:101360006CE476E00EC065E07BE0CE0101960E9461
:10137000103C6CE476E0CE0101960E94CE3C69EF11
:101380007AE0CE0101960E94CE3CBE016F5F7F4F96
:1013900082E596E00E94433A61E070E080E090E0F0
:1013A0000E94B13E82E596E00E94800F80910A0281
:1013B000882331F061EE74E088E39EE00E94683A91
:1013C000CE0101960E948D3B26960FB6F894DEBFA3
:1013D0000FBECDBFDF91CF9108950F931F93CF9391
:1013E000DF93CDB7DEB7AA970FB6F894DEBF0FBE76
:1013F000CDBF6DE676E087E696E00E94303C64EF74
:1014000074E0CE0101960E94FB3BBE016F5F7F4FEF
:10141000CE0185960E942F04CE0101960E948D3B3D
:10142000CE0185960E94163E8B0167EF74E0CE01D7
:1014300001960E94FB3BBE016F5F7F4FCE014F962E
:101440000E942F04CE0101960E948D3B6BEF74E049
:101450008CE496E00E94303C64E175E0CE01019698
:101460000E94FB3BBE016F5F7F4FCE0149960E94F9
:101470002F04CE0101960E948D3B69E175E0CE01FB
:1014800001960E94FB3BBE016F5F7F4FCE014396EA
:101490000E942F04CE0101960E948D3B63E27BE007
:1014A000CE014F960E946C3D811110C081E0809367
:1014B000650660EE72E08FE596E00E94303C60EEDB
:1014C00074E08CE496E00E94303C79C00330110552
:1014D00009F453C0B4F40130110549F1023011058B
:1014E00009F06DC0BE01675E7F4FCE0107960E9476
:1014F000273CBE01695F7F4FCE0101960E94D40751
:101500004FC004301105F1F10530110509F057C045
:10151000BE01615E7F4FCE0107960E94273CBE014F
:10152000695F7F4FCE0101960E94C80339C0BE019A
:101530006D5E7F4FCE0107960E94273CBE01675E1D
:101540007F4FCE010D960E94273CAE01495F5F4F51
:10155000BE01635F7F4FCE0101960E94B806BE01B7
:101560006F5F7F4F8CE496E00E94103CCE010196A5
:101570000E948D3BCE010D961CC0CE0101960E94AB
:101580006C0304C0CE0101960E940503BE016F5F8B
:101590007F4F8CE496E00E94103CCE0101960DC076
:1015A000BE016F5F7F4F8CE496E00E94103CCE013D
:1015B00001960E948D3BCE0107960E948D3B0E94B2
:1015C0008A09CE0143960E948D3BCE0149960E9426
:1015D0008D3BCE014F960E948D3BCE0185960E9499
:1015E0008D3BAA960FB6F894DEBF0FBECDBFDF913C
:1015F000CF911F910F9108951F93CF93DF93CDB794
:10160000DEB72D970FB6F894DEBF0FBECDBF67E1F2
:101610007BE0CE0101960E9407118B819C81909303
:101620005506809354068D819E81AF81B885809345
:10163000560690935706A0935806B093590689858D
:101640009A85AB85BC8580935A0690935B06A093E0
:101650005C06B0935D068D8580935E0682E596E01C
:101660000E941C0E882309F46BC06EE175E088E3CC
:101670009EE00E94683A1092EE061092ED064AE053
:1016800060E870E0CE0101960E94473CBE016F5FAA
:101690007F4F87E696E00E94103CCE0101960E94A3
:1016A0008D3B11E082E596E00E94BC0F882309F48F
:1016B00041C082E596E00E944D0E892B99F382E5A8
:1016C00096E00E94560E8A3081F5112351F382E58F
:1016D00096E00E944D0E892BC9F082E596E00E94AB
:1016E000560E809366062091ED063091EE06203866
:1016F00031056CF7A9014F5F5F4F5093EE064093A1
:10170000ED06F901E359F94F8083E1CF6FE275E00F
:1017100088E39EE00E94683A6DE676E088E39EE00A
:101720000E94513A0E94ED09BDCF8D3009F4BACF25
:1017300010E0B8CF66E475E088E39EE00E94683A66
:101740002D960FB6F894DEBF0FBECDBFDF91CF91BF
:101750001F910895CF93DF9300D000D0CDB7DEB7AF
:101760001092650660EE74E0CE0101960E94FB3B8C
:101770000E94FC0ACE0101960E948D3B26960FB670
:10178000F894DEBF0FBECDBFDF91CF91089582E701
:101790009FE00E945736892B59F48FEF9FEF90936B
:1017A00049068093480690934B0680934A06089515
:1017B00082E79FE00E9471369C012C57310923304B
:1017C000310548F490934B0680934A0610924906DF
:1017D000109248060895209148063091490637FD39
:1017E0000EC0A9014F5F5F4F5093490640934806D2
:1017F000220F331FF901E55FF84F918380838091B9
:10180000480690914906089781F580914A06909183
:101810004B068E37910571F48BE097E00E949002A1
:10182000019621F48BE097E00C9431068BE097E071
:101830000C9458078C37910599F48BE097E00E943F
:101840005E02019639F062E575E082E79FE00E9452
:10185000513A09C064E575E082E79FE00C94513A83
:101860008D37910511F40C944D0908950E94BD0225
:101870000E94C70B0C94AA0BEF92FF920F931F9339
:10188000CF93DF9300D000D0CDB7DEB726E040E0A5
:1018900052EC61E070E088E39EE00E945B3726E056
:1018A00040E052EC61E070E082E79FE00E945B372D
:1018B00026E040E855E260E070E085ED9EE00E94A1
:1018C0005B3785ED9EE00E94EA2289E190E00E946C
:1018D000012364E670E080E090E00E94B13E66E1A2
:1018E00083EE9BE00E94472581110AC080910A0285
:1018F000882331F066E575E088E39EE00E94683A4F
:1019000080910A02882331F062E775E088E39EE067
:101910000E94683A0E94A40564E875E088E39EE0AE
:101920000E94513A10EAE12E1FE0F12E00E010E093
:1019300020E63AEE40E050E06DE072E08DE89BE09A
:101940000E94160D6CE875E088E39EE00E94513A13
:1019500087E19BE00E94011064E975E088E39EE066
:101960000E94513A6DE87BE0CE0101960E94BD0DC8
:10197000BE016F5F7F4F88E39EE00E947A3A8FEF4F
:101980009FEF909349068093480690934B0680936F
:101990004A0626960FB6F894DEBF0FBECDBFDF9184
:1019A000CF911F910F91FF90EF9008952091DD0B43
:1019B000222399F04FB7F8942091DD0B213059F490
:1019C0002DB32093DB0B3DB32091DC0B209523231B
:1019D0002DBB4FBF02C04093DB0B8CBD9DBD089556
:1019E0008091DD0B882361F09FB7F8942091DD0B87
:1019F0008091DB0B213019F48DBB9FBF08958FBF01
:101A0000089544E050E0BC0181E090E00C9473182C
:101A100044E050E0BC0185E090E00C94731844E091
:101A200050E0BC018FE090E00C9473182F923F922D
:101A30004F925F926F927F928F929F92AF92BF92DE
:101A4000CF92DF92EF92FF920F931F93CF93DF938A
:101A500000D000D0CDB7DEB76C011B0129013A01DF
:101A6000470158018091950B811107C082E79BE0E7
:101A70000E94611381E08093950B8FE29BE0F60159
:101A8000978386838FEB9BE00E940B1880E590E0A4
:101A90000E94D60C46E050E0B10189E090E00E943F
:101AA000731800E020E040E060E0CE0101960E9463
:101AB000D139CE0103960E940F0D0E94F00C8501D2
:101AC0007401A3019201B101F601868197810E9400
:101AD000491F8C010197B9F580E590E00E94D60C72
:101AE000F60166817781CE0101960E94831ACE01AC
:101AF00003960E940F0DF60166817781CE01019653
:101B00000E94991ACE0103960E94010DF60166818A
:101B10007781CE0101960E948E1ACE0103960E9413
:101B2000080D0E94F00CF60166817781CE010196C6
:101B30000E94A41A8B819C81AD81BE81F6018283B3
:101B40009383A483B583C80126960FB6F894DEBFAD
:101B50000FBECDBFDF91CF911F910F91FF90EF90FE
:101B6000DF90CF90BF90AF909F908F907F906F90BD
:101B70005F904F903F902F900895CF93DF93EC01AB
:101B80000E94C73980E590E00E94D60CBE016E5FCE
:101B90007F4F44E050E08FE090E00E94A5190E9442
:101BA000F00CCE01DF91CF91089529E336E0FC01DE
:101BB00031832083FB014281538164817581FC0163
:101BC000428353836483758308950F9300E020E07C
:101BD00040E060E085EA9BE00E94D1398DE89BE01F
:101BE0000F910C94C73980E090E00895089581E04A
:101BF00086270895862F0895DC01ED91FC91068CCF
:101C0000F78DE02D199591E089270895CF93DF9303
:101C10001F92CDB7DEB76983DC01ED91FC910280A4
:101C2000F381E02D41E050E0BE016F5F7F4F1995D9
:101C30000F90DF91CF91089521E0FC0184858430DD
:101C400009F420E0822F0895FC019485FB0184852E
:101C5000981303C081E0943009F480E008950F9355
:101C60001F93CF93DF938C01D42FC52FFC01848564
:101C7000843041F481E090E0F8019383828380E036
:101C800090E006C00E94A815892BA1F38D2F9C2FF0
:101C9000DF91CF911F910F910895FC0184858430CD
:101CA00011F00C949F1680E090E00895CF93DF939D
:101CB0001F92CDB7DEB741E050E0BE016F5F7F4FAE
:101CC000FC0184850E943E16181619061CF48981B1
:101CD00090E002C08FEF9FEF0F90DF91CF910895BA
:101CE000FC0184850C943E160F931F93CF93DF93D2
:101CF0001F92CDB7DEB78C01DC01ED91FC91008421
:101D0000F185E02D1995892B51F0BE016F5F7F4F52
:101D1000F80184850E94CA16898190E002C08FEF85
:101D20009FEF0F90DF91CF911F910F910895FC01CC
:101D300084850C94FA16CF92DF92EF92FF920F9364
:101D40001F93CF93DF93CDB7DEB7AF970FB6F8945D
:101D5000DEBF0FBECDBF8C016B017A01CE010196B3
:101D60000E94C739CE0109960E946113CE018A965E
:101D70000E94C7396DE87BE0CE0184960E94D50DA4
:101D8000BE016C5D7F4FCE0101960E94881FAE019F
:101D9000465D5F4FB601CE0101960E94F72181306A
:101DA0009105C1F4D801ED91FC910684F785E02DF1
:101DB00089E396E09DA38CA38CA59DA5AEA5BFA5A8
:101DC0008EA39FA3A8A7B9A7A701BE016C5D7F4FF3
:101DD000C8011995AF960FB6F894DEBF0FBECDBF00
:101DE000DF91CF911F910F91FF90EF90DF90CF90F7
:101DF0000895FC011382128288EE93E0A0E0B0E027
:101E000084839583A683B78386EA95E09183808354
:101E100084E084870895FC011382128288EE93E0A7
:101E2000A0E0B0E084839583A683B78386EA95E03B
:101E30009183808364870895FC018485843011F048
:101E40000C944F1480E00895CF92DF92FF920F938D
:101E50001F93CF93DF93FC0124852430A9F56A01F9
:101E60008B01EC01F12C8F2D0E944F14811102C0C7
:101E7000FC8607C08B7F8831D9F3F394F4E0FF121E
:101E8000F2CF8C85843001F120911D0230911E0229
:101E90002F5F3F4F11F420E030EC30931E0220936F
:101EA0001D0240911D0250911E0220E061E00E943F
:101EB000A114B8016E5F7F4FA6018C850E94281582
:101EC000811105C084E08C8780E090E011C0CE01D4
:101ED0000E941C0F873151F061E070E080E090E0DB
:101EE0000E94B13ECE010E941C0FEACF81E090E03B
:101EF000DF91CF911F910F91FF90DF90CF900895C8
:101F0000CF92DF92EF92FF92CF93DF93EC018C851B
:101F1000843059F10E9481150E94803E6B017C0142
:101F2000CE010E941C0F8823B1F061E070E080E0D8
:101F300090E00E94B13E0E94803EDC01CB018C19F2
:101F40009D09AE09BF09883E9340A105B10540F344
:101F50008C850E947614EC85F0E0EE0FFF1FE356AF
:101F6000F44F1182108284E08C87DF91CF91FF9033
:101F7000EF90DF90CF900895CF93DF93FC012485FD
:101F80002430D1F0EC010E941C0F843181F08823B1
:101F900071F0883161F08C3161F4E881F98100845D
:101FA000F185E02DCE01199521E0892B19F420E06F
:101FB00001C021E0822F01C080E0DF91CF91089520
:101FC0000F9300E020E040E060E08BEA9BE00E949D
:101FD000D1390F910895CF93DF931F92CDB7DEB71C
:101FE0006983DC01ED91FC910280F381E02D41E0F9
:101FF00050E0BE016F5F7F4F19950F90DF91CF9139
:102000000895EF92FF920F931F93CF93DF93CDB775
:10201000DEB72D970FB6F894DEBF0FBECDBF7C01A3
:1020200000E010E0602FCE0101960E940B0FCE0160
:1020300001960E941C0F811116C0F7014481558141
:1020400020E061E0802F0E94A114802F0E94F514EF
:10205000F70184819581000F111FF801E356F44FB9
:102060009183808305C00F5F1F4F04301105D1F6A7
:102070002D960FB6F894DEBF0FBECDBFDF91CF9186
:102080001F910F91FF90EF900895FC01138212822F
:102090008CEC95E091838083758364830895AF927F
:1020A000BF92CF92DF92EF92FF921F93CF93DF9375
:1020B000CDB7DEB72D970FB6F894DEBF0FBECDBFFC
:1020C0007C019DE9A92E9BE0B92E10E0C12CD12CFA
:1020D000612FCE0101960E940B0FD5012D913D91EC
:1020E0005D01F7018481958128173907B1F4CE018C
:1020F00001960E941C0F843169F0CE0101960E9466
:102100001C0F8C3151F4CE0101960E944D0E892B8B
:1021100091F003C0CC24C394D12C1F5F1430C1F6BE
:10212000CD2871F4D701ED91FC910084F185E02D6B
:10213000C701199505C0CE0101960E94800FEDCF11
:102140002D960FB6F894DEBF0FBECDBFDF91CF91B5
:102150001F91FF90EF90DF90CF90BF90AF900895C8
:102160006F927F928F929F92AF92BF92CF92DF92A7
:10217000EF92FF921F93CF93DF93CDB7DEB72D97EA
:102180000FB6F894DEBF0FBECDBF5C014B013A0124
:102190000E944F108DE9C82E8BE0D82E10E0E12C64
:1021A000F12C612FCE0101960E940B0FF6012191B7
:1021B00031916F01F501848195812817390731F438
:1021C000CE0101960E941C0F8731C1F01F5F1430B1
:1021D00041F7C7012D960FB6F894DEBF0FBECDBFF5
:1021E000DF91CF911F91FF90EF90DF90CF90BF9044
:1021F000AF909F908F907F906F900895A301B4014E
:10220000CE0101960E942F0EE80EF91EDFCFAF928D
:10221000BF92CF92DF92FF920F931F93CF93DF93E2
:10222000CDB7DEB72D970FB6F894DEBF0FBECDBF8A
:102230008C015B01CB010E944F108DE9C82E8BE011
:10224000D82EF12C6F2DCE0101960E940B0FF601B6
:10225000219131916F01F50184819581281739070A
:1022600051F5CE0101960E941C0F873111F08C317F
:1022700011F5CE0101960E944D0E892BE1F08B8164
:102280009C81F801938382838D819E81AF81B88583
:1022900084839583A683B78389859A85AB85BC851E
:1022A00080879187A287B38786EA95E091838083B0
:1022B0008D85848708C0F394F4E0FF12C3CF64E0F7
:1022C000C8010E940B0FC8012D960FB6F894DEBF0F
:1022D0000FBECDBFDF91CF911F910F91FF90DF9087
:1022E000CF90BF90AF9008950F9300E020E040E0C2
:1022F00060E081EB9BE00E94D1390F910895DC01F1
:10230000ED91FC91048CF58DE02D199429E336E0D4
:10231000FC0131832083FB014089518962897389E3
:10232000FC0142835383648375830895FC0184898F
:1023300095890895FC01818D928D0895CF93DF9347
:102340001F92CDB7DEB76983DC01ED91FC9102806D
:10235000F381E02D41E050E0BE016F5F7F4F1995A2
:102360000F90DF91CF9108950895CF93DF93EC0103
:10237000888D843061F00E947614E88DF0E0EE0FD5
:10238000FF1FE356F44F1182108284E0888FDF91A3
:10239000CF910895FC01178A168A6E5F7F4F808D5A
:1023A0000C944317FC01808D0C948A17CF93DF9314
:1023B000EC019A018E899F89AB01BC01888D0E9436
:1023C000FB162E893F89280F391F3F8B2E8BDF91FB
:1023D000CF9108950F931F93CF93DF931F92CDB7A3
:1023E000DEB7FC01218D328D232B61F08C0141E0A1
:1023F00050E0BE016F5F7F4F808D0E943E16181621
:1024000019061CF08FEF9FEF08C0F801818D928DA7
:102410000197928F818F898190E00F90DF91CF910A
:102420001F910F910895CF93DF93FC01218D328D81
:102430002115310519F48FEF9FEF11C0EC01421700
:10244000530708F0A901888D0E943E161816190638
:1024500094F7298D3A8D281B390B3A8F298FDF91FC
:10246000CF910895CF93DF931F92CDB7DEB7FC01D4
:10247000218D328D232B49F0BE016F5F7F4F808D00
:102480000E94CA16898190E002C08FEF9FEF0F90E3
:10249000DF91CF910895EF92FF921F93CF93DF9337
:1024A000FC01208D243011F080E01CC07B01EC0188
:1024B00010E0812F0E944F14811102C0188F05C0B7
:1024C0008831E1F31F5F1430A1F7888D843061F308
:1024D000FD86EC861A8E198E20E0A70162E00E942C
:1024E000A11481E0DF91CF911F91FF90EF900895AB
:1024F0000F931F93CF93DF93CDB7DEB728970FB617
:10250000F894DEBF0FBECDBF8C01F801818D928D96
:10251000892B49F0D801ED91FC910284F385E02DDF
:10252000C8011995F2CF808D0E949F1618161906C2
:1025300054F548E050E0BE016F5F7F4FD8015896D8
:102540008C910E943E169C0118161906D4F4BE0107
:102550006F5F7F4FC8010E960E94ED398D8190E02C
:10256000982F88272E81820F911DF801958B848BDF
:102570002F8130E0322F22278885280F311D328F9E
:10258000218FC90102C080E090E028960FB6F89430
:10259000DEBF0FBECDBFDF91CF911F910F91089588
:1025A0008F929F92AF92BF92CF92DF92EF92FF9263
:1025B0000F931F93CF93DF9300D000D0CDB7DEB73A
:1025C000FC01208D243009F068C06A017B018C0178
:1025D00053E0852E54E0952EA12CB12CC4010E940D
:1025E000A218811103C0F801A08E0AC08831D9F366
:1025F000FFEFAF1ABF0A9394E4E0AE16B10471F78F
:10260000F801808D843009F448C096E0E4E2F2E0FD
:10261000DE01119601900D929A95E1F7F7019381F1
:102620009F779C8394819D8395819E83B7016E5F84
:102630007F4F90E0982F882744E050E0845F9B4FC5
:102640000E947318F801E08CF12CF4E0EF0EF11CFD
:10265000FE2CEE246D2DC70140960E94E8176C2DCC
:10266000C70141960E94E817F801808D90E0982FED
:10267000882746E050E0BE016F5F7F4F8A5F9B4F27
:102680000E947318F801128E118E20E8A60162E0F4
:10269000808D0E94A11481E001C080E026960FB6D3
:1026A000F894DEBF0FBECDBFDF91CF911F910F9188
:1026B000FF90EF90DF90CF90BF90AF909F908F9062
:1026C0000895CF93DF93EC011B821A8288EE93E08A
:1026D000A0E0B0E08C839D83AE83BF838AED95E05C
:1026E00099838883CE010E960E94C73984E0888F33
:1026F000DF91CF910895CF92DF92EF92FF920F93E7
:102700001F93CF93DF93CDB7DEB7AF970FB6F89493
:10271000DEBF0FBECDBF8C016B017A01CE010196E9
:102720000E94C739CE0109960E946113CE018A9694
:102730000E94C7396DE87BE0CE0184960E94D50DDA
:10274000BE016C5D7F4FCE0101960E94881FAE01D5
:10275000465D5F4FB601CE0101960E94F7218130A0
:102760009105C1F4D801ED91FC910488F589E02D23
:1027700089E396E09DA38CA38CA59DA5AEA5BFA5DE
:102780008EA39FA3A8A7B9A7A701BE016C5D7F4F29
:10279000C8011995AF960FB6F894DEBF0FBECDBF36
:1027A000DF91CF911F910F91FF90EF90DF90CF902D
:1027B00008950F9300E020E040E060E087EB9BE0AD
:1027C0000E94D1390F9108950F93FC0130E080E011
:1027D00092E1AAE7B0E0481759076A077B0740F47F
:1027E000B695A795979587953F5F3630A1F737E067
:1027F00091E09327222311F020E501C020E7892FE3
:1028000086950C70082B022B0083917091830F9199
:10281000089590E0982F882744E050E0845F9B4F14
:102820000C94731890E00496982F8827860F971FB2
:102830000C94A21862E070E00C9412149B0190E0DA
:102840000496982F8827642F820F931F0C94E81703
:10285000CF93DF93C82FD62F472F64E070E00E94FC
:102860001E144D2F65E070E08C2FDF91CF910C94FA
:102870001E14462F62E070E00C941E14CF93DF9379
:10288000C82FD62F472F60E170E00E941E144D2FF5
:1028900061E170E08C2FDF91CF910C941E140F93A7
:1028A0001F93CF93DF9300D0CDB7DEB7182F00E092
:1028B00021E040E059E06DE370E0CE0101960E9416
:1028C000E41389819A810E94D60C63E070E0812F25
:1028D0000E9412148B830E94F00C8B810F900F903A
:1028E0000F90DF91CF911F910F9108950F931F9338
:1028F000CF93DF931F921F92CDB7DEB7182F00E062
:1029000021E040E059E06DE370E0CE0101960E94C5
:10291000E41389819A810E94D60C40E150E0612F36
:102920008FEB9BE00E946C1A6FEF812F0E9439148D
:102930000E94F00C0F900F90DF91CF911F910F919B
:102940000895CF92DF92EF92FF920F931F93CF9350
:10295000DF931F921F92CDB7DEB79FEF960F953092
:10296000C0F5F22E6A01E62E182F0E94761400E0C0
:1029700021E040E059E06DE370E0CE0101960E9455
:10298000E41389819A810E94D60C4E2D4F2960E074
:1029900070E0812F0E941E14C114D10411F0B60101
:1029A0000AC06091BD0B7091BE0B6F5F7F4F70933B
:1029B000BE0B6093BD0B812F0E94281441E050E0B4
:1029C000612F8FEB9BE00E946C1A0E94F00C81E05B
:1029D00001C080E00F900F90DF91CF911F910F9178
:1029E000FF90EF90DF90CF9008950F931F93CF93B8
:1029F000DF931F921F92CDB7DEB7182F00E021E0C2
:102A000040E059E06DE370E0CE0101960E94E413CE
:102A100089819A810E94D60C63E070E0812F0E9428
:102A20001214833121F00E94F00C80E00AC042E0D1
:102A300050E0612F8FEB9BE00E946C1A0E94F00C1B
:102A400081E00F900F90DF91CF911F910F9108952A
:102A5000CF92DF92EF92FF920F931F93CF93DF936A
:102A60001F921F92CDB7DEB7FB0190819F3F51F4BB
:102A700091819F3F91F492819F3F79F493819F3F91
:102A800061F432C0911109C09181911106C0928107
:102A9000911103C09381992341F14115510521F111
:102AA0006A017F01182F00E021E040E059E06DE36A
:102AB00070E0CE0101960E94E41389819A810E9400
:102AC000D60CB701812F0E940914B601812F0E94F4
:102AD0003E1444E050E0612F8FEB9BE00E946C1AA3
:102AE0000E94F00C91E001C090E0892F0F900F90B0
:102AF000DF91CF911F910F91FF90EF90DF90CF90DA
:102B000008950F931F93CF93DF931F921F92CDB71A
:102B1000DEB7182F00E021E040E059E06DE370E0FF
:102B2000CE0101960E94E41389819A810E94D60CFD
:102B300048E050E0612F8FEB9BE00E946C1A0E94EE
:102B4000F00C0F900F90DF91CF911F910F9108958E
:102B5000AF92BF92CF92DF92EF92FF920F931F93AB
:102B6000CF93DF931F921F92CDB7DEB7182F6B0163
:102B70007A014130584018F0E12C88E0F82E00E04E
:102B800021E040E059E06DE370E0CE0101960E9443
:102B9000E41389819A810E94D60C612F8FEB9BE010
:102BA0000E94DA185C0163E070E0812F0E94121429
:102BB000082F0E94F00C073111F00C3131F40E9403
:102BC000213EAE14BF04D8F202C0E12CF12C00E08B
:102BD00021E040E059E06DE370E0CE0101960E94F3
:102BE000E41389819A810E94D60C9701A601612F76
:102BF0008FEB9BE00E949A1940E250E0612F8FEB2F
:102C00009BE00E946C1A812F0E941A1484FD22C03E
:102C100063E070E0812F0E941214811108C00E94AD
:102C2000F00C812F0E94761480E090E01AC00E9480
:102C3000F00C0E94213E00E021E040E059E06DE30D
:102C400070E0CE0101960E94E41389819A810E946E
:102C5000D60CD9CF60E1812F0E9439140E94F00C6C
:102C6000C7010F900F90DF91CF911F910F91FF90AF
:102C7000EF90DF90CF90BF90AF900895AF92BF924A
:102C8000CF92DF92EF92FF920F931F93CF93DF9338
:102C90001F921F92CDB7DEB7182F5B016A0100E0CB
:102CA00021E040E059E06DE370E0CE0101960E9422
:102CB000E41389819A810E94D60C612F8FEB9BE0EF
:102CC0000E940E197C010097A1F463E070E0812F4F
:102CD0000E941214843119F1882309F121E030E0B7
:102CE0008C3111F420E030E0EE24FF24E21AF30AE4
:102CF00016C0C816D9060CF476011E141F047CF405
:102D000000E09701A501612F8FEB9BE00E941C1A48
:102D100040E450E0612F8FEB9BE00E946C1A0E9410
:102D2000F00CC7010F900F90DF91CF911F910F9181
:102D3000FF90EF90DF90CF90BF90AF9008950F93EA
:102D40001F93CF93DF9300D01F92CDB7DEB7182F1C
:102D500000E021E040E059E06DE370E0CE01019633
:102D60000E94E41389819A810E94D60C612F8FEB17
:102D70009BE00E940E198B839C830E94F00C8B8138
:102D80009C810F900F900F900F90DF91CF911F912A
:102D90000F910895EF92FF920F931F93CF93DF93BC
:102DA0001F921F92CDB7DEB7182F7B0100E021E004
:102DB00040E059E06DE370E0CE0101960E94E4131B
:102DC00089819A810E94D60C01E021E030E0A701C0
:102DD000612F8FEB9BE00E941C1A0E94F00C81E097
:102DE00090E00F900F90DF91CF911F910F91FF9086
:102DF000EF90089508958F929F92AF92BF92DF92C5
:102E0000EF92FF920F931F93CF93DF931F921F9226
:102E1000CDB7DEB7D82E5B014A01790100E021E091
:102E200040E059E06DE370E0CE0101960E94E413AA
:102E300089819A810E94D60C6D2D8FEB9BE00E94B8
:102E4000DA188E159F0530F46D2D8FEB9BE00E94F4
:102E5000DA187C0187019401A5016D2D8FEB9BE0B1
:102E60000E942A190E94F00CC7010F900F90DF9169
:102E7000CF911F910F91FF90EF90DF90BF90AF9097
:102E80009F908F900895CF92DF92EF92FF920F93D1
:102E90001F93CF93DF931F921F92CDB7DEB7FB0135
:102EA0009081911109C09181911106C09281911177
:102EB00003C09381992309F141155105F1F06A018D
:102EC0007F01182F00E021E040E059E06DE370E061
:102ED000CE0101960E94E41389819A810E94D60C4A
:102EE000B701812F0E940914B601812F0E943E1460
:102EF0000E94F00C81E090E002C080E090E00F9032
:102F00000F90DF91CF911F910F91FF90EF90DF9085
:102F1000CF9008950F931F93CF93DF931F921F922B
:102F2000CDB7DEB7182F00E021E040E059E06DE3B7
:102F300070E0CE0101960E94E41389819A810E947B
:102F4000D60C40E250E0612F8FEB9BE00E946C1AA0
:102F5000812F0E941A1484FD21C0812F0E941A140F
:102F600083FF09C068E1812F0E9439140E94F00C90
:102F700080E090E01BC00E94F00C0E94213E00E027
:102F800021E040E059E06DE370E0CE0101960E943F
:102F9000E41389819A810E94D60CDACF60E1812FF7
:102FA0000E9439140E94F00C81E090E00F900F9085
:102FB000DF91CF911F910F9108958EBD00000DB448
:102FC00007FEFDCF8EB508952C9808952C9A08958C
:102FD0001F93CF93DF931F921F92CDB7DEB7182FA9
:102FE0006A8399830E94E41780EF0E94DD1799811C
:102FF000892F0E94DD17812F0E94DD176A81862F9D
:103000000E94DD170E94E61781E00F900F90DF917C
:10301000CF911F910895CF93DF93EC016CE271E0A3
:1030200080E090E00E94B13E0E948422249A809128
:10303000DD0B882399F02FB7F8948091DD0B813058
:1030400059F48DB38093DB0B9DB38091DC0B80959D
:1030500089238DBB2FBF02C02093DB0B80E58CBD85
:103060001DBC60E880E090E00E94E81765E58BE118
:1030700090E00E94E81765E58AE190E00E94E81779
:103080008091DD0B882351F09FB7F8942091DD0BE0
:103090008091DB0B213029F58DBB9FBF80E090E450
:1030A0009983888380E090E69987888780E098E418
:1030B0009B838A8380E098E69B878A8780E090E5FF
:1030C0009D838C8380E090E79D878C8780E098E5E6
:1030D0009F838E8380E098E79F878E87DF91CF91D3
:1030E00008958FBFDBCFCF92DF92EF92FF920F93C5
:1030F0001F93CF93DF93EC017A018B016C01C40E17
:10310000D51ECC15DD05A1F00E94E41780EF0E94CA
:10311000DD178D2F0E94DD178C2F0E94DD17219661
:10312000F80181918F010E94DD170E94E617E9CF17
:10313000C701DF91CF911F910F91FF90EF90DF902A
:10314000CF9008951F93CF93DF931F92CDB7DEB733
:10315000182F99830E94E4178FE00E94DD17998150
:10316000892F0E94DD17812F0E94DD1780E00E94C9
:10317000DD1789830E94E61789810F90DF91CF9137
:103180001F9108951F93CF93DF93182F60E270E093
:103190000E941214C82FD0E061E270E0812F0E94DB
:1031A0001214DC2FCC279E01282BC901DF91CF916F
:1031B0001F910895FF920F931F93CF93DF93F62EE5
:1031C000C0E0D0E08F2D0E94C2188C01892B21F025
:1031D0008F2D0E94C218EC01C017D10799F7CE01BC
:1031E000DF91CF911F910F91FF9008951F93CF937F
:1031F000DF93182F66E270E00E941214C82FD0E00F
:1032000067E270E0812F0E941214DC2FCC279E0110
:10321000282BC901DF91CF911F910895FF920F9341
:103220001F93CF93DF93F62EC0E0D0E08F2D0E9446
:10323000F6188C01892B21F08F2D0E94F618EC01D5
:10324000C017D10799F7CE01DF91CF911F910F9150
:10325000FF9008956F927F928F929F92AF92BF924C
:10326000CF92DF92EF92FF920F931F93CF93DF9352
:103270001F92CDB7DEB7882E962E6A01590164E2FF
:1032800070E0892D99830E941214E82EF12C65E2DA
:1032900070E0892D0E941214FE2CEE24E82A3701DA
:1032A0006C0C7D1CA3015770E82C9981F92EE90C58
:1032B000F11CE90CF11CF70180819181840F951FAD
:1032C0009A01200F311F2130384098F060E078E0FB
:1032D0006B01C41AD50AA601B5010E947318A80192
:1032E0004C195D09B5016C0D7D1DF701808191813F
:1032F00002C0A801B5010E947318060D171D412FC9
:1033000064E270E0892D0E941E14402F65E270E097
:10331000892D0F90DF91CF911F910F91FF90EF902A
:10332000DF90CF90BF90AF909F908F907F906F90E5
:103330000C941E140F931F9389019A0140E050E0F2
:103340000E942A191F910F910895CF92DF92EF9258
:10335000FF920F931F93CF93DF93EC017A018B01C0
:103360006C01C40ED51ECC15DD05A9F00E94E41732
:103370008FE00E94DD178D2F0E94DD178C2F0E9499
:10338000DD17219680E00E94DD17F80181938F01FF
:103390000E94E617E8CFC701DF91CF911F910F91EF
:1033A000FF90EF90DF90CF900895AF92BF92CF92B1
:1033B000DF92EF92FF920F931F93CF93DF931F92B1
:1033C0001F92CDB7DEB75A834983590129813A81CB
:1033D00037706C01C60ED11CC60ED11CF60180855B
:1033E0009185820F931FA801420F531F413058400F
:1033F00098F0E0E0F8E07F01E21AF30AA701B501D6
:103400000E94A519A8014E195F09B5016E0D7F1D17
:10341000F6018085918502C0A801B5010F900F903B
:10342000DF91CF911F910F91FF90EF90DF90CF90A0
:10343000BF90AF900C94A5198F929F92AF92BF92BC
:10344000CF92DF92EF92FF920F931F93CF93DF9370
:103450006C01962E5A017901802E68E270E0892D68
:103460000E941214C82FD0E069E270E0892D0E94FA
:103470001214DC2FCC27C82B87019501AE01692DD2
:10348000C6010E94D51981101AC0CE0DDF1D4D2F27
:1034900068E270E0892D0E941E144C2F69E270E0F2
:1034A000892DDF91CF911F910F91FF90EF90DF90C9
:1034B000CF90BF90AF909F908F900C941E14DF918F
:1034C000CF911F910F91FF90EF90DF90CF90BF9021
:1034D000AF909F908F900895CF93C62F61E070E0DA
:1034E0008C2F0E941E1461E070E08C2F0E94121439
:1034F0008111F9CFCF9108950E9624E1FC0111922C
:103500002A95E9F70895CF93DF93EC01625F7F4F2F
:103510000E94DD39CE01DF91CF910895CF93DF93E3
:10352000EC016E5E7F4F0E94DD39CE01DF91CF91BD
:103530000895CF93DF93EC016A5E7F4F0E94DD39DF
:10354000CE01DF91CF910895CF93DF93EC01625EBE
:103550007F4F0E94DD39CE01DF91CF91089580E346
:10356000FB0180833296842F82958F7090E1899F32
:10357000401911244A3014F4405D01C0495C429363
:10358000482F8111F0CF08950F9300E020E040E034
:1035900060E08FEC9BE00E94D1390F9108957F92FB
:1035A0008F929F92AF92BF92CF92DF92EF92FF9253
:1035B0000F931F93CF93DF93CDB7DEB7AC970FB6C2
:1035C000F894DEBF0FBECDBF7C01762E942E852EE3
:1035D00020E2B22ECE0101966C01FC012B2D11923E
:1035E0002A95E9F70FEF2FEF4FEF6FEF86960E94C6
:1035F000D13989E396E09AA389A389A59AA5ABA5B9
:10360000BCA58BA39CA3ADA3BEA387010D5B1F4FDD
:1036100043E450E0BE016F5D7F4FC8010E94CA11B4
:10362000019609F4BFC081E089838A8386E0A82ED1
:10363000AB821C82F70164817581868197810E942B
:10364000A8406D837E838F83988789869A8680E8D9
:1036500090E09C878B874CE150E0B601C8010E9446
:10366000D611F6012B2D11922A95E9F7470188E032
:10367000880E911CF401D60101900D92AA94E1F7F5
:1036800040E150E0B601C8010E94D611F601119246
:10369000BA94E9F796E0A92EB12C40E250E0B601C9
:1036A000C8010E94D611F1E0AF1AB108B1F783E664
:1036B000898392E89A8393E59B838C8385E38D834A
:1036C00081E08E837F829DE3988797E099878A8740
:1036D00086E0F401DE011B9601900D928A95E1F7D8
:1036E0008CE0898B8A8B6EEF75E0CE0143960E9449
:1036F0008A43F7014385BE01675E7F4FC7010E9481
:10370000AF1AF7014485BE01655E7F4FC7010E9475
:10371000AF1AF7014585BE01635E7F4FC7010E9466
:10372000AF1A4EE150E0B601C8010E94D611F3E095
:103730007F121EC082E3898384E08A83F701968525
:103740009B8397859C8390899D8391899E8396E333
:103750009F838887828D8987838D8A87848D8B87D5
:10376000858D8C874CE050E0B601C8010E94D611CF
:1037700087E3898386E08A8391E09B8393E09C833F
:103780008D838FE08E838AE38F838BE388878FEF2F
:10379000898749E050E0B601C8010E94D611C801EE
:1037A0000E94D211AC960FB6F894DEBF0FBECDBF0B
:1037B000DF91CF911F910F91FF90EF90DF90CF900D
:1037C000BF90AF909F908F907F9008952F923F92DF
:1037D0004F925F926F927F928F929F92AF92BF9221
:1037E000DF92EF92FF920F931F93CF93DF93CDB7AA
:1037F000DEB7E4970FB6F894DEBF0FBECDBF7C01F5
:103800001A012B0139010E94803E4B015C018701A6
:103810000D5B1F4FC8010E94781218161906A4F0FC
:103820000E94803EDC01CB0188199909AA09BB09D5
:10383000281639064A065B06F0F062E370E080E085
:1038400090E00E94B13EE6CF42E250E0BE016F5FE1
:103850007F4FC8010E9413128981823031F4F80130
:10386000848995898334910541F0D12CC8010E9447
:10387000B4118D2D5FC18FEF5DC16D817E818F8110
:1038800098850E94A8404B015C01F301608371831D
:103890008283938346E050E0B701685F7F4FCE019B
:1038A0004D960E946043892B99F4F70180819181A4
:1038B000A281B38188169906AA06BB0648F08481C6
:1038C0009581A681B78188159905AA05BB0528F4BD
:1038D000C8010E94B41180E02DC189899A89AB8901
:1038E000BC89F70186879787A08BB18B8EECA82EB9
:1038F000B12CC8010E94EA11F1E0AF1AB108C9F772
:10390000D12CC70182969AA789A7F701B696FCA782
:10391000EBA708969EA78DA73C974F01899698AB79
:103920008FA73897FAABE9AB1701F6E12F0E311CE0
:10393000C5979CAB8BABC8010E949A11181619064B
:103940000CF094CFC8010E94EA118333910509F469
:10395000CBC0FCF481309105C9F11CF4892B59F3DB
:10396000DDC083309105D1F1069709F0D7C0C801B9
:103970000E94EA115C0144E050E06BA97CA9C801F7
:103980000E941312412C512CBB24F4E0AF1AB10851
:1039900040C08A33910509F47BC03CF4853391051E
:1039A00069F0C69709F440C0B9C08B33910509F49A
:1039B00085C08F3F910509F4BECFB0C0C8010E94F9
:1039C000EA11C8010E94EA11D82EB5CFC8010E94A1
:1039D000EA1144E050E069A97AA93AC0C8010E94FE
:1039E000EA115C0144E050E0B101C8010E941312E9
:1039F000412C512CBB2494E0A91AB1084A145B0451
:103A00000CF099CFC8010E94EA11EFEF4E1A5E0A3E
:103A1000F5CF4A145B040CF08ECFC8010E94EA1166
:103A20008FEF481A580AF5CFC8010E94EA11B82E44
:103A3000F701828D811110C0838D81110DC0848D9D
:103A400081110AC0858D811107C044E050E0B401A6
:103A5000C8010E9413126FCFEFA5F8A940805180D2
:103A600062807380B401CE0183960E94DD398DA1FE
:103A70009EA1AFA1B8A584159505A605B70529F3A4
:103A8000BB2009F458CFC8010E94EA11BA94F8CFBC
:103A9000C8010E94EA1144E050E06BA57CA5C80172
:103AA0000E941312F70166A177A180A591A50E943B
:103AB000A84066A377A380A791A73DCFC8010E9425
:103AC000EA1144E050E06DA57EA5C8010E941312E2
:103AD000F70162A573A584A595A50E94A84062A7D9
:103AE00073A784A795A727CFC8010E94EA1144E0D5
:103AF00050E069A57AA5C8010E941312F70162A1DE
:103B000073A184A195A10E94A84062A373A384A37A
:103B100095A366A777A780AB91AB0DCFC8010E9494
:103B2000EA11B82EBB2009F406CFC8010E94EA11A1
:103B3000BA94F8CFE4960FB6F894DEBF0FBECDBFAF
:103B4000DF91CF911F910F91FF90EF90DF90BF9089
:103B5000AF909F908F907F906F905F904F903F902D
:103B60002F9008952F923F924F925F926F927F9283
:103B70008F929F92AF92BF92CF92DF92EF92FF927D
:103B80000F931F93CF93DF93CDB7DEB727970FB671
:103B9000F894DEBF0FBECDBF8C0120ED37E040E0D2
:103BA00050E061E070E080E090E00E94663BD80168
:103BB00014966D937D938D939C931797F801608372
:103BC0007183828393835801F3E4AF0EB11CC50166
:103BD0000E94B51164E470E0C5010E944B12882375
:103BE00009F43CC10E94803E2B013C01812C912CA8
:103BF0001D82C8018E5B9F4F9F838E8343E0342ECE
:103C000058EEC52E53E0D52EE12CF12C62E0262E85
:103C1000AE81BF818C91833009F407C1811120C02E
:103C2000F80184819581A681B7810196A11DB11DFE
:103C300084839583A683B7830E94803E64197509A7
:103C400086099709A70196010E945F40A90161E0DA
:103C5000C8010E94CF1A81E0AE81BF818C93C6C09B
:103C60008430F9F4F80184819581A681B7810196A9
:103C7000A11DB11D84839583A683B7830E94803ED6
:103C80006419750986099709A70196010E945F408A
:103C9000A90163E0C8010E94CF1AAE81BF812C92B6
:103CA000A5C0813061F5F80142AD53AD64AD75AD8D
:103CB0009E012F5F3F4FC8010E94E61B8D8382301B
:103CC00009F094C089819A81AB81BC81F801848319
:103CD0009583A683B7830E94803E6419750986097F
:103CE0009709A70196010E945F40A90163E0C801FE
:103CF0000E94CF1AED81AE81BF81EC937EC08230ED
:103D000009F074C0D801DA964D915D916D917C9166
:103D1000DD979E012F5F3F4FC8010E94E61B8D83F8
:103D2000853009F05CC0EE81FF813082F80182A10C
:103D300093A1A4A1B5A1892B8A2B8B2B41F484E8F4
:103D400093E0A0E0B0E082A393A3A4A3B5A3F801FD
:103D500086A197A1A0A5B1A5892B8A2B8B2B61F4F5
:103D600082A193A1A4A1B5A1B695A7959795879592
:103D700086A397A3A0A7B1A7F80182A593A5A4A5A0
:103D8000B5A5892B8A2B8B2BA9F482A193A1A4A181
:103D9000B5A1AC01BD0123E0769567955795479590
:103DA0002A95D1F7841B950BA60BB70B82A793A777
:103DB000A4A7B5A7F80186A197A1A0A5B1A586A73C
:103DC00097A7A0ABB1AB82A593A5A4A5B5A582ABDF
:103DD00093ABA4ABB5AB88248394912C0EC0FD812A
:103DE000F63021F4AE81BF811C9207C0BD81BF3F78
:103DF00021F4EE81FF8110821D82F1E08F16910483
:103E000009F406CF0E94803EDC01CB01841995099C
:103E1000A609B709F80126A937A940AD51AD281761
:103E200039074A075B0708F0F3CEC5010E94B511B8
:103E3000F80184819581A681B7810196A11DB11DEC
:103E400084839583A683B7830E94803EF801FE9603
:103E50006083718382839383C40102C080E090E019
:103E600027960FB6F894DEBF0FBECDBFDF91CF917E
:103E70001F910F91FF90EF90DF90CF90BF90AF9088
:103E80009F908F907F906F905F904F903F902F907A
:103E90000895CF92DF92EF92FF920F931F93CF93EB
:103EA000DF93EC016B011AA21BA21CA21DA21EA291
:103EB0001FA218A619A61AA61BA61CA61DA62EABE5
:103EC0003FAB48AF59AFEAAEFBAE0CAF1DAF8C01B4
:103ED000085F1F4F86E0F80111928A95E9F7CE013D
:103EE0000E947C1A86E0F601D80101900D928A9515
:103EF000E1F7FE01EE5BFF4F1082CE01DF91CF9123
:103F00001F910F91FF90EF90DF90CF900C94B21D16
:103F1000FB014281538164817581FC01428353839B
:103F200064837583178216820895CF93DF93FB0114
:103F300020E080E090E0AAE03191332301F160EDD0
:103F4000630F6A3080F4A89FB001A99F700D1124FF
:103F5000CB01C097830F911D37FD9A958F3F910537
:103F600059F350F313C03E3289F4233079F0EA015B
:103F7000C20FD11D8A832F5F80E090E0DDCF233018
:103F800029F4FA01858381E090E002C080E090E0AE
:103F9000DF91CF9108950F9300E020E040E060E0D2
:103FA00085ED9BE00E94D1390F9108958F929F92E9
:103FB000AF92BF92CF92DF92EF92FF920F931F9337
:103FC000CF93DF9300D01F921F92CDB7DEB78C0145
:103FD0006B010E94803EF80177836683762767270E
:103FE00076277A836983085F1F4F42E050E0BE0165
:103FF0006F5F7F4FC8010E94D61181E090E09C83E3
:104000008B8342E050E0BE016D5F7F4FC8010E948C
:10401000D61180E091E09C838B8342E050E0BE01AA
:104020006D5F7F4FC8010E94D6111C821B8242E047
:1040300050E0BE016D5F7F4FC8010E94D61142E083
:1040400050E0BE016D5F7F4FC8010E94D61142E073
:1040500050E0BE016D5F7F4FC8010E94D61156012E
:10406000F5018081882329F1C6017C01FC012081B2
:104070000196211116C0570147018C189D0818148C
:10408000190494F48D8241E050E0BE016B5F7F4FD4
:10409000C8010E94D611A401B601C8010E94D61120
:1040A00003C02E3211F7E7CF6701FFEFCF1ADF0A07
:1040B000D7CF1D8241E050E0BE016B5F7F4FC8014A
:1040C0000E94D611E12CFF24F394FC82EB8242E0A3
:1040D00050E0BE016D5F7F4FC8010E94D611FC8287
:1040E000EB8242E050E0BE016D5F7F4FC8010E944D
:1040F000D61181E090E00F900F900F900F900F90ED
:10410000DF91CF911F910F91FF90EF90DF90CF90B3
:10411000BF90AF909F908F9008954F925F926F9253
:104120007F928F929F92AF92BF92CF92DF92EF9247
:10413000FF920F931F93CF93DF93CDB7DEB76597B1
:104140000FB6F894DEBF0FBECDBF7C015B016A01E4
:104150000E94803E2B013C018701085F1F4F4501F3
:10416000A12CB12CC8010E94781218161906A4F0CF
:104170000E94803EDC01CB0184199509A609B7098C
:1041800088169906AA06BB06D0F062E370E080E0CC
:1041900090E00E94B13EE6CFF701428153816481F5
:1041A0007581808D918DA28DB38D481759076A074F
:1041B0007B0741F4848D958DC59721F406C02FEFC0
:1041C0003FEFFDC02EEF3FEFFAC0C8010E949A11E9
:1041D0000C97ECF04CE050E0BE016F5F7F4FC801E0
:1041E0000E9413126C818B810E94883B9A8B898B71
:1041F000F701E680F7806A8189810E94883BE81692
:10420000F90641F489899A8997FF04C009C02DEF06
:104210003FEFD5C0C8010E94B4112CEF3FEFCFC0D3
:104220008F709270892B31F0C8010E94B4112BEF6E
:104230003FEFC5C068858F810E94883B5C01892B58
:1042400031F4C8010E94B4112AEF3FEFB8C0E12C4D
:10425000F12C6E818D810E94883BE816F90640F5AD
:1042600041E050E0BE01635F7F4FC8010E9413121E
:104270008D85811113C08D858111F2CFC8010E94F7
:10428000EA11C8010E94EA11C8010E94EA11C8019E
:104290000E94EA11FFEFEF1AFF0ADBCF8D859FEF37
:1042A000980F9D87882339F3C8010E94EA11F6CF41
:1042B000E12CF12C41E050E0BE016D5E7F4FC80162
:1042C0000E9413128B89982F907C61F4882371F0DF
:1042D0008B899FEF980F9B8B882341F0C8010E9428
:1042E000EA11F6CFC8010E94EA111B8A8B8981115D
:1042F000E1CF42E050E0BE01615F7F4FC8010E9404
:10430000131242E050E0BE01635F7F4FC8010E947C
:104310001312C8010E94EA11C8010E94EA11C801E3
:104320000E94EA11C8010E94EA1142E050E0BE0179
:104330006F5E7F4FC8010E9413128F859889811587
:10434000914001F52D853E853227232732272130E4
:104350003105C1F489899A898115944031F0C801E9
:104360000E94B41127EF3FEF2AC0B6016E5F7F4F66
:1043700044E050E0C8012C8B3D8B0E9413122C8925
:104380003D891DC0812C912C89899A89982789277C
:1043900098278816990638F4C8010E94EA118FEF11
:1043A000881A980AF1CFEFEFEE1AFE0AEA14FB041E
:1043B00009F080CFC8010E94B41126EF3FEFC90178
:1043C00065960FB6F894DEBF0FBECDBFDF91CF91DB
:1043D0001F910F91FF90EF90DF90CF90BF90AF9023
:1043E0009F908F907F906F905F904F9008958F92E5
:1043F0009F92AF92BF92CF92DF92EF92FF920F9374
:104400001F93CF93DF9300D000D0CDB7DEB77C01F0
:104410004B015A010E94951F8C01892B09F05BC04A
:10442000F70142815381648175818091D70B90910E
:10443000D80BA091D90BB091DA0B481759076A072E
:104440007B0709F44BC00E94803E6701F8E0CF0E65
:10445000D11C6F7077277C5FC6010E944B128130A0
:1044600009F03EC089E396E09A838983F70182814F
:104470009381A481B5818B839C83AD83BE8345E307
:1044800050E0BE016F5F7F4FC6010E94CA11892BA9
:1044900019F400E010E01BC0B401C7010E94D61F50
:1044A000892BB9F3C6010E94D211892B91F383E0C5
:1044B000882E912CA50168E873E1C7010E948D2028
:1044C0008C01F1E08F1A910811F0019699F3C60161
:1044D0000E94B51105C001E010E002C00EEF1FEF11
:1044E000C80126960FB6F894DEBF0FBECDBFDF9190
:1044F000CF911F910F91FF90EF90DF90CF90BF90E1
:10450000AF909F908F900895CF93CFB7F8948091FC
:10451000DE0B811127C0E1E4F3E08491EBEFF2E0E0
:104520009491E82FF0E0EE0FFF1FEA57FC4FA591A2
:10453000B491EC91E92321F461E085E30E94064007
:1045400061E085E30E94CA3F8CB580618CBD8CB56B
:1045500080648CBD61E084E30E94CA3F61E083E334
:104560000E94CA3F8091DE0B8F5F8093DE0BCFBF2E
:10457000CF910895CF93DF93C3E1D2E08091DF0B19
:104580009091E00B6991DC01ED91FC910190F0813B
:10459000E02D1995B2E0CD31DB0781F7DF91CF91A6
:1045A0000895FC013196079620E030E04191240FF8
:1045B000311DE817F907D1F788279927821B930B3C
:1045C000089583E192E00E94D122E3E1F2E0978333
:1045D000808708959093E00B8093DF0B8AEB92E243
:1045E0009093E20B8093E10B0895E3E1F2E0838383
:1045F000758366830E94E122E091E10BF091E20B6A
:104600001994BC0186E00C94F522BC0182E10C9463
:10461000F522CF93DF931F92CDB7DEB76983DC011C
:10462000ED91FC910280F381E02D41E050E0BE016C
:104630006F5F7F4F19950F90DF91CF910895CF93C2
:10464000DF93EC01898D9A8D009739F481E090E039
:104650009B838A8380E090E00BC0FC01138212826E
:104660000E94FC2FE98DFA8D22813381232B71F773
:10467000DF91CF910895FC01818D928D009711F00B
:104680000C94502D0895CF93DF931F92CDB7DEB7D2
:1046900041E050E0BE016F5F7F4F0E946C2B01979D
:1046A00019F4898190E002C08FEF9FEF0F90DF91A6
:1046B000CF910895FC01818D928D009711F00C949B
:1046C00043238FEF9FEF08950F931F93CF93DF93B3
:1046D000FC01818D928D0097B9F0EF010E94432378
:1046E0008C010F3F8FEF180791F0898D9A8DFC0197
:1046F0004285538564857585415051096109710969
:104700000E94BA2CC80105C080E090E002C08FEF83
:104710009FEFDF91CF911F910F910895EF92FF923C
:104720000F931F93CF93DF93EC017B018A011B82D0
:104730001A8288EE93E0A0E0B0E08C839D83AE8384
:10474000BF8389E096E0998388838DE190E00E94A1
:10475000C9409A8F898F009779F02DE1F701DC012C
:1047600001900D922A95E1F74CE050E0B801CE019E
:104770000C960E949143188EDF91CF911F910F915B
:10478000FF90EF900895FC011382128288EE93E06F
:10479000A0E0B0E084839583A683B78389E096E0A8
:1047A00091838083128E118E14860895FC01818D71
:1047B000928D009729F00E94BA2C91E0811101C0DE
:1047C00090E0892F0895DC015996ED91FC915A975C
:1047D000309729F0628573858485958508956FEFFC
:1047E0007FEFCB010895DC015996ED91FC915A972A
:1047F000309729F06389748985899689089560E0E6
:1048000070E0CB010895CF92DF92EF92FF92CF93A9
:10481000DF93FC01218D328D232BD9F0EC010E9416
:10482000F3236B017C01CE010E94E323A7019601D3
:10483000261B370B480B590BDA01C901811530E8EB
:104840009307A105B10538F08FEF9FE7A0E0B0E036
:1048500002C080E090E0DF91CF91FF90EF90DF9079
:10486000CF900895CF93DF93EC01898D9A8D0097B7
:1048700041F00E94972D898D9A8D0E945E411A8E7B
:10488000198EDF91CF910895DC015996ED91FC913D
:104890005A97309721F081E09581911101C080E015
:1048A0000895442339F00E94D52F91E0811103C06F
:1048B00090E001C091E0892F08950F931F93CF934B
:1048C000DF93EC018B0141E00E944035811109C06A
:1048D00040E0B801CE01DF91CF911F910F910C9470
:1048E000403581E0DF91CF911F910F9108950F9393
:1048F0001F93CF93DF93DA01EB0128813981FC010B
:10490000E20FF31F40814F3211F42F5F3F4F8D01B3
:10491000E0E0F0E0AC01420F531FEA0158815F3242
:1049200059F0552349F031962F5F3F4FE8015993D5
:104930008E01EC30F10571F7EA0FFB1F1082FC01CC
:10494000E20FF31F40814F3211F42F5F3F4FFB0105
:1049500031832083FC01E20FF31F81E090819111EC
:1049600001C080E0DF91CF911F910F9108954F9288
:104970005F926F927F928F929F92AF92BF92CF92EF
:10498000DF92EF92FF920F931F93CF93DF93CDB7F8
:10499000DEB7C954D1090FB6F894DEBF0FBECDBF44
:1049A0005C016B013A01490119A218A28BE196E062
:1049B0009F8F8E8F1BA21C821B829A8389831E82EB
:1049C0002A961FAE1EAE2A978B017E018EE1E80E5D
:1049D000F11C44244394AE01455C5F4FBE01685B0B
:1049E0007F4FC5010E947724582E482F44259401FB
:1049F000BE01655C7F4FC801F3011995811108C0A4
:104A00000C151D0519F0C8010E94972D80E027C0E4
:104A10005520B9F021E0AE01455C5F4FB801C701F8
:104A20000E94CB2E582E0C151D0599F0C8010E942E
:104A3000972D552059F3902F812F8701E92EF82EBD
:104A4000CACF0C151D0519F0C8010E94972D81E0F1
:104A500006C08823D9F28E010F5F1F4FECCFC75BD2
:104A6000DF4F0FB6F894DEBF0FBECDBFDF91CF9101
:104A70001F910F91FF90EF90DF90CF90BF90AF907C
:104A80009F908F907F906F905F904F9008950F93BD
:104A90001F93CF93DF93EC01462F61E00E9415280E
:104AA000882389F08E01045F1F4FBE01C8010E9458
:104AB0005D24882341F0B801CE018A960E941B2B09
:104AC00091E0811101C090E0892FDF91CF911F917A
:104AD0000F910895FC01DB0112968D919C91139723
:104AE000938382838BE196E09183808314968C91EB
:104AF0001497848315968C911597858316964D91FE
:104B00005D916D917C91199746835783608771877A
:104B10001A964D915D916D917C911D9742875387B7
:104B2000648775871E964D915D916D917C9151972B
:104B300046875787608B718B52968C915297828BE8
:104B400053964D915D916D917C915697438B548B0B
:104B5000658B768B57964D915D916D917C915A97AF
:104B6000478B508F618F728F5B968D919C915C9774
:104B7000948F838F08954F925F926F927F928F925E
:104B80009F92AF92BF92CF92DF92EF92FF920F93DC
:104B90001F93CF93DF93CDB7DEB7C754D1090FB6BC
:104BA000F894DEBF0FBECDBF6C015A014901665DAE
:104BB0007F4F7E018EE1E80EF11CC7010E946A253D
:104BC0001C821B828BE196E09A8389831E82850179
:104BD000FE0131963F0127016FE270E0C8010E949B
:104BE00076430097D9F1F80120812F3219F40F5F35
:104BF0001F4FF2CF801B8D3008F08CE0E82EF12C97
:104C0000A701B801CE01CB960E949143EBE3F0E0FF
:104C1000EC0FFD1FEE0DFF1D1082C3010E94972DAA
:104C200021E0AE01455C5F4FB201C3010E94CB2E73
:104C3000811109C0F601138212828BE196E0918303
:104C40008083158214C00E0D1F1DC2010E94972D76
:104C5000942D852D2301692E782EBECF0A191B09AC
:104C6000F40111830083B201C6010E946A25C601C6
:104C7000C95BDF4F0FB6F894DEBF0FBECDBFDF912B
:104C8000CF911F910F91FF90EF90DF90CF90BF9049
:104C9000AF909F908F907F906F905F904F9008950E
:104CA000AF92BF92CF92DF92FF920F931F93CF9359
:104CB000DF93CDB7DEB7C955D1090FB6F894DEBF83
:104CC0000FBECDBF6C015B018A01F22E9E01285AF6
:104CD0003F4FCE01CB960E94BB256A968EAD9FAD0D
:104CE0006A97080F191FF801808181110AC0BE015F
:104CF000655C7F4FCE0101960E946A2543E253E036
:104D000041C019A218A28BE196E09F8F8E8F1BA243
:104D100021968FAD2197811104C0C6010E94C32343
:104D200037C08250823060F4B501665D7F4F2F2D11
:104D3000A801CE014E960E94CB2E811110C0EDCF5E
:104D40002F2DA801BE01655C7F4FCE014E960E94BB
:104D5000CB2E882311F3CE01CB960E94972D9F2D49
:104D6000967041F049A95AA96BA97CA9CE014E962B
:104D70000E94BA2CBE01625E7F4FCE0101960E9456
:104D80006A25A801BE016F5F7F4FC6010E948E2376
:104D9000C601C75ADF4F0FB6F894DEBF0FBECDBFB6
:104DA000DF91CF911F910F91FF90DF90CF90BF9037
:104DB000AF900895FB01BC01665D7F4F20E030E0BD
:104DC00041E554E2CF010C94B724E3EEFBE01582F9
:104DD00016821186138682E090E0A0E0B0E084871E
:104DE0009587A687B78713A215A614A68BE196E030
:104DF00093A782A717A608958FEF0C94DD1761E0A3
:104E0000FC0184810E94064080912C0C882321F0B3
:104E100010922C0C0C94F00C0895CF93DF93EC01BE
:104E200080912C0C811109C081E080932C0C809121
:104E30002D0C90912E0C0E94D60C60E08C81DF919D
:104E4000CF910C940640CF93DF93EC018E818823A1
:104E500089F08F8198859C012F5F3F4F38872F8382
:104E60008230924018F40E94FC26F3CFCE010E94BB
:104E7000FF261E82DF91CF9108950F93CF93DF938A
:104E80001F921F92CDB7DEB7673028F026E1FC01F4
:104E9000258380E047C06230F9F058F46623A9F01A
:104EA000613079F500E021E040E059E06DE370E029
:104EB0002EC06430F9F0B8F0653019F500E021E05B
:104EC00040E950ED63E070E022C000E021E040E402
:104ED00058E76DE771E01BC000E021E040E854E8CE
:104EE0006EE170E014C000E021E040E452E46FE0C5
:104EF00070E00DC000E021E040E251EA67E070E0C0
:104F000006C000E021E048E458EE61E070E0CE0128
:104F100001960E94E41389819A8190932E0C8093CC
:104F20002D0C81E00F900F90DF91CF910F9108959C
:104F30000F931F93CF93DF93EB010E94803E8B0171
:104F40000E94FC268F3F49F00E94803E601B710B3F
:104F50006C177D07A8F380E001C081E0DF91CF915D
:104F60001F910F910895CF92DF92FF920F931F939D
:104F7000CF93DF9300D01F92CDB7DEB76C01F62E32
:104F800029833A834B835C830E942327C6010E94B6
:104F90000D276CE271E0C6010E9498278F2D806476
:104FA0000E94DD1708E110E05C814B813A81298184
:104FB000DA01C901002E04C0B695A795979587958B
:104FC0000A94D2F729833A834B835C830E94DD17CE
:104FD0000850110929813A814B815C81083F8FEF8C
:104FE000180731F7FF2029F0E8E0FE1204C087E837
:104FF00003C085E901C08FEF0E94DD1710E00E9419
:10500000FC26F601828787FF04C01F3F11F01F5F57
:10501000F6CF0F900F900F900F90DF91CF911F91CF
:105020000F91FF90DF90CF9008957F928F929F9283
:10503000AF92BF92CF92DF92EF92FF920F931F93A6
:10504000CF93DF931F921F92CDB7DEB77C01762EF0
:10505000FC01138611861682158244830E94803ECD
:105060006B0161E0F70184810E94CA3F61E0F701B2
:1050700084810E9406400E94842200E021E040E9F1
:1050800050ED63E070E0CE0101960E94E413898147
:105090009A8190932E0C80932D0C0E94D60C1AE0CE
:1050A0008FEF0E94DD171150D9F70E94F00CC70155
:1050B0000E940D2720E030E0A90160E0C7010E94B6
:1050C000B327082FF7018287813049F00E94803E84
:1050D0006C197D09613D774068F381E04FC02AEA91
:1050E00031E040E050E068E0C7010E94B32782FF52
:1050F00003C0F70103870EC004E00E94FC26F701FD
:1051000082870150D1F78A3A11F082E038C082E0FC
:10511000F7018387F7018385823021F0812C912C60
:10512000540105C0812C912CA12C80E4B82E20E0E4
:1051300030E0A90167E3C7010E94B327A5019401EC
:1051400069E2C7010E94B327F7018287882349F0EB
:105150000E94803E6C197D09613D774040F388E0F4
:105160000DC083858230F1F420E030E0A9016AE3CC
:10517000C7010E94B327882339F086E0F7018583B1
:10518000C7010E94FF2616C00E94FC26807C803C3E
:1051900019F483E0F70183870E94FC260E94FC2615
:1051A0000E94FC26C7010E94FF26672DC7010E94AE
:1051B0003D27182F812F0F900F90DF91CF911F91D6
:1051C0000F91FF90EF90DF90CF90BF90AF909F90A6
:1051D0008F907F9008950F931F93CF93DF93EC01EF
:1051E0000E94803E8B010E94FC268A878F3F49F4F3
:1051F0000E94803E601B710B6D327140A0F38FE006
:1052000003C08E3F39F08DE08D83CE010E94FF26D2
:1052100080E001C081E0DF91CF911F910F9108954F
:10522000CF92DF92EF92FF920F931F93CF93DF9372
:10523000EC016901C801820F931F8130924008F090
:105240005CC08E81882371F088819981AA81BB819D
:10525000481759076A077B0729F48F819885C81674
:10526000D90610F5488359836A837B838B85833005
:1052700039F089E0440F551F661F771F8A95D1F7D3
:105280009A01AB0161E1CE010E94B327882319F096
:1052900083E08D8332C0CE010E94EB28882369F120
:1052A00018861F8281E08E838F8198858C159D05DD
:1052B00040F40E94FC268F819885019698878F8301
:1052C000F3CF6701E00EF11ECE14DF0431F00E942F
:1052D000FC26F60181936F01F7CF8F819885080F27
:1052E000191F18870F838985882319F0011512402B
:1052F00048F0CE010E94232705C0CE010E94FF2660
:1053000080E001C081E0DF91CF911F910F91FF906C
:10531000EF90DF90CF900895EF92FF920F931F933D
:105320000115110519F00E94102901C081E01F919B
:105330000F91FF90EF900895EF92FF920F931F93BC
:10534000790100E012E020E030E00E9410291F9176
:105350000F91FF90EF900895CF92DF92EF92FF921E
:105360000F931F93CF93DF931F921F92CDB7DEB79A
:105370008C01862F49835A830E94DD174981C42EF0
:105380005A81D52E76018EEFF81AF60181916F01C0
:105390000E94DD17CE14DF04C1F78FEF0E94DD17E6
:1053A0008FEF0E94DD170E94FC26F8018287982F5C
:1053B0009F71953039F081E18583C8010E94FF26F5
:1053C00080E001C081E00F900F90DF91CF911F919D
:1053D0000F91FF90EF90DF90CF9008950F931F9360
:1053E000CF93DF93EC0189014115510561057105EA
:1053F00011F482E132C08B85833039F089E0440FAB
:10540000551F661F771F8A95D1F79A01AB0168E196
:10541000CE010E94B327882311F084E01EC0A801AA
:105420006EEFCE010E94AC298823C1F068E572E0DE
:10543000CE010E949827811102C085E10EC020E0B4
:1054400030E0A9016DE0CE010E94B327811104C0B4
:105450000E94FC26882339F084E18D83CE010E94CE
:10546000FF2680E004C0CE010E94FF2681E0DF918C
:10547000CF911F910F910895EDE2FCE080E58083CC
:1054800011820895CF93DF93EC019C012A5F3F4F77
:1054900041E050E060E070E08B8D9C8D0E94D53340
:1054A0008823A1F08F89988DA98DBA8D892B8A2B9D
:1054B0008B2B59F48E819F81A885B9858F8B988F0E
:1054C000A98FBA8F8C8180688C8381E0DF91CF9126
:1054D0000895CF92DF92EF92FF921F93CF93DF93C5
:1054E000EC010E94422A811102C080E04AC0EB8D8B
:1054F000FC8DCE80DF80E884F98482E0C81AD10870
:10550000E108F108058404C0CC0CDD1CEE1CFF1C76
:105510000A94D2F786859785A089B189C80ED91ECD
:10552000EA1EFB1E148181E0C81AD108E108F108C7
:10553000112361F0C701B601610F711D811D911D1D
:105540000E942432882389F21150F2CFEB8DFC8D1A
:1055500080E092E0A0E0B0E0058404C0880F991FCD
:10556000AA1FBB1F0A94D2F74B895C896D897E897B
:10557000840F951FA61FB71F8B8B9C8BAD8BBE8B8B
:1055800081E0DF91CF911F91FF90EF90DF90CF905E
:105590000895CF93DF93EC01462F6E857F85888930
:1055A00099890E94E931882341F08A8920E2829F0B
:1055B000C0011124885C934F02C080E090E0DF912D
:1055C000CF910895FB019B01255F3F4F40E241933E
:1055D000E217F307E1F7DC0190E027E08D918823E3
:1055E00019F18E3219F0E0E7F2E008C02A3009F133
:1055F00098E02AE0F3CF31963817D9F03491311181
:10560000FACF2917B0F03FED380F3E3590F431E076
:10561000390FFB01E90FF11D9FE9980F9A3108F44A
:1056200080528083932FDACF81E0FB01908190320A
:1056300009F480E008950F931F93CF93DF93FC014B
:105640002581222311F080E042C08B01EC01FB0197
:1056500087898031B1F482E08D831F8A188E198E7C
:105660001A8E808D918DA0E0B0E025E0880F991F03
:10567000AA1FBB1F2A95D1F78B8B9C8BAD8BBE8B42
:1056800015C0803201F783E08D83FB01428D538D7D
:10569000648D758D4F8B588F698F7A8F9E012D5E2B
:1056A0003F4FC8010E94CC32882369F21C8F0B8FB8
:1056B00081E08C831E821F82188619861A861B86BB
:1056C0001C861D861E861F86188A198A1A8ADF91F3
:1056D000CF911F910F9108952F923F924F925F9219
:1056E0006F927F928F929F92AF92BF92CF92DF92F2
:1056F000EF92FF920F931F93CF93DF93EC015B0127
:105700004A018D81811103C08FEF9FEFD7C08C813B
:1057100080FFFACF4B885C886D887E884A855B85E0
:105720006C857D85C401A0E0B0E093018201041B7B
:10573000150B260B370B081719072A073B0718F418
:105740004201841A950A24011E0126E0220E311C12
:105750004114510409F47EC04A855B856C857D85C2
:105760006A0181E0D822ED818A019B0189E03695AA
:105770002795179507958A95D1F78B8D9C8DE230EB
:1057800061F4FC01828D938DA48DB58DBC01CD019A
:10579000600F711F821F931F3FC0FC0174807A94B9
:1057A0007022C114D104C9F4711017C0452B462BC7
:1057B000472B49F48F89988DA98DBA8D8E839F834D
:1057C000A887B9870AC04E815F8168857985910174
:1057D0000E944832882309F497CFEB8DFC8D8E818F
:1057E0009F81A885B9850297A109B109058404C0E4
:1057F000880F991FAA1FBB1F0A94D2F746855785A9
:1058000060897189840F951FA61FB71FBC01CD0148
:10581000670D711D811D911D20E032E02C193D099D
:1058200032012415350508F439012C8126FD04C008
:105830006114F2E07F0679F500911F0210912002B9
:10584000209121023091220260177107820793078D
:1058500019F421C0C40132C0750183019601AB0166
:10586000BC018091360C9091370C0E948C298823C2
:1058700009F44ACFA60CB71C8A859B85AC85BD85EB
:10588000860D971DA11DB11D8A879B87AC87BD879B
:10589000461857085DCF40E00E94E931882309F49B
:1058A00033CFF601E85CF34FD501CF01860D971D8C
:1058B000E817F907F9F221912D93FACFDF91CF91F3
:1058C0001F910F91FF90EF90DF90CF90BF90AF901E
:1058D0009F908F907F906F905F904F903F902F9010
:1058E0000895FF920F931F93CF93DF931F92CDB72D
:1058F000DEB7FC012581223018F480E090E033C04F
:105900008C01FC01428553856485758585E076951B
:105910006795579547958A95D1F7F42FFF70FF2E1D
:1059200041E050E0BE016F5F7F4FC8010E946C2BC9
:10593000019719F4898190E002C08FEF9FEF0196E3
:10594000E1F2F80182859385A485B5854F96A11D66
:10595000B11D82879387A487B587F0E2FF9EC001BF
:105960001124885C934F0F90DF91CF911F910F917D
:10597000FF9008958F929F92AF92BF92CF92DF9245
:10598000EF92FF920F931F93CF93DF93EC018D81E2
:10599000811102C080E077C00B891C892D893E8966
:1059A0000417150726073707A8F36A017B01823021
:1059B00029F4CA86DB86EC86FD860DC0C114D104AD
:1059C000E104F10451F41E821F82188619861A869A
:1059D0001B861C861D8681E056C08A849B84AC840D
:1059E000BD84EB8DFC8D258530E0275F3F4FB501F1
:1059F000A4014150510961097109022E04C0769534
:105A00006795579547950A94D2F7D701C601019734
:105A1000A109B10904C0B695A795979587952A95D0
:105A2000D2F784179507A607B70720F089288A2898
:105A30008B2849F44F89588D698D7A8D4E835F8309
:105A40006887798704C0841B950BA60BB70B4C01A4
:105A50005D018E010A5F1F4F81149104A104B104FE
:105A600009F4A7CF4E815F816885798598018B8D78
:105A70009C8D0E94483291E0891A9108A108B108D2
:105A80008111EACF87CFDF91CF911F910F91FF90C6
:105A9000EF90DF90CF90BF90AF909F908F90089540
:105AA0000F931F93CF93DF93EC018D818823C9F16E
:105AB0008C8187FF30C061E0CE010E94C92A8C0131
:105AC000892B79F18D81823048F48B899C89AD894D
:105AD000BE89F801848F958FA68FB78F8F89988D97
