:100000000C94EF010C9420020C9420020C9420021A
:100010000C9420020C9420020C9420020C942002D8
:100020000C9420020C9420020C9420020C942002C8
:100030000C9420020C9420020C9420020C942002B8
:100040000C9420020C9420020C9420020C942002A8
:100050000C9420020C9420020C9420020C94653A1B
:100060000C9420020C94AA340C94E0340C942002DA
:100070000C9420020C9420020C9420020C94200278
:100080000C9420020C9420020C9420020C94200268
:100090000C9420020C9420020C9420020C94200258
:1000A0000C9420020C9420020C9420020C94200248
:1000B0000C9420020C9420020C9420020C94200238
:1000C0000C9420020C9420020C9420020C944135D4
:1000D0000C9477350C9420020C94D8350C940E3681
:1000E0000C942002A43BA73B963B9A3BA03BDE3BF3
:1000F000AB3BAF3BB53BB93BBD3BC33BC73BCB3B4E
:10010000DE3BD13BD53BD93B0C94BA0D0C945A2124
:100110000C94D50D0C9403220C94B5090C94642115
:100120000C94D93B0C9448090C94160C0C94802E1A
:100130000C94EA0A0C94661D0C946D090C949209B7
:100140000C9446330C94EB0E0C944A0B0C94A73B86
:100150000C9487090C946F360C940A350C94E10AC0
:100160000C94BD3B0C94B53B0C94FF0A0C94A03B43
:100170000C94FA0E0C94B93B0C9422020C94640B70
:100180000C94300B0C94900D0C94D13B0C948C0C73
:100190000C94D53B0C94963B0C9438360C94423618
:1001A0000C94890E0C94BE0D0C9480200C94683332
:1001B0000C945E090C946D150C94AB350C949A3B21
:1001C0000C94970F0C9484180C94DC0B0C9425025F
:1001D0000C94C73B0C9431180C9459060C949B0D4D
:1001E0000C94C33B0C946F270C9414350C94DE3B99
:1001F0000C94B20D0C94D6330C9477330C946309A1
:100200000C9423340C94E30D0C943B210C94AF3BE1
:100210000C94AB3B0C9404240C943A330C94D40D02
:100220000C94360D0C94A1350C94FB050C94E63619
:100230000C9456090C9471090C943D0F0C947F0E8C
:100240000C94CC0E0C941E0B0C94A43B0C944F0CF1
:100250000C948F0E0C94A30E0C9448200C94430A1B
:100260000C9454330C941F210C94010E0C94440CE8
:100270000C94AE0B0C9461090C94270B0C94A20DFA
:100280000C94650C0C94CB3B0C9409210C94B60D8A
:100290007C3C3E5E2B3D3F2F5B5D3B2C2A225C006D
:1002A00000000A0B02090C0D0E08070304010000F0
:1002B000000000000000000000000000000000003E
:1002C00000000000000000000000000012111000FB
:1002D000000000000000000000000000000000001E
:1002E000000000000000010210202008081020403B
:1002F00010204080020102010804020101020408EA
:100300001020408080402010080402018004020177
:1003100080402010080402010804020101020408C0
:1003200010204080010204081020408005050505CA
:10033000070508080808020202020A0A080804045D
:10034000040401010101010101010303030303038B
:100350000303040707070C0C0C0C0C0C0C0C02021A
:10036000020206060606060606060B0B0B0B0B0B17
:100370000B0B000020002300260029002C002F007A
:100380003200000100000301060109010000220003
:10039000250028002B002E0031003400020100004F
:1003A000050108010B0100002100240027002A009C
:1003B0002D003000330001010000040107010A0193
:1003C000FB054809440C900D970F6D1531188418E2
:1003D000661D04246F271435AB35423659061124A7
:1003E0001FBECFEFD1E2DEBFCDBF00E00CBF14E0F7
:1003F000A0E0B2E0E2EEF0E800E00BBF02C0079040
:100400000D92A636B107D9F72DE0A6E6B4E001C0FB
:100410001D92A93CB207E1F711E0CEEED1E000E079
:1004200006C021970109802FFE010E94B43CC03E06
:10043000D10780E00807A9F70E94523A0C945F4068
:100440000C94000080E090E008950895009711F06A
:100450000E944A3761E08DE00E94DF3B61E08DE061
:100460000E941B3C6AEF70E080E090E00E94E03A5E
:1004700060E08DE00E941B3C6AEF70E080E090E05D
:100480000E94E03AEBCFCF93DF93CDB7DEB72C9746
:100490000FB6F894DEBF0FBECDBF6CE272E0CE01A6
:1004A00007960E94C43866E774E0CE0107960E9462
:1004B0006A3963E372E0CE0107960E947139609158
:1004C0008004709181044AE0CE0101960E941039A7
:1004D000BE016F5F7F4FCE0107960E946A39CE0141
:1004E00001960E94563866E972E0CE0107960E9496
:1004F00071396CE774E0CE0107960E946A39BE013B
:10050000695F7F4F82E894E00E94D938CE01079658
:100510000E9456382C960FB6F894DEBF0FBECDBFA2
:10052000DF91CF9108956F927F928F929F92AF92B9
:10053000BF92CF92DF92EF92FF920F931F93CF93D0
:10054000DF9300D000D0CDB7DEB766E972E0CE0110
:1005500001960E94C438BE016F5F7F4F8EE894E021
:100560000E94FC398C01CE0101960E9456380D5F25
:100570001F4F6BE972E0CE0101960E94C438A801BA
:10058000BE016F5F7F4F8EE894E00E94DF394C011F
:10059000CE0101960E94563864018FEFC81AD80A1E
:1005A0006BE972E0CE0101960E94C438A601BE013B
:1005B0006F5F7F4F8EE894E00E94DF395C01CE01CF
:1005C00001960E94563875018FEFE81AF80A6BE918
:1005D00072E0CE0101960E94C438A701BE016F5F90
:1005E0007F4F8EE894E00E94DF393C01CE010196F6
:1005F0000E9456389401A8016EE874E0CE0101967D
:100600000E94003ABE016F5F7F4F88E894E00E942D
:10061000D938CE0101960E9456389501A6016EE8A0
:1006200074E0CE0101960E94003ABE016F5F7F4FD9
:100630008AE694E00E94D938CE0101960E9456388D
:100640009301A7016EE874E0CE0101960E94003A82
:10065000BE016F5F7F4F80E794E00E94D938CE01E2
:1006600001960E94563826960FB6F894DEBF0FBE4C
:10067000CDBFDF91CF911F910F91FF90EF90DF9051
:10068000CF90BF90AF909F908F907F906F90089584
:10069000AF92BF92CF92DF92EF92FF920F931F9390
:1006A000CF93DF9300D000D0CDB7DEB766E972E01C
:1006B000CE0101960E94C438BE016F5F7F4F8EE865
:1006C00094E00E94FC398C01CE0101960E945638BC
:1006D0000D5F1F4F6BE972E0CE0101960E94C43896
:1006E000A801BE016F5F7F4F8EE894E00E94DF3962
:1006F0006C01CE0101960E94563876018FEFE81A00
:10070000F80A6BE972E0CE0101960E94C438A70195
:10071000BE016F5F7F4F8EE894E00E94DF395C017D
:10072000CE0101960E9456389601A8016EE874E049
:10073000CE0101960E94003ABE016F5F7F4F8AE6AC
:1007400094E00E94D938CE0101960E945638950156
:10075000A7016EE874E0CE0101960E94003ABE0146
:100760006F5F7F4F80E794E00E94D938CE010196F9
:100770000E94563826960FB6F894DEBF0FBECDBF46
:10078000DF91CF911F910F91FF90EF90DF90CF906D
:10079000BF90AF900895EF92FF920F931F93CF9366
:1007A000DF93CDB7DEB7A1970FB6F894DEBF0FBECB
:1007B000CDBF7C016AE972E0CE014C960E94C4383C
:1007C0006DE972E085EE9BE00E944A37870180E187
:1007D000E80EF11CF80160810E5F1F4FCE014C96B0
:1007E0000E948039E016F106A9F76FEA72E08CE703
:1007F00094E00E94F93864EB72E086E794E00E948E
:10080000F938BE01645E7F4F8CE794E00E946A393C
:100810000E94430262E874E0CE0146960E94F038DE
:100820001C821B8288EE93E0A0E0B0E08D839E8363
:10083000AF83B88788EB93E09A83898388E08D87BC
:1008400088EE93E09F878E876AE072E0CE01409643
:100850000E94D13640E550E0BE01605F7F4FCE017F
:1008600001960E94430A892B09F440C062E874E0B3
:10087000CE0101960E9425376AE972E0CE014096CA
:100880000E94C438CE0101960E941E0B892BD1F321
:10089000CE0101960E941E0B892B51F0CE010196CC
:1008A0000E94300B682FCE0140960E948039F0CF15
:1008B000BE01605F7F4F8EE894E00E94D9380E94AD
:1008C00093026EE874E085EE9BE00E9425376AEBA8
:1008D00072E088E894E00E94C03911E0811101C003
:1008E00010E0CE0140960E94563801C010E0CE01C3
:1008F00046960E945638CE014C960E945638812F5B
:10090000A1960FB6F894DEBF0FBECDBFDF91CF9199
:100910001F910F91FF90EF900895EF92FF920F9328
:100920001F93CF93DF93CDB7DEB7A7970FB6F89499
:10093000DEBF0FBECDBF7C016FEB72E085EE9BE0AA
:100940000E944A376AE972E0CE0182960E94C4385A
:10095000870180E1E80EF11CF80160810E5F1F4FF6
:10096000CE0182960E948039E016F106A9F767ED64
:1009700072E086E794E00E94F93864EB72E08CE75D
:1009800094E00E94F938BE016E5D7F4F8CE794E0E1
:100990000E946A390E9443021C821B8288EE93E007
:1009A000A0E0B0E08D839E83AF83B88788EB93E0AF
:1009B0009A83898388E08D8788EE93E09F878E876E
:1009C00062E874E0CE014C960E94F0386DED72E062
:1009D0008EE894E00E94F9386AE072E0CE01409619
:1009E0000E94D13640E550E0BE01605F7F4FCE01EE
:1009F00001960E94430A892B09F449C0BE01645E36
:100A00007F4FCE0101960E9425376AE972E0CE0140
:100A100046960E94C438CE0101960E941E0B892B77
:100A2000D1F3CE0101960E941E0B892B51F0CE010D
:100A300001960E94300B682FCE0146960E948039A5
:100A4000F0CFBE016A5E7F4F8EE894E00E94D938F5
:100A50000E9448036AE674E0CE0140960E94F03896
:100A600064E972E0CE0140960E94A73960E774E025
:100A70000E949439BC0185EE9BE00E942537CE018F
:100A800040960E945638CE0146960E945638CE01B6
:100A90004C960E945638CE0182960E945638A796F0
:100AA0000FB6F894DEBF0FBECDBFDF91CF911F917F
:100AB0000F91FF90EF9008950F931F93CF93DF93C3
:100AC00088E10E944A3C892BA9F18091960490917B
:100AD0009704892B79F1809198049091990400975B
:100AE00041F460EE72E080919404909195040E942C
:100AF0002602FC01C081D181028113810E94633AE8
:100B0000109399040093980480919604909197040F
:100B100001979093970480939604CE010E9405213B
:100B200064E670E080E090E0DF91CF911F910F913B
:100B30000C94E03ADF91CF911F910F910895EF92BD
:100B4000FF920F931F93CF93DF93EC017B010E81F4
:100B50001F8184E090E00E94613A9F838E8300971A
:100B600031F462E173E0888199810E942602FC01E0
:100B700013821282F182E0822C813D81232B19F4B1
:100B80009D838C8303C0F801938382838A819B8138
:100B900001969B838A83DF91CF911F910F91FF90E4
:100BA000EF900895CF92DF92EF92FF92CF93DF9371
:100BB00080E794E00E94453A6B017C018AE694E06C
:100BC0000E94453A84E994E00E949F058FEFC81681
:100BD000D80629F0B60184E994E00E949F0560EDF3
:100BE00077E080E090E0DF91CF91FF90EF90DF9091
:100BF000CF900C94E03A0F9300E020E040E060E0FA
:100C000080E998E00E94BB3663E473E080E898E0F6
:100C10000E94C43806E221E048EA60EC8AE798E0E6
:100C20000E94BB36E4E7F8E01382128286EE93E07E
:100C30009183808380E590E09583848369E473E009
:100C40008CE994E00E94C438E4E9F4E01382128253
:100C50001582148217821682118210826AE972E06C
:100C60008EE894E00E94C4386AE972E088E894E073
:100C70000E94C4386AE972E082E894E00E94C438B5
:100C80006AE972E08CE794E00E94C4386AE972E095
:100C900086E794E00E94C4386DED72E080E794E04E
:100CA0000E94C4386DED72E08AE694E00F910C94D6
:100CB000C438CF93DF938AE694E00E94563880E7E9
:100CC00094E00E94563886E794E00E9456388CE7FC
:100CD00094E00E94563882E894E00E94563888E8F2
:100CE00094E00E9456388EE894E00E945638C091F5
:100CF0009804D0919904CD2B71F080919804909133
:100D00009904FC01C281D3810E94633AD093990473
:100D1000C0939804F0CF8CE994E00E94563880E8A4
:100D200098E0DF91CF910C9456388F929F92AF92BA
:100D3000BF92CF92DF92EF92FF920F931F93CF93C8
:100D4000DF93CDB7DEB76B970FB6F894DEBF0FBE5B
:100D5000CDBF40919C0450919D0421E060E979E071
:100D6000CE0101960E948D2363E573E085EE9BE042
:100D70000E944A37CE0101960E944422882309F43A
:100D800051C084EBC82E84E0D82E9AE0892E912C95
:100D9000A12CB12CE12CF12CCE0101960E94032252
:100DA000892BE1F100E010E0CE0101960E945A216A
:100DB000F601E00FF11F9183808320910E02222320
:100DC00069F04AE050E0BC0185EE9BE00E941338D8
:100DD00064E972E085EE9BE00E9433370E5F1F4F9F
:100DE0000031110509F78FEFE81AF80AB501A401DF
:100DF000CE0101960E94D62180910E02811109C078
:100E00008AE0880E911CA11CB11C80E1C80ED11C87
:100E1000C3CF85EE9BE00E944637F2CFF092A30449
:100E2000E092A204CE0101960E9432226B960FB688
:100E3000F894DEBF0FBECDBFDF91CF911F910F9110
:100E4000FF90EF90DF90CF90BF90AF909F908F90EA
:100E500008950F931F93CF93DF9300D000D0CDB7A9
:100E6000DEB726E040E052EC61E070E085EE9BE00A
:100E70000E94453426E040E052EC61E070E08FE1F2
:100E80009DE00E94453426E040E855E260E070E0D5
:100E900082E89CE00E94453482E89CE00E94A02009
:100EA00089E190E00E94012164E670E080E090E03A
:100EB0000E94E03A66E180E999E00E946B2281118C
:100EC0000AC080910E02882331F064E673E085EE5B
:100ED0009BE00E944A3780910E02882331F060E83F
:100EE00073E085EE9BE00E944A370E94950662E916
:100EF00073E085EE9BE00E94333700EA1FE020E0BC
:100F000030E040E65AEE60E070E08FE092E00E9450
:100F100066086AE973E085EE9BE00E94333784E758
:100F200098E00E94650C62EA73E085EE9BE00E9407
:100F30003337CE0101960E943009BE016F5F7F4FAB
:100F400085EE9BE00E945C378FEF9FEF90936704E4
:100F500080936604909369048093680426960FB684
:100F6000F894DEBF0FBECDBFDF91CF911F910F91DF
:100F700008958FE19DE00E943A33892B59F48FEF59
:100F80009FEF909367048093660490936904809325
:100F9000680408958FE19DE00E9454339C012C5712
:100FA00031092230310548F4909369048093680434
:100FB000109267041092660408952091660430919F
:100FC000670437FD0EC0A9014F5F5F4F5093670460
:100FD00040936604220F331FF901EC55FB4F9183B8
:100FE00080838091660490916704089719F5809139
:100FF0006804909169048C37910599F484EA94E02F
:101000000E94CB03882339F060EB73E08FE19DE011
:101010000E9433370DC062EB73E08FE19DE00C94CA
:1010200033378D37910531F484EA94E00E948D04C2
:101030000C94D20508950E945C050C94B907209188
:101040008409222399F04FB7F89420918409213024
:1010500059F42DB3209382093DB320918309209543
:1010600023232DBB4FBF02C0409382098CBD9DBD81
:10107000089580918409882361F09FB7F8942091A6
:10108000840980918209213019F48DBB9FBF089596
:101090008FBF089544E050E0BC0181E090E00C94E3
:1010A000AE1544E050E0BC0185E090E00C94AE1534
:1010B00046E050E0BC0189E090E00C94AE1544E0BD
:1010C00050E0BC018FE090E00C94AE154F925F921F
:1010D0006F927F928F929F92AF92BF92CF92DF9248
:1010E000EF92FF920F931F93CF93DF9300D000D026
:1010F000CDB7DEB76C014A015B012801390180914F
:10110000F408811120C01092DC081092DB0888EEF0
:1011100093E0A0E0B0E08093DD089093DE08A09318
:10112000DF08B093E00886EF93E09093DA088093AD
:10113000D90887EE98E00E94B13688E08093F108E4
:1011400081E08093F40886E998E09093FD0880930D
:10115000FC080E94A717882309F469C080E591E084
:101160000E941F08C6010E94580800E020E040E0ED
:1011700060E0CE0101960E94BB36CE0103960E942C
:101180005F080E94390883017201A5019401B6012C
:101190008091FC089091FD080E94E51C813091052A
:1011A00009F047C080E591E00E941F086091FC08AB
:1011B0007091FD08CE0101960E944318CE0103965E
:1011C0000E945F086091FC087091FD08CE010196B5
:1011D0000E945918CE0103960E944A086091FC08AB
:1011E0007091FD08CE0101960E944E18CE01039623
:1011F0000E9451080E9439086091FC087091FD0816
:10120000CE0101960E9464188B819C81AD81BE81C4
:101210008093000990930109A0930209B0930309F8
:101220000E94BB3ACB010E941A1181E001C080E00C
:1012300090E026960FB6F894DEBF0FBECDBFDF91CB
:10124000CF911F910F91FF90EF90DF90CF90BF90C3
:10125000AF909F908F907F906F905F904F90089588
:10126000CF93DF93EC010E94B13680E591E00E94BC
:101270001F08BE016E5F7F4F44E050E08FE090E0BA
:101280000E9481160E943908CE01DF91CF91089506
:101290000F9300E020E040E060E084E099E00E94ED
:1012A000BB368EEF98E00F910C94B13621E0FC0133
:1012B0008485883008F020E0822F089581E0862719
:1012C0000895862F0895DC01ED91FC91068CF78D31
:1012D000E02D199591E089270895FC0176876587AF
:1012E0000895CF93DF931F92CDB7DEB76983DC01FA
:1012F000ED91FC910280F381E02D41E050E0BE01D0
:101300006F5F7F4F19950F90DF91CF910895FC018A
:101310009485FB018485981303C081E0983008F020
:1013200080E00895CF93DF93EC018C858830C8F47A
:101330000E94B612843181F0882371F0883161F007
:101340008C3161F4E881F9810084F185E02DCE01D2
:10135000199521E0892B19F420E001C021E0822FAA
:1013600001C080E0DF91CF910895AF92BF92CF92FC
:10137000DF92EF92FF920F931F93CF93DF93CDB73E
:10138000DEB7AF970FB6F894DEBF0FBECDBF8C01AE
:101390005B016A01CE0101960E94B1361C861B8654
:1013A00088EE93E0A0E0B0E08D879E87AF87B88B92
:1013B00086EF93E09A878987CE0147960E94B136DF
:1013C00088E089A3CE018A960E94B136D8011C9686
:1013D0008C91883060F40E94B612882321F0F801C5
:1013E00084850E940C1388E0D8011C968C9387E5B5
:1013F000E82E84E0F82EFDA2ECA2809100099091E5
:101400000109A0910209B09103098EA39FA3A8A787
:10141000B9A7BE016C5D7F4FCE0101960E94241DCD
:1014200028E833E1AE01465D5F4FB501CE0101967C
:101430000E947F1F0097B1F0D801ED91FC910684C6
:10144000F785E02DFDA2ECA28CA59DA5AEA5BFA5BC
:101450008EA39FA3A8A7B9A7A601BE016C5D7F4F6D
:10146000C8011995AF960FB6F894DEBF0FBECDBF79
:10147000DF91CF911F910F91FF90EF90DF90CF9070
:10148000BF90AF900895CF92DF92EF92FF920F93AB
:101490001F93CF93DF93CDB7DEB72C970FB6F89499
:1014A000DEBF0FBECDBF8C017B016A01FC018485CC
:1014B000883058F40E94B612882321F0F801848500
:1014C0000E940C1388E0F801848740E050E0BA01E4
:1014D000CE0107960E94C73649855A856B857C8563
:1014E000F70182819381A481B581481759076A0762
:1014F0007B0709F452C04FEF5FEFBA01CE010196AE
:101500000E94C736F70142815381648175818B81C6
:101510009C81AD81BE81481759076A077B07E9F1B5
:1015200060E070E081E20E942611F8018487883033
:10153000A0F5B7016E5F7F4FA6010E94EC120E94DA
:10154000AF3A6B017C01F80184850E94B6128731A5
:1015500039F18C3129F1882301F10E94AF3AAB01B6
:10156000BC014C195D096E097F09F80185859685D6
:10157000A0E0B0E084179507A607B70738F061E050
:1015800070E080E090E00E94E03ADDCFF8018485D1
:101590000E94C51288E0F801848780E090E002C0D4
:1015A00081E090E02C960FB6F894DEBF0FBECDBF61
:1015B000DF91CF911F910F91FF90EF90DF90CF902F
:1015C0000895FC018485883010F40C94BB1480E0ED
:1015D00090E00895CF93DF93EC018C85883060F420
:1015E0000E94B612873111F08C3131F48C850E9443
:1015F000BB148115984088F3DF91CF9108950F9324
:101600001F93CF93DF93FC018485883068F4C52F46
:10161000D42F8F010E945514009749F421E030E047
:10162000F8013383228305C080E090E002C08D2F53
:101630009C2FDF91CF911F910F910895FC0184851C
:10164000883010F40C94F51380E090E00895FC01CC
:101650008485883010F40C941A1380E090E008958B
:10166000CF93DF931F92CDB7DEB741E050E0BE01CC
:101670006F5F7F4FFC0184850E941A1318161906AC
:101680001CF4898190E002C08FEF9FEF0F90DF91F3
:10169000CF910895CF93DF93FC012485283018F073
:1016A0008FEF9FEF0EC0EC010190F081E02D0084E0
:1016B000F185E02D1995892B99F38C850E942D14C5
:1016C00090E0DF91CF910895CF92DF92EF92FF9259
:1016D000CF93DF93EC018C85883038F50E940C1392
:1016E0000E94AF3A6B017C018C850E94B612882360
:1016F000D1F061E070E080E090E00E94E03A0E946A
:10170000AF3AAB01BC014C195D096E097F098D85AB
:101710009E85A0E0B0E0481759076A077B0720F3D1
:101720008C850E94C51288E08C87DF91CF91FF9055
:10173000EF90DF90CF900895DA0190916E09E92F34
:10174000F0E0FE2FEE27E60FF71F90E0982F882796
:10175000A901BD018E0F9F1F0C9481160F931F933B
:10176000CF93DF931F921F92CDB7DEB7FC01248584
:101770002830C0F48C0180E591E00E941F0822E02F
:1017800030E0AE014F5F5F4F64E070E0F8018485A8
:101790000E949C0B09811A811027012710270E94A3
:1017A000390802C000E010E0C8010F900F90DF91EF
:1017B000CF911F910F910895EF92FF920F931F9376
:1017C000CF93DF9300D01F92CDB7DEB78C017B01A2
:1017D000FB018485883038F040E050E0BA01C80150
:1017E0000E94C73617C080E591E00E941F0824E0E0
:1017F00030E0AE014F5F5F4F6CE070E0F701848531
:101800000E949C0B0E943908BE016F5F7F4FC80188
:101810000E94D136C8010F900F900F900F90DF916A
:10182000CF911F910F91FF90EF9008950F931F9309
:10183000CF93DF931F921F92CDB7DEB7FC012485B3
:101840002830C0F48C0180E591E00E941F0822E05E
:1018500030E0AE014F5F5F4F60E170E0F8018485DA
:101860000E949C0B09811A811027012710270E94D2
:10187000390802C000E010E0C8010F900F90DF911E
:10188000CF911F910F9108950F9300E020E040E069
:1018900060E08AE099E00E94BB360F910895CF93F3
:1018A000DF931F92CDB7DEB76983DC01ED91FC9128
:1018B0000280F381E02D41E050E0BE016F5F7F4F79
:1018C00019950F90DF91CF9108950F931F93CF93A8
:1018D0008C01FC016481758181E20E942611C82F70
:1018E0008830B0F40E94D312882361F0F80184811B
:1018F0009581EC2FF0E0EE0FFF1FE05FF64F918334
:10190000808306C08C2FCF911F910F910C940C13E4
:10191000CF911F910F910895EF92FF920F931F9314
:10192000CF93DF937C0180916F09833311F4D4E06E
:1019300001C0D8E000E119E0C0E0F8012191319147
:101940008F01F701848195812817390729F0CF5F2E
:10195000DC13F3CF80E006C08C2F0E94B6128431D6
:10196000B1F781E0DF91CF911F910F91FF90EF9040
:101970000895FC011382128288EE93E0A0E0B0E0AB
:1019800084839583A683B78388EB93E091838083D8
:10199000648788EE93E09687858708959F92AF923B
:1019A000BF92CF92DF92EF92FF920F931F93CF934C
:1019B000DF937C016B0180916F09811102C068E0A7
:1019C00045C0833319F424E0922E02C098E0992E8A
:1019D00000E119E0C0E088E0B82EA12CD8012D91DB
:1019E0003C91F6018481958128173907F9F48C2FF1
:1019F0000E94B612D82F873111F08C3159F48C2FF8
:101A00000E94F513892B71F4DC3181F48C2F0E9434
:101A10000C130CC0843141F0811108C0D8011D9213
:101A20001C9204C0BC2E02C0AA24A394CF5F0E5FF8
:101A30001F4F9C12D3CFA11008C0D601ED91FC918D
:101A40000084F185E02DC60119956B2DC7010E9418
:101A5000B90CC701DF91CF911F910F91FF90EF90CB
:101A6000DF90CF90BF90AF909F9008958F929F92FC
:101A7000AF92BF92CF92DF92EF92FF920F931F939C
:101A8000CF93DF93CDB7DEB72F970FB6F894DEBFB5
:101A90000FBECDBF20916F09222369F1233319F4C2
:101AA00034E0E32E02C028E0E22E8A015B016C01E3
:101AB000BC01CE0101960E94CE0C80E1882E89E007
:101AC000982EF12CF401219131914F01F60184817E
:101AD00095812817390751F48F2D0E94B61287314E
:101AE00029F4A801B5018F2D0E945514F394EF102D
:101AF000E9CFC80102C080E090E02F960FB6F894BD
:101B0000DEBF0FBECDBFDF91CF911F910F91FF9030
:101B1000EF90DF90CF90BF90AF909F908F900895FF
:101B20000F9300E020E040E060E080E299E00E9456
:101B3000BB360F910895DC01ED91FC91048CF58D7D
:101B4000E02D199427E534E0FC0131832083FB016B
:101B50004089518962897389FC014283538364837C
:101B600075830895FC01848995890895FC01848515
:101B700095850895FC01818D928D0895CF93DF9313
:101B80001F92CDB7DEB76983DC01ED91FC91028035
:101B9000F381E02D41E050E0BE016F5F7F4F19956A
:101BA0000F90DF91CF9108950895CF93DF93FC01BB
:101BB000808D883028F4EF010E94C51288E0888F5C
:101BC000DF91CF9108950F931F93CF93DF93EC0193
:101BD0008B01888D883010F40E94C512B80182E014
:101BE0000E942611888F883030F41D870C871A8E4A
:101BF000198E81E001C080E0DF91CF911F910F919C
:101C00000895AF92BF92CF92DF92EF92FF920F931F
:101C10001F93CF93DF93CDB7DEB7AF970FB6F8948E
:101C2000DEBF0FBECDBF8C015B016A01CE01019604
:101C30000E94B1361C861B8688EE93E0A0E0B0E0DF
:101C40008D879E87AF87B88B86EF93E09A878987C9
:101C5000CE0147960E94B13688E089A3CE018A96CC
:101C60000E94B13687E5E82E84E0F82EFDA2ECA2B2
:101C70008091000990910109A0910209B091030996
:101C80008EA39FA3A8A7B9A7BE016C5D7F4FCE010D
:101C900001960E94241D28E833E1AE01465D5F4FA6
:101CA000B501CE0101960E947F1F81309105B1F4EC
:101CB000D801ED91FC910488F589E02DFDA2ECA2FC
:101CC0008CA59DA5AEA5BFA58EA39FA3A8A7B9A7C8
:101CD000A601BE016C5D7F4FC8011995AF960FB686
:101CE000F894DEBF0FBECDBFDF91CF911F910F9152
:101CF000FF90EF90DF90CF90BF90AF900895FC01E0
:101D0000178A168A6E5F7F4F808D0E94071590E0BC
:101D10000895FC01808D0E94361590E00895CF93C0
:101D2000DF93EC019A018E899F89AB01BC01888DFC
:101D30000E94DB142E893F89280F391F3F8B2E8B81
:101D4000DF91CF9108950F931F93CF93DF931F924D
:101D5000CDB7DEB7FC01218D328D232B61F08C01D4
:101D600041E050E0BE016F5F7F4F808D0E941A13EB
:101D7000181619061CF08FEF9FEF08C0F801818D2F
:101D8000928D0197928F818F898190E00F90DF91E2
:101D9000CF911F910F910895CF93DF93FC01218D77
:101DA000328D2115310519F48FEF9FEF11C0EC0131
:101DB0004217530708F0A901888D0E941A131816BC
:101DC000190694F7298D3A8D281B390B3A8F298FE4
:101DD000DF91CF910895FC01808D883040F4218DF2
:101DE000328D232B21F00E942D1490E008958FEF67
:101DF0009FEF0895CF92DF92EF92FF920F931F9380
:101E0000CF93DF9300D000D0CDB7DEB78C016B014C
:101E10007A01FC01808D883010F40E94C51287E59C
:101E200094E09A838983F60182819381A481B581AC
:101E30008B839C83AD83BE83A701BE016F5F7F4F01
:101E400082E80E94DA11F801808F883030F4F5863C
:101E5000E486128E118E81E001C080E026960FB6D6
:101E6000F894DEBF0FBECDBFDF91CF911F910F91D0
:101E7000FF90EF90DF90CF9008950F931F93CF9333
:101E8000DF93CDB7DEB728970FB6F894DEBF0FBE4D
:101E9000CDBF8C01D80159964D915C915A9741154F
:101EA000510551F0ED91FC91048CF58DE02D60E031
:101EB00070E0C8011995EECFF801808D0E94F513EE
:101EC000892B41F148E050E0BE016F5F7F4FD801A0
:101ED00058968C910E941A1318161906ECF4BE013C
:101EE0006F5F7F4FC8010E960E94DD368D8190E0B6
:101EF000982F88272E81820F911DF801958B848B56
:101F00008F8190E0982F88272885820F911D928FCE
:101F1000818F02C080E090E028960FB6F894DEBF73
:101F20000FBECDBFDF91CF911F910F9108950F93F9
:101F300000E020E040E060E086E299E00E94BB36ED
:101F40000F910895CF93DF931F92CDB7DEB7909195
:101F50006E09292F30E0322F2227260F371F90E0FD
:101F6000982F882741E050E0BE016F5F7F4F820FBE
:101F7000931F0E94811689810F90DF91CF91089560
:101F8000CF93DF931F92CDB7DEB790916E09292FC3
:101F900030E0322F2227260F371F90E0982F882716
:101FA000498341E050E0BE016F5F7F4F820F931F76
:101FB0000E94AE150F90DF91CF910895DA019091B4
:101FC0006E09E92FF0E0FE2FEE27E60FF71F90E0F5
:101FD000982F8827A901BD018E0F9F1F0C94AE1565
:101FE0007F928F929F92AF92BF92CF92DF92EF92A9
:101FF000FF920F931F93CF93DF931F921F92CDB742
:10200000DEB7782E8B014A01590122E030E0AE01A3
:102010004F5F5F4F64E270E00E949C0BE980FA80A2
:10202000FE24EF24FE24E00EF11E9701377040914C
:102030006F09072D10E0C801433311F4089601C061
:102040004096982F8827990F990F990F820F931F09
:10205000473319F4A501B40120C0A9014A0D5B1D45
:1020600041305840B8F360E078E06B01C21AD30AFF
:10207000A601B4010E94AE15A5014C195D09B40179
:102080006C0D7D1D80916F09833339F5085F1F4FFB
:10209000902F990F990F990F80E00E94AE15EA0CCE
:1020A000FB1CF982EA8222E030E0AE014F5F5F4F15
:1020B00064E270E0872D0E94DE0F0F900F90DF9199
:1020C000CF911F910F91FF90EF90DF90CF90BF9035
:1020D000AF909F908F907F900895005F1F4FD8CF53
:1020E00063E070E00C94A20FCF93DF931F921F92D6
:1020F000CDB7DEB779836A8322E030E0AE014F5F6F
:102100005F4F64E070E00E94DE0F0F900F90DF9150
:10211000CF910895AB0124E030E06CE070E00C94C6
:10212000DE0FCF93DF931F921F92CDB7DEB7798377
:102130006A8322E030E0AE014F5F5F4F60E170E004
:102140000E94DE0F0F900F90DF91CF910895CF93F3
:10215000DF931F921F92CDB7DEB722E030E0AE01D1
:102160004F5F5F4F60E270E00E949C0B89819A8113
:102170009827892798270F900F90DF91CF91089586
:102180000F931F93CF93C82F0E94A7108C018C2F01
:102190000E94A71008171907C9F787E0C89FF00128
:1021A0001124E45DF64F15830483C801CF911F917C
:1021B0000F910895CF93DF931F921F92CDB7DEB793
:1021C00022E030E0AE014F5F5F4F66E270E00E94B8
:1021D0009C0B89819A819827892798270F900F90C7
:1021E000DF91CF910895CF93DF931F921F92CDB7C8
:1021F000DEB722E030E0AE014F5F5F4F68E270E093
:102200000E949C0B89819A819827892798270F9093
:102210000F90DF91CF91089520916F0990E02333C3
:1022200011F40C9601C04896982F990F990F990FA9
:1022300080E008959F7320911F0230912002822731
:1022400093279093200280931F0208958F929F926C
:10225000AF92BF92CF92DF92EF92FF920F931F93B4
:10226000CF93DF93CDB7DEB728970FB6F894DEBFD4
:102270000FBECDBF90916F09992309F487C09333A6
:1022800019F424E0F22E02C098E0F92E6B01082F19
:1022900080E591E00E941F089E012F5F3F4F59018A
:1022A000490110E0812F0E947010F40181934F01C9
:1022B0008823C9F01F5FF112F5CF10E0F50191916D
:1022C0005F019D3159F0983149F09A51923030F0C8
:1022D0001F5FF112F3CF0E94390858C060E170E02F
:1022E000812F0E941718E12EF12CF701EE0FFF1F2E
:1022F000E05FF64F118210828AEF90E00E941C3B53
:10230000402F60E070E0812F0E94C00F4FEF62E02D
:1023100070E0812F0E94C00FC114D10411F0B601EA
:1023200013C080911F029091200201968115F0EC5C
:102330009F0710F480E090EC9093200280931F029E
:1023400060911F0270912002812F0E94741061E041
:1023500070E0812F0E94171827E02E9DC0012F9D4D
:10236000900D11249C01245D364F7901F9011182F1
:102370001082812F0E94F310F701938382831682CB
:10238000158214820E943908812F01C088E02896A6
:102390000FB6F894DEBF0FBECDBFDF91CF911F9176
:1023A0000F91FF90EF90DF90CF90BF90AF909F90F4
:1023B0008F9008957F928F929F92AF92BF92CF920B
:1023C000DF92EF92FF920F931F93CF93DF93CDB7DE
:1023D000DEB72E970FB6F894DEBF0FBECDBF90913B
:1023E0006F09992309F4ADC0933319F424E0722ED8
:1023F00002C098E0792E6A017B01082F80E591E008
:102400000E941F089E012F5F3F4F5901490110E0B4
:10241000812F0E947010F40181934F018823C9F02D
:102420001F5F7112F5CF10E0F50191915F019D31B1
:1024300059F0983149F09A51923030F01F5F711283
:10244000F3CF0E9439087DC060E170E0812F0E94C7
:102450001718A12EB12CF501EE0FFF1FE05FF64F0C
:10246000118210828AEF90E00E941C3B402F60E0B6
:1024700070E0812F0E94C00F4FEF62E070E0812F6B
:102480000E94C00FC114D10411F0B60113C0809195
:102490001F029091200201968115F0EC9F0710F425
:1024A00080E090EC9093200280931F0260911F02C5
:1024B00070912002812F0E94741086E0E6E2F2E023
:1024C000DE01199601900D928A95E1F7F70183815B
:1024D0008F778C8784818D8785818E87B7016E5F2A
:1024E0007F4F812F0E948A10B601812F0E94911088
:1024F00026E030E0AE01475F5F4F66E070E0812F7D
:102500000E94DE0F61E070E0812F0E94171827E023
:102510002A9DC0012B9D900D11249C01245D364FF6
:102520007901F90111821082812F0E94F310F701C5
:10253000938382831682158214820E943908812F28
:1025400001C088E02E960FB6F894DEBF0FBECDBF57
:10255000DF91CF911F910F91FF90EF90DF90CF907F
:10256000BF90AF909F908F907F900895CF93C82F8A
:1025700080E591E00E941F088C2F0E947010C82FE8
:102580000E9439088C2FCF910895CF93C82F80E5F2
:1025900091E00E941F0860E170E08C2F0E941718E4
:1025A000CF910C943908CF93C82F80E591E00E9419
:1025B0001F088C2F0E947010833121F00E9439086F
:1025C00080E008C062E070E08C2F0E9417180E9423
:1025D000390881E0CF910895EF92FF920F931F93F6
:1025E000CF93C82F7B018A0180E591E00E941F08EC
:1025F000B7018C2F0E948A10B8018C2F0E94911075
:1026000064E070E08C2F0E941718CF911F910F91FA
:10261000FF90EF900C943908CF93C82F80E591E09C
:102620000E941F0868E070E08C2F0E941718CF915D
:102630000C9439084F925F927F928F929F92AF9243
:10264000BF92CF92DF92EF92FF920F931F93CF939F
:10265000DF931F921F92CDB7DEB7782E6B017A0100
:10266000882E912C47E0849FF0011124E45DF64F01
:102670000081118180E591E00E941F080E151F0561
:10268000BCF4872D0E94DA108C01872D0E94DA108D
:1026900080179107C9F787E0889DF001899DF00DAB
:1026A0001124E45DF64F8681081B11091183008314
:1026B0000115110599F4872D0E947010843109F4D9
:1026C0007FC0882309F47CC001E010E08C3111F454
:1026D00000E010E011950195110972C0E016F106B5
:1026E0000CF4870187E0889DF001899DF00D11248D
:1026F000E45DF64FE280F380C114D10451F127016B
:1027000057E05522872D0E940C11840D951D2091B4
:102710006F09273311F4A80119C09201200F311F4E
:1027200021303840C0F320E038E05901A418B50842
:10273000A501B6010E948116CA0CDB1CC8018A19CA
:102740009B095C01872D0E940C11A501B6010E9416
:102750008116E00EF11E87E0889DF001899DF00D45
:102760001124E45DF64FF382E28280819181801B27
:10277000910B918380832681A801420F511D4A3F0E
:10278000510510F4892BD9F487E0889DF001899DCB
:10279000F00D1124E45DF64F1682F982EA8222E000
:1027A00030E0AE014F5F5F4F68E270E0872D0E941E
:1027B000DE0F60E470E0872D0E94171801C0468389
:1027C0000E943908C8010F900F90DF91CF911F919F
:1027D0000F91FF90EF90DF90CF90BF90AF909F90C0
:1027E0008F907F905F904F900895EF92FF921F938C
:1027F000CF93DF93E82EF12C97E0899FF00111240D
:10280000E45DF64F2081318121153105F9F4182F4F
:1028100080E591E00E941F088E2D0E94DA10EC01E5
:10282000812F0E94DA108C179D07C9F70E94390882
:1028300087E08E9DF0018F9DF00D1124E45DF64F31
:1028400086819E01281B310931832083C901DF91D4
:10285000CF911F91FF90EF9008951F93CF93DF9337
:102860001F92CDB7DEB7182F80E591E00E941F08B8
:10287000812F0E940C1127E0129FF0011124E45DCA
:10288000F64F22813381377041E050E0BE016F5F27
:102890007F4F820F931F0E9481160E943908898101
:1028A0000F90DF91CF911F910895CF92DF92EF9219
:1028B000FF920F931F93CF93DF93182F7B01EA01B1
:1028C0004130584010F0C0E0D8E080E591E00E942F
:1028D0001F08812F0E94C0106C01812F0E94701070
:1028E000082F0E943908073111F00C3131F40E9491
:1028F000503ACC16DD0648F302C0C0E0D0E080E5D7
:1029000091E00E941F089E01A70160E070E0812F06
:102910000E94F00F60E270E0812F0E94171862E0C1
:1029200070E0812F0E94A20F84FD13C0812F0E94AE
:102930007010811105C00E94390880E090E012C03B
:102940000E9439080E94503A80E591E00E941F08D9
:10295000E6CF40E162E070E0812F0E94C00F0E944C
:102960003908CE01DF91CF911F910F91FF90EF9029
:10297000DF90CF9008951F93CF93DF93182F80E5BA
:1029800091E00E941F08812F0E94C010D82FC92FEC
:10299000812F0E947010182F0E943908173129F0DA
:1029A0001C3119F080E090E002C08D2F9C2FDF9148
:1029B000CF911F910895AF92BF92CF92DF92EF9285
:1029C000FF921F93CF93DF93182F6B015A01790168
:1029D00080E591E00E941F08812F0E94C010EC0149
:1029E000E816F90608F4E7019E01A501B601812F5A
:1029F0000E94F00F0E943908CE01DF91CF911F9104
:102A0000FF90EF90DF90CF90BF90AF900895EF923E
:102A1000FF921F93CF93DF93FB019081911109C027
:102A20009181911106C09281911103C093819923E4
:102A3000B1F04115510599F07A01EF01182F80E5A9
:102A400091E00E941F08BE01812F0E948A10B701E9
:102A5000812F0E9491100E94390881E001C080E01E
:102A6000DF91CF911F91FF90EF900895CF93C82FE2
:102A700080E591E00E941F0860E270E08C2F0E94C8
:102A8000171862E070E08C2F0E94A20F84FD1AC01C
:102A900062E070E08C2F0E94A20F83FF0AC048E121
:102AA00062E070E08C2F0E94C00F0E94390880E025
:102AB00012C00E9439080E94503A80E591E00E94BD
:102AC0001F08DFCF40E162E070E08C2F0E94C00F52
:102AD0000E94390881E0CF9108950F9300E020E033
:102AE00040E060E084E699E00E94BB360F910895D3
:102AF000FC0120812EBD9B012150310941F0518103
:102B00000DB407FEFDCF4EB55EBD4193F5CF6150CC
:102B10007109FC01E60FF71F0DB407FEFDCF8EB55E
:102B2000808308958EBD00000DB407FEFDCF8EB5E5
:102B30000895E0916C09F0916D09908180916B0985
:102B40008095892380830895E0916C09F0916D0947
:102B5000908180916B09892B80830895AF92BF92F9
:102B6000CF92DF92EF92FF920F931F93CF93DF9359
:102B7000CDB7DEB728970FB6F894DEBF0FBECDBF36
:102B80008C017B016A0180916F098333E1F4580164
:102B9000A40EB51E0A151B0509F48BC00E949915D9
:102BA00080EF0E949215812F0E949215802F0E9423
:102BB00092150F5F1F4FF70181917F010E949215BF
:102BC0000E94A415E7CF843321F50E94991519833B
:102BD0000A838D2D80688B83CC8264E070E0CE0107
:102BE00001960E94781587010C0D1D1DE016F10657
:102BF00069F0F70181917F010E949215F7CFB6012C
:102C00006D5F7F4FCE0101960E9478150E94A4153A
:102C100050C00E9499150F3F110509F020F4198248
:102C20000A8384E01CC017FD0BC019820A8333E0BD
:102C3000169507953A95E1F7007E0C600B8310C05E
:102C4000C80126E0969587952A95E1F719830A83AE
:102C5000807E0115104C10F4846101C08C618B835F
:102C600026E0C216D10498F420E0822F90E08C1563
:102C70009D0528F6E4E0F0E0EC0FFD1FE80FF91FDA
:102C8000D701A80FB91F8C9180832F5FEECF63E02F
:102C900070E0CE0101960E94781587010C0D1D1D74
:102CA000F70181917F010E949215E016F106C1F7AC
:102CB000ADCFC60128960FB6F894DEBF0FBECDBFCC
:102CC000DF91CF911F910F91FF90EF90DF90CF9008
:102CD000BF90AF900895CF93DF931F92CDB7DEB72B
:102CE000698341E050E0BE016F5F7F4F0E94AE15E7
:102CF0000F90DF91CF910895682F80E090E00C94C1
:102D00006B16AF92BF92CF92DF92EF92FF920F932A
:102D10001F93CF93DF9300D01F92CDB7DEB78C0106
:102D20006B017A0180916F098333F1F45B016801D3
:102D3000C40ED51E0C151D0509F460C00E9499151E
:102D40008FE00E949215812F0E949215802F0E9481
:102D500092150F5F1F4F80E00E949215F50181933D
:102D60005F010E94A415E6CF8433F1F40E94991507
:102D700019830A838F2D8F778B83EC8264E070E058
:102D8000CE0101960E947815A70160E070E0C601AF
:102D90000E94C23FE114F10421F0B701C6010E9474
:102DA00078150E94A4152AC00E9499150F3F11059D
:102DB00009F020F419820A831B821DC017FD0BC085
:102DC00019820A8333E0169507953A95E1F7007E5C
:102DD00008600B8310C0C80126E0969587952A9558
:102DE000E1F719830A83807E0115104C10F480618D
:102DF00001C088618B8363E070E0C2CFC7010F9090
:102E00000F900F900F90DF91CF911F910F91FF9036
:102E1000EF90DF90CF90BF90AF900895CF93DF9366
:102E20001F92CDB7DEB741E050E0BE016F5F7F4F2C
:102E30000E94811689810F90DF91CF91089580E0E3
:102E400090E00C940E17CF93DF9380E80E947C16DD
:102E5000C4E1D0E00E941F17882351F061E070E0C8
:102E600080E090E00E94E03A2197A1F780E001C065
:102E700081E0DF91CF91089583E380936F090E94F1
:102E800023178823A9F080E10E947C160E941F1757
:102E9000803171F482E10E947C160E941F178231FA
:102EA00039F480E00E947C160E941F1791E0811186
:102EB00090E0892F089584E380936F090E9423177F
:102EC0008823E1F088E00E947C160E941F1788305A
:102ED000A9F480E10E947C160E941F17803171F4D2
:102EE00080E00E947C160E941F17811107C08FE1AD
:102EF00090E00E940E1791E0833009F090E0892F56
:102F0000089587E380936F090E9423178823E1F0D7
:102F100088E00E947C160E941F178830A9F480E187
:102F20000E947C160E941F17803171F480E00E947D
:102F30007C160E941F17811107C089E390E00E9450
:102F40000E1791E0843009F090E0892F0895CF9317
:102F500080916A09811167C060E372E080E090E0CF
:102F60000E94E03A0E94122080912102282F30E036
:102F7000F901E45DFC4FE491F0E0EE0FFF1FE45730
:102F8000FC4F4591549150936D0940936C09F901A0
:102F9000EA51FD4FE491E0936B0961E00E94DF3B51
:102FA0000E94A41580E591E00E941F080E945B1713
:102FB0008823A1F080E480936E09C0E042E06EE1D6
:102FC00070E08C2F0E94C00F42E06FE170E08C2F08
:102FD0000E94C00FCF5FC83089F720C00E948117C0
:102FE000882321F080E180936E0918C00E943C176D
:102FF000C82F882371F084E080936E0965E58BE12A
:1030000090E00E946B1665E58AE190E00E946B16E5
:1030100005C010926F090E94390806C00E94390845
:1030200081E080936A09C1E08C2FCF910895CF93FE
:10303000DF93C82F462F61E070E00E94C00FD0E000
:10304000DC2FCC2780916E0990E0982F882701967D
:103050008C0F9D1F0E940E178111F4CFDF91CF912D
:1030600008950F9300E020E040E060E080E799E001
:103070000E94BB360F9108950E9624E1FC01119237
:103080002A95E9F70895CF93DF93EC01625F7F4FB4
:103090000E94D136CE01DF91CF910895CF93DF9377
:1030A000EC016E5E7F4F0E94D136CE01DF91CF9151
:1030B0000895CF93DF93EC016A5E7F4F0E94D13673
:1030C000CE01DF91CF910895CF93DF93EC01625E43
:1030D0007F4F0E94D136CE01DF91CF91089580E3DA
:1030E000FB0180833296842F82958F7090E1899FB7
:1030F000401911244A3014F4405D01C0495C4293E8
:10310000482F8111F0CF08950F9300E020E040E0B8
:1031100060E086E799E00E94BB360F9108957F92A8
:103120008F929F92AF92BF92CF92DF92EF92FF92D7
:103130000F931F93CF93DF93CDB7DEB7AC970FB646
:10314000F894DEBF0FBECDBF7C01762E942E852E67
:1031500020E2B22ECE0101966C01FC012B2D1192C2
:103160002A95E9F70FEF2FEF4FEF6FEF86960E944A
:10317000BB3687E594E09AA389A389A59AA5ABA558
:10318000BCA58BA39CA3ADA3BEA387010D5B1F4F62
:1031900043E450E0BE016F5D7F4FC8010E947F0E87
:1031A000019609F4BFC081E089838A8386E0A82E56
:1031B000AB821C82F70164817581868197810E94B0
:1031C000BC3C6D837E838F83988789869A8680E84E
:1031D00090E09C878B874CE150E0B601C8010E94CB
:1031E0008F0EF6012B2D11922A95E9F7470188E001
:1031F000880E911CF401D60101900D92AA94E1F77A
:1032000040E150E0B601C8010E948F0EF601119214
:10321000BA94E9F796E0A92EB12C40E250E0B6014D
:10322000C8010E948F0EF1E0AF1AB108B1F783E632
:10323000898392E89A8393E59B838C8385E38D83CE
:1032400081E08E837F829DE3988797E099878A87C4
:1032500086E0F401DE011B9601900D928A95E1F75C
:103260008CE0898B8A8B6CE174E0CE0143960E94DE
:10327000DD3FF7014385BE01675E7F4FC7010E94B6
:103280006F18F7014485BE01655E7F4FC7010E943C
:103290006F18F7014585BE01635E7F4FC7010E942D
:1032A0006F184EE150E0B601C8010E948F0EF3E0A6
:1032B0007F121EC082E3898384E08A83F7019685AA
:1032C0009B8397859C8390899D8391899E8396E3B8
:1032D0009F838887828D8987838D8A87848D8B875A
:1032E000858D8C874CE050E0B601C8010E948F0E9E
:1032F00087E3898386E08A8391E09B8393E09C83C4
:103300008D838FE08E838AE38F838BE388878FEFB3
:10331000898749E050E0B601C8010E948F0EC801BC
:103320000E94890EAC960FB6F894DEBF0FBECDBFDB
:10333000DF91CF911F910F91FF90EF90DF90CF9091
:10334000BF90AF909F908F907F9008952F923F9263
:103350004F925F926F927F928F929F92AF92BF92A5
:10336000DF92EF92FF920F931F93CF93DF93CDB72E
:10337000DEB7C054D1090FB6F894DEBF0FBECDBF83
:103380007C014A015B0119010E94AF3A2B013C010B
:1033900087010D5B1F4FC8010E943D0F18161906CB
:1033A000A4F00E94AF3ADC01CB0184199509A6096B
:1033B000B70988169906AA06BB06F0F062E370E02A
:1033C00080E090E00E94E03AE6CF42E250E0BE01A9
:1033D0006F5F7F4FC8010E94CC0E8981823031F42B
:1033E000F801848995898334910541F0D12CC80175
:1033F0000E94D40D8D2D43C18FEF41C16D817E811F
:103400008F8198850E94BC3C2B013C01F1016083B7
:1034100071838283938346E050E0B701685F7F4FFA
:10342000CE014D960E94AC3F892B99F4F701808123
:103430009181A281B381481659066A067B0648F03D
:1034400084819581A681B78184159505A605B70568
:1034500028F4C8010E94D40D80E011C189899A899D
:10346000AB89BC89F70186879787A08BB18B4EEC1F
:1034700050E060E070E0C8010E94CC0ED12CC70182
:1034800082969EAB8DABF701B696F8AFEFAB089680
:103490009AAF89AF47019AE1890E911CBD96FCAFA6
:1034A000EBAFC70142969EAF8DAFFD972196FFAF60
:1034B000EEAF21971701FEE12F0E311CC8010E94CB
:1034C000BA0D181619060CF092CFC8010E94A30E6F
:1034D0008333910509F4B3C0ACF48130910569F1EF
:1034E0001CF4892B59F3C5C08330910571F10697FF
:1034F00009F0BFC0C8010E94A30E5C0144E050E087
:10350000B1012DC08A33910509F46DC034F48533BF
:10351000910559F0C69781F1ACC08B33910509F440
:1035200078C08F3F910551F2A4C0C8010E94A30E3C
:10353000C8010E94A30ED82EC1CFC8010E94A30EBD
:1035400044E050E06DAD7EAD13C0C8010E94A30EF3
:103550005C0144E050E021966EAD7FAD2197C8013B
:103560000E94CC0EA50155274450510960E070E03F
:10357000C8010E94CC0EA2CFC8010E94A30E5C011C
:1035800040E050E0BA01CE0189960E94C736B401EE
:10359000CE018F960E94D1364BA55CA56DA57EA568
:1035A00089A99AA9ABA9BCA9481759076A077B073B
:1035B000A1F0EBADFCAD4080518062807380B4011E
:1035C000CE0183960E94D1368DA19EA1AFA1B8A550
:1035D00084159505A605B70521F444E050E0B40133
:1035E000C7CFA5014AC0C8010E94A30E44E050E025
:1035F0006FA978ADC8010E94CC0EF70166A177A132
:1036000080A591A50E94BC3C66A377A380A791A743
:1036100055CFC8010E94A30E44E050E069AD7AADD9
:10362000C8010E94CC0EF70162A573A584A595A5DB
:103630000E94BC3C62A773A784A795A73FCFC8018F
:103640000E94A30E44E050E06DA97EA9C8010E942B
:10365000CC0EF70162A173A184A195A10E94BC3C8C
:1036600062A373A384A395A366A777A780AB91AB4E
:1036700025CFC8010E94A30EAC01552777CFC05CAF
:10368000DF4F0FB6F894DEBF0FBECDBFDF91CF91F5
:103690001F910F91FF90EF90DF90BF90AF909F90A0
:1036A0008F907F906F905F904F903F902F900895F4
:1036B0002F923F924F925F926F927F928F929F9242
:1036C000AF92BF92CF92DF92EF92FF920F931F9330
:1036D000CF93DF9300D000D0CDB7DEB78C0120EDC3
:1036E00037E040E050E061E070E080E090E00E9470
:1036F0003438D80114966D937D938D939C931797CE
:10370000F80160837183828393835801F3E4AF0EE1
:10371000B11CC5010E94D50D64E470E0C5010E9492
:10372000E30D882309F436C10E94AF3A2B013C0116
:10373000812C912CC8018E5B9F4F9E838D8348EE18
:10374000C42E43E0D42EE12CF12C52E0252EAD8185
:10375000BE818C91833009F404C1811120C0F8012D
:1037600084819581A681B7810196A11DB11D8483B5
:103770009583A683B7830E94AF3A641975098609B9
:103780009709A70196010E94733CA90161E0C80155
:103790000E948F1881E0AD81BE818C93CAC08430B5
:1037A000F9F4F80184819581A681B7810196A11D64
:1037B000B11D84839583A683B7830E94AF3A6419B1
:1037C000750986099709A70196010E94733CA90112
:1037D00063E0C8010E948F18AD81BE812C92A9C000
:1037E000813059F5F80142AD53AD64AD75AD9E0120
:1037F0002F5F3F4FC8010E94A619382EF2E08F13A9
:1038000092C089819A81AB81BC81F80184839583C0
:10381000A683B7830E94AF3A641975098609970990
:10382000A70196010E94733CA90163E0C8010E94B0
:103830008F18AD81BE813C927CC0823009F079C086
:10384000F80142AD53AD64AD75AD9E012F5F3F4FA2
:10385000C8010E94A619382EF5E08F135DC0E3E081
:10386000AD81BE81EC93F80182A193A1A4A1B5A181
:10387000892B8A2B8B2B41F484E893E0A0E0B0E005
:1038800082A393A3A4A3B5A3F80186A197A1A0A5A1
:10389000B1A5892B8A2B8B2B61F482A193A1A4A1C2
:1038A000B5A1B695A7959795879586A397A3A0A749
:1038B000B1A7F80182A593A5A4A5B5A5892B8A2B4C
:1038C0008B2BA9F482A193A1A4A1B5A1AC01BD0148
:1038D00023E076956795579547952A95D1F7841BF0
:1038E000950BA60BB70B82A793A7A4A7B5A7F801C2
:1038F00086A197A1A0A5B1A586A797A7A0ABB1ABBC
:1039000082A593A5A4A5B5A582AB93ABA4ABB5AB9B
:1039100088248394912C0DC0F6E08F1304C0AD81F0
:10392000BE811C9206C0BFEF3B1203C0ED81FE8139
:103930001082F1E08F16910409F409CF0E94AF3A8A
:10394000DC01CB0184199509A609B709F80126A95C
:1039500037A940AD51AD281739074A075B0708F072
:10396000F6CEC5010E94D50DF80184819581A6810E
:10397000B7810196A11DB11D84839583A683B7836A
:103980000E94AF3AF801FE9660837183828393832D
:10399000C40102C080E090E026960FB6F894DEBF26
:1039A0000FBECDBFDF91CF911F910F91FF90EF9090
:1039B000DF90CF90BF90AF909F908F907F906F904F
:1039C0005F904F903F902F900895CF92DF92EF92AB
:1039D000FF920F931F93CF93DF93EC016B011AA219
:1039E0001BA21CA21DA21EA21FA218A619A61AA6DF
:1039F0001BA61CA61DA62EAB3FAB48AF59AFEAAE27
:103A0000FBAE0CAF1DAF8C01085F1F4F86E0F801C5
:103A100011928A95E9F7CE010E943C1886E0F601E2
:103A2000D80101900D928A95E1F7FE01EE5BFF4F00
:103A30001082CE01DF91CF911F910F91FF90EF90F7
:103A4000DF90CF900C94581BFB014281538164811D
:103A50007581FC01428353836483758317821682C8
:103A60000895CF93FB0120E080E090E0CAE031911F
:103A7000332309F160ED630F6A3080F4C89FB00111
:103A8000C99F700D1124CB01C097830F911D37FD85
:103A90009A958F3F910559F350F314C03E3291F43B
:103AA000233081F0DA01A20FB11D12968C932F5FA3
:103AB00080E090E0DCCF233029F4FA01858381E0B7
:103AC00090E002C080E090E0CF9108950F9300E075
:103AD00020E040E060E08CE799E00E94BB360F9167
:103AE00008958F929F92AF92BF92CF92DF92EF9202
:103AF000FF920F931F93CF93DF9300D0CDB7DEB724
:103B00006C017B010E94AF3AF601778366838601E0
:103B1000085F1F4FB6016A5F7F4F42E050E0C80167
:103B20000E948F0E81E090E09A83898342E050E00A
:103B3000BE016F5F7F4FC8010E948F0E80E091E051
:103B40009A83898342E050E0BE016F5F7F4FC801D6
:103B50000E948F0E1A82198242E050E0BE016F5F10
:103B60007F4FC8010E948F0E42E050E0BE016F5FA0
:103B70007F4FC8010E948F0E42E050E0BE016F5F90
:103B80007F4FC8010E948F0E5701F5018081882365
:103B900009F1A7015A01F50181916F01882321F0F4
:103BA0008E3211F0A601F6CF4A018E189F08181424
:103BB000190474F48B8241E050E0BE016D5F7F4FC9
:103BC000C8010E948F0EA401B701C8010E948F0E88
:103BD0007601DBCF1B8241E050E0BE016D5F7F4F7D
:103BE000C8010E948F0EE12CFF24F394FA82E9822F
:103BF00042E050E0BE016F5F7F4FC8010E948F0E10
:103C0000FA82E98242E050E0BE016F5F7F4FC80157
:103C10000E948F0E81E090E00F900F900F90DF9147
:103C2000CF911F910F91FF90EF90DF90CF90BF90B9
:103C3000AF909F908F9008952F923F924F925F92F6
:103C40006F927F928F929F92AF92BF92CF92DF92AC
:103C5000EF92FF920F931F93CF93DF93CDB7DEB711
:103C600063970FB6F894DEBF0FBECDBF7C016B012A
:103C70001A010E94AF3A4B015C018701085F1F4F98
:103C80002601612C712CC8010E943D0F18161906DF
:103C9000A4F00E94AF3ADC01CB0188199909AA0966
:103CA000BB09481659066A067B06D0F062E370E04D
:103CB00080E090E00E94E03AE6CFF7014281538134
:103CC00064817581808D918DA28DB38D48175907C0
:103CD0006A077B0749F4848D958DC59729F409C03F
:103CE000EE24EA94FE2CF1C09EEFE92EFF24FA9414
:103CF000ECC0C8010E94BA0D0C970CF4E2C04CE075
:103D000050E0BE016F5F7F4FC8010E94CC0E8B81D7
:103D10009C819827892798279A8B898BF701468160
:103D2000578129813A814217530711F497FD08C042
:103D3000C8010E94D40D7CEFE72EFF24FA94C5C081
:103D40008F709270892B41F0C8010E94D40D6BEFE7
:103D5000E62EFF24FA94B9C0CF80D884DC24CD2489
:103D6000DC24C114D10419F0E12CF12C26C0C801C7
:103D70000E94D40D5AEFE52EFF24FA94A6C041E02C
:103D800050E0BE01635F7F4FC8010E94CC0E4D859D
:103D9000442331F050E060E070E0C8010E94CC0E96
:103DA0008D858111ECCF44E050E060E070E0C80107
:103DB0000E94CC0EFFEFEF1AFF0A8D819E8198279B
:103DC00089279827E816F906D0F2A12CB12C41E0FA
:103DD00050E0BE016D5E7F4FC8010E94CC0E4B8942
:103DE000842F807C49F4442379F050E060E070E057
:103DF000C8010E94CC0E08C041E050E060E070E0D5
:103E0000C8010E94CC0E1B8A8B898111E0CF42E051
:103E100050E0BE01615F7F4FC8010E94CC0E42E0BE
:103E200050E0BE01635F7F4FC8010E94CC0E44E0AA
:103E300050E060E070E0C8010E94CC0E42E050E02B
:103E4000BE016F5E7F4FC8010E94CC0E8F8598899E
:103E500049895A8981159140E9F4ED84FE84FE2454
:103E6000EF24FE2481E0E816F104A1F4411554404A
:103E700041F0C8010E94D40D47EFE42EFF24FA94CC
:103E800024C0B1016E5F7F4F44E050E0C8010E9442
:103E9000CC0E1BC054274527542760E070E0C801B2
:103EA0000E94CC0EFFEFAF1ABF0ACA14DB0409F060
:103EB0008ECFC8010E94D40D36EFE32EFF24FA9472
:103EC00004C08DEFE82EFF24FA94C70163960FB665
:103ED000F894DEBF0FBECDBFDF91CF911F910F9140
:103EE000FF90EF90DF90CF90BF90AF909F908F901A
:103EF0007F906F905F904F903F902F9008956F92BA
:103F00007F928F929F92AF92BF92CF92DF92EF9269
:103F1000FF920F931F93CF93DF9300D000D0CDB7C4
:103F2000DEB77C014B015A0139010E94311D8C0121
:103F3000892B09F05CC0F70142815381648175814E
:103F400080917E0990917F09A0918009B0918109AB
:103F5000481759076A077B0709F44CC00E94AF3A1B
:103F60006701F8E0CF0ED11C6F7077277C5FC60128
:103F70000E94E30D813009F03FC087E594E09A8309
:103F80008983F70182819381A481B5818B839C838E
:103F9000AD83BE8345E350E0BE016F5F7F4FC60136
:103FA0000E947F0E892B19F400E010E01CC0B401C0
:103FB000C7010E94711D892BB9F3C6010E94890EA9
:103FC000892B91F383E0882E912CA501B301C701C1
:103FD0000E941C1E8C0121E0821A910821F00F3FE3
:103FE000FFEF1F0791F3C6010E94D50D05C001E048
:103FF00010E002C00EEF1FEFC80126960FB6F8942E
:10400000DEBF0FBECDBFDF91CF911F910F91FF900B
:10401000EF90DF90CF90BF90AF909F908F907F9068
:104020006F900895CF93CFB7F8948091850981114F
:1040300027C0E1E6F3E08491EBE1F3E09491E82F0F
:10404000F0E0EE0FFF1FEA55FC4FA591B491EC9103
:10405000E92321F461E085E30E941B3C61E085E3F4
:104060000E94DF3B8CB580618CBD8CB580648CBDBB
:1040700061E084E30E94DF3B61E083E30E94DF3B79
:10408000809185098F5F80938509CFBFCF91089577
:10409000CF93DF93C5E1D2E08091860990918709A3
:1040A0006991DC01ED91FC910190F081E02D199571
:1040B000B2E0CF31DB0781F7DF91CF910895FC01AA
:1040C0003196079620E030E04191240F311DE8172A
:1040D000F907D1F788279927821B930B089585E16B
:1040E00092E00E945F20E5E1F2E0978380870895E7
:1040F000E6E8F8E0119288E0E039F807D9F708958A
:10410000CF93DF930E947820C6E8D8E0809186099B
:1041100090918709DC01ED91FC910284F385E02DFB
:1041200019958F3FBFEF9B0739F0899328E0C0397D
:10413000D20761F781E001C080E0DF91CF9108955F
:10414000909387098093860988E490E290938B0985
:1041500080938A0980E890E2909389098093880986
:104160000895CF92DF92EF92FF921F93CF93DF9348
:10417000182FD62FC42F0E94AF3A20918C0930916E
:104180008D09621B730B77FF03C0719561957109EF
:104190006233710594F4CB01770FAA0BBB0B42E39A
:1041A00050E060E070E06A017B01C81AD90AEA0AAF
:1041B000FB0AC701B6010E94E03A10931802D0939F
:1041C0001A02C0931B020E946F20E0918A09F091AD
:1041D0008B0919950E94AF3A60938C0970938D09F1
:1041E00080938E0990938F09DF91CF911F91FF905B
:1041F000EF90DF90CF900895AB0160E070E00C94F9
:10420000B120BC0186E00C94FC20BC0182E10C943E
:10421000FC20CF93DF931F92CDB7DEB76983DC011B
:10422000ED91FC910280F381E02D41E050E0BE0170
:104230006F5F7F4F19950F90DF91CF910895CF93C6
:10424000DF93EC01898D9A8D009739F481E090E03D
:104250009B838A8380E090E00BC0FC011382128272
:104260000E94DF2CE98DFA8D22813381232B71F797
:10427000DF91CF910895FC01818D928D009711F00F
:104280000C94842A0895CF93DF931F92CDB7DEB7A5
:1042900041E050E0BE016F5F7F4F0E949F28019771
:1042A00019F4898190E002C08FEF9FEF0F90DF91AA
:1042B000CF910895FC01818D928D009711F00C949F
:1042C00043218FEF9FEF08950F931F93CF93DF93B9
:1042D000FC01818D928D0097B9F0EF010E9443217E
:1042E0008C010F3F8FEF180791F0898D9A8DFC019B
:1042F000428553856485758541505109610971096D
:104300000E94ED29C80105C080E090E002C08FEF57
:104310009FEFDF91CF911F910F910895EF92FF9240
:104320000F931F93CF93DF93EC017B018A011B82D4
:104330001A8288EE93E0A0E0B0E08C839D83AE8388
:10434000BF8387E294E0998388838DE190E00E94A7
:10435000DD3C9A8F898F009779F02DE1F701DC0120
:1043600001900D922A95E1F74CE050E0B801CE01A2
:104370000C960E94E43F188EDF91CF911F910F9110
:10438000FF90EF900895FC011382128288EE93E073
:10439000A0E0B0E084839583A683B78387E294E0AE
:1043A00091838083128E118E14860895FC01818D75
:1043B000928D009729F00E94ED2991E0811101C0B2
:1043C00090E0892F0895DC015996ED91FC915A9760
:1043D000309729F0628573858485958508956FEF00
:1043E0007FEFCB010895DC015996ED91FC915A972E
:1043F000309729F06389748985899689089560E0EA
:1044000070E0CB010895CF92DF92EF92FF92CF93AD
:10441000DF93FC01218D328D232BD9F0EC010E941A
:10442000F3216B017C01CE010E94E321A7019601DB
:10443000261B370B480B590BDA01C901811530E8EF
:104440009307A105B10538F08FEF9FE7A0E0B0E03A
:1044500002C080E090E0DF91CF91FF90EF90DF907D
:10446000CF900895CF93DF93EC01898D9A8D0097BB
:1044700041F00E94CB2A898D9A8D0E94753D1A8E3B
:10448000198EDF91CF910895DC015996ED91FC9141
:104490005A97309721F081E09581911101C080E019
:1044A00008950F931F93CF93DF93EC018B0141E0AD
:1044B0000E942332811109C040E0B801CE01DF9192
:1044C000CF911F910F910C94233281E0DF91CF9116
:1044D0001F910F9108950F931F93CF93DF93EC01DA
:1044E000162F8FA5882321F0CE018A960E94CB2A11
:1044F000412F61E0CE010E945625882389F08E016C
:10450000045F1F4FBE01C8010E945122882341F061
:10451000B801CE018A960E944E2891E0811101C017
:1045200090E0892FDF91CF911F910F910895FC01A9
:10453000DB0112968D919C9113979383828389E37B
:1045400094E09183808314968C91149784831596BC
:104550008C911597858316964D915D916D917C9107
:10456000199746835783608771871A964D915D919D
:104570006D917C911D9742875387648775871E963E
:104580004D915D916D917C91519746875787608BD6
:10459000718B52968C915297828B53964D915D916F
:1045A0006D917C915697438B548B658B768B579688
:1045B0004D915D916D917C915A97478B508F618F92
:1045C000728F5B968D919C915C97948F838F0895E9
:1045D0004F925F926F927F928F929F92AF92BF9213
:1045E000CF92DF92EF92FF920F931F93CF93DF93BF
:1045F000CDB7DEB7C754D1090FB6F894DEBF0FBEF2
:10460000CDBF5C014A01390119A218A289E394E0E7
:104610009F8F8E8F1BA21C821B829A8389831E828E
:10462000645F7F4F6E018EE1C80ED11CC6010E94EF
:104630004E2874018E010F5F1F4F5C2C4D2C6FE2D2
:1046400070E0C7010E94C93F009709F443C0F70119
:1046500020812F3271F4FFEFEF1AFF0A902F812F84
:10466000052D142D2C01C201502E412E092F182F7B
:10467000E6CF8E198D3008F08CE0C82ED12CA60123
:10468000B701CE01CB960E94E43FEBE3F0E0EC0FE4
:10469000FD1FEC0DFD1D1082C8010E94CB2A21E0F8
:1046A000AE01455C5F4F652D742DC8010E94F32B50
:1046B000811109C0F5011382128289E394E091838C
:1046C0008083158211C0EC0CFD1C852D942D0E9459
:1046D000CB2AC9CFE818F908F301F182E082652DF1
:1046E000742DC5010E949722C501C95BDF4F0FB62B
:1046F000F894DEBF0FBECDBFDF91CF911F910F9118
:10470000FF90EF90DF90CF90BF90AF909F908F90F1
:104710007F906F905F904F900895DF92EF92FF929D
:104720000F931F93CF93DF93CDB7DEB7C955D10950
:104730000FB6F894DEBF0FBECDBF7C018A01D22E2A
:104740009E01285A3F4FCE01CB960E94E8226A96DE
:104750008EAD9FAD6A97080F191FF80180818111F6
:104760000AC0BE01655C7F4FCE0101960E94972270
:1047700041E352E033C019A218A289E394E09F8F6D
:104780008E8F1BA221968FAD2197811104C0C70186
:104790000E94C32129C02D2DA801BE01655C7F4F59
:1047A000CE014E960E94F32B882389F3CE01CB963F
:1047B0000E94CB2A8D2D8670863041F449A95AA9D2
:1047C0006BA97CA9CE014E960E94ED29BE01625EC6
:1047D0007F4FCE0101960E949722A801BE016F5F14
:1047E0007F4FC7010E948E21C701C75ADF4F0FB606
:1047F000F894DEBF0FBECDBFDF91CF911F910F9117
:10480000FF90EF90DF900895E0E9F9E015821682BD
:104810001186138682E090E0A0E0B0E0848795875F
:10482000A687B78713A215A614A689E394E093A7D9
:1048300082A717A608959FB7F894209184098091C4
:104840008209213019F48DBB9FBF08958FBF089551
:104850000F93FC0180E092E1AAE7B0E030E0481756
:1048600059076A077B0740F4B695A79597958795F2
:104870003F5F3630A1F737E091E09327222311F014
:1048800020E501C020E70C70892F8695082B022BAC
:104890000083917091830F9108958FEF0C9492157E
:1048A00061E0FC0184810E941B3C8091D90988232E
:1048B00039F01092D9098091840981110C941B243C
:1048C0000895CF93DF93EC018091D909811109C03C
:1048D00081E08093D9098091DA099091DB090E94E7
:1048E0001F0860E08C81DF91CF910C941B3CCF932B
:1048F000DF93EC018E81882389F08F8198859C015C
:104900002F5F3F4F38872F838230924018F40E94E8
:104910004D24F3CFCE010E9450241E82DF91CF910F
:1049200008950F93CF93DF931F921F92CDB7DEB7F9
:10493000673028F026E1FC01258380E047C0623023
:10494000F9F058F46623A9F0613079F500E021E030
:1049500040E059E06DE370E02EC06430F9F0B8F04B
:10496000653019F500E021E040E950ED63E070E0CA
:1049700022C000E021E040E458E76DE771E01BC091
:1049800000E021E040E854E86EE170E014C000E08F
:1049900021E040E452E46FE070E00DC000E021E06F
:1049A00040E251EA67E070E006C000E021E048E440
:1049B00058EE61E070E0CE0101960E9428248981C2
:1049C0009A819093DB098093DA0981E00F900F9030
:1049D000DF91CF910F9108950F931F93CF93DF93A2
:1049E000EB010E94AF3A8B010E944D248F3F49F0AA
:1049F0000E94AF3A601B710B6C177D07A8F380E033
:104A000001C081E0DF91CF911F910F9108958F92A6
:104A10009F92AF92BF92FF920F931F93CF93DF931A
:104A2000EC01F62E49015A010E947724CE010E9422
:104A300061246CE271E0CE010E94EC248F2D806431
:104A40000E94921508E110E0D501C401002E04C0B7
:104A5000B695A795979587950A94D2F70E949215D7
:104A600008501109083F8FEF180771F7FF2029F050
:104A700088E0F81204C087E803C085E901C08FEF21
:104A80000E94921510E00E944D248A8787FF04C07F
:104A90001F3F11F01F5FF7CFDF91CF911F910F9153
:104AA000FF90BF90AF909F908F9008957F928F92CC
:104AB0009F92AF92BF92CF92DF92EF92FF920F93AD
:104AC0001F93CF93DF931F921F92CDB7DEB77C0168
:104AD000762EFC01138611861682158244830E946D
:104AE000AF3A6B0161E0F70184810E94DF3B61E036
:104AF000F70184810E941B3C0E94122000E021E00B
:104B000040E950ED63E070E0CE0101960E94282458
:104B100089819A819093DB098093DA090E941F08AA
:104B20001AE08FEF0E9492151150D9F780918409F5
:104B300081110E941B24C7010E94612420E030E003
:104B4000A90160E0C7010E940725082FF7018287AD
:104B5000813049F00E94AF3A6C197D09613D774080
:104B600068F381E050C02AEA31E040E050E068E0BC
:104B7000C7010E94072582FF03C0F70103870EC00B
:104B800004E00E944D24F70182870150D1F78A3A50
:104B900011F082E039C082E0F7018387F701838555
:104BA000823021F0812C912C540105C0812C912C54
:104BB000A12C80E4B82E20E030E0A90167E3C70112
:104BC0000E940725A501940169E2C7010E940725FB
:104BD000F7018287882349F00E94AF3A6C197D095A
:104BE000613D774040F388E00EC0F7018385823055
:104BF000F1F420E030E0A9016AE3C7010E94072533
:104C0000882339F086E0F7018583C7010E9450248C
:104C100016C00E944D24807C803C19F483E0F7018B
:104C200083870E944D240E944D240E944D24C70179
:104C30000E945024672DC7010E949124182F812FB4
:104C40000F900F90DF91CF911F910F91FF90EF90F8
:104C5000DF90CF90BF90AF909F908F907F900895FE
:104C60000F931F93CF93DF93EC010E94AF3A8B0118
:104C70000E944D248A878F3F49F40E94AF3A601BFF
:104C8000710B6D327140A0F38FE003C08E3F39F09D
:104C90008DE08D83CE010E94502480E001C081E030
:104CA000DF91CF911F910F910895CF92DF92EF92F4
:104CB000FF920F931F93CF93DF93EC016901C8011B
:104CC000820F931F8130924008F05CC08E81882350
:104CD00071F088819981AA81BB8184179507A60705
:104CE000B70729F48F819885C816D90610F548832F
:104CF00059836A837B838B85833039F089E0440F45
:104D0000551F661F771F8A95D1F79A01AB0161E1A4
:104D1000CE010E940725882319F083E08D8332C0DD
:104D2000CE010E943026882369F118861F8281E017
:104D30008E838F8198858C159D0540F40E944D24AB
:104D40008F819885019698878F83F3CF6701E00E56
:104D5000F11ECE14DF0431F00E944D24F601819340
:104D60006F01F7CF8F819885080F191F18870F8360
:104D70008985882319F00115124048F0CE010E9460
:104D8000772405C0CE010E94502480E001C081E05C
:104D9000DF91CF911F910F91FF90EF90DF90CF9017
:104DA0000895EF92FF920F931F930115110519F0CB
:104DB0000E94552601C081E01F910F91FF90EF9056
:104DC0000895EF92FF920F931F93790100E012E094
:104DD00020E030E00E9455261F910F91FF90EF9048
:104DE0000895EF92FF920F931F93CF93DF938C015F
:104DF000862F7A010E949215E7018EEFF81A8991A9
:104E00000E949215CE15DF05D1F78FEF0E94921503
:104E10008FEF0E9492150E944D24F80182878F71B6
:104E2000853039F081E18583C8010E94502480E0FB
:104E300001C081E0DF91CF911F910F91FF90EF9022
:104E400008950F931F93CF93DF93EC0189014115D0
:104E500051056105710511F482E132C08B85833003
:104E600039F089E0440F551F661F771F8A95D1F7E7
:104E70009A01AB0168E1CE010E940725882311F059
:104E800084E01EC0A8016EEFCE010E94F1268823A7
:104E9000C1F068E572E0CE010E94EC24811102C0ED
:104EA00085E10EC020E030E0A9016DE0CE010E9456
:104EB0000725811104C00E944D24882339F084E124
:104EC0008D83CE010E94502480E004C0CE010E9458
:104ED000502481E0DF91CF911F910F910895EAED69
:104EE000F9E080E5808311820895CF93DF93EC0190
:104EF0009C012A5F3F4F41E050E060E070E08B8D05
:104F00009C8D0E94B8308823A1F08F89988DA98D3F
:104F1000BA8D892B8A2B8B2B59F48E819F81A88582
:104F2000B9858F8B988FA98FBA8F8C8180688C837D
:104F300081E0DF91CF910895CF92DF92EF92FF92BF
:104F40001F93CF93DF93EC010E947527811102C05C
:104F500080E04AC0EB8DFC8DCE80DF80E884F98450
:104F600082E0C81AD108E108F108058404C0CC0C1D
:104F7000DD1CEE1CFF1C0A94D2F786859785A0895C
:104F8000B189C80ED91EEA1EFB1E148181E0C81A21
:104F9000D108E108F108112361F0C701B601610FE2
:104FA000711D811D911D0E94072F882389F21150C8
:104FB000F2CFEB8DFC8D80E092E0A0E0B0E00584C4
:104FC00004C0880F991FAA1FBB1F0A94D2F74B89F0
:104FD0005C896D897E89840F951FA61FB71F8B8BF7
:104FE0009C8BAD8BBE8B81E0DF91CF911F91FF90A9
:104FF000EF90DF90CF900895CF93DF93EC01462F91
:105000006E857F85888999890E94CC2E882341F0FE
:105010008A8920E2829FC00111248B51964F02C0E1
:1050200080E090E0DF91CF910895FB019B01255F27
:105030003F4F40E24193E217F307E1F7DC0190E0D4
:1050400027E08D91882319F18E3229F42A3021F13D
:1050500098E02AE0F6CFE0E9F2E03491332321F042
:1050600031968313FACF18C02917B0F03FED380FEF
:105070003E3590F431E0390FFB01E90FF11D9FE956
:10508000980F9A3108F480528083932FDACF81E011
:10509000FB019081903209F480E008950F931F93F3
:1050A000CF93DF93FC012581222311F080E042C0E1
:1050B0008B01EC01FB0187898031B1F482E08D83A3
:1050C0001F8A188E198E1A8E808D918DA0E0B0E007
:1050D00025E0880F991FAA1FBB1F2A95D1F78B8B3C
:1050E0009C8BAD8BBE8B15C0803201F783E08D8326
:1050F000FB01428D538D648D758D4F8B588F698F59
:105100007A8F9E012D5E3F4FC8010E94AE2F8823EB
:1051100069F21C8F0B8F81E08C831E821F821886A0
:1051200019861A861B861C861D861E861F86188A6F
:10513000198A1A8ADF91CF911F910F9108952F92AA
:105140003F924F925F926F927F928F929F92AF9217
:10515000BF92CF92DF92EF92FF920F931F93CF9364
:10516000DF93EC015B014A018D81811103C08FEF58
:105170009FEFD7C08C8180FFFACF4B885C886D8809
:105180007E884A855B856C857D85C401A0E0B0E0A2
:1051900093018201041B150B260B370B0817190707
:1051A0002A073B0718F44201841A950A24011E01BC
:1051B00026E0220E311C4114510409F47EC04A85B8
:1051C0005B856C857D856A0181E0D822ED818B8DC0
:1051D0009C8D8A019B01F9E03695279517950795D7
:1051E000FA95D1F7E23061F4FC01828D938DA48DA4
:1051F000B58DBC01CD01600F711F821F931F3FC091
:10520000FC0174807A947022C114D104C9F4711025
:1052100017C0452B462B472B49F48F89988DA98DB4
:10522000BA8D8E839F83A887B9870AC04E815F811C
:105230006885798591010E942B2F882309F497CFE7
:10524000EB8DFC8D8E819F81A885B9850297A10980
:10525000B109058404C0880F991FAA1FBB1F0A94B7
:10526000D2F74685578560897189840F951FA61FDF
:10527000B71FBC01CD01670D711D811D911D20E07F
:1052800032E02C193D0932012415350508F43901A5
:105290002C8126FD04C06114F2E07F0679F50091AF
:1052A00022021091230220912402309125026017DE
:1052B00071078207930719F421C0C40132C0750138
:1052C00083019601AB01BC018091E3099091E4094F
:1052D0000E94D126882309F44ACFA60CB71C8A85E0
:1052E0009B85AC85BD85860D971DA11DB11D8A8747
:1052F0009B87AC87BD87461857085DCF40E00E946A
:10530000CC2E882309F433CFF601EB51F64FD501AB
:10531000CF01860D971D8E179F07F9F221912D93CE
:10532000FACFDF91CF911F910F91FF90EF90DF9017
:10533000CF90BF90AF909F908F907F906F905F9035
:105340004F903F902F900895FF920F931F93CF930C
:10535000DF931F92CDB7DEB7FC012581223018F410
:1053600080E090E033C08C01FC0142855385648568
:10537000758585E076956795579547958A95D1F718
:10538000F42FFF70FF2E41E050E0BE016F5F7F4FB2
:10539000C8010E949F28019719F4898190E002C0FA
:1053A0008FEF9FEF0196E1F2F80182859385A48546
:1053B000B5854F96A11DB11D82879387A487B587B8
:1053C000F0E2FF9EC00111248B51964F0F90DF91A8
:1053D000CF911F910F91FF9008958F929F92AF925E
:1053E000BF92CF92DF92EF92FF920F931F93CF93D2
:1053F000DF93EC018D81811102C080E078C00B89C0
:105400001C892D893E890417150726073707A8F33D
:105410006A017B01823029F4CA86DB86EC86FD8630
:105420000DC0C114D104E104F10451F41E821F82A5
:10543000188619861A861B861C861D8681E057C031
:105440008A849B84AC84BD84EB8DFC8D258530E003
:10545000275F3F4FB501A40141505109610971090E
:10546000022E04C076956795579547950A94D2F712
:10547000D701C6010197A109B10904C0B695A79546
:10548000979587952A95D2F784179507A607B707AA
:1054900020F089288A288B2871F44F89588D698DCE
:1054A0007A8D4E835F83688779874C015D018E0119
:1054B0000A5F1F4F16C0841B950BA60BB70BF5CFC9
:1054C0004E815F816885798598018B8D9C8D0E94C6
:1054D0002B2F91E0891A9108A108B108882309F4BB
:1054E0008CCF81149104A104B10451F795CFDF91C1
:1054F000CF911F910F91FF90EF90DF90CF90BF90D1
:10550000AF909F908F9008950F931F93CF93DF9349
:10551000EC018D818823C9F18C8187FF30C061E067
:10552000CE010E94FC278C01892B79F18D8182307C
:1055300048F48B899C89AD89BE89F801848F958F49
:10554000A68FB78F8F89988DA98DBA8DF801938F0B
:10555000828FB58BA48BE091DC09F091DD09309747
:1055600059F0B8016A5E7F4FC80148961995F80155
:10557000808D918D938B828B8C818F778C83DF9143
:10558000CF911F910F910C94912E80E0DF91CF91DC
:105590001F910F910895CF93DF93EC010E94842A0D
:1055A000882311F01D8281E0DF91CF9108954F9201
:1055B0005F926F927F928F929F92AF92BF92EF9283
:1055C000FF920F931F93CF93DF9300D01F92CDB71D
:1055D000DEB7FC0185818130E9F4848181FF1AC046
:1055E00083899489A589B68984179507A607B70783
:1055F00088F0892B8A2B8B2B09F479C04A015B0137
:105600007F014284538464847584CF010E94ED2914
:10561000811102C080E06CC0F701838D948D8114EC
:105620009104A104B10471F44789508D618D728D8C
:105630000E94CD31882371F3F701178A108E118EE5
:10564000128E3AC0F70146815781608571859E01AF
:105650002F5F3F4F0E942B2F8823E1F249815A810F
:105660006B817C81F701838D948DFC01278920312A
:1056700029F008EF1FEF2FEF3FE004C008EF1FEF06
:1056800020E030E04017510762077307A8F40E943A
:10569000CD31882309F4BECFF7014681578160855B
:1056A00071850FEF1FEF2FEF3FE0838D948D0E94E8
:1056B0001730882309F4AECFF701838A948AA58A2C
:1056C000B68A848180688483C7010E94842A8823E3
:1056D00009F4A0CFB501A401481459046A047B045D
:1056E00010F4B301A201C7010E94ED2901C081E0BD
:1056F0000F900F900F900F90DF91CF911F910F910E
:10570000FF90EF90BF90AF909F908F907F906F90A1
:105710005F904F9008951F93CF93DF93EC0180E249
:10572000689FF0011124EB51F64F9385917129F098
:10573000842F827411F080E052C0142F6A8B809104
:10574000220290912302A0912402B09125028E871B
:105750009F87A88BB98B4489558960E070E0BA01B6
:1057600055274427828D938DA0E0B0E0482B592B1C
:105770006A2B7B2B4F8B588F698F7A8F838588712B
:1057800051F4848D958DA68DB78D8B8B9C8BAD8BB5
:10579000BE8B81E00CC0803171F69E012D5E3F4FC3
:1057A0008B8D9C8D0E94AE2F882329F284E08D83FF
:1057B000812F8F708C831E821F82188619861A860D
:1057C0001B861C861D8616FF09C040E050E0BA010A
:1057D000CE01DF91CF911F910C94D72A81E0DF9108
:1057E000CF911F910895BF92CF92DF92EF92FF92D7
:1057F0000F931F93CF93DF93CDB7DEB72B970FB6E1
:10580000F894DEBF0FBECDBFFC0135813111BFC0A2
:10581000C22E8B017C01BE016F5F7F4FCA010E94C7
:105820001528882309F4B3C0F801838D948DF701FE
:10583000948F838FF8011682178210861186128644
:10584000138614861586D12CF80182859385A4854C
:10585000B585438954896589768984179507A60794
:10586000B70708F03EC025E0B695A79597958795B0
:105870002A95D1F7F82FFF70BF2EC8010E94A429E6
:10588000009709F484C0FC0120812223A1F0253E69
:1058900009F47FC04BE050E0BC01CE0101960E94AC
:1058A000AC3F892B89F68C2D8073803309F46FC04F
:1058B0004C2D6B2D68C0D11012C0F701B28A4091F7
:1058C00022025091230260912402709125024687A2
:1058D0005787608B718BFC01808181115DC0DD2455
:1058E000D3948C2D8271823109F051C0DD2041F0BA
:1058F00061E0C7010E94FC278C01892B79F447C025
:10590000F8018581823009F442C0C8010E949C27B9
:105910008823E9F1F701128A05EE19E080E2F80127
:1059200011928A95E9F78BE0FE013196D80101903A
:105930000D928A95E1F7E091DC09F091DD0930974D
:1059400039F0B801625F7F4FC8014096199509C0D0
:1059500081E298E2F801918B808B80E098E0978754
:105960008687F80180899189938B828B918F808FB4
:1059700086859785978B868B0E94912E882339F098
:105980004C2DF7016289C7010E948B2B08C080E073
:1059900006C0DD2009F491CFDD24D39455CF2B969A
:1059A0000FB6F894DEBF0FBECDBFDF91CF911F9130
:1059B0000F91FF90EF90DF90CF90BF9008952F92BE
:1059C0003F924F925F926F927F928F929F92AF928F
:1059D000BF92CF92DF92EF92FF920F931F93CF93DC
:1059E000DF9300D01F92CDB7DEB78C016B011A0197
:1059F000DC0115968C9115978130C9F414968C9121
:105A000081FF15C082FF1DC0F80143895489658953
:105A1000768982859385A485B58584179507A60721
:105A2000B70779F0C8010E94ED2981110AC081E011
:105A300090E0D80113969C938E93129780E090E0AB
:105A400048C1410183C05B968D919C915C97FC019C
:105A500074802FEF270D2A013B0139E0769467947B
:105A6000579447943A95D1F7722E74207A01F1E059
:105A7000FF22772009F476C080E092E08E199F091A
:105A800054018815990508F45C01D8015B962D91A5
:105A90003C915C9716968D919D910D90BC91A02D97
:105AA0000297A109B109F901058404C0880F991F63
:105AB000AA1FBB1F0A94D2F7468557856089718952
:105AC000840F951FA61FB71F9C01AD01270D311D27
:105AD000411D511D29013A01A11432E0B30609F01C
