:100000000C94DE010C940F020C940F020C940F025E
:100010000C940F020C940F020C940F020C940F021C
:100020000C940F020C940F020C940F020C940F020C
:100030000C940F020C940F020C940F020C940F02FC
:100040000C940F020C940F020C940F020C940F02EC
:100050000C940F020C940F020C940F020C94A54206
:100060000C940F020C940B3C0C94413C0C940F022A
:100070000C940F020C940F020C940F020C940F02BC
:100080000C940F020C940F020C940F020C940F02AC
:100090000C940F020C940F020C940F020C940F029C
:1000A0000C940F020C940F020C940F020C940F028C
:1000B0000C940F020C940F020C940F020C940F027C
:1000C0000C940F020C940F020C940F020C94A23C9F
:1000D0000C94D83C0C940F020C94393D0C946F3D59
:1000E0000C940F02FE430144F043F443FA433844B6
:1000F000054409440F44134417441D442144254436
:1001000038442B442F4433440C9435160C946A27FE
:100110000C945E160C94FB140C941B170C94451253
:100120000C94E8350C9417440C94F4430C94134449
:100130000C9486270C943D3B0C94302B0C94384443
:100140000C9405270C94BB120C94753C0C94D1159F
:100150000C94A1120C94FA430C94BF150C949812B1
:100160000C94A23A0C944E3E0C94993D0C94433E50
:100170000C94E1150C9467120C94D03D0C944C1423
:100180000C94AE3A0C94A33D0C945F3B0C94A527C1
:100190000C941D160C94D03A0C9415160C9425440E
:1001A0000C942B140C9430120C94023D0C94542794
:1001B0000C9433440C94E9150C94BF120C94421225
:1001C0000C947D160C94C3160C9436140C94C6171C
:1001D0000C946F130C9421160C941D440C9416244B
:1001E0000C94AF270C94F0430C94FE430C94872E90
:1001F0000C946B3C0C9421440C949C280C94FF159B
:100200000C943E120C94CB130C9407140C942418E9
:100210000C94E5150C94CA150C9400160C942B4400
:100220000C940F1F0C94E2120C94BC3A0C9496168A
:100230000C940F440C944E280C9401440C940C3DE7
:100240000C9414060C9451120C9441120C946F12DD
:100250000C9409440C94E6120C9459050C94471222
:100260000C947A120C94DF3A0C942F440C940544AD
:100270007C3C3E5E2B3D3F2F5B5D3B2C2A225C008D
:1002800000000A0B02090C0D0E0807030401000010
:10029000000000000000000000000000000000005E
:1002A000000000000000000000000000121110001B
:1002B000000000000000000000000000000000003E
:1002C000000000000000010210202008081020405B
:1002D000102040800201020108040201010204080A
:1002E0001020408080402010080402018004020198
:1002F00080402010080402010804020101020408E1
:1003000010204080010204081020408005050505EA
:10031000070508080808020202020A0A080804047D
:1003200004040101010101010101030303030303AB
:100330000303040707070C0C0C0C0C0C0C0C02023A
:10034000020206060606060606060B0B0B0B0B0B37
:100350000B0B000020002300260029002C002F009A
:100360003200000100000301060109010000220023
:10037000250028002B002E0031003400020100006F
:10038000050108010B0100002100240027002A00BC
:100390002D003000330001010000040107010A01B3
:1003A000590530122B14BF1524180F1F1624302B9B
:1003B000872E753C0C3DA33D433E140611241FBE01
:1003C000CFEFD1E2DEBFCDBF00E00CBF16E0A0E072
:1003D000B2E0E8EAF1E900E00BBF02C007900D923D
:1003E000A03FB107D9F721E1A0EFB6E001C01D920F
:1003F000A231B207E1F711E0CDEDD1E000E006C097
:1004000021970109802FFE010E940F45C03DD107B1
:1004100080E00807A9F70E9492420C94C2480C940D
:10042000000061E08DE00E94394461E08DE00E94AF
:1004300075446AEF70E080E090E00E94204360E045
:100440008DE00E9475446AEF70E080E090E00E94C9
:100450002043EBCFFB01608171810C94252BCF925F
:10046000DF92EF92FF920F931F93CF93DF9300D011
:1004700000D0CDB7DEB77C016B0183E197E00E942D
:100480003B42F601048115810F5F1F4F080F191FB2
:100490006AE272E0CE0101960E945840A801BE01B6
:1004A0006F5F7F4F83E197E00E941E429093320777
:1004B00080933107CE0101960E94EA3F00913107F7
:1004C00010913207B60183E197E00E943B42F601AA
:1004D000448155814F5F5F4F480F591F980163E179
:1004E00077E0C7010E943F42C70126960FB6F894F5
:1004F000DEBF0FBECDBFDF91CF911F910F91FF9057
:10050000EF90DF90CF900895CF93DF93EC0168E8F0
:1005100075E00E9458406CE272E0CE010E948D406E
:1005200065E277E0CE010E942B4165E372E0CE01E7
:100530000E9432416BE277E0CE010E942B416EE3D4
:1005400072E0CE010E943241CE01DF91CF91089539
:10055000CF93DF93EC0168E875E00E9458406CE2AD
:1005600072E0CE010E948D4065E277E0CE010E94EC
:100570002B4165E372E0CE010E9432416BE277E0ED
:10058000CE010E942B4165E472E0CE010E9432410F
:100590006FE177E0CE010E942B416EE372E0CE0165
:1005A0000E943241CE01DF91CF910895CF93DF9326
:1005B000EB012A813B81FC01338322834C815D81E5
:1005C0006E817F814483558366837783488559850F
:1005D0006A857B8540875187628773872DE0FE019E
:1005E0003C96DC011C9601900D922A95E1F7298D2D
:1005F0003A8DFC01328F218FDF91CF91089524E055
:10060000660F771F2A95E1F734E0880F991F3A9516
:10061000E1F720E030E0F901E60FF71FE65FF74F62
:1006200040815181F901E80FF91FE65FF74F5183CF
:1006300040832E5F3F4F2031310569F70895FB015C
:100640009C01205F3F4FDC016D917D91CD01419177
:1006500051916417750729F4A217B307A1F781E038
:10066000089580E00895EF92FF920F931F93CF9328
:10067000DF937C010AE018E0C0E0D0E0B701C801D8
:100680000E941F03811109C02196005F1F4FCC33C8
:10069000D105A1F78FEF9FEF01C0CE01DF91CF9180
:1006A0001F910F91FF90EF900895CF93DF930E94D9
:1006B000330320910A02019649F4222381F062E576
:1006C00072E087E29FE00E94C53E09C0222351F0FC
:1006D00066E572E087E29FE00E94C53E03C0CFEF6F
:1006E000DFEF02C0C1E0D0E080910A02882331F040
:1006F0006CE572E087E29FE00E949C3ECE01DF91B4
:10070000CF9108950F931F93CF93DF9388E10E94B9
:10071000A544892BD1F18091E0079091E107892BC5
:10072000A1F1E091E207F091E307309761F4809145
:10073000DE079091DF07009721F060E672E00E94EB
:10074000C53E0E941102C081D18102811381CF0177
:100750000E94A3421093E3070093E2072091E00771
:100760003091E107215031093093E1072093E007F0
:10077000CE010E94502764E670E080E090E0DF91B7
:10078000CF911F910F910C942043DF91CF911F9136
:100790000F910895EF92FF920F931F93CF93DF93E2
:1007A000EC0181E08093540761E073E08EE497E010
:1007B0000E948D4068E875E0CE010E94584066E0D6
:1007C00073E0CE010E9432410AE018E0F801808116
:1007D0009181892BD9F0E12CF12CF801EE0DFF1D50
:1007E0006081CE010E944141F2E0EF0EF11C80E1F8
:1007F000E816F10491F766E073E0CE010E94324101
:10080000005F1F4FEBE00A3C1E0701F7CE01DF91AE
:10081000CF911F910F91FF90EF900895EF92FF926B
:100820000F931F93CF93DF93EC0181E080935407E4
:1008300061E073E08EE497E00E948D4068E875E027
:10084000CE010E94584066E073E0CE010E94324122
:100850000AE018E0F80180819181892B09F1E12CEF
:10086000F12CF801EE0DFF1D60817181CE010E9417
:10087000554169EB72E0CE010E943241F2E0EF0E89
:10088000F11C80E1E816F10461F766E073E0CE0147
:100890000E943241005F1F4FEBE00A3C1E07D1F679
:1008A000CE01DF91CF911F910F91FF90EF900895AE
:1008B000EF92FF920F931F93CF93DF9300D000D05E
:1008C000CDB7DEB78C017B0161E073E08EE497E089
:1008D0000E948D4062E17CE0C7010E94C941811104
:1008E00006C068E073E08EE497E00E948D4068E8FF
:1008F00075E0C8010E94584081E08093540780E071
:100900000E94BE43BC01990F880B990B0E94973F30
:10091000E12CF12C80910B0290910C02E816F90663
:10092000DCF46AE070E080E090E00E949F3FAB0161
:10093000BC012AE0CE0101960E94D040BE016F5F4B
:100940007F4FC8010E942B41CE0101960E94EA3FD1
:100950008FEFE81AF80ADECFB80180E09CE00E9431
:100960006D40C80126960FB6F894DEBF0FBECDBF0E
:10097000DF91CF911F910F91FF90EF900895CF924B
:10098000DF92EF92FF920F931F93CF93DF9300D0EC
:1009900000D0CDB7DEB77C018B016CE577E086E552
:1009A00097E00E948D40B80186E597E00E943B42A7
:1009B000019631F46DE073E0C7010E94584032C0E7
:1009C000B80186E597E00E943B42F801C480D580DB
:1009D000FFEFCF1ADF0AC80ED91E60E173E0CE0127
:1009E00001960E945840A601BE016F5F7F4F86E5C9
:1009F00097E00E941E426C01B80186E597E00E94D4
:100A00003B42F801448155814F5F5F4F480F591FAA
:100A1000960166E577E0C7010E943F42CE0101964C
:100A20000E94EA3FC70126960FB6F894DEBF0FBEBC
:100A3000CDBFDF91CF911F910F91FF90EF90DF908D
:100A4000CF900895EF92FF920F931F93CF93DF9370
:100A5000EC017B010E811F8184E090E00E94A142A5
:100A60009F838E83009751F488819981009721F0AC
:100A700062E173E00E94C53E0E941102FC011382F4
:100A80001282F182E0822C813D81232B19F49D8317
:100A90008C8303C0F801938382838A819B810196B2
:100AA0009B838A83DF91CF911F910F91FF90EF90ED
:100AB00008950F9300E020E040E060E088E19CE0D2
:100AC0000E941C3E63E473E082E19CE00E94584077
:100AD00006E221E048EA60EC8CE09CE00E941C3ECB
:100AE00060E570E086E09CE00E94901468E875E0A4
:100AF00080E09CE00E94584069E473E08AEF9BE04C
:100B00000E94584060E573E084EF9BE00E945840EB
:100B100066E973E08EEE9BE00E94584060EA73E065
:100B200088EE9BE00E94584066EF72E082EE9BE008
:100B30000E9458406BEA73E08CED9BE00E945840A5
:100B400061EF73E086ED9BE00E9458406BEF73E02D
:100B500080ED9BE00E94584060E174E08AEC9BE0ED
:100B60000E94584065E274E082EF97E00E9458408E
:100B70006FE274E08CEE97E00E9458406BE374E003
:100B800086EE97E00E945840EEEDF7E01382128265
:100B90001582148217821682118210824AE060E860
:100BA00070E086E597E00E94A44068E875E08EE476
:100BB00097E00E94584083E397E00E940E2868E87F
:100BC00075E08BE297E00E94584068E875E085E2A6
:100BD00097E00E94584068E875E08FE197E00E9436
:100BE000584068E875E089E197E00E94584068E85D
:100BF00075E083E197E00E94584068E875E08DE079
:100C000097E00E9458406DE073E087E097E00E9413
:100C100058408AEF96E00E94441368E875E084EF3C
:100C200096E00F910C945840CF93DF9384EF96E0B9
:100C30000E94EA3F87E097E00E94EA3F8DE097E05C
:100C40000E94EA3F83E197E00E94EA3F89E197E052
:100C50000E94EA3F8FE197E00E94EA3F85E297E039
:100C60000E94EA3F8BE297E00E94EA3F8EE497E021
:100C70000E94EA3F86E597E00E94EA3FC091E207C2
:100C8000D091E307CD2B71F08091E2079091E307BB
:100C9000FC01C281D3810E94A342D093E307C09399
:100CA000E207F0CF86EE97E00E94EA3F8CEE97E0F5
:100CB0000E94EA3F82EF97E00E94EA3F8AEC9BE0C5
:100CC0000E94EA3F80ED9BE00E94EA3F86ED9BE0B8
:100CD0000E94EA3F8CED9BE00E94EA3F82EE9BE09F
:100CE0000E94EA3F88EE9BE00E94EA3F8EEE9BE086
:100CF0000E94EA3F84EF9BE00E94EA3F8AEF9BE07C
:100D00000E94EA3F80E09CE00E94EA3F82E19CE092
:100D1000DF91CF910C94EA3FCF93DF93C0E0D0E016
:100D200080911D0790911E07C817D90768F4BE016E
:100D300089E197E00E94F941FC01608183E397E03B
:100D40000E9454272196ECCF83E397E0DF91CF9167
:100D50000C947D28AF92BF92CF92DF92EF92FF92D8
:100D60000F931F93CF93DF93CDB7DEB7A7970FB63F
:100D7000F894DEBF0FBECDBF5C016B017A014091DC
:100D8000EC075091ED0723E162ED7CE0CE01019686
:100D90000E949B2ABE016F5F7F4F83E397E00E9412
:100DA000D60268E875E0CE0182960E94584068E855
:100DB00075E0CE014C960E94584083E397E00E9474
:100DC0008F28882309F44FC0850180E1A80EB11C4B
:100DD000F80160810E5F1F4FCE0182960E94414153
:100DE0000A151B05A9F76DE073E0C7010E94DA41FF
:100DF000B601882381F08BE297E00E946D40BE012E
:100E00006E5D7F4F85E297E00E946D40CE010196B6
:100E10000E94840214C08BE297E00E946D40BE01E4
:100E20006E5D7F4F85E297E00E946D40B7018FE1D4
:100E300097E00E946D40CE0101960E94A802BE017B
:100E40006F5F7F4FCE014C960E946D40CE010196A0
:100E50000E94EA3FBE01645E7F4F89E197E00E94F5
:100E60006D400E948C06CE014C960E94EA3FCE0156
:100E700082960E94EA3FA7960FB6F894DEBF0FBE97
:100E8000CDBFDF91CF911F910F91FF90EF90DF9039
:100E9000CF90BF90AF900895CF92DF92EF92FF92E4
:100EA0000F931F93CF93DF93CDB7DEB7E3970FB6C2
:100EB000F894DEBF0FBECDBF7C016B0168E875E022
:100EC000CE018E960E94584068E875E0CE01889663
:100ED0000E94584067E474E0C7010E9458408601B0
:100EE00080E1C80ED11CF80160810E5F1F4FCE015A
:100EF0008E960E9441410C151D05A9F74091EC0703
:100F00005091ED0721E062ED7CE0CE0101960E9458
:100F10009B2ABE016F5F7F4F83E397E00E94D6025A
:100F200083E397E00E948F28882309F46CC083E351
:100F300097E00E944E28892B09F461C083E397E073
:100F40000E94A5278B3739F468E875E0CE018896B2
:100F50000E948D40ECCF8D3709F04BC0BE01685D1B
:100F60007F4F83E197E00E946D406CE474E0CE0116
:100F700001960E945840BE016F5F7F4FCE0182965E
:100F80000E942F02CE0101960E94EA3FBE01625DDF
:100F90007F4FCE0182960E94C941882329F161E5E5
:100FA00074E0CE014C960E945840BE01645E7F4FB3
:100FB000CE0101960E942F02BE016F5F7F4FC701D5
:100FC0000E946D40CE0101960E94EA3FCE014C96F0
:100FD0000E94EA3FB70187E29FE00E94B33ECE0144
:100FE00082960E94EA3F0FC0CE0182960E94EA3F9D
:100FF0009ECF682FCE0188960E94414198CF83E30F
:1010000097E00E947D28CE0188960E94EA3FCE019B
:101010008E960E94EA3FC701E3960FB6F894DEBFB2
:101020000FBECDBFDF91CF911F910F91FF90EF9039
:10103000DF90CF900895CF93DF9300D000D0CDB74D
:10104000DEB76AEF77E0CE0101960E944C0726E0FA
:1010500030E040E050E061E070E080E090E00E942D
:10106000C33F8EED97E00E94220567E474E0CE0155
:1010700001960E94DA41811108C0CE0101960E94BA
:1010800085428EED97E00E94220560ED77E080E0DA
:1010900090E00E942043CE0101960E94EA3F2696EE
:1010A0000FB6F894DEBF0FBECDBFDF91CF9108958C
:1010B000EF92FF920F931F93CF93DF93CDB7DEB7DD
:1010C000E3970FB6F894DEBF0FBECDBF7C0168E892
:1010D00075E0CE018E960E94584068E875E0CE011A
:1010E00088960E94584068E875E0CE0182960E947A
:1010F0005840870180E1E80EF11CF80160810E5F25
:101100001F4FCE018E960E9441410E151F05A9F773
:10111000BE01625D7F4F87E29FE00E94B33E409137
:10112000EC075091ED0721E062ED7CE0CE010196E5
:101130000E949B2ABE016F5F7F4F83E397E00E946E
:10114000D60283E397E00E948F28882309F492C097
:1011500083E397E00E944E28892B09F448C083E37B
:1011600097E00E94A527182F682FCE0188960E942D
:1011700041411B3739F46AE574E0CE0188960E943C
:101180008D40E6CF1D3721F7BE01685D7F4F83E1BB
:1011900097E00E946D406CE474E0CE0101960E94DD
:1011A0005840BE016F5F7F4FCE014C960E942F02C8
:1011B000CE0101960E94EA3FBE01625D7F4FCE01E3
:1011C0004C960E94C94181110DC0BE01685D7F4FE0
:1011D000CE0182960E942B4166E875E0CE01829690
:1011E0000E943241CE014C960E94EA3FB1CF83E388
:1011F00097E00E947D28BE016E5D7F4F87E29FE0F1
:101200000E948E3E6CEE77E082ED9CE00E942A0206
:101210004091EC075091ED0723E162ED7CE0CE01B7
:1012200001960E949B2ABE016F5F7F4F83E397E088
:101230000E94D602BE016E5D7F4F89E197E00E9459
:101240006D4000E010E08EA19FA10817190770F40F
:10125000B801CE0182960E94F941FC01608183E3CE
:1012600097E00E9454270F5F1F4FEDCF83E397E075
:101270000E947D28CE0182960E94EA3FCE01889688
:101280000E94EA3FCE018E960E94EA3FE3960FB697
:10129000F894DEBF0FBECDBFDF91CF911F910F91AC
:1012A000FF90EF9008950F931F93CF93DF93CDB7E7
:1012B000DEB7AD970FB6F894DEBF0FBECDBF40913D
:1012C000EC075091ED0721E062ED7CE0CE01019644
:1012D0000E949B2ABE016F5F7F4F83E397E00E94CD
:1012E000D60268E875E0CE0188960E94584068E80A
:1012F00075E0CE0182960E94584083E397E00E94F9
:101300008F28882309F482C083E397E00E944E2847
:10131000892B09F43FC083E397E00E94A5278B3710
:1013200039F468E875E0CE0182960E948D40ECCFDA
:101330008D3751F5BE016E5D7F4F83E197E00E94CE
:101340006D406CE474E0CE0101960E945840BE01ED
:101350006F5F7F4FCE014C960E942F02CE01019607
:101360000E94EA3FBE01645E7F4FCE0188960E94D4
:101370002B4166E875E0CE0188960E943241CE018D
:101380004C960E94EA3FC0CF682FCE0182960E9401
:101390004141BACF83E397E00E947D2862EF77E076
:1013A00082ED9CE00E942A024091F2075091F307DF
:1013B00023E162ED7CE0CE0101960E949B2ABE01F2
:1013C0006F5F7F4F83E397E00E94D602BE01685DA6
:1013D0007F4F89E197E00E946D4000E010E08CA50E
:1013E0009DA50817190770F4B801CE0188960E94D0
:1013F000F941FC01608183E397E00E9454270F5F6D
:101400001F4FEDCF83E397E00E947D2883E397E0B1
:101410000E947D28CE0182960E94EA3FCE018896E6
:101420000E94EA3FAD960FB6F894DEBF0FBECDBF67
:10143000DF91CF911F910F9108958F929F92AF925C
:10144000BF92CF92DF92EF92FF920F931F93CF93B1
:10145000DF93CDB7DEB76B970FB6F894DEBF0FBE44
:10146000CDBF4091F2075091F30721E062ED7CE09F
:10147000CE0101960E949B2ACE0101960E948F28E0
:10148000882309F450C08AE0C82E88E0D82E9AE05C
:10149000892E912CA12CB12CE12CF12CCE0101969E
:1014A0000E944E28892BD9F100E010E0CE01019670
:1014B0000E94A527F601E00FF11F91838083209100
:1014C0000A02222369F04AE050E0BC0187E29FE073
:1014D0000E947C3F69EB72E087E29FE00E949C3EA5
:1014E0000E5F1F4F0031110509F78FEFE81AF80A58
:1014F000B501A401CE0101960E94212880910A0223
:10150000882321F087E29FE00E94AF3E8AE0880EA8
:10151000911CA11CB11C80E1C80ED11CBFCFF09260
:10152000F907E092F807CE0101960E947D286B969C
:101530000FB6F894DEBF0FBECDBFDF91CF911F91E4
:101540000F91FF90EF90DF90CF90BF90AF909F9062
:101550008F900895AF92BF92CF92DF92EF92FF9259
:101560000F931F93CF93DF93CDB7DEB7A7970FB637
:10157000F894DEBF0FBECDBFB82EA92E2091F8077C
:101580003091F907E82FF92FB90194E0660F771F22
:101590009A95E1F740E050E081919191DA01A60F30
:1015A000B71FA65FB74F8D939C934E5F5F4F40313F
:1015B000510591F72F5F3F4F3093F9072093F807BC
:1015C00062EF77E082ED9CE00E942A024091F207F0
:1015D0005091F30723E162ED7CE0CE0101960E9479
:1015E0009B2ACE0101960E948F28811135C0CE0121
:1015F00001960E947D280E941D0A67E077E0CE01D7
:101600004C960E9484406DE077E0CE0182960E9465
:101610008440AE01445E5F4FBE016E5D7F4F8B2DF7
:101620009A2D0E94AA06CE0182960E94EA3FCE0120
:101630004C960E94EA3FA7960FB6F894DEBF0FBE05
:10164000CDBFDF91CF911F910F91FF90EF90DF9071
:10165000CF90BF90AF9008958AE0C82E88E0D82E32
:10166000E12CF12C8091F8079091F907E816F90622
:1016700008F0BDCF00E010E0F601E00FF11F60813F
:10168000CE0101960E9454270E5F1F4F00311105B5
:1016900099F7CE0101960E94AF3E8FEFE81AF80A43
:1016A00080E1C80ED11CDECF8F929F92AF92BF9285
:1016B000CF92DF92EF92FF920F931F93CF93DF931E
:1016C000CDB7DEB7A0970FB6F894DEBF0FBECDBF83
:1016D0008C014B0168E875E00E9458406CE574E0AD
:1016E000CE0101960E945840B401CE0101960E949D
:1016F0008641BC01C8010E946D40CE0101960E9446
:10170000EA3F80910A02882331F06FE774E087E2B4
:101710009FE00E949C3E7E0121E1E20EF11C5701F8
:10172000C12CD12CB601C4010E941C42682F880F25
:10173000770BD5016D937D935D0180910A0288231B
:1017400061F04AE050E087E29FE00E947C3F69EB55
:1017500072E087E29FE00E949C3EBFEFCB1ADB0A5B
:10176000E8E0CE16D104F1F6C7010E9455038F3F81
:10177000FFEF9F0751F0019719F562EE7BE0C8017A
:101780000E942B416EE974E018C0FE013196CE0133
:101790008196D7012D913D917D0121933193A81719
:1017A000B907B9F7CE0101960E94AA0A62EE7BE062
:1017B000C8010E942B4165E874E0C8010E943241D3
:1017C000C801A0960FB6F894DEBF0FBECDBFDF9163
:1017D000CF911F910F91FF90EF90DF90CF90BF902E
:1017E000AF909F908F900895AF92BF92CF92DF926B
:1017F000EF92FF920F931F93CF93DF93CDB7DEB796
:101800006B970FB6F894DEBF0FBECDBF6C010E9480
:1018100033032091F8073091F9078217930740F4BA
:101820008C010F5F1F4FB8010E94FF02C801F1CF6A
:10183000215031093093F9072093F80762EF77E0E0
:1018400082ED9CE00E942A024091F2075091F3073A
:1018500023E162ED7CE0CE0101960E949B2ACE013D
:1018600001960E948F2881111AC0CE0101960E9414
:101870007D280E941D0AC6010E9458086B960FB66B
:10188000F894DEBF0FBECDBFDF91CF911F910F91B6
:10189000FF90EF90DF90CF90BF90AF9008958AE0D7
:1018A000A82E88E0B82EE12CF12C8091F8079091B9
:1018B000F907E816F906C8F600E010E0F501E00FB8
:1018C000F11F6081CE0101960E9454270E5F1F4FC9
:1018D0000031110599F7CE0101960E94AF3E8FEFBE
:1018E000E81AF80A80E1A80EB11CDFCF8F929F9210
:1018F000AF92BF92CF92DF92EF92FF920F931F931E
:10190000CF93DF93CDB7DEB7A0970FB6F894DEBFC5
:101910000FBECDBF8C014B0168E875E00E945840B6
:1019200062EB74E0CE0101960E945840B401CE01F2
:1019300001960E948641BC01C8010E946D40CE0103
:1019400001960E94EA3F80910A02882331F06FE7F6
:1019500074E087E29FE00E949C3E7E0121E1E20E5E
:10196000F11C5701C12CD12CB601C4010E941C42AC
:10197000682F880F770BD5016D937D935D01809162
:101980000A02882361F04AE050E087E29FE00E946B
:101990007C3F69EB72E087E29FE00E949C3EBFEFD4
:1019A000CB1ADB0AE8E0CE16D104F1F6C7010E949B
:1019B00055038F3FFFEF9F0739F0019721F5FE0197
:1019C0003196CE01819608C062EE7BE0C8010E948C
:1019D0002B4168ED74E014C0D7012D913D917D013C
:1019E00021933193A817B907B9F7CE0101960E9448
:1019F000F40B62EE7BE0C8010E942B4169EF74E0BA
:101A0000C8010E943241C801A0960FB6F894DEBF0B
:101A10000FBECDBFDF91CF911F910F91FF90EF903F
:101A2000DF90CF90BF90AF909F908F900895EF92EE
:101A3000FF920F931F93CF93DF93CDB7DEB7A3979A
:101A40000FB6F894DEBF0FBECDBF7C0168E875E02D
:101A5000CE014A960E94584064E175E0CE0144965A
:101A60000E945840870180E1E80EF11CF801608176
:101A70000E5F1F4FCE014A960E9441410E151F0571
:101A8000A9F7BE01665E7F4FCE0144960E942B41AE
:101A900089ED88A38DE389A38AE68AA382EB8BA3D1
:101AA000CE0101960E944413BE01605E7F4FCE01BD
:101AB0000E960E94283E48E853E1BE01625F7F4FC8
:101AC000CE0101960E946F13892B41F1BE016C5E1D
:101AD0007F4FCE0101960E948E3E68E875E0CE01F0
:101AE0000E960E945840CE0101960E949812892BB2
:101AF00051F0CE0101960E94A112682FCE010E96E0
:101B00000E944141F0CFBE01625F7F4F87E29FE0BC
:101B10000E94B33ECE010E960E94EA3FCE0144964B
:101B20000E94EA3FCE014A960E94EA3FA3960FB672
:101B3000F894DEBF0FBECDBFDF91CF911F910F9103
:101B4000FF90EF900895CF93DF9300D000D0CDB7F2
:101B5000DEB78AEF96E00E94E21268E875E0CE01F7
:101B600001960E945840809154078823A9F06EEE98
:101B70007BE0CE0101960E946D406EE477E0CE01DD
:101B800001960E942B4161E875E0CE0101960E940A
:101B9000324164EF76E00EC064EF7BE0CE01019647
:101BA0000E946D4064EF76E0CE0101960E942B41C9
:101BB00068EE7BE0CE0101960E942B41BE016F5F73
:101BC0007F4F8AEF96E00E948E3E61E070E080E0F9
:101BD00090E00E9420438AEF96E00E94CB13809110
:101BE0000A02882331F069E875E087E29FE00E94ED
:101BF000C53ECE0101960E94EA3F26960FB6F894A4
:101C0000DEBF0FBECDBFDF91CF9108950F931F931D
:101C1000CF93DF93CDB7DEB7AA970FB6F894DEBFA8
:101C20000FBECDBF6CE577E086E597E00E948D4062
:101C30006CE975E0CE0101960E945840BE016F5FCD
:101C40007F4FCE0185960E94BF04CE0101960E946F
:101C5000EA3FCE0185960E9485428B016FE975E0CF
:101C6000CE0101960E945840BE016F5F7F4FCE01AA
:101C70004F960E94BF04CE0101960E94EA3F63EA9C
:101C800075E084EF96E00E948D406CE474E0CE0134
:101C900001960E945840BE016F5F7F4FCE0149966A
:101CA0000E94BF04CE0101960E94EA3F6CEB75E0F2
:101CB000CE0101960E945840BE016F5F7F4FCE015A
:101CC00043960E94BF04CE0101960E94EA3F61EC58
:101CD00075E0CE0101960E945840BE016F5F7F4FB4
:101CE000CE010D960E94BF04CE0101960E94EA3FEC
:101CF00068E875E084EF96E00E948D4062E17CE048
:101D0000CE014F960E94C941811110C081E080939D
:101D1000540768E073E08EE497E00E948D4068E825
:101D200075E084EF96E00E948D4070C0033011058D
:101D300009F44AC0B4F40130110549F1023011052B
:101D400009F064C0BE01675E7F4FCE0107960E9416
:101D50008440BE01695F7F4FCE0101960E94760CE0
:101D600046C004301105A9F10530110509F04EC037
:101D7000BE01615E7F4FCE0107960E948440BE0186
:101D8000695F7F4FCE0101960E94580430C0BE01AA
:101D90006D5E7F4F8DE097E00E946D40BE01635FF6
:101DA0007F4F87E097E00E946D40BE01675E7F4FE6
:101DB000CE0107960E948440BE01695F7F4FCE012D
:101DC00001960E94540B13C0CE0101960E94CA03D3
:101DD00004C0CE0101960E940E04BE016F5F7F4FCA
:101DE00084EF96E00E946D40CE0101960DC0BE01C9
:101DF0006F5F7F4F84EF96E00E946D40CE010196A9
:101E00000E94EA3FCE0107960E94EA3F0E94A30D7E
:101E1000CE010D960E94EA3FCE0143960E94EA3F12
:101E2000CE0149960E94EA3FCE014F960E94EA3FBA
:101E3000CE0185960E94EA3FAA960FB6F894DEBFBF
:101E40000FBECDBFDF91CF911F910F9108950F93DA
:101E50001F93CF93DF93CDB7DEB72D970FB6F894CE
:101E6000DEBF0FBECDBF66E07CE0CE0101960E94D2
:101E700052158B819C819093FD068093FC068D8189
:101E80009E81AF81B8858093FE069093FF06A09354
:101E90000007B093010789859A85AB85BC8580933F
:101EA000020790930307A0930407B09305078D855D
:101EB000809306078AEF96E00E946712882309F450
:101EC00083C067EC75E087E29FE00E94C53E1092F8
:101ED000DD071092DC074AE060E870E0CE01019671
:101EE0000E94A440BE016F5F7F4F86E597E00E948D
:101EF0006D40CE0101960E94EA3F8091DC079091EF
:101F0000DD07ECE5F7E040E29F012C55374028174C
:101F1000390714F44193F8CF11E006E28AEF96E016
:101F20000E940714882309F449C08AEF96E00E94B2
:101F30009812892B99F38AEF96E00E94A1128A30B9
:101F4000C1F511111AC011E0E9CF8AEF96E00E94A5
:101F5000A112809355072091DC073091DD072038CE
:101F600031055CF4A9014F5F5F4F5093DD0740934B
:101F7000DC07F901E45AF84F80838AEF96E00E946B
:101F80009812892B11F7E091DC07F091DD07E45AF4
:101F9000F84F008368ED75E087E29FE00E94C53E40
:101FA0006CE577E087E29FE00E949C3E0E94060E6F
:101FB000B5CF8D3009F4B2CF10E0B0CF6FEE75E041
:101FC00087E29FE00E94C53E2D960FB6F894DEBFD3
:101FD0000FBECDBFDF91CF911F910F910895CF9389
:101FE000DF9300D000D0CDB7DEB71092540768E879
:101FF00075E0CE0101960E9458400E94270FCE0145
:1020000001960E94EA3F26960FB6F894DEBF0FBEF7
:10201000CDBFDF91CF91089581E690E10E94A23A71
:10202000892B59F48FEF9FEF9093F1068093F00680
:102030009093F3068093F206089581E690E10E9462
:10204000BC3A9C012C5731092330310548F4909358
:10205000F3068093F2061092F1061092F0060895AE
:102060002091F0063091F10637FD0EC0A9014F5FB7
:102070005F4F5093F1064093F006220F331FF90192
:10208000E650F84F918380838091F0069091F1069D
:102090000897A1F58091F2069091F3068E3791058D
:1020A00071F48AEF97E00E945503019621F48AEFBC
:1020B00097E00C94AA0A8AEF97E00C94F40B8C3703
:1020C0009105B9F48AEF97E00E94170D8AEF97E027
:1020D0000E943303019639F06BEF75E081E690E1E1
:1020E0000E949C3E09C06DEF75E081E690E10C9482
:1020F0009C3E8D37910511F40C941B0808950E94A5
:1021000082030E940C100C94EF0FEF92FF920F933A
:102110001F93CF93DF9300D000D0CDB7DEB726E07A
:1021200040E052EC61E070E087E29FE00E94A63B55
:1021300026E040E052EC61E070E081E690E10E9430
:10214000A63B26E040E855E260E070E084EC9FE0CA
:102150000E94A63B84EC9FE00E94352789E190E035
:102160000E944C2764E670E080E090E00E942043EB
:1021700066E182ED9CE00E94922981110AC0809163
:102180000A02882331F06FEF75E087E29FE00E943A
:10219000C53E80910A02882331F06BE176E087E248
:1021A0009FE00E94C53E0E9453090E941D0A6DE2F5
:1021B00076E087E29FE00E949C3E10EAE12E1FE05D
:1021C000F12E00E010E020E63AEE40E050E06DE055
:1021D00072E08CE79CE00E94611165E376E087E2A3
:1021E0009FE00E949C3E86E09CE00E944C146DE3C0
:1021F00076E087E29FE00E949C3E6CE77CE0CE01A7
:1022000001960E940812BE016F5F7F4F87E29FE038
:102210000E94D73E8FEF9FEF9093F1068093F006D8
:102220009093F3068093F20626960FB6F894DEBFDD
:102230000FBECDBFDF91CF911F910F91FF90EF9017
:1022400008952091CC0C222399F04FB7F894209157
:10225000CC0C213059F42DB32093CA0C3DB32091FE
:10226000CB0C209523232DBB4FBF02C04093CA0C3B
:102270008CBD9DBD08958091CC0C882361F09FB7E3
:10228000F8942091CC0C8091CA0C213019F48DBBAC
:102290009FBF08958FBF089544E050E0BC0181E0E6
:1022A00090E00C94BE1C44E050E0BC0185E090E05E
:1022B0000C94BE1C44E050E0BC018FE090E00C9414
:1022C000BE1C2F923F924F925F926F927F928F929D
:1022D0009F92AF92BF92CF92DF92EF92FF920F93B5
:1022E0001F93CF93DF9300D000D0CDB7DEB76C0142
:1022F0001B0129013A01470158018091840C811189
:1023000007C081E69CE00E94AC1781E08093840CBA
:102310008EE19CE0F601978386838EEA9CE00E9422
:10232000561C80E590E00E94211146E050E0B1018A
:1023300089E090E00E94BE1C00E020E040E060E008
:10234000CE0101960E941C3ECE0103960E945A11B6
:102350000E943B1185017401A3019201B101F601B4
:10236000868197810E9494238C010197B9F580E5BD
:1023700090E00E942111F60166817781CE010196DD
:102380000E94CE1ECE0103960E945A11F60166816C
:102390007781CE0101960E94E41ECE0103960E9431
:1023A0004C11F60166817781CE0101960E94D91EFB
:1023B000CE0103960E9453110E943B11F6016681E3
:1023C0007781CE0101960E94EF1E8B819C81AD81A9
:1023D000BE81F60182839383A483B583C8012696C8
:1023E0000FB6F894DEBF0FBECDBFDF91CF911F9126
:1023F0000F91FF90EF90DF90CF90BF90AF909F90A4
:102400008F907F906F905F904F903F902F900895A6
:10241000CF93DF93EC010E94123E80E590E00E9492
:102420002111BE016E5F7F4F44E050E08FE090E0ED
:102430000E94F01D0E943B11CE01DF91CF910895C3
:1024400022EE36E0FC0131832083FB01428153817F
:1024500064817581FC01428353836483758308958D
:102460000F9300E020E040E060E084E99CE00E94FF
:102470001C3E8CE79CE00F910C94123E80E090E0B3
:102480000895089581E086270895862F0895DC0138
:10249000ED91FC91068CF78DE02D199591E089273F
:1024A0000895CF93DF931F92CDB7DEB76983DC0128
:1024B000ED91FC910280F381E02D41E050E0BE01FE
:1024C0006F5F7F4F19950F90DF91CF91089521E0B5
:1024D000FC018485843009F420E0822F0895FC01FA
:1024E0009485FB018485981303C081E0943009F43E
:1024F00080E008950F931F93CF93DF938C01D42F27
:10250000C52FFC018485843041F481E090E0F8011E
:102510009383828380E090E006C00E94F319892BA8
:10252000A1F38D2F9C2FDF91CF911F910F910895D3
:10253000FC018485843011F00C94EA1A80E090E06C
:102540000895CF93DF931F92CDB7DEB741E050E0FF
:10255000BE016F5F7F4FFC0184850E94891A1816A7
:1025600019061CF4898190E002C08FEF9FEF0F9055
:10257000DF91CF910895FC0184850C94891A0F9303
:102580001F93CF93DF931F92CDB7DEB78C01DC0191
:10259000ED91FC910084F185E02D1995892B51F086
:1025A000BE016F5F7F4FF80184850E94151B8981F2
:1025B00090E002C08FEF9FEF0F90DF91CF911F91BE
:1025C0000F910895FC0184850C94451BCF92DF92F6
:1025D000EF92FF920F931F93CF93DF93CDB7DEB7A8
:1025E000AF970FB6F894DEBF0FBECDBF8C016B0165
:1025F0007A01CE0101960E94123ECE0109960E94F8
:10260000AC17CE018A960E94123E6CE77CE0CE01A8
:1026100084960E942012BE016C5D7F4FCE01019610
:102620000E94D323AE01465D5F4FB601CE010196F5
:102630000E94422681309105C1F4D801ED91FC91B0
:102640000684F785E02D82EE96E09DA38CA38CA5F1
:102650009DA5AEA5BFA58EA39FA3A8A7B9A7A701B7
:10266000BE016C5D7F4FC8011995AF960FB6F89407
:10267000DEBF0FBECDBFDF91CF911F910F91FF90B5
:10268000EF90DF90CF900895FC011382128288EEC4
:1026900093E0A0E0B0E084839583A683B7838FE4C2
:1026A00096E09183808384E084870895FC011382FF
:1026B000128288EE93E0A0E0B0E084839583A68345
:1026C000B7838FE496E09183808364870895FC014B
:1026D0008485843011F00C949A1880E00895CF928C
:1026E000DF92FF920F931F93CF93DF93FC0124851A
:1026F0002430A9F56A018B01EC01F12C8F2D0E9489
:102700009A18811102C0FC8607C08B7F8831D9F3EB
:10271000F394F4E0FF12F2CF8C85843001F1209124
:102720001D0230911E022F5F3F4F11F420E030EC6C
:1027300030931E0220931D0240911D0250911E02F3
:1027400020E061E00E94EC18B8016E5F7F4FA601A7
:102750008C850E947319811105C084E08C8780E00C
:1027600090E011C0CE010E946713873151F061E003
:1027700070E080E090E00E942043CE010E94671349
:10278000EACF81E090E0DF91CF911F910F91FF9010
:10279000DF90CF900895CF92DF92EF92FF92CF9388
:1027A000DF93EC018C85843059F10E94CC190E9492
:1027B000EF426B017C01CE010E9467138823B1F0C8
:1027C00061E070E080E090E00E9420430E94EF42D0
:1027D000DC01CB018C199D09AE09BF09883E9340ED
:1027E000A105B10540F38C850E94C118EC85F0E08D
:1027F000EE0FFF1FE457F34F1182108284E08C87A5
:10280000DF91CF91FF90EF90DF90CF900895CF931D
:10281000DF93FC0124852430D1F0EC010E94671382
:10282000843181F0882371F0883161F08C3161F45A
:10283000E881F9810084F185E02DCE01199521E030
:10284000892B19F420E001C021E0822F01C080E033
:10285000DF91CF9108950F9300E020E040E060E029
:102860008AE99CE00E941C3E0F910895CF93DF936C
:102870001F92CDB7DEB76983DC01ED91FC91028038
:10288000F381E02D41E050E0BE016F5F7F4F19956D
:102890000F90DF91CF910895EF92FF920F931F93C6
:1028A000CF93DF93CDB7DEB72D970FB6F894DEBF89
:1028B0000FBECDBF7C0100E010E0602FCE0101967D
:1028C0000E945613CE0101960E946713811116C013
:1028D000F7014481558120E061E0802F0E94EC18CF
:1028E000802F0E944019F70184819581000F111FEC
:1028F000F801E457F34F9183808305C00F5F1F4FAA
:1029000004301105D1F62D960FB6F894DEBF0FBE38
:10291000CDBFDF91CF911F910F91FF90EF90089560
:10292000FC011382128285E796E091838083758390
:1029300064830895AF92BF92CF92DF92EF92FF929D
:102940001F93CF93DF93CDB7DEB72D970FB6F894D3
:10295000DEBF0FBECDBF7C019CE8A92E9CE0B92E46
:1029600010E0C12CD12C612FCE0101960E9456138C
:10297000D5012D913D915D01F70184819581281745
:102980003907B1F4CE0101960E946713843169F0D2
:10299000CE0101960E9467138C3151F4CE0101964D
:1029A0000E949812892B91F003C0CC24C394D12C9F
:1029B0001F5F1430C1F6CD2871F4D701ED91FC9161
:1029C0000084F185E02DC701199505C0CE0101965F
:1029D0000E94CB13EDCF2D960FB6F894DEBF0FBE3D
:1029E000CDBFDF91CF911F91FF90EF90DF90CF90FF
:1029F000BF90AF9008956F927F928F929F92AF9207
:102A0000BF92CF92DF92EF92FF921F93CF93DF930B
:102A1000CDB7DEB72D970FB6F894DEBF0FBECDBF92
:102A20005C014B013A010E949A148CE8C82E8CE09C
:102A3000D82E10E0E12CF12C612FCE0101960E94DE
:102A40005613F601219131916F01F5018481958131
:102A50002817390731F4CE0101960E946713873198
:102A6000C1F01F5F143041F7C7012D960FB6F894DF
:102A7000DEBF0FBECDBFDF91CF911F91FF90EF90D2
:102A8000DF90CF90BF90AF909F908F907F906F908E
:102A90000895A301B401CE0101960E947A12E80EB6
:102AA000F91EDFCFAF92BF92CF92DF92FF920F93CA
:102AB0001F93CF93DF93CDB7DEB72D970FB6F89462
:102AC000DEBF0FBECDBF8C015B01CB010E949A140B
:102AD0008CE8C82E8CE0D82EF12C6F2DCE010196FB
:102AE0000E945613F601219131916F01F501848105
:102AF00095812817390751F5CE0101960E94671379
:102B0000873111F08C3111F5CE0101960E94981297
:102B1000892BE1F08B819C81F801938382838D81E5
:102B20009E81AF81B88584839583A683B783898589
:102B30009A85AB85BC8580879187A287B3878FE410
:102B400096E0918380838D85848708C0F394F4E0B8
:102B5000FF12C3CF64E0C8010E945613C8012D962E
:102B60000FB6F894DEBF0FBECDBFDF91CF911F919E
:102B70000F91FF90DF90CF90BF90AF9008950F938B
:102B800000E020E040E060E080EA9CE00E941C3E23
:102B90000F910895DC01ED91FC91048CF58DE02DF1
:102BA000199422EE36E0FC0131832083FB01408939
:102BB000518962897389FC014283538364837583DD
:102BC0000895FC01848995890895FC01818D928D79
:102BD0000895CF93DF931F92CDB7DEB76983DC01F1
:102BE000ED91FC910280F381E02D41E050E0BE01C7
:102BF0006F5F7F4F19950F90DF91CF9108950895E2
:102C0000CF93DF93EC01888D843061F00E94C1186E
:102C1000E88DF0E0EE0FFF1FE457F34F11821082B2
:102C200084E0888FDF91CF910895FC01178A168A7E
:102C30006E5F7F4F808D0C948E1BFC01808D0C94F9
:102C4000D51BCF93DF93EC019A018E899F89AB014D
:102C5000BC01888D0E94461B2E893F89280F391F91
:102C60003F8B2E8BDF91CF9108950F931F93CF93BE
:102C7000DF931F92CDB7DEB7FC01218D328D232B60
:102C800061F08C0141E050E0BE016F5F7F4F808DAD
:102C90000E94891A181619061CF08FEF9FEF08C0C2
:102CA000F801818D928D0197928F818F898190E0BB
:102CB0000F90DF91CF911F910F910895CF93DF93E4
:102CC000FC01218D328D2115310519F48FEF9FEF15
:102CD00011C0EC014217530708F0A901888D0E942A
:102CE000891A1816190694F7298D3A8D281B390B65
:102CF0003A8F298FDF91CF910895CF93DF931F9261
:102D0000CDB7DEB7FC01218D328D232B49F0BE01FA
:102D10006F5F7F4F808D0E94151B898190E002C0FC
:102D20008FEF9FEF0F90DF91CF910895EF92FF9279
:102D30001F93CF93DF93FC01208D243011F080E0AE
:102D40001CC07B01EC0110E0812F0E949A188111B8
:102D500002C0188F05C08831E1F31F5F1430A1F75E
:102D6000888D843061F3FD86EC861A8E198E20E002
:102D7000A70162E00E94EC1881E0DF91CF911F91E2
:102D8000FF90EF9008950F931F93CF93DF93CDB7EC
:102D9000DEB728970FB6F894DEBF0FBECDBF8C010B
:102DA000F801818D928D892B49F0D801ED91FC912C
:102DB0000284F385E02DC8011995F2CF808D0E9421
:102DC000EA1A1816190654F548E050E0BE016F5F84
:102DD0007F4FD80158968C910E94891A9C01181631
:102DE0001906D4F4BE016F5F7F4FC8010E960E9492
:102DF000383E8D8190E0982F88272E81820F911D7B
:102E0000F801958B848B2F8130E0322F2227888523
:102E1000280F311D328F218FC90102C080E090E060
:102E200028960FB6F894DEBF0FBECDBFDF91CF91CD
:102E30001F910F9108958F929F92AF92BF92CF9260
:102E4000DF92EF92FF920F931F93CF93DF9300D007
:102E500000D0CDB7DEB7FC01208D243009F068C06A
:102E60006A017B018C0153E0852E54E0952EA12C44
:102E7000B12CC4010E94ED1C811103C0F801A08E89
:102E80000AC08831D9F3FFEFAF1ABF0A9394E4E088
:102E9000AE16B10471F7F801808D843009F448C092
:102EA00096E0E4E2F2E0DE01119601900D929A952F
:102EB000E1F7F70193819F779C8394819D839581AE
:102EC0009E83B7016E5F7F4F90E0982F882744E084
:102ED00050E0845F9B4F0E94BE1CF801E08CF12CF7
:102EE000F4E0EF0EF11CFE2CEE246D2DC701409690
:102EF0000E94331C6C2DC70141960E94331CF801BF
:102F0000808D90E0982F882746E050E0BE016F5FEB
:102F10007F4F8A5F9B4F0E94BE1CF801128E118E5C
:102F200020E8A60162E0808D0E94EC1881E001C0DB
:102F300080E026960FB6F894DEBF0FBECDBFDF91BE
:102F4000CF911F910F91FF90EF90DF90CF90BF90A6
:102F5000AF909F908F900895CF93DF93EC011B82E9
:102F60001A8288EE93E0A0E0B0E08C839D83AE836C
:102F7000BF8383E896E099838883CE010E960E94F2
:102F8000123E84E0888FDF91CF910895CF92DF9237
:102F9000EF92FF920F931F93CF93DF93CDB7DEB7DE
:102FA000AF970FB6F894DEBF0FBECDBF8C016B019B
:102FB0007A01CE0101960E94123ECE0109960E942E
:102FC000AC17CE018A960E94123E6CE77CE0CE01DF
:102FD00084960E942012BE016C5D7F4FCE01019647
:102FE0000E94D323AE01465D5F4FB601CE0101962C
:102FF0000E94422681309105C1F4D801ED91FC91E7
:103000000488F589E02D82EE96E09DA38CA38CA523
:103010009DA5AEA5BFA58EA39FA3A8A7B9A7A701ED
:10302000BE016C5D7F4FC8011995AF960FB6F8943D
:10303000DEBF0FBECDBFDF91CF911F910F91FF90EB
:10304000EF90DF90CF9008950F9300E020E040E0F4
:1030500060E086EA9CE00E941C3E0F9108950F9369
:10306000FC0130E080E092E1AAE7B0E048175907A0
:103070006A077B0740F4B695A795979587953F5FBC
:103080003630A1F737E091E09327222311F020E5B5
:1030900001C020E7892F86950C70082B022B008336
:1030A000917091830F91089590E0982F882744E0C4
:1030B00050E0845F9B4F0C94BE1C90E00496982FC8
:1030C0008827860F971F0C94ED1C62E070E00C942B
:1030D0005D189B0190E00496982F8827642F820F3B
:1030E000931F0C94331CCF93DF93C82FD62F472FF9
:1030F00064E070E00E9469184D2F65E070E08C2F4D
:10310000DF91CF910C946918462F62E070E00C9427
:103110006918CF93DF93C82FD62F472F60E170E057
:103120000E9469184D2F61E170E08C2FDF91CF91E3
:103130000C9469180F931F93CF93DF9300D0CDB7F2
:10314000DEB7182F00E021E040E059E06DE370E0C9
:10315000CE0101960E942F1889819A810E94211127
:1031600063E070E0812F0E945D188B830E943B1109
:103170008B810F900F900F90DF91CF911F910F9146
:1031800008950F931F93CF93DF931F921F92CDB794
:10319000DEB7182F00E021E040E059E06DE370E079
:1031A000CE0101960E942F1889819A810E942111D7
:1031B00040E150E0612F8EEA9CE00E94B71E6FEF65
:1031C000812F0E9484180E943B110F900F90DF9175
:1031D000CF911F910F910895CF92DF92EF92FF92BE
:1031E0000F931F93CF93DF931F921F92CDB7DEB73C
:1031F0009FEF960F9530C0F5F22E6A01E62E182F3C
:103200000E94C11800E021E040E059E06DE370E069
:10321000CE0101960E942F1889819A810E94211166
:103220004E2D4F2960E070E0812F0E946918C11473
:10323000D10411F0B6010AC06091AC0C7091AD0CD4
:103240006F5F7F4F7093AD0C6093AC0C812F0E9429
:10325000731841E050E0612F8EEA9CE00E94B71E97
:103260000E943B1181E001C080E00F900F90DF9140
:10327000CF911F910F91FF90EF90DF90CF90089525
:103280000F931F93CF93DF931F921F92CDB7DEB79B
:10329000182F00E021E040E059E06DE370E0CE013E
:1032A00001960E942F1889819A810E94211163E062
:1032B00070E0812F0E945D18833121F00E943B1144
:1032C00080E00AC042E050E0612F8EEA9CE00E945C
:1032D000B71E0E943B1181E00F900F90DF91CF91BC
:1032E0001F910F910895CF92DF92EF92FF920F936B
:1032F0001F93CF93DF931F921F92CDB7DEB7FB01D1
:1033000090819F3F51F491819F3F91F492819F3F23
:1033100079F493819F3F61F432C0911109C091818A
:10332000911106C09281911103C09381992341F1BB
:103330004115510521F16A017F01182F00E021E0BC
:1033400040E059E06DE370E0CE0101960E942F1835
:1033500089819A810E942111B701812F0E945418FE
:10336000B601812F0E94891844E050E0612F8EEA57
:103370009CE00E94B71E0E943B1191E001C090E0CA
:10338000892F0F900F90DF91CF911F910F91FF9098
:10339000EF90DF90CF9008950F931F93CF93DF931B
:1033A0001F921F92CDB7DEB7182F00E021E040E05A
:1033B00059E06DE370E0CE0101960E942F188981DB
:1033C0009A810E94211148E050E0612F8EEA9CE032
:1033D0000E94B71E0E943B110F900F90DF91CF917A
:1033E0001F910F910895AF92BF92CF92DF92EF920B
:1033F000FF920F931F93CF93DF931F921F92CDB72E
:10340000DEB7182F6B017A014130584018F0E12CDB
:1034100088E0F82E00E021E040E059E06DE370E044
:10342000CE0101960E942F1889819A810E94211154
:10343000612F8EEA9CE00E94251D5C0163E070E034
:10344000812F0E945D18082F0E943B11073111F057
:103450000C3131F40E949042AE14BF04D8F202C085
:10346000E12CF12C00E021E040E059E06DE370E058
:10347000CE0101960E942F1889819A810E94211104
:103480009701A601612F8EEA9CE00E94E51D40E2B3
:1034900050E0612F8EEA9CE00E94B71E812F0E94AF
:1034A000651884FD22C063E070E0812F0E945D18E2
:1034B000811108C00E943B11812F0E94C11880E039
:1034C00090E01AC00E943B110E94904200E021E06F
:1034D00040E059E06DE370E0CE0101960E942F18A4
:1034E00089819A810E942111D9CF60E1812F0E94A8
:1034F00084180E943B11C7010F900F90DF91CF916C
:103500001F910F91FF90EF90DF90CF90BF90AF9001
:103510000895AF92BF92CF92DF92EF92FF920F93F6
:103520001F93CF93DF931F921F92CDB7DEB7182F53
:103530005B016A0100E021E040E059E06DE370E0EA
:10354000CE0101960E942F1889819A810E94211133
:10355000612F8EEA9CE00E94591D7C010097A1F426
:1035600063E070E0812F0E945D18843119F1882397
:1035700009F121E030E08C3111F420E030E0EE245C
:10358000FF24E21AF30A16C0C816D9060CF4760115
:103590001E141F047CF400E09701A501612F8EEA40
:1035A0009CE00E94671E40E450E0612F8EEA9CE0A0
:1035B0000E94B71E0E943B11C7010F900F90DF9130
:1035C000CF911F910F91FF90EF90DF90CF90BF9020
:1035D000AF9008950F931F93CF93DF9300D01F9266
:1035E000CDB7DEB7182F00E021E040E059E06DE3F1
:1035F00070E0CE0101960E942F1889819A810E9465
:103600002111612F8EEA9CE00E94591D8B839C83BF
:103610000E943B118B819C810F900F900F900F9017
:10362000DF91CF911F910F910895EF92FF920F9329
:103630001F93CF93DF931F921F92CDB7DEB7182F42
:103640007B0100E021E040E059E06DE370E0CE0155
:1036500001960E942F1889819A810E94211101E010
:1036600021E030E0A701612F8EEA9CE00E94671EF6
:103670000E943B1181E090E00F900F90DF91CF917D
:103680001F910F91FF90EF90089508958F929F9250
:10369000AF92BF92DF92EF92FF920F931F93CF935F
:1036A000DF931F921F92CDB7DEB7D82E5B014A0180
:1036B000790100E021E040E059E06DE370E0CE01E7
:1036C00001960E942F1889819A810E9421116D2DE7
:1036D0008EEA9CE00E94251D8E159F0530F46D2D0D
:1036E0008EEA9CE00E94251D7C0187019401A501C2
:1036F0006D2D8EEA9CE00E94751D0E943B11C70152
:103700000F900F90DF91CF911F910F91FF90EF904D
:10371000DF90BF90AF909F908F900895CF92DF92EF
:10372000EF92FF920F931F93CF93DF931F921F92FD
:10373000CDB7DEB7FB019081911109C09181911144
:1037400006C09281911103C09381992309F141151B
:103750005105F1F06A017F01182F00E021E040E0FF
:1037600059E06DE370E0CE0101960E942F18898127
:103770009A810E942111B701812F0E945418B6012D
:10378000812F0E9489180E943B1181E090E002C0C5
:1037900080E090E00F900F90DF91CF911F910F91FB
:1037A000FF90EF90DF90CF9008950F931F93CF93EA
:1037B000DF931F921F92CDB7DEB7182F00E021E0F4
:1037C00040E059E06DE370E0CE0101960E942F18B1
:1037D00089819A810E94211140E250E0612F8EEA96
:1037E0009CE00E94B71E812F0E94651884FD21C0B5
:1037F000812F0E94651883FF09C068E1812F0E9414
:1038000084180E943B1180E090E01BC00E943B1195
:103810000E94904200E021E040E059E06DE370E05A
:10382000CE0101960E942F1889819A810E94211150
:10383000DACF60E1812F0E9484180E943B1181E061
:1038400090E00F900F90DF91CF911F910F9108950D
:103850008EBD00000DB407FEFDCF8EB508952C98E7
:1038600008952C9A08951F93CF93DF931F921F9270
:10387000CDB7DEB7182F6A8399830E942F1C80EF83
:103880000E94281C9981892F0E94281C812F0E9448
:10389000281C6A81862F0E94281C0E94311C81E00E
:1038A0000F900F90DF91CF911F910895CF93DF93E9
:1038B000EC016CE271E080E090E00E9420430E9405
:1038C000CF26249A8091CC0C882399F02FB7F894B6
:1038D0008091CC0C813059F48DB38093CA0C9DB388
:1038E0008091CB0C809589238DBB2FBF02C0209384
:1038F000CA0C80E58CBD1DBC60E880E090E00E94B1
:10390000331C65E58BE190E00E94331C65E58AE19C
:1039100090E00E94331C8091CC0C882351F09FB71B
:10392000F8942091CC0C8091CA0C213029F58DBBE4
:103930009FBF80E090E49983888380E090E6998738
:10394000888780E098E49B838A8380E098E69B8761
:103950008A8780E090E59D838C8380E090E79D8757
:103960008C8780E098E59F838E8380E098E79F872F
:103970008E87DF91CF9108958FBFDBCFCF92DF92FB
:10398000EF92FF920F931F93CF93DF93EC017A0195
:103990008B016C01C40ED51ECC15DD05A1F00E9473
:1039A0002F1C80EF0E94281C8D2F0E94281C8C2F1A
:1039B0000E94281C2196F80181918F010E94281CE9
:1039C0000E94311CE9CFC701DF91CF911F910F9168
:1039D000FF90EF90DF90CF9008951F93CF93DF93E8
:1039E0001F92CDB7DEB7182F99830E942F1C8FE04E
:1039F0000E94281C9981892F0E94281C812F0E94D7
:103A0000281C80E00E94281C89830E94311C898127
:103A10000F90DF91CF911F9108951F93CF93DF9364
:103A2000182F60E270E00E945D18C82FD0E061E2BC
:103A300070E0812F0E945D18DC2FCC279E01282B7F
:103A4000C901DF91CF911F910895FF920F931F93AA
:103A5000CF93DF93F62EC0E0D0E08F2D0E940D1D96
:103A60008C01892B21F08F2D0E940D1DEC01C017B8
:103A7000D10799F7CE01DF91CF911F910F91FF9060
:103A800008951F93CF93DF93182F66E270E00E9492
:103A90005D18C82FD0E067E270E0812F0E945D18AA
:103AA000DC2FCC279E01282BC901DF91CF911F91DC
:103AB0000895FF920F931F93CF93DF93F62EC0E0EC
:103AC000D0E08F2D0E94411D8C01892B21F08F2D7C
:103AD0000E94411DEC01C017D10799F7CE01DF917B
:103AE000CF911F910F91FF9008956F927F928F92C7
:103AF0009F92AF92BF92CF92DF92EF92FF920F937D
:103B00001F93CF93DF931F92CDB7DEB7882E962EEB
:103B10006A01590164E270E0892D99830E945D1861
:103B2000E82EF12C65E270E0892D0E945D18FE2CD4
:103B3000EE24E82A37016C0C7D1CA3015770E82C99
:103B40009981F92EE90CF11CE90CF11CF701808137
:103B50009181840F951F9A01200F311F2130384029
:103B600098F060E078E06B01C41AD50AA601B501AF
:103B70000E94BE1CA8014C195D09B5016C0D7D1D8C
:103B8000F7018081918102C0A801B5010E94BE1C8D
:103B9000060D171D412F64E270E0892D0E946918FF
:103BA000402F65E270E0892D0F90DF91CF911F913A
:103BB0000F91FF90EF90DF90CF90BF90AF909F90CC
:103BC0008F907F906F900C9469180F931F938901C9
:103BD0009A0140E050E00E94751D1F910F910895D9
:103BE000CF92DF92EF92FF920F931F93CF93DF93C9
:103BF000EC017A018B016C01C40ED51ECC15DD05DC
:103C0000A9F00E942F1C8FE00E94281C8D2F0E947B
:103C1000281C8C2F0E94281C219680E00E94281CC2
:103C2000F80181938F010E94311CE8CFC701DF9119
:103C3000CF911F910F91FF90EF90DF90CF9008955B
:103C4000AF92BF92CF92DF92EF92FF920F931F93AA
:103C5000CF93DF931F921F92CDB7DEB75A8349836C
:103C6000590129813A8137706C01C60ED11CC60EEC
:103C7000D11CF60180859185820F931FA801420F08
:103C8000531F4130584098F0E0E0F8E07F01E21A1D
:103C9000F30AA701B5010E94F01DA8014E195F09A2
:103CA000B5016E0D7F1DF6018085918502C0A801CA
:103CB000B5010F900F90DF91CF911F910F91FF9061
:103CC000EF90DF90CF90BF90AF900C94F01D8F924B
:103CD0009F92AF92BF92CF92DF92EF92FF920F939B
:103CE0001F93CF93DF936C01962E5A017901802E9A
:103CF00068E270E0892D0E945D18C82FD0E069E26B
:103D000070E0892D0E945D18DC2FCC27C82B87011D
:103D10009501AE01692DC6010E94201E81101AC0B6
:103D2000CE0DDF1D4D2F68E270E0892D0E946918CD
:103D30004C2F69E270E0892DDF91CF911F910F9197
:103D4000FF90EF90DF90CF90BF90AF909F908F90BB
:103D50000C946918DF91CF911F910F91FF90EF9014
:103D6000DF90CF90BF90AF909F908F900895CF93AA
:103D7000C62F61E070E08C2F0E94691861E070E04E
:103D80008C2F0E945D188111F9CFCF9108950E9666
:103D900024E1FC0111922A95E9F70895CF93DF936E
:103DA000EC01625F7F4F0E94283ECE01DF91CF91F0
:103DB0000895CF93DF93EC016E5E7F4F0E94283E03
:103DC000CE01DF91CF910895CF93DF93EC016A5E2E
:103DD0007F4F0E94283ECE01DF91CF910895CF936F
:103DE000DF93EC01625E7F4F0E94283ECE01DF919F
:103DF000CF91089580E3FB0180833296842F8295D2
:103E00008F7090E1899F401911244A3014F4405D6D
:103E100001C0495C4293482F8111F0CF08950F9360
:103E200000E020E040E060E08EEB9CE00E941C3E61
:103E30000F9108957F928F929F92AF92BF92CF92EF
:103E4000DF92EF92FF920F931F93CF93DF93CDB743
:103E5000DEB7AC970FB6F894DEBF0FBECDBF7C01C6
:103E6000762E942E852E20E2B22ECE0101966C0184
:103E7000FC012B2D11922A95E9F70FEF2FEF4FEF51
:103E80006FEF86960E941C3E82EE96E09AA389A36D
:103E900089A59AA5ABA5BCA58BA39CA3ADA3BEA3E6
:103EA00087010D5B1F4F43E450E0BE016F5D7F4F04
:103EB000C8010E941516019609F4BFC081E08983EC
:103EC0008A8386E0A82EAB821C82F701648175810B
:103ED000868197810E9417456D837E838F839887A3
:103EE00089869A8680E890E09C878B874CE150E039
:103EF000B601C8010E942116F6012B2D11922A95B8
:103F0000E9F7470188E0880E911CF401D601019081
:103F10000D92AA94E1F740E150E0B601C8010E9479
:103F20002116F6011192BA94E9F796E0A92EB12C68
:103F300040E250E0B601C8010E942116F1E0AF1A3C
:103F4000B108B1F783E6898392E89A8393E59B836E
:103F50008C8385E38D8381E08E837F829DE39887C8
:103F600097E099878A8786E0F401DE011B9601902D
:103F70000D928A95E1F78CE0898B8A8B67EA76E06F
:103F8000CE0143960E94F947F7014385BE01675E63
:103F90007F4FC7010E94FA1EF7014485BE01655E8E
:103FA0007F4FC7010E94FA1EF7014585BE01635E7F
:103FB0007F4FC7010E94FA1E4EE150E0B601C801D2
:103FC0000E942116F3E07F121EC082E3898384E001
:103FD0008A83F70196859B8397859C8390899D832F
:103FE00091899E8396E39F838887828D8987838DBD
:103FF0008A87848D8B87858D8C874CE050E0B60155
:10400000C8010E94211687E3898386E08A8391E0B4
:104010009B8393E09C838D838FE08E838AE38F83E1
:104020008BE388878FEF898749E050E0B601C801AC
:104030000E942116C8010E941D16AC960FB6F89476
:10404000DEBF0FBECDBFDF91CF911F910F91FF90CB
:10405000EF90DF90CF90BF90AF909F908F907F9028
:1040600008952F923F924F925F926F927F928F921C
:104070009F92AF92BF92DF92EF92FF920F931F93A6
:10408000CF93DF93CDB7DEB7E4970FB6F894DEBFDA
:104090000FBECDBF7C011A012B0139010E94EF42F6
:1040A0004B015C0187010D5B1F4FC8010E94C316C5
:1040B00018161906A4F00E94EF42DC01CB01881902
:1040C0009909AA09BB09281639064A065B06F0F0C9
:1040D00062E370E080E090E00E942043E6CF42E29D
:1040E00050E0BE016F5F7F4FC8010E945E1689815C
:1040F000823031F4F801848995898334910541F047
:10410000D12CC8010E94FF158D2D5FC18FEF5DC1BD
:104110006D817E818F8198850E9417454B015C01DE
:10412000F301608371838283938346E050E0B7019B
:10413000685F7F4FCE014D960E94CF47892B99F43F
:10414000F70180819181A281B38188169906AA0620
:10415000BB0648F084819581A681B78188159905B1
:10416000AA05BB0528F4C8010E94FF1580E02DC1F7
:1041700089899A89AB89BC89F70186879787A08B43
:10418000B18B8EECA82EB12CC8010E943516F1E03F
:10419000AF1AB108C9F7D12CC70182969AA789A78F
:1041A000F701B696FCA7EBA708969EA78DA73C97AC
:1041B0004F01899698AB8FA73897FAABE9AB1701F7
:1041C000F6E12F0E311CC5979CAB8BABC8010E944A
:1041D000E515181619060CF094CFC8010E94351683
:1041E0008333910509F4CBC0FCF481309105C9F10A
:1041F0001CF4892B59F3DDC083309105D1F106976A
:1042000009F0D7C0C8010E9435165C0144E050E0B7
:104210006BA97CA9C8010E945E16412C512CBB24BD
:10422000F4E0AF1AB10840C08A33910509F47BC0AD
:104230003CF48533910569F0C69709F440C0B9C0D4
:104240008B33910509F485C08F3F910509F4BECFEA
:10425000B0C0C8010E943516C8010E943516D82E7C
:10426000B5CFC8010E94351644E050E069A97AA98B
:104270003AC0C8010E9435165C0144E050E0B1012B
:10428000C8010E945E16412C512CBB2494E0A91A4F
:10429000B1084A145B040CF099CFC8010E9435168E
:1042A000EFEF4E1A5E0AF5CF4A145B040CF08ECF86
:1042B000C8010E9435168FEF481A580AF5CFC80179
:1042C0000E943516B82EF701828D811110C0838DA2
:1042D00081110DC0848D81110AC0858D811107C0A7
:1042E00044E050E0B401C8010E945E166FCFEFA514
:1042F000F8A94080518062807380B401CE0183961A
:104300000E94283E8DA19EA1AFA1B8A58415950558
:10431000A605B70529F3BB2009F458CFC8010E94B0
:104320003516BA94F8CFC8010E94351644E050E023
:104330006BA57CA5C8010E945E16F70166A177A156
:1043400080A591A50E94174566A377A380A791A792
:104350003DCFC8010E94351644E050E06DA57EA512
:10436000C8010E945E16F70162A573A584A595A5F4
:104370000E94174562A773A784A795A727CFC801F6
:104380000E94351644E050E069A57AA5C8010E9454
:104390005E16F70162A173A184A195A10E94174541
:1043A00062A373A384A395A366A777A780AB91AB01
:1043B0000DCFC8010E943516B82EBB2009F406CFD8
:1043C000C8010E943516BA94F8CFE4960FB6F89457
:1043D000DEBF0FBECDBFDF91CF911F910F91FF9038
:1043E000EF90DF90BF90AF909F908F907F906F90F5
:1043F0005F904F903F902F9008952F923F924F9251
:104400005F926F927F928F929F92AF92BF92CF9264
:10441000DF92EF92FF920F931F93CF93DF93CDB76D
:10442000DEB727970FB6F894DEBF0FBECDBF8C0165
:1044300020ED37E040E050E061E070E080E090E0A7
:104440000E94C33FD80114966D937D938D939C93E6
:104450001797F80160837183828393835801F3E493
:10446000AF0EB11CC5010E94001664E470E0C501E6
:104470000E949616882309F43CC10E94EF422B014A
:104480003C01812C912C1D82C8018E5B9F4F9F8324
:104490008E8343E0342E58EEC52E53E0D52EE12C0A
:1044A000F12C62E0262EAE81BF818C91833009F41D
:1044B00007C1811120C0F80184819581A681B7814F
:1044C0000196A11DB11D84839583A683B7830E94A5
:1044D000EF426419750986099709A70196010E94A0
:1044E000CE44A90161E0C8010E941A1F81E0AE819B
:1044F000BF818C93C6C08430F9F4F8018481958122
:10450000A681B7810196A11DB11D84839583A683E1
:10451000B7830E94EF426419750986099709A701BC
:1045200096010E94CE44A90163E0C8010E941A1FAF
:10453000AE81BF812C92A5C0813061F5F80142ADFA
:1045400053AD64AD75AD9E012F5F3F4FC8010E9412
:1045500031208D83823009F094C089819A81AB81AA
:10456000BC81F80184839583A683B7830E94EF42C0
:104570006419750986099709A70196010E94CE441E
:10458000A90163E0C8010E941A1FED81AE81BF81BD
:10459000EC937EC0823009F074C0D801DA964D9158
:1045A0005D916D917C91DD979E012F5F3F4FC8011A
:1045B0000E9431208D83853009F05CC0EE81FF813F
:1045C0003082F80182A193A1A4A1B5A1892B8A2BE5
:1045D0008B2B41F484E893E0A0E0B0E082A393A3A6
:1045E000A4A3B5A3F80186A197A1A0A5B1A5892B85
:1045F0008A2B8B2B61F482A193A1A4A1B5A1B695BE
:10460000A7959795879586A397A3A0A7B1A7F8012B
:1046100082A593A5A4A5B5A5892B8A2B8B2BA9F4DC
:1046200082A193A1A4A1B5A1AC01BD0123E076951F
:104630006795579547952A95D1F7841B950BA60B3F
:10464000B70B82A793A7A4A7B5A7F80186A197A146
:10465000A0A5B1A586A797A7A0ABB1AB82A593A54E
:10466000A4A5B5A582AB93ABA4ABB5AB88248394CA
:10467000912C0EC0FD81F63021F4AE81BF811C92D9
:1046800007C0BD81BF3F21F4EE81FF8110821D82F2
:10469000F1E08F16910409F406CF0E94EF42DC018D
:1046A000CB0184199509A609B709F80126A937A9EC
:1046B00040AD51AD281739074A075B0708F0F3CE24
:1046C000C5010E940016F80184819581A681B781F9
:1046D0000196A11DB11D84839583A683B7830E9493
:1046E000EF42F801FE966083718382839383C40155
:1046F00002C080E090E027960FB6F894DEBF0FBEB0
:10470000CDBFDF91CF911F910F91FF90EF90DF9080
:10471000CF90BF90AF909F908F907F906F905F9061
:104720004F903F902F900895CF92DF92EF92FF929B
:104730000F931F93CF93DF93EC016B011AA21BA27F
:104740001CA21DA21EA21FA218A619A61AA61BA66D
:104750001CA61DA62EAB3FAB48AF59AFEAAEFBAED1
:104760000CAF1DAF8C01085F1F4F86E0F80111925E
:104770008A95E9F7CE010E94C71E86E0F601D801AE
:1047800001900D928A95E1F7FE01EE5BFF4F1082DA
:10479000CE01DF91CF911F910F91FF90EF90DF90AD
:1047A000CF900C94FD21FB0142815381648175817E
:1047B000FC014283538364837583178216820895B4
:1047C000CF93DF93FB0120E080E090E0AAE03191FD
:1047D000332301F160ED630F6A3080F4A89FB001CC
:1047E000A99F700D1124CB01C097830F911D37FD38
:1047F0009A958F3F910559F350F313C03E3289F4D7
:10480000233079F0EA01C20FD11D8A832F5F80E047
:1048100090E0DDCF233029F4FA01858381E090E038
:1048200002C080E090E0DF91CF9108950F9300E007
:1048300020E040E060E084EC9CE00E941C3E0F9190
:1048400008958F929F92AF92BF92CF92DF92EF9294
:10485000FF920F931F93CF93DF9300D01F921F926D
:10486000CDB7DEB78C016B010E94EF42F801778370
:1048700066837627672776277A836983085F1F4FC9
:1048800042E050E0BE016F5F7F4FC8010E942116D9
:1048900081E090E09C838B8342E050E0BE016D5F3D
:1048A0007F4FC8010E94211680E091E09C838B839A
:1048B00042E050E0BE016D5F7F4FC8010E942116AB
:1048C0001C821B8242E050E0BE016D5F7F4FC80139
:1048D0000E94211642E050E0BE016D5F7F4FC8018B
:1048E0000E94211642E050E0BE016D5F7F4FC8017B
:1048F0000E9421165601F5018081882329F1C60105
:104900007C01FC0120810196211116C0570147014D
:104910008C189D081814190494F48D8241E050E01D
:10492000BE016B5F7F4FC8010E942116A401B60132
:10493000C8010E94211603C02E3211F7E7CF67018C
:10494000FFEFCF1ADF0AD7CF1D8241E050E0BE0152
:104950006B5F7F4FC8010E942116E12CFF24F39466
:10496000FC82EB8242E050E0BE016D5F7F4FC801E8
:104970000E942116FC82EB8242E050E0BE016D5F96
:104980007F4FC8010E94211681E090E00F900F90A8
:104990000F900F900F90DF91CF911F910F91FF908B
:1049A000EF90DF90CF90BF90AF909F908F90089541
:1049B0004F925F926F927F928F929F92AF92BF922F
:1049C000CF92DF92EF92FF920F931F93CF93DF93DB
:1049D000CDB7DEB765970FB6F894DEBF0FBECDBF7B
:1049E0007C015B016A010E94EF422B013C018701BF
:1049F000085F1F4F4501A12CB12CC8010E94C316AE
:104A000018161906A4F00E94EF42DC01CB018419AC
:104A10009509A609B70988169906AA06BB06D0F01B
:104A200062E370E080E090E00E942043E6CFF7016F
:104A30004281538164817581808D918DA28DB38D6A
:104A4000481759076A077B0741F4848D958DC597F0
:104A500021F406C02FEF3FEFFDC02EEF3FEFFAC06D
:104A6000C8010E94E5150C97ECF04CE050E0BE0147
:104A70006F5F7F4FC8010E945E166C818B810E9420
:104A8000E53F9A8B898BF701E680F7806A818981FF
:104A90000E94E53FE816F90641F489899A8997FF53
:104AA00004C009C02DEF3FEFD5C0C8010E94FF151B
:104AB0002CEF3FEFCFC08F709270892B31F0C8017F
:104AC0000E94FF152BEF3FEFC5C068858F810E94C4
:104AD000E53F5C01892B31F4C8010E94FF152AEFE4
:104AE0003FEFB8C0E12CF12C6E818D810E94E53F33
:104AF000E816F90640F541E050E0BE01635F7F4FE4
:104B0000C8010E945E168D85811113C08D858111AB
:104B1000F2CFC8010E943516C8010E943516C8019F
:104B20000E943516C8010E943516FFEFEF1AFF0AE2
:104B3000DBCF8D859FEF980F9D87882339F3C801C0
:104B40000E943516F6CFE12CF12C41E050E0BE0179
:104B50006D5E7F4FC8010E945E168B89982F907CF6
:104B600061F4882371F08B899FEF980F9B8B8823CA
:104B700041F0C8010E943516F6CFC8010E943516D3
:104B80001B8A8B898111E1CF42E050E0BE01615F59
:104B90007F4FC8010E945E1642E050E0BE01635F95
:104BA0007F4FC8010E945E16C8010E943516C801D9
:104BB0000E943516C8010E943516C8010E9435169C
:104BC00042E050E0BE016F5E7F4FC8010E945E165A
:104BD0008F8598898115914001F52D853E85322775
:104BE0002327322721303105C1F489899A8981151B
:104BF000944031F0C8010E94FF1527EF3FEF2AC013
:104C0000B6016E5F7F4F44E050E0C8012C8B3D8BB6
:104C10000E945E162C893D891DC0812C912C8989AA
:104C20009A899827892798278816990638F4C80101
:104C30000E9435168FEF881A980AF1CFEFEFEE1A1F
:104C4000FE0AEA14FB0409F080CFC8010E94FF1598
:104C500026EF3FEFC90165960FB6F894DEBF0FBE91
:104C6000CDBFDF91CF911F910F91FF90EF90DF901B
:104C7000CF90BF90AF909F908F907F906F905F90FC
:104C80004F9008958F929F92AF92BF92CF92DF92F2
:104C9000EF92FF920F931F93CF93DF9300D000D03A
:104CA000CDB7DEB77C014B015A010E94E0238C0195
:104CB000892B09F05BC0F7014281538164817581C2
:104CC0008091C60C9091C70CA091C80CB091C90CF2
:104CD000481759076A077B0709F44BC00E94EF4247
:104CE0006701F8E0CF0ED11C6F7077277C5FC6019B
:104CF0000E949616813009F03EC082EE96E09A83BB
:104D00008983F70182819381A481B5818B839C8300
:104D1000AD83BE8345E350E0BE016F5F7F4FC601A8
:104D20000E941516892B19F400E010E01BC0B40195
:104D3000C7010E942124892BB9F3C6010E941D16C8
:104D4000892B91F383E0882E912CA50168E873E10B
:104D5000C7010E94D8248C01F1E08F1A910811F04C
:104D6000019699F3C6010E94001605C001E010E00B
:104D700002C00EEF1FEFC80126960FB6F894DEBFF3
:104D80000FBECDBFDF91CF911F910F91FF90EF909C
:104D9000DF90CF90BF90AF909F908F900895CF936A
:104DA000CFB7F8948091CD0C811127C0E1E4F3E0F6
:104DB0008491EBEFF2E09491E82FF0E0EE0FFF1F0B
:104DC000EA57FC4FA591B491EC91E92321F461E0FD
:104DD00085E30E94754461E085E30E9439448CB507
:104DE00080618CBD8CB580648CBD61E084E30E94E1
:104DF000394461E083E30E9439448091CD0C8F5F98
:104E00008093CD0CCFBFCF910895CF93DF93C3E1B3
:104E1000D2E08091CE0C9091CF0C6991DC01ED91A4
:104E2000FC910190F081E02D1995B2E0CD31DB07C6
:104E300081F7DF91CF910895FC013196079620E02C
:104E400030E04191240F311DE817F907D1F7882789
:104E50009927821B930B089583E192E00E941C27FF
:104E6000E3E1F2E09783808708959093CF0C8093DD
:104E7000CE0C85E097E29093D10C8093D00C0895EE
:104E8000E3E1F2E08383758366830E942C27E0913F
:104E9000D00CF091D10C1994BC0186E00C94402701
:104EA000BC0182E10C944027CF93DF931F92CDB7D2
:104EB000DEB76983DC01ED91FC910280F381E02D86
:104EC00041E050E0BE016F5F7F4F19950F90DF9179
:104ED000CF910895CF93DF93EC01898D9A8D009740
:104EE00039F481E090E09B838A8380E090E00BC0FE
:104EF000FC01138212820E944734E98DFA8D2281CF
:104F00003381232B71F7DF91CF910895FC01818DBF
:104F1000928D009711F00C949B310895CF93DF93FD
:104F20001F92CDB7DEB741E050E0BE016F5F7F4F0B
:104F30000E94B72F019719F4898190E002C08FEF8A
:104F40009FEF0F90DF91CF910895FC01818D928D9D
:104F5000009711F00C948E278FEF9FEF08950F9319
:104F60001F93CF93DF93FC01818D928D0097B9F051
:104F7000EF010E948E278C010F3F8FEF180791F0F1
:104F8000898D9A8DFC0142855385648575854150D4
:104F90005109610971090E940531C80105C080E00D
:104FA00090E002C08FEF9FEFDF91CF911F910F91A3
:104FB0000895EF92FF920F931F93CF93DF93EC012D
:104FC0007B018A011B821A8288EE93E0A0E0B0E0A8
:104FD0008C839D83AE83BF8382EB96E09983888325
:104FE0008DE190E00E9438459A8F898F009779F083
:104FF0002DE1F701DC0101900D922A95E1F74CE0DB
:1050000050E0B801CE010C960E940048188EDF9146
:10501000CF911F910F91FF90EF900895FC011382A3
:10502000128288EE93E0A0E0B0E084839583A683AB
:10503000B78382EB96E091838083128E118E148663
:105040000895FC01818D928D009729F00E94053111
:1050500091E0811101C090E0892F0895DC015996FB
:10506000ED91FC915A97309729F06285738584857C
:10507000958508956FEF7FEFCB010895DC01599678
:10508000ED91FC915A97309729F06389748985894D
:105090009689089560E070E0CB010895CF92DF9289
:1050A000EF92FF92CF93DF93FC01218D328D232B62
:1050B000D9F0EC010E943E286B017C01CE010E94D8
:1050C0002E28A7019601261B370B480B590BDA0136
:1050D000C901811530E89307A105B10538F08FEFBC
:1050E0009FE7A0E0B0E002C080E090E0DF91CF91C8
:1050F000FF90EF90DF90CF900895CF93DF93EC0176
:10510000898D9A8D009741F00E94E231898D9A8DA8
:105110000E94CD451A8E198EDF91CF910895DC0142
:105120005996ED91FC915A97309721F081E0958145
:10513000911101C080E00895442339F00E94203489
:1051400091E0811103C090E001C091E0892F0895A2
:105150000F931F93CF93DF93EC018B0141E00E94EB
:105160008B39811109C040E0B801CE01DF91CF91A8
:105170001F910F910C948B3981E0DF91CF911F919A
:105180000F9108950F931F93CF93DF93DA01EB01F3
:1051900028813981FC01E20FF31F40814F3211F465
:1051A0002F5F3F4F8D01E0E0F0E0AC01420F531F55
:1051B000EA0158815F3259F0552349F031962F5F4B
:1051C0003F4FE80159938E01EC30F10571F7EA0F7A
:1051D000FB1F1082FC01E20FF31F40814F3211F4DC
:1051E0002F5F3F4FFB0131832083FC01E20FF31F50
:1051F00081E09081911101C080E0DF91CF911F91FA
:105200000F9108954F925F926F927F928F929F922B
:10521000AF92BF92CF92DF92EF92FF920F931F93C4
:10522000CF93DF93CDB7DEB7C954D1090FB6F89449
:10523000DEBF0FBECDBF5C016B013A01490119A26F
:1052400018A284EC96E09F8F8E8F1BA21C821B827B
:105250009A8389831E822A961FAE1EAE2A978B01DF
:105260007E018EE1E80EF11C44244394AE01455CBE
:105270005F4FBE01685B7F4FC5010E94C228582E58
:10528000482F44259401BE01655C7F4FC801F3019E
:105290001995811108C00C151D0519F0C8010E944F
:1052A000E23180E027C05520B9F021E0AE01455C35
:1052B0005F4FB801C7010E941633582E0C151D050B
:1052C00099F0C8010E94E231552059F3902F812FA7
:1052D0008701E92EF82ECACF0C151D0519F0C8015B
:1052E0000E94E23181E006C08823D9F28E010F5F6F
:1052F0001F4FECCFC75BDF4F0FB6F894DEBF0FBE7A
:10530000CDBFDF91CF911F910F91FF90EF90DF9074
:10531000CF90BF90AF909F908F907F906F905F9055
:105320004F9008950F931F93CF93DF93EC01462F77
:1053300061E00E94602C882389F08E01045F1F4F7A
:10534000BE01C8010E94A828882341F0B801CE01FF
:105350008A960E94662F91E0811101C090E0892F0A
:10536000DF91CF911F910F910895FC01DB011296FF
:105370008D919C9113979383828384EC96E0918323
:10538000808314968C911497848315968C9115972D
:10539000858316964D915D916D917C911997468309
:1053A0005783608771871A964D915D916D917C91BD
:1053B0001D9742875387648775871E964D915D912F
:1053C0006D917C91519746875787608B718B529670
:1053D0008C915297828B53964D915D916D917C91FA
:1053E0005697438B548B658B768B57964D915D9179
:1053F0006D917C915A97478B508F618F728F5B961E
:105400008D919C915C97948F838F08954F925F92BA
:105410006F927F928F929F92AF92BF92CF92DF92C4
:10542000EF92FF920F931F93CF93DF93CDB7DEB729
:10543000C754D1090FB6F894DEBF0FBECDBF6C01C3
:105440005A014901665D7F4F7E018EE1E80EF11C35
:10545000C7010E94B5291C821B8284EC96E09A83C6
:1054600089831E828501FE0131963F0127016FE28B
:1054700070E0C8010E94E5470097D9F1F80120814A
:105480002F3219F40F5F1F4FF2CF801B8D3008F0C1
:105490008CE0E82EF12CA701B801CE01CB960E943A
:1054A0000048EBE3F0E0EC0FFD1FEE0DFF1D108256
:1054B000C3010E94E23121E0AE01455C5F4FB201C1
:1054C000C3010E941633811109C0F60113821282B2
:1054D00084EC96E091838083158214C00E0D1F1D0D
:1054E000C2010E94E231942D852D2301692E782E70
:1054F000BECF0A191B09F40111830083B201C60152
:105500000E94B529C601C95BDF4F0FB6F894DEBF14
:105510000FBECDBFDF91CF911F910F91FF90EF9004
:10552000DF90CF90BF90AF909F908F907F906F90C3
:105530005F904F900895AF92BF92CF92DF92FF920B
:105540000F931F93CF93DF93CDB7DEB7C955D10922
:105550000FB6F894DEBF0FBECDBF6C015B018A01B0
:10556000F22E9E01285A3F4FCE01CB960E94062A6A
:105570006A968EAD9FAD6A97080F191FF80180815A
:1055800081110AC0BE01655C7F4FCE0101960E9469
:10559000B5294EE453E041C019A218A284EC96E06C
:1055A0009F8F8E8F1BA221968FAD2197811104C0F2
:1055B000C6010E940E2837C08250823060F4B501C7
:1055C000665D7F4F2F2DA801CE014E960E941633A7
:1055D000811110C0EDCF2F2DA801BE01655C7F4F5A
:1055E000CE014E960E941633882311F3CE01CB963E
:1055F0000E94E2319F2D967041F049A95AA96BA9EA
:105600007CA9CE014E960E940531BE01625E7F4F9D
:10561000CE0101960E94B529A801BE016F5F7F4FA0
:10562000C6010E94D927C601C75ADF4F0FB6F894AA
:10563000DEBF0FBECDBFDF91CF911F910F91FF90C5
:10564000DF90CF90BF90AF900895FB01BC01665DE5
:105650007F4F20E030E04CE958E2CF010C94022962
:10566000E2EDFCE0158216821186138682E090E05E
:10567000A0E0B0E084879587A687B78713A215A618
:1056800014A684EC96E093A782A717A608958FEF3F
:105690000C94281C61E0FC0184810E947544809177
:1056A0001B0D882321F010921B0D0C943B110895C3
:1056B000CF93DF93EC0180911B0D811109C081E034
:1056C00080931B0D80911C0D90911D0D0E94211146
:1056D00060E08C81DF91CF910C947544CF93DF9380
:1056E000EC018E81882389F08F8198859C012F5F42
:1056F0003F4F38872F838230924018F40E94472B07
:10570000F3CFCE010E944A2B1E82DF91CF910895E4
:105710000F93CF93DF931F921F92CDB7DEB7673001
:1057200028F026E1FC01258380E047C06230F9F0D3
:1057300058F46623A9F0613079F500E021E040E0FB
:1057400059E06DE370E02EC06430F9F0B8F06530D8
:1057500019F500E021E040E950ED63E070E022C07F
:1057600000E021E040E458E76DE771E01BC000E095
:1057700021E040E854E86EE170E014C000E021E070
:1057800040E452E46FE070E00DC000E021E040E250
:1057900051EA67E070E006C000E021E048E458EE1E
:1057A00061E070E0CE0101960E942F1889819A81F4
:1057B00090931D0D80931C0D81E00F900F90DF9151
:1057C000CF910F9108950F931F93CF93DF93EB0128
:1057D0000E94EF428B010E94472B8F3F49F00E94AD
:1057E000EF42601B710B6C177D07A8F380E001C0CE
:1057F00081E0DF91CF911F910F910895CF92DF92B9
:10580000FF920F931F93CF93DF9300D01F92CDB7DA
:10581000DEB76C01F62E29833A834B835C830E94AA
:105820006E2BC6010E94582B6CE271E0C6010E94EB
:10583000E32B8F2D80640E94281C08E110E05C811E
:105840004B813A812981DA01C901002E04C0B69545
:10585000A795979587950A94D2F729833A834B8326
:105860005C830E94281C0850110929813A814B81D0
:105870005C81083F8FEF180731F7FF2029F0E8E03F
:10588000FE1204C087E803C085E901C08FEF0E94C3
:10589000281C10E00E94472BF601828787FF04C076
:1058A0001F3F11F01F5FF6CF0F900F900F900F90DA
:1058B000DF91CF911F910F91FF90DF90CF900895CE
:1058C0007F928F929F92AF92BF92CF92DF92EF9290
:1058D000FF920F931F93CF93DF931F921F92CDB729
:1058E000DEB77C01762EFC011386118616821582A6
:1058F00044830E94EF426B0161E0F70184810E94C2
:10590000394461E0F70184810E9475440E94CF26EA
:1059100000E021E040E950ED63E070E0CE01019647
:105920000E942F1889819A8190931D0D80931C0DE0
:105930000E9421111AE08FEF0E94281C1150D9F704
:105940000E943B11C7010E94582B20E030E0A901C2
:1059500060E0C7010E94FE2B082FF701828781308B
:1059600049F00E94EF426C197D09613D774068F370
:1059700081E04FC02AEA31E040E050E068E0C70132
:105980000E94FE2B82FF03C0F70103870EC004E0D4
:105990000E94472BF70182870150D1F78A3A11F014
:1059A00082E038C082E0F7018387F7018385823087
:1059B00021F0812C912C540105C0812C912CA12C1B
:1059C00080E4B82E20E030E0A90167E3C7010E941F
:1059D000FE2BA501940169E2C7010E94FE2BF7018D
:1059E0008287882349F00E94EF426C197D09613D4E
:1059F000774040F388E00DC083858230F1F420E0E9
:105A000030E0A9016AE3C7010E94FE2B882339F028
:105A100086E0F7018583C7010E944A2B16C00E94C9
:105A2000472B807C803C19F483E0F70183870E9438
:105A3000472B0E94472B0E94472BC7010E944A2BED
:105A4000672DC7010E94882B182F812F0F900F9070
:105A5000DF91CF911F910F91FF90EF90DF90CF904A
:105A6000BF90AF909F908F907F9008950F931F935A
:105A7000CF93DF93EC010E94EF428B010E94472BF2
:105A80008A878F3F49F40E94EF42601B710B6D3291
:105A90007140A0F38FE003C08E3F39F08DE08D831D
:105AA000CE010E944A2B80E001C081E0DF91CF91BE
:105AB0001F910F910895CF92DF92EF92FF920F9373
:105AC0001F93CF93DF93EC016901C801820F931FED
:105AD0008130924008F05CC08E81882371F088810B
