:100000000C94F1010C9422020C9422020C94220212
:100010000C9422020C9422020C9422020C942202D0
:100020000C9422020C9422020C9422020C942202C0
:100030000C9422020C9422020C9422020C942202B0
:100040000C9422020C9422020C9422020C942202A0
:100050000C9422020C9422020C9422020C94F9407B
:100060000C9422020C949D3A0C94D33A0C942202E4
:100070000C9422020C9422020C9422020C94220270
:100080000C9422020C9422020C9422020C94220260
:100090000C9422020C9422020C9422020C94220250
:1000A0000C9422020C9422020C9422020C94220240
:1000B0000C9422020C9422020C9422020C94220230
:1000C0000C9422020C9422020C9422020C94343BD5
:1000D0000C946A3B0C9422020C94CB3B0C94013C94
:1000E0000C9422025D4260424F4253425942974271
:1000F000644268426E42724276427C42804284424E
:1001000097428A428E4292420C94F40F0C94152727
:100110000C94623C0C942A220C94C7260C94481D23
:100120000C9480420C94B4290C94350E0C94E32565
:100130000C949E3B0C9472420C94C9390C9443135A
:100140000C9401140C9482120C9473340C94311A94
:100150000C941A0E0C945B390C9444250C94943B2B
:100160000C9413110C9460420C946A390C947642EE
:100170000C94353C0C9472100C940E100C940C25BD
:100180000C9490130C948E420C9492420C94073B66
:100190000C94D93C0C9424020C9497420C942B3C64
:1001A0000C94AF130C9498120C9484420C94E20FAC
:1001B0000C9439390C9447390C94C30F0C946E424B
:1001C0000C94AE0F0C94EB0F0C94220E0C94F51CB7
:1001D0000C9427020C945D420C947C420C94A71260
:1001E0000C947E120C94FA110C942D390C94661216
:1001F0000C944D130C9454120C94560E0C945B14E6
:100200000C944B0E0C944F420C941E260C942826F2
:100210000C94163A0C9459420C94A0100C940C0EA9
:100220000C94FF250C94DA100C947A120C9464420E
:100230000C94FB040C9450110C9408110C94790E3E
:100240000C94070F0C9476120C94BE130C94C512E8
:100250000C9453130C9428100C94250E0C941F2D01
:100260000C9468420C94CD250C9499120C9467134D
:100270000C94310E0C94270E0C9429110C94A005AB
:100280000C9453420C94A50F0C945F120C948A4268
:100290000C94FD3A7C3C3E5E2B3D3F2F5B5D3B2C3E
:1002A0002A225C0000000A0B02090C0D0E0807034D
:1002B0000401000000000000000000000000000039
:1002C000000000000000000000000000000000002E
:1002D00012111000000000000000000000000000EB
:1002E00000000000000000000000010210202008B3
:1002F0000810204010204080020102010804020181
:1003000001020408102040808040201008040201EF
:100310008004020180402010080402010804020148
:1003200001020408102040800102040810204080CF
:1003300005050505070508080808020202020A0A61
:10034000080804040404010101010101010103037F
:10035000030303030303040707070C0C0C0C0C0C2A
:100360000C0C0202020206060606060606060B0B27
:100370000B0B0B0B0B0B00002000230026002900A9
:100380002C002F00320000010000030106010901CA
:1003900000002200250028002B002E003100340030
:1003A00002010000050108010B01000021002400EA
:1003B00027002A002D003000330001010000040155
:1003C00007010A01FB040C0E081154125B14311AC8
:1003D000F51C481D2A22B4291F2D073B9E3B353CA6
:1003E000A00511241FBECFEFD1E2DEBFCDBF00E0DC
:1003F0000CBF16E0A0E0B2E0E2EEFEE800E00BBFCA
:1004000002C007900D92A435B107D9F720E1A4E509
:10041000B6E001C01D92AA37B207E1F711E0C0EFC4
:10042000D1E000E006C021970109802FFE010E9463
:100430006D43C23ED10780E00807A9F70E94E6405D
:100440000C945F470C94000080E090E008950895BC
:10045000009711F00E943D3D61E08DE00E949842BE
:1004600061E08DE00E94D4426AEF70E080E090E0AD
:100470000E94744160E08DE00E94D4426AEF70E017
:1004800080E090E00E947441EBCF24E0660F771F7C
:100490002A95E1F734E0880F991F3A95E1F720E0BB
:1004A00030E0F901E60FF71FE75DF84F4081518119
:1004B000F901E80FF91FE75DF84F518340832E5F84
:1004C0003F4F2031310569F70895FB019C01205F02
:1004D0003F4FDC016D917D91CD01419151916417A8
:1004E000750729F4A217B307A1F781E0089580E00A
:1004F0000895EF92FF920F931F93CF93DF937C01A8
:1005000009E217E0C0E0D0E0B701C8010E9465022F
:10051000811109C02196005F1F4FCC33D105A1F78F
:100520008FEF9FEF01C0CE01DF91CF911F910F910F
:10053000FF90EF9008959C01205331092A30310536
:1005400040F02151310981E02630310518F080E07A
:10055000089581E00895CF93DF930E94790220915E
:100560000A02019649F4222381F06BE272E086E9E7
:100570009EE00E943D3D09C0222351F06FE272E0EF
:1005800086E99EE00E943D3D03C0CFEFDFEF02C051
:10059000C1E0D0E080910A02882331F065E372E087
:1005A00086E99EE00E94263DCE01DF91CF9108951D
:1005B0000F931F93CF93DF9388E10E940343892B0E
:1005C000A9F18091FF0690910007892B79F1809124
:1005D000010790910207009741F469E372E080916E
:1005E000FD069091FE060E942802FC01C081D18187
:1005F000028113810E94F7401093020700930107C4
:100600008091FF06909100070197909300078093D7
:10061000FF06CE010E94C92564E670E080E090E00C
:10062000DF91CF911F910F910C947441DF91CF9185
:100630001F910F910895EF92FF920F931F93CF9305
:10064000DF93EC0181E0809373066AED72E08DE642
:1006500096E00E94F43E6DEE72E0CE010E94BF3E35
:100660006FED72E0CE010E94993F09E217E0F801B8
:1006700080819181892BD9F0E12CF12CF801EE0DCC
:10068000FF1D6081CE010E94A83FF2E0EF0EF11C39
:1006900080E1E816F10491F76FED72E0CE010E945F
:1006A000993F005F1F4FEAE0093E1E0701F7CE01A8
:1006B000DF91CF911F910F91FF90EF900895EF92EE
:1006C000FF920F931F93CF93DF93EC0181E0809310
:1006D00073066AED72E08DE696E00E94F43E6DEEE0
:1006E00072E0CE010E94BF3E6FED72E0CE010E942B
:1006F000993F09E217E0F80180819181892B09F186
:10070000E12CF12CF801EE0DFF1D60817181CE010D
:100710000E94BC3F62E972E0CE010E94993FF2E084
:10072000EF0EF11C80E1E816F10461F76FED72E065
:10073000CE010E94993F005F1F4FEAE0093E1E076D
:10074000D1F6CE01DF91CF911F910F91FF90EF90E5
:100750000895EF92FF920F931F93CF93DF9300D0F2
:1007600000D0CDB7DEB78C017B016AED72E08DE67B
:1007700096E00E94F43E61E37BE0C7010E943040B6
:10078000811106C061EE72E08DE696E00E94F43EB3
:100790006DEE72E0C8010E94BF3E81E08093730657
:1007A00080E00E941D42BC01990F880B990B0E94AA
:1007B0000D3EE12CF12C80910B0290910C02E81679
:1007C000F906DCF46AE070E080E090E00E94153EFB
:1007D000AB01BC012AE0CE0101960E94373FBE0169
:1007E0006F5F7F4FC8010E94923FCE0101960E9429
:1007F000513E8FEFE81AF80ADECFB8018FE19BE097
:100800000E94D43EC80126960FB6F894DEBF0FBEF4
:10081000CDBFDF91CF911F910F91FF90EF90089581
:10082000CF93DF9300D000D0CDB7DEB78EE596E052
:100830000E94AE0F6DEE72E0CE0101960E94BF3EA7
:10084000809173068823A9F06DE07BE0CE010196CC
:100850000E94D43E6DE676E0CE0101960E94923F62
:1008600066EE72E0CE0101960E94993F68E576E05F
:100870000EC063E17BE0CE0101960E94D43E68E5A4
:1008800076E0CE0101960E94923F67E07BE0CE01C8
:1008900001960E94923FBE016F5F7F4F8EE596E00A
:1008A0000E94183D61E070E080E090E00E94744199
:1008B0008EE596E00E94281080910A02882331F08C
:1008C0006EEE72E086E99EE00E943D3DCE0101960B
:1008D0000E94513E26960FB6F894DEBF0FBECDBFE4
:1008E000DF91CF910895CF92DF92EF92FF920F9315
:1008F0001F93CF93DF9300D000D0CDB7DEB77C013C
:100900006B016BE776E085E796E00E94F43EB60166
:1009100085E796E00E949040F601048115810F5F03
:100920001F4F080F191F61E073E0CE0101960E946E
:10093000BF3EA801BE016F5F7F4F85E796E00E9432
:1009400073408C01B60185E796E00E949040F60165
:10095000448155814F5F5F4F480F591F980165E7EC
:1009600076E0C7010E949440CE0101960E94513E5C
:10097000C70126960FB6F894DEBF0FBECDBFDF913C
:10098000CF911F910F91FF90EF90DF90CF9008953E
:10099000EF92FF920F931F93CF93DF93EC017B01B4
:1009A0000E811F8184E090E00E94F5409F838E833A
:1009B000009731F463E073E0888199810E942802F6
:1009C000FC0113821282F182E0822C813D81232B73
:1009D00019F49D838C8303C0F801938382838A81F9
:1009E0009B8101969B838A83DF91CF911F910F9109
:1009F000FF90EF9008950F9300E020E040E060E06A
:100A000081E49BE00E94AE3C64E373E081E39BE001
:100A10000E94BF3E06E221E048EA60EC8BE29BE0E8
:100A20000E94AE3CE5E2FBE01382128285ED95E088
:100A30009183808380E590E0958384836DEE72E0FE
:100A40008FE19BE00E94BF3E6AE373E089E19BE097
:100A50000E94BF3E61E473E083E19BE00E94BF3EE1
:100A600067E873E08DE09BE00E94BF3E61E973E0C0
:100A700087E09BE00E94BF3E6FEC72E081E09BE06C
:100A80000E94BF3E6CE973E08BEF9AE00E94BF3E8C
:100A900062EE73E085EF9AE00E94BF3E6CEE73E079
:100AA0008FEE9AE00E94BF3E61E074E089EE9AE02A
:100AB0000E94BF3E66E174E081E197E00E94BF3E84
:100AC00060E274E08BE097E00E94BF3E6CE274E06D
:100AD00085E097E00E94BF3EEDEFF6E013821282C0
:100AE0001582148217821682118210824AE060E811
:100AF00070E085E796E00E940B3F6DEE72E08DE6B8
:100B000096E00E94BF3EEEE5F6E01382128288EE88
:100B100093E0A0E0B0E084839583A683B78387EA5F
:100B200095E09183808388E0848788EE93E09687C0
:100B300085876DEE72E088E596E00F910C94BF3EDC
:100B4000CF93DF9388E596E00E94513E8DE696E0D4
:100B50000E94513E85E796E00E94513EC0910107F8
:100B6000D0910207CD2B71F080910107909102077F
:100B7000FC01C281D3810E94F740D0930207C09349
:100B80000107F0CF85E097E00E94513E8BE097E0AF
:100B90000E94513E81E197E00E94513E89EE9AE029
:100BA0000E94513E8FEE9AE00E94513E85EF9AE0FE
:100BB0000E94513E8BEF9AE00E94513E81E09BE003
:100BC0000E94513E87E09BE00E94513E8DE09BE0F9
:100BD0000E94513E83E19BE00E94513E89E19BE0EF
:100BE0000E94513E8FE19BE00E94513E81E39BE0D9
:100BF000DF91CF910C94513E8F929F92AF92BF9212
:100C0000CF92DF92EF92FF920F931F93CF93DF93D8
:100C1000CDB7DEB76B970FB6F894DEBF0FBECDBF72
:100C2000409111075091120721E061E47CE0CE0170
:100C300001960E943229CE0101960E94082788233E
:100C400009F451C089E2C82E87E0D82E9AE0892E97
:100C5000912CA12CB12CE12CF12CCE0101960E94FB
:100C6000C726892BE1F100E010E0CE0101960E9439
:100C70001E26F601E00FF11F9183808320910A0266
:100C8000222369F04AE050E0BC0186E99EE00E9420
:100C9000063E62E972E086E99EE00E94263D0E5F14
:100CA0001F4F0031110509F78FEFE81AF80AB50157
:100CB000A401CE0101960E949A2680910A02811118
:100CC00009C08AE0880E911CA11CB11C80E1C80EED
:100CD000D11CC3CF86E99EE00E94393DF2CFF0924D
:100CE0001807E0921707CE0101960E94F6266B9630
:100CF0000FB6F894DEBF0FBECDBFDF91CF911F912D
:100D00000F91FF90EF90DF90CF90BF90AF909F90AA
:100D10008F900895CF92DF92EF92FF920F931F93DF
:100D2000CF93DF93CDB7DEB76B970FB6F894DEBFE6
:100D30000FBECDBF2091170730911807D90144E0AD
:100D4000AA0FBB1F4A95E1F740E050E0FC0161911A
:100D50007191CF01FA01EA0FFB1FE75DF84F718334
:100D600060834E5F5F4F4031510581F72F5F3F4FEA
:100D7000309318072093170760911107709112079D
:100D800081E49CE00E94A92940911107509112072B
:100D900027E161E47CE0CE0101960E943229CE0178
:100DA00001960E940827882339F189E2E82E87E01E
:100DB000F82EC12CD12C8091170790911807C816D6
:100DC000D906D0F400E010E0F701E00FF11F6081D8
:100DD000CE0101960E94CD250E5F1F4F00311105F7
:100DE00099F7CE0101960E94393DFFEFCF1ADF0A35
:100DF00080E1E80EF11CDFCFCE0101960E94F626BD
:100E00000E94FC056B960FB6F894DEBF0FBECDBFF7
:100E1000DF91CF911F910F91FF90EF90DF90CF90D6
:100E200008958F929F92AF92BF92CF92DF92EF92EE
:100E3000FF920F931F93CF93DF93CDB7DEB7A097A9
:100E40000FB6F894DEBF0FBECDBF8C014B016DEE27
:100E500072E00E94BF3E68E374E0CE0101960E94FA
:100E6000BF3EB401CE0101960E94ED3FBC01C80116
:100E70000E94D43ECE0101960E94513E80910A020A
:100E8000882331F06BE574E086E99EE00E94263D00
:100E90007E0121E1E20EF11C5701C12CD12CB601DB
:100EA000C4010E947140682F880F770BD5016D93A4
:100EB0007D935D0180910A02882361F04AE050E051
:100EC00086E99EE00E94063E62E972E086E99EE0C5
:100ED0000E94263DBFEFCB1ADB0AE8E0CE16D10414
:100EE000F1F6C7010E94AB028F3FFFEF9F0751F061
:100EF000019719F561E07BE0C8010E94923F6AE723
:100F000074E018C0FE013196CE018196D7012D9173
:100F10003D917D0121933193A817B907B9F7CE010F
:100F200001960E948A0661E07BE0C8010E94923F20
:100F300061E674E0C8010E94993FC801A0960FB60F
:100F4000F894DEBF0FBECDBFDF91CF911F910F91FF
:100F5000FF90EF90DF90CF90BF90AF909F908F90D9
:100F60000895CF92DF92EF92FF920F931F93CF934A
:100F7000DF93CDB7DEB76B970FB6F894DEBF0FBE29
:100F8000CDBF0E9479022091170730911807821770
:100F9000930740F48C010F5F1F4FB8010E94450278
:100FA000C801F1CF2150310930931807209317075A
:100FB000609111077091120781E49CE00E94A929B9
:100FC000409111075091120727E161E47CE0CE01C6
:100FD00001960E943229CE0101960E94082788239B
:100FE00039F189E2E82E87E0F82EC12CD12C8091CE
:100FF000170790911807C816D906D0F400E010E042
:10100000F701E00FF11F6081CE0101960E94CD250E
:101010000E5F1F4F0031110599F7CE0101960E9416
:10102000393D8FEFC81AD80A80E1E80EF11CDFCFF6
:10103000CE0101960E94F6260E94FC056B960FB623
:10104000F894DEBF0FBECDBFDF91CF911F910F91FE
:10105000FF90EF90DF90CF9008958F929F92AF9284
:10106000BF92CF92DF92EF92FF920F931F93CF9395
:10107000DF93CDB7DEB7A0970FB6F894DEBF0FBEF3
:10108000CDBF8C014B016DEE72E00E94BF3E6EE859
:1010900074E0CE0101960E94BF3EB401CE010196DC
:1010A0000E94ED3FBC01C8010E94D43ECE010196D2
:1010B0000E94513E80910A02882331F06BE574E072
:1010C00086E99EE00E94263D7E0121E1E20EF11CB0
:1010D0005701C12CD12CB601C4010E947140682F68
:1010E000880F770BD5016D937D935D0180910A0286
:1010F000882361F04AE050E086E99EE00E94063EC7
:1011000062E972E086E99EE00E94263DBFEFCB1ABD
:10111000DB0AE8E0CE16D104F1F6C7010E94AB026B
:101120008F3FFFEF9F0739F0019721F5FE013196C0
:10113000CE01819608C061E07BE0C8010E94923F29
:1011400064EB74E014C0D7012D913D917D01219392
:101150003193A817B907B9F7CE0101960E94B107DC
:1011600061E07BE0C8010E94923F65ED74E0C80138
:101170000E94993FC801A0960FB6F894DEBF0FBE3B
:10118000CDBFDF91CF911F910F91FF90EF90DF9036
:10119000CF90BF90AF909F908F9008950F931F9323
:1011A000CF93DF93CDB7DEB7AA970FB6F894DEBF23
:1011B0000FBECDBF6BE776E085E796E00E94F43E78
:1011C00060EF74E0CE0101960E94BF3EBE016F5FEA
:1011D0007F4FCE0185960E947304CE0101960E9436
:1011E000513ECE0185960E94D9408B0163EF74E099
:1011F000CE0101960E94BF3EBE016F5F7F4FCE01C0
:101200004F960E947304CE0101960E94513E67EFF3
:1012100074E088E596E00E94F43E60E175E0CE015E
:1012200001960E94BF3EBE016F5F7F4FCE0149967F
:101230000E947304CE0101960E94513E65E175E063
:10124000CE0101960E94BF3EBE016F5F7F4FCE016F
:1012500043960E947304CE0101960E94513E6DEEAA
:1012600072E088E596E00E94F43E61E37BE0CE0107
:101270004F960E943040811110C081E08093730628
:1012800061EE72E08DE696E00E94F43E6DEE72E053
:1012900088E596E00E94F43E79C00330110509F418
:1012A00053C0B4F40130110549F10230110509F0C1
:1012B0006DC0BE01675E7F4FCE0107960E94EB3E78
:1012C000BE01695F7F4FCE0101960E942D084FC07D
:1012D00004301105F1F10530110509F057C0BE01C8
:1012E000615E7F4FCE0107960E94EB3EBE01695FB3
:1012F0007F4FCE0101960E94A90339C0BE016D5EE9
:101300007F4FCE0107960E94EB3EBE01675E7F4F86
:10131000CE010D960E94EB3EAE01495F5F4FBE01CC
:10132000635F7F4FCE0101960E941107BE016F5F80
:101330007F4F88E596E00E94D43ECE0101960E9440
:10134000513ECE010D961CC0CE0101960E941B039A
:1013500004C0CE0101960E945F03BE016F5F7F4F04
:1013600088E596E00E94D43ECE0101960DC0BE01F4
:101370006F5F7F4F88E596E00E94D43ECE010196D4
:101380000E94513ECE0107960E94513E0E941004D9
:10139000CE0143960E94513ECE0149960E94513E95
:1013A000CE014F960E94513ECE0185960E94513E3D
:1013B000AA960FB6F894DEBF0FBECDBFDF91CF91D6
:1013C0001F910F9108950F931F93CF93DF93CDB784
:1013D000DEB72F970FB6F894DEBF0FBECDBF65E224
:1013E0007BE0CE0101960E9492118B819C819093AB
:1013F0006106809360068D819E81AF81B885809360
:10140000620690936306A0936406B093650689858F
:101410009A85AB85BC858093660690936706A093FA
:101420006806B09369068D8580936A062E853F8590
:1014300030936C0620936B06883008F082C06AE116
:1014400075E086E99EE00E943D3D1092FC061092F8
:10145000FB064AE060E870E0CE0101960E940B3F77
:10146000BE016F5F7F4F85E796E00E94D43ECE01BC
:1014700001960E94513E2091FB063091FC06EBE75D
:10148000F6E080E2AF014B575640421753071CF07D
:1014900011E006E211C08193F5CF8EE596E00E943F
:1014A000E20F892B49F08EE596E00E94F40F8A3016
:1014B000F1F5111120C011E08EE596E00E94560E64
:1014C0008111EBCF38C08EE596E00E94F40F809337
:1014D00074062091FB063091FC06203831055CF43F
:1014E000A9014F5F5F4F5093FC064093FB06F90143
:1014F000E558F94F80838EE596E00E94E20F892B34
:1015000011F7E091FB06F091FC06E558F94F0083D6
:101510006BE275E086E99EE00E943D3D6BE776E078
:1015200086E99EE00E94263D0E94CE08C5CF8D3000
:1015300019F210E0C1CF62E475E086E99EE00E94F6
:101540003D3D2F960FB6F894DEBF0FBECDBFDF91A5
:10155000CF911F910F910895CF93DF9300D000D0CA
:10156000CDB7DEB7109273066DEE72E0CE01019634
:101570000E94BF3E0E94E309CE0101960E94513EA7
:1015800026960FB6F894DEBF0FBECDBFDF91CF9188
:1015900008950F931F93CF93DF9300D000D0CDB762
:1015A000DEB726E040E052EC61E070E086E99EE0C4
:1015B0000E94383A26E040E052EC61E070E080EDB5
:1015C0009FE00E94383A26E040E855E260E070E093
:1015D00083E39FE00E94383A83E39FE00E94642502
:1015E00089E190E00E94C52564E670E080E090E02B
:1015F0000E94744166E181E49CE00E941028811100
:101600000AC080910A02882331F06EE475E086E911
:101610009EE00E943D3D80910A02882331F06AE6F7
:1016200075E086E99EE00E943D3D0E94FC056CE766
:1016300075E086E99EE00E94263D00EA1FE020E07A
:1016400030E040E65AEE60E070E08DE092E00E940B
:101650002A0D64E875E086E99EE00E94263D85E259
:101660009BE00E9429116CE875E086E99EE00E94EB
:10167000263DCE0101960E94F40DBE016F5F7F4FA3
:1016800086E99EE00E944F3D8FEF9FEF90935506B5
:1016900080935406909357068093560626960FB66D
:1016A000F894DEBF0FBECDBFDF91CF911F910F9198
:1016B0000895CF92DF92EF92FF920F931F93CF93F3
:1016C000DF93CDB7DEB7E3970FB6F894DEBF0FBE5A
:1016D000CDBF6C017B016DEE72E0CE018E960E9453
:1016E000BF3E870180E1E80EF11CF80160810E5FCA
:1016F0001F4FCE018E960E94A83FE016F106A9F773
:1017000040910B0750910C0721E061E47CE0CE0191
:1017100001960E943229CE0101960E940827882353
:1017200009F46FC06DEE72E0CE0188960E94BF3E54
:101730006DEE72E0CE0182960E94BF3E6DEE72E0C9
:10174000CE014C960E94BF3E01E010E0CE01019612
:101750000E94C726892B09F43EC0CE0101960E9443
:101760001E267C018F97A1F18BE3E816F10431F07E
:10177000C7010E949B0281115CC0E8CF03301105B4
:10178000A1F4BE016E5D7F4FCE018E960E94304067
:10179000882359F0CE0101960E94F626BE01645EB0
:1017A0007F4FC6010E94EB3E1FC06DEE72E0CE017E
:1017B00088960E94F43E6DEE72E0CE0182960E9401
:1017C000F43E6DEE72E0CE014C960E94F43EBCCF2A
:1017D0000F5F1F4FBBCFCE0101960E94F6266AE92C
:1017E00075E0C6010E94BF3ECE014C960E94513E5C
:1017F000CE0182960E94513ECE0188960E94513EB3
:1018000004C0CE0101960E94F626CE018E960E945B
:10181000513EC601E3960FB6F894DEBF0FBECDBFB2
:10182000DF91CF911F910F91FF90EF90DF90CF90BC
:1018300008950230110531F46E2DCE0188960E9474
:10184000A83F84CF0330110521F46E2DCE014C96B4
:10185000F6CF0130110509F079CF6E2DCE018296B9
:10186000EECFCF93DF9300D000D0CDB7DEB769E1E4
:1018700077E0CE0101960E94590B26E030E040E06F
:1018800050E061E070E080E090E00E942F3E8DEF3C
:1018900096E00E94C8046AE975E0CE0101960E94B4
:1018A0004140811108C0CE0101960E94D9408DEFC0
:1018B00096E00E94C80460ED77E080E090E00E942E
:1018C0007441CE0101960E94513E26960FB6F894BF
:1018D000DEBF0FBECDBFDF91CF91089580ED9FE0B9
:1018E0000E942D39892B59F48FEF9FEF9093550665
:1018F000809354069093570680935606089580ED82
:101900009FE00E9447399C012C5731092330310553
:1019100048F49093570680935606109255061092FD
:1019200054060895209154063091550637FD0EC097
:10193000A9014F5F5F4F5093550640935406220F05
:10194000331FF901E75EF84F91838083809154063D
:1019500090915506089781F580915606909157060B
:101960008E37910571F489E197E00E94AB020196F0
:1019700021F489E197E00C948A0689E197E00C94C0
:10198000B1078C37910599F489E197E00E947902BB
:10199000019639F06FE975E080ED9FE00E94263DE9
:1019A00009C061EA75E080ED9FE00C94263D8D371B
:1019B000910511F40C94310C08950E94D8020E94F4
:1019C0006E0C0C94AC0A2091350C222399F04FB781
:1019D000F8942091350C213059F42DB32093330C19
:1019E0003DB32091340C209523232DBB4FBF02C063
:1019F0004093330C8CBD9DBD08958091350C882398
:101A000061F09FB7F8942091350C8091330C213010
:101A100019F48DBB9FBF08958FBF089544E050E037
:101A2000BC0181E090E00C94721A44E050E0BC01EB
:101A300085E090E00C94721A46E050E0BC0189E029
:101A400090E00C94721A44E050E0BC018FE090E00A
:101A50000C94721A4F925F926F927F928F929F9224
:101A6000AF92BF92CF92DF92EF92FF920F931F93AC
:101A7000CF93DF9300D000D0CDB7DEB76C014A0121
:101A80005B01280139018091A50B811120C01092C2
:101A90008D0B10928C0B88EE93E0A0E0B0E0809369
:101AA0008E0B90938F0BA093900BB093910B85EEC0
:101AB00095E090938B0B80938A0B88E99BE00E94C2
:101AC000A43C88E08093A20B81E08093A50B87E47F
:101AD0009BE09093AE0B8093AD0B0E946B1C882310
:101AE00009F469C080E591E00E94E30CC6010E9400
:101AF0001C0D00E020E040E060E0CE0101960E9475
:101B0000AE3CCE0103960E94230D0E94FD0C830182
:101B10007201A5019401B6018091AD0B9091AE0BBD
:101B20000E94A9218130910509F047C080E591E02C
:101B30000E94E30C6091AD0B7091AE0BCE0101964B
:101B40000E94071DCE0103960E94230D6091AD0BEC
:101B50007091AE0BCE0101960E941D1DCE01039621
:101B60000E940E0D6091AD0B7091AE0BCE010196EF
:101B70000E94121DCE0103960E94150D0E94FD0CBD
:101B80006091AD0B7091AE0BCE0101960E94281DA5
:101B90008B819C81AD81BE818093B10B9093B20B00
:101BA000A093B30BB093B40B0E944F41CB010E94A2
:101BB000DE1581E001C080E090E026960FB6F89433
:101BC000DEBF0FBECDBFDF91CF911F910F91FF9070
:101BD000EF90DF90CF90BF90AF909F908F907F90CD
:101BE0006F905F904F900895CF93DF93EC010E9428
:101BF000A43C80E591E00E94E30CBE016E5F7F4F44
:101C000044E050E08FE090E00E94451B0E94FD0CF4
:101C1000CE01DF91CF9108950F9300E020E040E0E6
:101C200060E085EB9BE00E94AE3C8FEA9BE00F9169
:101C30000C94A43C21E0FC018485883008F020E06D
:101C4000822F089581E086270895862F0895DC016C
:101C5000ED91FC91068CF78DE02D199591E0892787
:101C60000895FC01768765870895CF93DF931F92CF
:101C7000CDB7DEB76983DC01ED91FC910280F38181
:101C8000E02D41E050E0BE016F5F7F4F19950F904E
:101C9000DF91CF910895FC019485FB018485981311
:101CA00003C081E0983008F080E00895CF93DF937F
:101CB000EC018C858830C8F40E947A17843181F059
:101CC000882371F0883161F08C3161F4E881F98109
:101CD0000084F185E02DCE01199521E0892B19F4BE
:101CE00020E001C021E0822F01C080E0DF91CF9190
:101CF0000895AF92BF92CF92DF92EF92FF920F932F
:101D00001F93CF93DF93CDB7DEB7AF970FB6F8949D
:101D1000DEBF0FBECDBF8C015B016A01CE01019613
:101D20000E94A43C1C861B8688EE93E0A0E0B0E0F5
:101D30008D879E87AF87B88B85EE95E09A878987D8
:101D4000CE0147960E94A43C88E089A3CE018A96E2
:101D50000E94A43CD8011C968C91883060F40E94AB
:101D60007A17882321F0F80184850E94D01788E033
:101D7000D8011C968C9386E4E82E86E0F82EFDA20E
:101D8000ECA28091B10B9091B20BA091B30BB091EA
:101D9000B40B8EA39FA3A8A7B9A7BE016C5D7F4F0C
:101DA000CE0101960E94E82128E833E1AE01465DAC
:101DB0005F4FB501CE0101960E9443240097B1F018
:101DC000D801ED91FC910684F785E02DFDA2ECA2EF
:101DD0008CA59DA5AEA5BFA58EA39FA3A8A7B9A7B7
:101DE000A601BE016C5D7F4FC8011995AF960FB675
:101DF000F894DEBF0FBECDBFDF91CF911F910F9141
:101E0000FF90EF90DF90CF90BF90AF900895CF926A
:101E1000DF92EF92FF920F931F93CF93DF93CDB793
:101E2000DEB72C970FB6F894DEBF0FBECDBF8C0186
:101E30007B016A01FC018485883058F40E947A177E
:101E4000882321F0F80184850E94D01788E0F801EA
:101E5000848740E050E0BA01CE0107960E94BA3C68
:101E600049855A856B857C85F70182819381A481A0
:101E7000B581481759076A077B0709F452C04FEF2D
:101E80005FEFBA01CE0101960E94BA3CF701428190
:101E90005381648175818B819C81AD81BE8148179E
:101EA00059076A077B07E9F160E070E081E20E9470
:101EB000EA15F80184878830A0F5B7016E5F7F4F7F
:101EC000A6010E94B0170E9443416B017C01F801FA
:101ED00084850E947A17873139F18C3129F1882362
:101EE00001F10E944341AB01BC014C195D096E092F
:101EF0007F09F80185859685A0E0B0E084179507F5
:101F0000A607B70738F061E070E080E090E00E943B
:101F10007441DDCFF80184850E94891788E0F801BB
:101F2000848780E090E002C081E090E02C960FB6BC
:101F3000F894DEBF0FBECDBFDF91CF911F910F91FF
:101F4000FF90EF90DF90CF900895FC01848588305A
:101F500010F40C947F1980E090E00895CF93DF9304
:101F6000EC018C85883060F40E947A17873111F07B
:101F70008C3131F48C850E947F198115984088F34B
:101F8000DF91CF9108950F931F93CF93DF93FC01BF
:101F90008485883068F4C52FD42F8F010E941919C9
:101FA000009749F421E030E0F8013383228305C033
:101FB00080E090E002C08D2F9C2FDF91CF911F9188
:101FC0000F910895FC018485883010F40C94B918A1
:101FD00080E090E00895FC018485883010F40C9432
:101FE000DE1780E090E00895CF93DF931F92CDB786
:101FF000DEB741E050E0BE016F5F7F4FFC0184859A
:102000000E94DE17181619061CF4898190E002C0A0
:102010008FEF9FEF0F90DF91CF910895CF93DF93D4
:10202000FC012485283018F08FEF9FEF0EC0EC01E3
:102030000190F081E02D0084F185E02D1995892B28
:1020400099F38C850E94F11890E0DF91CF9108956B
:10205000CF92DF92EF92FF92CF93DF93EC018C85CA
:10206000883038F50E94D0170E9443416B017C01F3
:102070008C850E947A178823D1F061E070E080E0BF
:1020800090E00E9474410E944341AB01BC014C1995
:102090005D096E097F098D859E85A0E0B0E0481737
:1020A00059076A077B0720F38C850E94891788E00F
:1020B0008C87DF91CF91FF90EF90DF90CF900895C4
:1020C000DA0190911F0CE92FF0E0FE2FEE27E60FCA
:1020D000F71F90E0982F8827A901BD018E0F9F1F41
:1020E0000C94451B0F931F93CF93DF931F921F9266
:1020F000CDB7DEB7FC0124852830C0F48C0180E523
:1021000091E00E94E30C22E030E0AE014F5F5F4FB0
:1021100064E070E0F80184850E94601009811A81F2
:102120001027012710270E94FD0C02C000E010E0DC
:10213000C8010F900F90DF91CF911F910F910895DB
:10214000EF92FF920F931F93CF93DF9300D01F92D4
:10215000CDB7DEB78C017B01FB018485883038F078
:1021600040E050E0BA01C8010E94BA3C17C080E5C7
:1021700091E00E94E30C24E030E0AE014F5F5F4F3E
:102180006CE070E0F70184850E9460100E94FD0CF5
:10219000BE016F5F7F4FC8010E94C43CC8010F9011
:1021A0000F900F900F90DF91CF911F910F91FF90A3
:1021B000EF9008950F931F93CF93DF931F921F9279
:1021C000CDB7DEB7FC0124852830C0F48C0180E552
:1021D00091E00E94E30C22E030E0AE014F5F5F4FE0
:1021E00060E170E0F80184850E94601009811A8125
:1021F0001027012710270E94FD0C02C000E010E00C
:10220000C8010F900F90DF91CF911F910F9108950A
:102210000F9300E020E040E060E08BEB9BE00E9449
:10222000AE3C0F910895CF93DF931F92CDB7DEB7E9
:102230006983DC01ED91FC910280F381E02D41E0A6
:1022400050E0BE016F5F7F4F19950F90DF91CF91E6
:1022500008950F931F93CF938C01FC0164817581C6
:1022600081E20E94EA15C82F8830B0F40E949717C7
:10227000882361F0F80184819581EC2FF0E0EE0F66
:10228000FF1FEF53F44F9183808306C08C2FCF91B3
:102290001F910F910C94D017CF911F910F9108951A
:1022A000EF92FF920F931F93CF93DF937C01809166
:1022B000200C833311F4D4E001C0D8E001EC1BE022
:1022C000C0E0F801219131918F01F701848195815E
:1022D0002817390729F0CF5FDC13F3CF80E006C061
:1022E0008C2F0E947A178431B1F781E0DF91CF9172
:1022F0001F910F91FF90EF900895FC0113821282BD
:1023000088EE93E0A0E0B0E084839583A683B78352
:1023100087EA95E091838083648788EE93E09687CF
:10232000858708959F92AF92BF92CF92DF92EF92EE
:10233000FF920F931F93CF93DF937C016B018091EA
:10234000200C811102C068E045C0833319F424E0F9
:10235000922E02C098E0992E01EC1BE0C0E088E0CC
:10236000B82EA12CD8012D913C91F6018481958144
:1023700028173907F9F48C2F0E947A17D82F873144
:1023800011F08C3159F48C2F0E94B918892B71F4FB
:10239000DC3181F48C2F0E94D0170CC0843141F0C5
:1023A000811108C0D8011D921C9204C0BC2E02C02D
:1023B000AA24A394CF5F0E5F1F4F9C12D3CFA1100E
:1023C00008C0D601ED91FC910084F185E02DC60195
:1023D00019956B2DC7010E947D11C701DF91CF9127
:1023E0001F910F91FF90EF90DF90CF90BF90AF9033
:1023F0009F9008958F929F92AF92BF92CF92DF925B
:10240000EF92FF920F931F93CF93DF93CDB7DEB779
:102410002F970FB6F894DEBF0FBECDBF2091200CD2
:10242000222369F1233319F434E0E32E02C028E0BB
:10243000E22E8A015B016C01BC01CE0101960E9473
:10244000921181EC882E8BE0982EF12CF4012191D1
:1024500031914F01F601848195812817390751F494
:102460008F2D0E947A17873129F4A801B5018F2D8D
:102470000E941919F394EF10E9CFC80102C080E05F
:1024800090E02F960FB6F894DEBF0FBECDBFDF9160
:10249000CF911F910F91FF90EF90DF90CF90BF9061
:1024A000AF909F908F9008950F9300E020E040E060
:1024B00060E081ED9BE00E94AE3C0F910895DC014D
:1024C000ED91FC91048CF58DE02D199426E436E015
:1024D000FC0131832083FB01408951896289738922
:1024E000FC0142835383648375830895FC018489CE
:1024F00095890895FC01848595850895FC01818D59
:10250000928D0895CF93DF931F92CDB7DEB7698385
:10251000DC01ED91FC910280F381E02D41E050E07F
:10252000BE016F5F7F4F19950F90DF91CF91089596
:102530000895CF93DF93FC01808D883028F4EF015C
:102540000E94891788E0888FDF91CF9108950F93BB
:102550001F93CF93DF93EC018B01888D883010F4AB
:102560000E948917B80182E00E94EA15888F88309E
:1025700030F41D870C871A8E198E81E001C080E02F
:10258000DF91CF911F910F910895AF92BF92CF929B
:10259000DF92EF92FF920F931F93CF93DF93CDB70C
:1025A000DEB7AF970FB6F894DEBF0FBECDBF8C017C
:1025B0005B016A01CE0101960E94A43C1C861B8629
:1025C00088EE93E0A0E0B0E08D879E87AF87B88B60
:1025D00085EE95E09A878987CE0147960E94A43CB4
:1025E00088E089A3CE018A960E94A43C86E4E82E66
:1025F00086E0F82EFDA2ECA28091B10B9091B20B77
:10260000A091B30BB091B40B8EA39FA3A8A7B9A7B9
:10261000BE016C5D7F4FCE0101960E94E82128E843
:1026200033E1AE01465D5F4FB501CE0101960E94D8
:10263000432481309105B1F4D801ED91FC910488D7
:10264000F589E02DFDA2ECA28CA59DA5AEA5BFA5A8
:102650008EA39FA3A8A7B9A7A601BE016C5D7F4F5B
:10266000C8011995AF960FB6F894DEBF0FBECDBF67
:10267000DF91CF911F910F91FF90EF90DF90CF905E
:10268000BF90AF900895FC01178A168A6E5F7F4F46
:10269000808D0E94CB1990E00895FC01808D0E94EE
:1026A000FA1990E00895CF93DF93EC019A018E8997
:1026B0009F89AB01BC01888D0E949F192E893F899B
:1026C000280F391F3F8B2E8BDF91CF9108950F93E9
:1026D0001F93CF93DF931F92CDB7DEB7FC01218DFF
:1026E000328D232B61F08C0141E050E0BE016F5F21
:1026F0007F4F808D0E94DE17181619061CF08FEF91
:102700009FEF08C0F801818D928D0197928F818F84
:10271000898190E00F90DF91CF911F910F910895E3
:10272000CF93DF93FC01218D328D2115310519F4F2
:102730008FEF9FEF11C0EC014217530708F0A9017A
:10274000888D0E94DE171816190694F7298D3A8D88
:10275000281B390B3A8F298FDF91CF910895FC0107
:10276000808D883040F4218D328D232B21F00E9402
:10277000F11890E008958FEF9FEF0895CF92DF92C8
:10278000EF92FF920F931F93CF93DF9300D000D06F
:10279000CDB7DEB78C016B017A01FC01808D8830EA
:1027A00010F40E94891786E496E09A838983F601E3
:1027B00082819381A481B5818B839C83AD83BE8309
:1027C000A701BE016F5F7F4F82E80E949E16F8014D
:1027D000808F883030F4F586E486128E118E81E089
:1027E00001C080E026960FB6F894DEBF0FBECDBFC5
:1027F000DF91CF911F910F91FF90EF90DF90CF90DD
:1028000008950F931F93CF93DF93CDB7DEB728972B
:102810000FB6F894DEBF0FBECDBF8C01D80159961C
:102820004D915C915A974115510551F0ED91FC91F4
:10283000048CF58DE02D60E070E0C8011995EECFB5
:10284000F801808D0E94B918892B41F148E050E0D1
:10285000BE016F5F7F4FD80158968C910E94DE17A2
:1028600018161906ECF4BE016F5F7F4FC8010E9673
:102870000E94D03C8D8190E0982F88272E81820F76
:10288000911DF801958B848B8F8190E0982F88277C
:102890002885820F911D928F818F02C080E090E089
:1028A00028960FB6F894DEBF0FBECDBFDF91CF9153
:1028B0001F910F9108950F9300E020E040E060E049
:1028C00087ED9BE00E94AE3C0F910895CF93DF937C
:1028D0001F92CDB7DEB790911F0C292F30E0322F19
:1028E0002227260F371F90E0982F882741E050E0DD
:1028F000BE016F5F7F4F820F931F0E94451B89812E
:102900000F90DF91CF910895CF93DF931F92CDB7B2
:10291000DEB790911F0C292F30E0322F2227260F8F
:10292000371F90E0982F8827498341E050E0BE018F
:102930006F5F7F4F820F931F0E94721A0F90DF917B
:10294000CF910895DA0190911F0CE92FF0E0FE2F4E
:10295000EE27E60FF71F90E0982F8827A901BD0109
:102960008E0F9F1F0C94721A7F928F929F92AF923C
:10297000BF92CF92DF92EF92FF920F931F93CF936C
:10298000DF931F921F92CDB7DEB7782E8B014A01DD
:10299000590122E030E0AE014F5F5F4F64E270E02A
:1029A0000E946010E980FA80FE24EF24FE24E00EED
:1029B000F11E970137704091200C072D10E0C801DF
:1029C000433311F4089601C04096982F8827990F39
:1029D000990F990F820F931F473319F4A501B40182
:1029E00020C0A9014A0D5B1D41305840B8F360E09A
:1029F00078E06B01C21AD30AA601B4010E94721AD0
:102A0000A5014C195D09B4016C0D7D1D8091200C50
:102A1000833339F5085F1F4F902F990F990F990F46
:102A200080E00E94721AEA0CFB1CF982EA8222E022
:102A300030E0AE014F5F5F4F64E270E0872D0E948F
:102A4000A2140F900F90DF91CF911F910F91FF90E3
:102A5000EF90DF90CF90BF90AF909F908F907F903E
:102A60000895005F1F4FD8CF63E070E00C946614A8
:102A7000CF93DF931F921F92CDB7DEB779836A831E
:102A800022E030E0AE014F5F5F4F64E070E00E94F3
:102A9000A2140F900F90DF91CF910895AB0124E025
:102AA00030E06CE070E00C94A214CF93DF931F929F
:102AB0001F92CDB7DEB779836A8322E030E0AE01A2
:102AC0004F5F5F4F60E170E00E94A2140F900F9083
:102AD000DF91CF910895CF93DF931F921F92CDB7CF
:102AE000DEB722E030E0AE014F5F5F4F60E270E0A2
:102AF0000E94601089819A819827892798270F90D2
:102B00000F90DF91CF9108950F931F93CF93C82F0C
:102B10000E946B158C018C2F0E946B1508171907EA
:102B2000C9F787E0C89FF0011124E352F44F1583E1
:102B30000483C801CF911F910F910895CF93DF9324
:102B40001F921F92CDB7DEB722E030E0AE014F5F9B
:102B50005F4F66E270E00E94601089819A81982739
:102B6000892798270F900F90DF91CF910895CF93E9
:102B7000DF931F921F92CDB7DEB722E030E0AE01A7
:102B80004F5F5F4F68E270E00E94601089819A8118
:102B90009827892798270F900F90DF91CF9108955C
:102BA0002091200C90E0233311F40C9601C048963C
:102BB000982F990F990F990F80E008959F73209196
:102BC0001D0230911E028227932790931E0280934C
:102BD0001D0208958F929F92AF92BF92CF92DF9283
:102BE000EF92FF920F931F93CF93DF93CDB7DEB792
:102BF00028970FB6F894DEBF0FBECDBF9091200C82
:102C0000992309F487C0933319F424E0F22E02C00B
:102C100098E0F92E6B01082F80E591E00E94E30C0B
:102C20009E012F5F3F4F5901490110E0812F0E9403
:102C30003415F40181934F018823C9F01F5FF1120D
:102C4000F5CF10E0F50191915F019D3159F0983178
:102C500049F09A51923030F01F5FF112F3CF0E9489
:102C6000FD0C58C060E170E0812F0E94DB1CE12E5A
:102C7000F12CF701EE0FFF1FEF53F44F118210827A
:102C80008AEF90E00E94B041402F60E070E0812F19
:102C90000E9484144FEF62E070E0812F0E94841440
:102CA000C114D10411F0B60113C080911D0290919E
:102CB0001E0201968115F0EC9F0710F480E090EC65
:102CC00090931E0280931D0260911D0270911E025E
:102CD000812F0E94381561E070E0812F0E94DB1C7B
:102CE00027E02E9DC0012F9D900D11249C012352A1
:102CF000344F7901F90111821082812F0E94B7159A
:102D0000F701938382831682158214820E94FD0C40
:102D1000812F01C088E028960FB6F894DEBF0FBE61
:102D2000CDBFDF91CF911F910F91FF90EF90DF907A
:102D3000CF90BF90AF909F908F9008957F928F9289
:102D40009F92AF92BF92CF92DF92EF92FF920F933A
:102D50001F93CF93DF93CDB7DEB72E970FB6F894BE
:102D6000DEBF0FBECDBF9091200C992309F4ADC0FA
:102D7000933319F424E0722E02C098E0792E6A0190
:102D80007B01082F80E591E00E94E30C9E012F5FFC
:102D90003F4F5901490110E0812F0E943415F40181
:102DA00081934F018823C9F01F5F7112F5CF10E0A6
:102DB000F50191915F019D3159F0983149F09A5197
:102DC000923030F01F5F7112F3CF0E94FD0C7DC076
:102DD00060E170E0812F0E94DB1CA12EB12CF50177
:102DE000EE0FFF1FEF53F44F118210828AEF90E035
:102DF0000E94B041402F60E070E0812F0E94841457
:102E00004FEF62E070E0812F0E948414C114D1045E
:102E100011F0B60113C080911D0290911E0201961F
:102E20008115F0EC9F0710F480E090EC90931E0267
:102E300080931D0260911D0270911E02812F0E94DD
:102E4000381586E0E5E2F2E0DE01199601900D9278
:102E50008A95E1F7F70183818F778C8784818D874D
:102E600085818E87B7016E5F7F4F812F0E944E153F
:102E7000B601812F0E94551526E030E0AE01475F74
:102E80005F4F66E070E0812F0E94A21461E070E065
:102E9000812F0E94DB1C27E02A9DC0012B9D900DF5
:102EA00011249C012352344F7901F90111821082BF
:102EB000812F0E94B715F7019383828316821582B2
:102EC00014820E94FD0C812F01C088E02E960FB65F
:102ED000F894DEBF0FBECDBFDF91CF911F910F9150
:102EE000FF90EF90DF90CF90BF90AF909F908F902A
:102EF0007F900895CF93C82F80E591E00E94E30C66
:102F00008C2F0E943415C82F0E94FD0C8C2FCF915E
:102F10000895CF93C82F80E591E00E94E30C60E113
:102F200070E08C2F0E94DB1CCF910C94FD0CCF9392
:102F3000C82F80E591E00E94E30C8C2F0E9434158D
:102F4000833121F00E94FD0C80E008C062E070E057
:102F50008C2F0E94DB1C0E94FD0C81E0CF91089514
:102F6000EF92FF920F931F93CF93C82F7B018A019B
:102F700080E591E00E94E30CB7018C2F0E944E1572
:102F8000B8018C2F0E94551564E070E08C2F0E94D0
:102F9000DB1CCF911F910F91FF90EF900C94FD0CD3
:102FA000CF93C82F80E591E00E94E30C68E070E0C9
:102FB0008C2F0E94DB1CCF910C94FD0C4F925F92E2
:102FC0007F928F929F92AF92BF92CF92DF92EF92B9
:102FD000FF920F931F93CF93DF931F921F92CDB752
:102FE000DEB7782E6B017A01882E912C47E0849F02
:102FF000F0011124E352F44F0081118180E591E04A
:103000000E94E30C0E151F05BCF4872D0E949E152F
:103010008C01872D0E949E1580179107C9F787E0C4
:10302000889DF001899DF00D1124E352F44F8681B3
:10303000081B1109118300830115110599F4872DCF
:103040000E943415843109F47FC0882309F47CC0C0
:1030500001E010E08C3111F400E010E011950195D1
:10306000110972C0E016F1060CF4870187E0889D13
:10307000F001899DF00D1124E352F44FE280F380BA
:10308000C114D10451F1270157E05522872D0E9428
:10309000D015840D951D2091200C273311F4A80123
:1030A00019C09201200F311F21303840C0F320E0B9
:1030B00038E05901A418B508A501B6010E94451BC6
:1030C000CA0CDB1CC8018A199B095C01872D0E9470
:1030D000D015A501B6010E94451BE00EF11E87E048
:1030E000889DF001899DF00D1124E352F44FF38285
:1030F000E28280819181801B910B91838083268164
:10310000A801420F511D4A3F510510F4892BD9F4F3
:1031100087E0889DF001899DF00D1124E352F44F62
:103120001682F982EA8222E030E0AE014F5F5F4F03
:1031300068E270E0872D0E94A21460E470E0872DA1
:103140000E94DB1C01C046830E94FD0CC8010F9049
:103150000F90DF91CF911F910F91FF90EF90DF9033
:10316000CF90BF90AF909F908F907F905F904F9047
:103170000895EF92FF921F93CF93DF93E82EF12CE7
:1031800097E0899FF0011124E352F44F20813181AF
:1031900021153105F9F4182F80E591E00E94E30C28
:1031A0008E2D0E949E15EC01812F0E949E158C177A
:1031B0009D07C9F70E94FD0C87E08E9DF0018F9D51
:1031C000F00D1124E352F44F86819E01281B310932
:1031D00031832083C901DF91CF911F91FF90EF9040
:1031E00008951F93CF93DF931F92CDB7DEB7182FAB
:1031F00080E591E00E94E30C812F0E94D01527E02A
:10320000129FF0011124E352F44F22813381377071
:1032100041E050E0BE016F5F7F4F820F931F0E941D
:10322000451B0E94FD0C89810F90DF91CF911F916A
:103230000895CF92DF92EF92FF920F931F93CF9357
:10324000DF93182F7B01EA014130584010F0C0E0B5
:10325000D8E080E591E00E94E30C812F0E94841564
:103260006C01812F0E943415082F0E94FD0C07313C
:1032700011F00C3131F40E94E440CC16DD0648F325
:1032800002C0C0E0D0E080E591E00E94E30C9E0126
:10329000A70160E070E0812F0E94B41460E270E04A
:1032A000812F0E94DB1C62E070E0812F0E94661477
:1032B00084FD13C0812F0E943415811105C00E9426
:1032C000FD0C80E090E012C00E94FD0C0E94E440E2
:1032D00080E591E00E94E30CE6CF40E162E070E01F
:1032E000812F0E9484140E94FD0CCE01DF91CF91AA
:1032F0001F910F91FF90EF90DF90CF9008951F9353
:10330000CF93DF93182F80E591E00E94E30C812F8B
:103310000E948415D82FC92F812F0E943415182F91
:103320000E94FD0C173129F01C3119F080E090E06B
:1033300002C08D2F9C2FDF91CF911F910895AF92E6
:10334000BF92CF92DF92EF92FF921F93CF93DF93C2
:10335000182F6B015A01790180E591E00E94E30C7E
:10336000812F0E948415EC01E816F90608F4E701A4
:103370009E01A501B601812F0E94B4140E94FD0C8C
:10338000CE01DF91CF911F91FF90EF90DF90CF9012
:10339000BF90AF900895EF92FF921F93CF93DF936A
:1033A000FB019081911109C09181911106C0928118
:1033B000911103C093819923B1F04115510599F002
:1033C0007A01EF01182F80E591E00E94E30CBE0125
:1033D000812F0E944E15B701812F0E9455150E9422
:1033E000FD0C81E001C080E0DF91CF911F91FF9043
:1033F000EF900895CF93C82F80E591E00E94E30CF1
:1034000060E270E08C2F0E94DB1C62E070E08C2F89
:103410000E94661484FD1AC062E070E08C2F0E9446
:10342000661483FF0AC048E162E070E08C2F0E94BE
:1034300084140E94FD0C80E012C00E94FD0C0E94CA
:10344000E44080E591E00E94E30CDFCF40E162E0E0
:1034500070E08C2F0E9484140E94FD0C81E0CF91BB
:1034600008950F9300E020E040E060E085E19CE0FB
:103470000E94AE3C0F910895FC0120812EBD9B015E
:103480002150310941F051810DB407FEFDCF4EB5F9
:103490005EBD4193F5CF61507109FC01E60FF71F46
:1034A0000DB407FEFDCF8EB5808308958EBD00005C
:1034B0000DB407FEFDCF8EB50895E0911D0CF0917F
:1034C0001E0C908180911C0C809589238083089527
:1034D000E0911D0CF0911E0C908180911C0C892BA9
:1034E00080830895AF92BF92CF92DF92EF92FF92C6
:1034F0000F931F93CF93DF93CDB7DEB728970FB607
:10350000F894DEBF0FBECDBF8C017B016A018091B4
:10351000200C8333E1F45801A40EB51E0A151B05D7
:1035200009F48BC00E945D1A80EF0E94561A812F09
:103530000E94561A802F0E94561A0F5F1F4FF701E4
:1035400081917F010E94561A0E94681AE7CF843346
:1035500021F50E945D1A19830A838D2D80688B8363
:10356000CC8264E070E0CE0101960E943C1A870193
:103570000C0D1D1DE016F10669F0F70181917F0128
:103580000E94561AF7CFB6016D5F7F4FCE010196AC
:103590000E943C1A0E94681A50C00E945D1A0F3F98
:1035A000110509F020F419820A8384E01CC017FD7C
:1035B0000BC019820A8333E0169507953A95E1F717
:1035C000007E0C600B8310C0C80126E0969587959D
:1035D0002A95E1F719830A83807E0115104C10F4B7
:1035E000846101C08C618B8326E0C216D10498F4FB
:1035F00020E0822F90E08C159D0528F6E4E0F0E0B5
:10360000EC0FFD1FE80FF91FD701A80FB91F8C9110
:1036100080832F5FEECF63E070E0CE0101960E94C1
:103620003C1A87010C0D1D1DF70181917F010E943D
:10363000561AE016F106C1F7ADCFC60128960FB6AF
:10364000F894DEBF0FBECDBFDF91CF911F910F91D8
:10365000FF90EF90DF90CF90BF90AF900895CF9301
:10366000DF931F92CDB7DEB7698341E050E0BE0122
:103670006F5F7F4F0E94721A0F90DF91CF91089574
:10368000682F80E090E00C942F1BAF92BF92CF92F6
:10369000DF92EF92FF920F931F93CF93DF9300D0AF
:1036A0001F92CDB7DEB78C016B017A018091200C9F
:1036B0008333F1F45B016801C40ED51E0C151D05A2
:1036C00009F460C00E945D1A8FE00E94561A812F93
:1036D0000E94561A802F0E94561A0F5F1F4F80E0DB
:1036E0000E94561AF50181935F010E94681AE6CF85
:1036F0008433F1F40E945D1A19830A838F2D8F772A
:103700008B83EC8264E070E0CE0101960E943C1A4B
:10371000A70160E070E0C6010E947B46E114F1045D
:1037200021F0B701C6010E943C1A0E94681A2AC003
:103730000E945D1A0F3F110509F020F419820A83D7
:103740001B821DC017FD0BC019820A8333E016953A
:1037500007953A95E1F7007E08600B8310C0C80119
:1037600026E0969587952A95E1F719830A83807E4E
:103770000115104C10F4806101C088618B8363E0F7
:1037800070E0C2CFC7010F900F900F900F90DF91A4
:10379000CF911F910F91FF90EF90DF90CF90BF904E
:1037A000AF900895CF93DF931F92CDB7DEB741E07E
:1037B00050E0BE016F5F7F4F0E94451B89810F90D3
:1037C000DF91CF91089580E090E00C94D21BCF93CD
:1037D000DF9380E80E94401BC4E1D0E00E94E31B1D
:1037E000882351F061E070E080E090E00E94744135
:1037F0002197A1F780E001C081E0DF91CF9108958A
:1038000083E38093200C0E94E71B8823A9F080E1CA
:103810000E94401B0E94E31B803171F482E10E94F0
:10382000401B0E94E31B823139F480E00E94401B60
:103830000E94E31B91E0811190E0892F089584E3B9
:103840008093200C0E94E71B8823E1F088E00E940F
:10385000401B0E94E31B8830A9F480E10E94401BBA
:103860000E94E31B803171F480E00E94401B0E94A3
:10387000E31B811107C08FE190E00E94D21B91E011
:10388000833009F090E0892F089587E38093200C1E
:103890000E94E71B8823E1F088E00E94401B0E9401
:1038A000E31B8830A9F480E10E94401B0E94E31BC7
:1038B000803171F480E00E94401B0E94E31B811163
:1038C00007C089E390E00E94D21B91E0843009F0A8
:1038D00090E0892F0895CF9380911B0C811167C0D0
:1038E00060E372E080E090E00E9474410E94D62480
:1038F00080911F02282F30E0F901E05DFC4FE49138
:10390000F0E0EE0FFF1FE057FC4F459154915093AC
:103910001E0C40931D0CF901E651FD4FE491E0931C
:103920001C0C61E00E9498420E94681A80E591E0B8
:103930000E94E30C0E941F1C8823A1F080E4809366
:103940001F0CC0E042E06EE170E08C2F0E948414F6
:1039500042E06FE170E08C2F0E948414CF5FC8308A
:1039600089F720C00E94451C882321F080E18093C4
:103970001F0C18C00E94001CC82F882371F084E01F
:1039800080931F0C65E58BE190E00E942F1B65E59D
:103990008AE190E00E942F1B05C01092200C0E942B
:1039A000FD0C06C00E94FD0C81E080931B0CC1E061
:1039B0008C2FCF910895CF93DF93C82F462F61E0CE
:1039C00070E00E948414D0E0DC2FCC2780911F0C83
:1039D00090E0982F882701968C0F9D1F0E94D21B84
:1039E0008111F4CFDF91CF9108950F9300E020E093
:1039F00040E060E081E29CE00E94AE3C0F910895BF
:103A00000E9624E1FC0111922A95E9F70895CF93CF
:103A1000DF93EC01625F7F4F0E94C43CCE01DF91D7
:103A2000CF910895CF93DF93EC016E5E7F4F0E949C
:103A3000C43CCE01DF91CF910895CF93DF93EC0189
:103A40006A5E7F4F0E94C43CCE01DF91CF91089502
:103A5000CF93DF93EC01625E7F4F0E94C43CCE01A6
:103A6000DF91CF91089580E3FB0180833296842F0C
:103A700082958F7090E1899F401911244A3014F487
:103A8000405D01C0495C4293482F8111F0CF0895F9
:103A90000F9300E020E040E060E087E29CE00E94BD
:103AA000AE3C0F9108957F928F929F92AF92BF92FA
:103AB000CF92DF92EF92FF920F931F93CF93DF93FA
:103AC000CDB7DEB7AC970FB6F894DEBF0FBECDBF53
:103AD0007C01762E942E852E20E2B22ECE01019608
:103AE0006C01FC012B2D11922A95E9F70FEF2FEFB6
:103AF0004FEF6FEF86960E94AE3C86E496E09AA365
:103B000089A389A59AA5ABA5BCA58BA39CA3ADA3AE
:103B1000BEA387010D5B1F4F43E450E0BE016F5D04
:103B20007F4FC8010E944313019609F4BFC081E092
:103B300089838A8386E0A82EAB821C82F701648188
:103B40007581868197810E9475436D837E838F8303
:103B5000988789869A8680E890E09C878B874CE1DD
:103B600050E0B601C8010E945313F6012B2D1192AB
:103B70002A95E9F7470188E0880E911CF401D601E7
:103B800001900D92AA94E1F740E150E0B601C8011E
:103B90000E945313F6011192BA94E9F796E0A92E08
:103BA000B12C40E250E0B601C8010E945313F1E08D
:103BB000AF1AB108B1F783E6898392E89A8393E557
:103BC0009B838C8385E38D8381E08E837F829DE35D
:103BD000988797E099878A8786E0F401DE011B9633
:103BE00001900D928A95E1F78CE0898B8A8B6BE0CE
:103BF00076E0CE0143960E949646F7014385BE01CA
:103C0000675E7F4FC7010E94331DF7014485BE01E7
:103C1000655E7F4FC7010E94331DF7014585BE01D8
:103C2000635E7F4FC7010E94331D4EE150E0B60135
:103C3000C8010E945313F3E07F121EC082E3898300
:103C400084E08A83F70196859B8397859C8390897E
:103C50009D8391899E8396E39F838887828D898740
:103C6000838D8A87848D8B87858D8C874CE050E08F
:103C7000B601C8010E94531387E3898386E08A83D3
:103C800091E09B8393E09C838D838FE08E838AE316
:103C90008F838BE388878FEF898749E050E0B601F7
:103CA000C8010E945313C8010E944D13AC960FB671
:103CB000F894DEBF0FBECDBFDF91CF911F910F9162
:103CC000FF90EF90DF90CF90BF90AF909F908F903C
:103CD0007F9008952F923F924F925F926F927F92C2
:103CE0008F929F92AF92BF92DF92EF92FF920F93CB
:103CF0001F93CF93DF93CDB7DEB7C054D1090FB672
:103D0000F894DEBF0FBECDBF7C014A015B011901F3
:103D10000E9443412B013C0187010D5B1F4FC801ED
:103D20000E94011418161906A4F00E944341DC01F8
:103D3000CB0184199509A609B70988169906AA0620
:103D4000BB06F0F062E370E080E090E00E94744116
:103D5000E6CF42E250E0BE016F5F7F4FC8010E9494
:103D600090138981823031F4F801848995898334F4
:103D7000910541F0D12CC8010E9498128D2D43C1AC
:103D80008FEF41C16D817E818F8198850E9475433F
:103D90002B013C01F101608371838283938346E0B0
:103DA00050E0B701685F7F4FCE014D960E94654697
:103DB000892B99F4F70180819181A281B381481602
:103DC00059066A067B0648F084819581A681B781F1
:103DD00084159505A605B70528F4C8010E94981218
:103DE00080E011C189899A89AB89BC89F7018687EE
:103DF0009787A08BB18B4EEC50E060E070E0C8017B
:103E00000E949013D12CC70182969EAB8DABF70117
:103E1000B696F8AFEFAB08969AAF89AF47019AE133
:103E2000890E911CBD96FCAFEBAFC70142969EAFC9
:103E30008DAFFD972196FFAFEEAF21971701FEE101
:103E40002F0E311CC8010E947E12181619060CF0A4
:103E500092CFC8010E9467138333910509F4B3C060
:103E6000ACF48130910569F11CF4892B59F3C5C07C
:103E70008330910571F1069709F0BFC0C8010E9417
:103E800067135C0144E050E0B1012DC08A33910515
:103E900009F46DC034F48533910559F0C69781F16A
:103EA000ACC08B33910509F478C08F3F910551F276
:103EB000A4C0C8010E946713C8010E946713D82ECE
:103EC000C1CFC8010E94671344E050E06DAD7EADE4
:103ED00013C0C8010E9467135C0144E050E02196C2
:103EE0006EAD7FAD2197C8010E949013A5015527A3
:103EF0004450510960E070E0C8010E949013A2CFC5
:103F0000C8010E9467135C0140E050E0BA01CE0195
:103F100089960E94BA3CB401CE018F960E94C43C9F
:103F20004BA55CA56DA57EA589A99AA9ABA9BCA93D
:103F3000481759076A077B07A1F0EBADFCAD40803D
:103F4000518062807380B401CE0183960E94C43C8C
:103F50008DA19EA1AFA1B8A584159505A605B705AD
:103F600021F444E050E0B401C7CFA5014AC0C80124
:103F70000E94671344E050E06FA978ADC8010E9429
:103F80009013F70166A177A180A591A50E947543C2
:103F900066A377A380A791A755CFC8010E94671396
:103FA00044E050E069AD7AADC8010E949013F7017A
:103FB00062A573A584A595A50E94754362A773A702
:103FC00084A795A73FCFC8010E94671344E050E043
:103FD0006DA97EA9C8010E949013F70162A173A187
:103FE00084A195A10E94754362A373A384A395A3A2
:103FF00066A777A780AB91AB25CFC8010E94671356
:10400000AC01552777CFC05CDF4F0FB6F894DEBF09
:104010000FBECDBFDF91CF911F910F91FF90EF9019
:10402000DF90BF90AF909F908F907F906F905F9048
:104030004F903F902F9008952F923F924F925F9212
:104040006F927F928F929F92AF92BF92CF92DF92A8
:10405000EF92FF920F931F93CF93DF9300D000D086
:10406000CDB7DEB78C0120ED37E040E050E061E0F5
:1040700070E080E090E00E942F3ED80114966D938E
:104080007D938D939C931797F8016083718382834E
:1040900093835801F3E4AF0EB11CC5010E9499123D
:1040A00064E470E0C5010E94A712882309F436C1B8
:1040B0000E9443412B013C01812C912CC8018E5B55
:1040C0009F4F9E838D8348EEC42E43E0D42EE12C77
:1040D000F12C52E0252EAD81BE818C91833009F404
:1040E00004C1811120C0F80184819581A681B78126
:1040F0000196A11DB11D84839583A683B7830E9479
:1041000043416419750986099709A70196010E9420
:104110002C43A90161E0C8010E94531D81E0AD81DB
:10412000BE818C93CAC08430F9F4F80184819581F2
:10413000A681B7810196A11DB11D84839583A683B5
:10414000B7830E9443416419750986099709A7013D
:1041500096010E942C43A90163E0C8010E94531DEF
:10416000AD81BE812C92A9C0813059F5F80142ADD4
:1041700053AD64AD75AD9E012F5F3F4FC8010E94E6
:104180006A1E382EF2E08F1392C089819A81AB812A
:10419000BC81F80184839583A683B7830E94434141
:1041A0006419750986099709A70196010E942C4395
:1041B000A90163E0C8010E94531DAD81BE813C92FC
:1041C0007CC0823009F079C0F80142AD53AD64ADD6
:1041D00075AD9E012F5F3F4FC8010E946A1E382EA9
:1041E000F5E08F135DC0E3E0AD81BE81EC93F80193
:1041F00082A193A1A4A1B5A1892B8A2B8B2B41F479
:1042000084E893E0A0E0B0E082A393A3A4A3B5A3C5
:10421000F80186A197A1A0A5B1A5892B8A2B8B2B8C
:1042200061F482A193A1A4A1B5A1B695A795979594
:10423000879586A397A3A0A7B1A7F80182A593A508
:10424000A4A5B5A5892B8A2B8B2BA9F482A193A1B8
:10425000A4A1B5A1AC01BD0123E076956795579562
:1042600047952A95D1F7841B950BA60BB70B82A710
:1042700093A7A4A7B5A7F80186A197A1A0A5B1A56A
:1042800086A797A7A0ABB1AB82A593A5A4A5B5A51A
:1042900082AB93ABA4ABB5AB88248394912C0DC0B7
:1042A000F6E08F1304C0AD81BE811C9206C0BFEF43
:1042B0003B1203C0ED81FE811082F1E08F16910464
:1042C00009F409CF0E944341DC01CB01841995090F
:1042D000A609B709F80126A937A940AD51AD28179D
:1042E00039074A075B0708F0F6CEC5010E9499120C
:1042F000F80184819581A681B7810196A11DB11D28
:1043000084839583A683B7830E944341F801FE9678
:104310006083718382839383C40102C080E090E054
:1043200026960FB6F894DEBF0FBECDBFDF91CF91BA
:104330001F910F91FF90EF90DF90CF90BF90AF90C3
:104340009F908F907F906F905F904F903F902F90B5
:104350000895CF92DF92EF92FF920F931F93CF9326
:10436000DF93EC016B011AA21BA21CA21DA21EA2CC
:104370001FA218A619A61AA61BA61CA61DA62EAB20
:104380003FAB48AF59AFEAAEFBAE0CAF1DAF8C01EF
:10439000085F1F4F86E0F80111928A95E9F7CE0178
:1043A0000E94001D86E0F601D80101900D928A95C9
:1043B000E1F7FE01EE5BFF4F1082CE01DF91CF915E
:1043C0001F910F91FF90EF90DF90CF900C941C20E5
:1043D000FB014281538164817581FC0142835383D7
:1043E00064837583178216820895CF93FB0120E0C2
:1043F00080E090E0CAE03191332309F160ED630F72
:104400006A3080F4C89FB001C99F700D1124CB01A0
:10441000C097830F911D37FD9A958F3F910559F3F2
:1044200050F314C03E3291F4233081F0DA01A20F30
:10443000B11D12968C932F5F80E090E0DCCF23308B
:1044400029F4FA01858381E090E002C080E090E0E9
:10445000CF9108950F9300E020E040E060E08DE20E
:104460009CE00E94AE3C0F9108958F929F92AF9274
:10447000BF92CF92DF92EF92FF920F931F93CF9351
:10448000DF9300D0CDB7DEB76C017B010E944341C2
:10449000F601778366838601085F1F4FB6016A5F66
:1044A0007F4F42E050E0C8010E94531381E090E04A
:1044B0009A83898342E050E0BE016F5F7F4FC8015D
:1044C0000E94531380E091E09A83898342E050E098
:1044D000BE016F5F7F4FC8010E9453131A82198279
:1044E00042E050E0BE016F5F7F4FC8010E9453134E
:1044F00042E050E0BE016F5F7F4FC8010E9453133E
:1045000042E050E0BE016F5F7F4FC8010E9453132D
:104510005701F5018081882309F1A7015A01F501AE
:1045200081916F01882321F08E3211F0A601F6CF20
:104530004A018E189F081814190474F48B8241E004
:1045400050E0BE016D5F7F4FC8010E945313A4016C
:10455000B701C8010E9453137601DBCF1B8241E0F3
:1045600050E0BE016D5F7F4FC8010E945313E12CE4
:10457000FF24F394FA82E98242E050E0BE016F5FCB
:104580007F4FC8010E945313FA82E98242E050E053
:10459000BE016F5F7F4FC8010E94531381E090E01E
:1045A0000F900F900F90DF91CF911F910F91FF907F
:1045B000EF90DF90CF90BF90AF909F908F90089535
:1045C0002F923F924F925F926F927F928F929F9223
:1045D000AF92BF92CF92DF92EF92FF920F931F9311
:1045E000CF93DF93CDB7DEB763970FB6F894DEBFF6
:1045F0000FBECDBF7C016B011A010E9443414B01EC
:104600005C018701085F1F4F2601612C712CC801D6
:104610000E94011418161906A4F00E944341DC01FF
:10462000CB0188199909AA09BB09481659066A06D7
:104630007B06D0F062E370E080E090E00E9474417D
:10464000E6CFF7014281538164817581808D918D20
:10465000A28DB38D481759076A077B0749F4848DEB
:10466000958DC59729F409C0EE24EA94FE2CF1C07B
:104670009EEFE92EFF24FA94ECC0C8010E947E123E
:104680000C970CF4E2C04CE050E0BE016F5F7F4F2E
:10469000C8010E9490138B819C81982789279827B5
:1046A0009A8B898BF7014681578129813A8142177C
:1046B000530711F497FD08C0C8010E9498127CEFBF
:1046C000E72EFF24FA94C5C08F709270892B41F0B9
:1046D000C8010E9498126BEFE62EFF24FA94B9C02D
:1046E000CF80D884DC24CD24DC24C114D10419F07B
:1046F000E12CF12C26C0C8010E9498125AEFE52E39
:10470000FF24FA94A6C041E050E0BE01635F7F4FF2
:10471000C8010E9490134D85442331F050E060E0C1
:1047200070E0C8010E9490138D858111ECCF44E0A8
:1047300050E060E070E0C8010E949013FFEFEF1AB4
:10474000FF0A8D819E81982789279827E816F90608
:10475000D0F2A12CB12C41E050E0BE016D5E7F4F44
:10476000C8010E9490134B89842F807C49F4442314
:1047700079F050E060E070E0C8010E94901308C03A
:1047800041E050E060E070E0C8010E9490131B8A95
:104790008B898111E0CF42E050E0BE01615F7F4F25
:1047A000C8010E94901342E050E0BE01635F7F4F5A
:1047B000C8010E94901344E050E060E070E0C8013E
:1047C0000E94901342E050E0BE016F5E7F4FC8012F
:1047D0000E9490138F85988949895A898115914043
:1047E000E9F4ED84FE84FE24EF24FE2481E0E81643
:1047F000F104A1F44115544041F0C8010E949812FF
:1048000047EFE42EFF24FA9424C0B1016E5F7F4F7E
:1048100044E050E0C8010E9490131BC05427452774
:10482000542760E070E0C8010E949013FFEFAF1AB8
:10483000BF0ACA14DB0409F08ECFC8010E94981287
:1048400036EFE32EFF24FA9404C08DEFE82EFF2408
:10485000FA94C70163960FB6F894DEBF0FBECDBFC2
:10486000DF91CF911F910F91FF90EF90DF90CF904C
:10487000BF90AF909F908F907F906F905F904F9080
:104880003F902F9008956F927F928F929F92AF9258
:10489000BF92CF92DF92EF92FF920F931F93CF932D
:1048A000DF9300D000D0CDB7DEB77C014B015A01B9
:1048B00039010E94F5218C01892B09F05CC0F701B8
:1048C000428153816481758180912F0C9091300CCD
:1048D000A091310CB091320C481759076A077B0739
:1048E00009F44CC00E9443416701F8E0CF0ED11C8F
:1048F0006F7077277C5FC6010E94A712813009F094
:104900003FC086E496E09A838983F7018281938190
:10491000A481B5818B839C83AD83BE8345E350E046
:10492000BE016F5F7F4FC6010E944313892B19F4AC
:1049300000E010E01CC0B401C7010E943522892BA1
:10494000B9F3C6010E944D13892B91F383E0882EA1
:10495000912CA501B301C7010E94E0228C0121E046
:10496000821A910821F00F3FFFEF1F0791F3C60154
:104970000E94991205C001E010E002C00EEF1FEF87
:10498000C80126960FB6F894DEBF0FBECDBFDF91EB
:10499000CF911F910F91FF90EF90DF90CF90BF903C
:1049A000AF909F908F907F906F900895CF93CFB7E7
:1049B000F8948091360C811127C0E5E6F3E08491EC
:1049C000EFE1F3E09491E82FF0E0EE0FFF1FE655E2
:1049D000FC4FA591B491EC91E92321F461E085E3CA
:1049E0000E94D44261E085E30E9498428CB58061C8
:1049F0008CBD8CB580648CBD61E084E30E949842DC
:104A000061E083E30E9498428091360C8F5F80932F
:104A1000360CCFBFCF910895CF93DF93C3E1D2E09F
:104A20008091370C9091380C6991DC01ED91FC91EB
:104A30000190F081E02D1995B2E0CD31DB0781F7CF
:104A4000DF91CF910895FC013196079620E030E088
:104A50004191240F311DE817F907D1F788279927CD
:104A6000821B930B089583E192E00E942325E3E1EA
:104A7000F2E0978380870895E7E3FBE011928BE0F3
:104A8000E134F807D9F70895CF93DF930E943C25CE
:104A9000C7E3DBE08091370C9091380CDC01ED919D
:104AA000FC910284F385E02D19958F3FBFEF9B07A2
:104AB00039F089932BE0C134D20761F781E001C05E
:104AC00080E0DF91CF9108959093380C8093370C5C
:104AD0008CE095E290933C0C80933B0C84E495E24F
:104AE00090933A0C8093390C0895CF92DF92EF9215
:104AF000FF921F93CF93DF93182FD62FC42F0E94BE
:104B0000434120913D0C30913E0C621B730B77FFAB
:104B100003C07195619571096233710594F4CB01FD
:104B2000770FAA0BBB0B42E350E060E070E06A0134
:104B30007B01C81AD90AEA0AFB0AC701B6010E941A
:104B4000744110931602D0931802C09319020E9468
:104B50003325E0913B0CF0913C0C19950E944341A8
:104B600060933D0C70933E0C80933F0C9093400CEF
:104B7000DF91CF911F91FF90EF90DF90CF9008953C
:104B8000AB0160E070E00C947525BC0186E00C94EC
:104B9000C025BC0182E10C94C025CF93DF931F9206
:104BA000CDB7DEB76983DC01ED91FC910280F38122
:104BB000E02D41E050E0BE016F5F7F4F19950F90EF
:104BC000DF91CF910895CF93DF93EC01898D9A8D7A
:104BD000009739F481E090E09B838A8380E090E045
:104BE0000BC0FC01138212820E94D232E98DFA8D31
:104BF00022813381232B71F7DF91CF910895FC013E
:104C0000818D928D009711F00C9434300895CF93DC
:104C1000DF931F92CDB7DEB741E050E0BE016F5F7A
:104C20007F4F0E944F2E019719F4898190E002C0B6
:104C30008FEF9FEF0F90DF91CF910895FC01818D51
:104C4000928D009711F00C9407268FEF9FEF089537
:104C50000F931F93CF93DF93FC01818D928D00976B
:104C6000B9F0EF010E9407268C010F3F8FEF180764
:104C700091F0898D9A8DFC014285538564857585F7
:104C800041505109610971090E949D2FC80105C059
:104C900080E090E002C08FEF9FEFDF91CF911F91F6
:104CA0000F910895EF92FF920F931F93CF93DF938D
:104CB000EC017B018A011B821A8288EE93E0A0E05E
:104CC000B0E08C839D83AE83BF8386E196E09983B9
:104CD00088838DE190E00E9496439A8F898F009798
:104CE00079F02DE1F701DC0101900D922A95E1F7B1
:104CF0004CE050E0B801CE010C960E949D46188E03
:104D0000DF91CF911F910F91FF90EF900895FC01DB
:104D10001382128288EE93E0A0E0B0E08483958352
:104D2000A683B78386E196E091838083128E118EED
:104D300014860895FC01818D928D009729F00E94C0
:104D40009D2F91E0811101C090E0892F0895DC0131
:104D50005996ED91FC915A97309729F062857385A9
:104D60008485958508956FEF7FEFCB010895DC0171
:104D70005996ED91FC915A97309729F0638974897F
:104D800085899689089560E070E0CB010895CF92FF
:104D9000DF92EF92FF92CF93DF93FC01218D328D52
:104DA000232BD9F0EC010E94B7266B017C01CE01C8
:104DB0000E94A726A7019601261B370B480B590B0B
:104DC000DA01C901811530E89307A105B10538F072
:104DD0008FEF9FE7A0E0B0E002C080E090E0DF91BD
:104DE000CF91FF90EF90DF90CF900895CF93DF9316
:104DF000EC01898D9A8D009741F00E947B30898D5E
:104E00009A8D0E942E441A8E198EDF91CF910895AB
:104E1000DC015996ED91FC915A97309721F081E091
:104E20009581911101C080E00895442339F00E94DA
:104E3000AB3291E0811103C090E001C091E0892F75
:104E400008950F931F93CF93DF93EC018B0141E003
:104E50000E941638811109C040E0B801CE01DF91EF
:104E6000CF911F910F910C94163881E0DF91CF9173
:104E70001F910F910895EF92FF920F931F93CF937D
:104E8000DF93DA01EB0128813981FC01E20FF31F86
:104E900040814F3211F42F5F3F4F8C01020F131FDF
:104EA0007D01E0E0F0E0E80159918E015F3259F0B8
:104EB000552349F031962F5F3F4FE70159937E010B
:104EC000EC30F10581F7EA0FFB1F1082FC01E20FC5
:104ED000F31F40814F3211F42F5F3F4FFB013183AD
:104EE0002083FC01E20FF31F81E09081911101C04A
:104EF00080E0DF91CF911F910F91FF90EF90089587
:104F00004F925F926F927F928F929F92AF92BF92D9
:104F1000CF92DF92EF92FF920F931F93CF93DF9385
:104F2000CDB7DEB7C954D1090FB6F894DEBF0FBEB6
:104F3000CDBF5C016B013A01490119A218A288E2B8
:104F400096E09F8F8E8F1BA21C821B829A8389837F
:104F50001E822A961FAE1EAE2A978B017E018EE11D
:104F6000E80EF11C44244394AE01455C5F4FBE0142
:104F7000685B7F4FC5010E943B27582E482F442570
:104F80009401BE01655C7F4FC801F3011995811141
:104F900008C00C151D0519F0C8010E947B3080E087
:104FA00027C05520B9F021E0AE01455C5F4FB80144
:104FB000C7010E94A331582E0C151D0599F0C80198
:104FC0000E947B30552059F3902F812F8701E92EC5
:104FD000F82ECACF0C151D0519F0C8010E947B30B0
:104FE00081E006C08823D9F28E010F5F1F4FECCFFE
:104FF000C75BDF4F0FB6F894DEBF0FBECDBFDF91AA
:10500000CF911F910F91FF90EF90DF90CF90BF90C5
:10501000AF909F908F907F906F905F904F9008958A
:105020000F931F93CF93DF93EC01162F8FA5882347
:1050300021F0CE018A960E947B30412F61E0CE01A3
:105040000E94062B882389F08E01045F1F4FBE014A
:10505000C8010E942127882341F0B801CE018A9619
:105060000E94FE2D91E0811101C090E0892FDF9117
:10507000CF911F910F910895FC01DB0112968D9144
:105080009C9113979383828388E296E09183808337
:1050900014968C911497848315968C91159785831B
:1050A00016964D915D916D917C911997468357832A
:1050B000608771871A964D915D916D917C911D97D6
:1050C00042875387648775871E964D915D916D91D8
:1050D0007C91519746875787608B718B52968C9144
:1050E0005297828B53964D915D916D917C9156971D
:1050F000438B548B658B768B57964D915D916D915B
:105100007C915A97478B508F618F728F5B968D91F0
:105110009C915C97948F838F08954F925F926F92CA
:105120007F928F929F92AF92BF92CF92DF92EF9237
:10513000FF920F931F93CF93DF93CDB7DEB7C75482
:10514000D1090FB6F894DEBF0FBECDBF5C014A0196
:10515000390119A218A288E296E09F8F8E8F1BA2B8
:105160001C821B829A8389831E82645F7F4F6E013B
:105170008EE1C80ED11CC6010E94FE2D74018E0165
:105180000F5F1F4F5C2C4D2C6FE270E0C7010E9437
:105190008246009709F443C0F70120812F3271F451
:1051A000FFEFEF1AFF0A902F812F052D142D2C01F0
:1051B000C201502E412E092F182FE6CF8E198D30A7
:1051C00008F08CE0C82ED12CA601B701CE01CB96F9
:1051D0000E949D46EBE3F0E0EC0FFD1FEC0DFD1D82
:1051E0001082C8010E947B3021E0AE01455C5F4F18
:1051F000652D742DC8010E94A331811109C0F501EC
:105200001382128288E296E091838083158211C016
:10521000EC0CFD1C852D942D0E947B30C9CFE81825
:10522000F908F301F182E082652D742DC5010E9419
:105230003C28C501C95BDF4F0FB6F894DEBF0FBE37
:10524000CDBFDF91CF911F910F91FF90EF90DF9035
:10525000CF90BF90AF909F908F907F906F905F9016
:105260004F900895DF92EF92FF920F931F93CF9389
:10527000DF93CDB7DEB7C955D1090FB6F894DEBFBD
:105280000FBECDBF7C018A01D22E9E01285A3F4F0E
:10529000CE01CB960E948D286A968EAD9FAD6A97FF
:1052A000080F191FF801808181110AC0BE01655CD9
:1052B0007F4FCE0101960E943C284FE353E033C05C
:1052C00019A218A288E296E09F8F8E8F1BA22196CA
:1052D0008FAD2197811104C0C7010E94872629C084
:1052E0002D2DA801BE01655C7F4FCE014E960E9418
:1052F000A331882389F3CE01CB960E947B308D2D7C
:105300008670863041F449A95AA96BA97CA9CE01BF
:105310004E960E949D2FBE01625E7F4FCE01019688
:105320000E943C28A801BE016F5F7F4FC7010E9409
:105330005226C701C75ADF4F0FB6F894DEBF0FBE23
:10534000CDBFDF91CF911F910F91FF90EF90DF9034
:105350000895FB01BC01665D7F4F20E030E045E130
:1053600057E2CF010C948027E1E4FCE0158216821D
:105370001186138682E090E0A0E0B0E084879587F4
:10538000A687B78713A215A614A688E296E093A76E
:1053900082A717A608959FB7F8942091350C8091A5
:1053A000330C213019F48DBB9FBF08958FBF089532
:1053B0000F93FC0180E092E1AAE7B0E030E04817EB
:1053C00059076A077B0740F4B695A7959795879587
:1053D0003F5F3630A1F737E091E09327222311F0A9
:1053E00020E501C020E70C70892F8695082B022B41
:1053F0000083917091830F9108958FEF0C94561A4A
:1054000061E0FC0184810E94D44280918A0C88234F
:1054100039F010928A0C8091350C81110C94CB29B3
:105420000895CF93DF93EC0180918A0C811109C01C
:1054300081E080938A0C80918B0C90918C0C0E945F
:10544000E30C60E08C81DF91CF910C94D442CF9338
:10545000DF93EC018E81882389F08F8198859C01F0
:105460002F5F3F4F38872F838230924018F40E947D
:10547000FD29F3CFCE010E94002A1E82DF91CF9139
:1054800008950F93CF93DF931F921F92CDB7DEB78E
:10549000673028F026E1FC01258380E047C06230B8
:1054A000F9F058F46623A9F0613079F500E021E0C5
:1054B00040E059E06DE370E02EC06430F9F0B8F0E0
:1054C000653019F500E021E040E950ED63E070E05F
:1054D00022C000E021E040E458E76DE771E01BC026
:1054E00000E021E040E854E86EE170E014C000E024
:1054F00021E040E452E46FE070E00DC000E021E004
:1055000040E251EA67E070E006C000E021E048E4D4
:1055100058EE61E070E0CE0101960E94D8298981A1
:105520009A8190938C0C80938B0C81E00F900F905C
:10553000DF91CF910F9108950F931F93CF93DF9336
:10554000EB010E9443418B010E94FD298F3F49F0EE
:105550000E944341601B710B6C177D07A8F380E02C
:1055600001C081E0DF91CF911F910F9108958F923B
:105570009F92AF92BF92FF920F931F93CF93DF93AF
:10558000EC01F62E49015A010E94272ACE010E9401
:10559000112A6CE271E0CE010E949C2A8F2D80645A
:1055A0000E94561A08E110E0D501C401002E04C083
:1055B000B695A795979587950A94D2F70E94561AA3
:1055C00008501109083F8FEF180771F7FF2029F0E5
:1055D00088E0F81204C087E803C085E901C08FEFB6
:1055E0000E94561A10E00E94FD298A8787FF04C096
:1055F0001F3F11F01F5FF7CFDF91CF911F910F91E8
:10560000FF90BF90AF909F908F9008957F928F9260
:105610009F92AF92BF92CF92DF92EF92FF920F9341
:105620001F93CF93DF931F921F92CDB7DEB77C01FC
:10563000762EFC01138611861682158244830E9401
:1056400043416B0161E0F70184810E94984261E06F
:10565000F70184810E94D4420E94D62400E021E018
:1056600040E950ED63E070E0CE0101960E94D82938
:1056700089819A8190938C0C80938B0C0E94E30C0F
:105680001AE08FEF0E94561A1150D9F78091350C0D
:1056900081110E94CB29C7010E94112A20E030E02D
:1056A000A90160E0C7010E94B72A082FF70182878D
:1056B000813049F00E9443416C197D09613D77407A
:1056C00068F381E050C02AEA31E040E050E068E051
:1056D000C7010E94B72A82FF03C0F70103870EC0EB
:1056E00004E00E94FD29F70182870150D1F78A3A30
:1056F00011F082E039C082E0F7018387F7018385EA
:10570000823021F0812C912C540105C0812C912CE8
:10571000A12C80E4B82E20E030E0A90167E3C701A6
:105720000E94B72AA501940169E2C7010E94B72A25
:10573000F7018287882349F00E9443416C197D0953
:10574000613D774040F388E00EC0F70183858230E9
:10575000F1F420E030E0A9016AE3C7010E94B72A12
:10576000882339F086E0F7018583C7010E94002A6B
:1057700016C00E94FD29807C803C19F483E0F7016B
:1057800083870E94FD290E94FD290E94FD29C701EF
:105790000E94002A672DC7010E94412A182F812FDD
:1057A0000F900F90DF91CF911F910F91FF90EF908D
:1057B000DF90CF90BF90AF909F908F907F90089593
:1057C0000F931F93CF93DF93EC010E9443418B0112
:1057D0000E94FD298A878F3F49F40E944341601B44
:1057E000710B6D327140A0F38FE003C08E3F39F032
:1057F0008DE08D83CE010E94002A80E001C081E00F
:10580000DF91CF911F910F910895CF92DF92EF9288
:10581000FF920F931F93CF93DF93EC016901C801AF
:10582000820F931F8130924008F05CC08E818823E4
:1058300071F088819981AA81BB8184179507A60799
:10584000B70729F48F819885C816D90610F54883C3
:1058500059836A837B838B85833039F089E0440FD9
:10586000551F661F771F8A95D1F79A01AB0161E139
:10587000CE010E94B72A882319F083E08D8332C0BD
:10588000CE010E94E02B882369F118861F8281E0F7
:105890008E838F8198858C159D0540F40E94FD298B
:1058A0008F819885019698878F83F3CF6701E00EEB
:1058B000F11ECE14DF0431F00E94FD29F601819320
:1058C0006F01F7CF8F819885080F191F18870F83F5
:1058D0008985882319F00115124048F0CE010E94F5
:1058E000272A05C0CE010E94002A80E001C081E085
:1058F000DF91CF911F910F91FF90EF90DF90CF90AC
:105900000895EF92FF920F931F930115110519F05F
:105910000E94052C01C081E01F910F91FF90EF9034
:105920000895EF92FF920F931F93790100E012E028
:1059300020E030E00E94052C1F910F91FF90EF9026
:105940000895EF92FF920F931F93CF93DF938C01F3
:10595000862F7A010E94561AE7018EEFF81A899174
:105960000E94561ACE15DF05D1F78FEF0E94561A06
:105970008FEF0E94561A0E94FD29F80182878F71CD
:10598000853039F081E18583C8010E94002A80E0DA
:1059900001C081E0DF91CF911F910F91FF90EF90B7
:1059A00008950F931F93CF93DF93EC018901411565
:1059B00051056105710511F482E132C08B85833098
:1059C00039F089E0440F551F661F771F8A95D1F77C
:1059D0009A01AB0168E1CE010E94B72A882311F039
:1059E00084E01EC0A8016EEFCE010E94A12C882386
:1059F000C1F068E572E0CE010E949C2A811102C0CC
:105A000085E10EC020E030E0A9016DE0CE010E94EA
:105A1000B72A811104C00E94FD29882339F084E14E
:105A20008D83CE010E94002A80E004C0CE010E9436
:105A3000002A81E0DF91CF911F910F910895EBE84B
:105A4000FCE080E5808311820895CF93DF93EC0121
:105A50009C012A5F3F4F41E050E060E070E08B8D99
:105A60009C8D0E94AB368823A1F08F89988DA98DDB
:105A7000BA8D892B8A2B8B2B59F48E819F81A88517
:105A8000B9858F8B988FA98FBA8F8C8180688C8312
:105A900081E0DF91CF910895CF92DF92EF92FF9254
:105AA0001F93CF93DF93EC010E94252D811102C03B
:105AB00080E04AC0EB8DFC8DCE80DF80E884F984E5
:105AC00082E0C81AD108E108F108058404C0CC0CB2
:105AD000DD1CEE1CFF1C0A94D2F786859785A089F1
