:100000000C94DE010C940F020C940F020C940F025E
:100010000C940F020C940F020C940F020C940F021C
:100020000C940F020C940F020C940F020C940F020C
:100030000C940F020C940F020C940F020C940F02FC
:100040000C940F020C940F020C940F020C940F02EC
:100050000C940F020C940F020C940F020C94DB43CF
:100060000C940F020C94F93C0C942F3D0C940F024D
:100070000C940F020C940F020C940F020C940F02BC
:100080000C940F020C940F020C940F020C940F02AC
:100090000C940F020C940F020C940F020C940F029C
:1000A0000C940F020C940F020C940F020C940F028C
:1000B0000C940F020C940F020C940F020C940F027C
:1000C0000C940F020C940F020C940F020C94903DB0
:1000D0000C94C63D0C940F020C94273E0C945D3E8C
:1000E0000C940F023445374526452A4530456E4568
:1000F0003B453F45454549454D45534557455B457E
:100100006E456145654569450C94CF160C949C3B42
:100110000C945D140C944D3C0C948A290C943C294D
:100120000C94D3160C9434450C9468130C946145CC
:100130000C942B3C0C940B170C9412190C9437450F
:100140000C94B1170C94E7060C9465450C9433138A
:100150000C94AD160C9430130C942F130C94B9140A
:100160000C9430450C9424150C9449450C941915A5
:100170000C9469450C941E2C0C94AA3B0C94454598
:100180000C943B450C94F3270C94FA3D0C94742882
:100190000C94B8160C9458280C9403170C94D41390
:1001A0000C9442280C941E130C94873E0C94351327
:1001B0000C9493280C94D7160C94E9150C94EE1615
:1001C0000C9484170C94CD3B0C94F03D0C942317A5
:1001D0000C948F130C94BE3E0C94BF160C94313FBC
:1001E0000C94633D0C9486130C9404250C94593D97
:1001F0000C94903B0C94BE3B0C945B450C942645B0
:100200000C946E450C946B170C94A9130C94AD13BD
:100210000C944C170C94FD1F0C943A150C94B418C4
:100220000C944D450C94F5140C943F130C945745C5
:100230000C9409180C94ED160C945D130C940E0696
:100240000C949D280C9455130C94D6360C942A4586
:100250000C9453450C943F450C942C130C94D013E0
:100260000C943C3F0C94752F0C940F170C94913EFA
:100270007C3C3E5E2B3D3F2F5B5D3B2C2A225C008D
:1002800000000A0B02090C0D0E0807030401000010
:10029000000000000000000000000000000000005E
:1002A000000000000000000000000000121110001B
:1002B000000000000000000000000000000000003E
:1002C000000000000000010210202008081020405B
:1002D000102040800201020108040201010204080A
:1002E0001020408080402010080402018004020198
:1002F00080402010080402010804020101020408E1
:1003000010204080010204081020408005050505EA
:10031000070508080808020202020A0A080804047D
:1003200004040101010101010101030303030303AB
:100330000303040707070C0C0C0C0C0C0C0C02023A
:10034000020206060606060606060B0B0B0B0B0B37
:100350000B0B000020002300260029002C002F009A
:100360003200000100000301060109010000220023
:10037000250028002B002E0031003400020100006F
:10038000050108010B0100002100240027002A00BC
:100390002D003000330001010000040107010A01B3
:1003A0000E061E131915AD161219FD1F04251E2C5D
:1003B000752F633DFA3D913E313FE70611241FBE84
:1003C000CFEFD1E2DEBFCDBF00E00CBF16E0A0E072
:1003D000B2E0EAE2F4E900E00BBF02C007900D9240
:1003E000AE3EB107D9F721E1AEEEB6E001C01D92F5
:1003F000AE32B207E1F711E0CDEDD1E000E006C08A
:1004000021970109802FFE010E944546C03DD1077A
:1004100080E00807A9F70E94C8430C94034A0C9493
:10042000000061E08DE00E946F4561E08DE00E9478
:10043000AB456AEF70E080E090E00E94564460E0D7
:100440008DE00E94AB456AEF70E080E090E00E9492
:100450005644EBCFFB01608171810C94132CCF9239
:10046000DF92EF92FF920F931F93CF93DF9300D011
:1004700000D0CDB7DEB77C016B018FE297E00E9420
:100480007143F601048115810F5F1F4F080F191F7B
:100490006EE272E0CE0101960E944641A801BE01C3
:1004A0006F5F7F4F8FE297E00E94544390934E0717
:1004B00080934D07CE0101960E94D84000914D07D0
:1004C00010914E07B6018FE297E00E947143F6014A
:1004D000448155814F5F5F4F480F591F98016FE26C
:1004E00077E0C7010E947543C70126960FB6F894BE
:1004F000DEBF0FBECDBFDF91CF911F910F91FF9057
:10050000EF90DF90CF900895CF93DF93EC0166E8F2
:1005100075E00E94464160E372E0CE010E947B419B
:1005200061E477E0CE010E94454269E372E0CE01CA
:100530000E944C4267E477E0CE010E94454262E4AB
:1005400072E0CE010E944C42CE01DF91CF9108951E
:10055000CF93DF93EC0166E875E00E94464160E3CB
:1005600072E0CE010E947B4161E477E0CE010E94FF
:10057000454269E372E0CE010E944C4267E477E0B5
:10058000CE010E94454269E472E0CE010E944C42D5
:100590006BE377E0CE010E94454262E472E0CE0157
:1005A0000E944C42CE01DF91CF910895CF93DF930B
:1005B000EB012A813B81FC01338322834C815D81E5
:1005C0006E817F814483558366837783488559850F
:1005D0006A857B8540875187628773872DE0FE019E
:1005E0003C96DC011C9601900D922A95E1F7298D2D
:1005F0003A8DFC01328F218FDF91CF910895CF93F7
:10060000DF93CDB7DEB72C970FB6F894DEBF0FBEE1
:10061000CDBF66E572E0CE0107960E94464165E0D7
:1006200077E0CE0107960E9445426DE572E0CE016B
:1006300007960E944C4260910F07709110074AE0A4
:10064000CE0101960E94BE41BE016F5F7F4FCE0179
:1006500007960E944542CE0101960E94D84062E86A
:1006600075E0CE0107960E944C426BE077E0CE0128
:1006700007960E944542BE01695F7F4F81E197E086
:100680000E945B41CE0107960E94D8402C960FB67F
:10069000F894DEBF0FBECDBFDF91CF91089524E067
:1006A000660F771F2A95E1F734E0880F991F3A9576
:1006B000E1F720E030E0F901E60FF71FEA5DF74FC0
:1006C00040815181F901E80FF91FEA5DF74F51832D
:1006D00040832E5F3F4F2031310569F708950F9316
:1006E0001F93CF93DF93CDB7DEB768970FB6F8941B
:1006F000DEBF0FBECDBF62E875E0CE0107960E9457
:100700004641BE01695F7F4F8DE197E00E947143D2
:100710008C0160EC72E0CE010D960E944641BE0154
:10072000635F7F4F8DE197E00E947143682FA801BE
:100730008DE197E00E9438438C0162E875E0CE01BC
:1007400043960E944641BE016D5E7F4F8DE197E06A
:100750000E947143AC0198016DE177E0CE010196F2
:100760000E947543BE016F5F7F4F87E197E00E9453
:100770005B41CE0101960E94D840CE0143960E9473
:10078000D840CE010D960E94D840CE0107960E9417
:10079000D84068960FB6F894DEBF0FBECDBFDF918C
:1007A000CF911F910F910895FB019C01205F3F4F56
:1007B000DC016D917D91CD014191519164177507D7
:1007C00029F4A217B307A1F781E0089580E0089506
:1007D000EF92FF920F931F93CF93DF937C0106E27A
:1007E00018E0C0E0D0E0B701C8010E94D403811135
:1007F00009C02196005F1F4FCC33D105A1F78FEFC1
:100800009FEF01C0CE01DF91CF911F910F91FF901B
:10081000EF900895CF93DF930E94E80320910E029A
:10082000019649F4222381F062EC72E083E49FE0B8
:100830000E94B33F09C0222351F066EC72E083E4CA
:100840009FE00E94B33F03C0CFEFDFEF02C0C1E0E3
:10085000D0E080910E02882331F06CEC72E083E4EA
:100860009FE00E948A3FCE01DF91CF9108950F93C0
:100870001F93CF93DF9388E10E94DB45892BD1F151
:100880008091FC079091FD07892BA1F1E091FE0773
:10089000F091FF07309761F48091FA079091FB0780
:1008A000009721F060ED72E00E94B33F0E941102B8
:1008B000C081D18102811381CF010E94D94310935D
:1008C000FF070093FE072091FC073091FD072150A0
:1008D00031093093FD072093FC07CE010E943E288A
:1008E00064E670E080E090E0DF91CF911F910F917E
:1008F0000C945644DF91CF911F910F910895EF9280
:10090000FF920F931F93CF93DF93EC0181E08093CD
:10091000700761E773E08AE697E00E947B4166E832
:1009200075E0CE010E94464166E773E0CE010E9469
:100930004C4206E218E0F80180819181892BD9F0C0
:10094000E12CF12CF801EE0DFF1D6081CE010E941B
:100950005B42F2E0EF0EF11C80E1E816F10491F742
:1009600066E773E0CE010E944C42005F1F4FEBE050
:10097000063E1E0701F7CE01DF91CF911F910F9127
:10098000FF90EF900895EF92FF920F931F93CF93F4
:10099000DF93EC0181E08093700761E773E08AE602
:1009A00097E00E947B4166E875E0CE010E944641D7
:1009B00066E773E0CE010E944C4206E218E0F801BF
:1009C00080819181892B09F1E12CF12CF801EE0D48
:1009D000FF1D60817181CE010E946F4269E273E068
:1009E000CE010E944C42F2E0EF0EF11C80E1E816CD
:1009F000F10461F766E773E0CE010E944C42005FAC
:100A00001F4FEBE0063E1E07D1F6CE01DF91CF91DE
:100A10001F910F91FF90EF900895EF92FF920F9327
:100A20001F93CF93DF9300D000D0CDB7DEB78C01FA
:100A30007B0161E773E08AE697E00E947B416EE20A
:100A40007CE0C7010E94E342811106C068E773E0C1
:100A50008AE697E00E947B4166E875E0C8010E9443
:100A6000464181E08093700780E00E94F444BC011D
:100A7000990F880B990B0E948540E12CF12C8091F5
:100A80000F0290911002E816F906DCF46AE070E0BB
:100A900080E090E00E948D40AB01BC012AE0CE01D5
:100AA00001960E94EA41BE016F5F7F4FC8010E941C
:100AB0004542CE0101960E94D8408FEFE81AF80A0D
:100AC000DECFB8018CE19CE00E945B41C801269614
:100AD0000FB6F894DEBF0FBECDBFDF91CF911F914F
:100AE0000F91FF90EF900895CF92DF92EF92FF92D7
:100AF0000F931F93CF93DF9300D000D0CDB7DEB715
:100B00007C018B0168E777E082E797E00E947B41F8
:100B1000B80182E797E00E947143019631F46DE7D6
:100B200073E0C7010E94464132C0B80182E797E0F6
:100B30000E947143F801C480D580FFEFCF1ADF0A0D
:100B4000C80ED91E60E873E0CE0101960E944641AE
:100B5000A601BE016F5F7F4F82E797E00E9454437A
:100B60006C01B80182E797E00E947143F80144816B
:100B700055814F5F5F4F480F591F960162E777E03D
:100B8000C7010E947543CE0101960E94D840C7015B
:100B900026960FB6F894DEBF0FBECDBFDF91CF9182
:100BA0001F910F91FF90EF90DF90CF900895EF92FB
:100BB000FF920F931F93CF93DF93EC017B010E8184
:100BC0001F8184E090E00E94D7439F838E8300972B
:100BD00051F488819981009721F062E873E00E94C6
:100BE000B33F0E941102FC0113821282F182E08263
:100BF0002C813D81232B19F49D838C8303C0F80144
:100C0000938382838A819B8101969B838A83DF9170
:100C1000CF911F910F91FF90EF9008950F9300E0F7
:100C200020E040E060E084E39CE00E940A3F63EB48
:100C300073E08EE29CE00E94464106E221E048EA31
:100C400060EC88E29CE00E940A3F60E570E082E28E
:100C50009CE00E947E1566E875E08CE19CE00E94B5
:100C6000464169EB73E086E19CE00E94464160ECFE
:100C700073E080E19CE00E94464166E074E08AE017
:100C80009CE00E94464160E174E084E09CE00E94A8
:100C9000464166E673E08EEF9BE00E9446416BE1C1
:100CA00074E088EF9BE00E94464161E674E082EFC9
:100CB0009BE00E9446416BE674E08CEE9BE00E9454
:100CC000464160E874E086EE9BE00E94464165E99B
:100CD00074E08EE098E00E9446416FE974E088E09D
:100CE00098E00E9446416BEA74E082E098E00E943E
:100CF0004641EAEFF7E013821282158214821782CE
:100D00001682118210824AE060E870E082E797E084
:100D10000E94924166E875E08AE697E00E944641AB
:100D20008FE497E00E94FC2866E875E087E497E08E
:100D30000E94464166E875E081E497E00E944641E2
:100D400066E875E08BE397E00E94464166E875E04F
:100D500085E397E00E94464166E875E08FE297E000
:100D60000E94464166E875E089E297E00E944641AC
:100D70006DE773E083E297E00E94464166E875E024
:100D80008DE197E00E94464166E875E087E197E0D3
:100D90000E94464166E875E081E197E00E94464185
:100DA00066E875E08BE097E00E94464166E875E0F2
:100DB00085E097E00E94464188EF96E00E94321459
:100DC00066E875E082EF96E00F910C944641CF9370
:100DD000DF9382EF96E00E94D84085E097E00E9482
:100DE000D8408BE097E00E94D84081E197E00E94D4
:100DF000D84087E197E00E94D8408DE197E00E94BB
:100E0000D84083E297E00E94D84089E297E00E94B0
:100E1000D8408FE297E00E94D84085E397E00E9497
:100E2000D8408BE397E00E94D84081E497E00E948D
:100E3000D84087E497E00E94D8408AE697E00E9475
:100E4000D84082E797E00E94D840C091FE07D09139
:100E5000FF07CD2B71F08091FE079091FF07FC01F9
:100E6000C281D3810E94D943D093FF07C093FE076C
:100E7000F0CF82E098E00E94D84088E098E00E949D
:100E8000D8408EE098E00E94D84086EE9BE00E9419
:100E9000D8408CEE9BE00E94D84082EF9BE00E94FD
:100EA000D84088EF9BE00E94D8408EEF9BE00E94E4
:100EB000D84084E09CE00E94D8408AE09CE00E94F8
:100EC000D84080E19CE00E94D84086E19CE00E94EE
:100ED000D8408CE19CE00E94D8408EE29CE0DF91FB
:100EE000CF910C94D840CF93DF93C0E0D0E08091B5
:100EF000390790913A07C817D90768F4BE0185E30E
:100F000097E00E941343FC0160818FE497E00E9408
:100F100042282196ECCF8FE497E0DF91CF910C949B
:100F20006B29AF92BF92CF92DF92EF92FF920F9315
:100F30001F93CF93DF93CDB7DEB7A7970FB6F89483
:100F4000DEBF0FBECDBF5C016B017A014091080886
:100F50005091090823E16EEE7CE0CE0101960E94DB
:100F6000892BBE016F5F7F4F8FE497E00E94D6020E
:100F700066E875E0CE0182960E94464166E875E01B
:100F8000CE014C960E9446418FE497E00E947D2955
:100F9000882309F44FC0850180E1A80EB11CF80137
:100FA00060810E5F1F4FCE0182960E945B420A1540
:100FB0001B05A9F76DE773E0C7010E94F442B60173
:100FC000882381F087E497E00E945B41BE016E5D5B
:100FD0007F4F81E497E00E945B41CE0101960E9421
:100FE000840214C087E497E00E945B41BE016E5DFD
:100FF0007F4F81E497E00E945B41B7018BE397E06C
:101000000E945B41CE0101960E94A802BE016F5F63
:101010007F4FCE014C960E945B41CE0101960E940B
:10102000D840BE01645E7F4F85E397E00E945B413C
:101030000E947307CE014C960E94D840CE01829642
:101040000E94D840A7960FB6F894DEBF0FBECDBF62
:10105000DF91CF911F910F91FF90EF90DF90CF9094
:10106000BF90AF900895EF92FF920F931F93CF938D
:10107000DF93CDB7DEB7E3970FB6F894DEBF0FBEB0
:10108000CDBF7C0166E875E0CE018E960E94464198
:1010900066E875E0CE0188960E94464166E875E0F4
:1010A000CE0182960E944641870180E1E80EF11C44
:1010B000F80160810E5F1F4FCE018E960E945B4249
:1010C0000E151F05A9F7BE01625D7F4F83E49FE007
:1010D0000E94A13F409108085091090821E06EEE5E
:1010E0007CE0CE0101960E94892BBE016F5F7F4F8D
:1010F0008FE497E00E94D6028FE497E00E947D295A
:10110000882309F492C08FE497E00E943C29892B40
:1011100009F448C08FE497E00E949328182F682FA5
:10112000CE0188960E945B421B3739F467EB74E06E
:10113000CE0188960E947B41E6CF1D3721F7BE0184
:10114000685D7F4F8FE297E00E945B4169EB74E03E
:10115000CE0101960E944641BE016F5F7F4FCE01D6
:101160004C960E942F02CE0101960E94D840BE01EB
:10117000625D7F4FCE014C960E94E34281110DC00B
:10118000BE01685D7F4FCE0182960E94454264E8B1
:1011900075E0CE0182960E944C42CE014C960E9490
:1011A000D840B1CF8FE497E00E946B29BE016E5DFD
:1011B0007F4F83E49FE00E947C3F68E078E08EEE02
:1011C0009CE00E942A02409108085091090823E1FE
:1011D0006EEE7CE0CE0101960E94892BBE016F5F0E
:1011E0007F4F8FE497E00E94D602BE016E5D7F4F75
:1011F00085E397E00E945B4100E010E08EA19FA193
:101200000817190770F4B801CE0182960E941343A3
:10121000FC0160818FE497E00E9442280F5F1F4F1E
:10122000EDCF8FE497E00E946B29CE0182960E9459
:10123000D840CE0188960E94D840CE018E960E945A
:10124000D840E3960FB6F894DEBF0FBECDBFDF9156
:10125000CF911F910F91FF90EF9008950F931F93DF
:10126000CF93DF93CDB7DEB7AD970FB6F894DEBF5F
:101270000FBECDBF409108085091090821E06EEEE5
:101280007CE0CE0101960E94892BBE016F5F7F4FEB
:101290008FE497E00E94D60266E875E0CE0188965A
:1012A0000E94464166E875E0CE0182960E94464162
:1012B0008FE497E00E947D29882309F482C08FE49F
:1012C00097E00E943C29892B09F43FC08FE497E006
:1012D0000E9493288B3739F466E875E0CE01829638
:1012E0000E947B41ECCF8D3751F5BE016E5D7F4F83
:1012F0008FE297E00E945B4169EB74E0CE010196BA
:101300000E944641BE016F5F7F4FCE014C960E9406
:101310002F02CE0101960E94D840BE01645E7F4F2D
:10132000CE0188960E94454264E875E0CE01889619
:101330000E944C42CE014C960E94D840C0CF682FEC
:10134000CE0182960E945B42BACF8FE497E00E9462
:101350006B296EE078E08EEE9CE00E942A024091BC
:101360000E0850910F0823E16EEE7CE0CE0101964D
:101370000E94892BBE016F5F7F4F8FE497E00E9430
:10138000D602BE01685D7F4F85E397E00E945B4116
:1013900000E010E08CA59DA50817190770F4B801AE
:1013A000CE0188960E941343FC0160818FE497E090
:1013B0000E9442280F5F1F4FEDCF8FE497E00E94FD
:1013C0006B298FE497E00E946B29CE0182960E94E0
:1013D000D840CE0188960E94D840AD960FB6F894BA
:1013E000DEBF0FBECDBFDF91CF911F910F9108954A
:1013F0008F929F92AF92BF92CF92DF92EF92FF9225
:101400000F931F93CF93DF93CDB7DEB76B970FB6D4
:10141000F894DEBF0FBECDBF40910E0850910F086B
:1014200021E06EEE7CE0CE0101960E94892BCE0178
:1014300001960E947D29882309F450C086E2C82EB7
:1014400088E0D82E9AE0892E912CA12CB12CE12C89
:10145000F12CCE0101960E943C29892BD9F100E0A4
:1014600010E0CE0101960E949328F601E00FF11FD3
:101470009183808320910E02222369F04AE050E09C
:10148000BC0183E49FE00E946A4069E273E083E468
:101490009FE00E948A3F0E5F1F4F0031110509F740
:1014A0008FEFE81AF80AB501A401CE0101960E9457
:1014B0000F2980910E02882321F083E49FE00E948F
:1014C0009D3F8AE0880E911CA11CB11C80E1C80ED2
:1014D000D11CBFCFF0921508E0921408CE010196FE
:1014E0000E946B296B960FB6F894DEBF0FBECDBF7E
:1014F000DF91CF911F910F91FF90EF90DF90CF90F0
:10150000BF90AF909F908F900895AF92BF92CF926F
:10151000DF92EF92FF920F931F93CF93DF93CDB79C
:10152000DEB7A7970FB6F894DEBF0FBECDBFB82EBB
:10153000A92E2091140830911508E82FF92FB90130
:1015400094E0660F771F9A95E1F740E050E08191B3
:101550009191DA01A60FB71FAA5DB74F8D939C93A7
:101560004E5F5F4F4031510591F72F5F3F4F3093F2
:101570001508209314086EE078E08EEE9CE00E943F
:101580002A0240910E0850910F0823E16EEE7CE094
:10159000CE0101960E94892BCE0101960E947D29E1
:1015A000811135C0CE0101960E946B290E94F80975
:1015B00063E277E0CE014C960E94724169E277E0E7
:1015C000CE0182960E947241AE01445E5F4FBE0121
:1015D0006E5D7F4F8B2D9A2D0E949107CE018296D2
:1015E0000E94D840CE014C960E94D840A7960FB6D4
:1015F000F894DEBF0FBECDBFDF91CF911F910F9149
:10160000FF90EF90DF90CF90BF90AF90089586E26B
:10161000C82E88E0D82EE12CF12C809114089091EE
:101620001508E816F90608F0BDCF00E010E0F60155
:10163000E00FF11F6081CE0101960E9442280E5FEB
:101640001F4F0031110599F7CE0101960E949D3F71
:101650008FEFE81AF80A80E1C80ED11CDECF8F9216
:101660009F92AF92BF92CF92DF92EF92FF920F9331
:101670001F93CF93DF93CDB7DEB7A0970FB6F89443
:10168000DEBF0FBECDBF8C014B0166E875E00E9446
:1016900046416EEB74E0CE0101960E944641B401D2
:1016A000CE0101960E94A042BC01C8010E945B418C
:1016B000CE0101960E94D84080910E02882331F01D
:1016C00061EE74E083E49FE00E948A3F7E0121E1A5
:1016D000E20EF11C5701C12CD12CB601C4010E94AD
:1016E0003643682F880F770BD5016D937D935D018D
:1016F00080910E02882361F04AE050E083E49FE08D
:101700000E946A4069E273E083E49FE00E948A3F9E
:10171000BFEFCB1ADB0AE8E0CE16D104F1F6C70121
:101720000E940A048F3FFFEF9F0751F0019719F5C0
:101730006EEF7BE0C8010E94454260E075E018C092
:10174000FE013196CE018196D7012D913D917D010B
:1017500021933193A817B907B9F7CE0101960E94DA
:10176000850A6EEF7BE0C8010E94454267EE74E097
:10177000C8010E944C42C801A0960FB6F894DEBF83
:101780000FBECDBFDF91CF911F910F91FF90EF90D2
:10179000DF90CF90BF90AF909F908F900895AF92C1
:1017A000BF92CF92DF92EF92FF920F931F93CF934E
:1017B000DF93CDB7DEB76B970FB6F894DEBF0FBEE1
:1017C000CDBF6C010E94E8032091140830911508E8
:1017D0008217930740F48C010F5F1F4FB8010E94DE
:1017E0004F03C801F1CF21503109309315082093E0
:1017F00014086EE078E08EEE9CE00E942A02409190
:101800000E0850910F0823E16EEE7CE0CE010196A8
:101810000E94892BCE0101960E947D2981111AC058
:10182000CE0101960E946B290E94F809C6010E9410
:1018300033086B960FB6F894DEBF0FBECDBFDF91B5
:10184000CF911F910F91FF90EF90DF90CF90BF90BD
:10185000AF90089586E2A82E88E0B82EE12CF12CF6
:101860008091140890911508E816F906C8F600E072
:1018700010E0F501E00FF11F6081CE0101960E949A
:1018800042280E5F1F4F0031110599F7CE010196D6
:101890000E949D3F8FEFE81AF80A80E1A80EB11C64
:1018A000DFCF8F929F92AF92BF92CF92DF92EF9253
:1018B000FF920F931F93CF93DF93CDB7DEB7A0971F
:1018C0000FB6F894DEBF0FBECDBF8C014B0166E8AA
:1018D00075E00E94464164E175E0CE0101960E94E8
:1018E0004641B401CE0101960E94A042BC01C8014C
:1018F0000E945B41CE0101960E94D84080910E0269
:10190000882331F061EE74E083E49FE00E948A3F17
:101910007E0121E1E20EF11C5701C12CD12CB60150
:10192000C4010E943643682F880F770BD5016D9351
:101930007D935D0180910E02882361F04AE050E0C2
:1019400083E49FE00E946A4069E273E083E49FE0E1
:101950000E948A3FBFEFCB1ADB0AE8E0CE16D10423
:10196000F1F6C7010E940A048F3FFFEF9F0739F08D
:10197000019721F5FE013196CE01819608C06EEFE8
:101980007BE0C8010E9445426AE375E014C0D701BC
:101990002D913D917D0121933193A817B907B9F796
:1019A000CE0101960E94CF0B6EEF7BE0C8010E9432
:1019B00045426BE575E0C8010E944C42C801A09603
:1019C0000FB6F894DEBF0FBECDBFDF91CF911F9150
:1019D0000F91FF90EF90DF90CF90BF90AF909F90CE
:1019E0008F900895EF92FF920F931F93CF93DF9301
:1019F000CDB7DEB7A5970FB6F894DEBF0FBECDBF4B
:101A00007C0166E875E0CE0180960E94464166E75B
:101A100075E083E49FE00E94B33F870180E1E80E18
:101A2000F11CF80160810E5F1F4FCE0180960E946D
:101A30005B420E151F05A9F769EB74E085E097E09E
:101A40000E947B4163E372E08BE097E00E947B4160
:101A5000BE01605E7F4F8BE097E00E9445420E948E
:101A6000FF0261E177E0CE014A960E947241CE0109
:101A700001960E9432146AE072E0CE010E960E9436
:101A8000163F48E853E1BE01625F7F4FCE010196E9
:101A90000E945D14892B09F457C0BE01665E7F4F1A
:101AA000CE0101960E947C3F66E875E0CE01449627
:101AB0000E944641CE0101960E948613892BD1F3E4
:101AC000CE0101960E948613892B51F0CE0101961A
:101AD0000E948F13682FCE0144960E945B42F0CF84
:101AE000BE016C5E7F4F8DE197E00E945B410E94DA
:101AF0006F0367E177E083E49FE00E947C3F6AE741
:101B000075E0CE010E960E944641BE01625F7F4F96
:101B100087E197E00E9471438C01CE010E960E94EE
:101B2000D840CE0144960E94D840CE014A960E94E9
:101B3000D840CE0180960E94D84091E00F3F1F4FC1
:101B400009F490E0892F08C0CE014A960E94D8403F
:101B5000CE0180960E94D840A5960FB6F894DEBFBD
:101B60000FBECDBFDF91CF911F910F91FF90EF90EE
:101B70000895CF92DF92EF92FF920F931F93CF932E
:101B8000DF93CDB7DEB76F970FB6F894DEBF0FBE09
:101B9000CDBF7C0166E875E0CE014A960E944641C1
:101BA00066E775E083E49FE00E94B33F870180E130
:101BB000E80EF11CF80160810E5F1F4FCE014A96BE
:101BC0000E945B420E151F05A9F769EB74E085E0E2
:101BD00097E00E947B4163E372E08BE097E00E9414
:101BE0007B41BE01665E7F4F8BE097E00E944542DD
:101BF0000E94FF02CE0101960E94321461E177E05B
:101C0000CE0144960E9472416DE773E087E197E050
:101C10000E947B416AE072E0CE010E960E94163F60
:101C200048E853E1BE01625F7F4FCE0101960E94FA
:101C30005D14892BB1F1BE016C5E7F4FCE01019620
:101C40000E947C3F66E875E0CE010E960E944641F8
:101C5000CE0101960E948613892BD1F3CE01019605
:101C60000E948613892B51F0CE0101960E948F139A
:101C7000682FCE010E960E945B42F0CFBE01625FDC
:101C80007F4F8DE197E00E945B410E946F0367E107
:101C900077E083E49FE00E947C3FCE010E960E9495
:101CA000D84087E197E00E94BB436B017C01CE01E5
:101CB00044960E94D840CE014A960E94D840C60160
:101CC0006F960FB6F894DEBF0FBECDBFDF91CF91F8
:101CD0001F910F91FF90EF90DF90CF900895CF93D9
:101CE000DF9386E198E00E94B90DEC0126E030E038
:101CF00040E050E061E070E080E090E00E94B140A0
:101D00008AEF97E00E94D705CF3F8FEFD80729F0E1
:101D1000BE018AEF97E00E94D70560ED77E080E092
:101D200090E0DF91CF910C945644CF93DF9300D095
:101D300000D0CDB7DEB788EF96E00E94D01366E8FA
:101D400075E0CE0101960E9446418091700788237C
:101D5000A9F06AE07CE0CE0101960E945B416AE650
:101D600077E0CE0101960E9445426FE775E0CE0113
:101D700001960E944C4262EF76E00EC060E17CE08A
:101D8000CE0101960E945B4162EF76E0CE010196A2
:101D90000E94454264E07CE0CE0101960E944542EB
:101DA000BE016F5F7F4F88EF96E00E947C3F61E04D
:101DB00070E080E090E00E94564488EF96E00E9438
:101DC000B91480910E02882331F067E875E083E44E
:101DD0009FE00E94B33FCE0101960E94D840269614
:101DE0000FB6F894DEBF0FBECDBFDF91CF9108953F
:101DF0000F931F93CF93DF93CDB7DEB7AA970FB69C
:101E0000F894DEBF0FBECDBF68E777E082E797E0CA
:101E10000E947B416AE975E0CE0101960E9446412D
:101E2000BE016F5F7F4FCE0185960E947405CE0183
:101E300001960E94D840CE0185960E94BB438B013B
:101E40006DE975E0CE0101960E944641BE016F5FCB
:101E50007F4FCE014F960E947405CE0101960E94DD
:101E6000D84061EA75E082EF96E00E947B4169EB21
:101E700074E0CE0101960E944641BE016F5F7F4F24
:101E8000CE0149960E947405CE0101960E94D84069
:101E90006AEB75E0CE0101960E944641BE016F5F7C
:101EA0007F4FCE0143960E947405CE0101960E9499
:101EB000D8406FEB75E0CE0101960E944641BE010D
:101EC0006F5F7F4FCE010D960E947405CE01019683
:101ED0000E94D84066E875E082EF96E00E947B4160
:101EE0006EE27CE0CE014F960E94E342811110C069
:101EF00081E08093700768E773E08AE697E00E94CC
:101F00007B4166E875E082EF96E00E947B4170C0FD
:101F10000330110509F44AC0B4F40130110549F148
:101F20000230110509F064C0BE01675E7F4FCE012B
:101F300007960E947241BE01695F7F4FCE010196F4
:101F40000E94510C46C004301105A9F1053011055D
:101F500009F04EC0BE01615E7F4FCE0107960E9420
:101F60007241BE01695F7F4FCE0101960E940D054F
:101F700030C0BE016D5E7F4F89E297E00E945B41F9
:101F8000BE01635F7F4F83E297E00E945B41BE0129
:101F9000675E7F4FCE0107960E947241BE01695F66
:101FA0007F4FCE0101960E942F0B13C0CE010196E8
:101FB0000E947F0404C0CE0101960E94C304BE01AA
:101FC0006F5F7F4F82EF96E00E945B41CE010196EA
:101FD0000DC0BE016F5F7F4F82EF96E00E945B41B4
:101FE000CE0101960E94D840CE0107960E94D840AB
:101FF0000E94950ECE010D960E94D840CE014396C8
:102000000E94D840CE0149960E94D840CE014F96FA
:102010000E94D840CE0185960E94D840AA960FB65D
:10202000F894DEBF0FBECDBFDF91CF911F910F910E
:1020300008950F931F93CF93DF93CDB7DEB72D97FE
:102040000FB6F894DEBF0FBECDBF62E27CE0CE01DA
:1020500001960E9440168B819C819093FB06809391
:10206000FA068D819E81AF81B8858093FC0690939E
:10207000FD06A093FE06B093FF0689859A85AB8581
:10208000BC858093000790930107A0930207B0934B
:1020900003078D858093040788EF96E00E9455130F
:1020A000882309F483C065EC75E083E49FE00E9417
:1020B000B33F1092F9071092F8074AE060E870E029
:1020C000CE0101960E949241BE016F5F7F4F82E771
:1020D00097E00E945B41CE0101960E94D84080911A
:1020E000F8079091F907E8E7F7E040E29F012857E9
:1020F00037402817390714F44193F8CF11E006E26E
:1021000088EF96E00E94F514882309F449C088EF0F
:1021100096E00E948613892B99F388EF96E00E943F
:102120008F138A30C1F511111AC011E0E9CF88EF81
:1021300096E00E948F13809371072091F8073091E9
:10214000F907203831055CF4A9014F5F5F4F5093C8
:10215000F9074093F807F901E858F84F808388EFB2
:1021600096E00E948613892B11F7E091F807F09111
:10217000F907E858F84F008366ED75E083E49FE0C7
:102180000E94B33F68E777E083E49FE00E948A3FC4
:102190000E94F80EB5CF8D3009F4B2CF10E0B0CF69
:1021A0006DEE75E083E49FE00E94B33F2D960FB67D
:1021B000F894DEBF0FBECDBFDF91CF911F910F917D
:1021C0000895CF93DF9300D000D0CDB7DEB7109243
:1021D000700766E875E0CE0101960E9446410E94B4
:1021E0001910CE0101960E94D84026960FB6F89499
:1021F000DEBF0FBECDBFDF91CF9108958DE790E197
:102200000E94903B892B59F48FEF9FEF9093EF063C
:102210008093EE069093F1068093F00608958DE783
:1022200090E10E94AA3B9C012C57310923303105D3
:1022300048F49093F1068093F0061092EF06109206
:10224000EE0608952091EE063091EF0637FD0EC0A0
:10225000A9014F5F5F4F5093EF064093EE06220FA8
:10226000331FF901EA5EF74F918380838091EE0678
:102270009091EF06089781F58091F0069091F10614
:102280008E37910571F486E198E00E940A04019668
:1022900021F486E198E00C94850A86E198E00C949C
:1022A000CF0B8C37910599F486E198E00E94F20CEF
:1022B000882339F069EF75E08DE790E10E948A3F4D
:1022C00009C06BEF75E08DE790E10C948A3F8D3784
:1022D000910511F40C946F0E08950E9437040E942A
:1022E000FE100C94E110EF92FF920F931F93CF9387
:1022F000DF9300D000D0CDB7DEB726E040E052EC4F
:1023000061E070E083E49FE00E94943C26E040E0BE
:1023100052EC61E070E08DE790E10E94943C26E091
:1023200040E855E260E070E080EE9FE00E94943C5F
:1023300080EE9FE00E94232889E190E00E943A28E5
:1023400064E670E080E090E00E94564466E18EEE24
:102350009CE00E94802A81110AC080910E0288238D
:1023600031F06DEF75E083E49FE00E94B33F809110
:102370000E02882331F069E176E083E49FE00E9459
:10238000B33F0E942E090E94F8096BE276E083E4D5
:102390009FE00E948A3F10EAE12E1FE0F12E00E04C
:1023A00010E020E63AEE40E050E061E172E088E9BA
:1023B0009CE00E944F1263E376E083E49FE00E947A
:1023C0008A3F82E29CE00E943A156BE376E083E468
:1023D0009FE00E948A3F68E97CE0CE0101960E945E
:1023E000F612BE016F5F7F4F83E49FE00E94C53FFE
:1023F0008FEF9FEF9093EF068093EE069093F10698
:102400008093F00626960FB6F894DEBF0FBECDBFC0
:10241000DF91CF911F910F91FF90EF900895209140
:10242000E80C222399F04FB7F8942091E80C213062
:1024300059F42DB32093E60C3DB32091E70C209581
:1024400023232DBB4FBF02C04093E60C8CBD9DBD26
:1024500008958091E80C882361F09FB7F89420914B
:10246000E80C8091E60C213019F48DBB9FBF0895D4
:102470008FBF089544E050E0BC0181E090E00C94EF
:10248000AC1D44E050E0BC0185E090E00C94AC1D34
:1024900044E050E0BC018FE090E00C94AC1D2F9222
:1024A0003F924F925F926F927F928F929F92AF92E4
:1024B000BF92CF92DF92EF92FF920F931F93CF9331
:1024C000DF9300D000D0CDB7DEB76C011B0129012E
:1024D0003A01470158018091A00C811107C08DE796
:1024E0009CE00E949A1881E08093A00C8AE39CE013
:1024F000F601978386838AEC9CE00E94441D80E568
:1025000090E00E940F1246E050E0B10189E090E0B7
:102510000E94AC1D00E020E040E060E0CE010196AA
:102520000E940A3FCE0103960E9448120E9429127F
:1025300085017401A3019201B101F60186819781A1
:102540000E9482248C010197B9F580E590E00E94F9
:102550000F12F60166817781CE0101960E94BC1FA1
:10256000CE0103960E944812F60166817781CE0162
:1025700001960E94D21FCE0103960E943A12F601E4
:1025800066817781CE0101960E94C71FCE01039616
:102590000E9441120E942912F60166817781CE01C4
:1025A00001960E94DD1F8B819C81AD81BE81F60169
:1025B00082839383A483B583C80126960FB6F894CB
:1025C000DEBF0FBECDBFDF91CF911F910F91FF9066
:1025D000EF90DF90CF90BF90AF909F908F907F90C3
:1025E0006F905F904F903F902F900895CF93DF931F
:1025F000EC010E94003F80E590E00E940F12BE01B6
:102600006E5F7F4F44E050E08FE090E00E94DE1E5E
:102610000E942912CE01DF91CF91089520EE36E07D
:10262000FC0131832083FB014281538164817581E8
:10263000FC01428353836483758308950F9300E004
:1026400020E040E060E080EB9CE00E940A3F88E9E7
:102650009CE00F910C94003F80E090E00895089575
:1026600081E086270895862F0895DC01ED91FC9185
:10267000068CF78DE02D199591E089270895CF9369
:10268000DF931F92CDB7DEB76983DC01ED91FC913A
:102690000280F381E02D41E050E0BE016F5F7F4F8B
:1026A00019950F90DF91CF91089521E0FC01848569
:1026B000843009F420E0822F0895FC019485FB0109
:1026C0008485981303C081E0943009F480E0089574
:1026D0000F931F93CF93DF938C01D42FC52FFC0151
:1026E0008485843041F481E090E0F8019383828313
:1026F00080E090E006C00E94E11A892BA1F38D2FA3
:102700009C2FDF91CF911F910F910895FC0184853B
:10271000843011F00C94D81B80E090E00895CF93A2
:10272000DF931F92CDB7DEB741E050E0BE016F5F8F
:102730007F4FFC0184850E94771B181619061CF434
:10274000898190E002C08FEF9FEF0F90DF91CF91D2
:102750000895FC0184850C94771B0F931F93CF93EE
:10276000DF931F92CDB7DEB78C01DC01ED91FC91B8
:102770000084F185E02D1995892B51F0BE016F5F22
:102780007F4FF80184850E94031C898190E002C07C
:102790008FEF9FEF0F90DF91CF911F910F910895D1
:1027A000FC0184850C94331CCF92DF92EF92FF9250
:1027B0000F931F93CF93DF93CDB7DEB7AF970FB6CD
:1027C000F894DEBF0FBECDBF8C016B017A01CE0144
:1027D00001960E94003FCE0109960E949A18CE01F0
:1027E0008A960E94003F68E97CE0CE0184960E94B0
:1027F0000E13BE016C5D7F4FCE0101960E94C12475
:10280000AE01465D5F4FB601CE0101960E943027B2
:1028100081309105C1F4D801ED91FC910684F785D2
:10282000E02D80EE96E09DA38CA38CA59DA5AEA582
:10283000BFA58EA39FA3A8A7B9A7A701BE016C5DE2
:102840007F4FC8011995AF960FB6F894DEBF0FBE43
:10285000CDBFDF91CF911F910F91FF90EF90DF904F
:10286000CF900895FC011382128288EE93E0A0E0DD
:10287000B0E084839583A683B7838DE496E091834B
:10288000808384E084870895FC011382128288EE9D
:1028900093E0A0E0B0E084839583A683B7838DE4C2
:1028A00096E09183808364870895FC018485843059
:1028B00011F00C94881980E00895CF92DF92FF9276
:1028C0000F931F93CF93DF93FC0124852430A9F548
:1028D0006A018B01EC01F12C8F2D0E948819811166
:1028E00002C0FC8607C08B7F8831D9F3F394F4E0F3
:1028F000FF12F2CF8C85843001F1209121023091BA
:1029000022022F5F3F4F11F420E030EC309322027F
:1029100020932102409121025091220220E061E0A7
:102920000E94DA19B8016E5F7F4FA6018C850E9464
:10293000611A811105C084E08C8780E090E011C0AD
:10294000CE010E945514873151F061E070E080E0C3
:1029500090E00E945644CE010E945514EACF81E0D7
:1029600090E0DF91CF911F910F91FF90DF90CF907A
:102970000895CF92DF92EF92FF92CF93DF93EC0115
:102980008C85843059F10E94BA1A0E9425446B014B
:102990007C01CE010E9455148823B1F061E070E003
:1029A00080E090E00E9456440E942544DC01CB0167
:1029B0008C199D09AE09BF09883E9340A105B10558
:1029C00040F38C850E94AF19EC85F0E0EE0FFF1FFD
:1029D000E855F34F1182108284E08C87DF91CF910C
:1029E000FF90EF90DF90CF900895CF93DF93FC019D
:1029F00024852430D1F0EC010E945514843181F0FB
:102A0000882371F0883161F08C3161F4E881F981BB
:102A10000084F185E02DCE01199521E0892B19F470
:102A200020E001C021E0822F01C080E0DF91CF9142
:102A300008950F9300E020E040E060E086EB9CE02A
:102A40000E940A3F0F910895CF93DF931F92CDB755
:102A5000DEB76983DC01ED91FC910280F381E02D0A
:102A600041E050E0BE016F5F7F4F19950F90DF91FD
:102A7000CF910895EF92FF920F931F93CF93DF931F
:102A8000CDB7DEB72D970FB6F894DEBF0FBECDBF22
:102A90007C0100E010E0602FCE0101960E944414FA
:102AA000CE0101960E945514811116C0F701448190
:102AB000558120E061E0802F0E94DA19802F0E946A
:102AC0002E1AF70184819581000F111FF801E85536
:102AD000F34F9183808305C00F5F1F4F04301105B2
:102AE000D1F62D960FB6F894DEBF0FBECDBFDF91A5
:102AF000CF911F910F91FF90EF900895FC011382E9
:102B0000128283E796E091838083758364830895BE
:102B1000AF92BF92CF92DF92EF92FF921F93CF932B
:102B2000DF93CDB7DEB72D970FB6F894DEBF0FBE9B
:102B3000CDBF7C0198EAA92E9CE0B92E10E0C12CF3
:102B4000D12C612FCE0101960E944414D5012D9104
:102B50003D915D01F7018481958128173907B1F412
:102B6000CE0101960E945514843169F0CE01019680
:102B70000E9455148C3151F4CE0101960E948613A7
:102B8000892B91F003C0CC24C394D12C1F5F143047
:102B9000C1F6CD2871F4D701ED91FC910084F18547
:102BA000E02DC701199505C0CE0101960E94B91408
:102BB000EDCF2D960FB6F894DEBF0FBECDBFDF91DF
:102BC000CF911F91FF90EF90DF90CF90BF90AF908B
:102BD00008956F927F928F929F92AF92BF92CF9201
:102BE000DF92EF92FF921F93CF93DF93CDB7DEB7C3
:102BF0002D970FB6F894DEBF0FBECDBF5C014B0121
:102C00003A010E94881588EAC82E8CE0D82E10E080
:102C1000E12CF12C612FCE0101960E944414F601A3
:102C2000219131916F01F501848195812817390730
:102C300031F4CE0101960E9455148731C1F01F5F17
:102C4000143041F7C7012D960FB6F894DEBF0FBEC2
:102C5000CDBFDF91CF911F91FF90EF90DF90CF908C
:102C6000BF90AF909F908F907F906F900895A30139
:102C7000B401CE0101960E946813E80EF91EDFCF61
:102C8000AF92BF92CF92DF92FF920F931F93CF9399
:102C9000DF93CDB7DEB72D970FB6F894DEBF0FBE2A
:102CA000CDBF8C015B01CB010E94881588EAC82E3C
:102CB0008CE0D82EF12C6F2DCE0101960E94441489
:102CC000F601219131916F01F501848195812817D9
:102CD000390751F5CE0101960E945514873111F044
:102CE0008C3111F5CE0101960E948613892BE1F0FB
:102CF0008B819C81F801938382838D819E81AF813A
:102D0000B88584839583A683B78389859A85AB85A7
:102D1000BC8580879187A287B3878DE496E09183F5
:102D200080838D85848708C0F394F4E0FF12C3CFBD
:102D300064E0C8010E944414C8012D960FB6F894AF
:102D4000DEBF0FBECDBFDF91CF911F910F91FF90DE
:102D5000DF90CF90BF90AF9008950F9300E020E0F8
:102D600040E060E08CEB9CE00E940A3F0F910895E8
:102D7000DC01ED91FC91048CF58DE02D199420EE91
:102D800036E0FC0131832083FB014089518962894F
:102D90007389FC0142835383648375830895FC0126
:102DA000848995890895FC01818D928D0895CF9332
:102DB000DF931F92CDB7DEB76983DC01ED91FC9103
:102DC0000280F381E02D41E050E0BE016F5F7F4F54
:102DD00019950F90DF91CF9108950895CF93DF93C8
:102DE000EC01888D843061F00E94AF19E88DF0E02D
:102DF000EE0FFF1FE855F34F1182108284E0888F99
:102E0000DF91CF910895FC01178A168A6E5F7F4F7C
:102E1000808D0C947C1CFC01808D0C94C31CCF9382
:102E2000DF93EC019A018E899F89AB01BC01888DEB
:102E30000E94341C2E893F89280F391F3F8B2E8B0F
:102E4000DF91CF9108950F931F93CF93DF931F923C
:102E5000CDB7DEB7FC01218D328D232B61F08C01C3
:102E600041E050E0BE016F5F7F4F808D0E94771B75
:102E7000181619061CF08FEF9FEF08C0F801818D1E
:102E8000928D0197928F818F898190E00F90DF91D1
:102E9000CF911F910F910895CF93DF93FC01218D66
:102EA000328D2115310519F48FEF9FEF11C0EC0120
:102EB0004217530708F0A901888D0E94771B181646
:102EC000190694F7298D3A8D281B390B3A8F298FD3
:102ED000DF91CF910895CF93DF931F92CDB7DEB7E7
:102EE000FC01218D328D232B49F0BE016F5F7F4F96
:102EF000808D0E94031C898190E002C08FEF9FEFBC
:102F00000F90DF91CF910895EF92FF921F93CF938F
:102F1000DF93FC01208D243011F080E01CC07B0188
:102F2000EC0110E0812F0E948819811102C0188FD6
:102F300005C08831E1F31F5F1430A1F7888D84301C
:102F400061F3FD86EC861A8E198E20E0A70162E0FF
:102F50000E94DA1981E0DF91CF911F91FF90EF90ED
:102F600008950F931F93CF93DF93CDB7DEB72897C4
:102F70000FB6F894DEBF0FBECDBF8C01F801818D76
:102F8000928D892B49F0D801ED91FC910284F38553
:102F9000E02DC8011995F2CF808D0E94D81B18161C
:102FA000190654F548E050E0BE016F5F7F4FD8012D
:102FB00058968C910E94771B9C0118161906D4F420
:102FC000BE016F5F7F4FC8010E960E94263F8D8124
:102FD00090E0982F88272E81820F911DF801958B04
:102FE000848B2F8130E0322F22278885280F311DD6
:102FF000328F218FC90102C080E090E028960FB681
:10300000F894DEBF0FBECDBFDF91CF911F910F911E
:1030100008958F929F92AF92BF92CF92DF92EF92DC
:10302000FF920F931F93CF93DF9300D000D0CDB7C3
:10303000DEB7FC01208D243009F068C06A017B01F5
:103040008C0153E0852E54E0952EA12CB12CC401A7
:103050000E94DB1D811103C0F801A08E0AC08831D7
:10306000D9F3FFEFAF1ABF0A9394E4E0AE16B104B0
:1030700071F7F801808D843009F448C096E0E8E2E9
:10308000F2E0DE01119601900D929A95E1F7F701B9
:1030900093819F779C8394819D8395819E83B701C3
:1030A0006E5F7F4F90E0982F882744E050E0845F68
:1030B0009B4F0E94AC1DF801E08CF12CF4E0EF0E68
:1030C000F11CFE2CEE246D2DC70140960E94211D9F
:1030D0006C2DC70141960E94211DF801808D90E062
:1030E000982F882746E050E0BE016F5F7F4F8A5FD0
:1030F0009B4F0E94AC1DF801128E118E20E8A60194
:1031000062E0808D0E94DA1981E001C080E026969D
:103110000FB6F894DEBF0FBECDBFDF91CF911F91E8
:103120000F91FF90EF90DF90CF90BF90AF909F9066
:103130008F900895CF93DF93EC011B821A8288EE63
:1031400093E0A0E0B0E08C839D83AE83BF8381E8F1
:1031500096E099838883CE010E960E94003F84E01A
:10316000888FDF91CF910895CF92DF92EF92FF92F7
:103170000F931F93CF93DF93CDB7DEB7AF970FB603
:10318000F894DEBF0FBECDBF8C016B017A01CE017A
:1031900001960E94003FCE0109960E949A18CE0126
:1031A0008A960E94003F68E97CE0CE0184960E94E6
:1031B0000E13BE016C5D7F4FCE0101960E94C124AB
:1031C000AE01465D5F4FB601CE0101960E943027E9
:1031D00081309105C1F4D801ED91FC910488F58905
:1031E000E02D80EE96E09DA38CA38CA59DA5AEA5B9
:1031F000BFA58EA39FA3A8A7B9A7A701BE016C5D19
:103200007F4FC8011995AF960FB6F894DEBF0FBE79
:10321000CDBFDF91CF911F910F91FF90EF90DF9085
:10322000CF9008950F9300E020E040E060E082EC52
:103230009CE00E940A3F0F9108950F93FC0130E03B
:1032400080E092E1AAE7B0E0481759076A077B07D8
:1032500040F4B695A795979587953F5F3630A1F7CF
:1032600037E091E09327222311F020E501C020E709
:10327000892F86950C70082B022B00839170918307
:103280000F91089590E0982F882744E050E0845FE4
:103290009B4F0C94AC1D90E00496982F8827860FC6
:1032A000971F0C94DB1D62E070E00C944B199B019E
:1032B00090E00496982F8827642F820F931F0C9418
:1032C000211DCF93DF93C82FD62F472F64E070E0E6
:1032D0000E9457194D2F65E070E08C2FDF91CF9140
:1032E0000C945719462F62E070E00C945719CF9355
:1032F000DF93C82FD62F472F60E170E00E94571947
:103300004D2F61E170E08C2FDF91CF910C94571914
:103310000F931F93CF93DF9300D0CDB7DEB7182F55
:1033200000E021E040E059E06DE370E0CE0101965D
:103330000E941D1989819A810E940F1263E070E03A
:10334000812F0E944B198B830E9429128B810F9031
:103350000F900F90DF91CF911F910F9108950F93D0
:103360001F93CF93DF931F921F92CDB7DEB7182F15
:1033700000E021E040E059E06DE370E0CE0101960D
:103380000E941D1989819A810E940F1240E150E02C
:10339000612F8AEC9CE00E94A51F6FEF812F0E9495
:1033A00072190E9429120F900F90DF91CF911F91F7
:1033B0000F910895CF92DF92EF92FF920F931F9398
:1033C000CF93DF931F921F92CDB7DEB79FEF960F7B
:1033D0009530C0F5F22E6A01E62E182F0E94AF1923
:1033E00000E021E040E059E06DE370E0CE0101969D
:1033F0000E941D1989819A810E940F124E2D4F291A
:1034000060E070E0812F0E945719C114D10411F0BF
:10341000B6010AC06091C80C7091C90C6F5F7F4FF4
:103420007093C90C6093C80C812F0E94611941E010
:1034300050E0612F8AEC9CE00E94A51F0E94291297
:1034400081E001C080E00F900F90DF91CF911F913C
:103450000F91FF90EF90DF90CF9008950F931F93FF
:10346000CF93DF931F921F92CDB7DEB7182F00E0E6
:1034700021E040E059E06DE370E0CE0101960E944A
:103480001D1989819A810E940F1263E070E0812FDB
:103490000E944B19833121F00E94291280E00AC05A
:1034A00042E050E0612F8AEC9CE00E94A51F0E9440
:1034B000291281E00F900F90DF91CF911F910F9112
:1034C0000895CF92DF92EF92FF920F931F93CF93C5
:1034D000DF931F921F92CDB7DEB7FB0190819F3F14
:1034E00051F491819F3F91F492819F3F79F49381B0
:1034F0009F3F61F432C0911109C09181911106C0C2
:103500009281911103C09381992341F14115510595
:1035100021F16A017F01182F00E021E040E059E02D
:103520006DE370E0CE0101960E941D1989819A8198
:103530000E940F12B701812F0E944219B601812FFC
:103540000E94771944E050E0612F8AEC9CE00E94D1
:10355000A51F0E94291291E001C090E0892F0F90D1
:103560000F90DF91CF911F910F91FF90EF90DF901F
:10357000CF9008950F931F93CF93DF931F921F92C5
:10358000CDB7DEB7182F00E021E040E059E06DE351
:1035900070E0CE0101960E941D1989819A810E94D6
:1035A0000F1248E050E0612F8AEC9CE00E94A51FBA
:1035B0000E9429120F900F90DF91CF911F910F91D0
:1035C0000895AF92BF92CF92DF92EF92FF920F9346
:1035D0001F93CF93DF931F921F92CDB7DEB7182FA3
:1035E0006B017A014130584018F0E12C88E0F82E48
:1035F00000E021E040E059E06DE370E0CE0101968B
:103600000E941D1989819A810E940F12612F8AECF4
:103610009CE00E94131E5C0163E070E0812F0E9419
:103620004B19082F0E942912073111F00C3131F487
:103630000E94C643AE14BF04D8F202C0E12CF12CA4
:1036400000E021E040E059E06DE370E0CE0101963A
:103650000E941D1989819A810E940F129701A6016B
:10366000612F8AEC9CE00E94D31E40E250E0612F63
:103670008AEC9CE00E94A51F812F0E94531984FDB3
:1036800022C063E070E0812F0E944B19811108C0B5
:103690000E942912812F0E94AF1980E090E01AC089
:1036A0000E9429120E94C64300E021E040E059E058
:1036B0006DE370E0CE0101960E941D1989819A8107
:1036C0000E940F12D9CF60E1812F0E9472190E94CF
:1036D0002912C7010F900F90DF91CF911F910F9189
:1036E000FF90EF90DF90CF90BF90AF900895AF9292
:1036F000BF92CF92DF92EF92FF920F931F93CF93DF
:10370000DF931F921F92CDB7DEB7182F5B016A01BE
:1037100000E021E040E059E06DE370E0CE01019669
:103720000E941D1989819A810E940F12612F8AECD3
:103730009CE00E94471E7C010097A1F463E070E0CA
:10374000812F0E944B19843119F1882309F121E05E
:1037500030E08C3111F420E030E0EE24FF24E21A56
:10376000F30A16C0C816D9060CF476011E141F04FD
:103770007CF400E09701A501612F8AEC9CE00E9497
:10378000551F40E450E0612F8AEC9CE00E94A51F89
:103790000E942912C7010F900F90DF91CF911F91C6
:1037A0000F91FF90EF90DF90CF90BF90AF90089572
:1037B0000F931F93CF93DF9300D01F92CDB7DEB747
:1037C000182F00E021E040E059E06DE370E0CE0109
:1037D00001960E941D1989819A810E940F12612F02
:1037E0008AEC9CE00E94471E8B839C830E942912D6
:1037F0008B819C810F900F900F900F90DF91CF9154
:103800001F910F910895EF92FF920F931F93CF9303
:10381000DF931F921F92CDB7DEB7182F7B0100E018
:1038200021E040E059E06DE370E0CE0101960E9496
:103830001D1989819A810E940F1201E021E030E078
:10384000A701612F8AEC9CE00E94551F0E9429125B
:1038500081E090E00F900F90DF91CF911F910F9139
:10386000FF90EF90089508958F929F92AF92BF922C
:10387000DF92EF92FF920F931F93CF93DF931F92EC
:103880001F92CDB7DEB7D82E5B014A01790100E067
:1038900021E040E059E06DE370E0CE0101960E9426
:1038A0001D1989819A810E940F126D2D8AEC9CE06E
:1038B0000E94131E8E159F0530F46D2D8AEC9CE03E
:1038C0000E94131E7C0187019401A5016D2D8AECD5
:1038D0009CE00E94631E0E942912C7010F900F9066
:1038E000DF91CF911F910F91FF90EF90DF90BF90EC
:1038F000AF909F908F900895CF92DF92EF92FF92BA
:103900000F931F93CF93DF931F921F92CDB7DEB714
:10391000FB019081911109C09181911106C09281A2
:10392000911103C09381992309F141155105F1F0DB
:103930006A017F01182F00E021E040E059E06DE3CB
:1039400070E0CE0101960E941D1989819A810E9422
:103950000F12B701812F0E944219B601812F0E94D8
:1039600077190E94291281E090E002C080E090E087
:103970000F900F90DF91CF911F910F91FF90EF90DB
:10398000DF90CF9008950F931F93CF93DF931F92F3
:103990001F92CDB7DEB7182F00E021E040E059E0DC
:1039A0006DE370E0CE0101960E941D1989819A8114
:1039B0000E940F1240E250E0612F8AEC9CE00E94CE
:1039C000A51F812F0E94531984FD21C0812F0E94C1
:1039D000531983FF09C068E1812F0E9472190E9468
:1039E000291280E090E01BC00E9429120E94C64369
:1039F00000E021E040E059E06DE370E0CE01019687
:103A00000E941D1989819A810E940F12DACF60E10C
:103A1000812F0E9472190E94291281E090E00F907C
:103A20000F90DF91CF911F910F9108958EBD0000EF
:103A30000DB407FEFDCF8EB508952C9808952C9AED
:103A400008951F93CF93DF931F921F92CDB7DEB7D8
:103A5000182F6A8399830E941D1D80EF0E94161DF6
:103A60009981892F0E94161D812F0E94161D6A813F
:103A7000862F0E94161D0E941F1D81E00F900F903F
:103A8000DF91CF911F910895CF93DF93EC016CE20A
:103A900071E080E090E00E9456440E94BD27249A85
:103AA0008091E80C882399F02FB7F8948091E80C66
:103AB000813059F48DB38093E60C9DB38091E70C6F
:103AC000809589238DBB2FBF02C02093E60C80E533
:103AD0008CBD1DBC60E880E090E00E94211D65E582
:103AE0008BE190E00E94211D65E58AE190E00E9453
:103AF000211D8091E80C882351F09FB7F894209104
:103B0000E80C8091E60C213029F58DBB9FBF80E049
:103B100090E49983888380E090E69987888780E0A5
:103B200098E49B838A8380E098E69B878A8780E07D
:103B300090E59D838C8380E090E79D878C8780E073
:103B400098E59F838E8380E098E79F878E87DF913B
:103B5000CF9108958FBFDBCFCF92DF92EF92FF928C
:103B60000F931F93CF93DF93EC017A018B016C01CC
:103B7000C40ED51ECC15DD05A1F00E941D1D80EFE1
:103B80000E94161D8D2F0E94161D8C2F0E94161D3F
:103B90002196F80181918F010E94161D0E941F1D20
:103BA000E9CFC701DF91CF911F910F91FF90EF9067
:103BB000DF90CF9008951F93CF93DF931F92CDB7DF
:103BC000DEB7182F99830E941D1D8FE00E94161DDD
:103BD0009981892F0E94161D812F0E94161D80E059
:103BE0000E94161D89830E941F1D89810F90DF91FD
:103BF000CF911F9108951F93CF93DF93182F60E209
:103C000070E00E944B19C82FD0E061E270E0812F74
:103C10000E944B19DC2FCC279E01282BC901DF9174
:103C2000CF911F910895FF920F931F93CF93DF932E
:103C3000F62EC0E0D0E08F2D0E94FB1D8C01892B59
:103C400021F08F2D0E94FB1DEC01C017D10799F7C1
:103C5000CE01DF91CF911F910F91FF9008951F9397
:103C6000CF93DF93182F66E270E00E944B19C82FA4
:103C7000D0E067E270E0812F0E944B19DC2FCC2747
:103C80009E01282BC901DF91CF911F910895FF92CA
:103C90000F931F93CF93DF93F62EC0E0D0E08F2DCC
:103CA0000E942F1E8C01892B21F08F2D0E942F1E28
:103CB000EC01C017D10799F7CE01DF91CF911F9189
:103CC0000F91FF9008956F927F928F929F92AF9283
:103CD000BF92CF92DF92EF92FF920F931F93CF93F9
:103CE000DF931F92CDB7DEB7882E962E6A01590159
:103CF00064E270E0892D99830E944B19E82EF12C23
:103D000065E270E0892D0E944B19FE2CEE24E82A12
:103D100037016C0C7D1CA3015770E82C9981F92E9A
:103D2000E90CF11CE90CF11CF70180819181840FF1
:103D3000951F9A01200F311F2130384098F060E024
:103D400078E06B01C41AD50AA601B5010E94AC1D2A
:103D5000A8014C195D09B5016C0D7D1DF70180812D
:103D6000918102C0A801B5010E94AC1D060D171D6E
:103D7000412F64E270E0892D0E945719402F65E2BF
:103D800070E0892D0F90DF91CF911F910F91FF90DF
:103D9000EF90DF90CF90BF90AF909F908F907F90EB
:103DA0006F900C9457190F931F9389019A0140E06B
:103DB00050E00E94631E1F910F910895CF92DF92F1
:103DC000EF92FF920F931F93CF93DF93EC017A0151
:103DD0008B016C01C40ED51ECC15DD05A9F00E9427
:103DE0001D1D8FE00E94161D8D2F0E94161D8C2F09
:103DF0000E94161D219680E00E94161DF8018193F5
:103E00008F010E941F1DE8CFC701DF91CF911F9145
:103E10000F91FF90EF90DF90CF900895AF92BF92F7
:103E2000CF92DF92EF92FF920F931F93CF93DF9386
:103E30001F921F92CDB7DEB75A834983590129815A
:103E40003A8137706C01C60ED11CC60ED11CF6012A
:103E500080859185820F931FA801420F531F413027
:103E6000584098F0E0E0F8E07F01E21AF30AA70179
:103E7000B5010E94DE1EA8014E195F09B5016E0D45
:103E80007F1DF6018085918502C0A801B5010F90C4
:103E90000F90DF91CF911F910F91FF90EF90DF90E6
:103EA000CF90BF90AF900C94DE1E8F929F92AF92F6
:103EB000BF92CF92DF92EF92FF920F931F93CF9317
:103EC000DF936C01962E5A017901802E68E270E032
:103ED000892D0E944B19C82FD0E069E270E0892D2E
:103EE0000E944B19DC2FCC27C82B87019501AE010E
:103EF000692DC6010E940E1F81101AC0CE0DDF1D54
:103F00004D2F68E270E0892D0E9457194C2F69E20D
:103F100070E0892DDF91CF911F910F91FF90EF906D
:103F2000DF90CF90BF90AF909F908F900C945719D7
:103F3000DF91CF911F910F91FF90EF90DF90CF9085
:103F4000BF90AF909F908F900895CF93C62F61E060
:103F500070E08C2F0E94571961E070E08C2F0E9456
:103F60004B198111F9CFCF9108950E9624E1FC01F0
:103F700011922A95E9F70895CF93DF93EC01625FE0
:103F80007F4F0E94163FCE01DF91CF910895CF93CE
:103F9000DF93EC016E5E7F4F0E94163FCE01DF91F2
:103FA000CF910895CF93DF93EC016A5E7F4F0E941B
:103FB000163FCE01DF91CF910895CF93DF93EC01AF
:103FC000625E7F4F0E94163FCE01DF91CF91089530
:103FD00080E3FB0180833296842F82958F7090E17D
:103FE000899F401911244A3014F4405D01C0495C96
:103FF0004293482F8111F0CF08950F9300E020E005
:1040000040E060E08AED9CE00E940A3F0F91089535
:104010007F928F929F92AF92BF92CF92DF92EF9258
:10402000FF920F931F93CF93DF93CDB7DEB7AC977B
:104030000FB6F894DEBF0FBECDBF7C01762E942E56
:10404000852E20E2B22ECE0101966C01FC012B2DB3
:1040500011922A95E9F70FEF2FEF4FEF6FEF86964A
:104060000E940A3F80EE96E09AA389A389A59AA5AB
:10407000ABA5BCA58BA39CA3ADA3BEA387010D5B81
:104080001F4F43E450E0BE016F5D7F4FC8010E94A7
:104090000317019609F4BFC081E089838A8386E013
:1040A000A82EAB821C82F70164817581868197817D
:1040B0000E944D466D837E838F83988789869A867A
:1040C00080E890E09C878B874CE150E0B601C80106
:1040D0000E940F17F6012B2D11922A95E9F747013F
:1040E00088E0880E911CF401D60101900D92AA94EB
:1040F000E1F740E150E0B601C8010E940F17F60158
:104100001192BA94E9F796E0A92EB12C40E250E062
:10411000B601C8010E940F17F1E0AF1AB108B1F75C
:1041200083E6898392E89A8393E59B838C8385E376
:104130008D8381E08E837F829DE3988797E09987C6
:104140008A8786E0F401DE011B9601900D928A9524
:10415000E1F78CE0898B8A8B65EA76E0CE014396A5
:104160000E942F49F7014385BE01675E7F4FC7015B
:104170000E94E81FF7014485BE01655E7F4FC701BD
:104180000E94E81FF7014585BE01635E7F4FC701AE
:104190000E94E81F4EE150E0B601C8010E940F17CF
:1041A000F3E07F121EC082E3898384E08A83F701F3
:1041B00096859B8397859C8390899D8391899E8317
:1041C00096E39F838887828D8987838D8A87848DF4
:1041D0008B87858D8C874CE050E0B601C8010E942A
:1041E0000F1787E3898386E08A8391E09B8393E0BE
:1041F0009C838D838FE08E838AE38F838BE3888714
:104200008FEF898749E050E0B601C8010E940F177F
:10421000C8010E940B17AC960FB6F894DEBF0FBE14
:10422000CDBFDF91CF911F910F91FF90EF90DF9065
:10423000CF90BF90AF909F908F907F9008952F92D6
:104240003F924F925F926F927F928F929F92AF9226
:10425000BF92DF92EF92FF920F931F93CF93DF9362
:10426000CDB7DEB7E4970FB6F894DEBF0FBECDBF73
:104270007C011A012B0139010E9425444B015C018C
:1042800087010D5B1F4FC8010E94B1171816190650
:10429000A4F00E942544DC01CB0188199909AA09E0
:1042A000BB09281639064A065B06F0F062E370E0A7
:1042B00080E090E00E945644E6CF42E250E0BE012A
:1042C0006F5F7F4FC8010E944C178981823031F4A3
:1042D000F801848995898334910541F0D12CC80176
:1042E0000E94ED168D2D5FC18FEF5DC16D817E81C6
:1042F0008F8198850E944D464B015C01F3016083DC
:1043000071838283938346E050E0B701685F7F4FFB
:10431000CE014D960E940549892B99F4F7018081C1
:104320009181A281B38188169906AA06BB0648F03E
:1043300084819581A681B78188159905AA05BB0559
:1043400028F4C8010E94ED1680E02DC189899A8960
:10435000AB89BC89F70186879787A08BB18B8EECE0
:10436000A82EB12CC8010E942317F1E0AF1AB108A2
:10437000C9F7D12CC70182969AA789A7F701B696EB
:10438000FCA7EBA708969EA78DA73C974F0189969F
:1043900098AB8FA73897FAABE9AB1701F6E12F0E70
:1043A000311CC5979CAB8BABC8010E94D316181665
:1043B00019060CF094CFC8010E942317833391058E
:1043C00009F4CBC0FCF481309105C9F11CF4892BB0
:1043D00059F3DDC083309105D1F1069709F0D7C0BC
:1043E000C8010E9423175C0144E050E06BA97CA93E
:1043F000C8010E944C17412C512CBB24F4E0AF1A89
:10440000B10840C08A33910509F47BC03CF4853380
:10441000910569F0C69709F440C0B9C08B33910586
:1044200009F485C08F3F910509F4BECFB0C0C80123
:104430000E942317C8010E942317D82EB5CFC801A8
:104440000E94231744E050E069A97AA93AC0C80144
:104450000E9423175C0144E050E0B101C8010E94B2
:104460004C17412C512CBB2494E0A91AB1084A14D2
:104470005B040CF099CFC8010E942317EFEF4E1A8E
:104480005E0AF5CF4A145B040CF08ECFC8010E947F
:1044900023178FEF481A580AF5CFC8010E94231737
:1044A000B82EF701828D811110C0838D81110DC04E
:1044B000848D81110AC0858D811107C044E050E0D0
:1044C000B401C8010E944C176FCFEFA5F8A9408036
:1044D000518062807380B401CE0183960E94163FA2
:1044E0008DA19EA1AFA1B8A584159505A605B70518
:1044F00029F3BB2009F458CFC8010E942317BA94AE
:10450000F8CFC8010E94231744E050E06BA57CA5BA
:10451000C8010E944C17F70166A177A180A591A55B
:104520000E944D4666A377A380A791A73DCFC801FF
:104530000E94231744E050E06DA57EA5C8010E94AB
:104540004C17F70162A573A584A595A50E944D4659
:1045500062A773A784A795A727CFC8010E94231736
:1045600044E050E069A57AA5C8010E944C17F70104
:1045700062A173A184A195A10E944D4662A373A379
:1045800084A395A366A777A780AB91AB0DCFC80195
:104590000E942317B82EBB2009F406CFC8010E9441
:1045A0002317BA94F8CFE4960FB6F894DEBF0FBE87
:1045B000CDBFDF91CF911F910F91FF90EF90DF90D2
:1045C000BF90AF909F908F907F906F905F904F9033
:1045D0003F902F9008952F923F924F925F926F924B
:1045E0007F928F929F92AF92BF92CF92DF92EF9283
:1045F000FF920F931F93CF93DF93CDB7DEB727972B
:104600000FB6F894DEBF0FBECDBF8C0120ED37E0B2
:1046100040E050E061E070E080E090E00E94B14056
:10462000D80114966D937D938D939C931797F80101
:1046300060837183828393835801F3E4AF0EB11CCE
:10464000C5010E94EE1664E470E0C5010E94841763
:10465000882309F43CC10E9425442B013C01812C94
:10466000912C1D82C8018E5B9F4F9F838E8343E0F8
:10467000342E58EEC52E53E0D52EE12CF12C62E0FD
:10468000262EAE81BF818C91833009F407C1811140
:1046900020C0F80184819581A681B7810196A11D72
:1046A000B11D84839583A683B7830E942544641932
:1046B000750986099709A70196010E940446A90178
:1046C00061E0C8010E94082081E0AE81BF818C9327
:1046D000C6C08430F9F4F80184819581A681B78140
:1046E0000196A11DB11D84839583A683B7830E9483
:1046F00025446419750986099709A70196010E9446
:104700000446A90163E0C8010E940820AE81BF8170
:104710002C92A5C0813061F5F80142AD53AD64AD76
:1047200075AD9E012F5F3F4FC8010E941F218D83F1
:10473000823009F094C089819A81AB81BC81F801F3
:1047400084839583A683B7830E94254464197509E1
:1047500086099709A70196010E940446A90163E012
:10476000C8010E940820ED81AE81BF81EC937EC01C
:10477000823009F074C0D801DA964D915D916D9147
:104780007C91DD979E012F5F3F4FC8010E941F2142
:104790008D83853009F05CC0EE81FF813082F801A5
:1047A00082A193A1A4A1B5A1892B8A2B8B2B41F4C3
:1047B00084E893E0A0E0B0E082A393A3A4A3B5A310
:1047C000F80186A197A1A0A5B1A5892B8A2B8B2BD7
:1047D00061F482A193A1A4A1B5A1B695A7959795DF
:1047E000879586A397A3A0A7B1A7F80182A593A553
:1047F000A4A5B5A5892B8A2B8B2BA9F482A193A103
:10480000A4A1B5A1AC01BD0123E0769567955795AC
:1048100047952A95D1F7841B950BA60BB70B82A75A
:1048200093A7A4A7B5A7F80186A197A1A0A5B1A5B4
:1048300086A797A7A0ABB1AB82A593A5A4A5B5A564
:1048400082AB93ABA4ABB5AB88248394912C0EC000
:10485000FD81F63021F4AE81BF811C9207C0BD817D
:10486000BF3F21F4EE81FF8110821D82F1E08F169F
:10487000910409F406CF0E942544DC01CB01841980
:104880009509A609B709F80126A937A940AD51AD88
:10489000281739074A075B0708F0F3CEC5010E94C5
:1048A000EE16F80184819581A681B7810196A11D3C
:1048B000B11D84839583A683B7830E942544F801A4
:1048C000FE966083718382839383C40102C080E07B
:1048D00090E027960FB6F894DEBF0FBECDBFDF91F4
:1048E000CF911F910F91FF90EF90DF90CF90BF90ED
:1048F000AF909F908F907F906F905F904F903F9080
:104900002F900895CF92DF92EF92FF920F931F9313
:10491000CF93DF93EC016B011AA21BA21CA21DA274
:104920001EA21FA218A619A61AA61BA61CA61DA683
:104930002EAB3FAB48AF59AFEAAEFBAE0CAF1DAFED
:104940008C01085F1F4F86E0F80111928A95E9F704
:10495000CE010E94B51F86E0F601D80101900D92AC
:104960008A95E1F7FE01EE5BFF4F1082CE01DF91E9
:10497000CF911F910F91FF90EF90DF90CF900C940B
:10498000EB22FB014281538164817581FC014283EA
:10499000538364837583178216820895CF93DF93C0
:1049A000FB0120E080E090E0AAE03191332301F1A7
:1049B00060ED630F6A3080F4A89FB001A99F700D6D
:1049C0001124CB01C097830F911D37FD9A958F3F1E
:1049D000910559F350F313C03E3289F4233079F036
:1049E000EA01C20FD11D8A832F5F80E090E0DDCF06
:1049F000233029F4FA01858381E090E002C080E051
:104A000090E0DF91CF9108950F9300E020E040E027
:104A100060E080EE9CE00E940A3F0F9108958F9223
:104A20009F92AF92BF92CF92DF92EF92FF920F933D
:104A30001F93CF93DF9300D01F921F92CDB7DEB7A5
:104A40008C016B010E942544F801778366837627E9
:104A5000672776277A836983085F1F4F42E050E01B
:104A6000BE016F5F7F4FC8010E940F1781E090E089
:104A70009C838B8342E050E0BE016D5F7F4FC80195
:104A80000E940F1780E091E09C838B8342E050E00E
:104A9000BE016D5F7F4FC8010E940F171C821B82F1
:104AA00042E050E0BE016D5F7F4FC8010E940F17CA
:104AB00042E050E0BE016D5F7F4FC8010E940F17BA
:104AC00042E050E0BE016D5F7F4FC8010E940F17AA
:104AD0005601F5018081882329F1C6017C01FC0182
:104AE00020810196211116C0570147018C189D089D
:104AF0001814190494F48D8241E050E0BE016B5FFC
:104B00007F4FC8010E940F17A401B601C8010E947F
:104B10000F1703C02E3211F7E7CF6701FFEFCF1A4F
:104B2000DF0AD7CF1D8241E050E0BE016B5F7F4FAF
:104B3000C8010E940F17E12CFF24F394FC82EB8242
:104B400042E050E0BE016D5F7F4FC8010E940F1729
:104B5000FC82EB8242E050E0BE016D5F7F4FC801F6
:104B60000E940F1781E090E00F900F900F900F9030
:104B70000F90DF91CF911F910F91FF90EF90DF90F9
:104B8000CF90BF90AF909F908F9008954F925F927B
:104B90006F927F928F929F92AF92BF92CF92DF924D
:104BA000EF92FF920F931F93CF93DF93CDB7DEB7B2
:104BB00065970FB6F894DEBF0FBECDBF7C015B01D9
:104BC0006A010E9425442B013C018701085F1F4FA9
:104BD0004501A12CB12CC8010E94B1171816190665
:104BE000A4F00E942544DC01CB0184199509A60993
:104BF000B70988169906AA06BB06D0F062E370E0F2
:104C000080E090E00E945644E6CFF7014281538154
:104C100064817581808D918DA28DB38D4817590760
:104C20006A077B0741F4848D958DC59721F406C0F2
:104C30002FEF3FEFFDC02EEF3FEFFAC0C8010E94FB
:104C4000D3160C97ECF04CE050E0BE016F5F7F4F45
:104C5000C8010E944C176C818B810E94D3409A8BB3
:104C6000898BF701E680F7806A8189810E94D340B1
:104C7000E816F90641F489899A8997FF04C009C0AA
:104C80002DEF3FEFD5C0C8010E94ED162CEF3FEF8E
:104C9000CFC08F709270892B31F0C8010E94ED1641
:104CA0002BEF3FEFC5C068858F810E94D3405C0128
:104CB000892B31F4C8010E94ED162AEF3FEFB8C0EE
:104CC000E12CF12C6E818D810E94D340E816F9060B
:104CD00040F541E050E0BE01635F7F4FC8010E9494
:104CE0004C178D85811113C08D858111F2CFC801BC
:104CF0000E942317C8010E942317C8010E9423178E
:104D0000C8010E942317FFEFEF1AFF0ADBCF8D8542
:104D10009FEF980F9D87882339F3C8010E942317BE
:104D2000F6CFE12CF12C41E050E0BE016D5E7F4FEB
:104D3000C8010E944C178B89982F907C61F48823BE
:104D400071F08B899FEF980F9B8B882341F0C801EE
:104D50000E942317F6CFC8010E9423171B8A8B8954
:104D60008111E1CF42E050E0BE01615F7F4FC80199
:104D70000E944C1742E050E0BE01635F7F4FC801C4
:104D80000E944C17C8010E942317C8010E942317D4
:104D9000C8010E942317C8010E94231742E050E077
:104DA000BE016F5E7F4FC8010E944C178F859889A6
:104DB0008115914001F52D853E8532272327322725
:104DC00021303105C1F489899A898115944031F0E7
:104DD000C8010E94ED1627EF3FEF2AC0B6016E5FB3
:104DE0007F4F44E050E0C8012C8B3D8B0E944C1754
:104DF0002C893D891DC0812C912C89899A899827FD
:104E0000892798278816990638F4C8010E94231725
:104E10008FEF881A980AF1CFEFEFEE1AFE0AEA1424
:104E2000FB0409F080CFC8010E94ED1626EF3FEF8A
:104E3000C90165960FB6F894DEBF0FBECDBFDF91F6
:104E4000CF911F910F91FF90EF90DF90CF90BF9087
:104E5000AF909F908F907F906F905F904F9008954C
:104E60008F929F92AF92BF92CF92DF92EF92FF927A
:104E70000F931F93CF93DF9300D000D0CDB7DEB751
:104E80007C014B015A010E94CE248C01892B09F030
:104E90005BC0F70142815381648175818091E20C8E
:104EA0009091E30CA091E40CB091E50C48175907E0
:104EB0006A077B0709F44BC00E9425446701F8E0AC
:104EC000CF0ED11C6F7077277C5FC6010E948417BC
:104ED000813009F03EC080EE96E09A838983F70125
:104EE00082819381A481B5818B839C83AD83BE83B2
:104EF00045E350E0BE016F5F7F4FC6010E9403177C
:104F0000892B19F400E010E01BC0B401C7010E9416
:104F10000F25892BB9F3C6010E940B17892B91F33A
:104F200083E0882E912CA50168E873E1C7010E94F7
:104F3000C6258C01F1E08F1A910811F0019699F3C2
:104F4000C6010E94EE1605C001E010E002C00EEF9F
:104F50001FEFC80126960FB6F894DEBF0FBECDBF77
:104F6000DF91CF911F910F91FF90EF90DF90CF9045
:104F7000BF90AF909F908F900895CF93CFB7F89444
:104F80008091E90C811127C0E1E4F3E08491EBEF1B
:104F9000F2E09491E82FF0E0EE0FFF1FEA57FC4F8C
:104FA000A591B491EC91E92321F461E085E30E949D
:104FB000AB4561E085E30E946F458CB580618CBD97
:104FC0008CB580648CBD61E084E30E946F4561E034
:104FD00083E30E946F458091E90C8F5F8093E90C19
:104FE000CFBFCF910895CF93DF93C7E1D2E08091F7
:104FF000EA0C9091EB0C6991DC01ED91FC91019030
:10500000F081E02D1995B2E0C132DB0781F7DF9125
:10501000CF910895FC013196079620E030E0419150
:10502000240F311DE817F907D1F788279927821B2C
:10503000930B089587E192E00E940A28E7E1F2E0ED
:105040009783808708959093EB0C8093EA0C83EF0D
:1050500097E29093ED0C8093EC0C0895E7E1F2E079
:105060008383758366830E941A28E091EC0CF0918B
:10507000ED0C1994BC0186E00C942E28BC0182E151
:105080000C942E28CF93DF931F92CDB7DEB76983A0
:10509000DC01ED91FC910280F381E02D41E050E0D4
:1050A000BE016F5F7F4F19950F90DF91CF910895EB
:1050B000CF93DF93EC01898D9A8D009739F481E0CD
:1050C00090E09B838A8380E090E00BC0FC01138218
:1050D00012820E943535E98DFA8D22813381232B8E
:1050E00071F7DF91CF910895FC01818D928D00972A
:1050F00011F00C9489320895CF93DF931F92CDB7AE
:10510000DEB741E050E0BE016F5F7F4F0E94A530E7
:10511000019719F4898190E002C08FEF9FEF0F9003
:10512000DF91CF910895FC01818D928D009711F050
:105130000C947C288FEF9FEF08950F931F93CF93CC
:10514000DF93FC01818D928D0097B9F0EF010E94F1
:105150007C288C010F3F8FEF180791F0898D9A8D75
:10516000FC0142855385648575854150510961096B
:1051700071090E94F331C80105C080E090E002C0CF
:105180008FEF9FEFDF91CF911F910F910895EF92D5
:10519000FF920F931F93CF93DF93EC017B018A0162
:1051A0001B821A8288EE93E0A0E0B0E08C839D839E
:1051B000AE83BF8380EB96E0998388838DE190E096
:1051C0000E946E469A8F898F009779F02DE1F70142
:1051D000DC0101900D922A95E1F74CE050E0B80116
:1051E000CE010C960E943649188EDF91CF911F9107
:1051F0000F91FF90EF900895FC011382128288EEC8
:1052000093E0A0E0B0E084839583A683B78380EB2E
:1052100096E091838083128E118E14860895FC018E
:10522000818D928D009729F00E94F33191E08111D8
:1052300001C090E0892F0895DC015996ED91FC9111
:105240005A97309729F062857385848595850895EE
:105250006FEF7FEFCB010895DC015996ED91FC9142
:105260005A97309729F063897489858996890895BA
:1052700060E070E0CB010895CF92DF92EF92FF9251
:10528000CF93DF93FC01218D328D232BD9F0EC01DC
:105290000E942C296B017C01CE010E941C29A701D0
:1052A0009601261B370B480B590BDA01C9018115F2
:1052B00030E89307A105B10538F08FEF9FE7A0E034
:1052C000B0E002C080E090E0DF91CF91FF90EF90DE
:1052D000DF90CF900895CF93DF93EC01898D9A8D65
:1052E000009741F00E94D032898D9A8D0E94034729
:1052F0001A8E198EDF91CF910895DC015996ED91A8
:10530000FC915A97309721F081E09581911101C06D
:1053100080E00895442339F00E940E3591E0811118
:1053200003C090E001C091E0892F08950F931F936F
:10533000CF93DF93EC018B0141E00E94793A811118
:1053400009C040E0B801CE01DF91CF911F910F91CC
:105350000C94793A81E0DF91CF911F910F910895DC
:105360000F931F93CF93DF93DA01EB0128813981EB
:10537000FC01E20FF31F40814F3211F42F5F3F4FCA
:105380008D01E0E0F0E0AC01420F531FEA015881CB
:105390005F3259F0552349F031962F5F3F4FE801B6
:1053A00059938E01EC30F10571F7EA0FFB1F108263
:1053B000FC01E20FF31F40814F3211F42F5F3F4F8A
:1053C000FB0131832083FC01E20FF31F81E0908118
:1053D000911101C080E0DF91CF911F910F9108954D
:1053E0004F925F926F927F928F929F92AF92BF92F5
:1053F000CF92DF92EF92FF920F931F93CF93DF93A1
:10540000CDB7DEB7C954D1090FB6F894DEBF0FBED1
:10541000CDBF5C016B013A01490119A218A282ECCF
:1054200096E09F8F8E8F1BA21C821B829A8389839A
:105430001E822A961FAE1EAE2A978B017E018EE138
:10544000E80EF11C44244394AE01455C5F4FBE015D
:10545000685B7F4FC5010E94B029582E482F442514
:105460009401BE01655C7F4FC801F301199581115C
:1054700008C00C151D0519F0C8010E94D03280E04B
:1054800027C05520B9F021E0AE01455C5F4FB8015F
:10549000C7010E940434582E0C151D0599F0C8014F
:1054A0000E94D032552059F3902F812F8701E92E89
:1054B000F82ECACF0C151D0519F0C8010E94D03274
:1054C00081E006C08823D9F28E010F5F1F4FECCF19
:1054D000C75BDF4F0FB6F894DEBF0FBECDBFDF91C5
:1054E000CF911F910F91FF90EF90DF90CF90BF90E1
:1054F000AF909F908F907F906F905F904F900895A6
:105500000F931F93CF93DF93EC01462F61E00E942E
:105510004E2D882389F08E01045F1F4FBE01C80104
:105520000E949629882341F0B801CE018A960E94F4
:10553000543091E0811101C090E0892FDF91CF912B
:105540001F910F910895FC01DB0112968D919C91A2
:1055500013979383828382EC96E0918380831496E1
:105560008C911497848315968C9115978583169644
:105570004D915D916D917C9119974683578360871A
:1055800071871A964D915D916D917C911D9742871F
:105590005387648775871E964D915D916D917C91BF
:1055A000519746875787608B718B52968C91529793
:1055B000828B53964D915D916D917C915697438B63
:1055C000548B658B768B57964D915D916D917C9147
:1055D0005A97478B508F618F728F5B968D919C91FC
:1055E0005C97948F838F08954F925F926F927F9212
:1055F0008F929F92AF92BF92CF92DF92EF92FF92E3
:105600000F931F93CF93DF93CDB7DEB7C754D10964
:105610000FB6F894DEBF0FBECDBF6C015A01490131
:10562000665D7F4F7E018EE1E80EF11CC7010E948E
:10563000A32A1C821B8282EC96E09A8389831E82B5
:105640008501FE0131963F0127016FE270E0C8013C
:105650000E941B490097D9F1F80120812F3219F4DB
:105660000F5F1F4FF2CF801B8D3008F08CE0E82ECB
:10567000F12CA701B801CE01CB960E943649EBE38D
:10568000F0E0EC0FFD1FEE0DFF1D1082C3010E9424
:10569000D03221E0AE01455C5F4FB201C3010E94F0
:1056A0000434811109C0F6011382128282EC96E063
:1056B00091838083158214C00E0D1F1DC2010E94AC
:1056C000D032942D852D2301692E782EBECF0A1954
:1056D0001B09F40111830083B201C6010E94A32AB1
:1056E000C601C95BDF4F0FB6F894DEBF0FBECDBF5A
:1056F000DF91CF911F910F91FF90EF90DF90CF90AE
:10570000BF90AF909F908F907F906F905F904F90E1
:105710000895AF92BF92CF92DF92FF920F931F93A3
:10572000CF93DF93CDB7DEB7C955D1090FB6F89443
:10573000DEBF0FBECDBF6C015B018A01F22E9E0160
:10574000285A3F4FCE01CB960E94F42A6A968EAD1E
:105750009FAD6A97080F191FF801808181110AC057
:10576000BE01655C7F4FCE0101960E94A32A4BE5E6
:1057700052E041C019A218A282EC96E09F8F8E8F52
:105780001BA221968FAD2197811104C0C6010E94F2
:10579000FC2837C08250823060F4B501665D7F4FCF
:1057A0002F2DA801CE014E960E940434811110C005
:1057B000EDCF2F2DA801BE01655C7F4FCE014E9627
:1057C0000E940434882311F3CE01CB960E94D0327C
:1057D0009F2D967041F049A95AA96BA97CA9CE01C9
:1057E0004E960E94F331BE01625E7F4FCE0101965C
:1057F0000E94A32AA801BE016F5F7F4FC6010E94CD
:10580000C728C601C75ADF4F0FB6F894DEBF0FBED8
:10581000CDBFDF91CF911F910F91FF90DF90CF907F
:10582000BF90AF900895FB01BC01665D7F4F20E003
:1058300030E04AE859E2CF010C94F029EEEEFCE0AA
:10584000158216821186138682E090E0A0E0B0E017
:1058500084879587A687B78713A215A614A682EC1E
:1058600096E093A782A717A608958FEF0C94161DB4
:1058700061E0FC0184810E94AB458091370D882353
:1058800021F01092370D0C9429120895CF93DF93D5
:10589000EC018091370D811109C081E08093370DB3
:1058A0008091380D9091390D0E940F1260E08C812B
:1058B000DF91CF910C94AB45CF93DF93EC018E81B8
:1058C000882389F08F8198859C012F5F3F4F38870F
:1058D0002F838230924018F40E94352CF3CFCE01F2
:1058E0000E94382C1E82DF91CF9108950F93CF93A1
:1058F000DF931F921F92CDB7DEB7673028F026E105
:10590000FC01258380E047C06230F9F058F466233B
:10591000A9F0613079F500E021E040E059E06DE365
:1059200070E02EC06430F9F0B8F0653019F500E091
:1059300021E040E950ED63E070E022C000E021E0AA
:1059400040E458E76DE771E01BC000E021E040E86B
:1059500054E86EE170E014C000E021E040E452E45D
:105960006FE070E00DC000E021E040E251EA67E046
:1059700070E006C000E021E048E458EE61E070E02D
:10598000CE0101960E941D1989819A819093390D4B
:105990008093380D81E00F900F90DF91CF910F91A0
:1059A00008950F931F93CF93DF93EB010E9425443B
:1059B0008B010E94352C8F3F49F00E942544601BCB
:1059C000710B6C177D07A8F380E001C081E0DF91C7
:1059D000CF911F910F910895CF92DF92FF920F9375
:1059E0001F93CF93DF9300D01F92CDB7DEB76C012A
:1059F000F62E29833A834B835C830E945C2CC6017C
:105A00000E94462C6CE271E0C6010E94D12C8F2DC1
:105A100080640E94161D08E110E05C814B813A8190
:105A20002981DA01C901002E04C0B695A795979582
:105A300087950A94D2F729833A834B835C830E942B
:105A4000161D0850110929813A814B815C81083F5C
:105A50008FEF180731F7FF2029F0E8E0FE1204C0AD
:105A600087E803C085E901C08FEF0E94161D10E092
:105A70000E94352CF601828787FF04C01F3F11F07A
:105A80001F5FF6CF0F900F900F900F90DF91CF9187
:105A90001F910F91FF90DF90CF9008957F928F928A
:105AA0009F92AF92BF92CF92DF92EF92FF920F93AD
:105AB0001F93CF93DF931F921F92CDB7DEB77C0168
:105AC000762EFC01138611861682158244830E946D
:105AD00025446B0161E0F70184810E946F4561E01C
