:100000000C94DE010C940F020C940F020C940F025E
:100010000C940F020C940F020C940F020C940F021C
:100020000C940F020C940F020C940F020C940F020C
:100030000C940F020C940F020C940F020C940F02FC
:100040000C940F020C940F020C940F020C940F02EC
:100050000C940F020C940F020C940F020C94413E6E
:100060000C940F020C94CB370C9401380C940F02B3
:100070000C940F020C940F020C940F020C940F02BC
:100080000C940F020C940F020C940F020C940F02AC
:100090000C940F020C940F020C940F020C940F029C
:1000A0000C940F020C940F020C940F020C940F028C
:1000B0000C940F020C940F020C940F020C940F027C
:1000C0000C940F020C940F020C940F020C946238E3
:1000D0000C9498380C940F020C94F9380C942F3926
:1000E0000C940F029A3F9D3F8C3F903F963FD43F28
:1000F000A13FA53FAB3FAF3FB33FB93FBD3FC13F7E
:10010000D43FC73FCB3FCF3F0C941E120C942B38EB
:100110000C9483120C94D43F0C94580E0C947C369F
:100120000C94FE0D0C948C3F0C94BF110C94D61FB4
:100130000C947F0E0C94AB3F0C945C240C94110E29
:100140000C943A0E0C9459390C949D3F0C94A111C7
:100150000C948B0F0C940E3A0C942F0E0C94963F2B
:100160000C94CB3F0C947B0E0C94AF3F0C946339F2
:100170000C94B33F0C94A20E0C94F00D0C942F0F22
:100180000C94C73F0C947F110C946F230C949F36F2
:100190000C9435380C94033A0C94F60F0C941F37DA
:1001A0000C94CF3F0C9448050C94472A0C9465237B
:1001B0000C9486130C943D120C94CC380C940C10B7
:1001C0000C94020E0C9414230C948A110C94CF1AE4
:1001D0000C94D5110C94A8310C9491110C940E240C
:1001E0000C94E1110C94070E0C94C13F0C94C522A1
:1001F0000C94B93F0C94BB040C9456120C94BD3F64
:100200000C9446230C942A230C9490390C946E364B
:100210000C94A9110C94010E0C94270E0C94A60EAC
:100220000C9490360C94A13F0C94BB100C94E413E6
:100230000C94610E0C94C0110C94C2380C94F026EE
:100240000C94FD360C94DB120C94EB0F0C94050E01
:100250000C94A5110C94C70F0C94DD110C94903FD5
:100260000C94A53F0C949A3F0C9462360C94F511B3
:100270007C3C3E5E2B3D3F2F5B5D3B2C2A225C008D
:1002800000000A0B02090C0D0E0807030401000010
:10029000000000000000000000000000000000005E
:1002A000000000000000000000000000121110001B
:1002B000000000000000000000000000000000003E
:1002C000000000000000010210202008081020405B
:1002D000102040800201020108040201010204080A
:1002E0001020408080402010080402018004020198
:1002F00080402010080402010804020101020408E1
:1003000010204080010204081020408005050505EA
:10031000070508080808020202020A0A080804047D
:1003200004040101010101010101030303030303AB
:100330000303040707070C0C0C0C0C0C0C0C02023A
:10034000020206060606060606060B0B0B0B0B0B37
:100350000B0B000020002300260029002C002F009A
:100360003200000100000301060109010000220023
:10037000250028002B002E0031003400020100006F
:10038000050108010B0100002100240027002A00BC
:100390002D003000330001010000040107010A01B3
:1003A000BB04F00DEB0F7F11E413CF1AD61FF0261C
:1003B000472A3538CC386339033A480511241FBE23
:1003C000CFEFD1E2DEBFCDBF00E00CBF16E0A0E072
:1003D000B2E0E0EEF8E800E00BBF02C007900D923B
:1003E000A834B107D9F720E1A8E4B6E001C01D9216
:1003F000A232B207E1F711E0CDEDD1E000E006C096
:1004000021970109802FFE010E94AB40C03DD1071A
:1004100080E00807A9F70E942E3E0C945E440C94DD
:10042000000061E08DE00E94D53F61E08DE00E9418
:1004300011406AEF70E080E090E00E94BC3E60E016
:100440008DE00E9411406AEF70E080E090E00E9431
:10045000BC3EEBCF24E0660F771F2A95E1F734E02E
:10046000880F991F3A95E1F720E030E0F901E60F97
:10047000F71FE55EF84F40815181F901E80FF91F40
:10048000E55EF84F518340832E5F3F4F20313105A9
:1004900069F70895FB019C01205F3F4FDC016D91DE
:1004A0007D91CD01419151916417750729F4A217EF
:1004B000B307A1F781E0089580E00895EF92FF92DD
:1004C0000F931F93CF93DF937C010BE117E0C0E004
:1004D000D0E0B701C8010E944A02811109C02196EB
:1004E000005F1F4FCC33D105A1F78FEF9FEF01C005
:1004F000CE01DF91CF911F910F91FF90EF90089562
:100500009C01205331092A30310540F02151310935
:1005100081E02630310518F080E0089581E00895EB
:10052000CF93DF930E945E0220910A02019649F464
:10053000222381F06AE272E088E39EE00E94733A2F
:1005400009C0222351F06EE272E088E39EE00E942F
:10055000733A03C0CFEFDFEF02C0C1E0D0E080917B
:100560000A02882331F064E372E088E39EE00E948F
:100570005C3ACE01DF91CF9108950F931F93CF93F3
:10058000DF9388E10E944140892BD1F18091F106EF
:100590009091F206892BA1F1E091F306F091F40617
:1005A000309761F48091EF069091F006009721F06A
:1005B00068E372E00E94733A0E941102C081D18107
:1005C00002811381CF010E943F3E1093F4060093F5
:1005D000F3062091F1063091F20621503109309353
:1005E000F2062093F106CE010E94102364E670E02B
:1005F00080E090E0DF91CF911F910F910C94BC3E71
:10060000DF91CF911F910F910895CF92DF92EF92DA
:10061000FF920F931F93CF93DF93EC0160EE74E092
:100620000E94063C6AE672E0CE010E943B3C67EB0A
:1006300072E0CE010E94E03C6DEE7AE0CE010E94B5
:10064000D93C8BE1E82E87E0F82E00E010E0F701BE
:1006500080819181892B89F10F5F1F4FB801CE01F5
:100660000E94033D6FE872E0CE010E94E03C67EE1D
:100670007AE0CE010E94D93CC12CD12CF701EC0DBF
:10068000FD1D60817181CE010E94033D61E972E030
:10069000CE010E94E03CF2E0CF0ED11C80E1C816F2
:1006A000D10461F761EE7AE0CE010E94D93CE0E12D
:1006B000EE0EF11C0C33110551F66BED7AE0CE0114
:1006C0000E94D93CCE01DF91CF911F910F91FF90F5
:1006D000EF90DF90CF900895CF92DF92EF92FF924C
:1006E0000F931F93CF93DF93EC0160EE74E00E94B1
:1006F000063C63E972E0CE010E943B3C6DEE7AE07D
:10070000CE010E94D93C8BE1E82E87E0F82E00E074
:1007100010E0F70180819181892B59F10F5F1F4F04
:10072000B801CE010E94033D6FE872E0CE010E9445
:10073000E03C67EE7AE0CE010E94D93CC12CD12C7E
:10074000F701EC0DFD1D6081CE010E94EF3CF2E04F
:10075000CF0ED11C80E1C816D10491F761EE7AE08A
:10076000CE010E94D93CE0E1EE0EF11C0C331105E4
:1007700081F66BED7AE0CE010E94D93CCE01DF918B
:10078000CF911F910F91FF90EF90DF90CF90089540
:10079000EF92FF920F931F93CF93DF9300D000D07F
:1007A000CDB7DEB78C017B0169ED72E08FE596E095
:1007B0000E943B3C63E27BE0C7010E94773D8111D0
:1007C00006C060EE72E08FE596E00E943B3C60EE72
:1007D00074E0C8010E94063C81E08093650680E0D9
:1007E0000E945A3FBC01990F880B990B0E94453B10
:1007F000E12CF12C80910B0290910C02E816F90685
:10080000DCF46AE070E080E090E00E944D3BAB01D8
:10081000BC012AE0CE0101960E947E3CBE016F5FC2
:100820007F4FC8010E94D93CCE0101960E94983B9F
:100830008FEFE81AF80ADECFB80181E19BE00E9451
:100840001B3CC80126960FB6F894DEBF0FBECDBF85
:10085000DF91CF911F910F91FF90EF900895CF926C
:10086000DF92EF92FF920F931F93CF93DF9300D00D
:1008700000D0CDB7DEB77C016B016DE676E087E690
:1008800096E00E943B3CB60187E696E00E94D73D89
:10089000F601048115810F5F1F4F080F191F65EEC8
:1008A00072E0CE0101960E94063CA801BE016F5F76
:1008B0007F4F87E696E00E94BA3D8C01B60187E63D
:1008C00096E00E94D73DF601448155814F5F5F4F0E
:1008D000480F591F980167E676E0C7010E94DB3D8B
:1008E000CE0101960E94983BC70126960FB6F89458
:1008F000DEBF0FBECDBFDF91CF911F910F91FF9053
:10090000EF90DF90CF900895EF92FF920F931F9397
:10091000CF93DF93EC017B010E811F8184E090E097
:100920000E943D3E9F838E83009751F48881998178
:10093000009721F067EE72E00E94733A0E94110264
:10094000FC0113821282F182E0822C813D81232BF3
:1009500019F49D838C8303C0F801938382838A8179
:100960009B8101969B838A83DF91CF911F910F9189
:10097000FF90EF9008950F9300E020E040E060E0EA
:1009800089E29BE00E94DC3968E173E083E29BE04E
:100990000E94063C06E221E048EA60EC8DE19BE023
:1009A0000E94DC3960E570E087E19BE00E94501016
:1009B00060EE74E081E19BE00E94063C6EE173E032
:1009C0008BE09BE00E94063C65E273E085E09BE0E3
:1009D0000E94063C6BE673E08FEF9AE00E94063CB3
:1009E00065E773E089EF9AE00E94063C6EEC72E0E6
:1009F00083EF9AE00E94063C60E873E08DEE9AE097
:100A00000E94063C66EC73E087EE9AE00E94063C8A
:100A100060ED73E081EE9AE00E94063C65EE73E0C3
:100A20008BED9AE00E94063C6AEF73E083E097E06A
:100A30000E94063C64E074E08DEF96E00E94063C64
:100A400060E174E087EF96E00E94063CEFEEF6E08E
:100A500013821282158214821782168211821082EA
:100A60004AE060E870E087E696E00E94523C60EE63
:100A700074E08FE596E00E94063C82E596E00E94D5
:100A8000040F60EE74E08CE496E00F910C94063C49
:100A9000CF93DF938CE496E00E94983B8FE596E03D
:100AA0000E94983B87E696E00E94983BC091F3062F
:100AB000D091F406CD2B71F08091F3069091F4065D
:100AC000FC01C281D3810E943F3ED093F406C093C3
:100AD000F306F0CF87EF96E00E94983B8DEF96E00B
:100AE0000E94983B83E097E00E94983B8BED9AE050
:100AF0000E94983B81EE9AE00E94983B87EE9AE034
:100B00000E94983B8DEE9AE00E94983B83EF9AE01A
:100B10000E94983B89EF9AE00E94983B8FEF9AE001
:100B20000E94983B85E09BE00E94983B8BE09BE015
:100B30000E94983B81E19BE00E94983B83E29BE00E
:100B4000DF91CF910C94983B8F929F92AF92BF927E
:100B5000CF92DF92EF92FF920F931F93CF93DF9389
:100B6000CDB7DEB76B970FB6F894DEBF0FBECDBF23
:100B7000409103075091040721E063EE7BE0CE0132
:100B800001960E945B26CE0101960E944F24882385
:100B900009F450C08BE1C82E87E0D82E9AE0892E48
:100BA000912CA12CB12CE12CF12CCE0101960E94AC
:100BB0000E24892BD9F100E010E0CE0101960E94AD
:100BC0006523F601E00FF11F9183808320910A02D3
:100BD000222369F04AE050E0BC0188E39EE00E94D5
:100BE0002A3B61E972E088E39EE00E945C3A0E5F76
:100BF0001F4F0031110509F78FEFE81AF80AB50108
:100C0000A401CE0101960E94E12380910A0288236B
:100C100021F088E39EE00E946F3A8AE0880E911CE2
:100C2000A11CB11C80E1C80ED11CBFCFF0920A07F5
:100C3000E0920907CE0101960E943D246B960FB603
:100C4000F894DEBF0FBECDBFDF91CF911F910F9102
:100C5000FF90EF90DF90CF90BF90AF909F908F90DC
:100C60000895CF92DF92EF92FF920F931F93CF934D
:100C7000DF93CDB7DEB76B970FB6F894DEBF0FBE2C
:100C8000CDBF2091090730910A07D90144E0AA0F8E
:100C9000BB1F4A95E1F740E050E0FC016191719182
:100CA000CF01FA01EA0FFB1FE55EF84F7183608305
:100CB0004E5F5F4F4031510581F72F5F3F4F3093BB
:100CC0000A0720930907609103077091040783EED8
:100CD0009BE00E94E526409103075091040723E121
:100CE00063EE7BE0CE0101960E945B26CE01019669
:100CF0000E944F24811115C0CE0101960E943D240F
:100D00000E94A4056B960FB6F894DEBF0FBECDBF50
:100D1000DF91CF911F910F91FF90EF90DF90CF90D7
:100D200008958BE1C82E87E0D82EE12CF12C80911C
:100D3000090790910A07E816F906F0F600E010E0BE
:100D4000F601E00FF11F6081CE0101960E9414238D
:100D50000E5F1F4F0031110599F7CE0101960E94D9
:100D60006F3AFFEFEF1AFF0A80E1C80ED11CDFCF08
:100D70008F929F92AF92BF92CF92DF92EF92FF92AB
:100D80000F931F93CF93DF93CDB7DEB7A0970FB626
:100D9000F894DEBF0FBECDBF8C014B0160EE74E056
:100DA0000E94063C6CE174E0CE0101960E94063C74
:100DB000B401CE0101960E94343DBC01C8010E94DD
:100DC0001B3CCE0101960E94983B80910A02882329
:100DD00031F06FE374E088E39EE00E945C3A7E01AC
:100DE00021E1E20EF11C5701C12CD12CB601C40146
:100DF0000E94B83D682F880F770BD5016D937D93C6
:100E00005D0180910A02882361F04AE050E088E3A6
:100E10009EE00E942A3B61E972E088E39EE00E9426
:100E20005C3ABFEFCB1ADB0AE8E0CE16D104F1F64C
:100E3000C7010E9490028F3FFFEF9F0751F001977B
:100E400019F563EF7AE0C8010E94D93C6EE574E0C1
:100E500018C0FE013196CE018196D7012D913D91AA
:100E60007D0121933193A817B907B9F7CE010196F7
:100E70000E94310663EF7AE0C8010E94D93C65E424
:100E800074E0C8010E94E03CC801A0960FB6F89437
:100E9000DEBF0FBECDBFDF91CF911F910F91FF90AD
:100EA000EF90DF90CF90BF90AF909F908F9008957C
:100EB000CF92DF92EF92FF920F931F93CF93DF9326
:100EC000CDB7DEB76B970FB6F894DEBF0FBECDBFC0
:100ED0000E945E022091090730910A07821793074A
:100EE00040F48C010F5F1F4FB8010E942A02C80115
:100EF000F1CF2150310930930A07209309076091FF
:100F000003077091040783EE9BE00E94E526409161
:100F100003075091040723E163EE7BE0CE010196C5
:100F20000E945B26CE0101960E944F24811115C0BC
:100F3000CE0101960E943D240E94A4056B960FB637
:100F4000F894DEBF0FBECDBFDF91CF911F910F91FF
:100F5000FF90EF90DF90CF9008958BE1C82E87E04F
:100F6000D82EE12CF12C8091090790910A07E81600
:100F7000F906F0F600E010E0F601E00FF11F6081E5
:100F8000CE0101960E9414230E5F1F4F0031110500
:100F900099F7CE0101960E946F3A8FEFE81AF80A8E
:100FA00080E1C80ED11CDFCF8F929F92AF92BF928B
:100FB000CF92DF92EF92FF920F931F93CF93DF9325
:100FC000CDB7DEB7A0970FB6F894DEBF0FBECDBF8A
:100FD0008C014B0160EE74E00E94063C62E774E015
:100FE000CE0101960E94063CB401CE0101960E94FA
:100FF000343DBC01C8010E941B3CCE0101960E94F9
:10100000983B80910A02882331F06FE374E088E313
:101010009EE00E945C3A7E0121E1E20EF11C570144
:10102000C12CD12CB601C4010E94B83D682F880F95
:10103000770BD5016D937D935D0180910A02882322
:1010400061F04AE050E088E39EE00E942A3B61E9BB
:1010500072E088E39EE00E945C3ABFEFCB1ADB0AA5
:10106000E8E0CE16D104F1F6C7010E9490028F3F4E
:10107000FFEF9F0739F0019721F5FE013196CE0170
:10108000819608C063EF7AE0C8010E94D93C68E904
:1010900074E014C0D7012D913D917D0121933193CE
:1010A000A817B907B9F7CE0101960E94580763EF58
:1010B0007AE0C8010E94D93C69EB74E0C8010E9443
:1010C000E03CC801A0960FB6F894DEBF0FBECDBFBE
:1010D000DF91CF911F910F91FF90EF90DF90CF9014
:1010E000BF90AF909F908F900895CF92DF92EF9234
:1010F000FF920F931F93CF93DF93CDB7DEB7E397A4
:101100000FB6F894DEBF0FBECDBF6C017B0160EE61
:1011100074E0CE018E960E94063C870180E1E80EC5
:10112000F11CF80160810E5F1F4FCE018E960E9468
:10113000EF3C0E151F05A9F74091FD065091FE06E4
:1011400021E063EE7BE0CE0101960E945B26CE019A
:1011500001960E944F24882309F46CC060EE74E06D
:10116000CE0188960E94063C60EE74E0CE01829625
:101170000E94063C60EE74E0CE014C960E94063C54
:1011800001E010E0CE0101960E940E24892BE1F1CE
:10119000CE0101960E9465237C018F9709F47AC0E5
:1011A0008BE3E816F10431F0C7010E94800281113F
:1011B00059C0E8CF03301105A1F4BE016E5D7F4F29
:1011C000CE018E960E94773D882359F0CE0101967C
:1011D0000E943D24BE01645E7F4FC6010E94323CE6
:1011E0001CC060EE74E0CE0188960E943B3C60EE2D
:1011F00074E0CE0182960E943B3C60EE74E0CE012A
:101200004C960E943B3CBCCFCE0101960E943D24EF
:1012100064ED74E0C6010E94063CCE014C960E942B
:10122000983BCE0182960E94983BCE0188960E9400
:10123000983B04C0CE0101960E943D24CE018E96BB
:101240000E94983BC601E3960FB6F894DEBF0FBE2E
:10125000CDBFDF91CF911F910F91FF90EF90DF9065
:10126000CF9008950230110571F46E2DCE0188964D
:1012700007C00130110509F085CF6E2DCE01829691
:101280000E94EF3C7FCF0330110599F76E2DCE0100
:101290004C96F6CF0F5F1F4F75CFCF93DF9300D0E3
:1012A00000D0CDB7DEB76BE077E0CE0101960E94AB
:1012B000750826E030E040E050E061E070E080E05A
:1012C00090E00E94713B8FEE96E00E94840464EDF2
:1012D00074E0CE0101960E94883D811108C0CE01C4
:1012E00001960E94213E8FEE96E00E94840460EDFC
:1012F00077E080E090E00E94BC3ECE0101960E9423
:10130000983B26960FB6F894DEBF0FBECDBFDF9197
:10131000CF910895CF93DF9300D000D0CDB7DEB743
:1013200082E596E00E94A20E60EE74E0CE01019686
:101330000E94063C809165068823A9F06FEF7AE051
:10134000CE0101960E941B3C6FE576E0CE0101962E
:101350000E94D93C69ED74E0CE0101960E94E03C08
:101360006CE476E00EC065E07BE0CE0101960E9461
:101370001B3C6CE476E0CE0101960E94D93C69EFFB
:101380007AE0CE0101960E94D93CBE016F5F7F4F8B
:1013900082E596E00E944E3A61E070E080E090E0E5
:1013A0000E94BC3E82E596E00E948B0F80910A026B
:1013B000882331F061EE74E088E39EE00E94733A86
:1013C000CE0101960E94983B26960FB6F894DEBF98
:1013D0000FBECDBFDF91CF9108950F931F93CF9391
:1013E000DF93CDB7DEB7AA970FB6F894DEBF0FBE76
:1013F000CDBF6DE676E087E696E00E943B3C64EF69
:1014000074E0CE0101960E94063CBE016F5F7F4FE3
:10141000CE0185960E942F04CE0101960E94983B32
:10142000CE0185960E94213E8B0167EF74E0CE01CC
:1014300001960E94063CBE016F5F7F4FCE014F9622
:101440000E942F04CE0101960E94983B6BEF74E03E
:101450008CE496E00E943B3C64E175E0CE0101968D
:101460000E94063CBE016F5F7F4FCE0149960E94ED
:101470002F04CE0101960E94983B69E175E0CE01F0
:1014800001960E94063CBE016F5F7F4FCE014396DE
:101490000E942F04CE0101960E94983B63E27BE0FC
:1014A000CE014F960E94773D811110C081E080935C
:1014B000650660EE72E08FE596E00E943B3C60EED0
:1014C00074E08CE496E00E943B3C79C00330110547
:1014D00009F453C0B4F40130110549F1023011058B
:1014E00009F06DC0BE01675E7F4FCE0107960E9476
:1014F000323CBE01695F7F4FCE0101960E94D40746
:101500004FC004301105F1F10530110509F057C045
:10151000BE01615E7F4FCE0107960E94323CBE0144
:10152000695F7F4FCE0101960E94C80339C0BE019A
:101530006D5E7F4FCE0107960E94323CBE01675E12
:101540007F4FCE010D960E94323CAE01495F5F4F46
:10155000BE01635F7F4FCE0101960E94B806BE01B7
:101560006F5F7F4F8CE496E00E941B3CCE0101969A
:101570000E94983BCE010D961CC0CE0101960E94A0
:101580006C0304C0CE0101960E940503BE016F5F8B
:101590007F4F8CE496E00E941B3CCE0101960DC06B
:1015A000BE016F5F7F4F8CE496E00E941B3CCE0132
:1015B00001960E94983BCE0107960E94983B0E949C
:1015C0008A09CE0143960E94983BCE0149960E941B
:1015D000983BCE014F960E94983BCE0185960E9483
:1015E000983BAA960FB6F894DEBF0FBECDBFDF9131
:1015F000CF911F910F9108950F931F93CF93DF9376
:10160000CDB7DEB72D970FB6F894DEBF0FBECDBFB6
:1016100067E17BE0CE0101960E9412118B819C81D3
:1016200090935506809354068D819E81AF81B88535
:101630008093560690935706A0935806B093590688
:1016400089859A85AB85BC8580935A0690935B0605
:10165000A0935C06B0935D068D8580935E0682E55F
:1016600096E00E94270E882309F474C06EE175E0AD
:1016700088E39EE00E94733A1092EE061092ED0607
:101680004AE060E870E0CE0101960E94523CBE0143
:101690006F5F7F4F87E696E00E941B3CCE0101966C
:1016A0000E94983B11E006E282E596E00E94C70F97
:1016B000882309F449C082E596E00E94580E892BE0
:1016C00099F382E596E00E94610E8A30C1F511110E
:1016D0001AC011E0E9CF82E596E00E94610E809386
:1016E00066062091ED063091EE06203831055CF457
:1016F000A9014F5F5F4F5093EE064093ED06F9014D
:10170000E359F94F808382E596E00E94580E892BB9
:1017100011F7E091ED06F091EE06E359F94F0083E1
:101720006FE275E088E39EE00E94733A6DE676E032
:1017300088E39EE00E945C3A0E94ED09B5CF8D30AF
:1017400009F4B2CF10E0B0CF66E475E088E39EE024
:101750000E94733A2D960FB6F894DEBF0FBECDBF30
:10176000DF91CF911F910F910895CF93DF9300D018
:1017700000D0CDB7DEB71092650660EE74E0CE0102
:1017800001960E94063C0E94FC0ACE0101960E942E
:10179000983B26960FB6F894DEBF0FBECDBFDF9103
:1017A000CF91089582E79FE00E946236892B59F419
:1017B0008FEF9FEF909349068093480690934B06D6
:1017C00080934A06089582E79FE00E947C369C0140
:1017D0002C5731092330310548F490934B06809300
:1017E0004A0610924906109248060895209148062C
:1017F0003091490637FD0EC0A9014F5F5F4F5093EE
:10180000490640934806220F331FF901E55FF84F60
:10181000918380838091480690914906089781F5CD
:1018200080914A0690914B068E37910571F48BE0BA
:1018300097E00E949002019621F48BE097E00C94CF
:1018400031068BE097E00C9458078C37910599F49A
:101850008BE097E00E945E02019639F062E575E048
:1018600082E79FE00E945C3A09C064E575E082E788
:101870009FE00C945C3A8D37910511F40C944D095E
:1018800008950E94BD020E94D20B0C94B50BEF92FA
:10189000FF920F931F93CF93DF9300D000D0CDB76B
:1018A000DEB726E040E052EC61E070E088E39EE0C5
:1018B0000E94663726E040E052EC61E070E082E78B
:1018C0009FE00E94663726E040E855E260E070E065
:1018D00085ED9EE00E94663785ED9EE00E94F52230
:1018E00089E190E00E940C2364E670E080E090E0E3
:1018F0000E94BC3E66E183EE9BE00E94522581116E
:101900000AC080910A02882331F066E575E088E319
:101910009EE00E94733A80910A02882331F062E7C8
:1019200075E088E39EE00E94733A0E94A40564E893
:1019300075E088E39EE00E945C3A10EAE12E1FE029
:10194000F12E00E010E020E63AEE40E050E06DE0DD
:1019500072E08DE89BE00E94210D6CE875E088E361
:101960009EE00E945C3A87E19BE00E940C1064E9D3
:1019700075E088E39EE00E945C3A6DE87BE0CE0172
:1019800001960E94C80DBE016F5F7F4F88E39EE005
:101990000E94853A8FEF9FEF909349068093480607
:1019A00090934B0680934A0626960FB6F894DEBFB6
:1019B0000FBECDBFDF91CF911F910F91FF90EF90A0
:1019C00008952091DD0B222399F04FB7F8942091D0
:1019D000DD0B213059F42DB32093DB0B3DB3209167
:1019E000DC0B209523232DBB4FBF02C04093DB0BA4
:1019F0008CBD9DBD08958091DD0B882361F09FB75C
:101A0000F8942091DD0B8091DB0B213019F48DBB14
:101A10009FBF08958FBF089544E050E0BC0181E06E
:101A200090E00C947E1844E050E0BC0185E090E02A
:101A30000C947E1844E050E0BC018FE090E00C94E0
:101A40007E182F923F924F925F926F927F928F9269
:101A50009F92AF92BF92CF92DF92EF92FF920F933D
:101A60001F93CF93DF9300D000D0CDB7DEB76C01CA
:101A70001B0129013A01470158018091950B811101
:101A800007C082E79BE00E946C1381E08093950B76
:101A90008FE29BE0F601978386838FEB9BE00E94A9
:101AA000161880E590E00E94E10C46E050E0B1019C
:101AB00089E090E00E947E1800E020E040E060E0D5
:101AC000CE0101960E94DC39CE0103960E941A0DC8
:101AD0000E94FB0C85017401A3019201B101F60182
:101AE000868197810E94541F8C010197B9F580E58A
:101AF00090E00E94E10CF60166817781CE010196AB
:101B00000E948E1ACE0103960E941A0DF60166817C
:101B10007781CE0101960E94A41ACE0103960E94FD
:101B20000C0DF60166817781CE0101960E94991A0B
:101B3000CE0103960E94130D0E94FB0CF6016681F4
:101B40007781CE0101960E94AF1A8B819C81AD8175
:101B5000BE81F60182839383A483B583C801269650
:101B60000FB6F894DEBF0FBECDBFDF91CF911F91AE
:101B70000F91FF90EF90DF90CF90BF90AF909F902C
:101B80008F907F906F905F904F903F902F9008952F
:101B9000CF93DF93EC010E94D23980E590E00E9460
:101BA000E10CBE016E5F7F4F44E050E08FE090E0BB
:101BB0000E94B0190E94FB0CCE01DF91CF910895D5
:101BC00029E336E0FC0131832083FB01428153810C
:101BD00064817581FC014283538364837583089516
:101BE0000F9300E020E040E060E085EA9BE00E9487
:101BF000DC398DE89BE00F910C94D23980E090E0C5
:101C00000895089581E086270895862F0895DC01C0
:101C1000ED91FC91068CF78DE02D199591E08927C7
:101C20000895CF93DF931F92CDB7DEB76983DC01B0
:101C3000ED91FC910280F381E02D41E050E0BE0186
:101C40006F5F7F4F19950F90DF91CF91089521E03D
:101C5000FC018485843009F420E0822F0895FC0182
:101C60009485FB018485981303C081E0943009F4C6
:101C700080E008950F931F93CF93DF938C01D42FAF
:101C8000C52FFC018485843041F481E090E0F801A7
:101C90009383828380E090E006C00E94B315892B75
:101CA000A1F38D2F9C2FDF91CF911F910F9108955C
:101CB000FC018485843011F00C94AA1680E090E039
:101CC0000895CF93DF931F92CDB7DEB741E050E088
:101CD000BE016F5F7F4FFC0184850E944916181674
:101CE00019061CF4898190E002C08FEF9FEF0F90DE
:101CF000DF91CF910895FC0184850C9449160F93D0
:101D00001F93CF93DF931F92CDB7DEB78C01DC0119
:101D1000ED91FC910084F185E02D1995892B51F00E
:101D2000BE016F5F7F4FF80184850E94D5168981BF
:101D300090E002C08FEF9FEF0F90DF91CF911F9146
:101D40000F910895FC0184850C940517CF92DF92C2
:101D5000EF92FF920F931F93CF93DF93CDB7DEB730
:101D6000AF970FB6F894DEBF0FBECDBF8C016B01ED
:101D70007A01CE0101960E94D239CE0109960E94C5
:101D80006C13CE018A960E94D2396DE87BE0CE01B9
:101D900084960E94E00DBE016C5D7F4FCE010196DE
:101DA0000E94931FAE01465D5F4FB601CE010196C2
:101DB0000E94022281309105C1F4D801ED91FC917D
:101DC0000684F785E02D89E396E09DA38CA38CA57E
:101DD0009DA5AEA5BFA58EA39FA3A8A7B9A7A70140
:101DE000BE016C5D7F4FC8011995AF960FB6F89490
:101DF000DEBF0FBECDBFDF91CF911F910F91FF903E
:101E0000EF90DF90CF900895FC011382128288EE4C
:101E100093E0A0E0B0E084839583A683B78386EA4D
:101E200095E09183808384E084870895FC01138288
:101E3000128288EE93E0A0E0B0E084839583A683CD
:101E4000B78386EA95E09183808364870895FC01D7
:101E50008485843011F00C945A1480E00895CF9258
:101E6000DF92FF920F931F93CF93DF93FC012485A2
:101E70002430A9F56A018B01EC01F12C8F2D0E9411
:101E80005A14811102C0FC8607C08B7F8831D9F3B8
:101E9000F394F4E0FF12F2CF8C85843001F12091AD
:101EA0001D0230911E022F5F3F4F11F420E030ECF5
:101EB00030931E0220931D0240911D0250911E027C
:101EC00020E061E00E94AC14B8016E5F7F4FA60174
:101ED0008C850E943315811105C084E08C8780E0D9
:101EE00090E011C0CE010E94270F873151F061E0D0
:101EF00070E080E090E00E94BC3ECE010E94270F7F
:101F0000EACF81E090E0DF91CF911F910F91FF9098
:101F1000DF90CF900895CF92DF92EF92FF92CF9310
:101F2000DF93EC018C85843059F10E948C150E945E
:101F30008B3E6B017C01CE010E94270F8823B1F0FC
:101F400061E070E080E090E00E94BC3E0E948B3E29
:101F5000DC01CB018C199D09AE09BF09883E934075
:101F6000A105B10540F38C850E948114EC85F0E059
:101F7000EE0FFF1FE356F44F1182108284E08C872E
:101F8000DF91CF91FF90EF90DF90CF900895CF93A6
:101F9000DF93FC0124852430D1F0EC010E94270F4F
:101FA000843181F0882371F0883161F08C3161F4E3
:101FB000E881F9810084F185E02DCE01199521E0B9
:101FC000892B19F420E001C021E0822F01C080E0BC
:101FD000DF91CF9108950F9300E020E040E060E0B2
:101FE0008BEA9BE00E94DC390F910895CF93DF9339
:101FF0001F92CDB7DEB76983DC01ED91FC910280C1
:10200000F381E02D41E050E0BE016F5F7F4F1995F5
:102010000F90DF91CF910895EF92FF920F931F934E
:10202000CF93DF93CDB7DEB72D970FB6F894DEBF11
:102030000FBECDBF7C0100E010E0602FCE01019605
:102040000E94160FCE0101960E94270F811116C023
:10205000F7014481558120E061E0802F0E94AC149B
:10206000802F0E940015F70184819581000F111FB8
:10207000F801E356F44F9183808305C00F5F1F4F33
:1020800004301105D1F62D960FB6F894DEBF0FBEC1
:10209000CDBFDF91CF911F910F91FF90EF900895E9
:1020A000FC01138212828CEC95E09183808375830E
:1020B00064830895AF92BF92CF92DF92EF92FF9226
:1020C0001F93CF93DF93CDB7DEB72D970FB6F8945C
:1020D000DEBF0FBECDBF7C019DE9A92E9BE0B92ECE
:1020E00010E0C12CD12C612FCE0101960E94160F59
:1020F000D5012D913D915D01F701848195812817CE
:102100003907B1F4CE0101960E94270F843169F09E
:10211000CE0101960E94270F8C3151F4CE01019619
:102120000E94580E892B91F003C0CC24C394D12C6B
:102130001F5F1430C1F6CD2871F4D701ED91FC91E9
:102140000084F185E02DC701199505C0CE010196E7
:102150000E948B0FEDCF2D960FB6F894DEBF0FBE09
:10216000CDBFDF91CF911F91FF90EF90DF90CF9087
:10217000BF90AF9008956F927F928F929F92AF928F
:10218000BF92CF92DF92EF92FF921F93CF93DF9394
:10219000CDB7DEB72D970FB6F894DEBF0FBECDBF1B
:1021A0005C014B013A010E945A108DE9C82E8BE068
:1021B000D82E10E0E12CF12C612FCE0101960E9467
:1021C000160FF601219131916F01F50184819581FE
:1021D0002817390731F4CE0101960E94270F873165
:1021E000C1F01F5F143041F7C7012D960FB6F89468
:1021F000DEBF0FBECDBFDF91CF911F91FF90EF905B
:10220000DF90CF90BF90AF909F908F907F906F9016
:102210000895A301B401CE0101960E943A0EE80E82
:10222000F91EDFCFAF92BF92CF92DF92FF920F9352
:102230001F93CF93DF93CDB7DEB72D970FB6F894EA
:10224000DEBF0FBECDBF8C015B01CB010E945A10D7
:102250008DE9C82E8BE0D82EF12C6F2DCE01019682
:102260000E94160FF601219131916F01F5018481D1
:1022700095812817390751F5CE0101960E94270F45
:10228000873111F08C3111F5CE0101960E94580E64
:10229000892BE1F08B819C81F801938382838D816E
:1022A0009E81AF81B88584839583A683B783898512
:1022B0009A85AB85BC8580879187A287B38786EA9C
:1022C00095E0918380838D85848708C0F394F4E042
:1022D000FF12C3CF64E0C8010E94160FC8012D96FB
:1022E0000FB6F894DEBF0FBECDBFDF91CF911F9127
:1022F0000F91FF90DF90CF90BF90AF9008950F9314
:1023000000E020E040E060E081EB9BE00E94DC39EF
:102310000F910895DC01ED91FC91048CF58DE02D79
:10232000199429E336E0FC0131832083FB014089C5
:10233000518962897389FC01428353836483758365
:102340000895FC01848995890895FC01818D928D01
:102350000895CF93DF931F92CDB7DEB76983DC0179
:10236000ED91FC910280F381E02D41E050E0BE014F
:102370006F5F7F4F19950F90DF91CF91089508956A
:10238000CF93DF93EC01888D843061F00E9481143B
:10239000E88DF0E0EE0FFF1FE356F44F118210823C
:1023A00084E0888FDF91CF910895FC01178A168A07
:1023B0006E5F7F4F808D0C944E17FC01808D0C94C6
:1023C0009517CF93DF93EC019A018E899F89AB011A
:1023D000BC01888D0E9406172E893F89280F391F5E
:1023E0003F8B2E8BDF91CF9108950F931F93CF9347
:1023F000DF931F92CDB7DEB7FC01218D328D232BE9
:1024000061F08C0141E050E0BE016F5F7F4F808D35
:102410000E944916181619061CF08FEF9FEF08C08E
:10242000F801818D928D0197928F818F898190E043
:102430000F90DF91CF911F910F910895CF93DF936C
:10244000FC01218D328D2115310519F48FEF9FEF9D
:1024500011C0EC014217530708F0A901888D0E94B2
:1024600049161816190694F7298D3A8D281B390B31
:102470003A8F298FDF91CF910895CF93DF931F92E9
:10248000CDB7DEB7FC01218D328D232B49F0BE0183
:102490006F5F7F4F808D0E94D516898190E002C0CA
:1024A0008FEF9FEF0F90DF91CF910895EF92FF9202
:1024B0001F93CF93DF93FC01208D243011F080E037
:1024C0001CC07B01EC0110E0812F0E945A14811185
:1024D00002C0188F05C08831E1F31F5F1430A1F7E7
:1024E000888D843061F3FD86EC861A8E198E20E08B
:1024F000A70162E00E94AC1481E0DF91CF911F91AF
:10250000FF90EF9008950F931F93CF93DF93CDB774
:10251000DEB728970FB6F894DEBF0FBECDBF8C0193
:10252000F801818D928D892B49F0D801ED91FC91B4
:102530000284F385E02DC8011995F2CF808D0E94A9
:10254000AA161816190654F548E050E0BE016F5F50
:102550007F4FD80158968C910E9449169C011816FD
:102560001906D4F4BE016F5F7F4FC8010E960E941A
:10257000F8398D8190E0982F88272E81820F911D48
:10258000F801958B848B2F8130E0322F22278885AC
:10259000280F311D328F218FC90102C080E090E0E9
:1025A00028960FB6F894DEBF0FBECDBFDF91CF9156
:1025B0001F910F9108958F929F92AF92BF92CF92E9
:1025C000DF92EF92FF920F931F93CF93DF9300D090
:1025D00000D0CDB7DEB7FC01208D243009F068C0F3
:1025E0006A017B018C0153E0852E54E0952EA12CCD
:1025F000B12CC4010E94AD18811103C0F801A08E56
:102600000AC08831D9F3FFEFAF1ABF0A9394E4E010
:10261000AE16B10471F7F801808D843009F448C01A
:1026200096E0E4E2F2E0DE01119601900D929A95B7
:10263000E1F7F70193819F779C8394819D83958136
:102640009E83B7016E5F7F4F90E0982F882744E00C
:1026500050E0845F9B4F0E947E18F801E08CF12CC3
:10266000F4E0EF0EF11CFE2CEE246D2DC701409618
:102670000E94F3176C2DC70141960E94F317F801D1
:10268000808D90E0982F882746E050E0BE016F5F74
:102690007F4F8A5F9B4F0E947E18F801128E118E29
:1026A00020E8A60162E0808D0E94AC1481E001C0A8
:1026B00080E026960FB6F894DEBF0FBECDBFDF9147
:1026C000CF911F910F91FF90EF90DF90CF90BF902F
:1026D000AF909F908F900895CF93DF93EC011B8272
:1026E0001A8288EE93E0A0E0B0E08C839D83AE83F5
:1026F000BF838AED95E099838883CE010E960E9470
:10270000D23984E0888FDF91CF910895CF92DF9204
:10271000EF92FF920F931F93CF93DF93CDB7DEB766
:10272000AF970FB6F894DEBF0FBECDBF8C016B0123
:102730007A01CE0101960E94D239CE0109960E94FB
:102740006C13CE018A960E94D2396DE87BE0CE01EF
:1027500084960E94E00DBE016C5D7F4FCE01019614
:102760000E94931FAE01465D5F4FB601CE010196F8
:102770000E94022281309105C1F4D801ED91FC91B3
:102780000488F589E02D89E396E09DA38CA38CA5B0
:102790009DA5AEA5BFA58EA39FA3A8A7B9A7A70176
:1027A000BE016C5D7F4FC8011995AF960FB6F894C6
:1027B000DEBF0FBECDBFDF91CF911F910F91FF9074
:1027C000EF90DF90CF9008950F9300E020E040E07D
:1027D00060E087EB9BE00E94DC390F9108950F9336
:1027E000FC0130E080E092E1AAE7B0E04817590729
:1027F0006A077B0740F4B695A795979587953F5F45
:102800003630A1F737E091E09327222311F020E53D
:1028100001C020E7892F86950C70082B022B0083BE
:10282000917091830F91089590E0982F882744E04C
:1028300050E0845F9B4F0C947E1890E00496982F94
:102840008827860F971F0C94AD1862E070E00C94F7
:102850001D149B0190E00496982F8827642F820F07
:10286000931F0C94F317CF93DF93C82FD62F472FC6
:1028700064E070E00E9429144D2F65E070E08C2F19
:10288000DF91CF910C942914462F62E070E00C94F4
:102890002914CF93DF93C82FD62F472F60E170E024
:1028A0000E9429144D2F61E170E08C2FDF91CF91B0
:1028B0000C9429140F931F93CF93DF9300D0CDB7BF
:1028C000DEB7182F00E021E040E059E06DE370E052
:1028D000CE0101960E94EF1389819A810E94E10C3A
:1028E00063E070E0812F0E941D148B830E94FB0C1B
:1028F0008B810F900F900F90DF91CF911F910F91CF
:1029000008950F931F93CF93DF931F921F92CDB71C
:10291000DEB7182F00E021E040E059E06DE370E001
:10292000CE0101960E94EF1389819A810E94E10CE9
:1029300040E150E0612F8FEB9BE00E94771A6FEF30
:10294000812F0E9444140E94FB0C0F900F90DF9186
:10295000CF911F910F910895CF92DF92EF92FF9246
:102960000F931F93CF93DF931F921F92CDB7DEB7C4
:102970009FEF960F9530C0F5F22E6A01E62E182FC4
:102980000E94811400E021E040E059E06DE370E036
:10299000CE0101960E94EF1389819A810E94E10C79
:1029A0004E2D4F2960E070E0812F0E942914C11440
:1029B000D10411F0B6010AC06091BD0B7091BE0B3D
:1029C0006F5F7F4F7093BE0B6093BD0B812F0E9492
:1029D000331441E050E0612F8FEB9BE00E94771AA7
:1029E0000E94FB0C81E001C080E00F900F90DF910E
:1029F000CF911F910F91FF90EF90DF90CF900895AE
:102A00000F931F93CF93DF931F921F92CDB7DEB723
:102A1000182F00E021E040E059E06DE370E0CE01C6
:102A200001960E94EF1389819A810E94E10C63E074
:102A300070E0812F0E941D14833121F00E94FB0C55
:102A400080E00AC042E050E0612F8FEB9BE00E94E3
:102A5000771A0E94FB0C81E00F900F90DF91CF91CD
:102A60001F910F910895CF92DF92EF92FF920F93F3
:102A70001F93CF93DF931F921F92CDB7DEB7FB0159
:102A800090819F3F51F491819F3F91F492819F3FAC
:102A900079F493819F3F61F432C0911109C0918113
:102AA000911106C09281911103C09381992341F144
:102AB0004115510521F16A017F01182F00E021E045
:102AC00040E059E06DE370E0CE0101960E94EF1303
:102AD00089819A810E94E10CB701812F0E94141410
:102AE000B601812F0E94491444E050E0612F8FEB22
:102AF0009BE00E94771A0E94FB0C91E001C090E0DD
:102B0000892F0F900F90DF91CF911F910F91FF9020
:102B1000EF90DF90CF9008950F931F93CF93DF93A3
:102B20001F921F92CDB7DEB7182F00E021E040E0E2
:102B300059E06DE370E0CE0101960E94EF138981A8
:102B40009A810E94E10C48E050E0612F8FEB9BE0FE
:102B50000E94771A0E94FB0C0F900F90DF91CF918B
:102B60001F910F910895AF92BF92CF92DF92EF9293
:102B7000FF920F931F93CF93DF931F921F92CDB7B6
:102B8000DEB7182F6B017A014130584018F0E12C64
:102B900088E0F82E00E021E040E059E06DE370E0CD
:102BA000CE0101960E94EF1389819A810E94E10C67
:102BB000612F8FEB9BE00E94E5185C0163E070E001
:102BC000812F0E941D14082F0E94FB0C073111F069
:102BD0000C3131F40E942C3EAE14BF04D8F202C076
:102BE000E12CF12C00E021E040E059E06DE370E0E1
:102BF000CE0101960E94EF1389819A810E94E10C17
:102C00009701A601612F8FEB9BE00E94A51940E27E
:102C100050E0612F8FEB9BE00E94771A812F0E947A
:102C2000251484FD22C063E070E0812F0E941D14F2
:102C3000811108C00E94FB0C812F0E94811480E04A
:102C400090E01AC00E94FB0C0E942C3E00E021E0A4
:102C500040E059E06DE370E0CE0101960E94EF1371
:102C600089819A810E94E10CD9CF60E1812F0E9475
:102C700044140E94FB0CC7010F900F90DF91CF917D
:102C80001F910F91FF90EF90DF90CF90BF90AF908A
:102C90000895AF92BF92CF92DF92EF92FF920F937F
:102CA0001F93CF93DF931F921F92CDB7DEB7182FDC
:102CB0005B016A0100E021E040E059E06DE370E073
:102CC000CE0101960E94EF1389819A810E94E10C46
:102CD000612F8FEB9BE00E9419197C010097A1F4F2
:102CE00063E070E0812F0E941D14843119F1882364
:102CF00009F121E030E08C3111F420E030E0EE24E5
:102D0000FF24E21AF30A16C0C816D9060CF476019D
:102D10001E141F047CF400E09701A501612F8FEBC6
:102D20009BE00E94271A40E450E0612F8FEB9BE06C
:102D30000E94771A0E94FB0CC7010F900F90DF9141
:102D4000CF911F910F91FF90EF90DF90CF90BF90A8
:102D5000AF9008950F931F93CF93DF9300D01F92EE
:102D6000CDB7DEB7182F00E021E040E059E06DE379
:102D700070E0CE0101960E94EF1389819A810E9432
:102D8000E10C612F8FEB9BE00E9419198B839C83D0
:102D90000E94FB0C8B819C810F900F900F900F90E5
:102DA000DF91CF911F910F910895EF92FF920F93B2
:102DB0001F93CF93DF931F921F92CDB7DEB7182FCB
:102DC0007B0100E021E040E059E06DE370E0CE01DE
:102DD00001960E94EF1389819A810E94E10C01E023
:102DE00021E030E0A701612F8FEB9BE00E94271AC2
:102DF0000E94FB0C81E090E00F900F90DF91CF914B
:102E00001F910F91FF90EF90089508958F929F92D8
:102E1000AF92BF92DF92EF92FF920F931F93CF93E7
:102E2000DF931F921F92CDB7DEB7D82E5B014A0108
:102E3000790100E021E040E059E06DE370E0CE016F
:102E400001960E94EF1389819A810E94E10C6D2DF9
:102E50008FEB9BE00E94E5188E159F0530F46D2DD9
:102E60008FEB9BE00E94E5187C0187019401A5018E
:102E70006D2D8FEB9BE00E9435190E94FB0CC70162
:102E80000F900F90DF91CF911F910F91FF90EF90D6
:102E9000DF90BF90AF909F908F900895CF92DF9278
:102EA000EF92FF920F931F93CF93DF931F921F9286
:102EB000CDB7DEB7FB019081911109C091819111CD
:102EC00006C09281911103C09381992309F14115A4
:102ED0005105F1F06A017F01182F00E021E040E088
:102EE00059E06DE370E0CE0101960E94EF138981F5
:102EF0009A810E94E10CB701812F0E941414B6013F
:102F0000812F0E9449140E94FB0C81E090E002C0D6
:102F100080E090E00F900F90DF91CF911F910F9183
:102F2000FF90EF90DF90CF9008950F931F93CF9372
:102F3000DF931F921F92CDB7DEB7182F00E021E07C
:102F400040E059E06DE370E0CE0101960E94EF137E
:102F500089819A810E94E10C40E250E0612F8FEB61
:102F60009BE00E94771A812F0E94251484FD21C0C6
:102F7000812F0E94251483FF09C068E1812F0E94E0
:102F800044140E94FB0C80E090E01BC00E94FB0CEC
:102F90000E942C3E00E021E040E059E06DE370E04B
:102FA000CE0101960E94EF1389819A810E94E10C63
:102FB000DACF60E1812F0E9444140E94FB0C81E073
:102FC00090E00F900F90DF91CF911F910F91089596
:102FD0008EBD00000DB407FEFDCF8EB508952C9870
:102FE00008952C9A08951F93CF93DF931F921F92F9
:102FF000CDB7DEB7182F6A8399830E94EF1780EF51
:103000000E94E8179981892F0E94E817812F0E945A
:10301000E8176A81862F0E94E8170E94F11781E065
:103020000F900F90DF91CF911F910895CF93DF9371
:10303000EC016CE271E080E090E00E94BC3E0E94F6
:103040008F22249A8091DD0B882399F02FB7F89472
:103050008091DD0B813059F48DB38093DB0B9DB3F0
:103060008091DC0B809589238DBB2FBF02C02093FC
:10307000DB0B80E58CBD1DBC60E880E090E00E9429
:10308000F31765E58BE190E00E94F31765E58AE1AF
:1030900090E00E94F3178091DD0B882351F09FB7D9
:1030A000F8942091DD0B8091DB0B213029F58DBB4D
:1030B0009FBF80E090E49983888380E090E69987C1
:1030C000888780E098E49B838A8380E098E69B87EA
:1030D0008A8780E090E59D838C8380E090E79D87E0
:1030E0008C8780E098E59F838E8380E098E79F87B8
:1030F0008E87DF91CF9108958FBFDBCFCF92DF9284
:10310000EF92FF920F931F93CF93DF93EC017A011D
:103110008B016C01C40ED51ECC15DD05A1F00E94FB
:10312000EF1780EF0E94E8178D2F0E94E8178C2F71
:103130000E94E8172196F80181918F010E94E817FB
:103140000E94F117E9CFC701DF91CF911F910F9135
:10315000FF90EF90DF90CF9008951F93CF93DF9370
:103160001F92CDB7DEB7182F99830E94EF178FE01B
:103170000E94E8179981892F0E94E817812F0E94E9
:10318000E81780E00E94E81789830E94F11789817F
:103190000F90DF91CF911F9108951F93CF93DF93ED
:1031A000182F60E270E00E941D14C82FD0E061E289
:1031B00070E0812F0E941D14DC2FCC279E01282B4C
:1031C000C901DF91CF911F910895FF920F931F9333
:1031D000CF93DF93F62EC0E0D0E08F2D0E94CD1864
:1031E0008C01892B21F08F2D0E94CD18EC01C01786
:1031F000D10799F7CE01DF91CF911F910F91FF90E9
:1032000008951F93CF93DF93182F66E270E00E941A
:103210001D14C82FD0E067E270E0812F0E941D14BA
:10322000DC2FCC279E01282BC901DF91CF911F9164
:103230000895FF920F931F93CF93DF93F62EC0E074
:10324000D0E08F2D0E9401198C01892B21F08F2D48
:103250000E940119EC01C017D10799F7CE01DF9147
:10326000CF911F910F91FF9008956F927F928F924F
:103270009F92AF92BF92CF92DF92EF92FF920F9305
:103280001F93CF93DF931F92CDB7DEB7882E962E74
:103290006A01590164E270E0892D99830E941D142E
:1032A000E82EF12C65E270E0892D0E941D14FE2CA1
:1032B000EE24E82A37016C0C7D1CA3015770E82C22
:1032C0009981F92EE90CF11CE90CF11CF7018081C0
:1032D0009181840F951F9A01200F311F21303840B2
:1032E00098F060E078E06B01C41AD50AA601B50138
:1032F0000E947E18A8014C195D09B5016C0D7D1D59
:10330000F7018081918102C0A801B5010E947E1859
:10331000060D171D412F64E270E0892D0E942914CB
:10332000402F65E270E0892D0F90DF91CF911F91C2
:103330000F91FF90EF90DF90CF90BF90AF909F9054
:103340008F907F906F900C9429140F931F93890195
:103350009A0140E050E00E9435191F910F910895A5
:10336000CF92DF92EF92FF920F931F93CF93DF9351
:10337000EC017A018B016C01C40ED51ECC15DD0564
:10338000A9F00E94EF178FE00E94E8178D2F0E948E
:10339000E8178C2F0E94E817219680E00E94E8171A
:1033A000F80181938F010E94F117E8CFC701DF91E7
:1033B000CF911F910F91FF90EF90DF90CF900895E4
:1033C000AF92BF92CF92DF92EF92FF920F931F9333
:1033D000CF93DF931F921F92CDB7DEB75A834983F5
:1033E000590129813A8137706C01C60ED11CC60E75
:1033F000D11CF60180859185820F931FA801420F91
:10340000531F4130584098F0E0E0F8E07F01E21AA5
:10341000F30AA701B5010E94B019A8014E195F096E
:10342000B5016E0D7F1DF6018085918502C0A80152
:10343000B5010F900F90DF91CF911F910F91FF90E9
:10344000EF90DF90CF90BF90AF900C94B0198F9217
:103450009F92AF92BF92CF92DF92EF92FF920F9323
:103460001F93CF93DF936C01962E5A017901802E22
:1034700068E270E0892D0E941D14C82FD0E069E237
:1034800070E0892D0E941D14DC2FCC27C82B8701EA
:103490009501AE01692DC6010E94E01981101AC084
:1034A000CE0DDF1D4D2F68E270E0892D0E9429149A
:1034B0004C2F69E270E0892DDF91CF911F910F9120
:1034C000FF90EF90DF90CF90BF90AF909F908F9044
:1034D0000C942914DF91CF911F910F91FF90EF90E1
:1034E000DF90CF90BF90AF909F908F900895CF9333
:1034F000C62F61E070E08C2F0E94291461E070E01B
:103500008C2F0E941D148111F9CFCF9108950E9632
:1035100024E1FC0111922A95E9F70895CF93DF93F6
:10352000EC01625F7F4F0E94E839CE01DF91CF91BD
:103530000895CF93DF93EC016E5E7F4F0E94E839D0
:10354000CE01DF91CF910895CF93DF93EC016A5EB6
:103550007F4F0E94E839CE01DF91CF910895CF933C
:10356000DF93EC01625E7F4F0E94E839CE01DF916C
:10357000CF91089580E3FB0180833296842F82955A
:103580008F7090E1899F401911244A3014F4405DF6
:1035900001C0495C4293482F8111F0CF08950F93E9
:1035A00000E020E040E060E08FEC9BE00E94DC392E
:1035B0000F9108957F928F929F92AF92BF92CF9278
:1035C000DF92EF92FF920F931F93CF93DF93CDB7CC
:1035D000DEB7AC970FB6F894DEBF0FBECDBF7C014F
:1035E000762E942E852E20E2B22ECE0101966C010D
:1035F000FC012B2D11922A95E9F70FEF2FEF4FEFDA
:103600006FEF86960E94DC3989E396E09AA389A33E
:1036100089A59AA5ABA5BCA58BA39CA3ADA3BEA36E
:1036200087010D5B1F4F43E450E0BE016F5D7F4F8C
:10363000C8010E94D511019609F4BFC081E08983B9
:103640008A8386E0A82EAB821C82F7016481758193
:10365000868197810E94B3406D837E838F83988794
:1036600089869A8680E890E09C878B874CE150E0C1
:10367000B601C8010E94E111F6012B2D11922A9585
:10368000E9F7470188E0880E911CF401D60101900A
:103690000D92AA94E1F740E150E0B601C8010E9402
:1036A000E111F6011192BA94E9F796E0A92EB12C36
:1036B00040E250E0B601C8010E94E111F1E0AF1A0A
:1036C000B108B1F783E6898392E89A8393E59B83F7
:1036D0008C8385E38D8381E08E837F829DE3988751
:1036E00097E099878A8786E0F401DE011B960190B6
:1036F0000D928A95E1F78CE0898B8A8B6EEF75E0ED
:10370000CE0143960E949543F7014385BE01675E53
:103710007F4FC7010E94BA1AF7014485BE01655E5A
:103720007F4FC7010E94BA1AF7014585BE01635E4B
:103730007F4FC7010E94BA1A4EE150E0B601C8019E
:103740000E94E111F3E07F121EC082E3898384E0CE
:103750008A83F70196859B8397859C8390899D83B7
:1037600091899E8396E39F838887828D8987838D45
:103770008A87848D8B87858D8C874CE050E0B601DD
:10378000C8010E94E11187E3898386E08A8391E082
:103790009B8393E09C838D838FE08E838AE38F836A
:1037A0008BE388878FEF898749E050E0B601C80135
:1037B0000E94E111C8010E94DD11AC960FB6F89489
:1037C000DEBF0FBECDBFDF91CF911F910F91FF9054
:1037D000EF90DF90CF90BF90AF909F908F907F90B1
:1037E00008952F923F924F925F926F927F928F92A5
:1037F0009F92AF92BF92DF92EF92FF920F931F932F
:10380000CF93DF93CDB7DEB7E4970FB6F894DEBF62
:103810000FBECDBF7C011A012B0139010E948B3EE6
:103820004B015C0187010D5B1F4FC8010E94831291
:1038300018161906A4F00E948B3EDC01CB018819F2
:103840009909AA09BB09281639064A065B06F0F051
:1038500062E370E080E090E00E94BC3EE6CF42E28E
:1038600050E0BE016F5F7F4FC8010E941E12898128
:10387000823031F4F801848995898334910541F0CF
:10388000D12CC8010E94BF118D2D5FC18FEF5DC18A
:103890006D817E818F8198850E94B3404B015C01D0
:1038A000F301608371838283938346E050E0B70124
:1038B000685F7F4FCE014D960E946B43892B99F430
:1038C000F70180819181A281B38188169906AA06A9
:1038D000BB0648F084819581A681B781881599053A
:1038E000AA05BB0528F4C8010E94BF1180E02DC1C4
:1038F00089899A89AB89BC89F70186879787A08BCC
:10390000B18B8EECA82EB12CC8010E94F511F1E00C
:10391000AF1AB108C9F7D12CC70182969AA789A717
:10392000F701B696FCA7EBA708969EA78DA73C9734
:103930004F01899698AB8FA73897FAABE9AB17017F
:10394000F6E12F0E311CC5979CAB8BABC8010E94D2
:10395000A511181619060CF094CFC8010E94F51194
:103960008333910509F4CBC0FCF481309105C9F192
:103970001CF4892B59F3DDC083309105D1F10697F2
:1039800009F0D7C0C8010E94F5115C0144E050E085
:103990006BA97CA9C8010E941E12412C512CBB248A
:1039A000F4E0AF1AB10840C08A33910509F47BC036
:1039B0003CF48533910569F0C69709F440C0B9C05D
:1039C0008B33910509F485C08F3F910509F4BECF73
:1039D000B0C0C8010E94F511C8010E94F511D82E8F
:1039E000B5CFC8010E94F51144E050E069A97AA959
:1039F0003AC0C8010E94F5115C0144E050E0B101F9
:103A0000C8010E941E12412C512CBB2494E0A91A1B
:103A1000B1084A145B040CF099CFC8010E94F5115B
:103A2000EFEF4E1A5E0AF5CF4A145B040CF08ECF0E
:103A3000C8010E94F5118FEF481A580AF5CFC80146
:103A40000E94F511B82EF701828D811110C0838D6F
:103A500081110DC0848D81110AC0858D811107C02F
:103A600044E050E0B401C8010E941E126FCFEFA5E0
:103A7000F8A94080518062807380B401CE018396A2
:103A80000E94E8398DA19EA1AFA1B8A58415950526
:103A9000A605B70529F3BB2009F458CFC8010E9439
:103AA000F511BA94F8CFC8010E94F51144E050E036
:103AB0006BA57CA5C8010E941E12F70166A177A123
:103AC00080A591A50E94B34066A377A380A791A784
:103AD0003DCFC8010E94F51144E050E06DA57EA5E0
:103AE000C8010E941E12F70162A573A584A595A5C1
:103AF0000E94B34062A773A784A795A727CFC801E8
:103B00000E94F51144E050E069A57AA5C8010E9421
:103B10001E12F70162A173A184A195A10E94B34076
:103B200062A373A384A395A366A777A780AB91AB89
:103B30000DCFC8010E94F511B82EBB2009F406CFA5
:103B4000C8010E94F511BA94F8CFE4960FB6F89424
:103B5000DEBF0FBECDBFDF91CF911F910F91FF90C0
:103B6000EF90DF90BF90AF909F908F907F906F907D
:103B70005F904F903F902F9008952F923F924F92D9
:103B80005F926F927F928F929F92AF92BF92CF92ED
:103B9000DF92EF92FF920F931F93CF93DF93CDB7F6
:103BA000DEB727970FB6F894DEBF0FBECDBF8C01EE
:103BB00020ED37E040E050E061E070E080E090E030
:103BC0000E94713BD80114966D937D938D939C93C5
:103BD0001797F80160837183828393835801F3E41C
:103BE000AF0EB11CC5010E94C01164E470E0C501B4
:103BF0000E945612882309F43CC10E948B3E2B017F
:103C00003C01812C912C1D82C8018E5B9F4F9F83AC
:103C10008E8343E0342E58EEC52E53E0D52EE12C92
:103C2000F12C62E0262EAE81BF818C91833009F4A5
:103C300007C1811120C0F80184819581A681B781D7
:103C40000196A11DB11D84839583A683B7830E942D
:103C50008B3E6419750986099709A70196010E9490
:103C60006A40A90161E0C8010E94DA1A81E0AE81D0
:103C7000BF818C93C6C08430F9F4F80184819581AA
:103C8000A681B7810196A11DB11D84839583A6836A
:103C9000B7830E948B3E6419750986099709A701AD
:103CA00096010E946A40A90163E0C8010E94DA1AE5
:103CB000AE81BF812C92A5C0813061F5F80142AD83
:103CC00053AD64AD75AD9E012F5F3F4FC8010E949B
:103CD000F11B8D83823009F094C089819A81AB8178
:103CE000BC81F80184839583A683B7830E948B3EB1
:103CF0006419750986099709A70196010E946A400F
:103D0000A90163E0C8010E94DA1AED81AE81BF818A
:103D1000EC937EC0823009F074C0D801DA964D91E0
:103D20005D916D917C91DD979E012F5F3F4FC801A2
:103D30000E94F11B8D83853009F05CC0EE81FF810C
:103D40003082F80182A193A1A4A1B5A1892B8A2B6D
:103D50008B2B41F484E893E0A0E0B0E082A393A32E
:103D6000A4A3B5A3F80186A197A1A0A5B1A5892B0D
:103D70008A2B8B2B61F482A193A1A4A1B5A1B69546
:103D8000A7959795879586A397A3A0A7B1A7F801B4
:103D900082A593A5A4A5B5A5892B8A2B8B2BA9F465
:103DA00082A193A1A4A1B5A1AC01BD0123E07695A8
:103DB0006795579547952A95D1F7841B950BA60BC8
:103DC000B70B82A793A7A4A7B5A7F80186A197A1CF
:103DD000A0A5B1A586A797A7A0ABB1AB82A593A5D7
:103DE000A4A5B5A582AB93ABA4ABB5AB8824839453
:103DF000912C0EC0FD81F63021F4AE81BF811C9262
:103E000007C0BD81BF3F21F4EE81FF8110821D827A
:103E1000F1E08F16910409F406CF0E948B3EDC017D
:103E2000CB0184199509A609B709F80126A937A974
:103E300040AD51AD281739074A075B0708F0F3CEAC
:103E4000C5010E94C011F80184819581A681B781C6
:103E50000196A11DB11D84839583A683B7830E941B
:103E60008B3EF801FE966083718382839383C40145
:103E700002C080E090E027960FB6F894DEBF0FBE38
:103E8000CDBFDF91CF911F910F91FF90EF90DF9009
:103E9000CF90BF90AF909F908F907F906F905F90EA
:103EA0004F903F902F900895CF92DF92EF92FF9224
:103EB0000F931F93CF93DF93EC016B011AA21BA208
:103EC0001CA21DA21EA21FA218A619A61AA61BA6F6
:103ED0001CA61DA62EAB3FAB48AF59AFEAAEFBAE5A
:103EE0000CAF1DAF8C01085F1F4F86E0F8011192E7
:103EF0008A95E9F7CE010E94871A86E0F601D8017B
:103F000001900D928A95E1F7FE01EE5BFF4F108262
:103F1000CE01DF91CF911F910F91FF90EF90DF9035
:103F2000CF900C94BD1DFB0142815381648175814A
:103F3000FC0142835383648375831782168208953C
:103F4000CF93DF93FB0120E080E090E0AAE0319185
:103F5000332301F160ED630F6A3080F4A89FB00154
:103F6000A99F700D1124CB01C097830F911D37FDC0
:103F70009A958F3F910559F350F313C03E3289F45F
:103F8000233079F0EA01C20FD11D8A832F5F80E0D0
:103F900090E0DDCF233029F4FA01858381E090E0C1
:103FA00002C080E090E0DF91CF9108950F9300E090
:103FB00020E040E060E085ED9BE00E94DC390F915D
:103FC00008958F929F92AF92BF92CF92DF92EF921D
:103FD000FF920F931F93CF93DF9300D01F921F92F6
:103FE000CDB7DEB78C016B010E948B3EF801778361
:103FF00066837627672776277A836983085F1F4F52
:1040000042E050E0BE016F5F7F4FC8010E94E111A6
:1040100081E090E09C838B8342E050E0BE016D5FC5
:104020007F4FC8010E94E11180E091E09C838B8367
:1040300042E050E0BE016D5F7F4FC8010E94E11178
:104040001C821B8242E050E0BE016D5F7F4FC801C1
:104050000E94E11142E050E0BE016D5F7F4FC80158
:104060000E94E11142E050E0BE016D5F7F4FC80148
:104070000E94E1115601F5018081882329F1C601D2
:104080007C01FC0120810196211116C057014701D6
:104090008C189D081814190494F48D8241E050E0A6
:1040A000BE016B5F7F4FC8010E94E111A401B60100
:1040B000C8010E94E11103C02E3211F7E7CF67015A
:1040C000FFEFCF1ADF0AD7CF1D8241E050E0BE01DB
:1040D0006B5F7F4FC8010E94E111E12CFF24F39434
:1040E000FC82EB8242E050E0BE016D5F7F4FC80171
:1040F0000E94E111FC82EB8242E050E0BE016D5F64
:104100007F4FC8010E94E11181E090E00F900F9075
:104110000F900F900F90DF91CF911F910F91FF9013
:10412000EF90DF90CF90BF90AF909F908F900895C9
:104130004F925F926F927F928F929F92AF92BF92B7
:10414000CF92DF92EF92FF920F931F93CF93DF9363
:10415000CDB7DEB765970FB6F894DEBF0FBECDBF03
:104160007C015B016A010E948B3E2B013C018701AF
:10417000085F1F4F4501A12CB12CC8010E9483127A
:1041800018161906A4F00E948B3EDC01CB0184199D
:104190009509A609B70988169906AA06BB06D0F0A4
:1041A00062E370E080E090E00E94BC3EE6CFF70161
:1041B0004281538164817581808D918DA28DB38DF3
:1041C000481759076A077B0741F4848D958DC59779
:1041D00021F406C02FEF3FEFFDC02EEF3FEFFAC0F6
:1041E000C8010E94A5110C97ECF04CE050E0BE0114
:1041F0006F5F7F4FC8010E941E126C818B810E94ED
:10420000933B9A8B898BF701E680F7806A818981DD
:104210000E94933BE816F90641F489899A8997FF31
:1042200004C009C02DEF3FEFD5C0C8010E94BF11E7
:104230002CEF3FEFCFC08F709270892B31F0C80107
:104240000E94BF112BEF3FEFC5C068858F810E9490
:10425000933B5C01892B31F4C8010E94BF112AEF06
:104260003FEFB8C0E12CF12C6E818D810E94933B11
:10427000E816F90640F541E050E0BE01635F7F4F6C
:10428000C8010E941E128D85811113C08D85811178
:10429000F2CFC8010E94F511C8010E94F511C801B2
:1042A0000E94F511C8010E94F511FFEFEF1AFF0AF5
:1042B000DBCF8D859FEF980F9D87882339F3C80149
:1042C0000E94F511F6CFE12CF12C41E050E0BE0147
:1042D0006D5E7F4FC8010E941E128B89982F907CC3
:1042E00061F4882371F08B899FEF980F9B8B882353
:1042F00041F0C8010E94F511F6CFC8010E94F511E6
:104300001B8A8B898111E1CF42E050E0BE01615FE1
:104310007F4FC8010E941E1242E050E0BE01635F61
:104320007F4FC8010E941E12C8010E94F511C801EA
:104330000E94F511C8010E94F511C8010E94F511F3
:1043400042E050E0BE016F5E7F4FC8010E941E1226
:104350008F8598898115914001F52D853E853227FD
:104360002327322721303105C1F489899A898115A3
:10437000944031F0C8010E94BF1127EF3FEF2AC0DF
:10438000B6016E5F7F4F44E050E0C8012C8B3D8B3F
:104390000E941E122C893D891DC0812C912C898977
:1043A0009A899827892798278816990638F4C8018A
:1043B0000E94F5118FEF881A980AF1CFEFEFEE1AED
:1043C000FE0AEA14FB0409F080CFC8010E94BF1165
:1043D00026EF3FEFC90165960FB6F894DEBF0FBE1A
:1043E000CDBFDF91CF911F910F91FF90EF90DF90A4
:1043F000CF90BF90AF909F908F907F906F905F9085
:104400004F9008958F929F92AF92BF92CF92DF927A
:10441000EF92FF920F931F93CF93DF9300D000D0C2
:10442000CDB7DEB77C014B015A010E94A01F8C0161
:10443000892B09F05BC0F70142815381648175814A
:104440008091D70B9091D80BA091D90BB091DA0B3A
:10445000481759076A077B0709F44BC00E948B3E37
:104460006701F8E0CF0ED11C6F7077277C5FC60123
:104470000E945612813009F03EC089E396E09A838B
:104480008983F70182819381A481B5818B839C8389
:10449000AD83BE8345E350E0BE016F5F7F4FC60131
:1044A0000E94D511892B19F400E010E01BC0B40163
:1044B000C7010E94E11F892BB9F3C6010E94DD11DB
:1044C000892B91F383E0882E912CA50168E873E194
:1044D000C7010E9498208C01F1E08F1A910811F019
:1044E000019699F3C6010E94C01105C001E010E0D9
:1044F00002C00EEF1FEFC80126960FB6F894DEBF7C
:104500000FBECDBFDF91CF911F910F91FF90EF9024
:10451000DF90CF90BF90AF909F908F900895CF93F2
:10452000CFB7F8948091DE0B811127C0E1E4F3E06E
:104530008491EBEFF2E09491E82FF0E0EE0FFF1F93
:10454000EA57FC4FA591B491EC91E92321F461E085
:1045500085E30E94114061E085E30E94D53F8CB560
:1045600080618CBD8CB580648CBD61E084E30E9469
:10457000D53F61E083E30E94D53F8091DE0B8F5FE2
:104580008093DE0BCFBFCF910895CF93DF93C3E12C
:10459000D2E08091DF0B9091E00B6991DC01ED910D
:1045A000FC910190F081E02D1995B2E0CD31DB074F
:1045B00081F7DF91CF910895FC013196079620E0B5
:1045C00030E04191240F311DE817F907D1F7882712
:1045D0009927821B930B089583E192E00E94DC22CD
:1045E000E3E1F2E09783808708959093E00B809356
:1045F000DF0B85EC92E29093E20B8093E10B089540
:10460000E3E1F2E08383758366830E94EC22E0910C
:10461000E10BF091E20B1994BC0186E00C940023AD
:10462000BC0182E10C940023CF93DF931F92CDB79E
:10463000DEB76983DC01ED91FC910280F381E02D0E
:1046400041E050E0BE016F5F7F4F19950F90DF9101
:10465000CF910895CF93DF93EC01898D9A8D0097C8
:1046600039F481E090E09B838A8380E090E00BC086
:10467000FC01138212820E940730E98DFA8D22819B
:104680003381232B71F7DF91CF910895FC01818D48
:10469000928D009711F00C945B2D0895CF93DF93CA
:1046A0001F92CDB7DEB741E050E0BE016F5F7F4F94
:1046B0000E94772B019719F4898190E002C08FEF57
:1046C0009FEF0F90DF91CF910895FC01818D928D26
:1046D000009711F00C944E238FEF9FEF08950F93E6
:1046E0001F93CF93DF93FC01818D928D0097B9F0DA
:1046F000EF010E944E238C010F3F8FEF180791F0BE
:10470000898D9A8DFC01428553856485758541505C
:104710005109610971090E94C52CC80105C080E0DA
:1047200090E002C08FEF9FEFDF91CF911F910F912B
:104730000895EF92FF920F931F93CF93DF93EC01B5
:104740007B018A011B821A8288EE93E0A0E0B0E030
:104750008C839D83AE83BF8389E096E099838883B1
:104760008DE190E00E94D4409A8F898F009779F074
:104770002DE1F701DC0101900D922A95E1F74CE063
:1047800050E0B801CE010C960E949C43188EDF9138
:10479000CF911F910F91FF90EF900895FC0113822C
:1047A000128288EE93E0A0E0B0E084839583A68334
:1047B000B78389E096E091838083128E118E1486F0
:1047C0000895FC01818D928D009729F00E94C52CDF
:1047D00091E0811101C090E0892F0895DC01599684
:1047E000ED91FC915A97309729F062857385848505
:1047F000958508956FEF7FEFCB010895DC01599601
:10480000ED91FC915A97309729F0638974898589D5
:104810009689089560E070E0CB010895CF92DF9211
:10482000EF92FF92CF93DF93FC01218D328D232BEA
:10483000D9F0EC010E94FE236B017C01CE010E94A5
:10484000EE23A7019601261B370B480B590BDA0103
:10485000C901811530E89307A105B10538F08FEF44
:104860009FE7A0E0B0E002C080E090E0DF91CF9150
:10487000FF90EF90DF90CF900895CF93DF93EC01FE
:10488000898D9A8D009741F00E94A22D898D9A8D75
:104890000E9469411A8E198EDF91CF910895DC0133
:1048A0005996ED91FC915A97309721F081E09581CE
:1048B000911101C080E00895442339F00E94E02F57
:1048C00091E0811103C090E001C091E0892F08952B
:1048D0000F931F93CF93DF93EC018B0141E00E9474
:1048E0004B35811109C040E0B801CE01DF91CF9175
:1048F0001F910F910C944B3581E0DF91CF911F9167
:104900000F9108950F931F93CF93DF93DA01EB017B
:1049100028813981FC01E20FF31F40814F3211F4ED
:104920002F5F3F4F8D01E0E0F0E0AC01420F531FDD
:10493000EA0158815F3259F0552349F031962F5FD3
:104940003F4FE80159938E01EC30F10571F7EA0F02
:10495000FB1F1082FC01E20FF31F40814F3211F464
:104960002F5F3F4FFB0131832083FC01E20FF31FD8
:1049700081E09081911101C080E0DF91CF911F9182
:104980000F9108954F925F926F927F928F929F92B4
:10499000AF92BF92CF92DF92EF92FF920F931F934D
:1049A000CF93DF93CDB7DEB7C954D1090FB6F894D2
:1049B000DEBF0FBECDBF5C016B013A01490119A2F8
:1049C00018A28BE196E09F8F8E8F1BA21C821B8208
:1049D0009A8389831E822A961FAE1EAE2A978B0168
:1049E0007E018EE1E80EF11C44244394AE01455C47
:1049F0005F4FBE01685B7F4FC5010E948224582E25
:104A0000482F44259401BE01655C7F4FC801F30126
:104A10001995811108C00C151D0519F0C8010E94D7
:104A2000A22D80E027C05520B9F021E0AE01455C01
:104A30005F4FB801C7010E94D62E582E0C151D05D8
:104A400099F0C8010E94A22D552059F3902F812F73
:104A50008701E92EF82ECACF0C151D0519F0C801E3
:104A60000E94A22D81E006C08823D9F28E010F5F3B
:104A70001F4FECCFC75BDF4F0FB6F894DEBF0FBE02
:104A8000CDBFDF91CF911F910F91FF90EF90DF90FD
:104A9000CF90BF90AF909F908F907F906F905F90DE
:104AA0004F9008950F931F93CF93DF93EC01462F00
:104AB00061E00E942028882389F08E01045F1F4F47
:104AC000BE01C8010E946824882341F0B801CE01CC
:104AD0008A960E94262B91E0811101C090E0892FD7
:104AE000DF91CF911F910F910895FC01DB01129688
:104AF0008D919C911397938382838BE196E09183B0
:104B0000808314968C911497848315968C911597B5
:104B1000858316964D915D916D917C911997468391
:104B20005783608771871A964D915D916D917C9145
:104B30001D9742875387648775871E964D915D91B7
:104B40006D917C91519746875787608B718B5296F8
:104B50008C915297828B53964D915D916D917C9182
:104B60005697438B548B658B768B57964D915D9101
:104B70006D917C915A97478B508F618F728F5B96A6
:104B80008D919C915C97948F838F08954F925F9243
:104B90006F927F928F929F92AF92BF92CF92DF924D
:104BA000EF92FF920F931F93CF93DF93CDB7DEB7B2
:104BB000C754D1090FB6F894DEBF0FBECDBF6C014C
:104BC0005A014901665D7F4F7E018EE1E80EF11CBE
:104BD000C7010E9475251C821B828BE196E09A8397
:104BE00089831E828501FE0131963F0127016FE214
:104BF00070E0C8010E9481430097D9F1F80120813B
:104C00002F3219F40F5F1F4FF2CF801B8D3008F049
:104C10008CE0E82EF12CA701B801CE01CB960E94C2
:104C20009C43EBE3F0E0EC0FFD1FEE0DFF1D108247
:104C3000C3010E94A22D21E0AE01455C5F4FB2018D
:104C4000C3010E94D62E811109C0F601138212827F
:104C50008BE196E091838083158214C00E0D1F1D99
:104C6000C2010E94A22D942D852D2301692E782E3C
:104C7000BECF0A191B09F40111830083B201C601DA
:104C80000E947525C601C95BDF4F0FB6F894DEBFE1
:104C90000FBECDBFDF91CF911F910F91FF90EF908D
:104CA000DF90CF90BF90AF909F908F907F906F904C
:104CB0005F904F900895AF92BF92CF92DF92FF9294
:104CC0000F931F93CF93DF93CDB7DEB7C955D109AB
:104CD0000FB6F894DEBF0FBECDBF6C015B018A0139
:104CE000F22E9E01285A3F4FCE01CB960E94C62538
:104CF0006A968EAD9FAD6A97080F191FF8018081E3
:104D000081110AC0BE01655C7F4FCE0101960E94F1
:104D1000752543E253E041C019A218A28BE196E049
:104D20009F8F8E8F1BA221968FAD2197811104C07A
:104D3000C6010E94CE2337C08250823060F4B50194
:104D4000665D7F4F2F2DA801CE014E960E94D62E74
:104D5000811110C0EDCF2F2DA801BE01655C7F4FE2
:104D6000CE014E960E94D62E882311F3CE01CB960B
:104D70000E94A22D9F2D967041F049A95AA96BA9B6
:104D80007CA9CE014E960E94C52CBE01625E7F4F6B
:104D9000CE0101960E947525A801BE016F5F7F4F6D
:104DA000C6010E949923C601C75ADF4F0FB6F89477
:104DB000DEBF0FBECDBFDF91CF911F910F91FF904E
:104DC000DF90CF90BF90AF900895FB01BC01665D6E
:104DD0007F4F20E030E04CE554E2CF010C94C22438
:104DE000E3EEFBE0158216821186138682E090E0E6
:104DF000A0E0B0E084879587A687B78713A215A6A1
:104E000014A68BE196E093A782A717A608958FEFCB
:104E10000C94E81761E0FC0184810E9411408091AC
:104E20002C0C882321F010922C0C0C94FB0C089570
:104E3000CF93DF93EC0180912C0C811109C081E0AC
:104E400080932C0C80912D0C90912E0C0E94E10CE3
:104E500060E08C81DF91CF910C941140CF93DF9370
:104E6000EC018E81882389F08F8198859C012F5FCA
:104E70003F4F38872F838230924018F40E940727D3
:104E8000F3CFCE010E940A271E82DF91CF910895B1
:104E90000F93CF93DF931F921F92CDB7DEB767308A
:104EA00028F026E1FC01258380E047C06230F9F05C
:104EB00058F46623A9F0613079F500E021E040E084
:104EC00059E06DE370E02EC06430F9F0B8F0653061
:104ED00019F500E021E040E950ED63E070E022C008
:104EE00000E021E040E458E76DE771E01BC000E01E
:104EF00021E040E854E86EE170E014C000E021E0F9
:104F000040E452E46FE070E00DC000E021E040E2D8
:104F100051EA67E070E006C000E021E048E458EEA6
:104F200061E070E0CE0101960E94EF1389819A81C1
:104F300090932E0C80932D0C81E00F900F90DF91B9
:104F4000CF910F9108950F931F93CF93DF93EB01B0
:104F50000E948B3E8B010E9407278F3F49F00E94E1
:104F60008B3E601B710B6C177D07A8F380E001C0BE
:104F700081E0DF91CF911F910F910895CF92DF9241
:104F8000FF920F931F93CF93DF9300D01F92CDB763
:104F9000DEB76C01F62E29833A834B835C830E9433
:104FA0002E27C6010E9418276CE271E0C6010E94FC
:104FB000A3278F2D80640E94E81708E110E05C8130
:104FC0004B813A812981DA01C901002E04C0B695CE
:104FD000A795979587950A94D2F729833A834B83AF
:104FE0005C830E94E8170850110929813A814B819E
:104FF0005C81083F8FEF180731F7FF2029F0E8E0C8
:10500000FE1204C087E803C085E901C08FEF0E944B
:10501000E81710E00E940727F601828787FF04C087
:105020001F3F11F01F5FF6CF0F900F900F900F9062
:10503000DF91CF911F910F91FF90DF90CF90089556
:105040007F928F929F92AF92BF92CF92DF92EF9218
:10505000FF920F931F93CF93DF931F921F92CDB7B1
:10506000DEB77C01762EFC0113861186168215822E
:1050700044830E948B3E6B0161E0F70184810E94B2
:10508000D53F61E0F70184810E9411400E948F2288
:1050900000E021E040E950ED63E070E0CE010196D0
:1050A0000E94EF1389819A8190932E0C80932D0C8E
:1050B0000E94E10C1AE08FEF0E94E8171150D9F717
:1050C0000E94FB0CC7010E94182720E030E0A901D4
:1050D00060E0C7010E94BE27082FF7018287813058
:1050E00049F00E948B3E6C197D09613D774068F361
:1050F00081E04FC02AEA31E040E050E068E0C701BB
:105100000E94BE2782FF03C0F70103870EC004E0A0
:105110000E940727F70182870150D1F78A3A11F0E0
:1051200082E038C082E0F7018387F701838582300F
:1051300021F0812C912C540105C0812C912CA12CA3
:1051400080E4B82E20E030E0A90167E3C7010E94A7
:10515000BE27A501940169E2C7010E94BE27F7019D
:105160008287882349F00E948B3E6C197D09613D3E
:10517000774040F388E00DC083858230F1F420E071
:1051800030E0A9016AE3C7010E94BE27882339F0F5
:1051900086E0F7018583C7010E940A2716C00E9496
:1051A0000727807C803C19F483E0F70183870E9405
:1051B00007270E9407270E940727C7010E940A2786
:1051C000672DC7010E944827182F812F0F900F903D
:1051D000DF91CF911F910F91FF90EF90DF90CF90D3
:1051E000BF90AF909F908F907F9008950F931F93E3
:1051F000CF93DF93EC010E948B3E8B010E94072727
:105200008A878F3F49F40E948B3E601B710B6D3281
:105210007140A0F38FE003C08E3F39F08DE08D83A5
:10522000CE010E940A2780E001C081E0DF91CF918A
:105230001F910F910895CF92DF92EF92FF920F93FB
:105240001F93CF93DF93EC016901C801820F931F75
:105250008130924008F05CC08E81882371F0888193
:105260009981AA81BB81481759076A077B0729F4EE
:105270008F819885C816D90610F5488359836A83AB
:105280007B838B85833039F089E0440F551F661F7F
:10529000771F8A95D1F79A01AB0161E1CE010E9497
:1052A000BE27882319F083E08D8332C0CE010E948F
:1052B000F628882369F118861F8281E08E838F810A
:1052C00098858C159D0540F40E9407278F8198854D
:1052D000019698878F83F3CF6701E00EF11ECE14FD
:1052E000DF0431F00E940727F60181936F01F7CFA9
:1052F0008F819885080F191F18870F838985882348
:1053000019F00115124048F0CE010E942E2705C069
:10531000CE010E940A2780E001C081E0DF91CF9199
:105320001F910F91FF90EF90DF90CF900895EF9233
:10533000FF920F931F930115110519F00E941B296D
:1053400001C081E01F910F91FF90EF900895EF92BF
:10535000FF920F931F93790100E012E020E030E00C
:105360000E941B291F910F91FF90EF900895CF92FB
:10537000DF92EF92FF920F931F93CF93DF931F92D1
:105380001F92CDB7DEB78C01862F49835A830E94C6
:10539000E8174981C42E5A81D52E76018EEFF81A6E
:1053A000F60181916F010E94E817CE14DF04C1F766
:1053B0008FEF0E94E8178FEF0E94E8170E940727DF
:1053C000F8018287982F9F71953039F081E18583AC
:1053D000C8010E940A2780E001C081E00F900F9071
:1053E000DF91CF911F910F91FF90EF90DF90CF90C1
:1053F00008950F931F93CF93DF93EC01890141151B
:1054000051056105710511F482E132C08B8583304D
:1054100039F089E0440F551F661F771F8A95D1F731
:105420009A01AB0168E1CE010E94BE27882311F0EA
:1054300084E01EC0A8016EEFCE010E94B729882328
:10544000C1F068E572E0CE010E94A327811102C07D
:1054500085E10EC020E030E0A9016DE0CE010E94A0
:10546000BE27811104C00E940727882339F084E1F8
:105470008D83CE010E940A2780E004C0CE010E94E5
:105480000A2781E0DF91CF911F910F910895EDE2FE
:10549000FCE080E5808311820895CF93DF93EC01D7
:1054A0009C012A5F3F4F41E050E060E070E08B8D4F
:1054B0009C8D0E94E0338823A1F08F89988DA98D5F
:1054C000BA8D892B8A2B8B2B59F48E819F81A885CD
:1054D000B9858F8B988FA98FBA8F8C8180688C83C8
:1054E00081E0DF91CF910895CF92DF92EF92FF920A
:1054F0001F93CF93DF93EC010E944D2A811102C0CC
:1055000080E04AC0EB8DFC8DCE80DF80E884F9849A
:1055100082E0C81AD108E108F108058404C0CC0C67
:10552000DD1CEE1CFF1C0A94D2F786859785A089A6
:10553000B189C80ED91EEA1EFB1E148181E0C81A6B
:10554000D108E108F108112361F0C701B601610F2C
:10555000711D811D911D0E942F32882389F21150E7
:10556000F2CFEB8DFC8D80E092E0A0E0B0E005840E
:1055700004C0880F991FAA1FBB1F0A94D2F74B893A
:105580005C896D897E89840F951FA61FB71F8B8B41
:105590009C8BAD8BBE8B81E0DF91CF911F91FF90F3
:1055A000EF90DF90CF900895CF93DF93EC01462FDB
:1055B0006E857F85888999890E94F431882341F01E
:1055C0008A8920E2829FC0011124885C934F02C027
:1055D00080E090E0DF91CF910895FB019B01255F72
:1055E0003F4F40E24193E217F307E1F7DC0190E01F
:1055F00027E08D91882319F18E3219F0E0E7F2E06F
:1056000008C02A3009F198E02AE0F3CF3196381724
:10561000D9F034913111FACF2917B0F03FED380F9E
:105620003E3590F431E0390FFB01E90FF11D9FE9A0
:10563000980F9A3108F480528083932FDACF81E05B
:10564000FB019081903209F480E008950F931F933D
:10565000CF93DF93FC012581222311F080E042C02B
:105660008B01EC01FB0187898031B1F482E08D83ED
:105670001F8A188E198E1A8E808D918DA0E0B0E051
:1056800025E0880F991FAA1FBB1F2A95D1F78B8B86
:105690009C8BAD8BBE8B15C0803201F783E08D8370
:1056A000FB01428D538D648D758D4F8B588F698FA3
:1056B0007A8F9E012D5E3F4FC8010E94D73288230A
:1056C00069F21C8F0B8F81E08C831E821F821886EB
:1056D00019861A861B861C861D861E861F86188ABA
:1056E000198A1A8ADF91CF911F910F9108952F92F5
:1056F0003F924F925F926F927F928F929F92AF9262
:10570000BF92CF92DF92EF92FF920F931F93CF93AE
:10571000DF93EC015B014A018D81811103C08FEFA2
:105720009FEFD7C08C8180FFFACF4B885C886D8853
:105730007E884A855B856C857D85C401A0E0B0E0EC
:1057400093018201041B150B260B370B0817190751
:105750002A073B0718F44201841A950A24011E0106
:1057600026E0220E311C4114510409F47EC04A8502
:105770005B856C857D856A0181E0D822ED818A0197
:105780009B0189E036952795179507958A95D1F75E
:105790008B8D9C8DE23061F4FC01828D938DA48D04
:1057A000B58DBC01CD01600F711F821F931F3FC0DB
:1057B000FC0174807A947022C114D104C9F4711070
:1057C00017C0452B462B472B49F48F89988DA98DFF
:1057D000BA8D8E839F83A887B9870AC04E815F8167
:1057E0006885798591010E945332882309F497CF07
:1057F000EB8DFC8D8E819F81A885B9850297A109CB
:10580000B109058404C0880F991FAA1FBB1F0A9401
:10581000D2F74685578560897189840F951FA61F29
:10582000B71FBC01CD01670D711D811D911D20E0C9
:1058300032E02C193D0932012415350508F43901EF
:105840002C8126FD04C06114F2E07F0679F50091F9
:105850001F02109120022091210230912202601734
:1058600071078207930719F421C0C40132C0750182
:1058700083019601AB01BC018091360C9091370CED
:105880000E949729882309F44ACFA60CB71C8A8561
:105890009B85AC85BD85860D971DA11DB11D8A8791
:1058A0009B87AC87BD87461857085DCF40E00E94B4
:1058B000F431882309F433CFF601E85CF34FD501C6
:1058C000CF01860D971DE817F907F9F221912D9365
:1058D000FACFDF91CF911F910F91FF90EF90DF9062
:1058E000CF90BF90AF909F908F907F906F905F9080
:1058F0004F903F902F900895FF920F931F93CF9357
:10590000DF931F92CDB7DEB7FC012581223018F45A
:1059100080E090E033C08C01FC01428553856485B2
:10592000758585E076956795579547958A95D1F762
:10593000F42FFF70FF2E41E050E0BE016F5F7F4FFC
:10594000C8010E94772B019719F4898190E002C069
:105950008FEF9FEF0196E1F2F80182859385A48590
:10596000B5854F96A11DB11D82879387A487B58702
:10597000F0E2FF9EC0011124885C934F0F90DF91ED
:10598000CF911F910F91FF9008958F929F92AF92A8
:10599000BF92CF92DF92EF92FF920F931F93CF931C
:1059A000DF93EC018D81811102C080E077C00B890B
:1059B0001C892D893E890417150726073707A8F388
:1059C0006A017B01823029F4CA86DB86EC86FD867B
:1059D0000DC0C114D104E104F10451F41E821F82F0
:1059E000188619861A861B861C861D8681E056C07D
:1059F0008A849B84AC84BD84EB8DFC8D258530E04E
:105A0000275F3F4FB501A401415051096109710958
:105A1000022E04C076956795579547950A94D2F75C
:105A2000D701C6010197A109B10904C0B695A79590
:105A3000979587952A95D2F784179507A607B707F4
:105A400020F089288A288B2849F44F89588D698D40
:105A50007A8D4E835F836887798704C0841B950B9A
:105A6000A60BB70B4C015D018E010A5F1F4F81141D
:105A70009104A104B10409F4A7CF4E815F81688528
:105A8000798598018B8D9C8D0E94533291E0891A03
:105A90009108A108B1088111EACF87CFDF91CF919A
:105AA0001F910F91FF90EF90DF90CF90BF90AF903C
:105AB0009F908F9008950F931F93CF93DF93EC01E6
:105AC0008D818823C9F18C8187FF30C061E0CE01D0
:105AD0000E94D42A8C01892B79F18D81823048F47F
