:100000000C94F1010C9422020C9422020C94220212
:100010000C9422020C9422020C9422020C942202D0
:100020000C9422020C9422020C9422020C942202C0
:100030000C9422020C9422020C9422020C942202B0
:100040000C9422020C9422020C9422020C942202A0
:100050000C9422020C9422020C9422020C949C44D4
:100060000C9422020C941C3E0C94523E0C942202DE
:100070000C9422020C9422020C9422020C94220270
:100080000C9422020C9422020C9422020C94220260
:100090000C9422020C9422020C9422020C94220250
:1000A0000C9422020C9422020C9422020C94220240
:1000B0000C9422020C9422020C9422020C94220230
:1000C0000C9422020C9422020C9422020C94B33E53
:1000D0000C94E93E0C9422020C944A3F0C94803F0D
:1000E0000C94220200460346F245F645FC453A468A
:1000F00007460B461146154619461F462346274616
:100100003A462D46314635460C942D130C9426164E
:100110000C94462A0C94C3280C94942A0C943A46C6
:100120000C94E5150C94A9250C94D5110C94B01DD4
:100130000C9400460C94DE150C941F140C946A1356
:100140000C9424130C942D460C94F5150C94611307
:100150000C94A1110C94AA3F0C94F8110C94A814BF
:100160000C9435460C94A7130C94B83C0C94C720FF
:100170000C94F1130C94A4110C9459140C940116C2
:100180000C9424020C94CF140C94F9150C949D2912
:100190000C94CF050C940F170C9486120C94074600
:1001A0000C94B4110C9462290C9499110C948D1335
:1001B0000C94953D0C94F6450C94C63C0C94A20608
:1001C0000C9442130C943D170C9417160C94CC16F7
:1001D0000C94F2370C94AC3C0C94D3150C94181678
:1001E0000C9474200C94483D0C94E93C0C941F46EC
:1001F0000C94C2160C9473130C9458400C94863EC5
:100200000C9403460C9480170C947C3E0C9423466B
:100210000C94FC450C942E170C94A6110C94DA3C0B
:100220000C94E13F0C944C290C9411460C94B011A1
:100230000C94FD150C9479150C94CA110C94441669
:100240000C9492140C948B110C94133F0C948B28E7
:100250000C9427020C94D2160C947E290C942746F9
:100260000C940B460C94332D0C94F2450C949E3058
:100270000C9487140C94B43F0C94DA170C94314608
:100280000C94A7290C94E6160C941D3F0C94194667
:100290000C9415467C3C3E5E2B3D3F2F5B5D3B2C1A
:1002A0002A225C0000000A0B02090C0D0E0807034D
:1002B0000401000000000000000000000000000039
:1002C000000000000000000000000000000000002E
:1002D00012111000000000000000000000000000EB
:1002E00000000000000000000000010210202008B3
:1002F0000810204010204080020102010804020181
:1003000001020408102040808040201008040201EF
:100310008004020180402010080402010804020148
:1003200001020408102040800102040810204080CF
:1003300005050505070508080808020202020A0A61
:10034000080804040404010101010101010103037F
:10035000030303030303040707070C0C0C0C0C0C2A
:100360000C0C0202020206060606060606060B0B27
:100370000B0B0B0B0B0B00002000230026002900A9
:100380002C002F00320000010000030106010901CA
:1003900000002200250028002B002E003100340030
:1003A00002010000050108010B01000021002400EA
:1003B00027002A002D003000330001010000040155
:1003C00007010A01CF058B118714D315DA17B01D69
:1003D0007420C720A925332D9E30863E1D3FB43F93
:1003E000A20611241FBECFEFD1E2DEBFCDBF00E0D9
:1003F0000CBF16E0A0E0B2E0E8E2F6E900E00BBFD7
:1004000002C007900D92A039B107D9F720E1A0E909
:10041000B6E001C01D92AE3FB207E1F711E0C0EFB8
:10042000D1E000E006C021970109802FFE010E9463
:100430001047C23ED10780E00807A9F70E9489440F
:100440000C94024B0C94000080E090E00895089515
:10045000009711F00E94CE4061E08DE00E943B4683
:1004600061E08DE00E9477466AEF70E080E090E006
:100470000E94174560E08DE00E9477466AEF70E0C9
:1004800080E090E00E941745EBCFFB016081718115
:100490000C94282DCF92DF92EF92FF920F931F932F
:1004A000CF93DF9300D000D0CDB7DEB78C016B01C6
:1004B000E090D306F090D4066BE272E0CE01019694
:1004C0000E945042A701BE016F5F7F4F85EB96E00F
:1004D0000E9416449093D4068093D306CE010196D1
:1004E0000E94E241E090D306F090D406B60185EB7D
:1004F00096E00E943344F601448155814F5F5F4F7F
:10050000480F591F970165EB76E0C8010E943744F8
:10051000C80126960FB6F894DEBF0FBECDBFDF919F
:10052000CF911F910F91FF90EF90DF90CF900895A2
:10053000CF93DF93EC0168E173E00E9450426DE2DB
:1005400072E0CE010E94854267EC76E0CE010E9407
:10055000234367E372E0CE010E942A436DEC76E00C
:10056000CE010E94234361E472E0CE010E942A433F
:10057000CE01DF91CF910895CF93DF93EC0168E135
:1005800073E00E9450426DE272E0CE010E9485420B
:1005900067EC76E0CE010E94234367E372E0CE0170
:1005A0000E942A436DEC76E0CE010E94234368E46A
:1005B00072E0CE010E942A4361EC76E0CE010E94F7
:1005C000234361E472E0CE010E942A43CE01DF9111
:1005D000CF910895CF93DF93FB0122813381DC011A
:1005E00013963C932E9312974481558166817781AF
:1005F00014964D935D936D937C9317974085518529
:100600006285738518964D935D936D937C931B97CC
:100610001C96EF012C969C01275E3F4F49914D930C
:10062000A217B307D9F7218D328DFC01328F218FAC
:10063000DF91CF91089524E0660F771F2A95E1F7A7
:1006400034E0880F991F3A95E1F720E030E0F90196
:10065000E60FF71FE455F84F40815181F901E80F8B
:10066000F91FE455F84F518340832E5F3F4F2031EF
:10067000310569F70895FB019C01205F3F4FDC01C4
:100680006D917D91CD01419151916417750729F4C8
:10069000A217B307A1F781E0089580E00895EF92D3
:1006A000FF920F931F93CF93DF937C010CEA17E027
:1006B000C0E0D0E0B701C8010E943B03811109C02E
:1006C0002196005F1F4FCC33D105A1F78FEF9FEF2D
:1006D00001C0CE01DF91CF911F910F91FF90EF905C
:1006E0000895CF93DF930E944F0320910A02019651
:1006F00049F4222381F066E572E089E19FE00E94DF
:10070000CE4009C0222351F06AE572E089E19FE002
:100710000E94CE4003C0CFEFDFEF02C0C1E0D0E0C7
:1007200080910A02882331F060E672E089E19FE05F
:100730000E94A540CE01DF91CF9108950F931F93A2
:10074000CF93DF9388E10E94A646892BA9F180917F
:10075000820790918307892B79F18091840790918A
:100760008507009741F464E672E0809180079091DC
:1007700081070E942802FC01C081D181028113817E
:100780000E949A4410938507009384078091820702
:100790009091830701979093830780938207CE01FE
:1007A0000E94482964E670E080E090E0DF91CF91FC
:1007B0001F910F910C941745DF91CF911F910F91CD
:1007C0000895EF92FF920F931F93CF93DF93EC0165
:1007D00081E08093F60665E073E080EF96E00E948A
:1007E000854268E173E0CE010E9450426AE073E006
:1007F000CE010E942A430CEA17E0F8018081918122
:10080000892BD9F0E12CF12CF801EE0DFF1D608150
:10081000CE010E943943F2E0EF0EF11C80E1E816B0
:10082000F10491F76AE073E0CE010E942A43005F71
:100830001F4FEBE00C361E0701F7CE01DF91CF9181
:100840001F910F91FF90EF900895EF92FF920F93F9
:100850001F93CF93DF93EC0181E08093F60665E070
:1008600073E080EF96E00E94854268E173E0CE017C
:100870000E9450426AE073E0CE010E942A430CEAD3
:1008800017E0F80180819181892B09F1E12CF12C8D
:10089000F801EE0DFF1D60817181CE010E944D4374
:1008A0006DEB72E0CE010E942A43F2E0EF0EF11CE4
:1008B00080E1E816F10461F76AE073E0CE010E947E
:1008C0002A43005F1F4FEBE00C361E07D1F6CE0126
:1008D000DF91CF911F910F91FF90EF900895EF92CC
:1008E000FF920F931F93CF93DF9300D000D0CDB72B
:1008F000DEB78C017B0165E073E080EF96E00E943B
:10090000854264EB7BE0C7010E94C143811106C0B0
:100910006CE073E080EF96E00E94854268E173E04E
:10092000C8010E94504281E08093F60680E00E9458
:10093000C045BC01990F880B990B0E949E41E12C88
:10094000F12C80910B0290910C02E816F906DCF470
:100950006AE070E080E090E00E94A641AB01BC013B
:100960002AE0CE0101960E94C842BE016F5F7F4F10
:10097000C8010E942343CE0101960E94E2418FEFFD
:10098000E81AF80ADECFB80182EA9BE00E946542CD
:10099000C80126960FB6F894DEBF0FBECDBFDF911B
:1009A000CF911F910F91FF90EF900895CF93DF9318
:1009B00000D000D0CDB7DEB78AE996E00E942D13B3
:1009C00068E173E0CE0101960E9450428091F606E4
:1009D0008823A9F060E97BE0CE0101960E94654280
:1009E00060EF76E0CE0101960E94234361E173E05F
:1009F000CE0101960E942A4364E976E00EC066E9C2
:100A00007BE0CE0101960E94654264E976E0CE016A
:100A100001960E9423436AE87BE0CE0101960E9482
:100A20002343BE016F5F7F4F8AE996E00E949740A3
:100A300061E070E080E090E00E9417458AE996E06E
:100A40000E94A71380910A02882331F069E173E0C4
:100A500089E19FE00E94CE40CE0101960E94E241D2
:100A600026960FB6F894DEBF0FBECDBFDF91CF91B3
:100A70000895CF92DF92EF92FF920F931F93CF933F
:100A8000DF9300D000D0CDB7DEB78C016B016EEFE5
:100A900076E088EF96E00E948542B60188EF96E006
:100AA0000E943344019631F46CE273E0C8010E9465
:100AB000504232C0B60188EF96E00E943344F601FE
:100AC000E480F580FFEFEF1AFF0AE80EF91E6BE2F3
:100AD00072E0CE0101960E945042A701BE016F5FF5
:100AE0007F4F88EF96E00E9416447C01B60188EFA4
:100AF00096E00E943344F601448155814F5F5F4F79
:100B0000480F591F970168EF76E0C8010E943744EB
:100B1000CE0101960E94E241C80126960FB6F894D4
:100B2000DEBF0FBECDBFDF91CF911F910F91FF9020
:100B3000EF90DF90CF900895EF92FF920F931F9365
:100B4000CF93DF93EC017B010E811F8184E090E065
:100B50000E9498449F838E83009731F46FE273E084
:100B6000888199810E942802FC0113821282F182FD
:100B7000E0822C813D81232B19F49D838C8303C05B
:100B8000F801938382838A819B8101969B838A8368
:100B9000DF91CF911F910F91FF90EF9008950F93E8
:100BA00000E020E040E060E084EC9BE00E942D400B
:100BB00060E673E084EB9BE00E94504206E221E095
:100BC00048EA60EC8EEA9BE00E942D40E8EAFBE0F8
:100BD0001382128280E196E09183808380E590E029
:100BE0009583848368E173E082EA9BE00E9450422F
:100BF00066E673E08CE99BE00E9450426DE673E08C
:100C000086E99BE00E94504263EB73E080E99BE041
:100C10000E9450426DEB73E08AE89BE00E945042D4
:100C20006AEF72E084E89BE00E94504268EC73E057
:100C30008EE79BE00E9450426EE074E088E79BE004
:100C40000E94504268E174E082E79BE00E945042BB
:100C50006DE274E08CE69BE00E94504262E474E036
:100C600084E997E00E9450426CE474E08EE897E0DB
:100C70000E94504268E574E088E897E00E94504284
:100C8000E0E8F7E01382128215821482178216823E
:100C9000118210824AE060E870E088EF96E00E94DE
:100CA0009C4268E173E080EF96E00E94504285ED3F
:100CB00096E00E94062A68E173E08DEC96E00E94BF
:100CC000504268E173E087EC96E00E94504268E190
:100CD00073E081EC96E00E94504268E173E08BEB98
:100CE00096E00E94504268E173E085EB96E00E9436
:100CF000504268E173E08FEA96E00E9450426CE255
:100D000073E089EA96E00E945042EAE9F6E0138235
:100D1000128288EE93E0A0E0B0E084839583A683FE
:100D2000B78382EE95E09183808388E0848788EEA4
:100D300093E09687858768E173E084E996E00F91F8
:100D40000C945042CF93DF9384E996E00E94E241F5
:100D500089EA96E00E94E2418FEA96E00E94E24131
:100D600085EB96E00E94E2418BEB96E00E94E24127
:100D700081EC96E00E94E24187EC96E00E94E2411D
:100D80008DEC96E00E94E24180EF96E00E94E24105
:100D900088EF96E00E94E241C0918407D0918507D8
:100DA000CD2B71F08091840790918507FC01C28161
:100DB000D3810E949A44D0938507C0938407F0CFD3
:100DC00088E897E00E94E2418EE897E00E94E241C5
:100DD00084E997E00E94E2418CE69BE00E94E241B8
:100DE00082E79BE00E94E24188E79BE00E94E241AB
:100DF0008EE79BE00E94E24184E89BE00E94E24192
:100E00008AE89BE00E94E24180E99BE00E94E24187
:100E100086E99BE00E94E2418CE99BE00E94E2416E
:100E200082EA9BE00E94E24184EB9BE0DF91CF915C
:100E30000C94E241CF93DF93C0E0D0E08091BF06F5
:100E40009091C006C817D90768F4BE018BEB96E0F5
:100E50000E94F143FC01608185ED96E00E944C29DF
:100E60002196ECCFDF91CF910895AF92BF92CF92B0
:100E7000DF92EF92FF920F931F93CF93DF93CDB743
:100E8000DEB7A7970FB6F894DEBF0FBECDBF5C01EB
:100E90006B017A0140918E0750918F0727E164EC36
:100EA0007CE0CE0101960E94B12CBE016F5F7F4FA6
:100EB00085ED96E00E94EA0268E173E0CE01829639
:100EC0000E94504268E173E0CE014C960E9450426D
:100ED00085ED96E00E94872A882309F44FC085019A
:100EE00080E1A80EB11CF80160810E5F1F4FCE019A
:100EF00082960E9439430A151B05A9F76CE273E03C
:100F0000C7010E94D243B601882381F08DEC96E0A0
:100F10000E946542BE016E5D7F4F87EC96E00E94A5
:100F20006542CE0101960E94980214C08DEC96E0B5
:100F30000E946542BE016E5D7F4F87EC96E00E9485
:100F40006542B70181EC96E00E946542CE010196B0
:100F50000E94BC02BE016F5F7F4FCE014C960E9483
:100F60006542CE0101960E94E241BE01645E7F4F60
:100F70008BEB96E00E9465420E941A0785ED96E091
:100F80000E94752ACE014C960E94E241CE018296C3
:100F90000E94E241A7960FB6F894DEBF0FBECDBF08
:100FA000DF91CF911F910F91FF90EF90DF90CF9045
:100FB000BF90AF900895CF92DF92EF92FF920F9380
:100FC0001F93CF93DF93CDB7DEB7E3970FB6F894B7
:100FD000DEBF0FBECDBF7C016B0168E173E0CE01C7
:100FE0008E960E94504268E173E0CE0188960E947E
:100FF000504264E674E0C7010E945042860180E1DD
:10100000C80ED11CF80160810E5F1F4FCE018E9675
:101010000E9439430C151D05A9F740918E07509188
:101020008F0721E064EC7CE0CE0101960E94B12C98
:10103000BE016F5F7F4F85ED96E00E94EA0285ED6D
:1010400096E00E94872A882309F460C085ED96E027
:101050000E94462A892B09F455C085ED96E00E942E
:101060009D298B3739F468E173E0CE0188960E94A0
:101070008542ECCF8D3751F7BE01685D7F4F85EB20
:1010800096E00E94654269E674E0CE0101960E94F6
:101090005042BE016F5F7F4FCE0182960E944A028E
:1010A000CE0101960E94E241BE01625D7F4FCE01FA
:1010B00082960E94C143882301F16EE674E0CE015E
:1010C0004C960E945042BE01645E7F4FCE01019655
:1010D0000E944A02BE016F5F7F4FC7010E946542B6
:1010E000CE0101960E94E241CE014C960E94E2415F
:1010F000CE0182960E94E24109C0CE0182960E94F2
:10110000E241A4CF85ED96E00E94752ACE01889633
:101110000E94E241CE018E960E94E241C701E39611
:101120000FB6F894DEBF0FBECDBFDF91CF911F91F8
:101130000F91FF90EF90DF90CF900895CF93DF93C2
:1011400000D000D0CDB7DEB76CE977E0CE010196D4
:101150000E94DB0726E030E040E050E061E070E014
:1011600080E090E00E94C04180E897E00E949C05EA
:1011700064E674E0CE0101960E94D243811108C05A
:10118000CE0101960E947C4480E897E00E949C0575
:1011900060ED77E080E090E00E941745CE01019677
:1011A0000E94E24126960FB6F894DEBF0FBECDBF77
:1011B000DF91CF910895EF92FF920F931F93CF93FA
:1011C000DF93CDB7DEB7E3970FB6F894DEBF0FBE5F
:1011D000CDBF7C0168E173E0CE018E960E94504243
:1011E00068E173E0CE0188960E94504268E173E0A6
:1011F000CE0182960E945042870180E1E80EF11CE8
:10120000F80160810E5F1F4FCE018E960E94394318
:101210000E151F05A9F7BE01625D7F4F89E19FE0B2
:101220000E94BC4040918E0750918F0721E064ECF2
:101230007CE0CE0101960E94B12CBE016F5F7F4F12
:1012400085ED96E00E94EA0285ED96E00E94872AED
:10125000882309F472C085ED96E00E94462A892B06
:1012600009F442C085ED96E00E949D298B3739F440
:1012700068E173E0CE0188960E948542ECCF8D37FD
:1012800051F7BE01685D7F4F85EB96E00E94654295
:1012900069E674E0CE0101960E945042BE016F5F84
:1012A0007F4FCE014C960E944A02CE0101960E94C9
:1012B000E241BE01625D7F4FCE014C960E94C14368
:1012C00081110DC0BE01685D7F4FCE0182960E94E4
:1012D000234366E173E0CE0182960E942A43CE0149
:1012E0004C960E94E241B7CF85ED96E00E94752AA8
:1012F0006EE877E084EC9CE00E94450240918E0706
:1013000050918F0727E164EC7CE0CE0101960E94AA
:10131000B12CBE016F5F7F4F85ED96E00E94EA021F
:10132000BE016E5D7F4F8BEB96E00E9465420E948E
:101330001A0785ED96E00E94752ACE0182960E94DA
:10134000E241CE0188960E94E241CE018E960E9433
:10135000E241E3960FB6F894DEBF0FBECDBFDF913A
:10136000CF911F910F91FF90EF900895CF93DF934E
:10137000CDB7DEB7AD970FB6F894DEBF0FBECDBFC9
:1013800040918E0750918F0721E064EC7CE0CE0104
:1013900001960E94B12CBE016F5F7F4F85ED96E0F4
:1013A0000E94EA0268E173E0CE0188960E945042F2
:1013B00068E173E0CE0182960E94504285ED96E08E
:1013C0000E94872A882309F468C085ED96E00E9470
:1013D000462A892BC9F185ED96E00E949D298B371D
:1013E00039F468E173E0CE0182960E948542EDCF28
:1013F0008D3759F7BE016E5D7F4F85EB96E00E94F9
:10140000654269E674E0CE0101960E945042BE0139
:101410006F5F7F4FCE014C960E944A02CE0101962B
:101420000E94E241BE01645E7F4FCE0188960E9419
:10143000234366E173E0CE0188960E942A43CE01E1
:101440004C960E94E241C1CF85ED96E00E94752A3C
:1014500064E977E084EC9CE00E94450240919407A7
:101460005091950727E164EC7CE0CE0101960E9443
:10147000B12CBE016F5F7F4F85ED96E00E94EA02BE
:10148000BE01685D7F4F8BEB96E00E9465420E9433
:101490001A0785ED96E00E94752ACE0182960E9479
:1014A000E241CE0188960E94E241AD960FB6F894D3
:1014B000DEBF0FBECDBFDF91CF9108958F929F9277
:1014C000AF92BF92CF92DF92EF92FF920F931F9352
:1014D000CF93DF93CDB7DEB76B970FB6F894DEBF2F
:1014E0000FBECDBF409194075091950721E064EC69
:1014F0007CE0CE0101960E94B12CCE0101960E94A3
:10150000872A882309F451C08CEAC82E87E0D82E98
:101510009AE0892E912CA12CB12CE12CF12CCE013A
:1015200001960E94462A892BE1F100E010E0CE01ED
:1015300001960E949D29F601E00FF11F918380839F
:1015400020910A02222369F04AE050E0BC0189E1BF
:101550009FE00E9497416DEB72E089E19FE00E945D
:10156000A5400E5F1F4F0031110509F78FEFE81AF4
:10157000F80AB501A401CE0101960E94192A8091B2
:101580000A02811109C08AE0880E911CA11CB11CBD
:1015900080E1C80ED11CC3CF89E19FE00E94B84012
:1015A000F2CFF0929B07E0929A07CE0101960E943B
:1015B000752A6B960FB6F894DEBF0FBECDBFDF91D4
:1015C000CF911F910F91FF90EF90DF90CF90BF9040
:1015D000AF909F908F900895AF92BF92CF92DF927D
:1015E000EF92FF920F931F93CF93DF93CDB7DEB7A8
:1015F000A7970FB6F894DEBF0FBECDBF5C018091F8
:101600009A0790919B07F501BC0124E0660F771FB4
:101610002A95E1F720E030E041915191D901A60FE0
:10162000B71FA455B84F4D935C932E5F3F4F2031A9
:10163000310591F7019690939B0780939A0764E98F
:1016400077E084EC9CE00E94450240919407509121
:10165000950727E164EC7CE0CE0101960E94B12C55
:10166000CE0101960E94872A882339F18CEAE82E60
:1016700087E0F82EC12CD12C80919A0790919B077E
:10168000C816D906D0F400E010E0F701E00FF11F12
:101690006081CE0101960E944C290E5F1F4F0031E0
:1016A000110599F7CE0101960E94B8408FEFC81A34
:1016B000D80A80E1E80EF11CDFCFCE0101960E942E
:1016C000752A0E945E0A69EA76E0CE014C960E9475
:1016D0007C426FEA76E0CE0182960E947C42AE01A7
:1016E000445E5F4FBE016E5D7F4FC5010E943507AE
:1016F000CE0182960E94E241CE014C960E94E241C8
:10170000A7960FB6F894DEBF0FBECDBFDF91CF9185
:101710001F910F91FF90EF90DF90CF90BF90AF900F
:1017200008958F929F92AF92BF92CF92DF92EF92E5
:10173000FF920F931F93CF93DF93CDB7DEB7A097A0
:101740000FB6F894DEBF0FBECDBF8C014B0168E130
:1017500073E00E94504267E774E0CE0101960E9458
:101760005042B401CE0101960E947E43BC01C801E3
:101770000E946542CE0101960E94E24180910A02D8
:10178000882331F06AE974E089E19FE00E94A54076
:101790007E0121E1E20EF11C5701C12CD12CB601D2
:1017A000C4010E941444682F880F770BD5016D93F4
:1017B0007D935D0180910A02882361F04AE050E048
:1017C00089E19FE00E9497416DEB72E089E19FE023
:1017D0000E94A540BFEFCB1ADB0AE8E0CE16D10489
:1017E000F1F6C7010E9471038F3FFFEF9F0751F091
:1017F000019719F564E87BE0C8010E94234369EB77
:1018000074E018C0FE013196CE018196D7012D916A
:101810003D917D0121933193A817B907B9F7CE0106
:1018200001960E94EC0A64E87BE0C8010E94234311
:1018300060EA74E0C8010E942A43C801A0960FB66E
:10184000F894DEBF0FBECDBFDF91CF911F910F91F6
:10185000FF90EF90DF90CF90BF90AF909F908F90D0
:101860000895AF92BF92CF92DF92EF92FF920F93C3
:101870001F93CF93DF93CDB7DEB76B970FB6F89476
:10188000DEBF0FBECDBF7C010E944F0320919A079F
:1018900030919B078217930740F48C010F5F1F4F15
:1018A000B8010E941B03C801F1CF215031093093C8
:1018B0009B0720939A0764E977E084EC9CE00E9400
:1018C0004502409194075091950727E164EC7CE034
:1018D000CE0101960E94B12CCE0101960E94872A6A
:1018E000882339F18CEAC82E87E0D82EA12CB12CA0
:1018F00080919A0790919B07A816B906D0F400E052
:1019000010E0F601E00FF11F6081CE0101960E9408
:101910004C290E5F1F4F0031110599F7CE0101963A
:101920000E94B8408FEFA81AB80A80E1C80ED11CF7
:10193000DFCFCE0101960E94752A0E945E0AC70180
:101940000E94DB086B960FB6F894DEBF0FBECDBFCA
:10195000DF91CF911F910F91FF90EF90DF90CF908B
:10196000BF90AF9008958F929F92AF92BF92CF9207
:10197000DF92EF92FF920F931F93CF93DF93CDB738
:10198000DEB7A0970FB6F894DEBF0FBECDBF8C01B7
:101990004B0168E173E00E9450426DEC74E0CE01AF
:1019A00001960E945042B401CE0101960E947E43EE
:1019B000BC01C8010E946542CE0101960E94E2412D
:1019C00080910A02882331F06AE974E089E19FE09E
:1019D0000E94A5407E0121E1E20EF11C5701C12CBD
:1019E000D12CB601C4010E941444682F880F770BD4
:1019F000D5016D937D935D0180910A02882361F08A
:101A00004AE050E089E19FE00E9497416DEB72E06F
:101A100089E19FE00E94A540BFEFCB1ADB0AE8E016
:101A2000CE16D104F1F6C7010E9471038F3FFFEF7C
:101A30009F0739F0019721F5FE013196CE0181967D
:101A400008C064E87BE0C8010E94234363EF74E0B0
:101A500014C0D7012D913D917D0121933193A81799
:101A6000B907B9F7CE0101960E94310C64E87BE01A
:101A7000C8010E94234364E175E0C8010E942A4323
:101A8000C801A0960FB6F894DEBF0FBECDBFDF91A0
:101A9000CF911F910F91FF90EF90DF90CF90BF906B
:101AA000AF909F908F9008950F931F93CF93DF93E4
:101AB000CDB7DEB7AA970FB6F894DEBF0FBECDBF85
:101AC0006EEF76E088EF96E00E9485426FE275E067
:101AD000CE0101960E945042BE016F5F7F4FCE0142
:101AE00085960E943905CE0101960E94E241CE0101
:101AF00085960E947C448B0162E375E0CE010196DD
:101B00000E945042BE016F5F7F4FCE014F960E94F0
:101B10003905CE0101960E94E24166E375E084E951
:101B200096E00E94854269E674E0CE0101960E942B
:101B30005042BE016F5F7F4FCE0149960E9439052A
:101B4000CE0101960E94E2416FE475E0CE0101965C
:101B50000E945042BE016F5F7F4FCE0143960E94AC
:101B60003905CE0101960E94E24164E575E0CE019F
:101B700001960E945042BE016F5F7F4FCE010D96CD
:101B80000E943905CE0101960E94E24168E173E0AE
:101B900084E996E00E94854264EB7BE0CE014F969B
:101BA0000E94C143811110C081E08093F6066CE071
:101BB00073E080EF96E00E94854268E173E084E97B
:101BC00096E00E94854270C00330110509F44AC0B6
:101BD000B4F40130110549F10230110509F064C077
:101BE000BE01675E7F4FCE0107960E947C42BE0118
:101BF000695F7F4FCE0101960E94B30C46C004304E
:101C00001105A9F10530110509F04EC0BE01615E54
:101C10007F4FCE0107960E947C42BE01695F7F4FD5
:101C2000CE0101960E946F0430C0BE016D5E7F4FF1
:101C30008FEA96E00E946542BE01635F7F4F89EAAA
:101C400096E00E946542BE01675E7F4FCE01079617
:101C50000E947C42BE01695F7F4FCE0101960E94C7
:101C6000910B13C0CE0101960E94E10304C0CE0186
:101C700001960E942504BE016F5F7F4F84E996E0C4
:101C80000E946542CE0101960DC0BE016F5F7F4F7D
:101C900084E996E00E946542CE0101960E94E241ED
:101CA000CE0107960E94E2410E94D604CE010D9615
:101CB0000E94E241CE0143960E94E241CE01499644
:101CC0000E94E241CE014F960E94E241CE018596EC
:101CD0000E94E241AA960FB6F894DEBF0FBECDBFB8
:101CE000DF91CF911F910F9108950F931F93CF9381
:101CF000DF93CDB7DEB72F970FB6F894DEBF0FBED8
:101D0000CDBF68EA7BE0CE0101960E9411158B8160
:101D10009C8190939D0680939C068D819E81AF81CE
:101D2000B88580939E0690939F06A093A006B093DB
:101D3000A10689859A85AB85BC858093A206909380
:101D4000A306A093A406B093A5068D858093A6064E
:101D50002E853F853093A8062093A706883008F08B
:101D600082C06AE575E089E19FE00E94CE40109252
:101D70007F0710927E074AE060E870E0CE0101968E
:101D80000E949C42BE016F5F7F4F88EF96E00E94E9
:101D90006542CE0101960E94E24120917E0730917A
:101DA0007F07EEEFF6E080E2AF014E5F564042174C
:101DB00053071CF011E006E211C08193F5CF8AE9C8
:101DC00096E00E946113892B49F08AE996E00E940F
:101DD00073138A30F1F5111120C011E08AE996E001
:101DE0000E94D5118111EBCF38C08AE996E00E949C
:101DF00073138093F70620917E0730917F07203878
:101E000031055CF4A9014F5F5F4F50937F0740930A
:101E10007E07F901E250F94F80838AE996E00E943B
:101E20006113892B11F7E0917E07F0917F07E25053
:101E3000F94F00836BE675E089E19FE00E94CE4098
:101E40006EEF76E089E19FE00E94A5400E94540D6C
:101E5000C5CF8D3019F210E0C1CF62E875E089E19D
:101E60009FE00E94CE402F960FB6F894DEBF0FBEC3
:101E7000CDBFDF91CF911F910F910895CF93DF9345
:101E800000D000D0CDB7DEB71092F60668E173E05F
:101E9000CE0101960E9450420E94750ECE0101961D
:101EA0000E94E24126960FB6F894DEBF0FBECDBF6A
:101EB000DF91CF9108950F931F93CF93DF9300D0BD
:101EC00000D0CDB7DEB726E040E052EC61E070E034
:101ED00089E19FE00E94B73D26E040E052EC61E0DE
:101EE00070E083E590E10E94B73D26E040E855E2CE
:101EF00060E070E086EB9FE00E94B73D86EB9FE0DC
:101F00000E94E32889E190E00E94442964E670E0A1
:101F100080E090E00E94174566E184EC9CE00E941E
:101F20008F2B81110AC080910A02882331F06EE85C
:101F300075E089E19FE00E94CE4080910A028823EB
:101F400031F06AEA75E089E19FE00E94CE400E948C
:101F5000B6090E945E0A6CEB75E089E19FE00E9481
:101F6000A54000EA1FE020E030E040E65AEE60E0E5
:101F700070E08DE092E00E94A91064EC75E089E1C8
:101F80009FE00E94A54088EA9BE00E94A8146CECA8
:101F900075E089E19FE00E94A540CE0101960E9474
:101FA0007311BE016F5F7F4F89E19FE00E94E040A7
:101FB0008FEF9FEF909391068093900690939306F6
:101FC0008093920626960FB6F894DEBF0FBECDBF63
:101FD000DF91CF911F910F91089583E590E10E94C9
:101FE000AC3C892B59F48FEF9FEF9093910680932F
:101FF00090069093930680939206089583E590E16E
:102000000E94C63C9C012C5731092330310548F40D
:1020100090939306809392061092910610929006E8
:102020000895209190063091910637FD0EC0A901C8
:102030004F5F5F4F5093910640939006220F331FDE
:10204000F901E456F84F9183808380919006909136
:102050009106089781F580919206909193068E37AC
:10206000910571F48CE997E00E947103019621F4C7
:102070008CE997E00C94EC0A8CE997E00C94310C15
:102080008C37910599F48CE997E00E944F030196F3
:1020900039F06AED75E083E590E10E94A54009C042
:1020A0006CED75E083E590E10C94A5408D379105CA
:1020B00011F40C949E0808950E949E030E94ED0F57
:1020C0000C943E0F2091B80C222399F04FB7F8944E
:1020D0002091B80C213059F42DB32093B60C3DB3A8
:1020E0002091B70C209523232DBB4FBF02C04093F6
:1020F000B60C8CBD9DBD08958091B80C882361F00D
:102100009FB7F8942091B80C8091B60C213019F447
:102110008DBB9FBF08958FBF089544E050E0BC0180
:1021200081E090E00C94F11D44E050E0BC0185E0BA
:1021300090E00C94F11D46E050E0BC0189E090E095
:102140000C94F11D44E050E0BC018FE090E00C9451
:10215000F11D4F925F926F927F928F929F92AF92FA
:10216000BF92CF92DF92EF92FF920F931F93CF9384
:10217000DF9300D000D0CDB7DEB76C014A015B0120
:10218000280139018091280C811120C01092100C77
:1021900010920F0C88EE93E0A0E0B0E08093110C59
:1021A0009093120CA093130CB093140C80E296E061
:1021B00090930E0C80930D0C8BE19CE00E942340C9
:1021C00088E08093250C81E08093280C8AEC9BE0CA
:1021D0009093310C8093300C0E94EA1F882309F4FD
:1021E00069C080E591E00E946210C6010E949B10C8
:1021F00000E020E040E060E0CE0101960E942D402A
:10220000CE0103960E94A2100E947C1083017201ED
:10221000A5019401B6018091300C9091310C0E947F
:1022200028258130910509F047C080E591E00E94A2
:1022300062106091300C7091310CCE0101960E94B9
:102240008620CE0103960E94A2106091300C7091FE
:10225000310CCE0101960E949C20CE0103960E9473
:102260008D106091300C7091310CCE0101960E945E
:102270009120CE0103960E9494100E947C106091E0
:10228000300C7091310CCE0101960E94A7208B81F9
:102290009C81AD81BE818093340C9093350CA093CA
:1022A000360CB093370C0E94F244CB010E945D19AA
:1022B00081E001C080E090E026960FB6F894DEBF82
:1022C0000FBECDBFDF91CF911F910F91FF90EF9087
:1022D000DF90CF90BF90AF909F908F907F906F9046
:1022E0005F904F900895CF93DF93EC010E942340BD
:1022F00080E591E00E946210BE016E5F7F4F44E076
:1023000050E08FE090E00E94C41E0E947C10CE013D
:10231000DF91CF9108950F9300E020E040E060E06E
:1023200088E39CE00E942D4082E39CE00F910C9496
:10233000234021E0FC018485883008F020E0822FD2
:10234000089581E086270895862F0895DC01ED9198
:10235000FC91068CF78DE02D199591E08927089561
:10236000FC01768765870895CF93DF931F92CDB7E1
:10237000DEB76983DC01ED91FC910280F381E02DF1
:1023800041E050E0BE016F5F7F4F19950F90DF91E4
:10239000CF910895FC019485FB018485981303C0B7
:1023A00081E0983008F080E00895CF93DF93EC014E
:1023B0008C858830C8F40E94F91A843181F0882312
:1023C00071F0883161F08C3161F4E881F981008429
:1023D000F185E02DCE01199521E0892B19F420E03B
:1023E00001C021E0822F01C080E0DF91CF910895EC
:1023F000AF92BF92CF92DF92EF92FF920F931F9313
:10240000CF93DF93CDB7DEB7AF970FB6F894DEBFAB
:102410000FBECDBF8C015B016A01CE0101960E9407
:1024200023401C861B8688EE93E0A0E0B0E08D87F9
:102430009E87AF87B88B80E296E09A878987CE0126
:1024400047960E94234088E089A3CE018A960E9485
:102450002340D8011C968C91883060F40E94F91AB0
:10246000882321F0F80184850E944F1B88E0D80161
:102470001C968C9381E8E82E86E0F82EFDA2ECA253
:102480008091340C9091350CA091360CB091370CA2
:102490008EA39FA3A8A7B9A7BE016C5D7F4FCE01F5
:1024A00001960E94672528E833E1AE01465D5F4F43
:1024B000B501CE0101960E94C2270097B1F0D80164
:1024C000ED91FC910684F785E02DFDA2ECA28CA590
:1024D0009DA5AEA5BFA58EA39FA3A8A7B9A7A6013A
:1024E000BE016C5D7F4FC8011995AF960FB6F89489
:1024F000DEBF0FBECDBFDF91CF911F910F91FF9037
:10250000EF90DF90CF90BF90AF900895CF92DF9281
:10251000EF92FF920F931F93CF93DF93CDB7DEB768
:102520002C970FB6F894DEBF0FBECDBF8C017B0198
:102530006A01FC018485883058F40E94F91A8823C6
:1025400021F0F80184850E944F1B88E0F801848700
:1025500040E050E0BA01CE0107960E94394049851B
:102560005A856B857C85F70182819381A481B58131
:10257000481759076A077B0709F452C04FEF5FEF0E
:10258000BA01CE0101960E943940F7014281538180
:10259000648175818B819C81AD81BE81481759070B
:1025A0006A077B07E9F160E070E081E20E94691947
:1025B000F80184878830A0F5B7016E5F7F4FA601D0
:1025C0000E942F1B0E94E6446B017C01F801848568
:1025D0000E94F91A873139F18C3129F1882301F1F0
:1025E0000E94E644AB01BC014C195D096E097F09EC
:1025F000F80185859685A0E0B0E084179507A607C9
:10260000B70738F061E070E080E090E00E94174585
:10261000DDCFF80184850E94081B88E0F8018487DB
:1026200080E090E002C081E090E02C960FB6F89434
:10263000DEBF0FBECDBFDF91CF911F910F91FF90F5
:10264000EF90DF90CF900895FC018485883010F4DE
:102650000C94FE1C80E090E00895CF93DF93EC0192
:102660008C85883060F40E94F91A873111F08C3122
:1026700031F48C850E94FE1C8115984088F3DF910F
:10268000CF9108950F931F93CF93DF93FC0184851F
:10269000883068F4C52FD42F8F010E94981C0097B2
:1026A00049F421E030E0F8013383228305C080E063
:1026B00090E002C08D2F9C2FDF91CF911F910F9141
:1026C0000895FC018485883010F40C94381C80E057
:1026D00090E00895FC018485883010F40C945D1B13
:1026E00080E090E00895CF93DF931F92CDB7DEB7DF
:1026F00041E050E0BE016F5F7F4FFC0184850E9486
:102700005D1B181619061CF4898190E002C08FEF3A
:102710009FEF0F90DF91CF910895CF93DF93FC014E
:102720002485283018F08FEF9FEF0EC0EC01019048
:10273000F081E02D0084F185E02D1995892B99F326
:102740008C850E94701C90E0DF91CF910895CF920C
:10275000DF92EF92FF92CF93DF93EC018C8588306C
:1027600038F50E944F1B0E94E6446B017C018C856A
:102770000E94F91A8823D1F061E070E080E090E0D7
:102780000E9417450E94E644AB01BC014C195D094B
:102790006E097F098D859E85A0E0B0E04817590736
:1027A0006A077B0720F38C850E94081B88E08C87D2
:1027B000DF91CF91FF90EF90DF90CF900895DA01F5
:1027C0009091A20CE92FF0E0FE2FEE27E60FF71F05
:1027D00090E0982F8827A901BD018E0F9F1F0C94B0
:1027E000C41E0F931F93CF93DF931F921F92CDB7F9
:1027F000DEB7FC0124852830C0F48C0180E591E02F
:102800000E94621022E030E0AE014F5F5F4F64E053
:1028100070E0F80184850E94DF1309811A81102776
:10282000012710270E947C1002C000E010E0C801C0
:102830000F900F90DF91CF911F910F910895EF921C
:10284000FF920F931F93CF93DF9300D01F92CDB7CA
:10285000DEB78C017B01FB018485883038F040E0D5
:1028600050E0BA01C8010E94394017C080E591E0EC
:102870000E94621024E030E0AE014F5F5F4F6CE0D9
:1028800070E0F70184850E94DF130E947C10BE0176
:102890006F5F7F4FC8010E944340C8010F900F90A7
:1028A0000F900F90DF91CF911F910F91FF90EF90BC
:1028B00008950F931F93CF93DF931F921F92CDB76D
:1028C000DEB7FC0124852830C0F48C0180E591E05E
:1028D0000E94621022E030E0AE014F5F5F4F60E186
:1028E00070E0F80184850E94DF1309811A811027A6
:1028F000012710270E947C1002C000E010E0C801F0
:102900000F900F90DF91CF911F910F9108950F932A
:1029100000E020E040E060E08EE39CE00E942D407B
:102920000F910895CF93DF931F92CDB7DEB76983E0
:10293000DC01ED91FC910280F381E02D41E050E05B
:10294000BE016F5F7F4F19950F90DF91CF91089572
:102950000F931F93CF938C01FC016481758181E2F9
:102960000E946919C82F8830B0F40E94161B882372
:1029700061F0F80184819581EC2FF0E0EE0FFF1FEC
:10298000EC5BF34F9183808306C08C2FCF911F9116
:102990000F910C944F1BCF911F910F910895EF92BF
:1029A000FF920F931F93CF93DF937C018091A30C31
:1029B000833311F4D4E001C0D8E004E41CE0C0E0AB
:1029C000F801219131918F01F701848195812817B8
:1029D000390729F0CF5FDC13F3CF80E006C08C2FDE
:1029E0000E94F91A8431B1F781E0DF91CF911F91F4
:1029F0000F91FF90EF900895FC011382128288EEF0
:102A000093E0A0E0B0E084839583A683B78382EE51
:102A100095E091838083648788EE93E0968785872D
:102A200008959F92AF92BF92CF92DF92EF92FF9262
:102A30000F931F93CF93DF937C016B018091A30CC5
:102A4000811102C068E045C0833319F424E0922E5E
:102A500002C098E0992E04E41CE0C0E088E0B82EA3
:102A6000A12CD8012D913C91F601848195812817E4
:102A70003907F9F48C2F0E94F91AD82F873111F0F9
:102A80008C3159F48C2F0E94381C892B71F4DC3165
:102A900081F48C2F0E944F1B0CC0843141F08111B6
:102AA00008C0D8011D921C9204C0BC2E02C0AA24EA
:102AB000A394CF5F0E5F1F4F9C12D3CFA11008C00D
:102AC000D601ED91FC910084F185E02DC6011995A8
:102AD0006B2DC7010E94FC14C701DF91CF911F919C
:102AE0000F91FF90EF90DF90CF90BF90AF909F90AD
:102AF00008958F929F92AF92BF92CF92DF92EF9202
:102B0000FF920F931F93CF93DF93CDB7DEB72F972D
:102B10000FB6F894DEBF0FBECDBF2091A30C2223C9
:102B200069F1233319F434E0E32E02C028E0E22EE9
:102B30008A015B016C01BC01CE0101960E94111556
:102B400084E4882E8CE0982EF12CF40121913191AF
:102B50004F01F601848195812817390751F48F2D93
:102B60000E94F91A873129F4A801B5018F2D0E941E
:102B7000981CF394EF10E9CFC80102C080E090E008
:102B80002F960FB6F894DEBF0FBECDBFDF91CF9169
:102B90001F910F91FF90EF90DF90CF90BF90AF907B
:102BA0009F908F9008950F9300E020E040E060E058
:102BB00084E59CE00E942D400F910895DC01ED9189
:102BC000FC91048CF58DE02D199421E836E0FC0190
:102BD00031832083FB014089518962897389FC011B
:102BE00042835383648375830895FC0184899589A6
:102BF0000895FC01848595850895FC01818D928D51
:102C00000895CF93DF931F92CDB7DEB76983DC01C0
:102C1000ED91FC910280F381E02D41E050E0BE0196
:102C20006F5F7F4F19950F90DF91CF9108950895B1
:102C3000CF93DF93FC01808D883028F4EF010E9450
:102C4000081B88E0888FDF91CF9108950F931F9321
:102C5000CF93DF93EC018B01888D883010F40E94B4
:102C6000081BB80182E00E946919888F883030F40F
:102C70001D870C871A8E198E81E001C080E0DF91DC
:102C8000CF911F910F910895AF92BF92CF92DF9293
:102C9000EF92FF920F931F93CF93DF93CDB7DEB7E1
:102CA000AF970FB6F894DEBF0FBECDBF8C015B01AE
:102CB0006A01CE0101960E9423401C861B8688EE85
:102CC00093E0A0E0B0E08D879E87AF87B88B80E26D
:102CD00096E09A878987CE0147960E94234088E034
:102CE00089A3CE018A960E94234081E8E82E86E0DF
:102CF000F82EFDA2ECA28091340C9091350CA0919D
:102D0000360CB091370C8EA39FA3A8A7B9A7BE011C
:102D10006C5D7F4FCE0101960E94672528E833E164
:102D2000AE01465D5F4FB501CE0101960E94C227FC
:102D300081309105B1F4D801ED91FC910488F589B9
:102D4000E02DFDA2ECA28CA59DA5AEA5BFA58EA3EE
:102D50009FA3A8A7B9A7A601BE016C5D7F4FC801BC
:102D60001995AF960FB6F894DEBF0FBECDBFDF91B9
:102D7000CF911F910F91FF90EF90DF90CF90BF9078
:102D8000AF900895FC01178A168A6E5F7F4F808D81
:102D90000E944A1D90E00895FC01808D0E94791DDB
:102DA00090E00895CF93DF93EC019A018E899F897B
:102DB000AB01BC01888D0E941E1D2E893F89280F02
:102DC000391F3F8B2E8BDF91CF9108950F931F9367
:102DD000CF93DF931F92CDB7DEB7FC01218D328DEB
:102DE000232B61F08C0141E050E0BE016F5F7F4F0B
:102DF000808D0E945D1B181619061CF08FEF9FEF47
:102E000008C0F801818D928D0197928F818F898101
:102E100090E00F90DF91CF911F910F910895CF9384
:102E2000DF93FC01218D328D2115310519F48FEFCF
:102E30009FEF11C0EC014217530708F0A901888DDC
:102E40000E945D1B1816190694F7298D3A8D281BD0
:102E5000390B3A8F298FDF91CF910895FC01808D36
:102E6000883040F4218D328D232B21F00E94701C7C
:102E700090E008958FEF9FEF0895CF92DF92EF9249
:102E8000FF920F931F93CF93DF9300D000D0CDB765
:102E9000DEB78C016B017A01FC01808D883010F463
:102EA0000E94081B81E896E09A838983F60182815B
:102EB0009381A481B5818B839C83AD83BE83A7015D
:102EC000BE016F5F7F4F82E80E941D1AF801808F5C
:102ED000883030F4F586E486128E118E81E001C0D0
:102EE00080E026960FB6F894DEBF0FBECDBFDF910F
:102EF000CF911F910F91FF90EF90DF90CF900895A9
:102F00000F931F93CF93DF93CDB7DEB728970FB6FC
:102F1000F894DEBF0FBECDBF8C01D80159964D91FC
:102F20005C915A974115510551F0ED91FC91048C3B
:102F3000F58DE02D60E070E0C8011995EECFF80145
:102F4000808D0E94381C892B41F148E050E0BE0181
:102F50006F5F7F4FD80158968C910E945D1B1816A9
:102F60001906ECF4BE016F5F7F4FC8010E960E94F8
:102F70004F408D8190E0982F88272E81820F911DE0
:102F8000F801958B848B8F8190E0982F8827288576
:102F9000820F911D928F818F02C080E090E0289671
:102FA0000FB6F894DEBF0FBECDBFDF91CF911F915A
:102FB0000F9108950F9300E020E040E060E08AE583
:102FC0009CE00E942D400F910895CF93DF931F92B4
:102FD000CDB7DEB79091A20C292F30E0322F2227F7
:102FE000260F371F90E0982F882741E050E0BE0160
:102FF0006F5F7F4F820F931F0E94C41E89810F90C5
:10300000DF91CF910895CF93DF931F92CDB7DEB7B5
:103010009091A20C292F30E0322F2227260F371F44
:1030200090E0982F8827498341E050E0BE016F5F10
:103030007F4F820F931F0E94F11D0F90DF91CF9160
:103040000895DA019091A20CE92FF0E0FE2FEE270F
:10305000E60FF71F90E0982F8827A901BD018E0F7A
:103060009F1F0C94F11D7F928F929F92AF92BF92FF
:10307000CF92DF92EF92FF920F931F93CF93DF9344
:103080001F921F92CDB7DEB7782E8B014A015901EE
:1030900022E030E0AE014F5F5F4F64E270E00E94DB
:1030A000DF13E980FA80FE24EF24FE24E00EF11EF7
:1030B000970137704091A30C072D10E0C8014333EE
:1030C00011F4089601C04096982F8827990F990F00
:1030D000990F820F931F473319F4A501B40120C043
:1030E000A9014A0D5B1D41305840B8F360E078E01B
:1030F0006B01C21AD30AA601B4010E94F11DA501F9
:103100004C195D09B4016C0D7D1D8091A30C8333B6
:1031100039F5085F1F4F902F990F990F990F80E095
:103120000E94F11DEA0CFB1CF982EA8222E030E0E9
:10313000AE014F5F5F4F64E270E0872D0E9421185F
:103140000F900F90DF91CF911F910F91FF90EF9013
:10315000DF90CF90BF90AF909F908F907F90089519
:10316000005F1F4FD8CF63E070E00C94E517CF935A
:10317000DF931F921F92CDB7DEB779836A8322E077
:1031800030E0AE014F5F5F4F64E070E00E942118B5
:103190000F900F90DF91CF910895AB0124E030E0C4
:1031A0006CE070E00C942118CF93DF931F921F9274
:1031B000CDB7DEB779836A8322E030E0AE014F5F9E
:1031C0005F4F60E170E00E9421180F900F90DF9137
:1031D000CF910895CF93DF931F921F92CDB7DEB7A3
:1031E00022E030E0AE014F5F5F4F60E270E00E948E
:1031F000DF1389819A819827892798270F900F904C
:10320000DF91CF9108950F931F93CF93C82F0E9402
:10321000EA188C018C2F0E94EA1808171907C9F7C1
:1032200087E0C89FF0011124E05AF34F158304830F
:10323000C801CF911F910F910895CF93DF931F92F3
:103240001F92CDB7DEB722E030E0AE014F5F5F4F97
:1032500066E270E00E94DF1389819A8198278927AE
:1032600098270F900F90DF91CF910895CF93DF9320
:103270001F921F92CDB7DEB722E030E0AE014F5F64
:103280005F4F68E270E00E94DF1389819A8198277E
:10329000892798270F900F90DF91CF910895209163
:1032A000A30C90E0233311F40C9601C04896982F9C
:1032B000990F990F990F80E008959F7320911D0237
:1032C00030911E028227932790931E0280931D0245
:1032D00008958F929F92AF92BF92CF92DF92EF921A
:1032E000FF920F931F93CF93DF93CDB7DEB728974D
:1032F0000FB6F894DEBF0FBECDBF9091A30C9923FB
:1033000009F487C0933319F424E0F22E02C098E048
:10331000F92E6B01082F80E591E00E9462109E015A
:103320002F5F3F4F5901490110E0812F0E94B318D0
:10333000F40181934F018823C9F01F5FF112F5CF8B
:1033400010E0F50191915F019D3159F0983149F0FC
:103350009A51923030F01F5FF112F3CF0E947C102F
:1033600058C060E170E0812F0E945A20E12EF12CBC
:10337000F701EE0FFF1FEC5BF34F118210828AEF13
:1033800090E00E945345402F60E070E0812F0E9442
:1033900003184FEF62E070E0812F0E940318C11400
:1033A000D10411F0B60113C080911D0290911E024C
:1033B00001968115F0EC9F0710F480E090EC90935B
:1033C0001E0280931D0260911D0270911E02812FCA
:1033D0000E94B71861E070E0812F0E945A2027E018
:1033E0002E9DC0012F9D900D11249C01205A334F1A
:1033F0007901F90111821082812F0E943619F7019B
:10340000938382831682158214820E947C10812FFE
:1034100001C088E028960FB6F894DEBF0FBECDBF7E
:10342000DF91CF911F910F91FF90EF90DF90CF90A0
:10343000BF90AF909F908F9008957F928F929F92B0
:10344000AF92BF92CF92DF92EF92FF920F931F93B2
:10345000CF93DF93CDB7DEB72E970FB6F894DEBFCC
:103460000FBECDBF9091A30C992309F4ADC0933347
:1034700019F424E0722E02C098E0792E6A017B01D3
:10348000082F80E591E00E9462109E012F5F3F4F60
:103490005901490110E0812F0E94B318F401819372
:1034A0004F018823C9F01F5F7112F5CF10E0F501BD
:1034B00091915F019D3159F0983149F09A519230C4
:1034C00030F01F5F7112F3CF0E947C107DC060E16D
:1034D00070E0812F0E945A20A12EB12CF501EE0F31
:1034E000FF1FEC5BF34F118210828AEF90E00E9485
:1034F0005345402F60E070E0812F0E9403184FEF8A
:1035000062E070E0812F0E940318C114D10411F011
:10351000B60113C080911D0290911E020196811583
:10352000F0EC9F0710F480E090EC90931E028093E3
:103530001D0260911D0270911E02812F0E94B7181A
:1035400086E0E5E2F2E0DE01199601900D928A959F
:10355000E1F7F70183818F778C8784818D8785815F
:103560008E87B7016E5F7F4F812F0E94CD18B60105
:10357000812F0E94D41826E030E0AE01475F5F4FF4
:1035800066E070E0812F0E94211861E070E0812FD9
:103590000E945A2027E02A9DC0012B9D900D1124E6
:1035A0009C01205A334F7901F90111821082812F39
:1035B0000E943619F7019383828316821582148242
:1035C0000E947C10812F01C088E02E960FB6F894DF
:1035D000DEBF0FBECDBFDF91CF911F910F91FF9046
:1035E000EF90DF90CF90BF90AF909F908F907F90A3
:1035F0000895CF93C82F80E591E00E9462108C2F30
:103600000E94B318C82F0E947C108C2FCF91089570
:10361000CF93C82F80E591E00E94621060E170E0D6
:103620008C2F0E945A20CF910C947C10CF93C82FDE
:1036300080E591E00E9462108C2F0E94B3188331C4
:1036400021F00E947C1080E008C062E070E08C2FC6
:103650000E945A200E947C1081E0CF910895EF9241
:10366000FF920F931F93CF93C82F7B018A0180E5B0
:1036700091E00E946210B7018C2F0E94CD18B80112
:103680008C2F0E94D41864E070E08C2F0E945A2086
:10369000CF911F910F91FF90EF900C947C10CF93DE
:1036A000C82F80E591E00E94621068E070E08C2FE6
:1036B0000E945A20CF910C947C104F925F927F927F
:1036C0008F929F92AF92BF92CF92DF92EF92FF9232
:1036D0000F931F93CF93DF931F921F92CDB7DEB747
:1036E000782E6B017A01882E912C47E0849FF0019F
:1036F0001124E05AF34F0081118180E591E00E948E
:1037000062100E151F05BCF4872D0E941D198C0137
:10371000872D0E941D1980179107C9F787E0889DA2
:10372000F001899DF00D1124E05AF34F8681081BAA
:103730001109118300830115110599F4872D0E9449
:10374000B318843109F47FC0882309F47CC001E0F8
:1037500010E08C3111F400E010E011950195110991
:1037600072C0E016F1060CF4870187E0889DF00135
:10377000899DF00D1124E05AF34FE280F380C114CB
:10378000D10451F1270157E05522872D0E944F198E
:10379000840D951D2091A30C273311F4A80119C0A5
:1037A0009201200F311F21303840C0F320E038E073
:1037B0005901A418B508A501B6010E94C41ECA0C7F
:1037C000DB1CC8018A199B095C01872D0E944F19D7
:1037D000A501B6010E94C41EE00EF11E87E0889D7F
:1037E000F001899DF00D1124E05AF34FF382E2823B
:1037F00080819181801B910B918380832681A80118
:10380000420F511D4A3F510510F4892BD9F487E02E
:10381000889DF001899DF00D1124E05AF34F168226
:10382000F982EA8222E030E0AE014F5F5F4F68E24A
:1038300070E0872D0E94211860E470E0872D0E94BF
:103840005A2001C046830E947C10C8010F900F903F
:10385000DF91CF911F910F91FF90EF90DF90CF906C
:10386000BF90AF909F908F907F905F904F90089502
:10387000EF92FF921F93CF93DF93E82EF12C97E006
:10388000899FF0011124E05AF34F208131812115E5
:103890003105F9F4182F80E591E00E9462108E2D19
:1038A0000E941D19EC01812F0E941D198C179D0784
:1038B000C9F70E947C1087E08E9DF0018F9DF00D6E
:1038C0001124E05AF34F86819E01281B3109318370
:1038D0002083C901DF91CF911F91FF90EF90089550
:1038E0001F93CF93DF931F92CDB7DEB7182F80E5DC
:1038F00091E00E946210812F0E944F1927E0129FD1
:10390000F0011124E05AF34F22813381377041E0F6
:1039100050E0BE016F5F7F4F820F931F0E94C41E55
:103920000E947C1089810F90DF91CF911F910895A3
:10393000CF92DF92EF92FF920F931F93CF93DF937B
:10394000182F7B01EA014130584010F0C0E0D8E068
:1039500080E591E00E946210812F0E9403196C01A2
:10396000812F0E94B318082F0E947C10073111F09C
:103970000C3131F40E948744CC16DD0648F302C0B6
:10398000C0E0D0E080E591E00E9462109E01A701B6
:1039900060E070E0812F0E94331860E270E0812FB8
:1039A0000E945A2062E070E0812F0E94E51784FD9A
:1039B00013C0812F0E94B318811105C00E947C1092
:1039C00080E090E012C00E947C100E94874480E555
:1039D00091E00E946210E6CF40E162E070E0812F4A
:1039E0000E9403180E947C10CE01DF91CF911F919D
:1039F0000F91FF90EF90DF90CF9008951F93CF939A
:103A0000DF93182F80E591E00E946210812F0E94C1
:103A10000319D82FC92F812F0E94B318182F0E9485
:103A20007C10173129F01C3119F080E090E002C0C1
:103A30008D2F9C2FDF91CF911F910895AF92BF9250
:103A4000CF92DF92EF92FF921F93CF93DF93182FC5
:103A50006B015A01790180E591E00E946210812F8B
:103A60000E940319EC01E816F90608F4E7019E012B
:103A7000A501B601812F0E9433180E947C10CE014F
:103A8000DF91CF911F91FF90EF90DF90CF90BF908B
:103A9000AF900895EF92FF921F93CF93DF93FB01B6
:103AA0009081911109C09181911106C0928191116B
:103AB00003C093819923B1F04115510599F07A0122
:103AC000EF01182F80E591E00E946210BE01812F66
:103AD0000E94CD18B701812F0E94D4180E947C103B
:103AE00081E001C080E0DF91CF911F91FF90EF90C6
:103AF0000895CF93C82F80E591E00E94621060E2A4
:103B000070E08C2F0E945A2062E070E08C2F0E949F
:103B1000E51784FD1AC062E070E08C2F0E94E51763
:103B200083FF0AC048E162E070E08C2F0E94031816
:103B30000E947C1080E012C00E947C100E9487448A
:103B400080E591E00E946210DFCF40E162E070E02A
:103B50008C2F0E9403180E947C1081E0CF91089561
:103B60000F9300E020E040E060E088E99CE00E94E4
:103B70002D400F910895FC0120812EBD9B01215005
:103B8000310941F051810DB407FEFDCF4EB55EBD48
:103B90004193F5CF61507109FC01E60FF71F0DB499
:103BA00007FEFDCF8EB5808308958EBD00000DB455
:103BB00007FEFDCF8EB50895E091A00CF091A10C09
:103BC000908180919F0C8095892380830895E09156
:103BD000A00CF091A10C908180919F0C892B808387
:103BE0000895AF92BF92CF92DF92EF92FF920F9320
:103BF0001F93CF93DF93CDB7DEB728970FB6F89416
:103C0000DEBF0FBECDBF8C017B016A018091A30C8A
:103C10008333E1F45801A40EB51E0A151B0509F4FF
:103C20008BC00E94DC1D80EF0E94D51D812F0E9459
:103C3000D51D802F0E94D51D0F5F1F4FF701819169
:103C40007F010E94D51D0E94E71DE7CF843321F537
:103C50000E94DC1D19830A838D2D80688B83CC82A2
:103C600064E070E0CE0101960E94BB1D87010C0D3F
:103C70001D1DE016F10669F0F70181917F010E9498
:103C8000D51DF7CFB6016D5F7F4FCE0101960E9423
:103C9000BB1D0E94E71D50C00E94DC1D0F3F110597
:103CA00009F020F419820A8384E01CC017FD0BC0C0
:103CB00019820A8333E0169507953A95E1F7007E5D
:103CC0000C600B8310C0C80126E0969587952A9555
:103CD000E1F719830A83807E0115104C10F484618A
:103CE00001C08C618B8326E0C216D10498F420E0D9
:103CF000822F90E08C159D0528F6E4E0F0E0EC0FB3
:103D0000FD1FE80FF91FD701A80FB91F8C91808301
:103D10002F5FEECF63E070E0CE0101960E94BB1DE5
:103D200087010C0D1D1DF70181917F010E94D51D9A
:103D3000E016F106C1F7ADCFC60128960FB6F8948C
:103D4000DEBF0FBECDBFDF91CF911F910F91FF90CE
:103D5000EF90DF90CF90BF90AF900895CF93DF9317
:103D60001F92CDB7DEB7698341E050E0BE016F5FBF
:103D70007F4F0E94F11D0F90DF91CF910895682F22
:103D800080E090E00C94AE1EAF92BF92CF92DF9293
:103D9000EF92FF920F931F93CF93DF9300D01F9268
:103DA000CDB7DEB78C016B017A018091A30C833310
:103DB000F1F45B016801C40ED51E0C151D0509F454
:103DC00060C00E94DC1D8FE00E94D51D812F0E94E3
:103DD000D51D802F0E94D51D0F5F1F4F80E00E94D0
:103DE000D51DF50181935F010E94E71DE6CF843365
:103DF000F1F40E94DC1D19830A838F2D8F778B834A
:103E0000EC8264E070E0CE0101960E94BB1DA70128
:103E100060E070E0C6010E941E4AE114F10421F046
:103E2000B701C6010E94BB1D0E94E71D2AC00E9467
:103E3000DC1D0F3F110509F020F419820A831B8253
:103E40001DC017FD0BC019820A8333E01695079534
:103E50003A95E1F7007E08600B8310C0C80126E0A8
:103E6000969587952A95E1F719830A83807E011537
:103E7000104C10F4806101C088618B8363E070E0B6
:103E8000C2CFC7010F900F900F900F90DF91CF918D
:103E90001F910F91FF90EF90DF90CF90BF90AF9068
:103EA0000895CF93DF931F92CDB7DEB741E050E086
:103EB000BE016F5F7F4F0E94C41E89810F90DF910A
:103EC000CF91089580E090E00C94511FCF93DF9341
:103ED00080E80E94BF1EC4E1D0E00E94621F8823D8
:103EE00051F061E070E080E090E00E94174521977A
:103EF000A1F780E001C081E0DF91CF91089583E3D5
:103F00008093A30C0E94661F8823A9F080E10E9481
:103F1000BF1E0E94621F803171F482E10E94BF1EA9
:103F20000E94621F823139F480E00E94BF1E0E940D
:103F3000621F91E0811190E0892F089584E38093BE
:103F4000A30C0E94661F8823E1F088E00E94BF1E38
:103F50000E94621F8830A9F480E10E94BF1E0E9467
:103F6000621F803171F480E00E94BF1E0E94621FB8
:103F7000811107C08FE190E00E94511F91E08330D2
:103F800009F090E0892F089587E38093A30C0E94A5
:103F9000661F8823E1F088E00E94BF1E0E94621F16
:103FA0008830A9F480E10E94BF1E0E94621F803108
:103FB00071F480E00E94BF1E0E94621F811107C041
:103FC00089E390E00E94511F91E0843009F090E075
:103FD000892F0895CF9380919E0C811167C060E373
:103FE00072E080E090E00E9417450E945528809181
:103FF0001F02282F30E0F901E05DFC4FE491F0E072
:10400000EE0FFF1FE057FC4F459154915093A10CC8
:104010004093A00CF901E651FD4FE491E0939F0C11
:1040200061E00E943B460E94E71D80E591E00E940E
:1040300062100E949E1F8823A1F080E48093A20C4E
:10404000C0E042E06EE170E08C2F0E94031842E075
:104050006FE170E08C2F0E940318CF5FC83089F7A2
:1040600020C00E94C41F882321F080E18093A20C0D
:1040700018C00E947F1FC82F882371F084E08093AE
:10408000A20C65E58BE190E00E94AE1E65E58AE139
:1040900090E00E94AE1E05C01092A30C0E947C10FE
:1040A00006C00E947C1081E080939E0CC1E08C2FA2
:1040B000CF910895CF93DF93C82F462F61E070E032
:1040C0000E940318D0E0DC2FCC278091A20C90E056
:1040D000982F882701968C0F9D1F0E94511F8111D8
:1040E000F4CFDF91CF9108950F9300E020E040E0FE
:1040F00060E084EA9CE00E942D400F9108950E96A6
:1041000024E1FC0111922A95E9F70895CF93DF93FA
:10411000EC01625F7F4F0E944340CE01DF91CF915F
:104120000895CF93DF93EC016E5E7F4F0E94434072
:10413000CE01DF91CF910895CF93DF93EC016A5EBA
:104140007F4F0E944340CE01DF91CF910895CF93DE
:10415000DF93EC01625E7F4F0E944340CE01DF910E
:10416000CF91089580E3FB0180833296842F82955E
:104170008F7090E1899F401911244A3014F4405DFA
:1041800001C0495C4293482F8111F0CF08950F93ED
:1041900000E020E040E060E08AEA9CE00E942D40E0
:1041A0000F9108957F928F929F92AF92BF92CF927C
:1041B000DF92EF92FF920F931F93CF93DF93CDB7D0
:1041C000DEB7AC970FB6F894DEBF0FBECDBF7C0153
:1041D000762E942E852E20E2B22ECE0101966C0111
:1041E000FC012B2D11922A95E9F70FEF2FEF4FEFDE
:1041F0006FEF86960E942D4081E896E09AA389A3EE
:1042000089A59AA5ABA5BCA58BA39CA3ADA3BEA372
:1042100087010D5B1F4F43E450E0BE016F5D7F4F90
:10422000C8010E94C216019609F4BFC081E08983CB
:104230008A8386E0A82EAB821C82F7016481758197
:10424000868197810E9418476D837E838F8398872C
:1042500089869A8680E890E09C878B874CE150E0C5
:10426000B601C8010E94D216F6012B2D11922A9593
:10427000E9F7470188E0880E911CF401D60101900E
:104280000D92AA94E1F740E150E0B601C8010E9406
:10429000D216F6011192BA94E9F796E0A92EB12C44
:1042A00040E250E0B601C8010E94D216F1E0AF1A18
:1042B000B108B1F783E6898392E89A8393E59B83FB
:1042C0008C8385E38D8381E08E837F829DE3988755
:1042D00097E099878A8786E0F401DE011B960190BA
:1042E0000D928A95E1F78CE0898B8A8B66E476E003
:1042F000CE0143960E94394AF7014385BE01675EAD
:104300007F4FC7010E94B220F7014485BE01655E60
:104310007F4FC7010E94B220F7014585BE01635E51
:104320007F4FC7010E94B2204EE150E0B601C801A4
:104330000E94D216F3E07F121EC082E3898384E0DC
:104340008A83F70196859B8397859C8390899D83BB
:1043500091899E8396E39F838887828D8987838D49
:104360008A87848D8B87858D8C874CE050E0B601E1
:10437000C8010E94D21687E3898386E08A8391E090
:104380009B8393E09C838D838FE08E838AE38F836E
:104390008BE388878FEF898749E050E0B601C80139
:1043A0000E94D216C8010E94CC16AC960FB6F894A3
:1043B000DEBF0FBECDBFDF91CF911F910F91FF9058
:1043C000EF90DF90CF90BF90AF909F908F907F90B5
:1043D00008952F923F924F925F926F927F928F92A9
:1043E0009F92AF92BF92DF92EF92FF920F931F9333
:1043F000CF93DF93CDB7DEB7C054D1090FB6F89491
:10440000DEBF0FBECDBF7C014A015B0119010E94D6
:10441000E6442B013C0187010D5B1F4FC8010E9440
:10442000801718161906A4F00E94E644DC01CB019F
:1044300084199509A609B70988169906AA06BB0624
:10444000F0F062E370E080E090E00E941745E6CF74
:1044500042E250E0BE016F5F7F4FC8010E940F171C
:104460008981823031F4F8018489958983349105FA
:1044700041F0D12CC8010E9417168D2D43C18FEF3A
:1044800041C16D817E818F8198850E9418472B01E3
:104490003C01F101608371838283938346E050E0A5
:1044A000B701685F7F4FCE014D960E94084A892B65
:1044B00099F4F70180819181A281B3814816590650
:1044C0006A067B0648F084819581A681B7818415B0
:1044D0009505A605B70528F4C8010E94171680E0C7
:1044E00011C189899A89AB89BC89F7018687978729
:1044F000A08BB18B4EEC50E060E070E0C8010E94F0
:104500000F17D12CC70182969EAB8DABF701B696E3
:10451000F8AFEFAB08969AAF89AF47019AE1890EE1
:10452000911CBD96FCAFEBAFC70142969EAF8DAF1D
:10453000FD972196FFAFEEAF21971701FEE12F0EF9
:10454000311CC8010E94FD15181619060CF092CFF7
:10455000C8010E94E6168333910509F4B3C0ACF498
:104560008130910569F11CF4892B59F3C5C0833062
:10457000910571F1069709F0BFC0C8010E94E616C7
:104580005C0144E050E0B1012DC08A33910509F48B
:104590006DC034F48533910559F0C69781F1ACC0F4
:1045A0008B33910509F478C08F3F910551F2A4C077
:1045B000C8010E94E616C8010E94E616D82EC1CF97
:1045C000C8010E94E61644E050E06DAD7EAD13C018
:1045D000C8010E94E6165C0144E050E021966EADF1
:1045E0007FAD2197C8010E940F17A50155274450A0
:1045F000510960E070E0C8010E940F17A2CFC80106
:104600000E94E6165C0140E050E0BA01CE018996B6
:104610000E943940B401CE018F960E9443404BA5C1
:104620005CA56DA57EA589A99AA9ABA9BCA94817C7
:1046300059076A077B07A1F0EBADFCAD40805180C4
:1046400062807380B401CE0183960E9443408DA1A5
:104650009EA1AFA1B8A584159505A605B70521F4BF
:1046600044E050E0B401C7CFA5014AC0C8010E9490
:10467000E61644E050E06FA978ADC8010E940F171C
:10468000F70166A177A180A591A50E94184766A3AE
:1046900077A380A791A755CFC8010E94E61644E0F2
:1046A00050E069AD7AADC8010E940F17F70162A50D
:1046B00073A584A595A50E94184762A773A784A730
:1046C00095A73FCFC8010E94E61644E050E06DA9CF
:1046D0007EA9C8010E940F17F70162A173A184A1EE
:1046E00095A10E94184762A373A384A395A366A70C
:1046F00077A780AB91AB25CFC8010E94E616AC012D
:10470000552777CFC05CDF4F0FB6F894DEBF0FBEE2
:10471000CDBFDF91CF911F910F91FF90EF90DF9070
:10472000BF90AF909F908F907F906F905F904F90D1
:104730003F902F9008952F923F924F925F926F92E9
:104740007F928F929F92AF92BF92CF92DF92EF9221
:10475000FF920F931F93CF93DF9300D000D0CDB77C
:10476000DEB78C0120ED37E040E050E061E070E022
:1047700080E090E00E94C041D80114966D937D9333
:104780008D939C931797F801608371838283938341
:104790005801F3E4AF0EB11CC5010E94181664E481
:1047A00070E0C5010E942616882309F436C10E94D4
:1047B000E6442B013C01812C912CC8018E5B9F4F5C
:1047C0009E838D8348EEC42E43E0D42EE12CF12C41
:1047D00052E0252EAD81BE818C91833009F404C155
:1047E000811120C0F80184819581A681B78101964D
:1047F000A11DB11D84839583A683B7830E94E644DF
:104800006419750986099709A70196010E94CF4688
:10481000A90161E0C8010E94D22081E0AD81BE8182
:104820008C93CAC08430F9F4F80184819581A68103
:10483000B7810196A11DB11D84839583A683B7839B
:104840000E94E6446419750986099709A701960133
:104850000E94CF46A90163E0C8010E94D220AD8129
:10486000BE812C92A9C0813059F5F80142AD53ADFB
:1048700064AD75AD9E012F5F3F4FC8010E94E921D5
:10488000382EF2E08F1392C089819A81AB81BC816E
:10489000F80184839583A683B7830E94E644641954
:1048A000750986099709A70196010E94CF46A901BB
:1048B00063E0C8010E94D220AD81BE813C927CC0E1
:1048C000823009F079C0F80142AD53AD64AD75ADE9
:1048D0009E012F5F3F4FC8010E94E921382EF5E06D
:1048E0008F135DC0E3E0AD81BE81EC93F80182A13E
:1048F00093A1A4A1B5A1892B8A2B8B2B41F484E829
:1049000093E0A0E0B0E082A393A3A4A3B5A3F80131
:1049100086A197A1A0A5B1A5892B8A2B8B2B61F429
:1049200082A193A1A4A1B5A1B695A79597958795C6
:1049300086A397A3A0A7B1A7F80182A593A5A4A5D4
:10494000B5A5892B8A2B8B2BA9F482A193A1A4A1B5
:10495000B5A1AC01BD0123E07695679557954795C4
:104960002A95D1F7841B950BA60BB70B82A793A7AB
:10497000A4A7B5A7F80186A197A1A0A5B1A586A770
:1049800097A7A0ABB1AB82A593A5A4A5B5A582AB13
:1049900093ABA4ABB5AB88248394912C0DC0F6E007
:1049A0008F1304C0AD81BE811C9206C0BFEF3B12C5
:1049B00003C0ED81FE811082F1E08F16910409F4AD
:1049C00009CF0E94E644DC01CB0184199509A609B0
:1049D000B709F80126A937A940AD51AD2817390705
:1049E0004A075B0708F0F6CEC5010E941816F801C9
:1049F00084819581A681B7810196A11DB11D848313
:104A00009583A683B7830E94E644F801FE966083EF
:104A1000718382839383C40102C080E090E0269674
:104A20000FB6F894DEBF0FBECDBFDF91CF911F91BF
:104A30000F91FF90EF90DF90CF90BF90AF909F903D
:104A40008F907F906F905F904F903F902F90089540
:104A5000CF92DF92EF92FF920F931F93CF93DF934A
:104A6000EC016B011AA21BA21CA21DA21EA21FA276
:104A700018A619A61AA61BA61CA61DA62EAB3FABF0
:104A800048AF59AFEAAEFBAE0CAF1DAF8C01085F6B
:104A90001F4F86E0F80111928A95E9F7CE010E9436
:104AA0007F2086E0F601D80101900D928A95E1F70A
:104AB000FE01EE5BFF4F1082CE01DF91CF911F917F
:104AC0000F91FF90EF90DF90CF900C949B23FB0110
:104AD0004281538164817581FC01428353836483E5
:104AE0007583178216820895CF93FB0120E080E042
:104AF00090E0CAE03191332309F160ED630F6A3031
:104B000080F4C89FB001C99F700D1124CB01C097DC
:104B1000830F911D37FD9A958F3F910559F350F3FF
:104B200014C03E3291F4233081F0DA01A20FB11D9E
:104B300012968C932F5F80E090E0DCCF233029F435
:104B4000FA01858381E090E002C080E090E0CF919F
:104B500008950F9300E020E040E060E080EB9CE0EF
:104B60000E942D400F9108958F929F92AF92BF9215
:104B7000CF92DF92EF92FF920F931F93CF93DF9329
:104B800000D0CDB7DEB76C017B010E94E644F60190
:104B9000778366838601085F1F4FB6016A5F7F4F88
:104BA00042E050E0C8010E94D21681E090E09A8372
:104BB000898342E050E0BE016F5F7F4FC8010E94D1
:104BC000D21680E091E09A83898342E050E0BE01F2
:104BD0006F5F7F4FC8010E94D2161A82198242E08D
:104BE00050E0BE016F5F7F4FC8010E94D21642E0C5
:104BF00050E0BE016F5F7F4FC8010E94D21642E0B5
:104C000050E0BE016F5F7F4FC8010E94D21657016E
:104C1000F5018081882309F1A7015A01F5018191ED
:104C20006F01882321F08E3211F0A601F6CF4A01E0
:104C30008E189F081814190474F48B8241E050E018
:104C4000BE016D5F7F4FC8010E94D216A401B7015B
:104C5000C8010E94D2167601DBCF1B8241E050E0F2
:104C6000BE016D5F7F4FC8010E94D216E12CFF2468
:104C7000F394FA82E98242E050E0BE016F5F7F4F19
:104C8000C8010E94D216FA82E98242E050E0BE01D9
:104C90006F5F7F4FC8010E94D21681E090E00F90B5
:104CA0000F900F90DF91CF911F910F91FF90EF9098
:104CB000DF90CF90BF90AF909F908F9008952F92EC
:104CC0003F924F925F926F927F928F929F92AF929C
:104CD000BF92CF92DF92EF92FF920F931F93CF93E9
:104CE000DF93CDB7DEB763970FB6F894DEBF0FBE84
:104CF000CDBF7C016B011A010E94E6444B015C01AF
:104D00008701085F1F4F2601612C712CC8010E948A
:104D1000801718161906A4F00E94E644DC01CB01A6
:104D200088199909AA09BB09481659066A067B061B
:104D3000D0F062E370E080E090E00E941745E6CF9B
:104D4000F7014281538164817581808D918DA28D9F
:104D5000B38D481759076A077B0749F4848D958DF1
:104D6000C59729F409C0EE24EA94FE2CF1C09EEF09
:104D7000E92EFF24FA94ECC0C8010E94FD150C979F
:104D80000CF4E2C04CE050E0BE016F5F7F4FC80101
:104D90000E940F178B819C819827892798279A8BCF
:104DA000898BF7014681578129813A814217530740
:104DB00011F497FD08C0C8010E9417167CEFE72E7A
:104DC000FF24FA94C5C08F709270892B41F0C801FE
:104DD0000E9417166BEFE62EFF24FA94B9C0CF801D
:104DE000D884DC24CD24DC24C114D10419F0E12CB6
:104DF000F12C26C0C8010E9417165AEFE52EFF2499
:104E0000FA94A6C041E050E0BE01635F7F4FC80145
:104E10000E940F174D85442331F050E060E070E0B0
:104E2000C8010E940F178D858111ECCF44E050E03E
:104E300060E070E0C8010E940F17FFEFEF1AFF0A51
:104E40008D819E81982789279827E816F906D0F248
:104E5000A12CB12C41E050E0BE016D5E7F4FC80136
:104E60000E940F174B89842F807C49F4442379F0EA
:104E700050E060E070E0C8010E940F1708C041E0F8
:104E800050E060E070E0C8010E940F171B8A8B8918
:104E90008111E0CF42E050E0BE01615F7F4FC80169
:104EA0000E940F1742E050E0BE01635F7F4FC801D0
:104EB0000E940F1744E050E060E070E0C8010E94DB
:104EC0000F1742E050E0BE016F5E7F4FC8010E94A5
:104ED0000F178F85988949895A8981159140E9F47E
:104EE000ED84FE84FE24EF24FE2481E0E816F10424
:104EF000A1F44115544041F0C8010E94171647EF34
:104F0000E42EFF24FA9424C0B1016E5F7F4F44E089
:104F100050E0C8010E940F171BC054274527542793
:104F200060E070E0C8010E940F17FFEFAF1ABF0AE0
:104F3000CA14DB0409F08ECFC8010E94171636EFA1
:104F4000E32EFF24FA9404C08DEFE82EFF24FA9498
:104F5000C70163960FB6F894DEBF0FBECDBFDF91D9
:104F6000CF911F910F91FF90EF90DF90CF90BF9066
:104F7000AF909F908F907F906F905F904F903F90F9
:104F80002F9008956F927F928F929F92AF92BF92CF
:104F9000CF92DF92EF92FF920F931F93CF93DF9305
:104FA00000D000D0CDB7DEB77C014B015A013901EA
:104FB0000E9474258C01892B09F05CC0F7014281A5
:104FC0005381648175818091B20C9091B30CA09152
:104FD000B40CB091B50C481759076A077B0709F460
:104FE0004CC00E94E6446701F8E0CF0ED11C6F7000
:104FF00077277C5FC6010E942616813009F03FC0EA
:1050000081E896E09A838983F70182819381A48164
:10501000B5818B839C83AD83BE8345E350E0BE01A5
:105020006F5F7F4FC6010E94C216892B19F400E002
:1050300010E01CC0B401C7010E94B425892BB9F34C
:10504000C6010E94CC16892B91F383E0882E912C07
:10505000A501B301C7010E945F268C0121E0821ADD
:10506000910821F00F3FFFEF1F0791F3C6010E9447
:10507000181605C001E010E002C00EEF1FEFC801D6
:1050800026960FB6F894DEBF0FBECDBFDF91CF914D
:105090001F910F91FF90EF90DF90CF90BF90AF9056
:1050A0009F908F907F906F900895CF93CFB7F89493
:1050B0008091B90C811127C0E5E6F3E08491EFE11E
:1050C000F3E09491E82FF0E0EE0FFF1FE655FC4F60
:1050D000A591B491EC91E92321F461E085E30E946C
:1050E000774661E085E30E943B468CB580618CBDCC
:1050F0008CB580648CBD61E084E30E943B4661E036
:1051000083E30E943B468091B90C8F5F8093B90C7A
:10511000CFBFCF910895CF93DF93C3E1D2E08091C9
:10512000BA0C9091BB0C6991DC01ED91FC9101905E
:10513000F081E02D1995B2E0CD31DB0781F7DF91E9
:10514000CF910895FC013196079620E030E041911F
:10515000240F311DE817F907D1F788279927821BFB
:10516000930B089583E192E00E94A228E3E1F2E02C
:10517000978380870895EAEBFBE011928BE0E43C93
:10518000F807D9F70895CF93DF930E94BB28CAEBA5
:10519000DBE08091BA0C9091BB0CDC01ED91FC91AD
:1051A0000284F385E02D19958F3FBFEF9B0739F0FF
:1051B00089932BE0C43CD20761F781E001C080E015
:1051C000DF91CF9108959093BB0C8093BA0C8BE83C
:1051D00098E29093BF0C8093BE0C83EC98E290937E
:1051E000BD0C8093BC0C0895CF92DF92EF92FF929A
:1051F0001F93CF93DF93182FD62FC42F0E94E6441E
:105200002091C00C3091C10C621B730B77FF03C05F
:105210007195619571096233710594F4CB01770F33
:10522000AA0BBB0B42E350E060E070E06A017B0137
:10523000C81AD90AEA0AFB0AC701B6010E94174533
:1052400010931602D0931802C09319020E94B2283C
:10525000E091BE0CF091BF0C19950E94E64460935A
:10526000C00C7093C10C8093C20C9093C30CDF915F
:10527000CF911F91FF90EF90DF90CF900895AB01F9
:1052800060E070E00C94F428BC0186E00C943F29A7
:10529000BC0182E10C943F29CF93DF931F92CDB7DD
:1052A000DEB76983DC01ED91FC910280F381E02D92
:1052B00041E050E0BE016F5F7F4F19950F90DF9185
:1052C000CF910895CF93DF93EC01898D9A8D00974C
:1052D00039F481E090E09B838A8380E090E00BC00A
:1052E000FC01138212820E945136E98DFA8D2281CF
:1052F0003381232B71F7DF91CF910895FC01818DCC
:10530000928D009711F00C94B3330895CF93DF93EF
:105310001F92CDB7DEB741E050E0BE016F5F7F4F17
:105320000E94CE31019719F4898190E002C08FEF7D
:105330009FEF0F90DF91CF910895FC01818D928DA9
:10534000009711F00C9486298FEF9FEF08950F932B
:105350001F93CF93DF93FC01818D928D0097B9F05D
:10536000EF010E9486298C010F3F8FEF180791F003
:10537000898D9A8DFC0142855385648575854150E0
:105380005109610971090E941C33C80105C080E000
:1053900090E002C08FEF9FEFDF91CF911F910F91AF
:1053A0000895EF92FF920F931F93CF93DF93EC0139
:1053B0007B018A011B821A8288EE93E0A0E0B0E0B4
:1053C0008C839D83AE83BF8381E596E09983888338
:1053D0008DE190E00E9439479A8F898F009779F08C
:1053E0002DE1F701DC0101900D922A95E1F74CE0E7
:1053F00050E0B801CE010C960E94404A188EDF9111
:10540000CF911F910F91FF90EF900895FC011382AF
:10541000128288EE93E0A0E0B0E084839583A683B7
:10542000B78381E596E091838083128E118E148676
:105430000895FC01818D928D009729F00E941C3304
:1054400091E0811101C090E0892F0895DC01599607
:10545000ED91FC915A97309729F062857385848588
:10546000958508956FEF7FEFCB010895DC01599684
:10547000ED91FC915A97309729F063897489858959
:105480009689089560E070E0CB010895CF92DF9295
:10549000EF92FF92CF93DF93FC01218D328D232B6E
:1054A000D9F0EC010E94362A6B017C01CE010E94EA
:1054B000262AA7019601261B370B480B590BDA0148
:1054C000C901811530E89307A105B10538F08FEFC8
:1054D0009FE7A0E0B0E002C080E090E0DF91CF91D4
:1054E000FF90EF90DF90CF900895CF93DF93EC0182
:1054F000898D9A8D009741F00E94FA33898D9A8D9B
:105500000E94D1471A8E198EDF91CF910895DC0148
:105510005996ED91FC915A97309721F081E0958151
:10552000911101C080E00895442339F00E942A3689
:1055300091E0811103C090E001C091E0892F0895AE
:105540000F931F93CF93DF93EC018B0141E00E94F7
:10555000953B811109C040E0B801CE01DF91CF91A8
:105560001F910F910C94953B81E0DF91CF911F919A
:105570000F910895EF92FF920F931F93CF93DF93B4
:10558000DA01EB0128813981FC01E20FF31F408130
:105590004F3211F42F5F3F4F8C01020F131F7D011B
:1055A000E0E0F0E0E80159918E015F3259F05523B7
:1055B00049F031962F5F3F4FE70159937E01EC3060
:1055C000F10581F7EA0FFB1F1082FC01E20FF31FC8
:1055D00040814F3211F42F5F3F4FFB013183208315
:1055E000FC01E20FF31F81E09081911101C080E086
:1055F000DF91CF911F910F91FF90EF9008954F92FF
:105600005F926F927F928F929F92AF92BF92CF9252
:10561000DF92EF92FF920F931F93CF93DF93CDB75B
:10562000DEB7C954D1090FB6F894DEBF0FBECDBFA7
:105630005C016B013A01490119A218A283E696E0C8
:105640009F8F8E8F1BA21C821B829A8389831E824E
:105650002A961FAE1EAE2A978B017E018EE1E80EC0
:10566000F11C44244394AE01455C5F4FBE01685B6E
:105670007F4FC5010E94BA2A582E482F4425940115
:10568000BE01655C7F4FC801F3011995811108C007
:105690000C151D0519F0C8010E94FA3380E027C0DF
:1056A0005520B9F021E0AE01455C5F4FB801C7015C
:1056B0000E942235582E0C151D0599F0C8010E9434
:1056C000FA33552059F3902F812F8701E92EF82EB8
:1056D000CACF0C151D0519F0C8010E94FA3381E0EC
:1056E00006C08823D9F28E010F5F1F4FECCFC75B36
:1056F000DF4F0FB6F894DEBF0FBECDBFDF91CF9165
:105700001F910F91FF90EF90DF90CF90BF90AF90DF
:105710009F908F907F906F905F904F9008950F9320
:105720001F93CF93DF93EC01162F8FA5882321F0D1
:10573000CE018A960E94FA33412F61E0CE010E9489
:10574000852E882389F08E01045F1F4FBE01C8019A
:105750000E94A02A882341F0B801CE018A960E94B7
:105760007D3191E0811101C090E0892FDF91CF91CF
:105770001F910F910895FC01DB0112968D919C9170
:1057800013979383828383E696E0918380831496B4
:105790008C911497848315968C9115978583169612
:1057A0004D915D916D917C911997468357836087E8
:1057B00071871A964D915D916D917C911D974287ED
:1057C0005387648775871E964D915D916D917C918D
:1057D000519746875787608B718B52968C91529761
:1057E000828B53964D915D916D917C915697438B31
:1057F000548B658B768B57964D915D916D917C9115
:105800005A97478B508F618F728F5B968D919C91C9
:105810005C97948F838F08954F925F926F927F92DF
:105820008F929F92AF92BF92CF92DF92EF92FF92B0
:105830000F931F93CF93DF93CDB7DEB7C754D10932
:105840000FB6F894DEBF0FBECDBF5C014A0139012F
:1058500019A218A283E696E09F8F8E8F1BA21C824E
:105860001B829A8389831E82645F7F4F6E018EE163
:10587000C80ED11CC6010E947D3174018E010F5FDC
:105880001F4F5C2C4D2C6FE270E0C7010E94254A2F
:10589000009709F443C0F70120812F3271F4FFEF24
:1058A000EF1AFF0A902F812F052D142D2C01C20114
:1058B000502E412E092F182FE6CF8E198D3008F06B
:1058C0008CE0C82ED12CA601B701CE01CB960E9448
:1058D000404AEBE3F0E0EC0FFD1FEC0DFD1D1082E4
:1058E000C8010E94FA3321E0AE01455C5F4F652D8F
:1058F000742DC8010E942235811109C0F50113825F
:10590000128283E696E091838083158211C0EC0CAD
:10591000FD1C852D942D0E94FA33C9CFE818F90893
:10592000F301F182E082652D742DC5010E94BB2B2D
:10593000C501C95BDF4F0FB6F894DEBF0FBECDBF08
:10594000DF91CF911F910F91FF90EF90DF90CF905B
:10595000BF90AF909F908F907F906F905F904F908F
:105960000895DF92EF92FF920F931F93CF93DF93EF
:10597000CDB7DEB7C955D1090FB6F894DEBF0FBE5B
:10598000CDBF7C018A01D22E9E01285A3F4FCE0105
:10599000CB960E940C2C6A968EAD9FAD6A97080F2D
:1059A000191FF801808181110AC0BE01655C7F4F1B
:1059B000CE0101960E94BB2B4BE653E033C019A2E7
:1059C00018A283E696E09F8F8E8F1BA221968FAD43
:1059D0002197811104C0C7010E94062A29C02D2DDC
:1059E000A801BE01655C7F4FCE014E960E94223514
:1059F000882389F3CE01CB960E94FA338D2D8670D1
:105A0000863041F449A95AA96BA97CA9CE014E96CA
:105A10000E941C33BE01625E7F4FCE0101960E9440
:105A2000BB2BA801BE016F5F7F4FC7010E94D12928
:105A3000C701C75ADF4F0FB6F894DEBF0FBECDBF08
:105A4000DF91CF911F910F91FF90EF90DF9008951C
:105A5000FB01BC01665D7F4F20E030E044E95AE283
:105A6000CF010C94FF2AE4ECFCE01582168211862B
:105A7000138682E090E0A0E0B0E084879587A68757
:105A8000B78713A215A614A683E696E093A782A76C
:105A900017A608959FB7F8942091B80C8091B60C82
:105AA000213019F48DBB9FBF08958FBF08950F93C8
:105AB000FC0180E092E1AAE7B0E030E04817590726
:105AC0006A077B0740F4B695A795979587953F5F42
:105AD0003630A1F737E091E09327222311F020E53B
