:100000000C94F3010C9424020C9424020C9424020A
:100010000C9424020C9424020C9424020C942402C8
:100020000C9424020C9424020C9424020C942402B8
:100030000C9424020C9424020C9424020C94E823C3
:100040000C9424020C9424020C9424020C94240298
:100050000C9424020C9424020C9424020C94D73E99
:100060000C9424020C94E6380C941C390C94240251
:100070000C9424020C9424020C9424020C94240268
:100080000C9424020C9424020C9424020C94240258
:100090000C9424020C9424020C9424020C94240248
:1000A0000C9424020C9424020C9424020C94240238
:1000B0000C9424020C9424020C9424020C94240228
:1000C0000C9424020C9424020C9424020C947D3988
:1000D0000C94B3390C9424020C94143A0C944A3ABC
:1000E0000C9424021640194008400C401240504025
:1000F0001D40214027402B402F40354039403D4096
:100100005040434047404B400C94F4100C94BC3298
:100110000C9489220C948D1A0C943D400C94DD397A
:100120000C9416400C9403110C9412400C94580E2D
:100130000C94AB3A0C94300D0C945F380C946A0B11
:100140000C94A4370C9450390C94990F0C943540AE
:100150000C9467240C9451220C94E50D0C94763782
:100160000C946E0E0C94DD0F0C944C0C0C94B70D8B
:100170000C949B0B0C9482370C94670B0C94E7390E
:100180000C946C0B0C9429020C94DE0F0C946D0DE6
:100190000C9421400C94223B0C94510B0C94BE0BFC
:1001A0000C94900B0C9446390C94950E0C947E3A5A
:1001B0000C943F0F0C94A8090C9427400C94102524
:1001C0000C94AC100C9498100C94BB0F0C94394008
:1001D0000C94FD270C94682B0C940A100C941F0EA1
:1001E0000C94270D0C9446110C9419400C94260283
:1001F0000C9412380C9443400C942F400C947124AE
:100200000C942B400C94D5100C9450400C94474007
:100210000C94743A0C943A1A0C942C240C944824A0
:100220000C94B3370C946F1F0C945E250C94162419
:100230000C9408400C940C400C949B060C94881071
:100240000C94F30C0C94AB0F0C94EC0F0C94C70FA4
:100250000C9492100C94760B0C9490370C94BF0F66
:100260000C94C30F0C945F0B0C94A0110C94761794
:100270000C944B400C94A40F0C94530D0C94080D4B
:100280000C947A0B0C944D0E0C94EA0C0C94FF0613
:100290000C94390D0C941D407C3C3E5E2B3D3F2F51
:1002A0005B5D3B2C2A225C0000000A0B02090C0D4E
:1002B0000E08070304010000000000000000000019
:1002C000000000000000000000000000000000002E
:1002D00000000000121110000000000000000000EB
:1002E000000000000000000000000000000001020B
:1002F0001020200808102040102040800201020138
:1003000008040201010204081020408080402010EF
:100310000804020180040201804020100804020148
:1003200008040201010204081020408001020408B0
:100330001020408005050505070508080808020289
:1003400002020A0A0808040404040101010101016F
:1003500001010303030303030303040707070C0C52
:100360000C0C0C0C0C0C0202020206060606060619
:1003700006060B0B0B0B0B0B0B0B000020002300D6
:10038000260029002C002F0032000001000003018C
:100390000601090100002200250028002B002E0084
:1003A0003100340002010000050108010B010000CA
:1003B0002100240027002A002D0030003300010115
:1003C0000000040107010A019B06510B4D0E990F15
:1003D000A01176173A1A8D1A6F1FFD27682B503916
:1003E000E7397E3AFF0611241FBECFEFD1E2DEBF10
:1003F000CDBF00E00CBF14E0A0E0B2E0EEEAFBE805
:1004000000E00BBF02C007900D92A63BB107D9F7E1
:100410002EE0A6EBB4E001C01D92AD32B207E1F7C9
:1004200011E0C2EFD1E000E006C021970109802F62
:10043000FE010E942641C43ED10780E00807A9F7CB
:100440000E94C43E0C94C5450C94000080E090E0EE
:1004500008950895009711F00E94983B61E08DE0A7
:100460000E94514061E08DE00E948D406AEF70E093
:1004700080E090E00E94523F60E08DE00E948D405D
:100480006AEF70E080E090E00E94523FEBCFFC0109
:100490001382128288EE93E0A0E0B0E0848395831B
:1004A000A683B78388E094E09183808388E0848783
:1004B00088EE93E09687858708958AE095E020E0AE
:1004C00030E0FC01E20FF31F118210822E5F3F4FDC
:1004D00020313105B1F7409628E08A3C920779F740
:1004E0000895FB019C01205F3F4FDC016D917D91E0
:1004F000CD01419151916417750729F4A217B307F3
:10050000A1F781E0089580E008950F931F93CF93A2
:10051000DF938C01CAE0D5E0B801CE010E947102E0
:10052000811105C0609698E0CA3CD907A9F7DF9110
:10053000CF911F910F910895CF93DF93CDB7DEB781
:100540002C970FB6F894DEBF0FBECDBF6CE272E001
:10055000CE0107960E94243D6CEC74E0CE01079614
:100560000E94CA3D63E372E0CE0107960E94D13D2E
:100570006091D6047091D7044AE0CE0101960E94A2
:10058000703DBE016F5F7F4FCE0107960E94CA3D4E
:10059000CE0101960E94B63C66E972E0CE01079654
:1005A0000E94D13D62ED74E0CE0107960E94CA3DE3
:1005B000BE01695F7F4F88ED94E00E94393DCE0116
:1005C00007960E94B63C2C960FB6F894DEBF0FBE7D
:1005D000CDBFDF91CF9108950F931F93CF93DF93FA
:1005E00000D000D0CDB7DEB766E972E0CE0101964B
:1005F0000E94243DBE016F5F7F4F84EE94E00E9415
:100600006E3E8C01CE0101960E94B63C2091E8041A
:100610003091E904A8014C5F5F4F64EE74E0CE01B5
:1006200001960E94723EBE016F5F7F4F8AEB94E09D
:100630000E94393DCE0101960E94B63C26960FB627
:10064000F894DEBF0FBECDBFDF91CF911F910F9108
:1006500008956F927F928F929F92AF92BF92CF92A6
:10066000DF92EF92FF920F931F93CF93DF9300D00F
:1006700000D0CDB7DEB766E972E0CE0101960E94E8
:10068000243DBE016F5F7F4F84EE94E00E946E3E7A
:100690008C01CE0101960E94B63C0C5F1F4F24E0F6
:1006A00030E0A80164EE74E0CE0101960E94723E33
:1006B000BE016F5F7F4F8EED94E00E94393DCE0109
:1006C00001960E94B63C6BE972E0CE0101960E9451
:1006D000243DA801BE016F5F7F4F84EE94E00E942D
:1006E000513E4C01CE0101960E94B63C64018FEF51
:1006F000C81AD80A6BE972E0CE0101960E94243D27
:10070000A601BE016F5F7F4F84EE94E00E94513ED0
:100710005C01CE0101960E94B63C75018FEFE81A8C
:10072000F80A6BE972E0CE0101960E94243DA70110
:10073000BE016F5F7F4F84EE94E00E94513E3C010A
:10074000CE0101960E94B63C9401A80164EE74E0CB
:10075000CE0101960E94723EBE016F5F7F4F8EED0B
:1007600094E00E94393DCE0101960E94B63C95016D
:10077000A60164EE74E0CE0101960E94723EBE01B5
:100780006F5F7F4F80EC94E00E94393DCE0101966F
:100790000E94B63C9301A70164EE74E0CE0101967D
:1007A0000E94723EBE016F5F7F4F86EC94E00E9414
:1007B000393DCE0101960E94B63C26960FB6F894BC
:1007C000DEBF0FBECDBFDF91CF911F910F91FF9084
:1007D000EF90DF90CF90BF90AF909F908F907F90E1
:1007E0006F900895AF92BF92CF92DF92EF92FF92F7
:1007F0000F931F93CF93DF9300D000D0CDB7DEB718
:1008000066E972E0CE0101960E94243DBE016F5F51
:100810007F4F84EE94E00E946E3E8C01CE010196E3
:100820000E94B63C0C5F1F4F6BE972E0CE0101964F
:100830000E94243DA801BE016F5F7F4F84EE94E0CB
:100840000E94513E6C01CE0101960E94B63C760199
:100850008FEFE81AF80A6BE972E0CE0101960E9468
:10086000243DA701BE016F5F7F4F84EE94E00E949C
:10087000513E5C01CE0101960E94B63C9601A80152
:1008800064EE74E0CE0101960E94723EBE016F5F7D
:100890007F4F80EC94E00E94393DCE0101960E948A
:1008A000B63C9501A70164EE74E0CE0101960E946A
:1008B000723EBE016F5F7F4F86EC94E00E94393D2F
:1008C000CE0101960E94B63C26960FB6F894DEBF84
:1008D0000FBECDBFDF91CF911F910F91FF90EF9091
:1008E000DF90CF90BF90AF900895CF92DF92EF92BC
:1008F000FF920F931F93CF93DF93CDB7DEB7A197EE
:100900000FB6F894DEBF0FBECDBF7C016AE972E07E
:10091000CE014C960E94243D6DE972E088E49CE093
:100920000E94983B8701670180E1C80ED11CF80145
:1009300060810E5F1F4FCE014C960E94E03D0C156A
:100940001D05A9F76FEA72E082ED94E00E94593D1F
:1009500065EB72E08CEC94E00E94593DBE01645E50
:100960007F4F82ED94E00E94CA3D0E949C0268ED98
:1009700074E0CE0146960E94503DBE016A5E7F4FF4
:1009800088E49CE00E94863BCE0101960E944702CB
:100990006AE072E0CE0140960E940D3B40E550E0D7
:1009A000BE01605F7F4FCE0101960E944C0C892BE7
:1009B00009F441C0BE016A5E7F4FCE0101960E94DC
:1009C000613B6AE972E0CE0140960E94243DCE016F
:1009D00001960E94270D892BD1F3CE0101960E942A
:1009E000270D892B51F0CE0101960E94390D682FF9
:1009F000CE0140960E94E03DF0CFBE01605F7F4F88
:100A000084EE94E00E94393D64EE74E088E49CE05A
:100A10000E94613B0E9429036AEB72E08EED94E034
:100A20000E94203E11E0811101C010E0CE014096ED
:100A30000E94B63C0AC06FEB72E088E49CE00E9422
:100A4000983BC7010E948502182FCE0146960E944E
:100A5000B63CCE014C960E94B63C812FA1960FB6B3
:100A6000F894DEBF0FBECDBFDF91CF911F910F91E4
:100A7000FF90EF90DF90CF900895EF92FF920F9349
:100A80001F93CF93DF93CDB7DEB7A7970FB6F89438
:100A9000DEBF0FBECDBF7C016CED72E088E49CE050
:100AA0000E94983B6AE972E0CE0182960E94243D42
:100AB000870180E1E80EF11CF80160810E5F1F4F95
:100AC000CE0182960E94E03D0E151F05A9F764EF46
:100AD00072E08CEC94E00E94593D6FEA72E082ED86
:100AE00094E00E94593DBE016E5D7F4F82ED94E01F
:100AF0000E94CA3D0E949C02CE0101960E944702BC
:100B000068ED74E0CE014C960E94503D6AEF72E0B1
:100B100084EE94E00E94593D6AE072E0CE01409676
:100B20000E940D3B40E550E0BE01605F7F4FCE016B
:100B300001960E944C0C892B09F449C0BE01645EE9
:100B40007F4FCE0101960E94613B6AE972E0CE01BF
:100B500046960E94243DCE0101960E94270D892BC6
:100B6000D1F3CE0101960E94270D892B51F0CE01C1
:100B700001960E94390D682FCE0146960E94E03DF5
:100B8000F0CFBE016A5E7F4F84EE94E00E94393D53
:100B90000E94F20360EC74E0CE0140960E94503D4A
:100BA00064E972E0CE0140960E94073E66EC74E074
:100BB0000E94F43DBC0188E49CE00E94613BCE01B0
:100BC00040960E94B63CCE0146960E94B63CCE01AD
:100BD0004C960E94B63CCE0182960E94B63CA796E7
:100BE0000FB6F894DEBF0FBECDBFDF91CF911F913E
:100BF0000F91FF90EF9008950F931F93CF93DF9382
:100C000088E10E94BC40892BA9F18091EC0490916D
:100C1000ED04892B79F18091EE049091EF04009717
:100C200041F46DEF72E08091EA049091EB040E9430
:100C30002A02FC01C081D181028113810E94D53E2C
:100C40001093EF040093EE048091EC049091ED0476
:100C500001979093ED048093EC04CE010E940E2343
:100C600064E670E080E090E0DF91CF911F910F91FA
:100C70000C94523FDF91CF911F910F910895EF9205
:100C8000FF920F931F93CF93DF93EC017B010E81B3
:100C90001F8184E090E00E94D33E9F838E83009763
:100CA00031F46FE273E0888199810E942A02FC018D
:100CB00013821282F182E0822C813D81232B19F470
:100CC0009D838C8303C0F801938382838A819B81F7
:100CD00001969B838A83DF91CF911F910F91FF90A3
:100CE000EF900895CF92DF92EF92FF92CF93DF9330
:100CF00086EC94E00E94B73E6B017C0180EC94E0AE
:100D00000E94B73E8AEE94E00E943F068FEFC8161D
:100D1000D80629F0B6018AEE94E00E943F0660ED05
:100D200077E080E090E0DF91CF91FF90EF90DF904F
:100D3000CF900C94523F0F9300E020E040E060E041
:100D400086EE98E00E94F73A60E673E086ED98E060
:100D50000E94243D06E221E048EA60EC80ED98E044
:100D60000E94F73AEAECF8E01382128286E394E0FC
:100D70009183808380E590E09583848366E673E0C9
:100D800082EF94E00E94243DEAEEF4E013821282A6
:100D90001582148217821682118210826AE972E02B
:100DA00084EE94E00E94243D6AE972E08EED94E0C6
:100DB0000E94243D6AE972E088ED94E00E94243D9F
:100DC0006AE972E082ED94E00E94243D6AE972E0F3
:100DD0008CEC94E00E94243D6AEF72E086EC94E093
:100DE0000E94243D6AEF72E080EC94E00E94243D72
:100DF0006AE972E08AEB94E00F910C94243DCF9362
:100E0000DF938AEB94E00E94B63C80EC94E00E9471
:100E1000B63C86EC94E00E94B63C8CEC94E00E94D8
:100E2000B63C82ED94E00E94B63C88ED94E00E94CE
:100E3000B63C8EED94E00E94B63C84EE94E00E94B5
:100E4000B63CC091EE04D091EF04CD2B71F08091AF
:100E5000EE049091EF04FC01C281D3810E94D53E43
:100E6000D093EF04C093EE04F0CF82EF94E00E94A1
:100E7000B63C86ED98E0DF91CF910C94B63C8F9212
:100E80009F92AF92BF92CF92DF92EF92FF920F9319
:100E90001F93CF93DF93CDB7DEB76B970FB6F89460
:100EA000DEBF0FBECDBF4091F2045091F30421E0AC
:100EB00063EF79E0CE0101960E947B2760E773E043
:100EC00088E49CE00E94983BCE0101960E94512547
:100ED000882309F451C08AE0C82E85E0D82E9AE014
:100EE000892E912CA12CB12CE12CF12CCE01019654
:100EF0000E941025892BE1F100E010E0CE0101965F
:100F00000E946724F601E00FF11F918380832091F6
:100F10000E02222369F04AE050E0BC0188E49CE024
:100F20000E94613C64E972E088E49CE00E946F3BAF
:100F30000E5F1F4F0031110509F78FEFE81AF80A0D
:100F4000B501A401CE0101960E94E32480910E0216
:100F5000811109C08AE0880E911CA11CB11C80E19E
:100F6000C80ED11CC3CF88E49CE00E94823BF2CF24
:100F7000F092F904E092F804CE0101960E943F2518
:100F80006B960FB6F894DEBF0FBECDBFDF91CF9149
:100F90001F910F91FF90EF90DF90CF90BF90AF9097
:100FA0009F908F9008950F931F93CF93DF9300D05E
:100FB00000D0CDB7DEB726E040E052EC61E070E053
:100FC00088E49CE00E94813826E040E052EC61E039
:100FD00070E082E89DE00E94813826E040E855E21A
:100FE00060E070E085EE9CE00E94813885EE9CE038
:100FF0000E94A92289E190E00E940A2364E670E041
:1010000080E090E00E94523F66E183EF99E00E9409
:10101000592681110AC080910E02882331F061E8BF
:1010200073E088E49CE00E94983B80910E02882344
:1010300031F06DE973E088E49CE00E94983B0E94E7
:101040003F076FEA73E088E49CE00E946F3B00EA90
:101050001FE020E030E040E65AEE60E070E08FE014
:1010600092E00E946F0A67EB73E088E49CE00E94C4
:101070006F3B8AEC98E00E946E0E6FEB73E088E4A1
:101080009CE00E946F3BCE0101960E94390BBE018D
:101090006F5F7F4F88E49CE00E94AA3B8FEF9FEF39
:1010A0009093B7048093B6049093B9048093B804E6
:1010B00048EA59E060EE73E984E090E00E947B2307
:1010C0000E94872326960FB6F894DEBF0FBECDBFD1
:1010D000DF91CF911F910F910895EF92FF920F939F
:1010E0001F93CF93DF93CDB7DEB7AD970FB6F894CC
:1010F000DEBF0FBECDBF6DEC73E088E49CE00E94C4
:10110000983B6AE972E0CE0188960E94243D609186
:10111000F2047091F30483EF99E00E94F22740916A
:10112000F2045091F30427E163EF79E0CE010196D8
:101130000E947B27CE0101960E945125882309F445
:1011400072C06BE972E0CE014C960E94243DBE0154
:10115000645E7F4F8AEB94E00E946E3E01967C01B4
:10116000CE014C960E94B63C6BE972E0CE014C96E3
:101170000E94243DA701BE01645E7F4F8AEB94E08C
:101180000E94513E8C01CE014C960E94B63C0F3F0E
:101190008FEF180709F43FC09801A7016AEB74E0CC
:1011A000CE0182960E94723EBE016E5D7F4F88E442
:1011B0009CE00E94863BE12CF12C8EA19FA1E816B9
:1011C000F90678F4B701CE0182960E943F3EFC01F9
:1011D0006081CE0101960E941624FFEFEF1AFF0AEC
:1011E000ECCF78018FEFE81AF80A6BE972E0CE01D4
:1011F0004C960E94243DA701BE01645E7F4F8AEB9E
:1012000094E00E94513E8C01CE014C960E94B63C67
:10121000CE018296BACFCE0101960E943F250E9450
:101220005D020E943F07CE0188960E94B63CAD96B3
:101230000FB6F894DEBF0FBECDBFDF91CF911F91E7
:101240000F91FF90EF900895CF93DF93CDB7DEB766
:101250006B970FB6F894DEBF0FBECDBF67EE73E09D
:1012600088E49CE00E94983B6BEF73E08CEC94E088
:101270000E94593D6AE972E082ED94E00E94593D76
:101280000E949C02CE0101960E94470268ED74E024
:10129000CE0146960E94503D6AE972E084EE94E0E9
:1012A0000E94593D6AE072E0CE0140960E940D3BDB
:1012B00040E550E0BE01605F7F4FCE0101960E9485
:1012C0004C0C892BC1F1BE016A5E7F4FCE010196A5
:1012D0000E94613B6AE972E0CE0140960E94243D83
:1012E000CE0101960E94270D892BD1F3CE010196E4
:1012F0000E94270D892B51F0CE0101960E94390DD5
:10130000682FCE0140960E94E03DF0CFBE01605FA5
:101310007F4F84EE94E00E94393D0E94EC026AEB1C
:1013200074E088E49CE00E94613B0E946D08CE015D
:1013300040960E94B63CCE0146960E94B63C6B9603
:101340000FB6F894DEBF0FBECDBFDF91CF910895E9
:101350000C942409CF93DF9382E89DE00E947637B6
:10136000892B59F48FEF9FEF9093B7048093B604C5
:101370009093B9048093B80464C082E89DE00E9411
:101380009037EC018C579109029780F4D093B904FF
:10139000C093B8044AE050E0BE0188E49CE00E949B
:1013A000683C1092B7041092B6044BC08091B6040A
:1013B0009091B70497FD18C061E070E080E090E084
:1013C0000E94523F8091B6049091B7049C012F5F18
:1013D0003F4F3093B7042093B604880F991FFC0148
:1013E000E650FB4FD183C0838091B6049091B7043F
:1013F000089739F58091B8049091B9048C3791051C
:10140000A9F48AEF94E00E947504882339F060E023
:1014100074E082E89DE00E946F3B0FC062E074E0E0
:1014200082E89DE0DF91CF910C946F3B8D37910561
:1014300041F48AEF94E00E943D05DF91CF910C9436
:101440007206DF91CF9108950E94FC050C94AA09C1
:101450002091DA09222399F04FB7F8942091DA0904
:10146000213059F42DB32093D8093DB32091D909E7
:10147000209523232DBB4FBF02C04093D8098CBDBC
:101480009DBD08958091DA09882361F09FB7F89493
:101490002091DA098091D809213019F48DBB9FBFC2
:1014A00008958FBF089544E050E0BC0181E090E0D2
:1014B0000C94B71744E050E0BC0185E090E00C9438
:1014C000B71746E050E0BC0189E090E00C94B717F4
:1014D00044E050E0BC018FE090E00C94B7174F92CD
:1014E0005F926F927F928F929F92AF92BF92CF92B4
:1014F000DF92EF92FF920F931F93CF93DF9300D071
:1015000000D0CDB7DEB76C014A015B01280139017B
:1015100080914A09811120C010923209109231093C
:1015200088EE93E0A0E0B0E0809333099093340913
:10153000A0933509B093360986E494E0909330097E
:1015400080932F098DE399E00E94ED3A88E0809323
:10155000470981E080934A098CEE98E09093530903
:10156000809352090E94B019882309F469C080E56C
:1015700091E00E94280AC6010E94610A00E020E072
:1015800040E060E0CE0101960E94F73ACE0103965A
:101590000E94680A0E94420A83017201A501940117
:1015A000B60180915209909153090E94EE1E81303C
:1015B000910509F047C080E591E00E94280A6091FA
:1015C000520970915309CE0101960E944C1ACE0126
:1015D00003960E94680A6091520970915309CE01E6
:1015E00001960E94621ACE0103960E94530A6091EE
:1015F000520970915309CE0101960E94571ACE01EB
:1016000003960E945A0A0E94420A60915209709100
:101610005309CE0101960E946D1A8B819C81AD8188
:10162000BE818093560990935709A0935809B093AF
:1016300059090E942D3FCB010E94231381E001C074
:1016400080E090E026960FB6F894DEBF0FBECDBFC7
:10165000DF91CF911F910F91FF90EF90DF90CF908E
:10166000BF90AF909F908F907F906F905F904F90C2
:101670000895CF93DF93EC010E94ED3A80E591E06D
:101680000E94280ABE016E5F7F4F44E050E08FE069
:1016900090E00E948A180E94420ACE01DF91CF9109
:1016A00008950F9300E020E040E060E08AE599E0D3
:1016B0000E94F73A84E599E00F910C94ED3A21E00D
:1016C000FC018485883008F020E0822F089581E0B5
:1016D00086270895862F0895DC01ED91FC91068CF4
:1016E000F78DE02D199591E089270895FC01768703
:1016F00065870895CF93DF931F92CDB7DEB76983D7
:10170000DC01ED91FC910280F381E02D41E050E09D
:10171000BE016F5F7F4F19950F90DF91CF910895B4
:10172000FC019485FB018485981303C081E0983007
:1017300008F080E00895CF93DF93EC018C8588302A
:10174000C8F40E94BF14843181F0882371F088317D
:1017500061F08C3161F4E881F9810084F185E02D3C
:10176000CE01199521E0892B19F420E001C021E078
:10177000822F01C080E0DF91CF910895AF92BF9298
:10178000CF92DF92EF92FF920F931F93CF93DF934D
:10179000CDB7DEB7AF970FB6F894DEBF0FBECDBFA3
:1017A0008C015B016A01CE0101960E94ED3A1C8614
:1017B0001B8688EE93E0A0E0B0E08D879E87AF8720
:1017C000B88B86E494E09A878987CE0147960E9479
:1017D000ED3A88E089A3CE018A960E94ED3AD801BD
:1017E0001C968C91883060F40E94BF14882321F0ED
:1017F000F80184850E94151588E0D8011C968C9309
:1018000087EAE82E84E0F82EFDA2ECA2809156092A
:1018100090915709A0915809B09159098EA39FA39F
:10182000A8A7B9A7BE016C5D7F4FCE0101960E94AB
:101830002D1F28E833E1AE01465D5F4FB501CE01B3
:1018400001960E9488210097B1F0D801ED91FC919A
:101850000684F785E02DFDA2ECA28CA59DA5AEA582
:10186000BFA58EA39FA3A8A7B9A7A601BE016C5DC3
:101870007F4FC8011995AF960FB6F894DEBF0FBE23
:10188000CDBFDF91CF911F910F91FF90EF90DF902F
:10189000CF90BF90AF900895CF92DF92EF92FF92DA
:1018A0000F931F93CF93DF93CDB7DEB72C970FB66F
:1018B000F894DEBF0FBECDBF8C017B016A01FC0135
:1018C0008485883058F40E94BF14882321F0F801E1
:1018D00084850E94151588E0F801848740E050E077
:1018E000BA01CE0107960E94033B49855A856B8554
:1018F0007C85F70182819381A481B58148175907BE
:101900006A077B0709F452C04FEF5FEFBA01CE01BF
:1019100001960E94033BF7014281538164817581E6
:101920008B819C81AD81BE81481759076A077B076F
:10193000E9F160E070E081E20E942F13F8018487F2
:101940008830A0F5B7016E5F7F4FA6010E94F514A5
:101950000E94213F6B017C01F80184850E94BF1425
:10196000873139F18C3129F1882301F10E94213F1F
:10197000AB01BC014C195D096E097F09F801858531
:101980009685A0E0B0E084179507A607B70738F062
:1019900061E070E080E090E00E94523FDDCFF8010E
:1019A00084850E94CE1488E0F801848780E090E06E
:1019B00002C081E090E02C960FB6F894DEBF0FBE17
:1019C000CDBFDF91CF911F910F91FF90EF90DF90EE
:1019D000CF900895FC018485883010F40C94C416CF
:1019E00080E090E00895CF93DF93EC018C85883000
:1019F00060F40E94BF14873111F08C3131F48C8572
:101A00000E94C4168115984088F3DF91CF91089504
:101A10000F931F93CF93DF93FC018485883068F484
:101A2000C52FD42F8F010E945E16009749F421E044
:101A300030E0F8013383228305C080E090E002C0EB
:101A40008D2F9C2FDF91CF911F910F910895FC0155
:101A50008485883010F40C94FE1580E090E00895A1
:101A6000FC018485883010F40C94231580E090E00C
:101A70000895CF93DF931F92CDB7DEB741E050E0DA
:101A8000BE016F5F7F4FFC0184850E9423151816ED
:101A900019061CF4898190E002C08FEF9FEF0F9030
:101AA000DF91CF910895CF93DF93FC0124852830F7
:101AB00018F08FEF9FEF0EC0EC010190F081E02D48
:101AC0000084F185E02D1995892B99F38C850E946E
:101AD000361690E0DF91CF910895CF92DF92EF928A
:101AE000FF92CF93DF93EC018C85883038F50E940C
:101AF00015150E94213F6B017C018C850E94BF144B
:101B00008823D1F061E070E080E090E00E94523FD5
:101B10000E94213FAB01BC014C195D096E097F0990
:101B20008D859E85A0E0B0E0481759076A077B07BE
:101B300020F38C850E94CE1488E08C87DF91CF91B2
:101B4000FF90EF90DF90CF900895DA019091C40953
:101B5000E92FF0E0FE2FEE27E60FF71F90E0982F19
:101B60008827A901BD018E0F9F1F0C948A180F931F
:101B70001F93CF93DF931F921F92CDB7DEB7FC0167
:101B800024852830C0F48C0180E591E00E94280A69
:101B900022E030E0AE014F5F5F4F64E070E0F8019B
:101BA00084850E94A50D09811A811027012710271D
:101BB0000E94420A02C000E010E0C8010F900F909E
:101BC000DF91CF911F910F910895EF92FF920F93A4
:101BD0001F93CF93DF9300D01F92CDB7DEB78C0158
:101BE0007B01FB018485883038F040E050E0BA0189
:101BF000C8010E94033B17C080E591E00E94280ABB
:101C000024E030E0AE014F5F5F4F6CE070E0F70121
:101C100084850E94A50D0E94420ABE016F5F7F4F1E
:101C2000C8010E940D3BC8010F900F900F900F90BC
:101C3000DF91CF911F910F91FF90EF9008950F9337
:101C40001F93CF93DF931F921F92CDB7DEB7FC0196
:101C500024852830C0F48C0180E591E00E94280A98
:101C600022E030E0AE014F5F5F4F60E170E0F801CD
:101C700084850E94A50D09811A811027012710274C
:101C80000E94420A02C000E010E0C8010F900F90CD
:101C9000DF91CF911F910F9108950F9300E020E005
:101CA00040E060E080E699E00E94F73A0F910895E5
:101CB000CF93DF931F92CDB7DEB76983DC01ED913F
:101CC000FC910280F381E02D41E050E0BE016F5FA6
:101CD0007F4F19950F90DF91CF9108950F931F9328
:101CE000CF938C01FC016481758181E20E942F13E6
:101CF000C82F8830B0F40E94DC14882361F0F8010A
:101D000084819581EC2FF0E0EE0FFF1FEA59F64F2A
:101D10009183808306C08C2FCF911F910F910C94DB
:101D20001515CF911F910F910895EF92FF920F9388
:101D30001F93CF93DF937C018091C509833311F406
:101D4000D4E001C0D8E006E619E0C0E0F801219136
:101D500031918F01F701848195812817390729F086
:101D6000CF5FDC13F3CF80E006C08C2F0E94BF143E
:101D70008431B1F781E0DF91CF911F910F91FF90F6
:101D8000EF900895FC011382128288EE93E0A0E0A8
:101D9000B0E084839583A683B78388E094E0918341
:101DA0008083648788EE93E09687858708959F9265
:101DB000AF92BF92CF92DF92EF92FF920F931F9359
:101DC000CF93DF937C016B018091C509811102C023
:101DD00068E045C0833319F424E0922E02C098E0F5
:101DE000992E06E619E0C0E088E0B82EA12CD801B3
:101DF0002D913C91F6018481958128173907F9F4DA
:101E00008C2F0E94BF14D82F873111F08C3159F4D8
:101E10008C2F0E94FE15892B71F4DC3181F48C2FFC
:101E20000E9415150CC0843141F0811108C0D80101
:101E30001D921C9204C0BC2E02C0AA24A394CF5FA2
:101E40000E5F1F4F9C12D3CFA11008C0D601ED9199
:101E5000FC910084F185E02DC60119956B2DC70119
:101E60000E94C20EC701DF91CF911F910F91FF9089
:101E7000EF90DF90CF90BF90AF909F9008958F929A
:101E80009F92AF92BF92CF92DF92EF92FF920F9309
:101E90001F93CF93DF93CDB7DEB72F970FB6F8948C
:101EA000DEBF0FBECDBF2091C509222369F12333C8
:101EB00019F434E0E32E02C028E0E22E8A015B012F
:101EC0006C01BC01CE0101960E94D70E86E6882ED9
:101ED00089E0982EF12CF401219131914F01F60106
:101EE000848195812817390751F48F2D0E94BF14E2
:101EF000873129F4A801B5018F2D0E945E16F39455
:101F0000EF10E9CFC80102C080E090E02F960FB635
:101F1000F894DEBF0FBECDBFDF91CF911F910F911F
:101F2000FF90EF90DF90CF90BF90AF909F908F90F9
:101F300008950F9300E020E040E060E086E799E03C
:101F40000E94F73A0F910895DC01ED91FC91048C09
:101F5000F58DE02D199427EA34E0FC0131832083CC
:101F6000FB014089518962897389FC014283538353
:101F7000648375830895FC01848995890895FC0123
:101F8000848595850895FC01818D928D0895CF9368
:101F9000DF931F92CDB7DEB76983DC01ED91FC9131
:101FA0000280F381E02D41E050E0BE016F5F7F4F82
:101FB00019950F90DF91CF9108950895CF93DF93F6
:101FC000FC01808D883028F4EF010E94CE1488E057
:101FD000888FDF91CF9108950F931F93CF93DF9355
:101FE000EC018B01888D883010F40E94CE14B8016A
:101FF00082E00E942F13888F883030F41D870C8771
:102000001A8E198E81E001C080E0DF91CF911F917F
:102010000F910895AF92BF92CF92DF92EF92FF920D
:102020000F931F93CF93DF93CDB7DEB7AF970FB664
:10203000F894DEBF0FBECDBF8C015B016A01CE01FB
:1020400001960E94ED3A1C861B8688EE93E0A0E084
:10205000B0E08D879E87AF87B88B86E494E09A873F
:102060008987CE0147960E94ED3A88E089A3CE0188
:102070008A960E94ED3A87EAE82E84E0F82EFDA2C7
:10208000ECA28091560990915709A0915809B091FE
:1020900059098EA39FA3A8A7B9A7BE016C5D7F4F66
:1020A000CE0101960E942D1F28E833E1AE01465D66
:1020B0005F4FB501CE0101960E94882181309105C4
:1020C000B1F4D801ED91FC910488F589E02DFDA2D1
:1020D000ECA28CA59DA5AEA5BFA58EA39FA3A8A786
:1020E000B9A7A601BE016C5D7F4FC8011995AF96D7
:1020F0000FB6F894DEBF0FBECDBFDF91CF911F9119
:102100000F91FF90EF90DF90CF90BF90AF90089528
:10211000FC01178A168A6E5F7F4F808D0E94101710
:1021200090E00895FC01808D0E943F1790E0089593
:10213000CF93DF93EC019A018E899F89AB01BC019B
:10214000888D0E94E4162E893F89280F391F3F8B06
:102150002E8BDF91CF9108950F931F93CF93DF9331
:102160001F92CDB7DEB7FC01218D328D232B61F09C
:102170008C0141E050E0BE016F5F7F4F808D0E9477
:102180002315181619061CF08FEF9FEF08C0F801F1
:10219000818D928D0197928F818F898190E00F9030
:1021A000DF91CF911F910F910895CF93DF93FC01A1
:1021B000218D328D2115310519F48FEF9FEF11C05C
:1021C000EC014217530708F0A901888D0E942315DE
:1021D0001816190694F7298D3A8D281B390B3A8F5A
:1021E000298FDF91CF910895FC01808D883040F4D4
:1021F000218D328D232B21F00E94361690E0089518
:102200008FEF9FEF0895CF92DF92EF92FF920F939F
:102210001F93CF93DF9300D000D0CDB7DEB78C01F2
:102220006B017A01FC01808D883010F40E94CE147D
:1022300087EA94E09A838983F60182819381A4815D
:10224000B5818B839C83AD83BE83A701BE016F5F85
:102250007F4F82E80E94E313F801808F883030F4CA
:10226000F586E486128E118E81E001C080E026960C
:102270000FB6F894DEBF0FBECDBFDF91CF911F9197
:102280000F91FF90EF90DF90CF9008950F931F93E1
:10229000CF93DF93CDB7DEB728970FB6F894DEBFA4
:1022A0000FBECDBF8C01D80159964D915C915A97C4
:1022B0004115510551F0ED91FC91048CF58DE02D07
:1022C00060E070E0C8011995EECFF801808D0E94A2
:1022D000FE15892B41F148E050E0BE016F5F7F4F52
:1022E000D80158968C910E94231518161906ECF403
:1022F000BE016F5F7F4FC8010E960E94193B8D8112
:1023000090E0982F88272E81820F911DF801958BE0
:10231000848B8F8190E0982F88272885820F911DCC
:10232000928F818F02C080E090E028960FB6F894DB
:10233000DEBF0FBECDBFDF91CF911F910F910895EA
:102340000F9300E020E040E060E08CE799E00E941D
:10235000F73A0F910895CF93DF931F92CDB7DEB771
:102360009091C409292F30E0322F2227260F371FE2
:1023700090E0982F882741E050E0BE016F5F7F4FCB
:10238000820F931F0E948A1889810F90DF91CF914D
:102390000895CF93DF931F92CDB7DEB79091C40914
:1023A000292F30E0322F2227260F371F90E0982F59
:1023B0008827498341E050E0BE016F5F7F4F820F65
:1023C000931F0E94B7170F90DF91CF910895DA0104
:1023D0009091C409E92FF0E0FE2FEE27E60FF71FDA
:1023E00090E0982F8827A901BD018E0F9F1F0C94A4
:1023F000B7177F928F929F92AF92BF92CF92DF9248
:10240000EF92FF920F931F93CF93DF931F921F9230
:10241000CDB7DEB7782E8B014A01590122E030E0BA
:10242000AE014F5F5F4F64E270E00E94A50DE9804E
:10243000FA80FE24EF24FE24E00EF11E970137708F
:102440004091C509072D10E0C801433311F40896E7
:1024500001C04096982F8827990F990F990F820FE6
:10246000931F473319F4A501B40120C0A9014A0DF7
:102470005B1D41305840B8F360E078E06B01C21A50
:10248000D30AA601B4010E94B717A5014C195D0932
:10249000B4016C0D7D1D8091C509833339F5085F4A
:1024A0001F4F902F990F990F990F80E00E94B71737
:1024B000EA0CFB1CF982EA8222E030E0AE014F5FB9
:1024C0005F4F64E270E0872D0E94E7110F900F903C
:1024D000DF91CF911F910F91FF90EF90DF90CF9000
:1024E000BF90AF909F908F907F900895005F1F4F97
:1024F000D8CF63E070E00C94AB11CF93DF931F92C1
:102500001F92CDB7DEB779836A8322E030E0AE0157
:102510004F5F5F4F64E070E00E94E7110F900F90F3
:10252000DF91CF910895AB0124E030E06CE070E0E2
:102530000C94E711CF93DF931F921F92CDB7DEB7B4
:1025400079836A8322E030E0AE014F5F5F4F60E144
:1025500070E00E94E7110F900F90DF91CF910895E6
:10256000CF93DF931F921F92CDB7DEB722E030E00A
:10257000AE014F5F5F4F60E270E00E94A50D898160
:102580009A819827892798270F900F90DF91CF91F4
:1025900008950F931F93CF93C82F0E94B0128C0100
:1025A0008C2F0E94B01208171907C9F787E0C89F3F
:1025B000F0011124EE57F64F15830483C801CF9123
:1025C0001F910F910895CF93DF931F921F92CDB764
:1025D000DEB722E030E0AE014F5F5F4F66E270E0B1
:1025E0000E94A50D89819A819827892798270F90A5
:1025F0000F90DF91CF910895CF93DF931F921F9299
:10260000CDB7DEB722E030E0AE014F5F5F4F68E24A
:1026100070E00E94A50D89819A81982789279827C3
:102620000F900F90DF91CF9108952091C50990E010
:10263000233311F40C9601C04896982F990F990FE7
:10264000990F80E008959F7320911F02309120021E
:10265000822793279093200280931F0208958F92E0
:102660009F92AF92BF92CF92DF92EF92FF920F9321
:102670001F93CF93DF93CDB7DEB728970FB6F894AB
:10268000DEBF0FBECDBF9091C509992309F487C065
:10269000933319F424E0F22E02C098E0F92E6B0176
:1026A000082F80E591E00E94280A9E012F5F3F4F8E
:1026B0005901490110E0812F0E947912F4018193A0
:1026C0004F018823C9F01F5FF112F5CF10E0F5012B
:1026D00091915F019D3159F0983149F09A519230B2
:1026E00030F01F5FF112F3CF0E94420A58C060E140
:1026F00070E0812F0E94201AE12EF12CF701EE0FDD
:10270000FF1FEA59F64F118210828AEF90E00E9473
:102710008E3F402F60E070E0812F0E94C9114FEF83
:1027200062E070E0812F0E94C911C114D10411F040
:10273000B60113C080911F0290912002019681156D
:10274000F0EC9F0710F480E090EC909320028093CF
:102750001F0260911F0270912002812F0E947D1242
:1027600061E070E0812F0E94201A27E02E9DC001B9
:102770002F9D900D11249C012E57364F7901F901A0
:1027800011821082812F0E94FC12F70193838283B1
:102790001682158214820E94420A812F01C088E0AD
:1027A00028960FB6F894DEBF0FBECDBFDF91CF9154
:1027B0001F910F91FF90EF90DF90CF90BF90AF905F
:1027C0009F908F9008957F928F929F92AF92BF9229
:1027D000CF92DF92EF92FF920F931F93CF93DF93ED
:1027E000CDB7DEB72E970FB6F894DEBF0FBECDBFC4
:1027F0009091C509992309F4ADC0933319F424E0ED
:10280000722E02C098E0792E6A017B01082F80E5C4
:1028100091E00E94280A9E012F5F3F4F5901490114
:1028200010E0812F0E947912F40181934F018823D7
:10283000C9F01F5F7112F5CF10E0F50191915F01B2
:102840009D3159F0983149F09A51923030F01F5F24
:102850007112F3CF0E94420A7DC060E170E0812FC7
:102860000E94201AA12EB12CF501EE0FFF1FEA598C
:10287000F64F118210828AEF90E00E948E3F402F27
:1028800060E070E0812F0E94C9114FEF62E070E0BC
:10289000812F0E94C911C114D10411F0B60113C0D7
:1028A00080911F029091200201968115F0EC9F0704
:1028B00010F480E090EC9093200280931F026091CE
:1028C0001F0270912002812F0E947D1286E0E6E2B5
:1028D000F2E0DE01199601900D928A95E1F7F70179
:1028E00083818F778C8784818D8785818E87B701DF
:1028F0006E5F7F4F812F0E949312B601812F0E943D
:102900009A1226E030E0AE01475F5F4F66E070E06C
:10291000812F0E94E71161E070E0812F0E94201A50
:1029200027E02A9DC0012B9D900D11249C012E575C
:10293000364F7901F90111821082812F0E94FC1219
:10294000F701938382831682158214820E94420AC1
:10295000812F01C088E02E960FB6F894DEBF0FBE1F
:10296000CDBFDF91CF911F910F91FF90EF90DF903E
:10297000CF90BF90AF909F908F907F900895CF930E
:10298000C82F80E591E00E94280A8C2F0E947912BE
:10299000C82F0E94420A8C2FCF910895CF93C82F41
:1029A00080E591E00E94280A60E170E08C2F0E948F
:1029B000201ACF910C94420ACF93C82F80E591E062
:1029C0000E94280A8C2F0E947912833121F00E94E4
:1029D000420A80E008C062E070E08C2F0E94201A5A
:1029E0000E94420A81E0CF910895EF92FF920F93E7
:1029F0001F93CF93C82F7B018A0180E591E00E944D
:102A0000280AB7018C2F0E949312B8018C2F0E94C4
:102A10009A1264E070E08C2F0E94201ACF911F91CF
:102A20000F91FF90EF900C94420ACF93C82F80E54E
:102A300091E00E94280A68E070E08C2F0E94201A22
:102A4000CF910C94420A4F925F927F928F929F9205
:102A5000AF92BF92CF92DF92EF92FF920F931F93AC
:102A6000CF93DF931F921F92CDB7DEB7782E6B0105
:102A70007A01882E912C47E0849FF0011124EE57B3
:102A8000F64F0081118180E591E00E94280A0E1521
:102A90001F05BCF4872D0E94E3128C01872D0E9434
:102AA000E31280179107C9F787E0889DF001899D9F
:102AB000F00D1124EE57F64F8681081B1109118382
:102AC00000830115110599F4872D0E947912843134
:102AD00009F47FC0882309F47CC001E010E08C3148
:102AE00011F400E010E011950195110972C0E01693
:102AF000F1060CF4870187E0889DF001899DF00DB7
:102B00001124EE57F64FE280F380C114D10451F145
:102B1000270157E05522872D0E941513840D951D1E
:102B20002091C509273311F4A80119C09201200F83
:102B3000311F21303840C0F320E038E05901A4189B
:102B4000B508A501B6010E948A18CA0CDB1CC80191
:102B50008A199B095C01872D0E941513A501B601F6
:102B60000E948A18E00EF11E87E0889DF001899D81
:102B7000F00D1124EE57F64FF382E28280819181AD
:102B8000801B910B918380832681A801420F511DE8
:102B90004A3F510510F4892BD9F487E0889DF00154
:102BA000899DF00D1124EE57F64F1682F982EA82C4
:102BB00022E030E0AE014F5F5F4F68E270E0872DAA
:102BC0000E94E71160E470E0872D0E94201A01C086
:102BD00046830E94420AC8010F900F90DF91CF9167
:102BE0001F910F91FF90EF90DF90CF90BF90AF902B
:102BF0009F908F907F905F904F900895EF92FF92FB
:102C00001F93CF93DF93E82EF12C97E0899FF0017B
:102C10001124EE57F64F2081318121153105F9F449
:102C2000182F80E591E00E94280A8E2D0E94E31261
:102C3000EC01812F0E94E3128C179D07C9F70E94B7
:102C4000420A87E08E9DF0018F9DF00D1124EE5712
:102C5000F64F86819E01281B310931832083C901EB
:102C6000DF91CF911F91FF90EF9008951F93CF9325
:102C7000DF931F92CDB7DEB7182F80E591E00E9459
:102C8000280A812F0E94151327E0129FF0011124BA
:102C9000EE57F64F22813381377041E050E0BE019C
:102CA0006F5F7F4F820F931F0E948A180E94420A13
:102CB00089810F90DF91CF911F910895CF92DF927C
:102CC000EF92FF920F931F93CF93DF93182F7B0107
:102CD000EA014130584010F0C0E0D8E080E591E0D2
:102CE0000E94280A812F0E94C9126C01812F0E9424
:102CF0007912082F0E94420A073111F00C3131F489
:102D00000E94C23ECC16DD0648F302C0C0E0D0E00F
:102D100080E591E00E94280A9E01A70160E070E032
:102D2000812F0E94F91160E270E0812F0E94201A29
:102D300062E070E0812F0E94AB1184FD13C0812FEF
:102D40000E947912811105C00E94420A80E090E041
:102D500012C00E94420A0E94C23E80E591E00E9499
:102D6000280AE6CF40E162E070E0812F0E94C9119D
:102D70000E94420ACE01DF91CF911F910F91FF90E7
:102D8000EF90DF90CF9008951F93CF93DF93182F8C
:102D900080E591E00E94280A812F0E94C912D82F55
:102DA000C92F812F0E947912182F0E94420A1731D1
:102DB00029F01C3119F080E090E002C08D2F9C2F8B
:102DC000DF91CF911F910895AF92BF92CF92DF9282
:102DD000EF92FF921F93CF93DF93182F6B015A014D
:102DE000790180E591E00E94280A812F0E94C91292
:102DF000EC01E816F90608F4E7019E01A501B60109
:102E0000812F0E94F9110E94420ACE01DF91CF91D9
:102E10001F91FF90EF90DF90CF90BF90AF900895FB
:102E2000EF92FF921F93CF93DF93FB01908191115B
:102E300009C09181911106C09281911103C09381C3
:102E40009923B1F04115510599F07A01EF01182F3E
:102E500080E591E00E94280ABE01812F0E94931212
:102E6000B701812F0E949A120E94420A81E001C09C
:102E700080E0DF91CF911F91FF90EF900895CF9365
:102E8000C82F80E591E00E94280A60E270E08C2F54
:102E90000E94201A62E070E08C2F0E94AB1184FD2A
:102EA0001AC062E070E08C2F0E94AB1183FF0AC051
:102EB00048E162E070E08C2F0E94C9110E94420A32
:102EC00080E012C00E94420A0E94C23E80E591E06A
:102ED0000E94280ADFCF40E162E070E08C2F0E9460
:102EE000C9110E94420A81E0CF9108950F9300E03A
:102EF00020E040E060E08AEB99E00E94F73A0F9111
:102F00000895FC0120812EBD9B012150310941F023
:102F100051810DB407FEFDCF4EB55EBD4193F5CF97
:102F200061507109FC01E60FF71F0DB407FEFDCFDC
:102F30008EB5808308958EBD00000DB407FEFDCFD1
:102F40008EB50895E091C209F091C30990818091F6
:102F5000C1098095892380830895E091C209F09189
:102F6000C30990818091C109892B80830895AF9214
:102F7000BF92CF92DF92EF92FF920F931F93CF9366
:102F8000DF93CDB7DEB728970FB6F894DEBF0FBE3C
:102F9000CDBF8C017B016A018091C5098333E1F4C7
:102FA0005801A40EB51E0A151B0509F48BC00E941A
:102FB000A21780EF0E949B17812F0E949B17802FE2
:102FC0000E949B170F5F1F4FF70181917F010E94A5
:102FD0009B170E94AD17E7CF843321F50E94A217FB
:102FE00019830A838D2D80688B83CC8264E070E026
:102FF000CE0101960E94811787010C0D1D1DE01660
:10300000F10669F0F70181917F010E949B17F7CFCC
:10301000B6016D5F7F4FCE0101960E9481170E941D
:10302000AD1750C00E94A2170F3F110509F020F400
:1030300019820A8384E01CC017FD0BC019820A8321
:1030400033E0169507953A95E1F7007E0C600B8307
:1030500010C0C80126E0969587952A95E1F7198357
:103060000A83807E0115104C10F4846101C08C61CC
:103070008B8326E0C216D10498F420E0822F90E0E2
:103080008C159D0528F6E4E0F0E0EC0FFD1FE80F3D
:10309000F91FD701A80FB91F8C9180832F5FEECF46
:1030A00063E070E0CE0101960E94811787010C0D4C
:1030B0001D1DF70181917F010E949B17E016F1060B
:1030C000C1F7ADCFC60128960FB6F894DEBF0FBE8C
:1030D000CDBFDF91CF911F910F91FF90EF90DF90C7
:1030E000CF90BF90AF900895CF93DF931F92CDB74D
:1030F000DEB7698341E050E0BE016F5F7F4F0E9401
:10310000B7170F90DF91CF910895682F80E090E07E
:103110000C947418AF92BF92CF92DF92EF92FF920D
:103120000F931F93CF93DF9300D01F92CDB7DEB7DD
:103130008C016B017A018091C5098333F1F45B0145
:103140006801C40ED51E0C151D0509F460C00E944F
:10315000A2178FE00E949B17812F0E949B17802F40
:103160000E949B170F5F1F4F80E00E949B17F50185
:1031700081935F010E94AD17E6CF8433F1F40E9482
:10318000A21719830A838F2D8F778B83EC8264E0DB
:1031900070E0CE0101960E948117A70160E070E007
:1031A000C6010E942845E114F10421F0B701C601CF
:1031B0000E9481170E94AD172AC00E94A2170F3FDC
:1031C000110509F020F419820A831B821DC017FD26
:1031D0000BC019820A8333E0169507953A95E1F7FB
:1031E000007E08600B8310C0C80126E09695879585
:1031F0002A95E1F719830A83807E0115104C10F49B
:10320000806101C088618B8363E070E0C2CFC70139
:103210000F900F900F900F90DF91CF911F910F9112
:10322000FF90EF90DF90CF90BF90AF900895CF9335
:10323000DF931F92CDB7DEB741E050E0BE016F5F74
:103240007F4F0E948A1889810F90DF91CF91089556
:1032500080E090E00C941719CF93DF9380E80E94F0
:103260008518C4E1D0E00E942819882351F061E05C
:1032700070E080E090E00E94523F2197A1F780E04B
:1032800001C081E0DF91CF91089583E38093C50968
:103290000E942C198823A9F080E10E9485180E94C1
:1032A0002819803171F482E10E9485180E94281942
:1032B000823139F480E00E9485180E94281991E03B
:1032C000811190E0892F089584E38093C5090E94BD
:1032D0002C198823E1F088E00E9485180E942819A3
:1032E0008830A9F480E10E9485180E942819803155
:1032F00071F480E00E9485180E942819811107C08E
:103300008FE190E00E94171991E0833009F090E07E
:10331000892F089587E38093C5090E942C1988237B
:10332000E1F088E00E9485180E9428198830A9F4ED
:1033300080E10E9485180E942819803171F480E094
:103340000E9485180E942819811107C089E390E026
:103350000E94171991E0843009F090E0892F0895B8
:10336000CF938091C009811167C060E372E080E073
:1033700090E00E94523F0E941B2280912102282F40
:1033800030E0F901EC5CFC4FE491F0E0EE0FFF1F40
:10339000EC56FC4F459154915093C3094093C20998
:1033A000F901E251FD4FE491E093C10961E00E940F
:1033B00051400E94AD1780E591E00E94280A0E94CA
:1033C00064198823A1F080E48093C409C0E042E03E
:1033D0006EE170E08C2F0E94C91142E06FE170E055
:1033E0008C2F0E94C911CF5FC83089F720C00E947E
:1033F0008A19882321F080E18093C40918C00E94B3
:103400004519C82F882371F084E08093C40965E5CD
:103410008BE190E00E94741865E58AE190E00E94DB
:10342000741805C01092C5090E94420A06C00E9485
:10343000420A81E08093C009C1E08C2FCF910895AA
:10344000CF93DF93C82F462F61E070E00E94C9112F
:10345000D0E0DC2FCC278091C40990E0982F8827FA
:1034600001968C0F9D1F0E9417198111F4CFDF91D7
:10347000CF9108950F9300E020E040E060E086ECFB
:1034800099E00E94F73A0F9108950E9624E1FC010D
:1034900011922A95E9F70895CF93DF93EC01625FCB
:1034A0007F4F0E940D3BCE01DF91CF910895CF93C6
:1034B000DF93EC016E5E7F4F0E940D3BCE01DF91EA
:1034C000CF910895CF93DF93EC016A5E7F4F0E9406
:1034D0000D3BCE01DF91CF910895CF93DF93EC01A7
:1034E000625E7F4F0E940D3BCE01DF91CF91089528
:1034F00080E3FB0180833296842F82958F7090E168
:10350000899F401911244A3014F4405D01C0495C80
:103510004293482F8111F0CF08950F9300E020E0EF
:1035200040E060E08CEC99E00E94F73A0F9108953A
:103530007F928F929F92AF92BF92CF92DF92EF9243
:10354000FF920F931F93CF93DF93CDB7DEB7AC9766
:103550000FB6F894DEBF0FBECDBF7C01762E942E41
:10356000852E20E2B22ECE0101966C01FC012B2D9E
:1035700011922A95E9F70FEF2FEF4FEF6FEF869635
:103580000E94F73A87EA94E09AA389A389A59AA5AD
:10359000ABA5BCA58BA39CA3ADA3BEA387010D5B6C
:1035A0001F4F43E450E0BE016F5D7F4FC8010E9492
:1035B0008810019609F4BFC081E089838A8386E080
:1035C000A82EAB821C82F701648175818681978168
:1035D0000E942E416D837E838F83988789869A8689
:1035E00080E890E09C878B874CE150E0B601C801F1
:1035F0000E949810F6012B2D11922A95E9F74701A8
:1036000088E0880E911CF401D60101900D92AA94D5
:10361000E1F740E150E0B601C8010E949810F601C0
:103620001192BA94E9F796E0A92EB12C40E250E04D
:10363000B601C8010E949810F1E0AF1AB108B1F7C5
:1036400083E6898392E89A8393E59B838C8385E361
:103650008D8381E08E837F829DE3988797E09987B1
:103660008A8786E0F401DE011B9601900D928A950F
:10367000E1F78CE0898B8A8B6CE674E0CE0143968F
:103680000E944345F7014385BE01675E7F4FC70136
:103690000E94781AF7014485BE01655E7F4FC7011D
:1036A0000E94781AF7014585BE01635E7F4FC7010E
:1036B0000E94781A4EE150E0B601C8010E949810AD
:1036C000F3E07F121EC082E3898384E08A83F701DE
:1036D00096859B8397859C8390899D8391899E8302
:1036E00096E39F838887828D8987838D8A87848DDF
:1036F0008B87858D8C874CE050E0B601C8010E9415
:10370000981087E3898386E08A8391E09B8393E026
:103710009C838D838FE08E838AE38F838BE38887FE
:103720008FEF898749E050E0B601C8010E949810E8
:10373000C8010E949210AC960FB6F894DEBF0FBE7F
:10374000CDBFDF91CF911F910F91FF90EF90DF9050
:10375000CF90BF90AF909F908F907F9008952F92C1
:103760003F924F925F926F927F928F929F92AF9211
:10377000BF92DF92EF92FF920F931F93CF93DF934D
:10378000CDB7DEB7C054D1090FB6F894DEBF0FBE77
:10379000CDBF7C014A015B0119010E94213F2B0131
:1037A0003C0187010D5B1F4FC8010E94461118168E
:1037B0001906A4F00E94213FDC01CB018419950970
:1037C000A609B70988169906AA06BB06F0F062E3B7
:1037D00070E080E090E00E94523FE6CF42E250E08D
:1037E000BE016F5F7F4FC8010E94D5108981823072
:1037F00031F4F801848995898334910541F0D12C05
:10380000C8010E94DD0F8D2D43C18FEF41C16D8135
:103810007E818F8198850E942E412B013C01F10110
:10382000608371838283938346E050E0B701685FD1
:103830007F4FCE014D960E941245892B99F4F701D6
:1038400080819181A281B381481659066A067B0660
:1038500048F084819581A681B78184159505A605D8
:10386000B70528F4C8010E94DD0F80E011C18989E5
:103870009A89AB89BC89F70186879787A08BB18B22
:103880004EEC50E060E070E0C8010E94D510D12CF1
:10389000C70182969EAB8DABF701B696F8AFEFAB42
:1038A00008969AAF89AF47019AE1890E911CBD969F
:1038B000FCAFEBAFC70142969EAF8DAFFD9721964F
:1038C000FFAFEEAF21971701FEE12F0E311CC801AB
:1038D0000E94C30F181619060CF092CFC8010E945F
:1038E000AC108333910509F4B3C0ACF48130910579
:1038F00069F11CF4892B59F3C5C08330910571F12E
:10390000069709F0BFC0C8010E94AC105C0144E0FA
:1039100050E0B1012DC08A33910509F46DC034F433
:103920008533910559F0C69781F1ACC08B33910571
:1039300009F478C08F3F910551F2A4C0C8010E94DC
:10394000AC10C8010E94AC10D82EC1CFC8010E9493
:10395000AC1044E050E06DAD7EAD13C0C8010E94D4
:10396000AC105C0144E050E021966EAD7FAD219734
:10397000C8010E94D510A50155274450510960E0A7
:1039800070E0C8010E94D510A2CFC8010E94AC10FF
:103990005C0140E050E0BA01CE0189960E94033BF1
:1039A000B401CE018F960E940D3B4BA55CA56DA581
:1039B0007EA589A99AA9ABA9BCA9481759076A0786
:1039C0007B07A1F0EBADFCAD40805180628073803D
:1039D000B401CE0183960E940D3B8DA19EA1AFA1A3
:1039E000B8A584159505A605B70521F444E050E077
:1039F000B401C7CFA5014AC0C8010E94AC1044E081
:103A000050E06FA978ADC8010E94D510F70166A1FA
:103A100077A180A591A50E942E4166A377A380A7D8
:103A200091A755CFC8010E94AC1044E050E069ADA9
:103A30007AADC8010E94D510F70162A573A584A5CF
:103A400095A50E942E4162A773A784A795A73FCF93
:103A5000C8010E94AC1044E050E06DA97EA9C801E5
:103A60000E94D510F70162A173A184A195A10E94C3
:103A70002E4162A373A384A395A366A777A780AB07
:103A800091AB25CFC8010E94AC10AC01552777CF70
:103A9000C05CDF4F0FB6F894DEBF0FBECDBFDF9125
:103AA000CF911F910F91FF90EF90DF90BF90AF905B
:103AB0009F908F907F906F905F904F903F902F904E
:103AC00008952F923F924F925F926F927F928F92C2
:103AD0009F92AF92BF92CF92DF92EF92FF920F939D
:103AE0001F93CF93DF9300D000D0CDB7DEB78C010A
:103AF00020ED37E040E050E061E070E080E090E0F1
:103B00000E94943CD80114966D937D938D939C9361
:103B10001797F80160837183828393835801F3E4DC
:103B2000AF0EB11CC5010E94DE0F64E470E0C50158
:103B30000E94EC0F882309F436C10E94213F2B011B
:103B40003C01812C912CC8018E5B9F4F9E838D83FD
:103B500048EEC42E43E0D42EE12CF12C52E0252E69
:103B6000AD81BE818C91833009F404C1811120C0E4
:103B7000F80184819581A681B7810196A11DB11DAF
:103B800084839583A683B7830E94213F64197509B6
:103B900086099709A70196010E94E540A90161E005
:103BA000C8010E94981A81E0AD81BE818C93CAC081
:103BB0008430F9F4F80184819581A681B78101965A
:103BC000A11DB11D84839583A683B7830E94213FE5
:103BD0006419750986099709A70196010E94E540B5
:103BE000A90163E0C8010E94981AAD81BE812C92A0
:103BF000A9C0813059F5F80142AD53AD64AD75AD42
:103C00009E012F5F3F4FC8010E94AF1B382EF2E08C
:103C10008F1392C089819A81AB81BC81F801848322
:103C20009583A683B7830E94213F6419750986098D
:103C30009709A70196010E94E540A90163E0C80128
:103C40000E94981AAD81BE813C927CC0823009F0FE
:103C500079C0F80142AD53AD64AD75AD9E012F5FE3
:103C60003F4FC8010E94AF1B382EF5E08F135DC097
:103C7000E3E0AD81BE81EC93F80182A193A1A4A100
:103C8000B5A1892B8A2B8B2B41F484E893E0A0E02B
:103C9000B0E082A393A3A4A3B5A3F80186A197A142
:103CA000A0A5B1A5892B8A2B8B2B61F482A193A1AE
:103CB000A4A1B5A1B695A7959795879586A397A337
:103CC000A0A7B1A7F80182A593A5A4A5B5A5892BA6
:103CD0008A2B8B2BA9F482A193A1A4A1B5A1AC013D
:103CE000BD0123E076956795579547952A95D1F7BD
:103CF000841B950BA60BB70B82A793A7A4A7B5A708
:103D0000F80186A197A1A0A5B1A586A797A7A0AB0A
:103D1000B1AB82A593A5A4A5B5A582AB93ABA4AB8B
:103D2000B5AB88248394912C0DC0F6E08F1304C0AA
:103D3000AD81BE811C9206C0BFEF3B1203C0ED8176
:103D4000FE811082F1E08F16910409F409CF0E94E0
:103D5000213FDC01CB0184199509A609B709F801B7
:103D600026A937A940AD51AD281739074A075B0787
:103D700008F0F6CEC5010E94DE0FF801848195811E
:103D8000A681B7810196A11DB11D84839583A68369
:103D9000B7830E94213FF801FE966083718382837E
:103DA0009383C40102C080E090E026960FB6F89499
:103DB000DEBF0FBECDBFDF91CF911F910F91FF905E
:103DC000EF90DF90CF90BF90AF909F908F907F90BB
:103DD0006F905F904F903F902F900895CF92DF9219
:103DE000EF92FF920F931F93CF93DF93EC016B0140
:103DF0001AA21BA21CA21DA21EA21FA218A619A6CF
:103E00001AA61BA61CA61DA62EAB3FAB48AF59AFEA
:103E1000EAAEFBAE0CAF1DAF8C01085F1F4F86E012
:103E2000F80111928A95E9F7CE010E94451A86E0C1
:103E3000F601D80101900D928A95E1F7FE01EE5B43
:103E4000FF4F1082CE01DF91CF911F910F91FF9014
:103E5000EF90DF90CF900C94611DFB014281538164
:103E600064817581FC014283538364837583178267
:103E700016820895CF93FB0120E080E090E0CAE035
:103E80003191332309F160ED630F6A3080F4C89FEC
:103E9000B001C99F700D1124CB01C097830F911DF4
:103EA00037FD9A958F3F910559F350F314C03E3278
:103EB00091F4233081F0DA01A20FB11D12968C9398
:103EC0002F5F80E090E0DCCF233029F4FA01858376
:103ED00081E090E002C080E090E0CF9108950F93E0
:103EE00000E020E040E060E082ED99E00E94F73AD7
:103EF0000F9108958F929F92AF92BF92CF92DF92CF
:103F0000EF92FF920F931F93CF93DF9300D0CDB723
:103F1000DEB76C017B010E94213FF6017783668347
:103F20008601085F1F4FB6016A5F7F4F42E050E095
:103F3000C8010E94981081E090E09A83898342E052
:103F400050E0BE016F5F7F4FC8010E94981080E073
:103F500091E09A83898342E050E0BE016F5F7F4F1A
:103F6000C8010E9498101A82198242E050E0BE01F6
:103F70006F5F7F4FC8010E94981042E050E0BE0181
:103F80006F5F7F4FC8010E94981042E050E0BE0171
:103F90006F5F7F4FC8010E9498105701F501808123
:103FA000882309F1A7015A01F50181916F01882346
:103FB00021F08E3211F0A601F6CF4A018E189F082B
:103FC0001814190474F48B8241E050E0BE016D5F57
:103FD0007F4FC8010E949810A401B701C8010E9438
:103FE00098107601DBCF1B8241E050E0BE016D5F8F
:103FF0007F4FC8010E949810E12CFF24F394FA82AD
:10400000E98242E050E0BE016F5F7F4FC8010E942D
:104010009810FA82E98242E050E0BE016F5F7F4F64
:10402000C8010E94981081E090E00F900F900F90CF
:10403000DF91CF911F910F91FF90EF90DF90CF9084
:10404000BF90AF909F908F9008952F923F924F9284
:104050005F926F927F928F929F92AF92BF92CF9218
:10406000DF92EF92FF920F931F93CF93DF93CDB721
:10407000DEB763970FB6F894DEBF0FBECDBF7C01ED
:104080006B011A010E94213F4B015C018701085F0F
:104090001F4F2601612C712CC8010E944611181671
:1040A0001906A4F00E94213FDC01CB01881999096F
:1040B000AA09BB09481659066A067B06D0F062E3D6
:1040C00070E080E090E00E94523FE6CFF70142812D
:1040D000538164817581808D918DA28DB38D481738
:1040E00059076A077B0749F4848D958DC59729F494
:1040F00009C0EE24EA94FE2CF1C09EEFE92EFF24C5
:10410000FA94ECC0C8010E94C30F0C970CF4E2C0F3
:104110004CE050E0BE016F5F7F4FC8010E94D51098
:104120008B819C819827892798279A8B898BF70107
:104130004681578129813A814217530711F497FD2F
:1041400008C0C8010E94DD0F7CEFE72EFF24FA941F
:10415000C5C08F709270892B41F0C8010E94DD0F9D
:104160006BEFE62EFF24FA94B9C0CF80D884DC240C
:10417000CD24DC24C114D10419F0E12CF12C26C08B
:10418000C8010E94DD0F5AEFE52EFF24FA94A6C065
:1041900041E050E0BE01635F7F4FC8010E94D5102F
:1041A0004D85442331F050E060E070E0C8010E948A
:1041B000D5108D858111ECCF44E050E060E070E0D7
:1041C000C8010E94D510FFEFEF1AFF0A8D819E8172
:1041D000982789279827E816F906D0F2A12CB12C48
:1041E00041E050E0BE016D5E7F4FC8010E94D510D6
:1041F0004B89842F807C49F4442379F050E060E0BF
:1042000070E0C8010E94D51008C041E050E060E0B5
:1042100070E0C8010E94D5101B8A8B898111E0CF04
:1042200042E050E0BE01615F7F4FC8010E94D5109F
:1042300042E050E0BE01635F7F4FC8010E94D5108D
:1042400044E050E060E070E0C8010E94D51042E018
:1042500050E0BE016F5E7F4FC8010E94D5108F8570
:10426000988949895A8981159140E9F4ED84FE8441
:10427000FE24EF24FE2481E0E816F104A1F44115A8
:10428000544041F0C8010E94DD0F47EFE42EFF24A7
:10429000FA9424C0B1016E5F7F4F44E050E0C80142
:1042A0000E94D5101BC054274527542760E070E0BA
:1042B000C8010E94D510FFEFAF1ABF0ACA14DB0471
:1042C00009F08ECFC8010E94DD0F36EFE32EFF24E8
:1042D000FA9404C08DEFE82EFF24FA94C701639688
:1042E0000FB6F894DEBF0FBECDBFDF91CF911F9107
:1042F0000F91FF90EF90DF90CF90BF90AF909F9085
:104300008F907F906F905F904F903F902F90089587
:104310006F927F928F929F92AF92BF92CF92DF92D5
:10432000EF92FF920F931F93CF93DF9300D000D0B3
:10433000CDB7DEB77C014B015A0139010E943A1F0B
:104340008C01892B09F05CC0F701428153816481A3
:1043500075818091D4099091D509A091D609B09129
:10436000D709481759076A077B0709F44CC00E9410
:10437000213F6701F8E0CF0ED11C6F7077277C5F7B
:10438000C6010E94EC0F813009F03FC087EA94E03B
:104390009A838983F70182819381A481B5818B837C
:1043A0009C83AD83BE8345E350E0BE016F5F7F4FCA
:1043B000C6010E948810892B19F400E010E01CC08F
:1043C000B401C7010E947A1F892BB9F3C6010E946C
:1043D0009210892B91F383E0882E912CA501B301D3
:1043E000C7010E9425208C0121E0821A910821F04A
:1043F0000F3FFFEF1F0791F3C6010E94DE0F05C0BC
:1044000001E010E002C00EEF1FEFC80126960FB6C4
:10441000F894DEBF0FBECDBFDF91CF911F910F91FA
:10442000FF90EF90DF90CF90BF90AF909F908F90D4
:104430007F906F900895CF93CFB7F8948091DB0968
:10444000811127C0E9E6F3E08491E3E2F3E094917F
:10445000E82FF0E0EE0FFF1FE255FC4FA591B4915D
:10446000EC91E92321F461E085E30E948D4061E055
:1044700085E30E9451408CB580618CBD8CB5806411
:104480008CBD61E084E30E94514061E083E30E94BF
:1044900051408091DB098F5F8093DB09CFBFCF91C3
:1044A0000895CF93DF93C5E1D2E08091DC0990912C
:1044B000DD096991DC01ED91FC910190F081E02D25
:1044C0001995B2E0CF31DB0781F7DF91CF910895E5
:1044D000FC013196079620E030E04191240F311D18
:1044E000E817F907D1F788279927821B930B0895BE
:1044F00085E192E00E946822E5E1F2E097838087FF
:104500000895ECEDF8E0119288E0E63EF807D9F75F
:104510000895CF93DF930E948122CCEDD8E0809163
:10452000DC099091DD09DC01ED91FC910284F385B9
:10453000E02D19958F3FBFEF9B0739F0899328E055
:10454000C63ED20761F781E001C080E0DF91CF91E4
:1045500008959093DD098093DC0981E592E29093C0
:10456000E1098093E00989E892E29093DF09809362
:10457000DE090895CF92DF92EF92FF921F93CF93BF
:10458000DF93182FD62FC42F0E94213F2091E209DC
:104590003091E309621B730B77FF03C0719561953E
:1045A00071096233710594F4CB01770FAA0BBB0B31
:1045B00042E350E060E070E06A017B01C81AD90A6A
:1045C000EA0AFB0AC701B6010E94523F1093180283
:1045D000D0931A02C0931B020E947822E091E00956
:1045E000F091E10919950E94213F6093E2097093CF
:1045F000E3098093E4099093E509DF91CF911F913E
:10460000FF90EF90DF90CF900895AB0160E070E0F5
:104610000C94BA22BC0186E00C940523BC0182E113
:104620000C940523CF92DF92EF92FF920F931F938A
:1046300069017A01611571058105910569F481E0CF
:1046400090E0A0E0B0E08093EF099093F009A09390
:10465000F109B093F20908C06093EF097093F00973
:104660008093F1099093F2091093EE090093ED09FC
:10467000809170008E7F809370008091B0008C7F5D
:104680008093B0008091B100877F8093B1008091CA
:10469000B6008F7D8093B600809170008D7F8093EF
:1046A00070008091B10084608093B1008091B1006E
:1046B0008C7F8093B10020E034E244E75BE4C701E3
:1046C000B6010E94D64120E030E040E85CE30E9461
:1046D000D6410E944F4120E031E0C901861B970B73
:1046E0009093E7098093E6091F910F91FF90EF9057
:1046F000DF90CF9008950F931F938A012FE632E148
:1047000043E85AE30E9412231F910F9108951092DB
:10471000E9091092EA091092EB091092EC09109243
:10472000E8098091E6099091E7098093B200E0E7FB
:10473000F0E080818160808308958091E909909103
:10474000EA09A091EB09B091EC090196A11DB11DF8
:104750008093E9099093EA09A093EB09B093EC09DF
:104760008091E9099091EA09A091EB09B091EC09D7
:104770004091EF095091F0096091F1097091F209AF
:1047800084179507A607B70710F18091E8098111F2
:104790001EC081E08093E8098091E9099091EA09BF
:1047A000A091EB09B091EC09841B950BA60BB70BFC
:1047B0008093E9099093EA09A093EB09B093EC097F
:1047C000E091ED09F091EE0919951092E80908952C
:1047D0001F920F920FB60F9211240BB60F922F93C8
:1047E0003F934F935F936F937F938F939F93AF9379
:1047F000BF93EF93FF938091E6099091E70980932F
:10480000B2000E949D23FF91EF91BF91AF919F91C4
:104810008F917F916F915F914F913F912F910F9069
:104820000BBE0F900FBE0F901F901895CF93DF9384
:104830001F92CDB7DEB76983DC01ED91FC91028058
:10484000F381E02D41E050E0BE016F5F7F4F19958D
:104850000F90DF91CF910895CF93DF93EC01898D75
:104860009A8D009739F481E090E09B838A8380E001
:1048700090E00BC0FC01138212820E941B31E98D73
:10488000FA8D22813381232B71F7DF91CF91089527
:10489000FC01818D928D009711F00C947D2E08956E
:1048A000CF93DF931F92CDB7DEB741E050E0BE015A
:1048B0006F5F7F4F0E94982C019719F4898190E0D7
:1048C00002C08FEF9FEF0F90DF91CF910895FC0111
:1048D000818D928D009711F00C9450248FEF9FEFF3
:1048E00008950F931F93CF93DF93FC01818D928DD9
:1048F0000097B9F0EF010E9450248C010F3F8FEF19
:10490000180791F0898D9A8DFC0142855385648545
:10491000758541505109610971090E94E62DC80150
:1049200005C080E090E002C08FEF9FEFDF91CF9154
:104930001F910F910895EF92FF920F931F93CF93C2
:10494000DF93EC017B018A011B821A8288EE93E0DF
:10495000A0E0B0E08C839D83AE83BF8387E794E0C3
:10496000998388838DE190E00E9443429A8F898FDA
:10497000009779F02DE1F701DC0101900D922A9565
:10498000E1F74CE050E0B801CE010C960E944A4598
:10499000188EDF91CF911F910F91FF90EF900895A6
:1049A000FC011382128288EE93E0A0E0B0E08483E1
:1049B0009583A683B78387E794E091838083128EE3
:1049C000118E14860895FC01818D928D009729F037
:1049D0000E94E62D91E0811101C090E0892F089599
:1049E000DC015996ED91FC915A97309729F0628538
:1049F00073858485958508956FEF7FEFCB010895CA
:104A0000DC015996ED91FC915A97309729F0638912
:104A1000748985899689089560E070E0CB010895D6
:104A2000CF92DF92EF92FF92CF93DF93FC01218D23
:104A3000328D232BD9F0EC010E9400256B017C0103
:104A4000CE010E94F024A7019601261B370B480BCC
:104A5000590BDA01C901811530E89307A105B105A9
:104A600038F08FEF9FE7A0E0B0E002C080E090E078
:104A7000DF91CF91FF90EF90DF90CF900895CF938B
:104A8000DF93EC01898D9A8D009741F00E94C42E2E
:104A9000898D9A8D0E94DB421A8E198EDF91CF91FB
:104AA0000895DC015996ED91FC915A97309721F0C9
:104AB00081E09581911101C080E00895442339F08F
:104AC0000E94F43091E0811103C090E001C091E0B8
:104AD000892F08950F931F93CF93DF93EC018B01E0
:104AE00041E00E945F36811109C040E0B801CE016B
:104AF000DF91CF911F910F910C945F3681E0DF9190
:104B0000CF911F910F910895EF92FF920F931F93F2
:104B1000CF93DF93DA01EB0128813981FC01E20FA9
:104B2000F31F40814F3211F42F5F3F4F8C01020F72
:104B3000131F7D01E0E0F0E0E80159918E015F3242
:104B400059F0552349F031962F5F3F4FE7015993B4
:104B50007E01EC30F10581F7EA0FFB1F1082FC01AA
:104B6000E20FF31F40814F3211F42F5F3F4FFB01E3
:104B700031832083FC01E20FF31F81E090819111CA
:104B800001C080E0DF91CF911F910F91FF90EF90D6
:104B900008954F925F926F927F928F929F92AF9201
:104BA000BF92CF92DF92EF92FF920F931F93CF931A
:104BB000DF93CDB7DEB7C954D1090FB6F894DEBF85
:104BC0000FBECDBF5C016B013A01490119A218A2C9
:104BD00089E894E09F8F8E8F1BA21C821B829A8390
:104BE00089831E822A961FAE1EAE2A978B017E01F4
:104BF0008EE1E80EF11C44244394AE01455C5F4F06
:104C0000BE01685B7F4FC5010E948425582E482F46
:104C100044259401BE01655C7F4FC801F3011995DD
:104C2000811108C00C151D0519F0C8010E94C42E81
:104C300080E027C05520B9F021E0AE01455C5F4F10
:104C4000B801C7010E94EC2F582E0C151D0599F0D4
:104C5000C8010E94C42E552059F3902F812F87013F
:104C6000E92EF82ECACF0C151D0519F0C8010E94B7
:104C7000C42E81E006C08823D9F28E010F5F1F4F3A
:104C8000ECCFC75BDF4F0FB6F894DEBF0FBECDBFD2
:104C9000DF91CF911F910F91FF90EF90DF90CF9018
:104CA000BF90AF909F908F907F906F905F904F904C
:104CB00008950F931F93CF93DF93EC01162F8FA5C9
:104CC000882321F0CE018A960E94C42E412F61E0F4
:104CD000CE010E944F29882389F08E01045F1F4F67
:104CE000BE01C8010E946A25882341F0B801CE01A7
:104CF0008A960E94472C91E0811101C090E0892F93
:104D0000DF91CF911F910F910895FC01DB01129665
:104D10008D919C9113979383828389E894E091838A
:104D2000808314968C911497848315968C91159793
:104D3000858316964D915D916D917C91199746836F
:104D40005783608771871A964D915D916D917C9123
:104D50001D9742875387648775871E964D915D9195
:104D60006D917C91519746875787608B718B5296D6
:104D70008C915297828B53964D915D916D917C9160
:104D80005697438B548B658B768B57964D915D91DF
:104D90006D917C915A97478B508F618F728F5B9684
:104DA0008D919C915C97948F838F08954F925F9221
:104DB0006F927F928F929F92AF92BF92CF92DF922B
:104DC000EF92FF920F931F93CF93DF93CDB7DEB790
:104DD000C754D1090FB6F894DEBF0FBECDBF5C013A
:104DE0004A01390119A218A289E894E09F8F8E8F99
:104DF0001BA21C821B829A8389831E82645F7F4F61
:104E00006E018EE1C80ED11CC6010E94472C7401B0
:104E10008E010F5F1F4F5C2C4D2C6FE270E0C701BD
:104E20000E942F45009709F443C0F70120812F32DB
:104E300071F4FFEFEF1AFF0A902F812F052D142D2B
:104E40002C01C201502E412E092F182FE6CF8E19AA
:104E50008D3008F08CE0C82ED12CA601B701CE0110
:104E6000CB960E944A45EBE3F0E0EC0FFD1FEC0D02
:104E7000FD1D1082C8010E94C42E21E0AE01455CD8
:104E80005F4F652D742DC8010E94EC2F811109C060
:104E9000F5011382128289E894E091838083158260
:104EA00011C0EC0CFD1C852D942D0E94C42EC9CF81
:104EB000E818F908F301F182E082652D742DC5012F
:104EC0000E948526C501C95BDF4F0FB6F894DEBF8F
:104ED0000FBECDBFDF91CF911F910F91FF90EF904B
:104EE000DF90CF90BF90AF909F908F907F906F900A
:104EF0005F904F900895DF92EF92FF920F931F9370
:104F0000CF93DF93CDB7DEB7C955D1090FB6F8946B
:104F1000DEBF0FBECDBF7C018A01D22E9E01285A72
:104F20003F4FCE01CB960E94D6266A968EAD9FAD9E
:104F30006A97080F191FF801808181110AC0BE010C
:104F4000655C7F4FCE0101960E94852641E352E0C9
:104F500033C019A218A289E894E09F8F8E8F1BA2FC
:104F600021968FAD2197811104C0C7010E94D024E2
:104F700029C02D2DA801BE01655C7F4FCE014E9644
:104F80000E94EC2F882389F3CE01CB960E94C42E79
:104F90008D2D8670863041F449A95AA96BA97CA948
:104FA000CE014E960E94E62DBE01625E7F4FCE017D
:104FB00001960E948526A801BE016F5F7F4FC70141
:104FC0000E949B24C701C75ADF4F0FB6F894DEBF7B
:104FD0000FBECDBFDF91CF911F910F91FF90EF904A
:104FE000DF900895FB01BC01665D7F4F20E030E05B
:104FF0004EE555E2CF010C94C925E3EFF9E01582A7
:1050000016821186138682E090E0A0E0B0E08487EB
:105010009587A687B78713A215A614A689E894E0FA
:1050200093A782A717A608959FB7F8942091DA094D
:105030008091D809213019F48DBB9FBF08958FBF8F
:1050400008950F93FC0180E092E1AAE7B0E030E020
:10505000481759076A077B0740F4B695A7959795B7
:1050600087953F5F3630A1F737E091E09327222301
:1050700011F020E501C020E70C70892F8695082BE0
:10508000022B0083917091830F9108958FEF0C9400
:105090009B1761E0FC0184810E948D4080913C0A55
:1050A000882339F010923C0A8091DA0981110C941E
:1050B00014280895CF93DF93EC0180913C0A81116D
:1050C00009C081E080933C0A80913D0A90913E0A9C
:1050D0000E94280A60E08C81DF91CF910C948D4072
:1050E000CF93DF93EC018E81882389F08F8198859F
:1050F0009C012F5F3F4F38872F838230924018F4F6
:105100000E944628F3CFCE010E9449281E82DF91DB
:10511000CF9108950F93CF93DF931F921F92CDB736
:10512000DEB7673028F026E1FC01258380E047C028
:105130006230F9F058F46623A9F0613079F500E0A7
:1051400021E040E059E06DE370E02EC06430F9F0FA
:10515000B8F0653019F500E021E040E950ED63E07A
:1051600070E022C000E021E040E458E76DE771E024
:105170001BC000E021E040E854E86EE170E014C09C
:1051800000E021E040E452E46FE070E00DC000E098
:1051900021E040E251EA67E070E006C000E021E073
:1051A00048E458EE61E070E0CE0101960E942128AB
:1051B00089819A8190933E0A80933D0A81E00F9005
:1051C0000F90DF91CF910F9108950F931F93CF937D
:1051D000DF93EB010E94213F8B010E9446288F3F05
:1051E00049F00E94213F601B710B6C177D07A8F3EB
:1051F00080E001C081E0DF91CF911F910F91089570
:105200008F929F92AF92BF92FF920F931F93CF9373
:10521000DF93EC01F62E49015A010E947028CE015D
:105220000E945A286CE271E0CE010E94E5288F2D81
:1052300080640E949B1708E110E0D501C401002E94
:1052400004C0B695A795979587950A94D2F70E94C2
:105250009B1708501109083F8FEF180771F7FF20BF
:1052600029F088E0F81204C087E803C085E901C08E
:105270008FEF0E949B1710E00E9446288A8787FFC5
:1052800004C01F3F11F01F5FF7CFDF91CF911F9137
:105290000F91FF90BF90AF909F908F9008957F9255
:1052A0008F929F92AF92BF92CF92DF92EF92FF9236
:1052B0000F931F93CF93DF931F921F92CDB7DEB74B
:1052C0007C01762EFC01138611861682158244839A
:1052D0000E94213F6B0161E0F70184810E945140EF
:1052E00061E0F70184810E948D400E941B2200E052
:1052F00021E040E950ED63E070E0CE0101960E94AC
:10530000212889819A8190933E0A80933D0A0E94C8
:10531000280A1AE08FEF0E949B171150D9F780914D
:10532000DA0981110E941428C7010E945A2820E03E
:1053300030E0A90160E0C7010E940029082FF701B1
:105340008287813049F00E94213F6C197D09613DBF
:10535000774068F381E050C02AEA31E040E050E055
:1053600068E0C7010E94002982FF03C0F70103879C
:105370000EC004E00E944628F70182870150D1F751
:105380008A3A11F082E039C082E0F7018387F701A1
:105390008385823021F0812C912C540105C0812C11
:1053A000912CA12C80E4B82E20E030E0A90167E325
:1053B000C7010E940029A501940169E2C7010E946A
:1053C0000029F7018287882349F00E94213F6C1948
:1053D0007D09613D774040F388E00EC0F701838589
:1053E0008230F1F420E030E0A9016AE3C7010E94B5
:1053F0000029882339F086E0F7018583C7010E94E0
:10540000492816C00E944628807C803C19F483E01D
:10541000F70183870E9446280E9446280E9446285A
:10542000C7010E944928672DC7010E948A28182FAA
:10543000812F0F900F90DF91CF911F910F91FF90CF
:10544000EF90DF90CF90BF90AF909F908F907F9024
:1054500008950F931F93CF93DF93EC010E94213F98
:105460008B010E9446288A878F3F49F40E94213F82
:10547000601B710B6D327140A0F38FE003C08E3F53
:1054800039F08DE08D83CE010E94492880E001C073
:1054900081E0DF91CF911F910F910895CF92DF921C
:1054A000EF92FF920F931F93CF93DF93EC0169016B
:1054B000C801820F931F8130924008F05CC08E813A
:1054C000882371F088819981AA81BB81841795070F
:1054D000A607B70729F48F819885C816D90610F555
:1054E000488359836A837B838B85833039F089E0D5
:1054F000440F551F661F771F8A95D1F79A01AB019C
:1055000061E1CE010E940029882319F083E08D8398
:1055100032C0CE010E94292A882369F118861F8291
:1055200081E08E838F8198858C159D0540F40E94C3
:1055300046288F819885019698878F83F3CF6701DE
:10554000E00EF11ECE14DF0431F00E944628F60171
:1055500081936F01F7CF8F819885080F191F1887E6
:105560000F838985882319F00115124048F0CE0178
:105570000E94702805C0CE010E94492880E001C029
:1055800081E0DF91CF911F910F91FF90EF90DF901D
:10559000CF900895EF92FF920F931F93011511057D
:1055A00019F00E944E2A01C081E01F910F91FF90D7
:1055B000EF900895EF92FF920F931F93790100E00F
:1055C00012E020E030E00E944E2A1F910F91FF90E0
:1055D000EF900895EF92FF920F931F93CF93DF9375
:1055E0008C01862F7A010E949B17E7018EEFF81A33
:1055F00089910E949B17CE15DF05D1F78FEF0E948E
:105600009B178FEF0E949B170E944628F801828704
:105610008F71853039F081E18583C8010E94492866
:1056200080E001C081E0DF91CF911F910F91FF9049
:10563000EF9008950F931F93CF93DF93EC018901AF
:10564000411551056105710511F482E132C08B8568
:10565000833039F089E0440F551F661F771F8A9504
:10566000D1F79A01AB0168E1CE010E94002988239D
:1056700011F084E01EC0A8016EEFCE010E94EA2A5C
:105680008823C1F068E572E0CE010E94E52881110F
:1056900002C085E10EC020E030E0A9016DE0CE013E
:1056A0000E940029811104C00E944628882339F0F5
:1056B00084E18D83CE010E94492880E004C0CE01A0
:1056C0000E94492881E0DF91CF911F910F910895A9
:1056D000EDE3FAE080E5808311820895CF93DF93B4
:1056E000EC019C012A5F3F4F41E050E060E070E038
:1056F0008B8D9C8D0E94F4348823A1F08F89988D26
:10570000A98DBA8D892B8A2B8B2B59F48E819F8181
:10571000A885B9858F8B988FA98FBA8F8C81806867
:105720008C8381E0DF91CF910895CF92DF92EF9249
:10573000FF921F93CF93DF93EC010E946E2B811198
:1057400002C080E04AC0EB8DFC8DCE80DF80E88413
:10575000F98482E0C81AD108E108F108058404C080
:10576000CC0CDD1CEE1CFF1C0A94D2F786859785B5
:10577000A089B189C80ED91EEA1EFB1E148181E0E2
:10578000C81AD108E108F108112361F0C701B60178
:10579000610F711D811D911D0E944333882389F281
:1057A0001150F2CFEB8DFC8D80E092E0A0E0B0E0F4
:1057B000058404C0880F991FAA1FBB1F0A94D2F743
:1057C0004B895C896D897E89840F951FA61FB71F41
:1057D0008B8B9C8BAD8BBE8B81E0DF91CF911F912A
:1057E000FF90EF90DF90CF900895CF93DF93EC017F
:1057F000462F6E857F85888999890E940833882382
:1058000041F08A8920E2829FC0011124885B954F74
:1058100002C080E090E0DF91CF910895FB019B01F1
:10582000255F3F4F40E24193E217F307E1F7DC01C8
:1058300090E027E08D91882319F18E3229F42A30E7
:1058400021F198E02AE0F6CFE8E9F2E03491332341
:1058500021F031968313FACF18C02917B0F03FED2D
:10586000380F3E3590F431E0390FFB01E90FF11D9F
:105870009FE9980F9A3108F480528083932FDACFF2
:1058800081E0FB019081903209F480E008950F934C
:105890001F93CF93DF93FC012581222311F080E039
:1058A00042C08B01EC01FB0187898031B1F482E0B9
:1058B0008D831F8A188E198E1A8E808D918DA0E08F
:1058C000B0E025E0880F991FAA1FBB1F2A95D1F7CA
:1058D0008B8B9C8BAD8BBE8B15C0803201F783E028
:1058E0008D83FB01428D538D648D758D4F8B588F49
:1058F000698F7A8F9E012D5E3F4FC8010E94EA3367
:10590000882369F21C8F0B8F81E08C831E821F829B
:10591000188619861A861B861C861D861E861F867B
:10592000188A198A1A8ADF91CF911F910F910895D1
:105930002F923F924F925F926F927F928F929F929F
:10594000AF92BF92CF92DF92EF92FF920F931F938D
:10595000CF93DF93EC015B014A018D81811103C07C
:105960008FEF9FEFD7C08C8180FFFACF4B885C8888
:105970006D887E884A855B856C857D85C401A0E045
:10598000B0E093018201041B150B260B370B08179F
:1059900019072A073B0718F44201841A950A2401C3
:1059A0001E0126E0220E311C4114510409F47EC070
:1059B0004A855B856C857D856A0181E0D822ED8111
:1059C0008B8D9C8D8A019B01F9E036952795179563
:1059D0000795FA95D1F7E23061F4FC01828D938D41
:1059E000A48DB58DBC01CD01600F711F821F931F67
:1059F0003FC0FC0174807A947022C114D104C9F4B0
:105A0000711017C0452B462B472B49F48F89988D71
:105A1000A98DBA8D8E839F83A887B9870AC04E81CE
:105A20005F816885798591010E946733882309F435
:105A300097CFEB8DFC8D8E819F81A885B9850297CC
:105A4000A109B109058404C0880F991FAA1FBB1FB3
:105A50000A94D2F74685578560897189840F951F0E
:105A6000A61FB71FBC01CD01670D711D811D911DC2
:105A700020E032E02C193D0932012415350508F4E7
:105A800039012C8126FD04C06114F2E07F0679F50E
:105A900000912202109123022091240230912502CC
:105AA000601771078207930719F421C0C40132C03F
:105AB000750183019601AB01BC018091460A90916A
:105AC000470A0E94CA2A882309F44ACFA60CB71CA9
:105AD0008A859B85AC85BD85860D971DA11DB11D51
